{
  "address": "0x3037e0b21e7b8e0babaf3611d6d0d5cac51e67c0",
  "abi": [
    {
      "inputs": [
        {
          "components": [
            {
              "internalType": "contract IERC20WithIERC2612",
              "name": "tokens",
              "type": "address"
            },
            {
              "internalType": "address payable",
              "name": "burnAddress",
              "type": "address"
            },
            {
              "internalType": "uint256",
              "name": "startTime",
              "type": "uint256"
            },
            {
              "internalType": "uint256",
              "name": "commitPhaseDuration",
              "type": "uint256"
            },
            {
              "internalType": "uint256",
              "name": "revealPhaseDuration",
              "type": "uint256"
            },
            {
              "internalType": "uint8",
              "name": "maxLife",
              "type": "uint8"
            },
            {
              "internalType": "uint256",
              "name": "numTokensPerGems",
              "type": "uint256"
            },
            {
              "internalType": "contract ITime",
              "name": "time",
              "type": "address"
            }
          ],
          "internalType": "struct UsingStratagemsTypes.Config",
          "name": "config",
          "type": "tuple"
        }
      ],
      "stateMutability": "nonpayable",
      "type": "constructor"
    },
    {
      "inputs": [],
      "name": "CanStillReveal",
      "type": "error"
    },
    {
      "inputs": [],
      "name": "CommitmentHashNotMatching",
      "type": "error"
    },
    {
      "inputs": [],
      "name": "GameNotStarted",
      "type": "error"
    },
    {
      "inputs": [],
      "name": "InCommitmentPhase",
      "type": "error"
    },
    {
      "inputs": [],
      "name": "InRevealPhase",
      "type": "error"
    },
    {
      "inputs": [],
      "name": "InvalidEpoch",
      "type": "error"
    },
    {
      "inputs": [],
      "name": "InvalidFurtherMoves",
      "type": "error"
    },
    {
      "inputs": [],
      "name": "NothingToReveal",
      "type": "error"
    },
    {
      "inputs": [],
      "name": "PreviousCommitmentNotRevealed",
      "type": "error"
    },
    {
      "inputs": [
        {
          "internalType": "uint256",
          "name": "inReserve",
          "type": "uint256"
        },
        {
          "internalType": "uint256",
          "name": "expected",
          "type": "uint256"
        }
      ],
      "name": "ReserveTooLow",
      "type": "error"
    },
    {
      "anonymous": false,
      "inputs": [
        {
          "indexed": true,
          "internalType": "address",
          "name": "player",
          "type": "address"
        },
        {
          "indexed": true,
          "internalType": "uint24",
          "name": "epoch",
          "type": "uint24"
        }
      ],
      "name": "CommitmentCancelled",
      "type": "event"
    },
    {
      "anonymous": false,
      "inputs": [
        {
          "indexed": true,
          "internalType": "address",
          "name": "player",
          "type": "address"
        },
        {
          "indexed": true,
          "internalType": "uint24",
          "name": "epoch",
          "type": "uint24"
        },
        {
          "indexed": false,
          "internalType": "bytes24",
          "name": "commitmentHash",
          "type": "bytes24"
        }
      ],
      "name": "CommitmentMade",
      "type": "event"
    },
    {
      "anonymous": false,
      "inputs": [
        {
          "indexed": true,
          "internalType": "address",
          "name": "player",
          "type": "address"
        },
        {
          "indexed": true,
          "internalType": "uint24",
          "name": "epoch",
          "type": "uint24"
        },
        {
          "indexed": true,
          "internalType": "bytes24",
          "name": "commitmentHash",
          "type": "bytes24"
        },
        {
          "components": [
            {
              "internalType": "uint64",
              "name": "position",
              "type": "uint64"
            },
            {
              "internalType": "enum UsingStratagemsTypes.Color",
              "name": "color",
              "type": "uint8"
            }
          ],
          "indexed": false,
          "internalType": "struct UsingStratagemsTypes.Move[]",
          "name": "moves",
          "type": "tuple[]"
        },
        {
          "indexed": false,
          "internalType": "bytes24",
          "name": "furtherMoves",
          "type": "bytes24"
        },
        {
          "indexed": false,
          "internalType": "uint256",
          "name": "newReserveAmount",
          "type": "uint256"
        }
      ],
      "name": "CommitmentRevealed",
      "type": "event"
    },
    {
      "anonymous": false,
      "inputs": [
        {
          "indexed": true,
          "internalType": "address",
          "name": "player",
          "type": "address"
        },
        {
          "indexed": true,
          "internalType": "uint24",
          "name": "epoch",
          "type": "uint24"
        },
        {
          "indexed": false,
          "internalType": "uint256",
          "name": "amountBurnt",
          "type": "uint256"
        },
        {
          "indexed": false,
          "internalType": "bytes24",
          "name": "furtherMoves",
          "type": "bytes24"
        }
      ],
      "name": "CommitmentVoid",
      "type": "event"
    },
    {
      "anonymous": false,
      "inputs": [
        {
          "indexed": true,
          "internalType": "uint64",
          "name": "position",
          "type": "uint64"
        },
        {
          "indexed": true,
          "internalType": "address",
          "name": "player",
          "type": "address"
        },
        {
          "indexed": false,
          "internalType": "enum UsingStratagemsTypes.Color",
          "name": "oldColor",
          "type": "uint8"
        },
        {
          "indexed": false,
          "internalType": "enum UsingStratagemsTypes.Color",
          "name": "newColor",
          "type": "uint8"
        }
      ],
      "name": "MoveProcessed",
      "type": "event"
    },
    {
      "anonymous": false,
      "inputs": [
        {
          "indexed": true,
          "internalType": "uint24",
          "name": "epoch",
          "type": "uint24"
        },
        {
          "indexed": false,
          "internalType": "uint64[]",
          "name": "positions",
          "type": "uint64[]"
        }
      ],
      "name": "MultiPoke",
      "type": "event"
    },
    {
      "anonymous": false,
      "inputs": [
        {
          "indexed": true,
          "internalType": "address",
          "name": "player",
          "type": "address"
        },
        {
          "indexed": false,
          "internalType": "uint256",
          "name": "amountDeposited",
          "type": "uint256"
        },
        {
          "indexed": false,
          "internalType": "uint256",
          "name": "newAmount",
          "type": "uint256"
        }
      ],
      "name": "ReserveDeposited",
      "type": "event"
    },
    {
      "anonymous": false,
      "inputs": [
        {
          "indexed": true,
          "internalType": "address",
          "name": "player",
          "type": "address"
        },
        {
          "indexed": false,
          "internalType": "uint256",
          "name": "amountWithdrawn",
          "type": "uint256"
        },
        {
          "indexed": false,
          "internalType": "uint256",
          "name": "newAmount",
          "type": "uint256"
        }
      ],
      "name": "ReserveWithdrawn",
      "type": "event"
    },
    {
      "anonymous": false,
      "inputs": [
        {
          "indexed": true,
          "internalType": "uint24",
          "name": "epoch",
          "type": "uint24"
        },
        {
          "indexed": false,
          "internalType": "uint64",
          "name": "position",
          "type": "uint64"
        }
      ],
      "name": "SinglePoke",
      "type": "event"
    },
    {
      "inputs": [
        {
          "internalType": "address",
          "name": "player",
          "type": "address"
        },
        {
          "internalType": "bytes32",
          "name": "secret",
          "type": "bytes32"
        },
        {
          "components": [
            {
              "internalType": "uint64",
              "name": "position",
              "type": "uint64"
            },
            {
              "internalType": "enum UsingStratagemsTypes.Color",
              "name": "color",
              "type": "uint8"
            }
          ],
          "internalType": "struct UsingStratagemsTypes.Move[]",
          "name": "moves",
          "type": "tuple[]"
        },
        {
          "internalType": "bytes24",
          "name": "furtherMoves",
          "type": "bytes24"
        }
      ],
      "name": "acknowledgeMissedReveal",
      "outputs": [],
      "stateMutability": "nonpayable",
      "type": "function"
    },
    {
      "inputs": [],
      "name": "acknowledgeMissedRevealByBurningAllReserve",
      "outputs": [],
      "stateMutability": "nonpayable",
      "type": "function"
    },
    {
      "inputs": [
        {
          "internalType": "uint256",
          "name": "tokensAmountToAdd",
          "type": "uint256"
        },
        {
          "components": [
            {
              "internalType": "uint256",
              "name": "value",
              "type": "uint256"
            },
            {
              "internalType": "uint256",
              "name": "deadline",
              "type": "uint256"
            },
            {
              "internalType": "uint8",
              "name": "v",
              "type": "uint8"
            },
            {
              "internalType": "bytes32",
              "name": "r",
              "type": "bytes32"
            },
            {
              "internalType": "bytes32",
              "name": "s",
              "type": "bytes32"
            }
          ],
          "internalType": "struct UsingStratagemsTypes.Permit",
          "name": "permit",
          "type": "tuple"
        }
      ],
      "name": "addToReserve",
      "outputs": [],
      "stateMutability": "nonpayable",
      "type": "function"
    },
    {
      "inputs": [],
      "name": "cancelCommitment",
      "outputs": [],
      "stateMutability": "nonpayable",
      "type": "function"
    },
    {
      "inputs": [
        {
          "internalType": "bytes24",
          "name": "commitmentHash",
          "type": "bytes24"
        },
        {
          "internalType": "address payable",
          "name": "payee",
          "type": "address"
        }
      ],
      "name": "makeCommitment",
      "outputs": [],
      "stateMutability": "payable",
      "type": "function"
    },
    {
      "inputs": [
        {
          "internalType": "bytes24",
          "name": "commitmentHash",
          "type": "bytes24"
        },
        {
          "internalType": "uint256",
          "name": "tokensAmountToAdd",
          "type": "uint256"
        },
        {
          "components": [
            {
              "internalType": "uint256",
              "name": "value",
              "type": "uint256"
            },
            {
              "internalType": "uint256",
              "name": "deadline",
              "type": "uint256"
            },
            {
              "internalType": "uint8",
              "name": "v",
              "type": "uint8"
            },
            {
              "internalType": "bytes32",
              "name": "r",
              "type": "bytes32"
            },
            {
              "internalType": "bytes32",
              "name": "s",
              "type": "bytes32"
            }
          ],
          "internalType": "struct UsingStratagemsTypes.Permit",
          "name": "permit",
          "type": "tuple"
        },
        {
          "internalType": "address payable",
          "name": "payee",
          "type": "address"
        }
      ],
      "name": "makeCommitmentWithExtraReserve",
      "outputs": [],
      "stateMutability": "payable",
      "type": "function"
    },
    {
      "inputs": [
        {
          "internalType": "uint64",
          "name": "position",
          "type": "uint64"
        }
      ],
      "name": "poke",
      "outputs": [],
      "stateMutability": "nonpayable",
      "type": "function"
    },
    {
      "inputs": [
        {
          "internalType": "uint64[]",
          "name": "positions",
          "type": "uint64[]"
        }
      ],
      "name": "pokeMultiple",
      "outputs": [],
      "stateMutability": "nonpayable",
      "type": "function"
    },
    {
      "inputs": [
        {
          "internalType": "address",
          "name": "player",
          "type": "address"
        },
        {
          "internalType": "bytes32",
          "name": "secret",
          "type": "bytes32"
        },
        {
          "components": [
            {
              "internalType": "uint64",
              "name": "position",
              "type": "uint64"
            },
            {
              "internalType": "enum UsingStratagemsTypes.Color",
              "name": "color",
              "type": "uint8"
            }
          ],
          "internalType": "struct UsingStratagemsTypes.Move[]",
          "name": "moves",
          "type": "tuple[]"
        },
        {
          "internalType": "bytes24",
          "name": "furtherMoves",
          "type": "bytes24"
        },
        {
          "internalType": "bool",
          "name": "useReserve",
          "type": "bool"
        },
        {
          "internalType": "address payable",
          "name": "payee",
          "type": "address"
        }
      ],
      "name": "reveal",
      "outputs": [],
      "stateMutability": "payable",
      "type": "function"
    },
    {
      "inputs": [
        {
          "internalType": "uint256",
          "name": "amount",
          "type": "uint256"
        }
      ],
      "name": "withdrawFromReserve",
      "outputs": [],
      "stateMutability": "nonpayable",
      "type": "function"
    }
  ],
  "contractName": "StratagemsSetters",
  "sourceName": "src/game/routes/StratagemsSetters.sol",
  "bytecode": "0x6101806040523480156200001257600080fd5b50604051620060d8380380620060d88339810160408190526200003591620000be565b60e0808201516001600160a01b0390811660809081528351821660a0908152602085015190921661016052604084015160c090815260608501519093528301516101005282015160ff16610120520151610140526200017e565b80516001600160a01b0381168114620000a757600080fd5b919050565b805160ff81168114620000a757600080fd5b6000610100808385031215620000d357600080fd5b604051908101906001600160401b03821181831017156200010457634e487b7160e01b600052604160045260246000fd5b8160405262000113846200008f565b815262000123602085016200008f565b60208201526040840151604082015260608401516060820152608084015160808201526200015460a08501620000ac565b60a082015260c084015160c08201526200017160e085016200008f565b60e0820152949350505050565b60805160a05160c05160e05161010051610120516101405161016051615e29620002af600039600081816107ee01528181610c110152612400015260008181611858015281816118ad01528181611a9c01528181611b69015281816134f50152818161354e015281816135ad015281816136f801528181613729015261481201526000818161346d01528181613d5c01528181613dca0152613df8015260006115cd0152600081816115ee01526116c101526000818161162201526116810152600081816103430152818161044c0152818161057c0152818161081d0152818161096801528181610c4001528181610e19015281816113df01528181611509015281816121c60152818161233b0152818161243001526124fd01526000818161257c01526125bc0152615e296000f3fe6080604052600436106100b15760003560e01c80638b8fc3a111610069578063afa1e2d11161004e578063afa1e2d114610173578063d401978314610188578063d67101121461019b57600080fd5b80638b8fc3a114610140578063ae37a62d1461016057600080fd5b80631fdd8a691161009a5780631fdd8a69146100eb5780634dd3ab2314610100578063599a71c61461012057600080fd5b80630a8bcdb9146100b657806310837a39146100d8575b600080fd5b3480156100c257600080fd5b506100d66100d1366004614e80565b6101bb565b005b6100d66100e6366004614f03565b6103f4565b3480156100f757600080fd5b506100d66106a2565b34801561010c57600080fd5b506100d661011b366004614f6c565b6108d2565b34801561012c57600080fd5b506100d661013b366004614fda565b6109d7565b34801561014c57600080fd5b506100d661015b36600461504b565b610d32565b6100d661016e3660046150c0565b610e75565b34801561017f57600080fd5b506100d6610ef5565b6100d6610196366004615105565b611004565b3480156101a757600080fd5b506100d66101b636600461519d565b61138d565b33600090815260036020526040812090806101d46115c4565b845491935091507801000000000000000000000000000000000000000000000000900462ffffff161580159061023757508015806102375750825462ffffff83811678010000000000000000000000000000000000000000000000009092041614155b1561026e576040517f0aafb74c00000000000000000000000000000000000000000000000000000000815260040160405180910390fd5b336000908152600260205260409020546001850161028f57935060006102e5565b848110156102d8576040517f78fe52a600000000000000000000000000000000000000000000000000000000815260048101829052602481018690526044015b60405180910390fd5b6102e285826151f9565b90505b3360008181526002602052604090819020839055517fa9059cbb00000000000000000000000000000000000000000000000000000000815260048101919091526024810186905273ffffffffffffffffffffffffffffffffffffffff7f0000000000000000000000000000000000000000000000000000000000000000169063a9059cbb906044016020604051808303816000875af115801561038c573d6000803e3d6000fd5b505050506040513d601f19601f820116820180604052508101906103b0919061520c565b50604080518681526020810183905233917ff7aeb382a1e87f84aa69637a22868c2e12be1261273f04cdf40a262a8b89003191015b60405180910390a25050505050565b3360009081526002602052604090205461040e8482615229565b33600081815260026020526040902082905590915061042e90868361170f565b82351561053b5773ffffffffffffffffffffffffffffffffffffffff7f00000000000000000000000000000000000000000000000000000000000000001663d505accf33308635602088013561048a60608a0160408b0161523c565b6040517fffffffff0000000000000000000000000000000000000000000000000000000060e088901b16815273ffffffffffffffffffffffffffffffffffffffff95861660048201529490931660248501526044840191909152606483015260ff166084820152606086013560a4820152608086013560c482015260e401600060405180830381600087803b15801561052257600080fd5b505af1158015610536573d6000803e3d6000fd5b505050505b831561063b576040517f23b872dd000000000000000000000000000000000000000000000000000000008152336004820152306024820152604481018590527f000000000000000000000000000000000000000000000000000000000000000073ffffffffffffffffffffffffffffffffffffffff16906323b872dd906064016020604051808303816000875af11580156105da573d6000803e3d6000fd5b505050506040513d601f19601f820116820180604052508101906105fe919061520c565b50604080518581526020810183905233917f9705a8ff16374359785d31b0f1862c27f983645496f40760d180a9830eeaf2e8910160405180910390a25b73ffffffffffffffffffffffffffffffffffffffff82161561069b5760405173ffffffffffffffffffffffffffffffffffffffff8316903480156108fc02916000818181858888f19350505050158015610699573d6000803e3d6000fd5b505b5050505050565b336000908152600360205260408120906106ba6115c4565b5082549091507801000000000000000000000000000000000000000000000000900462ffffff1660000361071a576040517f6599c9aa00000000000000000000000000000000000000000000000000000000815260040160405180910390fd5b815462ffffff80831678010000000000000000000000000000000000000000000000009092041603610778576040517f175868d700000000000000000000000000000000000000000000000000000000815260040160405180910390fd5b81547fffffffffff000000ffffffffffffffffffffffffffffffffffffffffffffffff168255336000908152600260205260408082208054929055517fa9059cbb00000000000000000000000000000000000000000000000000000000815273ffffffffffffffffffffffffffffffffffffffff7f000000000000000000000000000000000000000000000000000000000000000081166004830152602482018390527f0000000000000000000000000000000000000000000000000000000000000000169063a9059cbb906044016020604051808303816000875af1158015610866573d6000803e3d6000fd5b505050506040513d601f19601f8201168201806040525081019061088a919061520c565b50604080518281526000602082015262ffffff84169133917f6337d70daadadd11f8be7f6e7b38e6c04d28710b1f2a2894bb14d8e3eaa8cdb6910160405180910390a3505050565b60006108dc6115c4565b50905060006040518060400160405280600567ffffffffffffffff8111156109065761090661525f565b60405190808252806020026020018201604052801561094b57816020015b60408051808201909152600080825260208201528152602001906001900390816109245790505b50815260200160008152509050610963818484611955565b61098d7f000000000000000000000000000000000000000000000000000000000000000082611e0d565b60405167ffffffffffffffff8416815262ffffff8316907f9987a1be5559dc397dbe41aa886352a4124ac12037da7d0f28631c1c67e0ae55906020015b60405180910390a2505050565b73ffffffffffffffffffffffffffffffffffffffff8516600090815260036020526040812090610a056115c4565b5082549091507801000000000000000000000000000000000000000000000000900462ffffff161580610a5c5750815462ffffff828116780100000000000000000000000000000000000000000000000090920416145b15610a93576040517f175868d700000000000000000000000000000000000000000000000000000000815260040160405180910390fd5b81546040805160208088028201810183528782528793610af4931b918a918a908690819060009085015b82821015610ae957610ada6040830286013681900381019061529d565b81526020019060010190610abd565b505050505087611f10565b7fffffffffffffffffffffffffffffffffffffffffffffffff0000000000000000841615610b875760208114610b56576040517fcc586b4500000000000000000000000000000000000000000000000000000000815260040160405180910390fd5b82547fffffffffffffffff00000000000000000000000000000000000000000000000016604085901c178355610bae565b82547fffffffffff000000ffffffffffffffffffffffffffffffffffffffffffffffff1683555b33600090815260026020526040812080548792839291610bcf9084906151f9565b90915550506040517fa9059cbb00000000000000000000000000000000000000000000000000000000815273ffffffffffffffffffffffffffffffffffffffff7f000000000000000000000000000000000000000000000000000000000000000081166004830152602482018390527f0000000000000000000000000000000000000000000000000000000000000000169063a9059cbb906044016020604051808303816000875af1158015610c89573d6000803e3d6000fd5b505050506040513d601f19601f82011682018060405250810190610cad919061520c565b50604080518281527fffffffffffffffffffffffffffffffffffffffffffffffff00000000000000008716602082015262ffffff85169173ffffffffffffffffffffffffffffffffffffffff8c16917f6337d70daadadd11f8be7f6e7b38e6c04d28710b1f2a2894bb14d8e3eaa8cdb6910160405180910390a3505050505050505050565b6000610d3c6115c4565b5060408051808201909152909150829060009080610d5b84600561531f565b67ffffffffffffffff811115610d7357610d7361525f565b604051908082528060200260200182016040528015610db857816020015b6040805180820190915260008082526020820152815260200190600190039081610d915790505b5081526020016000815250905060005b82811015610e1357610e0182878784818110610de657610de6615336565b9050602002016020810190610dfb9190614f6c565b86611955565b80610e0b81615365565b915050610dc8565b50610e3e7f000000000000000000000000000000000000000000000000000000000000000082611e0d565b8262ffffff167ff4b03f4527c0ed32b6739e04de71d601db894eb6c1bcd17bb34a184bb9536c6686866040516103e592919061539d565b33600081815260026020526040902054610e919190849061170f565b73ffffffffffffffffffffffffffffffffffffffff811615610ef15760405173ffffffffffffffffffffffffffffffffffffffff8216903480156108fc02916000818181858888f19350505050158015610eef573d6000803e3d6000fd5b505b5050565b3360009081526003602052604081209080610f0e6115c4565b9150915080610f49576040517fdc12c97300000000000000000000000000000000000000000000000000000000815260040160405180910390fd5b825462ffffff83811678010000000000000000000000000000000000000000000000009092041614610fa7576040517f0aafb74c00000000000000000000000000000000000000000000000000000000815260040160405180910390fd5b82547fffffffffff000000ffffffffffffffffffffffffffffffffffffffffffffffff16835560405162ffffff83169033907f619ef9650648da30c9647d0b77a0de24a51da0630c3533d54cc1eb3d798e1eaa90600090a3505050565b73ffffffffffffffffffffffffffffffffffffffff8716600090815260036020526040812090806110336115c4565b91509150801561106f576040517f24f7f40f00000000000000000000000000000000000000000000000000000000815260040160405180910390fd5b82547801000000000000000000000000000000000000000000000000900462ffffff166000036110cb576040517f6599c9aa00000000000000000000000000000000000000000000000000000000815260040160405180910390fd5b825462ffffff83811678010000000000000000000000000000000000000000000000009092041614611129576040517fd5b25b6300000000000000000000000000000000000000000000000000000000815260040160405180910390fd5b8254604080516020808b028201810183528a825261118b9390921b918c91908c908c90819060009085015b82821015611180576111716040830286013681900381019061529d565b81526020019060010190611154565b505050505089611f10565b60006111f78b848b8b808060200260200160405190810160405280939291908181526020016000905b828210156111e0576111d16040830286013681900381019061529d565b815260200190600101906111b4565b5050505050896111f0578e61203e565b600061203e565b845490915060401b7fffffffffffffffffffffffffffffffffffffffffffffffff00000000000000008816156112925760208914611261576040517fcc586b4500000000000000000000000000000000000000000000000000000000815260040160405180910390fd5b84547fffffffffffffffff00000000000000000000000000000000000000000000000016604089901c1785556112b9565b84547fffffffffff000000ffffffffffffffffffffffffffffffffffffffffffffffff1685555b8067ffffffffffffffff19168462ffffff168d73ffffffffffffffffffffffffffffffffffffffff167ffab312c5020dc7093e590463878dbfd0567314a7c155b164a60430ebcc7b38038d8d8d886040516113179493929190615454565b60405180910390a473ffffffffffffffffffffffffffffffffffffffff86161561137f5760405173ffffffffffffffffffffffffffffffffffffffff8716903480156108fc02916000818181858888f1935050505015801561137d573d6000803e3d6000fd5b505b505050505050505050505050565b8115610ef157336000908152600260205260409020546113ad8382615229565b33600090815260026020526040902081905590508135156114ce5773ffffffffffffffffffffffffffffffffffffffff7f00000000000000000000000000000000000000000000000000000000000000001663d505accf33308535602087013561141d6060890160408a0161523c565b6040517fffffffff0000000000000000000000000000000000000000000000000000000060e088901b16815273ffffffffffffffffffffffffffffffffffffffff95861660048201529490931660248501526044840191909152606483015260ff166084820152606085013560a4820152608085013560c482015260e401600060405180830381600087803b1580156114b557600080fd5b505af11580156114c9573d6000803e3d6000fd5b505050505b6040517f23b872dd000000000000000000000000000000000000000000000000000000008152336004820152306024820152604481018490527f000000000000000000000000000000000000000000000000000000000000000073ffffffffffffffffffffffffffffffffffffffff16906323b872dd906064016020604051808303816000875af1158015611567573d6000803e3d6000fd5b505050506040513d601f19601f8201168201806040525081019061158b919061520c565b50604080518481526020810183905233917f9705a8ff16374359785d31b0f1862c27f983645496f40760d180a9830eeaf2e891016109ca565b600080806116127f00000000000000000000000000000000000000000000000000000000000000007f0000000000000000000000000000000000000000000000000000000000000000615229565b9050600061161e612578565b90507f000000000000000000000000000000000000000000000000000000000000000081101561167a576040517f3a5f7b5700000000000000000000000000000000000000000000000000000000815260040160405180910390fd5b60006116a67f0000000000000000000000000000000000000000000000000000000000000000836151f9565b90506116b28382615518565b6116bd906002615229565b94507f0000000000000000000000000000000000000000000000000000000000000000836116ec60028861552c565b62ffffff166116fb919061531f565b61170590836151f9565b1093505050509091565b73ffffffffffffffffffffffffffffffffffffffff83166000908152600360205260408120908061173e6115c4565b9150915080611779576040517fdc12c97300000000000000000000000000000000000000000000000000000000815260040160405180910390fd5b82547801000000000000000000000000000000000000000000000000900462ffffff16158015906117cf5750825462ffffff83811678010000000000000000000000000000000000000000000000009092041614155b15611806576040517f0aafb74c00000000000000000000000000000000000000000000000000000000815260040160405180910390fd5b825462ffffff83167801000000000000000000000000000000000000000000000000027fffffffffff000000000000000000000000000000000000000000000000000000909116604087901c171783557f00000000000000000000000000000000000000000000000000000000000000008410156118d9576040517f78fe52a6000000000000000000000000000000000000000000000000000000008152600481018590527f000000000000000000000000000000000000000000000000000000000000000060248201526044016102cf565b6040517fffffffffffffffffffffffffffffffffffffffffffffffff00000000000000008616815262ffffff83169073ffffffffffffffffffffffffffffffffffffffff8816907fe3c45ded79e3db74b160b9a697d75f465f68d287a678532ed0a9fb691553b93d9060200160405180910390a3505050505050565b6000611961838361264e565b90506119d460006119768462ffffff166127d2565b6040516020016119869190615573565b604080517fffffffffffffffffffffffffffffffffffffffffffffffffffffffffffffffe081840301815291815267ffffffffffffffff871660009081526001602052205486908590612890565b60c0810151606082015160ff161580156119f35750815162ffffff1615155b15611a2257611a058260a00151612cdb565b60048360a0015160ff16901b611a1b91906155b8565b6000835290505b600080611a3a86868660400151876040015187612d0d565b9094509250505061ffff821615611ad657611ad6876040518060400160405280611a7a8a67ffffffffffffffff1660009081526001602052604090205490565b73ffffffffffffffffffffffffffffffffffffffff168152602001600c611ac57f000000000000000000000000000000000000000000000000000000000000000061ffff891661531f565b611acf9190615518565b9052613224565b60005b60048160ff161015611bb65760008260ff831660048110611afc57611afc615336565b602002015173ffffffffffffffffffffffffffffffffffffffff1614611ba457611ba4886040518060400160405280858560ff1660048110611b4057611b40615336565b602002015173ffffffffffffffffffffffffffffffffffffffff16815260200187600f1660ff167f0000000000000000000000000000000000000000000000000000000000000000611b929190615518565b8960e0015160ff16611acf919061531f565b80611bae816155d1565b915050611ad9565b50611c286000611bca8762ffffff166127d2565b604051602001611bda91906155f0565b604080517fffffffffffffffffffffffffffffffffffffffffffffffffffffffffffffffe081840301815291815267ffffffffffffffff8a1660009081526001602052205489908890612890565b600060c0850181905267ffffffffffffffff871681526020818152604091829020865181549288015162ffffff9081166301000000027fffffffffffffffffffffffffffffffffffffffffffffffffffff0000000000009094169116179190911780825591860151869282907fffffffffffffffffffffffffffffffffffffffffffffffffff00ffffffffffff166601000000000000836006811115611cd057611cd06153ea565b021790555060608201518154608084015160a085015160c086015160e0909601517fffffffffffffffffffffffffffffffffffffffffffffff0000ffffffffffffff90931667010000000000000060ff958616027fffffffffffffffffffffffffffffffffffffffffffffff00ffffffffffffffff16176801000000000000000092851692909202919091177fffffffffffffffffffffffffffffffffffffffffff0000ffffffffffffffffff166901000000000000000000918416919091027fffffffffffffffffffffffffffffffffffffffffff00ffffffffffffffffffff16176a010000000000000000000094831694909402939093177fffffffffffffffffffffffffffffffffffffffff00ffffffffffffffffffffff166b010000000000000000000000919093160291909117905550505050505050565b60005b8160200151811015610eef578273ffffffffffffffffffffffffffffffffffffffff1663a9059cbb83600001518381518110611e4e57611e4e615336565b60200260200101516000015184600001518481518110611e7057611e70615336565b6020026020010151602001516040518363ffffffff1660e01b8152600401611eba92919073ffffffffffffffffffffffffffffffffffffffff929092168252602082015260400190565b6020604051808303816000875af1158015611ed9573d6000803e3d6000fd5b505050506040513d601f19601f82011682018060405250810190611efd919061520c565b5080611f0881615365565b915050611e10565b7fffffffffffffffffffffffffffffffffffffffffffffffff0000000000000000811615611fbc576000838383604051602001611f4f939291906156b5565b6040516020818303038152906040528051906020012090508067ffffffffffffffff19168567ffffffffffffffff191614611fb6576040517fd13415b500000000000000000000000000000000000000000000000000000000815260040160405180910390fd5b50612038565b60008383604051602001611fd1929190615700565b6040516020818303038152906040528051906020012090508067ffffffffffffffff19168567ffffffffffffffff19161461069b576040517fd13415b500000000000000000000000000000000000000000000000000000000815260040160405180910390fd5b50505050565b60008060405180604001604052808551600561205a919061531f565b67ffffffffffffffff8111156120725761207261525f565b6040519080825280602002602001820160405280156120b757816020015b60408051808201909152600080825260208201528152602001906001900390816120905790505b508152602001600081525090506120e860405180606001604052806000815260200160008152602001600081525090565b60005b855181101561217f57600080600061211e868c8c8c888151811061211157612111615336565b6020026020010151613376565b92509250925082856000018181516121369190615229565b90525060208501805183919061214d908390615229565b905250604085018051829190612164908390615229565b9052508392506121779150829050615365565b9150506120eb565b506121c160006040518060400160405280600c81526020017f7265736f6c76654d6f766573000000000000000000000000000000000000000081525084613aa0565b6121eb7f000000000000000000000000000000000000000000000000000000000000000083611e0d565b73ffffffffffffffffffffffffffffffffffffffff871660009081526002602090815260409091205490820151825191945061222691615229565b83101561227a5760208101518151849161223f91615229565b6040517f78fe52a6000000000000000000000000000000000000000000000000000000008152600481019290925260248201526044016102cf565b73ffffffffffffffffffffffffffffffffffffffff84166122df57602081015181516122a69190615229565b6122b090846151f9565b73ffffffffffffffffffffffffffffffffffffffff8816600090815260026020526040902081905592506124a1565b8051156123ac5780516040517f23b872dd00000000000000000000000000000000000000000000000000000000815273ffffffffffffffffffffffffffffffffffffffff868116600483015230602483015260448201929092527f0000000000000000000000000000000000000000000000000000000000000000909116906323b872dd906064016020604051808303816000875af1158015612386573d6000803e3d6000fd5b505050506040513d601f19601f820116820180604052508101906123aa919061520c565b505b6020810151156124a15760208101516040517f23b872dd00000000000000000000000000000000000000000000000000000000815273ffffffffffffffffffffffffffffffffffffffff86811660048301527f00000000000000000000000000000000000000000000000000000000000000008116602483015260448201929092527f0000000000000000000000000000000000000000000000000000000000000000909116906323b872dd906064016020604051808303816000875af115801561247b573d6000803e3d6000fd5b505050506040513d601f19601f8201168201806040525081019061249f919061520c565b505b60408101511561256e5760408181015190517fa9059cbb00000000000000000000000000000000000000000000000000000000815273ffffffffffffffffffffffffffffffffffffffff898116600483015260248201929092527f00000000000000000000000000000000000000000000000000000000000000009091169063a9059cbb906044016020604051808303816000875af1158015612548573d6000803e3d6000fd5b505050506040513d601f19601f8201168201806040525081019061256c919061520c565b505b5050949350505050565b60007f000000000000000000000000000000000000000000000000000000000000000073ffffffffffffffffffffffffffffffffffffffff166125ba57504290565b7f000000000000000000000000000000000000000000000000000000000000000073ffffffffffffffffffffffffffffffffffffffff1663b80777ea6040518163ffffffff1660e01b8152600401602060405180830381865afa158015612625573d6000803e3d6000fd5b505050506040513d601f19601f820116820180604052508101906126499190615719565b905090565b60408051610100808201835260008083526020808401829052838501829052606084018290526080840182905260a0840182905260c0840182905260e0840182905267ffffffffffffffff871682528181529084902084519283018552805462ffffff808216855263010000008204169284019290925292939192918301906601000000000000900460ff1660068111156126eb576126eb6153ea565b60068111156126fc576126fc6153ea565b8152905460ff67010000000000000082048116602084015268010000000000000000820460000b60408401526901000000000000000000820481166060808501919091526a0100000000000000000000830482166080808601919091526b01000000000000000000000090930490911660a0909301929092528251908301519183015192935091600162ffffff84161080159061279c575060008160ff16115b156127c9576000806127b5858760a0015186868b613cb6565b60ff909116606088015262ffffff16865250505b50505092915050565b606060006127df83613ee8565b600101905060008167ffffffffffffffff8111156127ff576127ff61525f565b6040519080825280601f01601f191660200182016040528015612829576020820181803683370190505b5090508181016020015b7fffffffffffffffffffffffffffffffffffffffffffffffffffffffffffffffff017f3031323334353637383961626364656600000000000000000000000000000000600a86061a8153600a850494508461283357509392505050565b600060ff861615612962578560ff16600114612927578560ff166002146128ec576040518060400160405280600c81526020017f2020202020202020202020200000000000000000000000000000000000000000815250612973565b6040518060400160405280600881526020017f2020202020202020000000000000000000000000000000000000000000000000815250612973565b6040518060400160405280600481526020017f2020202000000000000000000000000000000000000000000000000000000000815250612973565b604051806020016040528060008152505b90506129b56040518060400160405280600481526020017f25732573000000000000000000000000000000000000000000000000000000008152508287613fcb565b6040805160608101909152603f80825263ffffffff86811692602088811c909216926129e892615db5908301398461405e565b612a3f6040518060400160405280600e81526020017f257363656c6c202825732c25732900000000000000000000000000000000000081525084612a2e8560030b6140ef565b612a3a8560030b6140ef565b61417d565b612a616040518060600160405280603f8152602001615db5603f91398461405e565b612aaa6040518060400160405280601981526020017f2573202d206c61737445706f63685570646174653a202025730000000000000081525084876000015162ffffff16614212565b612af36040518060400160405280601f81526020017f2573202d2065706f63685768656e546f6b656e497341646465643a202025730081525084876020015162ffffff16614212565b612b4b6040518060400160405280600f81526020017f2573202d20636f6c6f723a2020257300000000000000000000000000000000008152508487604001516006811115612b4357612b436153ea565b60ff16614212565b612b926040518060400160405280600e81526020017f2573202d206c6966653a2020257300000000000000000000000000000000000081525084876060015160ff16614212565b612bd96040518060400160405280601681526020017f2573202d20646973747269627574696f6e3a2020257300000000000000000000815250848760c0015160ff16614212565b612c196040518060400160405280600f81526020017f2573202d206f776e65723a20202573000000000000000000000000000000000081525084866142a5565b612c686040518060400160405280600e81526020017f2573202d2064656c74613a20257300000000000000000000000000000000000081525084612c63886080015160000b6140ef565b613fcb565b612caf6040518060400160405280601281526020017f2573202d20656e656d794d61703a202025730000000000000000000000000000815250848760a0015160ff16614212565b612cd16040518060600160405280603f8152602001615db5603f91398461405e565b5050505050505050565b60005b60ff821615612d0857612cf2600183615732565b9091169080612d00816155d1565b915050612cde565b919050565b6000806000612d1a614e62565b612d596040518060400160405280600481526020017f66726f6d000000000000000000000000000000000000000000000000000000008152508a614338565b60408051808201909152601281527f646973747269627574696f6e20256920256900000000000000000000000000006020820152612da290600f600488901c8116908816614394565b60008080612ddb67ffffffffffffffff8d16827fffffffffffffffffffffffffffffffffffffffffffffffffffffffffffffffff614427565b9050612e1c6040518060400160405280600a81526020017f7570506f736974696f6e0000000000000000000000000000000000000000000081525082614338565b612e2a818c60028d8d614477565b9093509150600083810b1215612e41578560011795505b938101936001600489901c81169003612ec957612e966040518060400160405280600d81526020017f7570506f736974696f6e202569000000000000000000000000000000000000008152508960ff16614688565b67ffffffffffffffff811660009081526001602052604090205473ffffffffffffffffffffffffffffffffffffffff1684525b50948101946000612f0567ffffffffffffffff8d167fffffffffffffffffffffffffffffffffffffffffffffffffffffffffffffffff83614427565b9050612f466040518060400160405280600c81526020017f6c656674506f736974696f6e000000000000000000000000000000000000000081525082614338565b612f54818c60038d8d614477565b9093509150600083810b1215612f6b578560021795505b938101936002600489901c81169003612ff657612fc06040518060400160405280600f81526020017f6c656674506f736974696f6e20256900000000000000000000000000000000008152508960ff16614688565b67ffffffffffffffff811660009081526001602052604090205473ffffffffffffffffffffffffffffffffffffffff1660208501525b5094810194600061301367ffffffffffffffff8d16826001614427565b90506130546040518060400160405280600c81526020017f646f776e506f736974696f6e000000000000000000000000000000000000000081525082614338565b613062818c60008d8d614477565b9093509150600083810b1215613079578560041795505b93810193600488811c81169003613102576130cc6040518060400160405280600f81526020017f646f776e506f736974696f6e20256900000000000000000000000000000000008152508960ff16614688565b67ffffffffffffffff811660009081526001602052604090205473ffffffffffffffffffffffffffffffffffffffff1660408501525b5094810194600061311f67ffffffffffffffff8d16600183614427565b90506131606040518060400160405280600d81526020017f7269676874506f736974696f6e0000000000000000000000000000000000000081525082614338565b61316e818c60018d8d614477565b9093509150600083810b1215613185578560081795505b938101936008600489901c81169003613210576131da6040518060400160405280601081526020017f7269676874506f736974696f6e202569000000000000000000000000000000008152508960ff16614688565b67ffffffffffffffff811660009081526001602052604090205473ffffffffffffffffffffffffffffffffffffffff1660608501525b828701965050505095509550955095915050565b60005b82602001518110156132d657816000015173ffffffffffffffffffffffffffffffffffffffff168360000151828151811061326457613264615336565b60200260200101516000015173ffffffffffffffffffffffffffffffffffffffff16036132c457602082015183518051839081106132a4576132a4615336565b60200260200101516020018181516132bc9190615229565b905250505050565b806132ce81615365565b915050613227565b50805182516020840151815181106132f0576132f0615336565b60200260200101516000019073ffffffffffffffffffffffffffffffffffffffff16908173ffffffffffffffffffffffffffffffffffffffff16815250508060200151826000015183602001518151811061334d5761334d615336565b6020026020010151602001818152505081602001805180919061336f90615365565b9052505050565b60008060008061338a85600001518761264e565b9050613400600061339f8862ffffff166127d2565b6040516020016133af919061574b565b604080517fffffffffffffffffffffffffffffffffffffffffffffffffffffffffffffffe0818403018152918152885167ffffffffffffffff81166000908152600160205291909120548590612890565b60c0810151606082015160ff1615801561341f5750815162ffffff1615155b1561344e576134318260a00151612cdb565b60048360a0015160ff16901b61344791906155b8565b6000835290505b600086602001516006811115613466576134666153ea565b0361357a577f000000000000000000000000000000000000000000000000000000000000000060ff16826060015160ff161415806134eb5750855167ffffffffffffffff1660009081526001602052604090205473ffffffffffffffffffffffffffffffffffffffff89169073ffffffffffffffffffffffffffffffffffffffff1614155b15613521576000807f00000000000000000000000000000000000000000000000000000000000000009450945094505050613a96565b6135758960405180604001604052808b73ffffffffffffffffffffffffffffffffffffffff1681526020017f0000000000000000000000000000000000000000000000000000000000000000815250613224565b6135d9565b8662ffffff16826020015162ffffff16036135d957606082015160ff16156135a857600660208701526135d9565b6000807f00000000000000000000000000000000000000000000000000000000000000009450945094505050613a96565b6000806135f28b898b8760400151878960e00151614719565b915091508973ffffffffffffffffffffffffffffffffffffffff16886000015167ffffffffffffffff167f17b85ded3fb12432ee427abc34a3026e1fbbb8bc431e3dbe51bc81215655c25c86604001518b60200151604051613655929190615790565b60405180910390a3876020015184604001906006811115613678576136786153ea565b9081600681111561368b5761368b6153ea565b905250600060c0850181905262ffffff8a166020860152846040015160068111156136b8576136b86153ea565b0361371e5760006060850181905260e085018190528085526080850181905260a08501819052885167ffffffffffffffff168152600160205260408120557f00000000000000000000000000000000000000000000000000000000000000009450613846565b60ff811660a08501527f00000000000000000000000000000000000000000000000000000000000000009650600684604001516006811115613762576137626153ea565b1480156137755750606084015160ff1615155b1561379e5760e08401805160010160ff16908190526000036137995760ff60e08501525b6137a6565b600160e08501525b600082900b60808501526001606085015262ffffff891684526006846040015160068111156137d7576137d76153ea565b0361381257875167ffffffffffffffff16600090815260016020526040902073ffffffffffffffffffffffffffffffffffffffff9055613846565b875167ffffffffffffffff16600090815260016020526040902073ffffffffffffffffffffffffffffffffffffffff8b1690555b875167ffffffffffffffff1660009081526020818152604091829020865181549288015162ffffff9081166301000000027fffffffffffffffffffffffffffffffffffffffffffffffffffff0000000000009094169116179190911780825591860151869282907fffffffffffffffffffffffffffffffffffffffffffffffffff00ffffffffffff1666010000000000008360068111156138e9576138e96153ea565b021790555060608201518154608084015160a085015160c086015160e0909601517fffffffffffffffffffffffffffffffffffffffffffffff0000ffffffffffffff90931667010000000000000060ff958616027fffffffffffffffffffffffffffffffffffffffffffffff00ffffffffffffffff16176801000000000000000092851692909202919091177fffffffffffffffffffffffffffffffffffffffffff0000ffffffffffffffffff166901000000000000000000918416919091027fffffffffffffffffffffffffffffffffffffffffff00ffffffffffffffffffff16176a010000000000000000000094831694909402939093177fffffffffffffffffffffffffffffffffffffffff00ffffffffffffffffffffff166b0100000000000000000000009190931602919091179055613a916000613a3062ffffff8c166127d2565b604051602001613a4091906157ab565b604080517fffffffffffffffffffffffffffffffffffffffffffffffffffffffffffffffe08184030181529181528b5167ffffffffffffffff81166000908152600160205291909120548890612890565b505050505b9450945094915050565b600060ff841615613b72578360ff16600114613b37578360ff16600214613afc576040518060400160405280600c81526020017f2020202020202020202020200000000000000000000000000000000000000000815250613b83565b6040518060400160405280600881526020017f2020202020202020000000000000000000000000000000000000000000000000815250613b83565b6040518060400160405280600481526020017f2020202000000000000000000000000000000000000000000000000000000000815250613b83565b604051806020016040528060008152505b9050613bc56040518060400160405280600481526020017f25732573000000000000000000000000000000000000000000000000000000008152508285613fcb565b613be76040518060600160405280603f8152602001615db5603f91398261405e565b60005b8260200151811015613c9357613c816040518060400160405280601281526020017f25737472616e73666572202825732c25732900000000000000000000000000008152508385600001518481518110613c4657613c46615336565b602002602001015160000151613c7c87600001518681518110613c6b57613c6b615336565b6020026020010151602001516127d2565b61486d565b80613c8b81615365565b915050613bea565b506120386040518060600160405280603f8152602001615db5603f91398261405e565b600085600162ffffff821610801590613cd2575060008460ff16115b15613ede576000613ce3888561552c565b62ffffff1690508015613ed55760008660000b600003613d23577fffffffffffffffffffffffffffffffffffffffffffffffffffffffffffffffff613d25565b865b905060008160000b128015613d3b575060ff8816155b15613d44575060005b60008160000b1315613e2657600081600181613d808a7f0000000000000000000000000000000000000000000000000000000000000000615732565b613d8a91906155b8565b613d949190615732565b613d9e91906157f0565b90508060ff16831115613db2578060ff1692505b613dbc8284615812565b613dc690886155b8565b96507f000000000000000000000000000000000000000000000000000000000000000060ff168760ff161115613e1a577f000000000000000000000000000000000000000000000000000000000000000096505b86945085935050613ecf565b60008160000b1215613ec8576000613e3d8261582e565b6001613e488461582e565b613e52908a6155b8565b613e5c9190615732565b613e6691906157f0565b90508060ff16831115613e7a578060ff1692505b6000613e858361582e565b613e8f9085615812565b90508760ff168160ff161115613ea85760009550613eb5565b613eb28189615732565b95505b613ebf848c61586c565b94505050613ecf565b8593508492505b50613edc565b8492508791505b505b9550959350505050565b6000807a184f03e93ff9f4daa797ed6e38ed64bf6a1f0100000000000000008310613f31577a184f03e93ff9f4daa797ed6e38ed64bf6a1f010000000000000000830492506040015b6d04ee2d6d415b85acef81000000008310613f5d576d04ee2d6d415b85acef8100000000830492506020015b662386f26fc100008310613f7b57662386f26fc10000830492506010015b6305f5e1008310613f93576305f5e100830492506008015b6127108310613fa757612710830492506004015b60648310613fb9576064830492506002015b600a8310613fc5576001015b92915050565b610eef838383604051602401613fe3939291906158d2565b604080517fffffffffffffffffffffffffffffffffffffffffffffffffffffffffffffffe08184030181529190526020810180517bffffffffffffffffffffffffffffffffffffffffffffffffffffffff167f2ced7cef000000000000000000000000000000000000000000000000000000001790526148fe565b610ef18282604051602401614074929190615915565b604080517fffffffffffffffffffffffffffffffffffffffffffffffffffffffffffffffe08184030181529190526020810180517bffffffffffffffffffffffffffffffffffffffffffffffffffffffff167f4b5c4277000000000000000000000000000000000000000000000000000000001790526148fe565b60606000821261410e5760405180602001604052806000815250614145565b6040518060400160405280600181526020017f2d000000000000000000000000000000000000000000000000000000000000008152505b6141566141518461490a565b6127d2565b604051602001614167929190615943565b6040516020818303038152906040529050919050565b612038848484846040516024016141979493929190615972565b604080517fffffffffffffffffffffffffffffffffffffffffffffffffffffffffffffffe08184030181529190526020810180517bffffffffffffffffffffffffffffffffffffffffffffffffffffffff167fde68f20a000000000000000000000000000000000000000000000000000000001790526148fe565b610eef83838360405160240161422a939291906159ca565b604080517fffffffffffffffffffffffffffffffffffffffffffffffffffffffffffffffe08184030181529190526020810180517bffffffffffffffffffffffffffffffffffffffffffffffffffffffff167f5821efa1000000000000000000000000000000000000000000000000000000001790526148fe565b610eef8383836040516024016142bd93929190615a00565b604080517fffffffffffffffffffffffffffffffffffffffffffffffffffffffffffffffe08184030181529190526020810180517bffffffffffffffffffffffffffffffffffffffffffffffffffffffff167f95ed0195000000000000000000000000000000000000000000000000000000001790526148fe565b60008063ffffffff80841690602085901c16915091506120386040518060400160405280600b81526020017f25733a202825732c25732900000000000000000000000000000000000000000081525085612a2e8560030b6140ef565b610eef8383836040516024016143ac93929190615a4c565b604080517fffffffffffffffffffffffffffffffffffffffffffffffffffffffffffffffe08184030181529190526020810180517bffffffffffffffffffffffffffffffffffffffffffffffffffffffff167fca47c4eb000000000000000000000000000000000000000000000000000000001790526148fe565b60006144398363ffffffff8616615a71565b925061444f8263ffffffff602087901c16615a71565b915061446f63ffffffff841667ffffffff00000000602085901b16615ab3565b949350505050565b67ffffffffffffffff8516600090815260208181526040808320815161010081018352815462ffffff8082168352630100000082041694820194909452849384939192918301906601000000000000900460ff1660068111156144dc576144dc6153ea565b60068111156144ed576144ed6153ea565b8152905460ff670100000000000000820481166020840152680100000000000000008204600090810b60408086019190915269010000000000000000008404831660608601526a01000000000000000000008404831660808601526b01000000000000000000000090930490911660a0909301929092528251908301519293509190816006811115614581576145816153ea565b146145db57856006811115614598576145986153ea565b8160068111156145aa576145aa6153ea565b146145d5577fffffffffffffffffffffffffffffffffffffffffffffffffffffffffffffffff6145d8565b60015b94505b60018262ffffff161015801561460357506000816006811115614600576146006153ea565b14155b1561467b576000836060015160ff1611801561462857508862ffffff168262ffffff16105b1561466557600080614649848660a00151876080015188606001518f613cb6565b9150915061465c8c8684848e8e8e614921565b9550505061467b565b6146788a8485606001518c8c8c8c614921565b93505b5050509550959350505050565b610ef1828260405160240161469e929190615ad4565b604080517fffffffffffffffffffffffffffffffffffffffffffffffffffffffffffffffe08184030181529190526020810180517bffffffffffffffffffffffffffffffffffffffffffffffffffffffff167fb60e72cc000000000000000000000000000000000000000000000000000000001790526148fe565b6000806000806000806147378b600001518b8b8e602001518c612d0d565b935093509350935060008261ffff16111561477f5761477f8c6040518060400160405280611a7a8f6000015167ffffffffffffffff1660009081526001602052604090205490565b60005b60048160ff16101561485a5760008260ff8316600481106147a5576147a5615336565b602002015173ffffffffffffffffffffffffffffffffffffffff1614614848576148488d6040518060400160405280858560ff16600481106147e9576147e9615336565b602002015173ffffffffffffffffffffffffffffffffffffffff1681526020018c600f1660ff167f000000000000000000000000000000000000000000000000000000000000000061483b9190615518565b611acf9060ff8e1661531f565b80614852816155d1565b915050614782565b50929b919a509098505050505050505050565b612038848484846040516024016148879493929190615af6565b604080517fffffffffffffffffffffffffffffffffffffffffffffffffffffffffffffffe08184030181529190526020810180517bffffffffffffffffffffffffffffffffffffffffffffffffffffffff167feb1bff80000000000000000000000000000000000000000000000000000000001790525b61490781614e41565b50565b60008082121561491d5781600003613fc5565b5090565b600080876060015160ff1611801561493a575060ff8616155b1561496b5761494c8760a00151612cdb565b60048860a0015160ff16901b61496291906155b8565b60ff1660c08801525b6149da600061497c8660ff166127d2565b60405160200161498c9190615b4b565b604080517fffffffffffffffffffffffffffffffffffffffffffffffffffffffffffffffe081840301815291815267ffffffffffffffff8c166000908152600160205220548b908b90612890565b6149e5846002615cb0565b6149f0856002615cb0565b60c089015160041c16600f1603614a6c578660c00151600f168760e00151600c614a1a9190615812565b614a2491906157f0565b60ff1690508660c00151600f1660048560ff166002614a439190615cbf565b1960048a60c0015160ff16901c60ff161660ff16901b614a6391906155b8565b60ff1660c08801525b816006811115614a7e57614a7e6153ea565b836006811115614a9057614a906153ea565b14614c2c576000826006811115614aa957614aa96153ea565b03614b3057826006811115614ac057614ac06153ea565b87604001516006811115614ad657614ad66153ea565b03614af957600187608001818151614aee9190615ccb565b60000b905250614c2c565b600187608001818151614b0c9190615d0a565b60000b90525060a087018051600160ff8781169190911b8118909116169052614c2c565b826006811115614b4257614b426153ea565b87604001516006811115614b5857614b586153ea565b03614b895760a087018051600160ff8781169190911b90911716905260808701805160029190614aee908390615ccb565b816006811115614b9b57614b9b6153ea565b87604001516006811115614bb157614bb16153ea565b03614be2576000836006811115614bca57614bca6153ea565b14614af957600287608001818151614b0c9190615d0a565b6000836006811115614bf657614bf66153ea565b03614c2c57600187608001818151614c0e9190615ccb565b60000b90525060a087018051600160ff8781169190911b9091171690525b62ffffff8516875260ff8087166060890152614c6090600090614c509087166127d2565b60405160200161498c9190615d49565b67ffffffffffffffff88166000908152602081815260409182902089518154928b015162ffffff9081166301000000027fffffffffffffffffffffffffffffffffffffffffffffffffffff0000000000009094169116179190911780825591890151899282907fffffffffffffffffffffffffffffffffffffffffffffffffff00ffffffffffff166601000000000000836006811115614d0257614d026153ea565b021790555060608201518154608084015160a085015160c086015160e0909601517fffffffffffffffffffffffffffffffffffffffffffffff0000ffffffffffffff90931667010000000000000060ff958616027fffffffffffffffffffffffffffffffffffffffffffffff00ffffffffffffffff16176801000000000000000092851692909202919091177fffffffffffffffffffffffffffffffffffffffffff0000ffffffffffffffffff166901000000000000000000918416919091027fffffffffffffffffffffffffffffffffffffffffff00ffffffffffffffffffff16176a010000000000000000000094831694909402939093177fffffffffffffffffffffffffffffffffffffffff00ffffffffffffffffffffff166b0100000000000000000000009190931602919091179055979650505050505050565b60006a636f6e736f6c652e6c6f679050600080835160208501845afa505050565b60405180608001604052806004906020820280368337509192915050565b600060208284031215614e9257600080fd5b5035919050565b80357fffffffffffffffffffffffffffffffffffffffffffffffff000000000000000081168114612d0857600080fd5b600060a08284031215614edb57600080fd5b50919050565b73ffffffffffffffffffffffffffffffffffffffff8116811461490757600080fd5b6000806000806101008587031215614f1a57600080fd5b614f2385614e99565b935060208501359250614f398660408701614ec9565b915060e0850135614f4981614ee1565b939692955090935050565b803567ffffffffffffffff81168114612d0857600080fd5b600060208284031215614f7e57600080fd5b614f8782614f54565b9392505050565b60008083601f840112614fa057600080fd5b50813567ffffffffffffffff811115614fb857600080fd5b6020830191508360208260061b8501011115614fd357600080fd5b9250929050565b600080600080600060808688031215614ff257600080fd5b8535614ffd81614ee1565b945060208601359350604086013567ffffffffffffffff81111561502057600080fd5b61502c88828901614f8e565b909450925061503f905060608701614e99565b90509295509295909350565b6000806020838503121561505e57600080fd5b823567ffffffffffffffff8082111561507657600080fd5b818501915085601f83011261508a57600080fd5b81358181111561509957600080fd5b8660208260051b85010111156150ae57600080fd5b60209290920196919550909350505050565b600080604083850312156150d357600080fd5b6150dc83614e99565b915060208301356150ec81614ee1565b809150509250929050565b801515811461490757600080fd5b600080600080600080600060c0888a03121561512057600080fd5b873561512b81614ee1565b965060208801359550604088013567ffffffffffffffff81111561514e57600080fd5b61515a8a828b01614f8e565b909650945061516d905060608901614e99565b9250608088013561517d816150f7565b915060a088013561518d81614ee1565b8091505092959891949750929550565b60008060c083850312156151b057600080fd5b823591506151c18460208501614ec9565b90509250929050565b7f4e487b7100000000000000000000000000000000000000000000000000000000600052601160045260246000fd5b81810381811115613fc557613fc56151ca565b60006020828403121561521e57600080fd5b8151614f87816150f7565b80820180821115613fc557613fc56151ca565b60006020828403121561524e57600080fd5b813560ff81168114614f8757600080fd5b7f4e487b7100000000000000000000000000000000000000000000000000000000600052604160045260246000fd5b803560078110612d0857600080fd5b6000604082840312156152af57600080fd5b6040516040810181811067ffffffffffffffff821117156152f9577f4e487b7100000000000000000000000000000000000000000000000000000000600052604160045260246000fd5b60405261530583614f54565b81526153136020840161528e565b60208201529392505050565b8082028115828204841417613fc557613fc56151ca565b7f4e487b7100000000000000000000000000000000000000000000000000000000600052603260045260246000fd5b60007fffffffffffffffffffffffffffffffffffffffffffffffffffffffffffffffff8203615396576153966151ca565b5060010190565b60208082528181018390526000908460408401835b868110156153df5767ffffffffffffffff6153cc84614f54565b16825291830191908301906001016153b2565b509695505050505050565b7f4e487b7100000000000000000000000000000000000000000000000000000000600052602160045260246000fd5b60078110615450577f4e487b7100000000000000000000000000000000000000000000000000000000600052602160045260246000fd5b9052565b6060808252810184905260008560808301825b878110156154b25767ffffffffffffffff61548184614f54565b168252602061549181850161528e565b61549d82850182615419565b50506040928301929190910190600101615467565b507fffffffffffffffffffffffffffffffffffffffffffffffff000000000000000095909516602084015250506040015292915050565b7f4e487b7100000000000000000000000000000000000000000000000000000000600052601260045260246000fd5b600082615527576155276154e9565b500490565b62ffffff828116828216039080821115615548576155486151ca565b5092915050565b60005b8381101561556a578181015183820152602001615552565b50506000910152565b7f5f706f6b652061742065706f63682000000000000000000000000000000000008152600082516155ab81600f85016020870161554f565b91909101600f0192915050565b60ff8181168382160190811115613fc557613fc56151ca565b600060ff821660ff81036155e7576155e76151ca565b60010192915050565b7f414654455220706f6b6520286265666f7265207a65726f65642064697374726981527f627574696f6e292061742065706f63682000000000000000000000000000000060208201526000825161564e81603185016020870161554f565b9190910160310192915050565b600081518084526020808501945080840160005b838110156156aa578151805167ffffffffffffffff16885283015161569684890182615419565b50604096909601959082019060010161566f565b509495945050505050565b8381526060602082015260006156ce606083018561565b565b90507fffffffffffffffffffffffffffffffffffffffffffffffff000000000000000083166040830152949350505050565b82815260406020820152600061446f604083018461565b565b60006020828403121561572b57600080fd5b5051919050565b60ff8281168282160390811115613fc557613fc56151ca565b7f5f636f6d707574654d6f76652061742065706f6368200000000000000000000081526000825161578381601685016020870161554f565b9190910160160192915050565b6040810161579e8285615419565b614f876020830184615419565b7f41465445522000000000000000000000000000000000000000000000000000008152600082516157e381600685016020870161554f565b9190910160060192915050565b600060ff831680615803576158036154e9565b8060ff84160491505092915050565b60ff8181168382160290811690818114615548576155486151ca565b60008160000b7fffffffffffffffffffffffffffffffffffffffffffffffffffffffffffffff808103615863576158636151ca565b60000392915050565b62ffffff818116838216019080821115615548576155486151ca565b600081518084526158a081602086016020860161554f565b601f017fffffffffffffffffffffffffffffffffffffffffffffffffffffffffffffffe0169290920160200192915050565b6060815260006158e56060830186615888565b82810360208401526158f78186615888565b9050828103604084015261590b8185615888565b9695505050505050565b6040815260006159286040830185615888565b828103602084015261593a8185615888565b95945050505050565b6000835161595581846020880161554f565b83519083019061596981836020880161554f565b01949350505050565b6080815260006159856080830187615888565b82810360208401526159978187615888565b905082810360408401526159ab8186615888565b905082810360608401526159bf8185615888565b979650505050505050565b6060815260006159dd6060830186615888565b82810360208401526159ef8186615888565b915050826040830152949350505050565b606081526000615a136060830186615888565b8281036020840152615a258186615888565b91505073ffffffffffffffffffffffffffffffffffffffff83166040830152949350505050565b606081526000615a5f6060830186615888565b60208301949094525060400152919050565b600381810b9083900b01637fffffff81137fffffffffffffffffffffffffffffffffffffffffffffffffffffffff8000000082121715613fc557613fc56151ca565b67ffffffffffffffff818116838216019080821115615548576155486151ca565b604081526000615ae76040830185615888565b90508260208301529392505050565b608081526000615b096080830187615888565b8281036020840152615b1b8187615888565b905073ffffffffffffffffffffffffffffffffffffffff8516604084015282810360608401526159bf8185615888565b7f5f75706461746543656c6c46726f6d4e65696768626f722020696e6465780000815260008251615b8381601e85016020870161554f565b91909101601e0192915050565b600181815b80851115615be957817fffffffffffffffffffffffffffffffffffffffffffffffffffffffffffffffff04821115615bcf57615bcf6151ca565b80851615615bdc57918102915b93841c9390800290615b95565b509250929050565b600082615c0057506001613fc5565b81615c0d57506000613fc5565b8160018114615c235760028114615c2d57615c49565b6001915050613fc5565b60ff841115615c3e57615c3e6151ca565b50506001821b613fc5565b5060208310610133831016604e8410600b8410161715615c6c575081810a613fc5565b615c768383615b90565b807fffffffffffffffffffffffffffffffffffffffffffffffffffffffffffffffff04821115615ca857615ca86151ca565b029392505050565b6000614f8760ff841683615bf1565b6000614f878383615bf1565b600082810b9082900b037fffffffffffffffffffffffffffffffffffffffffffffffffffffffffffffff808112607f82131715613fc557613fc56151ca565b600081810b9083900b01607f81137fffffffffffffffffffffffffffffffffffffffffffffffffffffffffffffff8082121715613fc557613fc56151ca565b7f4146544552205f75706461746543656c6c46726f6d4e65696768626f7220206981527f6e64657800000000000000000000000000000000000000000000000000000000602082015260008251615da781602485016020870161554f565b919091016024019291505056fe25732d2d2d2d2d2d2d2d2d2d2d2d2d2d2d2d2d2d2d2d2d2d2d2d2d2d2d2d2d2d2d2d2d2d2d2d2d2d2d2d2d2d2d2d2d2d2d2d2d2d2d2d2d2d2d2d2d2d2d2d2da26469706673582212207a0b260be07b9b84cd2ca31f29bb18ab4cfbe92f91563334f2ad48289fdc322c64736f6c63430008140033",
  "linkReferences": {},
  "deployedLinkReferences": {},
  "devdoc": {
    "errors": {
      "ReserveTooLow(uint256,uint256)": [
        {
          "params": {
            "expected": "amount required to proceed",
            "inReserve": "amount in reserver as the time of the call"
          }
        }
      ]
    },
    "events": {
      "CommitmentCancelled(address,uint24)": {
        "params": {
          "epoch": "epoch number on which this commit belongs to",
          "player": "account taking the staking risk (can be a different account than the one controlling the gems)"
        }
      },
      "CommitmentMade(address,uint24,bytes24)": {
        "params": {
          "commitmentHash": "the hash of moves",
          "epoch": "epoch number on which this commit belongs to",
          "player": "account taking the staking risk (can be a different account than the one controlling the gems)"
        }
      },
      "CommitmentRevealed(address,uint24,bytes24,(uint64,uint8)[],bytes24,uint256)": {
        "params": {
          "commitmentHash": "the hash of the moves",
          "epoch": "epoch number on which this commit belongs to",
          "furtherMoves": "hash of further moves, unless bytes32(0) which indicate end.",
          "moves": "the moves",
          "player": "account who commited"
        }
      },
      "CommitmentVoid(address,uint24,uint256,bytes24)": {
        "params": {
          "amountBurnt": "amount of token to burn",
          "epoch": "epoch number on which this commit belongs to",
          "furtherMoves": "hash of further moves, unless bytes32(0) which indicate end.",
          "player": "the account that made the commitment"
        }
      },
      "MoveProcessed(uint64,address,uint8,uint8)": {
        "params": {
          "newColor": "color that takes over",
          "oldColor": "previous color of the cell",
          "player": "account making the move",
          "position": "cell at which the move take place"
        }
      },
      "MultiPoke(uint24,uint64[])": {
        "params": {
          "epoch": "epoch number at which the poke take place",
          "positions": "cells to poke"
        }
      },
      "ReserveDeposited(address,uint256,uint256)": {
        "params": {
          "amountDeposited": "the number of tokens deposited",
          "newAmount": "the number of tokens in reserver as a result",
          "player": "account receiving the token in the reserve"
        }
      },
      "ReserveWithdrawn(address,uint256,uint256)": {
        "params": {
          "amountWithdrawn": "the number of tokens withdrawnn",
          "newAmount": "the number of tokens in reserver as a result",
          "player": "account withdrawing the tokens"
        }
      },
      "SinglePoke(uint24,uint64)": {
        "params": {
          "epoch": "epoch number at which the poke take place",
          "position": "cell to poke"
        }
      }
    },
    "kind": "dev",
    "methods": {
      "acknowledgeMissedReveal(address,bytes32,(uint64,uint8)[],bytes24)": {
        "params": {
          "furtherMoves": "if moves cannot be contained in one tx, further moves are represented by a hash to reveal too",
          "moves": "the actual moves",
          "player": "the account who committed the move",
          "secret": "the secret used to make the commit"
        }
      },
      "addToReserve(uint256,(uint256,uint256,uint8,bytes32,bytes32))": {
        "params": {
          "permit": "permit EIP2612, .value = zero if not needed",
          "tokensAmountToAdd": "amount of tokens to add"
        }
      },
      "makeCommitment(bytes24,address)": {
        "params": {
          "commitmentHash": "the hash of the moves",
          "payee": "address to send ETH to along the commitment. Can be used to pay for reveal"
        }
      },
      "makeCommitmentWithExtraReserve(bytes24,uint256,(uint256,uint256,uint8,bytes32,bytes32),address)": {
        "params": {
          "commitmentHash": "the has of the moves",
          "payee": "address to send ETH to along the commitment. Can be used to pay for reveal",
          "permit": "permit EIP2612, value = zero if not needed",
          "tokensAmountToAdd": "amount of tokens to add to the reserve. the resulting total must be enough to cover the moves"
        }
      },
      "poke(uint64)": {
        "params": {
          "position": "the cell position"
        }
      },
      "pokeMultiple(uint64[])": {
        "params": {
          "positions": "cell positions to collect from"
        }
      },
      "reveal(address,bytes32,(uint64,uint8)[],bytes24,bool,address)": {
        "params": {
          "furtherMoves": "if moves cannot be contained in one tx, further moves are represented by a hash to reveal too  Note that you have to that have enough moves (specified by MAX_NUM_MOVES_PER_HASH = 32)",
          "moves": "the actual moves",
          "payee": "address to send ETH to along the reveal",
          "player": "the account who committed the move",
          "secret": "the secret used to make the commit",
          "useReserve": "whether the tokens are taken from the reserve or from approvals.  This allow player to keep their reserve intact and use it on their next move.  Note that this require the Stratagems contract to have enough allowance."
        }
      },
      "withdrawFromReserve(uint256)": {
        "params": {
          "amount": "number of tokens to withdraw"
        }
      }
    },
    "version": 1
  },
  "evm": {
    "gasEstimates": {
      "creation": {
        "codeDepositCost": "4821000",
        "executionCost": "infinite",
        "totalCost": "infinite"
      },
      "external": {
        "acknowledgeMissedReveal(address,bytes32,(uint64,uint8)[],bytes24)": "infinite",
        "acknowledgeMissedRevealByBurningAllReserve()": "infinite",
        "addToReserve(uint256,(uint256,uint256,uint8,bytes32,bytes32))": "infinite",
        "cancelCommitment()": "infinite",
        "makeCommitment(bytes24,address)": "infinite",
        "makeCommitmentWithExtraReserve(bytes24,uint256,(uint256,uint256,uint8,bytes32,bytes32),address)": "infinite",
        "poke(uint64)": "infinite",
        "pokeMultiple(uint64[])": "infinite",
        "reveal(address,bytes32,(uint64,uint8)[],bytes24,bool,address)": "infinite",
        "withdrawFromReserve(uint256)": "infinite"
      }
    }
  },
  "storageLayout": {
    "storage": [
      {
        "astId": 13897,
        "contract": "src/game/routes/StratagemsSetters.sol:StratagemsSetters",
        "label": "_cells",
        "offset": 0,
        "slot": "0",
        "type": "t_mapping(t_uint256,t_struct(Cell)11315_storage)"
      },
      {
        "astId": 13901,
        "contract": "src/game/routes/StratagemsSetters.sol:StratagemsSetters",
        "label": "_owners",
        "offset": 0,
        "slot": "1",
        "type": "t_mapping(t_uint256,t_uint256)"
      },
      {
        "astId": 13905,
        "contract": "src/game/routes/StratagemsSetters.sol:StratagemsSetters",
        "label": "_tokensInReserve",
        "offset": 0,
        "slot": "2",
        "type": "t_mapping(t_address,t_uint256)"
      },
      {
        "astId": 13910,
        "contract": "src/game/routes/StratagemsSetters.sol:StratagemsSetters",
        "label": "_commitments",
        "offset": 0,
        "slot": "3",
        "type": "t_mapping(t_address,t_struct(Commitment)11320_storage)"
      },
      {
        "astId": 13916,
        "contract": "src/game/routes/StratagemsSetters.sol:StratagemsSetters",
        "label": "_operatorsForAll",
        "offset": 0,
        "slot": "4",
        "type": "t_mapping(t_address,t_mapping(t_address,t_bool))"
      },
      {
        "astId": 13920,
        "contract": "src/game/routes/StratagemsSetters.sol:StratagemsSetters",
        "label": "_operators",
        "offset": 0,
        "slot": "5",
        "type": "t_mapping(t_uint256,t_address)"
      }
    ],
    "types": {
      "t_address": {
        "encoding": "inplace",
        "label": "address",
        "numberOfBytes": "20"
      },
      "t_bool": {
        "encoding": "inplace",
        "label": "bool",
        "numberOfBytes": "1"
      },
      "t_bytes24": {
        "encoding": "inplace",
        "label": "bytes24",
        "numberOfBytes": "24"
      },
      "t_enum(Color)11237": {
        "encoding": "inplace",
        "label": "enum UsingStratagemsTypes.Color",
        "numberOfBytes": "1"
      },
      "t_int8": {
        "encoding": "inplace",
        "label": "int8",
        "numberOfBytes": "1"
      },
      "t_mapping(t_address,t_bool)": {
        "encoding": "mapping",
        "key": "t_address",
        "label": "mapping(address => bool)",
        "numberOfBytes": "32",
        "value": "t_bool"
      },
      "t_mapping(t_address,t_mapping(t_address,t_bool))": {
        "encoding": "mapping",
        "key": "t_address",
        "label": "mapping(address => mapping(address => bool))",
        "numberOfBytes": "32",
        "value": "t_mapping(t_address,t_bool)"
      },
      "t_mapping(t_address,t_struct(Commitment)11320_storage)": {
        "encoding": "mapping",
        "key": "t_address",
        "label": "mapping(address => struct UsingStratagemsTypes.Commitment)",
        "numberOfBytes": "32",
        "value": "t_struct(Commitment)11320_storage"
      },
      "t_mapping(t_address,t_uint256)": {
        "encoding": "mapping",
        "key": "t_address",
        "label": "mapping(address => uint256)",
        "numberOfBytes": "32",
        "value": "t_uint256"
      },
      "t_mapping(t_uint256,t_address)": {
        "encoding": "mapping",
        "key": "t_uint256",
        "label": "mapping(uint256 => address)",
        "numberOfBytes": "32",
        "value": "t_address"
      },
      "t_mapping(t_uint256,t_struct(Cell)11315_storage)": {
        "encoding": "mapping",
        "key": "t_uint256",
        "label": "mapping(uint256 => struct UsingStratagemsTypes.Cell)",
        "numberOfBytes": "32",
        "value": "t_struct(Cell)11315_storage"
      },
      "t_mapping(t_uint256,t_uint256)": {
        "encoding": "mapping",
        "key": "t_uint256",
        "label": "mapping(uint256 => uint256)",
        "numberOfBytes": "32",
        "value": "t_uint256"
      },
      "t_struct(Cell)11315_storage": {
        "encoding": "inplace",
        "label": "struct UsingStratagemsTypes.Cell",
        "members": [
          {
            "astId": 11299,
            "contract": "src/game/routes/StratagemsSetters.sol:StratagemsSetters",
            "label": "lastEpochUpdate",
            "offset": 0,
            "slot": "0",
            "type": "t_uint24"
          },
          {
            "astId": 11301,
            "contract": "src/game/routes/StratagemsSetters.sol:StratagemsSetters",
            "label": "epochWhenTokenIsAdded",
            "offset": 3,
            "slot": "0",
            "type": "t_uint24"
          },
          {
            "astId": 11304,
            "contract": "src/game/routes/StratagemsSetters.sol:StratagemsSetters",
            "label": "color",
            "offset": 6,
            "slot": "0",
            "type": "t_enum(Color)11237"
          },
          {
            "astId": 11306,
            "contract": "src/game/routes/StratagemsSetters.sol:StratagemsSetters",
            "label": "life",
            "offset": 7,
            "slot": "0",
            "type": "t_uint8"
          },
          {
            "astId": 11308,
            "contract": "src/game/routes/StratagemsSetters.sol:StratagemsSetters",
            "label": "delta",
            "offset": 8,
            "slot": "0",
            "type": "t_int8"
          },
          {
            "astId": 11310,
            "contract": "src/game/routes/StratagemsSetters.sol:StratagemsSetters",
            "label": "enemyMap",
            "offset": 9,
            "slot": "0",
            "type": "t_uint8"
          },
          {
            "astId": 11312,
            "contract": "src/game/routes/StratagemsSetters.sol:StratagemsSetters",
            "label": "distribution",
            "offset": 10,
            "slot": "0",
            "type": "t_uint8"
          },
          {
            "astId": 11314,
            "contract": "src/game/routes/StratagemsSetters.sol:StratagemsSetters",
            "label": "stake",
            "offset": 11,
            "slot": "0",
            "type": "t_uint8"
          }
        ],
        "numberOfBytes": "32"
      },
      "t_struct(Commitment)11320_storage": {
        "encoding": "inplace",
        "label": "struct UsingStratagemsTypes.Commitment",
        "members": [
          {
            "astId": 11317,
            "contract": "src/game/routes/StratagemsSetters.sol:StratagemsSetters",
            "label": "hash",
            "offset": 0,
            "slot": "0",
            "type": "t_bytes24"
          },
          {
            "astId": 11319,
            "contract": "src/game/routes/StratagemsSetters.sol:StratagemsSetters",
            "label": "epoch",
            "offset": 24,
            "slot": "0",
            "type": "t_uint24"
          }
        ],
        "numberOfBytes": "32"
      },
      "t_uint24": {
        "encoding": "inplace",
        "label": "uint24",
        "numberOfBytes": "3"
      },
      "t_uint256": {
        "encoding": "inplace",
        "label": "uint256",
        "numberOfBytes": "32"
      },
      "t_uint8": {
        "encoding": "inplace",
        "label": "uint8",
        "numberOfBytes": "1"
      }
    }
  },
  "userdoc": {
    "errors": {
      "CanStillReveal()": [
        {
          "notice": "Player have to reveal if they can Stratagems will prevent them from acknowledging missed reveal if there is still time to reveal."
        }
      ],
      "CommitmentHashNotMatching()": [
        {
          "notice": "Player have to reveal their commitment using the exact same move values  If they provide different value, the commitment hash will differ and Stratagems will reject their reveal."
        }
      ],
      "GameNotStarted()": [
        {
          "notice": "Game has not started yet, can't perform any action"
        }
      ],
      "InCommitmentPhase()": [
        {
          "notice": "When in Commit phase, player can make new commitment but they cannot reveal their move yet."
        }
      ],
      "InRevealPhase()": [
        {
          "notice": "When in Reveal phase, it is not possible to commit new moves or cancel previous commitment  During Reveal phase, players have to reveal their commitment, if not already done."
        }
      ],
      "InvalidEpoch()": [
        {
          "notice": "Player can only reveal their move in the same epoch they commited.abi  If a player reveal later it can only do to minimize the reserve burn cost by calling : `acknowledgeMissedReveal`"
        }
      ],
      "InvalidFurtherMoves()": [
        {
          "notice": "Player can make arbitrary number of moves per epoch. To do so they group moves into (MAX_NUM_MOVES_PER_HASH = 32) moves  This result in a recursive series of hash that they can then submit in turn while revealing.  The limit  (MAX_NUM_MOVES_PER_HASH = 32) ensure a reveal batch fits in a block."
        }
      ],
      "NothingToReveal()": [
        {
          "notice": "Player can only reveal moves they commited."
        }
      ],
      "PreviousCommitmentNotRevealed()": [
        {
          "notice": "Previous commitment need to be revealed before making a new one. Even if the corresponding reveal phase has passed.\\  It is also not possible to withdraw any amount from reserve until the commitment is revealed.\\If player lost the information to reveal, it can acknowledge failure which will burn all its reserve.\\"
        }
      ],
      "ReserveTooLow(uint256,uint256)": [
        {
          "notice": "to make a commitment you always need at least one `config.numTokensPerGems` amount in reserve  Player also need one `config.numTokensPerGems`  per moves during the Reveal phase."
        }
      ]
    },
    "events": {
      "CommitmentCancelled(address,uint24)": {
        "notice": "A player has cancelled its current commitment (before it reached the reveal phase)"
      },
      "CommitmentMade(address,uint24,bytes24)": {
        "notice": "A player has commited to make a move and reveal it on the reveal phase"
      },
      "CommitmentRevealed(address,uint24,bytes24,(uint64,uint8)[],bytes24,uint256)": {
        "notice": "Player has revealed its previous commitment"
      },
      "CommitmentVoid(address,uint24,uint256,bytes24)": {
        "notice": "A player has canceled a previous commitment by burning some tokens"
      },
      "MoveProcessed(uint64,address,uint8,uint8)": {
        "notice": "A move has been revealed."
      },
      "MultiPoke(uint24,uint64[])": {
        "notice": "poke multiple cells and update them if needed"
      },
      "ReserveDeposited(address,uint256,uint256)": {
        "notice": "Player has deposited token in the reserve, allowing it to use that much in game"
      },
      "ReserveWithdrawn(address,uint256,uint256)": {
        "notice": "Player have withdrawn token from the reserve"
      },
      "SinglePoke(uint24,uint64)": {
        "notice": "poke cell and update it if needed"
      }
    },
    "kind": "user",
    "methods": {
      "acknowledgeMissedReveal(address,bytes32,(uint64,uint8)[],bytes24)": {
        "notice": "called by player if they missed the reveal phase and want to minimze the token loss.  By providing the moves, they will be slashed only the amount of token required to make the moves"
      },
      "acknowledgeMissedRevealByBurningAllReserve()": {
        "notice": "should only be called as last resort this will burn all tokens in reserve If player has access to the secret, better call `acknowledgeMissedReveal`"
      },
      "addToReserve(uint256,(uint256,uint256,uint8,bytes32,bytes32))": {
        "notice": "called by players to add tokens to their reserve"
      },
      "cancelCommitment()": {
        "notice": "called by players to cancel their current commitment  Can only be called during the commit phase in which the commitment was made  It cannot be called afterward"
      },
      "makeCommitment(bytes24,address)": {
        "notice": "called by players to commit their moves  this can be called multiple time in the same epoch, the last call overriding the previous.  When a commitment is made, it needs to be revealed in the reveal phase of the same epoch.abi  If missed, player can still reveal its moves but none of them will be resolved.   The player would lose its associated reserved amount."
      },
      "makeCommitmentWithExtraReserve(bytes24,uint256,(uint256,uint256,uint8,bytes32,bytes32),address)": {
        "notice": "called to make a commitment along with tokens to add to the reserve"
      },
      "pokeMultiple(uint64[])": {
        "notice": "poke and collect the tokens won across multiple cells"
      },
      "reveal(address,bytes32,(uint64,uint8)[],bytes24,bool,address)": {
        "notice": "called by player to reveal their moves  this is where the core logic of the game takes place  This is where the game board evolves  The game is designed so that reveal order does not matter"
      },
      "withdrawFromReserve(uint256)": {
        "notice": "called by players to withdraw tokens from the reserve  can only be called if no commitments are pending  Note that while you can withdraw after commiting, note that if you do not have enough tokens  you'll have your commitment failing."
      }
    },
    "version": 1
  },
  "argsData": "0x00000000000000000000000033a0d701f0619afb407963d6b7f9781dc40f9fcf000000000000000000000000deaddeaddeaddeaddeaddeaddeaddeaddeaddead000000000000000000000000000000000000000000000000000000000000000000000000000000000000000000000000000000000000000000000000000143700000000000000000000000000000000000000000000000000000000000000e1000000000000000000000000000000000000000000000000000000000000000070000000000000000000000000000000000000000000000000de0b6b3a764000000000000000000000000000052092c12759ac66d997d402c07d5449b3f2136f8",
  "transaction": {
    "hash": "0x245817482e2bf5ac4526f864d1c45a24a588b1b836b05268aaba2de81338b08f",
    "origin": "0x61c461ecc993aadeb7e4b47e96d1b8cc37314b20"
  }
}