{
  "address": "0x53b38bd39c7535b1fb4e82eccb74fcc65cde27ad",
  "abi": [
    {
      "inputs": [
        {
          "components": [
            {
              "internalType": "contract IERC20WithIERC2612",
              "name": "tokens",
              "type": "address"
            },
            {
              "internalType": "address payable",
              "name": "burnAddress",
              "type": "address"
            },
            {
              "internalType": "uint256",
              "name": "startTime",
              "type": "uint256"
            },
            {
              "internalType": "uint256",
              "name": "commitPhaseDuration",
              "type": "uint256"
            },
            {
              "internalType": "uint256",
              "name": "revealPhaseDuration",
              "type": "uint256"
            },
            {
              "internalType": "uint8",
              "name": "maxLife",
              "type": "uint8"
            },
            {
              "internalType": "uint256",
              "name": "numTokensPerGems",
              "type": "uint256"
            },
            {
              "internalType": "contract ITime",
              "name": "time",
              "type": "address"
            },
            {
              "internalType": "contract IOnStakeChange",
              "name": "generator",
              "type": "address"
            }
          ],
          "internalType": "struct UsingStratagemsTypes.Config",
          "name": "config",
          "type": "tuple"
        }
      ],
      "stateMutability": "nonpayable",
      "type": "constructor"
    },
    {
      "inputs": [],
      "name": "CanStillReveal",
      "type": "error"
    },
    {
      "inputs": [],
      "name": "CommitmentHashNotMatching",
      "type": "error"
    },
    {
      "inputs": [],
      "name": "GameNotStarted",
      "type": "error"
    },
    {
      "inputs": [],
      "name": "ImpossibleConfiguration",
      "type": "error"
    },
    {
      "inputs": [],
      "name": "InCommitmentPhase",
      "type": "error"
    },
    {
      "inputs": [],
      "name": "InRevealPhase",
      "type": "error"
    },
    {
      "inputs": [],
      "name": "InvalidEpoch",
      "type": "error"
    },
    {
      "inputs": [],
      "name": "InvalidFurtherMoves",
      "type": "error"
    },
    {
      "inputs": [],
      "name": "NothingToReveal",
      "type": "error"
    },
    {
      "inputs": [],
      "name": "PreviousCommitmentNotRevealed",
      "type": "error"
    },
    {
      "inputs": [
        {
          "internalType": "uint256",
          "name": "inReserve",
          "type": "uint256"
        },
        {
          "internalType": "uint256",
          "name": "expected",
          "type": "uint256"
        }
      ],
      "name": "ReserveTooLow",
      "type": "error"
    },
    {
      "anonymous": false,
      "inputs": [
        {
          "indexed": true,
          "internalType": "address",
          "name": "owner",
          "type": "address"
        },
        {
          "indexed": true,
          "internalType": "address",
          "name": "approved",
          "type": "address"
        },
        {
          "indexed": true,
          "internalType": "uint256",
          "name": "tokenID",
          "type": "uint256"
        }
      ],
      "name": "Approval",
      "type": "event"
    },
    {
      "anonymous": false,
      "inputs": [
        {
          "indexed": true,
          "internalType": "address",
          "name": "owner",
          "type": "address"
        },
        {
          "indexed": true,
          "internalType": "address",
          "name": "operator",
          "type": "address"
        },
        {
          "indexed": false,
          "internalType": "bool",
          "name": "approved",
          "type": "bool"
        }
      ],
      "name": "ApprovalForAll",
      "type": "event"
    },
    {
      "anonymous": false,
      "inputs": [
        {
          "indexed": true,
          "internalType": "address",
          "name": "player",
          "type": "address"
        },
        {
          "indexed": true,
          "internalType": "uint24",
          "name": "epoch",
          "type": "uint24"
        }
      ],
      "name": "CommitmentCancelled",
      "type": "event"
    },
    {
      "anonymous": false,
      "inputs": [
        {
          "indexed": true,
          "internalType": "address",
          "name": "player",
          "type": "address"
        },
        {
          "indexed": true,
          "internalType": "uint24",
          "name": "epoch",
          "type": "uint24"
        },
        {
          "indexed": false,
          "internalType": "bytes24",
          "name": "commitmentHash",
          "type": "bytes24"
        }
      ],
      "name": "CommitmentMade",
      "type": "event"
    },
    {
      "anonymous": false,
      "inputs": [
        {
          "indexed": true,
          "internalType": "address",
          "name": "player",
          "type": "address"
        },
        {
          "indexed": true,
          "internalType": "uint24",
          "name": "epoch",
          "type": "uint24"
        },
        {
          "indexed": true,
          "internalType": "bytes24",
          "name": "commitmentHash",
          "type": "bytes24"
        },
        {
          "components": [
            {
              "internalType": "uint64",
              "name": "position",
              "type": "uint64"
            },
            {
              "internalType": "enum UsingStratagemsTypes.Color",
              "name": "color",
              "type": "uint8"
            }
          ],
          "indexed": false,
          "internalType": "struct UsingStratagemsTypes.Move[]",
          "name": "moves",
          "type": "tuple[]"
        },
        {
          "indexed": false,
          "internalType": "bytes24",
          "name": "furtherMoves",
          "type": "bytes24"
        },
        {
          "indexed": false,
          "internalType": "uint256",
          "name": "newReserveAmount",
          "type": "uint256"
        }
      ],
      "name": "CommitmentRevealed",
      "type": "event"
    },
    {
      "anonymous": false,
      "inputs": [
        {
          "indexed": true,
          "internalType": "address",
          "name": "player",
          "type": "address"
        },
        {
          "indexed": true,
          "internalType": "uint24",
          "name": "epoch",
          "type": "uint24"
        },
        {
          "indexed": false,
          "internalType": "uint256",
          "name": "amountBurnt",
          "type": "uint256"
        },
        {
          "indexed": false,
          "internalType": "bytes24",
          "name": "furtherMoves",
          "type": "bytes24"
        }
      ],
      "name": "CommitmentVoid",
      "type": "event"
    },
    {
      "anonymous": false,
      "inputs": [
        {
          "indexed": true,
          "internalType": "uint64",
          "name": "position",
          "type": "uint64"
        },
        {
          "indexed": true,
          "internalType": "address",
          "name": "player",
          "type": "address"
        },
        {
          "indexed": false,
          "internalType": "enum UsingStratagemsTypes.Color",
          "name": "oldColor",
          "type": "uint8"
        },
        {
          "indexed": false,
          "internalType": "enum UsingStratagemsTypes.Color",
          "name": "newColor",
          "type": "uint8"
        }
      ],
      "name": "MoveProcessed",
      "type": "event"
    },
    {
      "anonymous": false,
      "inputs": [
        {
          "indexed": true,
          "internalType": "uint24",
          "name": "epoch",
          "type": "uint24"
        },
        {
          "indexed": false,
          "internalType": "uint64[]",
          "name": "positions",
          "type": "uint64[]"
        }
      ],
      "name": "MultiPoke",
      "type": "event"
    },
    {
      "anonymous": false,
      "inputs": [
        {
          "indexed": true,
          "internalType": "address",
          "name": "player",
          "type": "address"
        },
        {
          "indexed": false,
          "internalType": "uint256",
          "name": "amountDeposited",
          "type": "uint256"
        },
        {
          "indexed": false,
          "internalType": "uint256",
          "name": "newAmount",
          "type": "uint256"
        }
      ],
      "name": "ReserveDeposited",
      "type": "event"
    },
    {
      "anonymous": false,
      "inputs": [
        {
          "indexed": true,
          "internalType": "address",
          "name": "player",
          "type": "address"
        },
        {
          "indexed": false,
          "internalType": "uint256",
          "name": "amountWithdrawn",
          "type": "uint256"
        },
        {
          "indexed": false,
          "internalType": "uint256",
          "name": "newAmount",
          "type": "uint256"
        }
      ],
      "name": "ReserveWithdrawn",
      "type": "event"
    },
    {
      "anonymous": false,
      "inputs": [
        {
          "indexed": true,
          "internalType": "uint24",
          "name": "epoch",
          "type": "uint24"
        },
        {
          "indexed": false,
          "internalType": "uint64",
          "name": "position",
          "type": "uint64"
        }
      ],
      "name": "SinglePoke",
      "type": "event"
    },
    {
      "anonymous": false,
      "inputs": [
        {
          "indexed": true,
          "internalType": "address",
          "name": "from",
          "type": "address"
        },
        {
          "indexed": true,
          "internalType": "address",
          "name": "to",
          "type": "address"
        },
        {
          "indexed": true,
          "internalType": "uint256",
          "name": "tokenID",
          "type": "uint256"
        }
      ],
      "name": "Transfer",
      "type": "event"
    },
    {
      "inputs": [
        {
          "internalType": "address",
          "name": "player",
          "type": "address"
        },
        {
          "internalType": "bytes32",
          "name": "secret",
          "type": "bytes32"
        },
        {
          "components": [
            {
              "internalType": "uint64",
              "name": "position",
              "type": "uint64"
            },
            {
              "internalType": "enum UsingStratagemsTypes.Color",
              "name": "color",
              "type": "uint8"
            }
          ],
          "internalType": "struct UsingStratagemsTypes.Move[]",
          "name": "moves",
          "type": "tuple[]"
        },
        {
          "internalType": "bytes24",
          "name": "furtherMoves",
          "type": "bytes24"
        }
      ],
      "name": "acknowledgeMissedReveal",
      "outputs": [],
      "stateMutability": "nonpayable",
      "type": "function"
    },
    {
      "inputs": [],
      "name": "acknowledgeMissedRevealByBurningAllReserve",
      "outputs": [],
      "stateMutability": "nonpayable",
      "type": "function"
    },
    {
      "inputs": [
        {
          "internalType": "address",
          "name": "player",
          "type": "address"
        },
        {
          "internalType": "bytes32",
          "name": "secret",
          "type": "bytes32"
        },
        {
          "components": [
            {
              "internalType": "uint64",
              "name": "position",
              "type": "uint64"
            },
            {
              "internalType": "enum UsingStratagemsTypes.Color",
              "name": "color",
              "type": "uint8"
            }
          ],
          "internalType": "struct UsingStratagemsTypes.Move[]",
          "name": "moves",
          "type": "tuple[]"
        },
        {
          "internalType": "bytes24",
          "name": "furtherMoves",
          "type": "bytes24"
        },
        {
          "internalType": "bool",
          "name": "useReserve",
          "type": "bool"
        },
        {
          "internalType": "address payable",
          "name": "payee",
          "type": "address"
        }
      ],
      "name": "reveal",
      "outputs": [],
      "stateMutability": "payable",
      "type": "function"
    }
  ],
  "contractName": "StratagemsReveal",
  "sourceName": "src/game/routes/StratagemsReveal.sol",
  "bytecode": "0x6101a03462000294576200432d601f38829003908101601f19168301906001600160401b039081831185841017620002995780859460409485528539610120938491810103126200029457815190838201908111828210176200029957825283516001600160a01b0390818116810362000294578252602085015190808216820362000294576020830191825283860151928481019384526060870151906060810191825260808801516080820190815260a08901519060ff82168203620002945760a0830191825260c08a01519360c0840194855260e08b01519386851694858103620002945760e0820152610100809c01519787891689036200029457878260ff978f8395019b8c52608052511660a0525116976101609889525160c0525160e052518952511686525191610140928352511692610180938452519361407d9586620002b087396080518661134d015260a05186818161039c015281816106db0152818161079801528181610aee0152610cf7015260c051866110ac015260e051866110570152518561107c01525184818161158101528181612ee00152613281015251838181610a36015281816115d801528181611ae601528181611ec301528181611f6d01528181612c8101528181613a1a0152613bd701525182818161069201528181610a9e0152610ca7015251818181611e5801528181611f0901528181612143015281816121d00152818161225b015281816122eb015281816123ab0152818161243f015281816124f201528181612586015281816125dc0152818161266c015281816127120152818161279f0152818161287801528181612905015281816129fe01528181612a9201528181612af201528181612b8601528181613a5601528181613ae80152613ba90152f35b600080fd5b634e487b7160e01b600052604160045260246000fdfe60c0604052600436101561001257600080fd5b60003560e01c80631fdd8a6914610bd0578063599a71c6146109055763d40197831461003d57600080fd5b60c07ffffffffffffffffffffffffffffffffffffffffffffffffffffffffffffffffc3601126105855761006f610d77565b60443567ffffffffffffffff81116105855761008f903690600401610d9a565b90610098610dcb565b906084359384151585036105855760a4359473ffffffffffffffffffffffffffffffffffffffff861686036105855773ffffffffffffffffffffffffffffffffffffffff821660005260046020526040600020956100f4611055565b9490946108db5787549262ffffff93848160c01c1680156108b15785881603610887578761013491610127368c87610f18565b906024359060401b6111b5565b15610880576000965b610148368284610f18565b938451998a60058102046005148b1517156108515761016960058c02610eeb565b9a6040519b610178908d610e92565b600502808c5261018790610eeb565b7fffffffffffffffffffffffffffffffffffffffffffffffffffffffffffffffe00160005b81811061082b5750506040519a6101c28c610dfa565b8b52600060208c01526101d36112c3565b9860005b8c8851821015610237579061022c61021460408e6102208f8f978f916001996102038a61020a956112f3565b519261140a565b9590918451610ffa565b83526020830151610ffa565b60208201520151610ffa565b60408d0152016101d7565b9a999750508a97959773ffffffffffffffffffffffffffffffffffffffff87166000526003602052604060002054906102768b5160208d015190610ffa565b82106107e45773ffffffffffffffffffffffffffffffffffffffff811661061957506102b56040916102af8c6020815191015190610ffa565b90610fb1565b9973ffffffffffffffffffffffffffffffffffffffff881660005260036020528a82600020555b0151806105df575b5060005b60208b015181101561040f578060208c8161032a8473ffffffffffffffffffffffffffffffffffffffff6103206103819886516112f3565b51511693516112f3565b5101516040517fa9059cbb00000000000000000000000000000000000000000000000000000000815273ffffffffffffffffffffffffffffffffffffffff9092166004830152602482015292839081906044820190565b0381600073ffffffffffffffffffffffffffffffffffffffff7f0000000000000000000000000000000000000000000000000000000000000000165af1918215610403576001926103d4575b50016102e8565b6103f59060203d6020116103fc575b6103ed8183610e92565b810190610ed3565b508c6103cd565b503d6103e3565b6040513d6000823e3d90fd5b5081547fffffffffffffffffffffffffffffffffffffffffffffffff00000000000000009290918a918482169182156105b4576020880361058a5760401c7fffffffffffffffff0000000000000000000000000000000000000000000000008254161790555b60405195806060880160608952526080870197906000905b80821061053f575050509273ffffffffffffffffffffffffffffffffffffffff92869592869560207ffab312c5020dc7093e590463878dbfd0567314a7c155b164a60430ebcc7b3803990152604086015260401b1697169516930390a473ffffffffffffffffffffffffffffffffffffffff811661050757005b600080808093813415610536575b73ffffffffffffffffffffffffffffffffffffffff34921690f11561040357005b506108fc610515565b90919867ffffffffffffffff6105548b610f03565b16815260208a01359060078210156105855760408161057a600194602084950190610fbe565b019a0192019061048d565b600080fd5b60046040517fcc586b45000000000000000000000000000000000000000000000000000000008152fd5b507fffffffffff000000ffffffffffffffffffffffffffffffffffffffffffffffff84169055610475565b604051610613916105ef82610dfa565b73ffffffffffffffffffffffffffffffffffffffff8916825260208201528b613019565b8a6102e4565b909980518061072b575b50602081015180610639575b50604091506102dc565b73ffffffffffffffffffffffffffffffffffffffff604051937f23b872dd00000000000000000000000000000000000000000000000000000000855216600484015273ffffffffffffffffffffffffffffffffffffffff7f00000000000000000000000000000000000000000000000000000000000000001660248401526044830152602082606481600073ffffffffffffffffffffffffffffffffffffffff7f0000000000000000000000000000000000000000000000000000000000000000165af1918215610403576040921561062f576107249060203d6020116103fc576103ed8183610e92565b508c61062f565b604051907f23b872dd00000000000000000000000000000000000000000000000000000000825273ffffffffffffffffffffffffffffffffffffffff841660048301523060248301526044820152602081606481600073ffffffffffffffffffffffffffffffffffffffff7f0000000000000000000000000000000000000000000000000000000000000000165af180156104035715610623576107dd9060203d6020116103fc576103ed8183610e92565b508c610623565b6044826107f88d6020815191015190610ffa565b604051917f78fe52a600000000000000000000000000000000000000000000000000000000835260048301526024820152fd5b808d602080936040519261083e84610dfa565b60008452600083850152010152016101ac565b7f4e487b7100000000000000000000000000000000000000000000000000000000600052601160045260246000fd5b839661013d565b60046040517fd5b25b63000000000000000000000000000000000000000000000000000000008152fd5b60046040517f6599c9aa000000000000000000000000000000000000000000000000000000008152fd5b60046040517f24f7f40f000000000000000000000000000000000000000000000000000000008152fd5b346105855760807ffffffffffffffffffffffffffffffffffffffffffffffffffffffffffffffffc3601126105855761093c610d77565b60443567ffffffffffffffff81116105855761095c903690600401610d9a565b91610965610dcb565b9273ffffffffffffffffffffffffffffffffffffffff809216928360005260209160048352604060002095610998611055565b509187549762ffffff94858a60c01c168015908115610bc4575b50610b9a57836109c76109d392853691610f18565b6024358c60401b6111b5565b7fffffffffffffffffffffffffffffffffffffffffffffffff00000000000000008316988915610b6c575085820361058a57610a5b9260401c7fffffffffffffffff0000000000000000000000000000000000000000000000008254161790555b7f000000000000000000000000000000000000000000000000000000000000000090610f9e565b9533600052600384526040600020610a74888254610fb1565b90556040517fa9059cbb0000000000000000000000000000000000000000000000000000000081527f000000000000000000000000000000000000000000000000000000000000000073ffffffffffffffffffffffffffffffffffffffff16600482015260248101889052948490869060449082906000907f0000000000000000000000000000000000000000000000000000000000000000165af1938415610403577f6337d70daadadd11f8be7f6e7b38e6c04d28710b1f2a2894bb14d8e3eaa8cdb695604095610b4f575b5084519788528701521693a3005b610b6590823d84116103fc576103ed8183610e92565b5088610b41565b610a5b93507fffffffffff000000ffffffffffffffffffffffffffffffffffffffffffffffff169055610a34565b60046040517f175868d7000000000000000000000000000000000000000000000000000000008152fd5b9050868616148b6109b2565b346105855760007ffffffffffffffffffffffffffffffffffffffffffffffffffffffffffffffffc3601126105855733600052602060048152604060002090610c17611055565b5091805462ffffff808260c01c169485156108b15716809414610b9a577fffffffffff000000ffffffffffffffffffffffffffffffffffffffffffffffff1690553360009081526003825260408082208054929055517fa9059cbb00000000000000000000000000000000000000000000000000000000815273ffffffffffffffffffffffffffffffffffffffff7f0000000000000000000000000000000000000000000000000000000000000000166004820152602481018290529091808280604481010381600073ffffffffffffffffffffffffffffffffffffffff7f0000000000000000000000000000000000000000000000000000000000000000165af191821561040357600092610d5a575b506040519283528201527f6337d70daadadd11f8be7f6e7b38e6c04d28710b1f2a2894bb14d8e3eaa8cdb660403392a3005b610d7090823d84116103fc576103ed8183610e92565b5084610d28565b6004359073ffffffffffffffffffffffffffffffffffffffff8216820361058557565b9181601f840112156105855782359167ffffffffffffffff8311610585576020808501948460061b01011161058557565b606435907fffffffffffffffffffffffffffffffffffffffffffffffff00000000000000008216820361058557565b6040810190811067ffffffffffffffff821117610e1657604052565b7f4e487b7100000000000000000000000000000000000000000000000000000000600052604160045260246000fd5b610120810190811067ffffffffffffffff821117610e1657604052565b60a0810190811067ffffffffffffffff821117610e1657604052565b67ffffffffffffffff8111610e1657604052565b90601f7fffffffffffffffffffffffffffffffffffffffffffffffffffffffffffffffe0910116810190811067ffffffffffffffff821117610e1657604052565b90816020910312610585575180151581036105855790565b67ffffffffffffffff8111610e165760051b60200190565b359067ffffffffffffffff8216820361058557565b929192610f2482610eeb565b604092610f346040519283610e92565b819581835260208093019160061b84019381851161058557915b848310610f5d57505050505050565b858383031261058557855190610f7282610dfa565b610f7b84610f03565b82528484013590600782101561058557828692838a950152815201920191610f4e565b8181029291811591840414171561085157565b9190820391821161085157565b906007821015610fcb5752565b7f4e487b7100000000000000000000000000000000000000000000000000000000600052602160045260246000fd5b9190820180921161085157565b8115611011570490565b7f4e487b7100000000000000000000000000000000000000000000000000000000600052601260045260246000fd5b62ffffff918216908216039190821161085157565b7f0000000000000000000000000000000000000000000000000000000000000000906110a17f000000000000000000000000000000000000000000000000000000000000000083610ffa565b916110aa611336565b7f0000000000000000000000000000000000000000000000000000000000000000808210611136576110db91610fb1565b6110e58482611007565b90600282018092116108515762ffffff809216947ffffffffffffffffffffffffffffffffffffffffffffffffffffffffffffffffe86019083821161085157611132936102af9216610f9e565b1090565b60046040517f3a5f7b57000000000000000000000000000000000000000000000000000000008152fd5b90815180825260208080930193019160005b828110611180575050505090565b909192938260406001926111a983895167ffffffffffffffff8151168452015184830190610fbe565b01950193929101611172565b927fffffffffffffffffffffffffffffffffffffffffffffffff00000000000000009283929183168015611272576112099161123b9160405193849260208401968752606060408501526080840190611160565b906060830152037fffffffffffffffffffffffffffffffffffffffffffffffffffffffffffffffe08101835282610e92565b5190201691160361124857565b60046040517fd13415b5000000000000000000000000000000000000000000000000000000008152fd5b5061123b61129791604051928391602083019586526040808401526060830190611160565b037fffffffffffffffffffffffffffffffffffffffffffffffffffffffffffffffe08101835282610e92565b604051906060820182811067ffffffffffffffff821117610e165760405260006040838281528260208201520152565b80518210156113075760209160051b010190565b7f4e487b7100000000000000000000000000000000000000000000000000000000600052603260045260246000fd5b73ffffffffffffffffffffffffffffffffffffffff7f00000000000000000000000000000000000000000000000000000000000000001680156113e5576020600491604051928380927fb80777ea0000000000000000000000000000000000000000000000000000000082525afa908115610403576000916113b6575090565b90506020813d6020116113dd575b816113d160209383610e92565b81010312610585575190565b3d91506113c4565b504290565b9060ff8091169116019060ff821161085157565b6007821015610fcb5752565b9093929192825190600060a05260a0515060405161142781610e45565b60a051815260a051602082015260a051604082015260a051606082015260a051608082015260a05160a082015260a05160c082015260a05160e082015261010060a05191015267ffffffffffffffff60a051921660a0515260a051602052604060a05120916040519261149984610e45565b5462ffffff8116845262ffffff8160181c16602085015262ffffff8160301c1660408501526114d160ff8260481c16606086016113fe565b60ff8160501c1660808501528060581c60a0510b60a085015260ff8160601c1660c085015260ff8160681c1660e085015260ff8160701c166101008501528662ffffff8551169160018310158061300a575b612fcc575b505060a084015160a0510b61154860a0519160ff60c088015116906133d2565b60a0510b13612fa3575b5060ff60e084015116608052612f76575b60208401516007811015611e1057612ea65760ff60808301511660ff7f00000000000000000000000000000000000000000000000000000000000000001614801590612e4e575b612e3e576116026040516115bd81610dfa565b73ffffffffffffffffffffffffffffffffffffffff881681527f0000000000000000000000000000000000000000000000000000000000000000602082015284613019565b67ffffffffffffffff8451166060830151906007821015611e105760208601516007811015611e10576116469061163c6040518095610fbe565b6020840190610fbe565b7f17b85ded3fb12432ee427abc34a3026e1fbbb8bc431e3dbe51bc81215655c25c604073ffffffffffffffffffffffffffffffffffffffff8a1693a360a0516060830151926007841015611e105760ff610100820151169580519760208201519860078a1015611e10576040519687608081011067ffffffffffffffff60808a011117612e0d576080880160405260803689376116e16112c3565b9a6116f463ffffffff841660030b613490565b67ffffffff0000000061171263ffffffff8660201c1660030b6134c5565b60201b1667ffffffffffffffff63ffffffff8316820111612353578d6117b86117a761ffff61178c60405161174681610e62565b67ffffffffffffffff63ffffffff8916880116815262ffffff8c1660208201526002604082015261177a8a606083016113fe565b61178789608083016113fe565b613554565b60a05191939184810b12612dfa575b82604087015116613442565b166040840152825160a0510b613458565b60a0510b905260018060805160041c1614612db9575b50506117e263ffffffff841660030b6134c5565b67ffffffff0000000061180063ffffffff8660201c1660030b613490565b60201b1667ffffffffffffffff63ffffffff8316820111612353578d6118826117a761ffff61186860405161183481610e62565b67ffffffffffffffff63ffffffff8916880116815262ffffff8c1660208201526003604082015261177a8a606083016113fe565b60a05191939184810b12612da65782604087015116613442565b60a0510b905260028060805160041c1614612d62575b50506118ac63ffffffff841660030b613490565b67ffffffff000000006118ca63ffffffff8660201c1660030b61351c565b60201b1667ffffffffffffffff63ffffffff8316820111612353578d61194d6117a761ffff6119336040516118fe81610e62565b67ffffffffffffffff63ffffffff8916880116815262ffffff8c16602082015260a051604082015261177a8a606083016113fe565b60a05191939184810b12612d4f5782604087015116613442565b60a0510b9052600480608051811c1614612d0b575b505067ffffffff0000000061199063ffffffff61198381871660030b61351c565b9560201c1660030b613490565b60201b1667ffffffffffffffff63ffffffff851682011161235357611a23604061ffff8f948897611787611a0a92611a01611a349a62ffffff67ffffffffffffffff889b63ffffffff8b51986119e58a610e62565b1601169d8e8752166020860152600188860152606085016113fe565b608083016113fe565b92909560a0518760a0510b12612cf8575b015116613442565b1660408d01528b5160a0510b613458565b60a0510b8a5260088060805160041c1614612cc7575b50885160a0510b9961ffff604060ff60208d0151169b01511680612c29575b5060a0515b60ff81166004811015611b325760ff91818c8b73ffffffffffffffffffffffffffffffffffffffff611aa260019683613431565b5116611ab3575b5050500116611a6e565b73ffffffffffffffffffffffffffffffffffffffff611ad8611b2a94611b1093613431565b511691611b0a600f608051167f0000000000000000000000000000000000000000000000000000000000000000611007565b90610f9e565b60405191611b1d83610dfa565b825260208201528c613019565b388c8b611aa9565b5050949993989297509450945060208501516007811015611e1057611b5a90606088016113fe565b60a05160e087015273ffffffffffffffffffffffffffffffffffffffff831673ffffffffffffffffffffffffffffffffffffffff611bc467ffffffffffffffff885116600052600160205273ffffffffffffffffffffffffffffffffffffffff6040600020541690565b161480612c19575b15612c09575b60608601516007811015611e1057611f6557505062ffffff80611c0560a087015160a0510b60ff60c089015116906133d2565b9381875116900316816040870151160116604085015260a051608085015260a05161010085015260a051845260a05160a085015260a05160c0850152611c7767ffffffffffffffff845116600052600160205273ffffffffffffffffffffffffffffffffffffffff6040600020541690565b9167ffffffffffffffff845116806040519473ffffffffffffffffffffffffffffffffffffffff60a05191167fddf252ad1be2c89b69c2b068fc378daa952ba7f163c4a11628f55a4df523b3ef60a05160a051a460a05152600160205260a051604060a051205560a0519060a0510b13611e41575b505067ffffffffffffffff905b511660a0515260a051602052604060a051209062ffffff8151169082549165ffffff000000602083015160181b169068ffffff000000000000604084015160301b166060840151926007841015611e1057849369ff0000000000000000006bff00000000000000000000009386959386947fffffffffffffffffffffffffffffffffff0000000000000000000000000000006eff00000000000000000000000000006101006dff0000000000000000000000000060e06cff00000000000000000000000060c060a06aff0000000000000000000060808f015160501b169d015160581b9e015160601b169d015160681b169c015160701b169b161717179160481b16171791161717171790559060a0519060a05190565b7f4e487b710000000000000000000000000000000000000000000000000000000060a051526021600452602460a051fd5b73ffffffffffffffffffffffffffffffffffffffff7f0000000000000000000000000000000000000000000000000000000000000000163b15611f52577fabe7f1ab00000000000000000000000000000000000000000000000000000000825260a05173ffffffffffffffffffffffffffffffffffffffff90911660048301527f00000000000000000000000000000000000000000000000000000000000000006024830152818060448101038160a05173ffffffffffffffffffffffffffffffffffffffff7f0000000000000000000000000000000000000000000000000000000000000000165af18015611f5857611f3c575b80611cec565b611f4590610e7e565b60a051611f525738611f36565b60a05180fd5b6040513d60a051823e3d90fd5b9193929095507f000000000000000000000000000000000000000000000000000000000000000095611fa760a087015160a0510b60ff60c089015116906133d2565b9060ff6080880151169360c088015260608701516007811015611e105760061480612bf9575b15612be45760ff6001816101008a01511601168061010089015215612bd7575b60a08701526002608087015262ffffff8216865261203767ffffffffffffffff855116600052600160205273ffffffffffffffffffffffffffffffffffffffff6040600020541690565b9461205260a088015160a0510b60ff60c08a015116906133d2565b9260608801516007811015611e105760060361294e57505073ffffffffffffffffffffffffffffffffffffffff8581161461283f5773ffffffffffffffffffffffffffffffffffffffff8516612219575060a05190810b13905061212c575b73ffffffffffffffffffffffffffffffffffffffff67ffffffffffffffff925b8184845116928392167fddf252ad1be2c89b69c2b068fc378daa952ba7f163c4a11628f55a4df523b3ef60a05160a051a460a05152600160205273ffffffffffffffffffffffffffffffffffffffff604060a0512055611cf9565b73ffffffffffffffffffffffffffffffffffffffff7f0000000000000000000000000000000000000000000000000000000000000000163b15611f52576040517ff5d82b6b00000000000000000000000000000000000000000000000000000000815273ffffffffffffffffffffffffffffffffffffffff600482015284602482015260a0518160448160a05173ffffffffffffffffffffffffffffffffffffffff7f0000000000000000000000000000000000000000000000000000000000000000165af18015611f5857612203575b506120b1565b61220c90610e7e565b60a051611f5257386121fd565b60a05190810b139081158080612832575b156123845750505050838060011b04600214841517156123535773ffffffffffffffffffffffffffffffffffffffff7f0000000000000000000000000000000000000000000000000000000000000000163b15611f52576040517ff5d82b6b00000000000000000000000000000000000000000000000000000000815273ffffffffffffffffffffffffffffffffffffffff60048201528460011b602482015260a0518160448160a05173ffffffffffffffffffffffffffffffffffffffff7f0000000000000000000000000000000000000000000000000000000000000000165af18015611f585761233d575b5073ffffffffffffffffffffffffffffffffffffffff67ffffffffffffffff926120d1565b61234690610e7e565b60a051611f525738612318565b7f4e487b710000000000000000000000000000000000000000000000000000000060a051526011600452602460a051fd5b8280612824575b15612490575050505073ffffffffffffffffffffffffffffffffffffffff7f0000000000000000000000000000000000000000000000000000000000000000163b15611f52576040517fabe7f1ab00000000000000000000000000000000000000000000000000000000815260a05173ffffffffffffffffffffffffffffffffffffffff8416600483015260248201869052818060448101038160a05173ffffffffffffffffffffffffffffffffffffffff7f0000000000000000000000000000000000000000000000000000000000000000165af18015611f585761233d575073ffffffffffffffffffffffffffffffffffffffff67ffffffffffffffff926120d1565b80612816575b156124c3575b50505073ffffffffffffffffffffffffffffffffffffffff67ffffffffffffffff926120d1565b81612807575b506124d6575b808061249c565b156126ed5773ffffffffffffffffffffffffffffffffffffffff7f0000000000000000000000000000000000000000000000000000000000000000163b15611f52576040517fabe7f1ab00000000000000000000000000000000000000000000000000000000815260a05173ffffffffffffffffffffffffffffffffffffffff8416600483015260248201869052818060448101038160a05173ffffffffffffffffffffffffffffffffffffffff7f0000000000000000000000000000000000000000000000000000000000000000165af18015611f58576126d7575b50838060011b04600214841517156123535773ffffffffffffffffffffffffffffffffffffffff7f0000000000000000000000000000000000000000000000000000000000000000163b15611f52576040517ff5d82b6b00000000000000000000000000000000000000000000000000000000815273ffffffffffffffffffffffffffffffffffffffff60048201528460011b602482015260a0518160448160a05173ffffffffffffffffffffffffffffffffffffffff7f0000000000000000000000000000000000000000000000000000000000000000165af18015611f58576126c1575b5073ffffffffffffffffffffffffffffffffffffffff67ffffffffffffffff925b92506124cf565b6126ca90610e7e565b60a051611f525738612699565b6126e090610e7e565b60a051611f5257386125b3565b838004600114841517156123535773ffffffffffffffffffffffffffffffffffffffff7f0000000000000000000000000000000000000000000000000000000000000000163b15611f52576040517ff5d82b6b00000000000000000000000000000000000000000000000000000000815273ffffffffffffffffffffffffffffffffffffffff600482015284602482015260a0518160448160a05173ffffffffffffffffffffffffffffffffffffffff7f0000000000000000000000000000000000000000000000000000000000000000165af18015611f58576127f1575b5073ffffffffffffffffffffffffffffffffffffffff67ffffffffffffffff926126ba565b6127fa90610e7e565b60a051611f5257386127cc565b60a05190810b139050386124c9565b5060a05181810b1315612496565b5060a05182810b131561238b565b5060a05182810b1361222a565b509192505060a0519060a0510b13612861575b67ffffffffffffffff90611cf9565b73ffffffffffffffffffffffffffffffffffffffff7f0000000000000000000000000000000000000000000000000000000000000000163b15611f52576040517ff5d82b6b00000000000000000000000000000000000000000000000000000000815273ffffffffffffffffffffffffffffffffffffffff600482015283602482015260a0518160448160a05173ffffffffffffffffffffffffffffffffffffffff7f0000000000000000000000000000000000000000000000000000000000000000165af18015611f5857612938575b50612852565b61294190610e7e565b60a051611f525738612932565b90955062ffffff919293501662ffffff60208701511614159081612bc8575b50612adb575b60a05190810b136129e7575b73ffffffffffffffffffffffffffffffffffffffff67ffffffffffffffff92838351168083831660a0517fddf252ad1be2c89b69c2b068fc378daa952ba7f163c4a11628f55a4df523b3ef60a05160a051a460a05152600160205216604060a0512055611cf9565b73ffffffffffffffffffffffffffffffffffffffff7f0000000000000000000000000000000000000000000000000000000000000000163b15611f52576040517ff5d82b6b00000000000000000000000000000000000000000000000000000000815260a05173ffffffffffffffffffffffffffffffffffffffff8416600483015260248201869052818060448101038160a05173ffffffffffffffffffffffffffffffffffffffff7f0000000000000000000000000000000000000000000000000000000000000000165af18015611f5857612ac5575b5061297f565b612ace90610e7e565b60a051611f525738612abf565b73ffffffffffffffffffffffffffffffffffffffff7f0000000000000000000000000000000000000000000000000000000000000000163b15611f52576040517fabe7f1ab00000000000000000000000000000000000000000000000000000000815260a05173ffffffffffffffffffffffffffffffffffffffff8516600483015260248201879052818060448101038160a05173ffffffffffffffffffffffffffffffffffffffff7f0000000000000000000000000000000000000000000000000000000000000000165af18015611f5857612bb9575b50612973565b612bc290610e7e565b38612bb3565b60a05190810b1390503861296d565b60ff610100880152611fed565b600161010088015260a0516040880152611fed565b5060ff6080880151161515611fcd565b62ffffff84166020870152611bd2565b5060ff6080870151161515611bcc565b612cc190600c612ca673ffffffffffffffffffffffffffffffffffffffff612c7d67ffffffffffffffff895116600052600160205273ffffffffffffffffffffffffffffffffffffffff6040600020541690565b16927f000000000000000000000000000000000000000000000000000000000000000090610f9e565b0460405191612cb483610dfa565b8252602082015289613019565b38611a69565b60a05152600160205273ffffffffffffffffffffffffffffffffffffffff604060a051205416606087015238611a4a565b60208101600860ff825116179052611a1b565b63ffffffff67ffffffffffffffff9216011660a05152600160205273ffffffffffffffffffffffffffffffffffffffff604060a05120541660408a01523880611962565b60208601600460ff82511617905261179b565b63ffffffff67ffffffffffffffff9216011660a05152600160205273ffffffffffffffffffffffffffffffffffffffff604060a05120541660208a01523880611898565b60208601600260ff82511617905261179b565b63ffffffff67ffffffffffffffff9216011660a05152600160205273ffffffffffffffffffffffffffffffffffffffff604060a051205416895238806117ce565b60208601600160ff82511617905261179b565b7f4e487b710000000000000000000000000000000000000000000000000000000060a051526041600452602460a051fd5b60a0519550859450849350915050565b50612e8567ffffffffffffffff855116600052600160205273ffffffffffffffffffffffffffffffffffffffff6040600020541690565b73ffffffffffffffffffffffffffffffffffffffff808816911614156115aa565b62ffffff60208301511662ffffff861614612ec1575b611602565b608082015160ff168015612edc575060066020850152611602565b60ff7f00000000000000000000000000000000000000000000000000000000000000001614801590612f1e575b15612ebc5760a0519550859450849350915050565b50612f5567ffffffffffffffff855116600052600160205273ffffffffffffffffffffffffffffffffffffffff6040600020541690565b73ffffffffffffffffffffffffffffffffffffffff80881691161415612f09565b612f9660c083015160f0612f8c60ff8316613151565b9160041b166113ea565b60805260a0518252611563565b612fc0612fb462ffffff9289611040565b826040870151166130f5565b16604084015238611552565b60ff929350908183612ff19360501c1690848160581c60a0510b9160601c168661320e565b501680608085015262ffffff8716845215908638611528565b5060ff8160501c161515611523565b60005b6020808301518210156130815773ffffffffffffffffffffffffffffffffffffffff8061304a8486516112f3565b515116908551161461305f575060010161301c565b90613073908261307d9495015194516112f3565b5101918251610ffa565b9052565b505060206130c28173ffffffffffffffffffffffffffffffffffffffff855116948451956130b4838701978851906112f3565b5152015192518451906112f3565b51015280517fffffffffffffffffffffffffffffffffffffffffffffffffffffffffffffffff8114610851576001019052565b91909162ffffff8080941691160191821161085157565b60ff7fffffffffffffffffffffffffffffffffffffffffffffffffffffffffffffffff9116019060ff821161085157565b9060ff8091169116039060ff821161085157565b6000906000905b60ff90818116156131ae578061316e839261310c565b1692169081146131815760010190613158565b6024837f4e487b710000000000000000000000000000000000000000000000000000000081526011600452fd5b5050919050565b60000b7fffffffffffffffffffffffffffffffffffffffffffffffffffffffffffffff8081146108515760000390565b9060ff169081156110115760ff160490565b9060ff8091169116029060ff821691820361085157565b939194926000958562ffffff9360018583161015806133c6575b613235575b505050505050565b919395965091939650846132498389611040565b169283156133b8579061325b916133d2565b938460000b6000811360001461330857505050906132d46132ba60ff6132da94816132c47f0000000000000000000000000000000000000000000000000000000000000000986132bf6132ae898c61313d565b918416968780936113ea565b61310c565b6131e5565b16808211613300575b50166131f7565b906113ea565b9060ff811660ff8316116132f8575b5091905b38808080808061322d565b9050386132e9565b9050386132cd565b600090979193969597949294126000146133ab57506132ba613329876131b5565b61334d61333c60ff9384938416866113ea565b6133458a6131b5565b8316906131e5565b168087116133a1575b5061337261336861338c9697986131b5565b82168289166131f7565b9082811690821611156133925750506000945b16906130f5565b906132ed565b61339b9161313d565b94613385565b9550613372613356565b90955093506132ed915050565b5050945050905091906132ed565b5060ff84161515613228565b909190600090810b131561340a576001915b600083810b1290816133fe575b506133f857565b60019150565b60ff91501615386133f1565b7fffffffffffffffffffffffffffffffffffffffffffffffffffffffffffffffff916133e4565b9060048110156113075760051b0190565b91909161ffff8080941691160191821161085157565b9060000b9060000b01907fffffffffffffffffffffffffffffffffffffffffffffffffffffffffffffff808212607f83131761085157565b60030b907fffffffffffffffffffffffffffffffffffffffffffffffffffffffff800000008212637fffffff83131761085157565b60030b7fffffffffffffffffffffffffffffffffffffffffffffffffffffffffffffffff0190637fffffff82137fffffffffffffffffffffffffffffffffffffffffffffffffffffffff8000000083121761085157565b60030b60010190637fffffff82137fffffffffffffffffffffffffffffffffffffffffffffffffffffffff8000000083121761085157565b6000916000809267ffffffffffffffff815116825281602052604082206040519061357e82610e45565b549262ffffff908185168352818560181c166020840152818560301c16604084015260ff9460608401956135b7818360481c16886113fe565b6080850192818360501c16845260a08601928060581c820b84528260c0880191818160601c168352818160681c1660e08a015260701c1661010088015285875116985160078110156136bc57829080151590816136e9575b5060018b101591826136ae575b505061362e575b505050505050505050565b909184819495969798999a9b5051168015158061369f575b15613687575091613670959391816136779a969451169251900b925116926020880151169361320e565b5091613771565b905b388080808080808080613623565b97955050505050506136999350613771565b90613679565b508660208a0151168a10613646565b9091506136bc57388061361c565b6024837f4e487b710000000000000000000000000000000000000000000000000000000081526021600452fd5b91509c50608089015160078110156137325783910361370c5760015b9c3861360f565b7fffffffffffffffffffffffffffffffffffffffffffffffffffffffffffffffff613705565b6024847f4e487b710000000000000000000000000000000000000000000000000000000081526021600452fd5b60ff1660ff8111610851576001901b90565b9291600093600091828360ff608087015116151580613fe8575b613fc6575b60e086015190600f60408601926137aa60ff85511661375f565b9060041c16166137bd60ff84511661375f565b14613f29575b60ff6137dc60a0890151830b8260c08b015116906133d2565b9251169060608601516007811015613efc57608087015160078110156136bc57908189959493928203613cbd575b5050505067ffffffffffffffff8551169262ffffff602087015116938152600160205273ffffffffffffffffffffffffffffffffffffffff6040822054169081151580613cb1575b6139db575b5050918160ff9367ffffffffffffffff9695930b136139ae575b86521660808501525116815280602052604081209162ffffff8151169183549265ffffff000000602084015160181b1668ffffff000000000000604085015160301b169160608501519360078510156139815750849369ff00000000000000000085946bff00000000000000000000009486947fffffffffffffffffffffffffffffffffff0000000000000000000000000000006eff00000000000000000000000000006101006dff0000000000000000000000000060e06cff00000000000000000000000060c060a06aff0000000000000000000060808f015160501b169d015160581b9e015160601b169d015160681b169c015160701b169b161717179160481b1617179116171717179055565b807f4e487b7100000000000000000000000000000000000000000000000000000000602492526021600452fd5b6139be62ffffff88511682611040565b62ffffff6139d360408a0192828451166130f5565b169052613871565b909192506139f760a0890151820b60ff60c08b015116906133d2565b8184810b13808091613ca5575b15613b6257505050613a3e60ff610100890151167f0000000000000000000000000000000000000000000000000000000000000000610f9e565b9073ffffffffffffffffffffffffffffffffffffffff7f0000000000000000000000000000000000000000000000000000000000000000163b15613b5e576040517fabe7f1ab00000000000000000000000000000000000000000000000000000000815273ffffffffffffffffffffffffffffffffffffffff909116600482015260248101919091528581806044810103818373ffffffffffffffffffffffffffffffffffffffff7f0000000000000000000000000000000000000000000000000000000000000000165af18015613b535790869291613b37575b509167ffffffffffffffff94939160ff935b91938193959650613857565b613b4390929192610e7e565b613b4f57849038613b19565b8480fd5b6040513d88823e3d90fd5b8680fd5b91809392989796959498159182613c99575b5050613b92575b50509060ff918467ffffffffffffffff9596613b2b565b73ffffffffffffffffffffffffffffffffffffffff7f000000000000000000000000000000000000000000000000000000000000000016613bfb60ff6101008b0151167f0000000000000000000000000000000000000000000000000000000000000000610f9e565b91813b15613c95576040517ff5d82b6b00000000000000000000000000000000000000000000000000000000815273ffffffffffffffffffffffffffffffffffffffff919091166004820152602481019290925282908290604490829084905af18015613c8a5715613b7b5767ffffffffffffffff955090613c8060ff949392610e7e565b9481929350613b7b565b6040513d84823e3d90fd5b8380fd5b810b1390508238613b74565b508282810b1315613a04565b5060ff86161515613852565b8091929394955015600014613dc3575060608901516007811015613d9657889493929103613d07575050613cf660a0880151840b613ff3565b830b60a08801525b3880808061380a565b90919250600160a0890151850b820b01907fffffffffffffffffffffffffffffffffffffffffffffffffffffffffffffff808212607f831317613d69575086929160ff91850b60a08a015281600160c08b0151921b18161660c0880152613cfe565b807f4e487b7100000000000000000000000000000000000000000000000000000000602492526011600452fd5b6024867f4e487b710000000000000000000000000000000000000000000000000000000081526021600452fd5b60608a9493940180516007811015613d96578303613e595750505060ff60018160c08b015116921b161760c08801527ffffffffffffffffffffffffffffffffffffffffffffffffffffffffffffffffe60a0880151840b820b0190607f82137fffffffffffffffffffffffffffffffffffffffffffffffffffffffffffffff80831217613d695750820b60a08701528490613cfe565b9591959392935160078110156137325789959493929103613ebd5750908160ff929515600014613eb357613e9560015b60a08c0151830b613458565b900b60a08a015281600160c08b0151921b18161660c0880152613cfe565b613e956002613e89565b9415613ecb575b5050613cfe565b613eda60a08a0151820b613ff3565b900b60a089015260ff60018160c08b015116921b161760c08801523880613ec4565b6024827f4e487b710000000000000000000000000000000000000000000000000000000081526021600452fd5b9750600c60ff610100880151160260ff8116908103613f9957613f5660ff91600f60e08a015116906131e5565b169760e087015160041c60ff8351169060ff82116131815760ff9160f0613f8e926001600f60e08e015116931b191660041b166113ea565b1660e08801526137c3565b6024897f4e487b710000000000000000000000000000000000000000000000000000000081526011600452fd5b60ff613fdd60c088015160f0612f8c848316613151565b1660e0870152613790565b5060ff83161561378b565b60000b7fffffffffffffffffffffffffffffffffffffffffffffffffffffffffffffffff01907fffffffffffffffffffffffffffffffffffffffffffffffffffffffffffffff808212607f8313176108515756fea2646970667358221220238855f28e6a7b2f9f80204df33e36772d1b0a2e8cb65b0ab95e6a3b6662964f64736f6c63430008180033",
  "linkReferences": {},
  "deployedLinkReferences": {},
  "devdoc": {
    "errors": {
      "ReserveTooLow(uint256,uint256)": [
        {
          "params": {
            "expected": "amount required to proceed",
            "inReserve": "amount in reserver as the time of the call"
          }
        }
      ]
    },
    "events": {
      "Approval(address,address,uint256)": {
        "params": {
          "approved": "account who can know transfer on the owner's behalf",
          "owner": "current owner of the token",
          "tokenID": "id of the token being approved"
        }
      },
      "ApprovalForAll(address,address,bool)": {
        "params": {
          "approved": "whether it is approved or not",
          "operator": "account who can know transfer on the owner's behalf",
          "owner": "the account granting rights over all of its token"
        }
      },
      "CommitmentCancelled(address,uint24)": {
        "params": {
          "epoch": "epoch number on which this commit belongs to",
          "player": "account taking the staking risk (can be a different account than the one controlling the gems)"
        }
      },
      "CommitmentMade(address,uint24,bytes24)": {
        "params": {
          "commitmentHash": "the hash of moves",
          "epoch": "epoch number on which this commit belongs to",
          "player": "account taking the staking risk (can be a different account than the one controlling the gems)"
        }
      },
      "CommitmentRevealed(address,uint24,bytes24,(uint64,uint8)[],bytes24,uint256)": {
        "params": {
          "commitmentHash": "the hash of the moves",
          "epoch": "epoch number on which this commit belongs to",
          "furtherMoves": "hash of further moves, unless bytes32(0) which indicate end.",
          "moves": "the moves",
          "newReserveAmount": "new amount in reserve as a result",
          "player": "account who commited"
        }
      },
      "CommitmentVoid(address,uint24,uint256,bytes24)": {
        "params": {
          "amountBurnt": "amount of token to burn",
          "epoch": "epoch number on which this commit belongs to",
          "furtherMoves": "hash of further moves, unless bytes32(0) which indicate end.",
          "player": "the account that made the commitment"
        }
      },
      "MoveProcessed(uint64,address,uint8,uint8)": {
        "params": {
          "newColor": "color that takes over",
          "oldColor": "previous color of the cell",
          "player": "account making the move",
          "position": "cell at which the move take place"
        }
      },
      "MultiPoke(uint24,uint64[])": {
        "params": {
          "epoch": "epoch number at which the poke take place",
          "positions": "cells to poke"
        }
      },
      "ReserveDeposited(address,uint256,uint256)": {
        "params": {
          "amountDeposited": "the number of tokens deposited",
          "newAmount": "the number of tokens in reserver as a result",
          "player": "account receiving the token in the reserve"
        }
      },
      "ReserveWithdrawn(address,uint256,uint256)": {
        "params": {
          "amountWithdrawn": "the number of tokens withdrawnn",
          "newAmount": "the number of tokens in reserver as a result",
          "player": "account withdrawing the tokens"
        }
      },
      "SinglePoke(uint24,uint64)": {
        "params": {
          "epoch": "epoch number at which the poke take place",
          "position": "cell to poke"
        }
      },
      "Transfer(address,address,uint256)": {
        "params": {
          "from": "the account the token is sent from",
          "to": "the account the token is sent to",
          "tokenID": "id of the token being sent"
        }
      }
    },
    "kind": "dev",
    "methods": {
      "acknowledgeMissedReveal(address,bytes32,(uint64,uint8)[],bytes24)": {
        "params": {
          "furtherMoves": "if moves cannot be contained in one tx, further moves are represented by a hash to reveal too",
          "moves": "the actual moves",
          "player": "the account who committed the move",
          "secret": "the secret used to make the commit"
        }
      },
      "reveal(address,bytes32,(uint64,uint8)[],bytes24,bool,address)": {
        "params": {
          "furtherMoves": "if moves cannot be contained in one tx, further moves are represented by a hash to reveal too  Note that you have to that have enough moves (specified by MAX_NUM_MOVES_PER_HASH = 32)",
          "moves": "the actual moves",
          "payee": "address to send ETH to along the reveal",
          "player": "the account who committed the move",
          "secret": "the secret used to make the commit",
          "useReserve": "whether the tokens are taken from the reserve or from approvals.  This allow player to keep their reserve intact and use it on their next move.  Note that this require the Stratagems contract to have enough allowance."
        }
      }
    },
    "version": 1
  },
  "evm": {
    "gasEstimates": {
      "creation": {
        "codeDepositCost": "3301800",
        "executionCost": "infinite",
        "totalCost": "infinite"
      },
      "external": {
        "acknowledgeMissedReveal(address,bytes32,(uint64,uint8)[],bytes24)": "infinite",
        "acknowledgeMissedRevealByBurningAllReserve()": "infinite",
        "reveal(address,bytes32,(uint64,uint8)[],bytes24,bool,address)": "infinite"
      }
    }
  },
  "storageLayout": {
    "storage": [
      {
        "astId": 14579,
        "contract": "src/game/routes/StratagemsReveal.sol:StratagemsReveal",
        "label": "_cells",
        "offset": 0,
        "slot": "0",
        "type": "t_mapping(t_uint256,t_struct(Cell)11534_storage)"
      },
      {
        "astId": 14583,
        "contract": "src/game/routes/StratagemsReveal.sol:StratagemsReveal",
        "label": "_owners",
        "offset": 0,
        "slot": "1",
        "type": "t_mapping(t_uint256,t_uint256)"
      },
      {
        "astId": 14586,
        "contract": "src/game/routes/StratagemsReveal.sol:StratagemsReveal",
        "label": "_discovered",
        "offset": 0,
        "slot": "2",
        "type": "t_struct(Discovered)11514_storage"
      },
      {
        "astId": 14590,
        "contract": "src/game/routes/StratagemsReveal.sol:StratagemsReveal",
        "label": "_tokensInReserve",
        "offset": 0,
        "slot": "3",
        "type": "t_mapping(t_address,t_uint256)"
      },
      {
        "astId": 14595,
        "contract": "src/game/routes/StratagemsReveal.sol:StratagemsReveal",
        "label": "_commitments",
        "offset": 0,
        "slot": "4",
        "type": "t_mapping(t_address,t_struct(Commitment)11539_storage)"
      },
      {
        "astId": 14601,
        "contract": "src/game/routes/StratagemsReveal.sol:StratagemsReveal",
        "label": "_operatorsForAll",
        "offset": 0,
        "slot": "5",
        "type": "t_mapping(t_address,t_mapping(t_address,t_bool))"
      },
      {
        "astId": 14605,
        "contract": "src/game/routes/StratagemsReveal.sol:StratagemsReveal",
        "label": "_operators",
        "offset": 0,
        "slot": "6",
        "type": "t_mapping(t_uint256,t_address)"
      }
    ],
    "types": {
      "t_address": {
        "encoding": "inplace",
        "label": "address",
        "numberOfBytes": "20"
      },
      "t_bool": {
        "encoding": "inplace",
        "label": "bool",
        "numberOfBytes": "1"
      },
      "t_bytes24": {
        "encoding": "inplace",
        "label": "bytes24",
        "numberOfBytes": "24"
      },
      "t_enum(Color)11440": {
        "encoding": "inplace",
        "label": "enum UsingStratagemsTypes.Color",
        "numberOfBytes": "1"
      },
      "t_int8": {
        "encoding": "inplace",
        "label": "int8",
        "numberOfBytes": "1"
      },
      "t_mapping(t_address,t_bool)": {
        "encoding": "mapping",
        "key": "t_address",
        "label": "mapping(address => bool)",
        "numberOfBytes": "32",
        "value": "t_bool"
      },
      "t_mapping(t_address,t_mapping(t_address,t_bool))": {
        "encoding": "mapping",
        "key": "t_address",
        "label": "mapping(address => mapping(address => bool))",
        "numberOfBytes": "32",
        "value": "t_mapping(t_address,t_bool)"
      },
      "t_mapping(t_address,t_struct(Commitment)11539_storage)": {
        "encoding": "mapping",
        "key": "t_address",
        "label": "mapping(address => struct UsingStratagemsTypes.Commitment)",
        "numberOfBytes": "32",
        "value": "t_struct(Commitment)11539_storage"
      },
      "t_mapping(t_address,t_uint256)": {
        "encoding": "mapping",
        "key": "t_address",
        "label": "mapping(address => uint256)",
        "numberOfBytes": "32",
        "value": "t_uint256"
      },
      "t_mapping(t_uint256,t_address)": {
        "encoding": "mapping",
        "key": "t_uint256",
        "label": "mapping(uint256 => address)",
        "numberOfBytes": "32",
        "value": "t_address"
      },
      "t_mapping(t_uint256,t_struct(Cell)11534_storage)": {
        "encoding": "mapping",
        "key": "t_uint256",
        "label": "mapping(uint256 => struct UsingStratagemsTypes.Cell)",
        "numberOfBytes": "32",
        "value": "t_struct(Cell)11534_storage"
      },
      "t_mapping(t_uint256,t_uint256)": {
        "encoding": "mapping",
        "key": "t_uint256",
        "label": "mapping(uint256 => uint256)",
        "numberOfBytes": "32",
        "value": "t_uint256"
      },
      "t_struct(Cell)11534_storage": {
        "encoding": "inplace",
        "label": "struct UsingStratagemsTypes.Cell",
        "members": [
          {
            "astId": 11516,
            "contract": "src/game/routes/StratagemsReveal.sol:StratagemsReveal",
            "label": "lastEpochUpdate",
            "offset": 0,
            "slot": "0",
            "type": "t_uint24"
          },
          {
            "astId": 11518,
            "contract": "src/game/routes/StratagemsReveal.sol:StratagemsReveal",
            "label": "epochWhenTokenIsAdded",
            "offset": 3,
            "slot": "0",
            "type": "t_uint24"
          },
          {
            "astId": 11520,
            "contract": "src/game/routes/StratagemsReveal.sol:StratagemsReveal",
            "label": "producingEpochs",
            "offset": 6,
            "slot": "0",
            "type": "t_uint24"
          },
          {
            "astId": 11523,
            "contract": "src/game/routes/StratagemsReveal.sol:StratagemsReveal",
            "label": "color",
            "offset": 9,
            "slot": "0",
            "type": "t_enum(Color)11440"
          },
          {
            "astId": 11525,
            "contract": "src/game/routes/StratagemsReveal.sol:StratagemsReveal",
            "label": "life",
            "offset": 10,
            "slot": "0",
            "type": "t_uint8"
          },
          {
            "astId": 11527,
            "contract": "src/game/routes/StratagemsReveal.sol:StratagemsReveal",
            "label": "delta",
            "offset": 11,
            "slot": "0",
            "type": "t_int8"
          },
          {
            "astId": 11529,
            "contract": "src/game/routes/StratagemsReveal.sol:StratagemsReveal",
            "label": "enemyMap",
            "offset": 12,
            "slot": "0",
            "type": "t_uint8"
          },
          {
            "astId": 11531,
            "contract": "src/game/routes/StratagemsReveal.sol:StratagemsReveal",
            "label": "distribution",
            "offset": 13,
            "slot": "0",
            "type": "t_uint8"
          },
          {
            "astId": 11533,
            "contract": "src/game/routes/StratagemsReveal.sol:StratagemsReveal",
            "label": "stake",
            "offset": 14,
            "slot": "0",
            "type": "t_uint8"
          }
        ],
        "numberOfBytes": "32"
      },
      "t_struct(Commitment)11539_storage": {
        "encoding": "inplace",
        "label": "struct UsingStratagemsTypes.Commitment",
        "members": [
          {
            "astId": 11536,
            "contract": "src/game/routes/StratagemsReveal.sol:StratagemsReveal",
            "label": "hash",
            "offset": 0,
            "slot": "0",
            "type": "t_bytes24"
          },
          {
            "astId": 11538,
            "contract": "src/game/routes/StratagemsReveal.sol:StratagemsReveal",
            "label": "epoch",
            "offset": 24,
            "slot": "0",
            "type": "t_uint24"
          }
        ],
        "numberOfBytes": "32"
      },
      "t_struct(Discovered)11514_storage": {
        "encoding": "inplace",
        "label": "struct UsingStratagemsTypes.Discovered",
        "members": [
          {
            "astId": 11507,
            "contract": "src/game/routes/StratagemsReveal.sol:StratagemsReveal",
            "label": "minX",
            "offset": 0,
            "slot": "0",
            "type": "t_uint32"
          },
          {
            "astId": 11509,
            "contract": "src/game/routes/StratagemsReveal.sol:StratagemsReveal",
            "label": "maxX",
            "offset": 4,
            "slot": "0",
            "type": "t_uint32"
          },
          {
            "astId": 11511,
            "contract": "src/game/routes/StratagemsReveal.sol:StratagemsReveal",
            "label": "minY",
            "offset": 8,
            "slot": "0",
            "type": "t_uint32"
          },
          {
            "astId": 11513,
            "contract": "src/game/routes/StratagemsReveal.sol:StratagemsReveal",
            "label": "maxY",
            "offset": 12,
            "slot": "0",
            "type": "t_uint32"
          }
        ],
        "numberOfBytes": "32"
      },
      "t_uint24": {
        "encoding": "inplace",
        "label": "uint24",
        "numberOfBytes": "3"
      },
      "t_uint256": {
        "encoding": "inplace",
        "label": "uint256",
        "numberOfBytes": "32"
      },
      "t_uint32": {
        "encoding": "inplace",
        "label": "uint32",
        "numberOfBytes": "4"
      },
      "t_uint8": {
        "encoding": "inplace",
        "label": "uint8",
        "numberOfBytes": "1"
      }
    }
  },
  "userdoc": {
    "errors": {
      "CanStillReveal()": [
        {
          "notice": "Player have to reveal if they can Stratagems will prevent them from acknowledging missed reveal if there is still time to reveal."
        }
      ],
      "CommitmentHashNotMatching()": [
        {
          "notice": "Player have to reveal their commitment using the exact same move values  If they provide different value, the commitment hash will differ and Stratagems will reject their reveal."
        }
      ],
      "GameNotStarted()": [
        {
          "notice": "Game has not started yet, can't perform any action"
        }
      ],
      "ImpossibleConfiguration()": [
        {
          "notice": "The cell configuration is invalid This can happen win debug mode where admin can setup cell bypassing moves rules For example when setting up neighborood configuration that would require a cell to have negative life"
        }
      ],
      "InCommitmentPhase()": [
        {
          "notice": "When in Commit phase, player can make new commitment but they cannot reveal their move yet."
        }
      ],
      "InRevealPhase()": [
        {
          "notice": "When in Reveal phase, it is not possible to commit new moves or cancel previous commitment  During Reveal phase, players have to reveal their commitment, if not already done."
        }
      ],
      "InvalidEpoch()": [
        {
          "notice": "Player can only reveal their move in the same epoch they commited.abi  If a player reveal later it can only do to minimize the reserve burn cost by calling : `acknowledgeMissedReveal`"
        }
      ],
      "InvalidFurtherMoves()": [
        {
          "notice": "Player can make arbitrary number of moves per epoch. To do so they group moves into (MAX_NUM_MOVES_PER_HASH = 32) moves  This result in a recursive series of hash that they can then submit in turn while revealing.  The limit  (MAX_NUM_MOVES_PER_HASH = 32) ensure a reveal batch fits in a block."
        }
      ],
      "NothingToReveal()": [
        {
          "notice": "Player can only reveal moves they commited."
        }
      ],
      "PreviousCommitmentNotRevealed()": [
        {
          "notice": "Previous commitment need to be revealed before making a new one. Even if the corresponding reveal phase has passed.\\  It is also not possible to withdraw any amount from reserve until the commitment is revealed.\\If player lost the information to reveal, it can acknowledge failure which will burn all its reserve.\\"
        }
      ],
      "ReserveTooLow(uint256,uint256)": [
        {
          "notice": "to make a commitment you always need at least one `config.numTokensPerGems` amount in reserve  Player also need one `config.numTokensPerGems`  per moves during the Reveal phase."
        }
      ]
    },
    "events": {
      "Approval(address,address,uint256)": {
        "notice": "Triggered when a token is approved to be sent by another account  Note tat the approval get reset when a Transfer event for that same token is emitted."
      },
      "ApprovalForAll(address,address,bool)": {
        "notice": "Triggered when an account approve or disaprove another to transfer on its behalf"
      },
      "CommitmentCancelled(address,uint24)": {
        "notice": "A player has cancelled its current commitment (before it reached the reveal phase)"
      },
      "CommitmentMade(address,uint24,bytes24)": {
        "notice": "A player has commited to make a move and reveal it on the reveal phase"
      },
      "CommitmentRevealed(address,uint24,bytes24,(uint64,uint8)[],bytes24,uint256)": {
        "notice": "Player has revealed its previous commitment"
      },
      "CommitmentVoid(address,uint24,uint256,bytes24)": {
        "notice": "A player has canceled a previous commitment by burning some tokens"
      },
      "MoveProcessed(uint64,address,uint8,uint8)": {
        "notice": "A move has been revealed."
      },
      "MultiPoke(uint24,uint64[])": {
        "notice": "poke multiple cells and update them if needed"
      },
      "ReserveDeposited(address,uint256,uint256)": {
        "notice": "Player has deposited token in the reserve, allowing it to use that much in game"
      },
      "ReserveWithdrawn(address,uint256,uint256)": {
        "notice": "Player have withdrawn token from the reserve"
      },
      "SinglePoke(uint24,uint64)": {
        "notice": "poke cell and update it if needed"
      },
      "Transfer(address,address,uint256)": {
        "notice": "Triggered when a token is transferred"
      }
    },
    "kind": "user",
    "methods": {
      "acknowledgeMissedReveal(address,bytes32,(uint64,uint8)[],bytes24)": {
        "notice": "called by player if they missed the reveal phase and want to minimze the token loss.  By providing the moves, they will be slashed only the amount of token required to make the moves"
      },
      "acknowledgeMissedRevealByBurningAllReserve()": {
        "notice": "should only be called as last resort this will burn all tokens in reserve If player has access to the secret, better call `acknowledgeMissedReveal`"
      },
      "reveal(address,bytes32,(uint64,uint8)[],bytes24,bool,address)": {
        "notice": "called by player to reveal their moves  this is where the core logic of the game takes place  This is where the game board evolves  The game is designed so that reveal order does not matter"
      }
    },
    "version": 1
  },
  "argsData": "0x000000000000000000000000f1afa696204e3f1c07838280bd2db799c660da1c000000000000000000000000deaddeaddeaddeaddeaddeaddeaddeaddeaddead000000000000000000000000000000000000000000000000000000000000000000000000000000000000000000000000000000000000000000000000000143700000000000000000000000000000000000000000000000000000000000000e1000000000000000000000000000000000000000000000000000000000000000070000000000000000000000000000000000000000000000000de0b6b3a76400000000000000000000000000000000000000000000000000000000000000000000000000000000000000000000b0855eaf94bf7f122af4f444141e83b7408cc7a7",
  "transaction": {
    "hash": "0x1cc51a78e5790a38049343ec525819bf63c9090c120b11a5afd1e14d9b807d1f",
    "origin": "0xbe19b59e8c588d68f475a407c7ba5fe813aeb792"
  }
}