{
  "address": "0x471a76957b5842b48babe8295819ac5dcd0e5da8",
  "abi": [
    {
      "inputs": [
        {
          "components": [
            {
              "internalType": "contract IERC20WithIERC2612",
              "name": "tokens",
              "type": "address"
            },
            {
              "internalType": "address payable",
              "name": "burnAddress",
              "type": "address"
            },
            {
              "internalType": "uint256",
              "name": "startTime",
              "type": "uint256"
            },
            {
              "internalType": "uint256",
              "name": "commitPhaseDuration",
              "type": "uint256"
            },
            {
              "internalType": "uint256",
              "name": "revealPhaseDuration",
              "type": "uint256"
            },
            {
              "internalType": "uint8",
              "name": "maxLife",
              "type": "uint8"
            },
            {
              "internalType": "uint256",
              "name": "numTokensPerGems",
              "type": "uint256"
            },
            {
              "internalType": "contract ITime",
              "name": "time",
              "type": "address"
            },
            {
              "internalType": "contract IOnStakeChange",
              "name": "generator",
              "type": "address"
            }
          ],
          "internalType": "struct UsingStratagemsTypes.Config",
          "name": "config",
          "type": "tuple"
        }
      ],
      "stateMutability": "nonpayable",
      "type": "constructor"
    },
    {
      "inputs": [],
      "name": "CanStillReveal",
      "type": "error"
    },
    {
      "inputs": [],
      "name": "CommitmentHashNotMatching",
      "type": "error"
    },
    {
      "inputs": [],
      "name": "GameNotStarted",
      "type": "error"
    },
    {
      "inputs": [],
      "name": "ImpossibleConfiguration",
      "type": "error"
    },
    {
      "inputs": [],
      "name": "InCommitmentPhase",
      "type": "error"
    },
    {
      "inputs": [],
      "name": "InRevealPhase",
      "type": "error"
    },
    {
      "inputs": [],
      "name": "InvalidEpoch",
      "type": "error"
    },
    {
      "inputs": [],
      "name": "InvalidFurtherMoves",
      "type": "error"
    },
    {
      "inputs": [],
      "name": "NothingToReveal",
      "type": "error"
    },
    {
      "inputs": [],
      "name": "PreviousCommitmentNotRevealed",
      "type": "error"
    },
    {
      "inputs": [
        {
          "internalType": "uint256",
          "name": "inReserve",
          "type": "uint256"
        },
        {
          "internalType": "uint256",
          "name": "expected",
          "type": "uint256"
        }
      ],
      "name": "ReserveTooLow",
      "type": "error"
    },
    {
      "anonymous": false,
      "inputs": [
        {
          "indexed": true,
          "internalType": "address",
          "name": "player",
          "type": "address"
        },
        {
          "indexed": true,
          "internalType": "uint24",
          "name": "epoch",
          "type": "uint24"
        }
      ],
      "name": "CommitmentCancelled",
      "type": "event"
    },
    {
      "anonymous": false,
      "inputs": [
        {
          "indexed": true,
          "internalType": "address",
          "name": "player",
          "type": "address"
        },
        {
          "indexed": true,
          "internalType": "uint24",
          "name": "epoch",
          "type": "uint24"
        },
        {
          "indexed": false,
          "internalType": "bytes24",
          "name": "commitmentHash",
          "type": "bytes24"
        }
      ],
      "name": "CommitmentMade",
      "type": "event"
    },
    {
      "anonymous": false,
      "inputs": [
        {
          "indexed": true,
          "internalType": "address",
          "name": "player",
          "type": "address"
        },
        {
          "indexed": true,
          "internalType": "uint24",
          "name": "epoch",
          "type": "uint24"
        },
        {
          "indexed": true,
          "internalType": "bytes24",
          "name": "commitmentHash",
          "type": "bytes24"
        },
        {
          "components": [
            {
              "internalType": "uint64",
              "name": "position",
              "type": "uint64"
            },
            {
              "internalType": "enum UsingStratagemsTypes.Color",
              "name": "color",
              "type": "uint8"
            }
          ],
          "indexed": false,
          "internalType": "struct UsingStratagemsTypes.Move[]",
          "name": "moves",
          "type": "tuple[]"
        },
        {
          "indexed": false,
          "internalType": "bytes24",
          "name": "furtherMoves",
          "type": "bytes24"
        },
        {
          "indexed": false,
          "internalType": "uint256",
          "name": "newReserveAmount",
          "type": "uint256"
        }
      ],
      "name": "CommitmentRevealed",
      "type": "event"
    },
    {
      "anonymous": false,
      "inputs": [
        {
          "indexed": true,
          "internalType": "address",
          "name": "player",
          "type": "address"
        },
        {
          "indexed": true,
          "internalType": "uint24",
          "name": "epoch",
          "type": "uint24"
        },
        {
          "indexed": false,
          "internalType": "uint256",
          "name": "amountBurnt",
          "type": "uint256"
        },
        {
          "indexed": false,
          "internalType": "bytes24",
          "name": "furtherMoves",
          "type": "bytes24"
        }
      ],
      "name": "CommitmentVoid",
      "type": "event"
    },
    {
      "anonymous": false,
      "inputs": [
        {
          "indexed": true,
          "internalType": "uint64",
          "name": "position",
          "type": "uint64"
        },
        {
          "indexed": true,
          "internalType": "address",
          "name": "player",
          "type": "address"
        },
        {
          "indexed": false,
          "internalType": "enum UsingStratagemsTypes.Color",
          "name": "oldColor",
          "type": "uint8"
        },
        {
          "indexed": false,
          "internalType": "enum UsingStratagemsTypes.Color",
          "name": "newColor",
          "type": "uint8"
        }
      ],
      "name": "MoveProcessed",
      "type": "event"
    },
    {
      "anonymous": false,
      "inputs": [
        {
          "indexed": true,
          "internalType": "uint24",
          "name": "epoch",
          "type": "uint24"
        },
        {
          "indexed": false,
          "internalType": "uint64[]",
          "name": "positions",
          "type": "uint64[]"
        }
      ],
      "name": "MultiPoke",
      "type": "event"
    },
    {
      "anonymous": false,
      "inputs": [
        {
          "indexed": true,
          "internalType": "address",
          "name": "player",
          "type": "address"
        },
        {
          "indexed": false,
          "internalType": "uint256",
          "name": "amountDeposited",
          "type": "uint256"
        },
        {
          "indexed": false,
          "internalType": "uint256",
          "name": "newAmount",
          "type": "uint256"
        }
      ],
      "name": "ReserveDeposited",
      "type": "event"
    },
    {
      "anonymous": false,
      "inputs": [
        {
          "indexed": true,
          "internalType": "address",
          "name": "player",
          "type": "address"
        },
        {
          "indexed": false,
          "internalType": "uint256",
          "name": "amountWithdrawn",
          "type": "uint256"
        },
        {
          "indexed": false,
          "internalType": "uint256",
          "name": "newAmount",
          "type": "uint256"
        }
      ],
      "name": "ReserveWithdrawn",
      "type": "event"
    },
    {
      "anonymous": false,
      "inputs": [
        {
          "indexed": true,
          "internalType": "uint24",
          "name": "epoch",
          "type": "uint24"
        },
        {
          "indexed": false,
          "internalType": "uint64",
          "name": "position",
          "type": "uint64"
        }
      ],
      "name": "SinglePoke",
      "type": "event"
    },
    {
      "inputs": [
        {
          "internalType": "uint256",
          "name": "id",
          "type": "uint256"
        }
      ],
      "name": "getCell",
      "outputs": [
        {
          "components": [
            {
              "internalType": "address",
              "name": "owner",
              "type": "address"
            },
            {
              "internalType": "uint24",
              "name": "lastEpochUpdate",
              "type": "uint24"
            },
            {
              "internalType": "uint24",
              "name": "epochWhenTokenIsAdded",
              "type": "uint24"
            },
            {
              "internalType": "uint24",
              "name": "producingEpochs",
              "type": "uint24"
            },
            {
              "internalType": "enum UsingStratagemsTypes.Color",
              "name": "color",
              "type": "uint8"
            },
            {
              "internalType": "uint8",
              "name": "life",
              "type": "uint8"
            },
            {
              "internalType": "int8",
              "name": "delta",
              "type": "int8"
            },
            {
              "internalType": "uint8",
              "name": "enemyMap",
              "type": "uint8"
            },
            {
              "internalType": "uint8",
              "name": "distribution",
              "type": "uint8"
            },
            {
              "internalType": "uint8",
              "name": "stake",
              "type": "uint8"
            }
          ],
          "internalType": "struct UsingStratagemsTypes.FullCell",
          "name": "",
          "type": "tuple"
        }
      ],
      "stateMutability": "view",
      "type": "function"
    },
    {
      "inputs": [
        {
          "internalType": "uint256[]",
          "name": "ids",
          "type": "uint256[]"
        }
      ],
      "name": "getCells",
      "outputs": [
        {
          "components": [
            {
              "internalType": "address",
              "name": "owner",
              "type": "address"
            },
            {
              "internalType": "uint24",
              "name": "lastEpochUpdate",
              "type": "uint24"
            },
            {
              "internalType": "uint24",
              "name": "epochWhenTokenIsAdded",
              "type": "uint24"
            },
            {
              "internalType": "uint24",
              "name": "producingEpochs",
              "type": "uint24"
            },
            {
              "internalType": "enum UsingStratagemsTypes.Color",
              "name": "color",
              "type": "uint8"
            },
            {
              "internalType": "uint8",
              "name": "life",
              "type": "uint8"
            },
            {
              "internalType": "int8",
              "name": "delta",
              "type": "int8"
            },
            {
              "internalType": "uint8",
              "name": "enemyMap",
              "type": "uint8"
            },
            {
              "internalType": "uint8",
              "name": "distribution",
              "type": "uint8"
            },
            {
              "internalType": "uint8",
              "name": "stake",
              "type": "uint8"
            }
          ],
          "internalType": "struct UsingStratagemsTypes.FullCell[]",
          "name": "cells",
          "type": "tuple[]"
        }
      ],
      "stateMutability": "view",
      "type": "function"
    },
    {
      "inputs": [
        {
          "internalType": "address",
          "name": "account",
          "type": "address"
        }
      ],
      "name": "getCommitment",
      "outputs": [
        {
          "components": [
            {
              "internalType": "bytes24",
              "name": "hash",
              "type": "bytes24"
            },
            {
              "internalType": "uint24",
              "name": "epoch",
              "type": "uint24"
            }
          ],
          "internalType": "struct UsingStratagemsTypes.Commitment",
          "name": "commitment",
          "type": "tuple"
        }
      ],
      "stateMutability": "view",
      "type": "function"
    },
    {
      "inputs": [],
      "name": "getConfig",
      "outputs": [
        {
          "components": [
            {
              "internalType": "contract IERC20WithIERC2612",
              "name": "tokens",
              "type": "address"
            },
            {
              "internalType": "address payable",
              "name": "burnAddress",
              "type": "address"
            },
            {
              "internalType": "uint256",
              "name": "startTime",
              "type": "uint256"
            },
            {
              "internalType": "uint256",
              "name": "commitPhaseDuration",
              "type": "uint256"
            },
            {
              "internalType": "uint256",
              "name": "revealPhaseDuration",
              "type": "uint256"
            },
            {
              "internalType": "uint8",
              "name": "maxLife",
              "type": "uint8"
            },
            {
              "internalType": "uint256",
              "name": "numTokensPerGems",
              "type": "uint256"
            },
            {
              "internalType": "contract ITime",
              "name": "time",
              "type": "address"
            },
            {
              "internalType": "contract IOnStakeChange",
              "name": "generator",
              "type": "address"
            }
          ],
          "internalType": "struct UsingStratagemsTypes.Config",
          "name": "config",
          "type": "tuple"
        }
      ],
      "stateMutability": "view",
      "type": "function"
    },
    {
      "inputs": [
        {
          "internalType": "address",
          "name": "account",
          "type": "address"
        }
      ],
      "name": "getTokensInReserve",
      "outputs": [
        {
          "internalType": "uint256",
          "name": "amount",
          "type": "uint256"
        }
      ],
      "stateMutability": "view",
      "type": "function"
    }
  ],
  "contractName": "StratagemsGetters",
  "sourceName": "src/game/routes/StratagemsGetters.sol",
  "bytecode": "0x6101a03461019f57611186601f38829003908101601f19168301906001600160401b0390818311858410176101a457808594604094855285396101209384918101031261019f57815190838201908111828210176101a457825283516001600160a01b0390818116810361019f578252602085015190808216820361019f576020830191825283860151928481019384526060870151906060810191825260808801516080820190815260a08901519060ff8216820361019f5760a0830191825260c08a01519360c0840194855260e08b0151938685169485810361019f5760e0820152610100809c015197878916890361019f57878260ff978f8395019b8c52608052511660a0525116976101609889525160c0525160e0525189525116865251916101409283525116926101809384525193610fcb95866101bb873960805186610ddb015260a05186610416015260c05186818161046b0152610a02015260e05186818161049201526109ad0152518581816104ba01526109cf0152518481816104e30152610c8f0152518361050d01525182610441015251815050f35b600080fd5b634e487b7160e01b600052604160045260246000fdfe6080604052600436101561001257600080fd5b60003560e01c8063206848f6146105dc578063990b050914610574578063c3f909d4146103c3578063f18885ce146101205763fa1026dd1461005357600080fd5b3461011b5760207ffffffffffffffffffffffffffffffffffffffffffffffffffffffffffffffffc36011261011b5760043573ffffffffffffffffffffffffffffffffffffffff811680910361011b57600060206040516100b3816107e8565b8281520152600052600460205260408060002060208251916100d4836107e8565b547fffffffffffffffffffffffffffffffffffffffffffffffff000000000000000081851b169283815262ffffff928391019160c01c168152835192835251166020820152f35b600080fd5b3461011b5760207ffffffffffffffffffffffffffffffffffffffffffffffffffffffffffffffffc36011261011b5760043567ffffffffffffffff811161011b573660238201121561011b5780600401359061017b82610862565b916101896040519384610821565b8083526024602084019160051b8301019136831161011b57602401905b8282106103b357836101b66109ab565b50908051906101c482610862565b926101d26040519485610821565b8284527fffffffffffffffffffffffffffffffffffffffffffffffffffffffffffffffe06101ff84610862565b0160005b81811061039c57505060005b838110610268578460405180916020820160208352815180915260206040840192019060005b818110610243575050500390f35b9193509160206101408261025a6001948851610703565b019401910191849392610235565b6102868267ffffffffffffffff61027f8487610917565b5116610b06565b50906102928185610917565b51600052600160205273ffffffffffffffffffffffffffffffffffffffff6040600020541662ffffff92838151169084602082015116946040820151166060820151600781101561036d5782809260019861033a60ff9460808681870151169460a0948588015160000b986101008160e08160c0809d0151169d0151169c0151169b60206040519e8f906103258261079c565b8152015260408d015260608c01528a016108c6565b87015285015260e084015261010083015261012082015261035b8288610917565b526103668187610917565b500161020f565b7f4e487b7100000000000000000000000000000000000000000000000000000000600052602160045260246000fd5b6020906103a761087a565b82828901015201610203565b81358152602091820191016101a6565b3461011b5760007ffffffffffffffffffffffffffffffffffffffffffffffffffffffffffffffffc36011261011b576101206103fd6108d2565b73ffffffffffffffffffffffffffffffffffffffff90817f0000000000000000000000000000000000000000000000000000000000000000169182825260208201817f000000000000000000000000000000000000000000000000000000000000000016815260ff604084017f00000000000000000000000000000000000000000000000000000000000000008152606085017f0000000000000000000000000000000000000000000000000000000000000000815260808601907f0000000000000000000000000000000000000000000000000000000000000000825260a0870192847f00000000000000000000000000000000000000000000000000000000000000001684528660c08901967f000000000000000000000000000000000000000000000000000000000000000088526040519a8b52511660208a0152516040890152516060880152516080870152511660a08501525160c08401528060e08301511660e0840152610100809201511690820152f35b3461011b5760207ffffffffffffffffffffffffffffffffffffffffffffffffffffffffffffffffc36011261011b5760043573ffffffffffffffffffffffffffffffffffffffff811680910361011b5760005260036020526020604060002054604051908152f35b3461011b5760207ffffffffffffffffffffffffffffffffffffffffffffffffffffffffffffffffc36011261011b5760043561061661087a565b506106336106226109ab565b5067ffffffffffffffff8316610b06565b5090600052600160205273ffffffffffffffffffffffffffffffffffffffff6040600020541662ffffff8083511690806020850151169060408501511693606081015194600786101561036d576101409560ff6080840151166106dc60a085015160000b9260ff60c0870151169460ff60e0880151169760ff6101008099015116996040519b6106c28d61079c565b8c5260208c015260408b015260608a0152608089016108c6565b60a087015260c086015260e08501528301526101208201526107016040518092610703565bf35b73ffffffffffffffffffffffffffffffffffffffff8151168252602081015162ffffff809116602084015280604083015116604084015260608201511660608301526080810151600781101561036d57608083015260ff60a08201511660a083015260c081015160000b60c083015260ff60e08201511660e083015261010060ff81830151169083015260ff6101208092015116910152565b610140810190811067ffffffffffffffff8211176107b957604052565b7f4e487b7100000000000000000000000000000000000000000000000000000000600052604160045260246000fd5b6040810190811067ffffffffffffffff8211176107b957604052565b610120810190811067ffffffffffffffff8211176107b957604052565b90601f7fffffffffffffffffffffffffffffffffffffffffffffffffffffffffffffffe0910116810190811067ffffffffffffffff8211176107b957604052565b67ffffffffffffffff81116107b95760051b60200190565b604051906108878261079c565b816101206000918281528260208201528260408201528260608201528260808201528260a08201528260c08201528260e0820152826101008201520152565b600782101561036d5752565b604051906108df82610804565b816101006000918281528260208201528260408201528260608201528260808201528260a08201528260c08201528260e08201520152565b805182101561092b5760209160051b010190565b7f4e487b7100000000000000000000000000000000000000000000000000000000600052603260045260246000fd5b9190820391821161096757565b7f4e487b7100000000000000000000000000000000000000000000000000000000600052601160045260246000fd5b62ffffff918216908216039190821161096757565b7f0000000000000000000000000000000000000000000000000000000000000000907f000000000000000000000000000000000000000000000000000000000000000082019182811161096757610a00610dc4565b7f0000000000000000000000000000000000000000000000000000000000000000808210610ac557610a319161095a565b8315610a965783810493600285018095116109675762ffffff809516947ffffffffffffffffffffffffffffffffffffffffffffffffffffffffffffffffe8601818111610967571681810291818304149015171561096757610a929161095a565b1090565b7f4e487b7100000000000000000000000000000000000000000000000000000000600052601260045260246000fd5b60046040517f3a5f7b57000000000000000000000000000000000000000000000000000000008152fd5b91909162ffffff8080941691160191821161096757565b9091610b106108d2565b5060009167ffffffffffffffff60009116815280602052604081209360405194610b3986610804565b5462ffffff918282168752828260181c1660208801526040870193838360301c16855260ff92610b71848260481c1660608b016108c6565b838160501c169360808a0199858b528260581c840b9a60a08201918c8352838560601c168460c0830196828852818160681c1660e085015260701c16610100830152819d8a8351169960018b101592838094610dbb575b610c15575b50505050505090610be5929151840b91511690610f36565b810b13610bf3575b50505050565b610c0991610c0091610996565b82845116610aef565b16905238808080610bed565b87969f5090610be598979392918a9380610db2575b610c4a575b50505016809252888716905215999091923880808080610bcd565b909192508c610c598d8d610996565b16928315610da95790610c6b91610f36565b90838d8b84810b81811315610d0f57505050610cc881610ce89495610ce293610cd27f000000000000000000000000000000000000000000000000000000000000000098610ccd610cbc898c610ef9565b91841696878093610eb4565b610ec8565b610f0d565b16808211610d07575b5016610f1f565b90610eb4565b9082811683831611610cff575b505b388080610c2f565b905038610cf5565b905038610cdb565b90919394925012600014610da95784610d49610d38610cc8610d3085610e84565b841687610eb4565b610d4184610e84565b831690610f0d565b16808511610d9f575b50610d5f610d6991610e84565b8516858516610f1f565b918085841611600014610d8c5750610d86915089925b168b610aef565b50610cf7565b610d8692610d9991610ef9565b92610d7f565b9350610d5f610d52565b50509050610cf7565b50811515610c2a565b50811515610bc8565b73ffffffffffffffffffffffffffffffffffffffff7f0000000000000000000000000000000000000000000000000000000000000000168015610e7f576020600491604051928380927fb80777ea0000000000000000000000000000000000000000000000000000000082525afa908115610e7357600091610e44575090565b90506020813d602011610e6b575b81610e5f60209383610821565b8101031261011b575190565b3d9150610e52565b6040513d6000823e3d90fd5b504290565b60000b7fffffffffffffffffffffffffffffffffffffffffffffffffffffffffffffff8081146109675760000390565b9060ff8091169116019060ff821161096757565b60ff7fffffffffffffffffffffffffffffffffffffffffffffffffffffffffffffffff9116019060ff821161096757565b9060ff8091169116039060ff821161096757565b9060ff16908115610a965760ff160490565b9060ff8091169116029060ff821691820361096757565b909190600090810b1315610f6e576001915b600083810b129081610f62575b50610f5c57565b60019150565b60ff9150161538610f55565b7fffffffffffffffffffffffffffffffffffffffffffffffffffffffffffffffff91610f4856fea26469706673582212208b0a0223a6fafca34886c1350da21a931b92c94aa19375b262f5fde75206dc8064736f6c63430008180033",
  "linkReferences": {},
  "deployedLinkReferences": {},
  "devdoc": {
    "errors": {
      "ReserveTooLow(uint256,uint256)": [
        {
          "params": {
            "expected": "amount required to proceed",
            "inReserve": "amount in reserver as the time of the call"
          }
        }
      ]
    },
    "events": {
      "CommitmentCancelled(address,uint24)": {
        "params": {
          "epoch": "epoch number on which this commit belongs to",
          "player": "account taking the staking risk (can be a different account than the one controlling the gems)"
        }
      },
      "CommitmentMade(address,uint24,bytes24)": {
        "params": {
          "commitmentHash": "the hash of moves",
          "epoch": "epoch number on which this commit belongs to",
          "player": "account taking the staking risk (can be a different account than the one controlling the gems)"
        }
      },
      "CommitmentRevealed(address,uint24,bytes24,(uint64,uint8)[],bytes24,uint256)": {
        "params": {
          "commitmentHash": "the hash of the moves",
          "epoch": "epoch number on which this commit belongs to",
          "furtherMoves": "hash of further moves, unless bytes32(0) which indicate end.",
          "moves": "the moves",
          "player": "account who commited"
        }
      },
      "CommitmentVoid(address,uint24,uint256,bytes24)": {
        "params": {
          "amountBurnt": "amount of token to burn",
          "epoch": "epoch number on which this commit belongs to",
          "furtherMoves": "hash of further moves, unless bytes32(0) which indicate end.",
          "player": "the account that made the commitment"
        }
      },
      "MoveProcessed(uint64,address,uint8,uint8)": {
        "params": {
          "newColor": "color that takes over",
          "oldColor": "previous color of the cell",
          "player": "account making the move",
          "position": "cell at which the move take place"
        }
      },
      "MultiPoke(uint24,uint64[])": {
        "params": {
          "epoch": "epoch number at which the poke take place",
          "positions": "cells to poke"
        }
      },
      "ReserveDeposited(address,uint256,uint256)": {
        "params": {
          "amountDeposited": "the number of tokens deposited",
          "newAmount": "the number of tokens in reserver as a result",
          "player": "account receiving the token in the reserve"
        }
      },
      "ReserveWithdrawn(address,uint256,uint256)": {
        "params": {
          "amountWithdrawn": "the number of tokens withdrawnn",
          "newAmount": "the number of tokens in reserver as a result",
          "player": "account withdrawing the tokens"
        }
      },
      "SinglePoke(uint24,uint64)": {
        "params": {
          "epoch": "epoch number at which the poke take place",
          "position": "cell to poke"
        }
      }
    },
    "kind": "dev",
    "methods": {
      "getCell(uint256)": {
        "params": {
          "id": "the cell id"
        }
      },
      "getCells(uint256[])": {
        "params": {
          "ids": "the list of cell ids"
        }
      },
      "getCommitment(address)": {
        "params": {
          "account": "the address of which to retrieve the commitment"
        }
      },
      "getTokensInReserve(address)": {
        "params": {
          "account": "the address to retrived the amount in reserve of."
        }
      }
    },
    "version": 1
  },
  "evm": {
    "gasEstimates": {
      "creation": {
        "codeDepositCost": "808600",
        "executionCost": "infinite",
        "totalCost": "infinite"
      },
      "external": {
        "getCell(uint256)": "infinite",
        "getCells(uint256[])": "infinite",
        "getCommitment(address)": "infinite",
        "getConfig()": "infinite",
        "getTokensInReserve(address)": "2366"
      }
    }
  },
  "storageLayout": {
    "storage": [
      {
        "astId": 14440,
        "contract": "src/game/routes/StratagemsGetters.sol:StratagemsGetters",
        "label": "_cells",
        "offset": 0,
        "slot": "0",
        "type": "t_mapping(t_uint256,t_struct(Cell)11527_storage)"
      },
      {
        "astId": 14444,
        "contract": "src/game/routes/StratagemsGetters.sol:StratagemsGetters",
        "label": "_owners",
        "offset": 0,
        "slot": "1",
        "type": "t_mapping(t_uint256,t_uint256)"
      },
      {
        "astId": 14447,
        "contract": "src/game/routes/StratagemsGetters.sol:StratagemsGetters",
        "label": "_discovered",
        "offset": 0,
        "slot": "2",
        "type": "t_struct(Discovered)11507_storage"
      },
      {
        "astId": 14451,
        "contract": "src/game/routes/StratagemsGetters.sol:StratagemsGetters",
        "label": "_tokensInReserve",
        "offset": 0,
        "slot": "3",
        "type": "t_mapping(t_address,t_uint256)"
      },
      {
        "astId": 14456,
        "contract": "src/game/routes/StratagemsGetters.sol:StratagemsGetters",
        "label": "_commitments",
        "offset": 0,
        "slot": "4",
        "type": "t_mapping(t_address,t_struct(Commitment)11532_storage)"
      },
      {
        "astId": 14462,
        "contract": "src/game/routes/StratagemsGetters.sol:StratagemsGetters",
        "label": "_operatorsForAll",
        "offset": 0,
        "slot": "5",
        "type": "t_mapping(t_address,t_mapping(t_address,t_bool))"
      },
      {
        "astId": 14466,
        "contract": "src/game/routes/StratagemsGetters.sol:StratagemsGetters",
        "label": "_operators",
        "offset": 0,
        "slot": "6",
        "type": "t_mapping(t_uint256,t_address)"
      }
    ],
    "types": {
      "t_address": {
        "encoding": "inplace",
        "label": "address",
        "numberOfBytes": "20"
      },
      "t_bool": {
        "encoding": "inplace",
        "label": "bool",
        "numberOfBytes": "1"
      },
      "t_bytes24": {
        "encoding": "inplace",
        "label": "bytes24",
        "numberOfBytes": "24"
      },
      "t_enum(Color)11433": {
        "encoding": "inplace",
        "label": "enum UsingStratagemsTypes.Color",
        "numberOfBytes": "1"
      },
      "t_int8": {
        "encoding": "inplace",
        "label": "int8",
        "numberOfBytes": "1"
      },
      "t_mapping(t_address,t_bool)": {
        "encoding": "mapping",
        "key": "t_address",
        "label": "mapping(address => bool)",
        "numberOfBytes": "32",
        "value": "t_bool"
      },
      "t_mapping(t_address,t_mapping(t_address,t_bool))": {
        "encoding": "mapping",
        "key": "t_address",
        "label": "mapping(address => mapping(address => bool))",
        "numberOfBytes": "32",
        "value": "t_mapping(t_address,t_bool)"
      },
      "t_mapping(t_address,t_struct(Commitment)11532_storage)": {
        "encoding": "mapping",
        "key": "t_address",
        "label": "mapping(address => struct UsingStratagemsTypes.Commitment)",
        "numberOfBytes": "32",
        "value": "t_struct(Commitment)11532_storage"
      },
      "t_mapping(t_address,t_uint256)": {
        "encoding": "mapping",
        "key": "t_address",
        "label": "mapping(address => uint256)",
        "numberOfBytes": "32",
        "value": "t_uint256"
      },
      "t_mapping(t_uint256,t_address)": {
        "encoding": "mapping",
        "key": "t_uint256",
        "label": "mapping(uint256 => address)",
        "numberOfBytes": "32",
        "value": "t_address"
      },
      "t_mapping(t_uint256,t_struct(Cell)11527_storage)": {
        "encoding": "mapping",
        "key": "t_uint256",
        "label": "mapping(uint256 => struct UsingStratagemsTypes.Cell)",
        "numberOfBytes": "32",
        "value": "t_struct(Cell)11527_storage"
      },
      "t_mapping(t_uint256,t_uint256)": {
        "encoding": "mapping",
        "key": "t_uint256",
        "label": "mapping(uint256 => uint256)",
        "numberOfBytes": "32",
        "value": "t_uint256"
      },
      "t_struct(Cell)11527_storage": {
        "encoding": "inplace",
        "label": "struct UsingStratagemsTypes.Cell",
        "members": [
          {
            "astId": 11509,
            "contract": "src/game/routes/StratagemsGetters.sol:StratagemsGetters",
            "label": "lastEpochUpdate",
            "offset": 0,
            "slot": "0",
            "type": "t_uint24"
          },
          {
            "astId": 11511,
            "contract": "src/game/routes/StratagemsGetters.sol:StratagemsGetters",
            "label": "epochWhenTokenIsAdded",
            "offset": 3,
            "slot": "0",
            "type": "t_uint24"
          },
          {
            "astId": 11513,
            "contract": "src/game/routes/StratagemsGetters.sol:StratagemsGetters",
            "label": "producingEpochs",
            "offset": 6,
            "slot": "0",
            "type": "t_uint24"
          },
          {
            "astId": 11516,
            "contract": "src/game/routes/StratagemsGetters.sol:StratagemsGetters",
            "label": "color",
            "offset": 9,
            "slot": "0",
            "type": "t_enum(Color)11433"
          },
          {
            "astId": 11518,
            "contract": "src/game/routes/StratagemsGetters.sol:StratagemsGetters",
            "label": "life",
            "offset": 10,
            "slot": "0",
            "type": "t_uint8"
          },
          {
            "astId": 11520,
            "contract": "src/game/routes/StratagemsGetters.sol:StratagemsGetters",
            "label": "delta",
            "offset": 11,
            "slot": "0",
            "type": "t_int8"
          },
          {
            "astId": 11522,
            "contract": "src/game/routes/StratagemsGetters.sol:StratagemsGetters",
            "label": "enemyMap",
            "offset": 12,
            "slot": "0",
            "type": "t_uint8"
          },
          {
            "astId": 11524,
            "contract": "src/game/routes/StratagemsGetters.sol:StratagemsGetters",
            "label": "distribution",
            "offset": 13,
            "slot": "0",
            "type": "t_uint8"
          },
          {
            "astId": 11526,
            "contract": "src/game/routes/StratagemsGetters.sol:StratagemsGetters",
            "label": "stake",
            "offset": 14,
            "slot": "0",
            "type": "t_uint8"
          }
        ],
        "numberOfBytes": "32"
      },
      "t_struct(Commitment)11532_storage": {
        "encoding": "inplace",
        "label": "struct UsingStratagemsTypes.Commitment",
        "members": [
          {
            "astId": 11529,
            "contract": "src/game/routes/StratagemsGetters.sol:StratagemsGetters",
            "label": "hash",
            "offset": 0,
            "slot": "0",
            "type": "t_bytes24"
          },
          {
            "astId": 11531,
            "contract": "src/game/routes/StratagemsGetters.sol:StratagemsGetters",
            "label": "epoch",
            "offset": 24,
            "slot": "0",
            "type": "t_uint24"
          }
        ],
        "numberOfBytes": "32"
      },
      "t_struct(Discovered)11507_storage": {
        "encoding": "inplace",
        "label": "struct UsingStratagemsTypes.Discovered",
        "members": [
          {
            "astId": 11500,
            "contract": "src/game/routes/StratagemsGetters.sol:StratagemsGetters",
            "label": "minX",
            "offset": 0,
            "slot": "0",
            "type": "t_uint32"
          },
          {
            "astId": 11502,
            "contract": "src/game/routes/StratagemsGetters.sol:StratagemsGetters",
            "label": "maxX",
            "offset": 4,
            "slot": "0",
            "type": "t_uint32"
          },
          {
            "astId": 11504,
            "contract": "src/game/routes/StratagemsGetters.sol:StratagemsGetters",
            "label": "minY",
            "offset": 8,
            "slot": "0",
            "type": "t_uint32"
          },
          {
            "astId": 11506,
            "contract": "src/game/routes/StratagemsGetters.sol:StratagemsGetters",
            "label": "maxY",
            "offset": 12,
            "slot": "0",
            "type": "t_uint32"
          }
        ],
        "numberOfBytes": "32"
      },
      "t_uint24": {
        "encoding": "inplace",
        "label": "uint24",
        "numberOfBytes": "3"
      },
      "t_uint256": {
        "encoding": "inplace",
        "label": "uint256",
        "numberOfBytes": "32"
      },
      "t_uint32": {
        "encoding": "inplace",
        "label": "uint32",
        "numberOfBytes": "4"
      },
      "t_uint8": {
        "encoding": "inplace",
        "label": "uint8",
        "numberOfBytes": "1"
      }
    }
  },
  "userdoc": {
    "errors": {
      "CanStillReveal()": [
        {
          "notice": "Player have to reveal if they can Stratagems will prevent them from acknowledging missed reveal if there is still time to reveal."
        }
      ],
      "CommitmentHashNotMatching()": [
        {
          "notice": "Player have to reveal their commitment using the exact same move values  If they provide different value, the commitment hash will differ and Stratagems will reject their reveal."
        }
      ],
      "GameNotStarted()": [
        {
          "notice": "Game has not started yet, can't perform any action"
        }
      ],
      "ImpossibleConfiguration()": [
        {
          "notice": "The cell configuration is invalid This can happen win debug mode where admin can setup cell bypassing moves rules For example when setting up neighborood configuration that would require a cell to have negative life"
        }
      ],
      "InCommitmentPhase()": [
        {
          "notice": "When in Commit phase, player can make new commitment but they cannot reveal their move yet."
        }
      ],
      "InRevealPhase()": [
        {
          "notice": "When in Reveal phase, it is not possible to commit new moves or cancel previous commitment  During Reveal phase, players have to reveal their commitment, if not already done."
        }
      ],
      "InvalidEpoch()": [
        {
          "notice": "Player can only reveal their move in the same epoch they commited.abi  If a player reveal later it can only do to minimize the reserve burn cost by calling : `acknowledgeMissedReveal`"
        }
      ],
      "InvalidFurtherMoves()": [
        {
          "notice": "Player can make arbitrary number of moves per epoch. To do so they group moves into (MAX_NUM_MOVES_PER_HASH = 32) moves  This result in a recursive series of hash that they can then submit in turn while revealing.  The limit  (MAX_NUM_MOVES_PER_HASH = 32) ensure a reveal batch fits in a block."
        }
      ],
      "NothingToReveal()": [
        {
          "notice": "Player can only reveal moves they commited."
        }
      ],
      "PreviousCommitmentNotRevealed()": [
        {
          "notice": "Previous commitment need to be revealed before making a new one. Even if the corresponding reveal phase has passed.\\  It is also not possible to withdraw any amount from reserve until the commitment is revealed.\\If player lost the information to reveal, it can acknowledge failure which will burn all its reserve.\\"
        }
      ],
      "ReserveTooLow(uint256,uint256)": [
        {
          "notice": "to make a commitment you always need at least one `config.numTokensPerGems` amount in reserve  Player also need one `config.numTokensPerGems`  per moves during the Reveal phase."
        }
      ]
    },
    "events": {
      "CommitmentCancelled(address,uint24)": {
        "notice": "A player has cancelled its current commitment (before it reached the reveal phase)"
      },
      "CommitmentMade(address,uint24,bytes24)": {
        "notice": "A player has commited to make a move and reveal it on the reveal phase"
      },
      "CommitmentRevealed(address,uint24,bytes24,(uint64,uint8)[],bytes24,uint256)": {
        "notice": "Player has revealed its previous commitment"
      },
      "CommitmentVoid(address,uint24,uint256,bytes24)": {
        "notice": "A player has canceled a previous commitment by burning some tokens"
      },
      "MoveProcessed(uint64,address,uint8,uint8)": {
        "notice": "A move has been revealed."
      },
      "MultiPoke(uint24,uint64[])": {
        "notice": "poke multiple cells and update them if needed"
      },
      "ReserveDeposited(address,uint256,uint256)": {
        "notice": "Player has deposited token in the reserve, allowing it to use that much in game"
      },
      "ReserveWithdrawn(address,uint256,uint256)": {
        "notice": "Player have withdrawn token from the reserve"
      },
      "SinglePoke(uint24,uint64)": {
        "notice": "poke cell and update it if needed"
      }
    },
    "kind": "user",
    "methods": {
      "getCell(uint256)": {
        "notice": "return updated cell (based on current epoch)"
      },
      "getCells(uint256[])": {
        "notice": "return the list of updated cells (based on current epoch) whose ids is given"
      },
      "getCommitment(address)": {
        "notice": "The commitment to be revealed. zeroed if no commitment need to be made."
      },
      "getConfig()": {
        "notice": "return the config used to initialise the Game"
      },
      "getTokensInReserve(address)": {
        "notice": "the number of token in reserve per account  This is used to slash player who do not reveal their moves  The amount can be greater than the number of token required for the next move  This allow player to potentially hide their intention."
      }
    },
    "version": 1
  },
  "argsData": "0x000000000000000000000000bf0dfd007862a0417326f8040a36f5ca44cb6453000000000000000000000000deaddeaddeaddeaddeaddeaddeaddeaddeaddead000000000000000000000000000000000000000000000000000000000000000000000000000000000000000000000000000000000000000000000000000143700000000000000000000000000000000000000000000000000000000000000e1000000000000000000000000000000000000000000000000000000000000000070000000000000000000000000000000000000000000000000de0b6b3a76400000000000000000000000000000000000000000000000000000000000000000000000000000000000000000000be2f7c303b53f16f447fd82bf549e65185bf3477",
  "transaction": {
    "hash": "0x64f21d016b320f8d9ec5f1be49c09fddc39d74e3bb58da2413837a9e8837ba94",
    "origin": "0xbe19b59e8c588d68f475a407c7ba5fe813aeb792"
  }
}