{
  "address": "0xc3231a43bdf12f491027198e2bfe2cd8180f2bf0",
  "abi": [
    {
      "inputs": [
        {
          "components": [
            {
              "internalType": "contract IERC20WithIERC2612",
              "name": "tokens",
              "type": "address"
            },
            {
              "internalType": "address payable",
              "name": "burnAddress",
              "type": "address"
            },
            {
              "internalType": "uint256",
              "name": "startTime",
              "type": "uint256"
            },
            {
              "internalType": "uint256",
              "name": "commitPhaseDuration",
              "type": "uint256"
            },
            {
              "internalType": "uint256",
              "name": "revealPhaseDuration",
              "type": "uint256"
            },
            {
              "internalType": "uint8",
              "name": "maxLife",
              "type": "uint8"
            },
            {
              "internalType": "uint256",
              "name": "numTokensPerGems",
              "type": "uint256"
            }
          ],
          "internalType": "struct UsingStratagemsTypes.Config",
          "name": "config",
          "type": "tuple"
        }
      ],
      "stateMutability": "nonpayable",
      "type": "constructor"
    },
    {
      "inputs": [],
      "name": "CanStillReveal",
      "type": "error"
    },
    {
      "inputs": [],
      "name": "CommitmentHashNotMatching",
      "type": "error"
    },
    {
      "inputs": [],
      "name": "GameNotStarted",
      "type": "error"
    },
    {
      "inputs": [],
      "name": "InCommitmentPhase",
      "type": "error"
    },
    {
      "inputs": [],
      "name": "InRevealPhase",
      "type": "error"
    },
    {
      "inputs": [],
      "name": "InvalidCellOverwrite",
      "type": "error"
    },
    {
      "inputs": [],
      "name": "InvalidEpoch",
      "type": "error"
    },
    {
      "inputs": [],
      "name": "InvalidFurtherMoves",
      "type": "error"
    },
    {
      "inputs": [
        {
          "internalType": "uint256",
          "name": "life",
          "type": "uint256"
        },
        {
          "internalType": "int32",
          "name": "x",
          "type": "int32"
        },
        {
          "internalType": "int32",
          "name": "y",
          "type": "int32"
        }
      ],
      "name": "InvalidLifeConfiguration",
      "type": "error"
    },
    {
      "inputs": [],
      "name": "NotAuthorized",
      "type": "error"
    },
    {
      "inputs": [],
      "name": "NothingToReveal",
      "type": "error"
    },
    {
      "inputs": [],
      "name": "PreviousCommitmentNotRevealed",
      "type": "error"
    },
    {
      "inputs": [
        {
          "internalType": "uint256",
          "name": "inReserve",
          "type": "uint256"
        },
        {
          "internalType": "uint256",
          "name": "expected",
          "type": "uint256"
        }
      ],
      "name": "ReserveTooLow",
      "type": "error"
    },
    {
      "anonymous": false,
      "inputs": [
        {
          "indexed": true,
          "internalType": "address",
          "name": "player",
          "type": "address"
        },
        {
          "indexed": true,
          "internalType": "uint24",
          "name": "epoch",
          "type": "uint24"
        }
      ],
      "name": "CommitmentCancelled",
      "type": "event"
    },
    {
      "anonymous": false,
      "inputs": [
        {
          "indexed": true,
          "internalType": "address",
          "name": "player",
          "type": "address"
        },
        {
          "indexed": true,
          "internalType": "uint24",
          "name": "epoch",
          "type": "uint24"
        },
        {
          "indexed": false,
          "internalType": "bytes24",
          "name": "commitmentHash",
          "type": "bytes24"
        }
      ],
      "name": "CommitmentMade",
      "type": "event"
    },
    {
      "anonymous": false,
      "inputs": [
        {
          "indexed": true,
          "internalType": "address",
          "name": "player",
          "type": "address"
        },
        {
          "indexed": true,
          "internalType": "uint24",
          "name": "epoch",
          "type": "uint24"
        },
        {
          "indexed": true,
          "internalType": "bytes24",
          "name": "commitmentHash",
          "type": "bytes24"
        },
        {
          "components": [
            {
              "internalType": "uint64",
              "name": "position",
              "type": "uint64"
            },
            {
              "internalType": "enum UsingStratagemsTypes.Color",
              "name": "color",
              "type": "uint8"
            }
          ],
          "indexed": false,
          "internalType": "struct UsingStratagemsTypes.Move[]",
          "name": "moves",
          "type": "tuple[]"
        },
        {
          "indexed": false,
          "internalType": "bytes24",
          "name": "furtherMoves",
          "type": "bytes24"
        },
        {
          "indexed": false,
          "internalType": "uint256",
          "name": "newReserveAmount",
          "type": "uint256"
        }
      ],
      "name": "CommitmentRevealed",
      "type": "event"
    },
    {
      "anonymous": false,
      "inputs": [
        {
          "indexed": true,
          "internalType": "address",
          "name": "player",
          "type": "address"
        },
        {
          "indexed": true,
          "internalType": "uint24",
          "name": "epoch",
          "type": "uint24"
        },
        {
          "indexed": false,
          "internalType": "uint256",
          "name": "amountBurnt",
          "type": "uint256"
        },
        {
          "indexed": false,
          "internalType": "bytes24",
          "name": "furtherMoves",
          "type": "bytes24"
        }
      ],
      "name": "CommitmentVoid",
      "type": "event"
    },
    {
      "anonymous": false,
      "inputs": [
        {
          "components": [
            {
              "internalType": "uint64",
              "name": "position",
              "type": "uint64"
            },
            {
              "internalType": "address",
              "name": "owner",
              "type": "address"
            },
            {
              "internalType": "uint24",
              "name": "lastEpochUpdate",
              "type": "uint24"
            },
            {
              "internalType": "uint24",
              "name": "epochWhenTokenIsAdded",
              "type": "uint24"
            },
            {
              "internalType": "enum UsingStratagemsTypes.Color",
              "name": "color",
              "type": "uint8"
            },
            {
              "internalType": "uint8",
              "name": "life",
              "type": "uint8"
            },
            {
              "internalType": "int8",
              "name": "delta",
              "type": "int8"
            },
            {
              "internalType": "uint8",
              "name": "enemyMap",
              "type": "uint8"
            }
          ],
          "indexed": false,
          "internalType": "struct IStratagemsDebug.DebugCell[]",
          "name": "cells",
          "type": "tuple[]"
        }
      ],
      "name": "ForceCells",
      "type": "event"
    },
    {
      "anonymous": false,
      "inputs": [
        {
          "indexed": false,
          "internalType": "uint24",
          "name": "epoch",
          "type": "uint24"
        },
        {
          "components": [
            {
              "internalType": "uint64",
              "name": "position",
              "type": "uint64"
            },
            {
              "internalType": "address",
              "name": "owner",
              "type": "address"
            },
            {
              "internalType": "enum UsingStratagemsTypes.Color",
              "name": "color",
              "type": "uint8"
            },
            {
              "internalType": "uint8",
              "name": "life",
              "type": "uint8"
            }
          ],
          "indexed": false,
          "internalType": "struct IStratagemsDebug.SimpleCell[]",
          "name": "cells",
          "type": "tuple[]"
        }
      ],
      "name": "ForceSimpleCells",
      "type": "event"
    },
    {
      "anonymous": false,
      "inputs": [
        {
          "indexed": true,
          "internalType": "uint64",
          "name": "position",
          "type": "uint64"
        },
        {
          "indexed": true,
          "internalType": "address",
          "name": "player",
          "type": "address"
        },
        {
          "indexed": false,
          "internalType": "enum UsingStratagemsTypes.Color",
          "name": "oldColor",
          "type": "uint8"
        },
        {
          "indexed": false,
          "internalType": "enum UsingStratagemsTypes.Color",
          "name": "newColor",
          "type": "uint8"
        }
      ],
      "name": "MoveProcessed",
      "type": "event"
    },
    {
      "anonymous": false,
      "inputs": [
        {
          "indexed": true,
          "internalType": "address",
          "name": "player",
          "type": "address"
        },
        {
          "indexed": false,
          "internalType": "uint256",
          "name": "amountDeposited",
          "type": "uint256"
        },
        {
          "indexed": false,
          "internalType": "uint256",
          "name": "newAmount",
          "type": "uint256"
        }
      ],
      "name": "ReserveDeposited",
      "type": "event"
    },
    {
      "anonymous": false,
      "inputs": [
        {
          "indexed": true,
          "internalType": "address",
          "name": "player",
          "type": "address"
        },
        {
          "indexed": false,
          "internalType": "uint256",
          "name": "amountWithdrawn",
          "type": "uint256"
        },
        {
          "indexed": false,
          "internalType": "uint256",
          "name": "newAmount",
          "type": "uint256"
        }
      ],
      "name": "ReserveWithdrawn",
      "type": "event"
    },
    {
      "anonymous": false,
      "inputs": [
        {
          "indexed": false,
          "internalType": "uint256",
          "name": "newTime",
          "type": "uint256"
        },
        {
          "indexed": false,
          "internalType": "uint256",
          "name": "delta",
          "type": "uint256"
        }
      ],
      "name": "TimeIncreased",
      "type": "event"
    },
    {
      "inputs": [
        {
          "components": [
            {
              "internalType": "uint64",
              "name": "position",
              "type": "uint64"
            },
            {
              "internalType": "address",
              "name": "owner",
              "type": "address"
            },
            {
              "internalType": "uint24",
              "name": "lastEpochUpdate",
              "type": "uint24"
            },
            {
              "internalType": "uint24",
              "name": "epochWhenTokenIsAdded",
              "type": "uint24"
            },
            {
              "internalType": "enum UsingStratagemsTypes.Color",
              "name": "color",
              "type": "uint8"
            },
            {
              "internalType": "uint8",
              "name": "life",
              "type": "uint8"
            },
            {
              "internalType": "int8",
              "name": "delta",
              "type": "int8"
            },
            {
              "internalType": "uint8",
              "name": "enemyMap",
              "type": "uint8"
            }
          ],
          "internalType": "struct IStratagemsDebug.DebugCell[]",
          "name": "cells",
          "type": "tuple[]"
        }
      ],
      "name": "forceCells",
      "outputs": [],
      "stateMutability": "nonpayable",
      "type": "function"
    },
    {
      "inputs": [
        {
          "internalType": "address",
          "name": "player",
          "type": "address"
        },
        {
          "components": [
            {
              "internalType": "uint64",
              "name": "position",
              "type": "uint64"
            },
            {
              "internalType": "enum UsingStratagemsTypes.Color",
              "name": "color",
              "type": "uint8"
            }
          ],
          "internalType": "struct UsingStratagemsTypes.Move[]",
          "name": "moves",
          "type": "tuple[]"
        }
      ],
      "name": "forceMoves",
      "outputs": [],
      "stateMutability": "nonpayable",
      "type": "function"
    },
    {
      "inputs": [
        {
          "components": [
            {
              "internalType": "uint64",
              "name": "position",
              "type": "uint64"
            },
            {
              "internalType": "address",
              "name": "owner",
              "type": "address"
            },
            {
              "internalType": "enum UsingStratagemsTypes.Color",
              "name": "color",
              "type": "uint8"
            },
            {
              "internalType": "uint8",
              "name": "life",
              "type": "uint8"
            }
          ],
          "internalType": "struct IStratagemsDebug.SimpleCell[]",
          "name": "cells",
          "type": "tuple[]"
        }
      ],
      "name": "forceSimpleCells",
      "outputs": [],
      "stateMutability": "nonpayable",
      "type": "function"
    },
    {
      "inputs": [
        {
          "internalType": "uint256",
          "name": "id",
          "type": "uint256"
        }
      ],
      "name": "getRawCell",
      "outputs": [
        {
          "components": [
            {
              "internalType": "uint24",
              "name": "lastEpochUpdate",
              "type": "uint24"
            },
            {
              "internalType": "uint24",
              "name": "epochWhenTokenIsAdded",
              "type": "uint24"
            },
            {
              "internalType": "enum UsingStratagemsTypes.Color",
              "name": "color",
              "type": "uint8"
            },
            {
              "internalType": "uint8",
              "name": "life",
              "type": "uint8"
            },
            {
              "internalType": "int8",
              "name": "delta",
              "type": "int8"
            },
            {
              "internalType": "uint8",
              "name": "enemyMap",
              "type": "uint8"
            },
            {
              "internalType": "uint8",
              "name": "distribution",
              "type": "uint8"
            }
          ],
          "internalType": "struct UsingStratagemsTypes.Cell",
          "name": "",
          "type": "tuple"
        }
      ],
      "stateMutability": "view",
      "type": "function"
    },
    {
      "inputs": [
        {
          "internalType": "uint256",
          "name": "delta",
          "type": "uint256"
        }
      ],
      "name": "increaseTime",
      "outputs": [],
      "stateMutability": "nonpayable",
      "type": "function"
    },
    {
      "inputs": [],
      "name": "timestamp",
      "outputs": [
        {
          "internalType": "uint256",
          "name": "",
          "type": "uint256"
        }
      ],
      "stateMutability": "view",
      "type": "function"
    }
  ],
  "contractName": "StratagemsDebug",
  "sourceName": "src/game/debug/StratagemsDebug.sol",
  "bytecode": "0x6101606040523480156200001257600080fd5b50604051620056f3380380620056f38339810160408190526200003591620000b3565b80516001600160a01b039081166080908152602083015190911661014052604082015160a0908152606083015160c09081529183015160e05282015160ff16610100520151610120526200015f565b80516001600160a01b03811681146200009c57600080fd5b919050565b805160ff811681146200009c57600080fd5b600060e08284031215620000c657600080fd5b60405160e081016001600160401b0381118282101715620000f757634e487b7160e01b600052604160045260246000fd5b604052620001058362000084565b8152620001156020840162000084565b60208201526040830151604082015260608301516060820152608083015160808201526200014660a08401620000a1565b60a082015260c083015160c08201528091505092915050565b60805160a05160c05160e0516101005161012051610140516154ad6200024660003960006116f20152600081816101af015281816106c50152818161249d015281816124f60152818161255501528181612694015281816126de01528181613a3b0152613b07015260008181610b520152818161241501528181613ca401528181613cdc01528181613d4a0152613d78015260006111ee01526000818161120f01526112e201526000818161124301526112a2015260008181610216015281816106eb015281816114b80152818161162d0152818161172201526117ef01526154ad6000f3fe608060405234801561001057600080fd5b50600436106100725760003560e01c8063cd315b0811610050578063cd315b08146100ba578063d703f50a146100da578063df971134146100ed57600080fd5b80632779347e146100775780633c9a2a1a1461008c578063b80777ea1461009f575b600080fd5b61008a610085366004614634565b610100565b005b61008a61009a36600461470f565b6102e8565b6100a7610442565b6040519081526020015b60405180910390f35b6100cd6100c836600461470f565b61047b565b6040516100b19190614792565b61008a6100e836600461480f565b610578565b61008a6100fb366004614909565b610ea2565b7fb53127684a568b3173ae13b9f8a6016e243e63b6e8ee1178d6a717850b5d61035473ffffffffffffffffffffffffffffffffffffffff163373ffffffffffffffffffffffffffffffffffffffff1614610186576040517fea8e4eb500000000000000000000000000000000000000000000000000000000815260040160405180910390fd5b6000806101916111e5565b9150915080156101a957816101a581614a63565b9250505b600083517f00000000000000000000000000000000000000000000000000000000000000006101d89190614aa0565b6040517f23b872dd000000000000000000000000000000000000000000000000000000008152336004820152306024820152604481018290529091507f000000000000000000000000000000000000000000000000000000000000000073ffffffffffffffffffffffffffffffffffffffff16906323b872dd906064016020604051808303816000875af1158015610274573d6000803e3d6000fd5b505050506040513d601f19601f820116820180604052508101906102989190614ab7565b5073ffffffffffffffffffffffffffffffffffffffff8516600090815260026020526040812080548392906102ce908490614ae0565b909155506102e0905085848633611330565b505050505050565b7fb53127684a568b3173ae13b9f8a6016e243e63b6e8ee1178d6a717850b5d61035473ffffffffffffffffffffffffffffffffffffffff163373ffffffffffffffffffffffffffffffffffffffff16146103a3576040517f08c379a000000000000000000000000000000000000000000000000000000000815260206004820152600e60248201527f4e4f545f415554484f52495a454400000000000000000000000000000000000060448201526064015b60405180910390fd5b6000816103ce7f0112c413de07a110ce0a9ace0c01e41b5b59462770325b042f0dc72c337f55f25490565b6103d89190614ae0565b9050807f0112c413de07a110ce0a9ace0c01e41b5b59462770325b042f0dc72c337f55f2557f36e7cd7cbe0c64c4f819149d7127212cc2ebb56e948ae958ef18f6d1535871c9610426610442565b6040805191825260208201859052015b60405180910390a15050565b600061046c7f0112c413de07a110ce0a9ace0c01e41b5b59462770325b042f0dc72c337f55f25490565b6104769042614ae0565b905090565b6040805160e081018252600080825260208201819052918101829052606081018290526080810182905260a0810182905260c081019190915260008281526020818152604091829020825160e081018452815462ffffff8082168352630100000082041693820193909352929091908301906601000000000000900460ff16600681111561050b5761050b614728565b600681111561051c5761051c614728565b8152905460ff67010000000000000082048116602084015268010000000000000000820460000b604084015269010000000000000000008204811660608401526a01000000000000000000009091041660809091015292915050565b7fb53127684a568b3173ae13b9f8a6016e243e63b6e8ee1178d6a717850b5d61035473ffffffffffffffffffffffffffffffffffffffff163373ffffffffffffffffffffffffffffffffffffffff16146105fe576040517fea8e4eb500000000000000000000000000000000000000000000000000000000815260040160405180910390fd5b60006106086111e5565b50905060005b82518110156109d357600083828151811061062b5761062b614af3565b602090810291909101810151805167ffffffffffffffff1660009081529182905260409091205490915062ffffff1615610691576040517ff9e4d84a00000000000000000000000000000000000000000000000000000000815260040160405180910390fd5b6040517f23b872dd0000000000000000000000000000000000000000000000000000000081523360048201523060248201527f000000000000000000000000000000000000000000000000000000000000000060448201527f000000000000000000000000000000000000000000000000000000000000000073ffffffffffffffffffffffffffffffffffffffff16906323b872dd906064016020604051808303816000875af1158015610749573d6000803e3d6000fd5b505050506040513d601f19601f8201168201806040525081019061076d9190614ab7565b50600080610784836000015184604001518761186a565b915091506040518060e001604052808662ffffff1681526020018662ffffff168152602001846040015160068111156107bf576107bf614728565b815260608086015160ff908116602080850191909152600087810b604080870191909152928716938501939093526080909301829052865167ffffffffffffffff16825281835290819020835181549385015162ffffff9081166301000000027fffffffffffffffffffffffffffffffffffffffffffffffffffff00000000000090951691161792909217808355908301519082907fffffffffffffffffffffffffffffffffffffffffffffffffff00ffffffffffff16660100000000000083600681111561089057610890614728565b021790555060608201518154608084015160a085015160c0909501517fffffffffffffffffffffffffffffffffffffffffffffff0000ffffffffffffff90921667010000000000000060ff948516027fffffffffffffffffffffffffffffffffffffffffffffff00ffffffffffffffff16176801000000000000000091841691909102177fffffffffffffffffffffffffffffffffffffffffff0000ffffffffffffffffff166901000000000000000000948316949094027fffffffffffffffffffffffffffffffffffffffffff00ffffffffffffffffffff16939093176a010000000000000000000091909316029190911790555050602081810151915167ffffffffffffffff16600090815260019091526040902073ffffffffffffffffffffffffffffffffffffffff9091169055806109cb81614b22565b91505061060e565b5060005b8251811015610e705760008382815181106109f4576109f4614af3565b6020908102919091018101515167ffffffffffffffff1660008181528083526040808220815160e081018352815462ffffff80821683526301000000820416968201969096529395509193908301906601000000000000900460ff166006811115610a6157610a61614728565b6006811115610a7257610a72614728565b8152905460ff670100000000000000820481166020840152680100000000000000008204600090810b604085015269010000000000000000008304821660608501526a0100000000000000000000909204166080928301529082015191925090810b8103610b00577fffffffffffffffffffffffffffffffffffffffffffffffffffffffffffffffff610b06565b81608001515b905060008160000b128015610b20575060a082015160ff16155b15610b29575060005b60008160000b836060015160ff16610b419190614b5a565b90506000811215610b50575060005b7f000000000000000000000000000000000000000000000000000000000000000060ff16811115610bd1576040517fa21143880000000000000000000000000000000000000000000000000000000081526004810182905263ffffffff8516600381810b6024840152602087901c9081900b6044840152909160640161039a565b60ff811660608401526040805160e0810190915260009080610bf460018a614b81565b62ffffff168152602001610c0960018a614b81565b62ffffff16815260200185604001516006811115610c2957610c29614728565b815260608087015160ff9081166020808501919091526080808a0151600090810b60408088019190915260a08c01519094169486019490945290930182905288825281835290819020835181549385015162ffffff9081166301000000027fffffffffffffffffffffffffffffffffffffffffffffffffffff000000000000909516911617929092178083559083015192935083929082907fffffffffffffffffffffffffffffffffffffffffffffffffff00ffffffffffff166601000000000000836006811115610cfd57610cfd614728565b021790555060608201518154608084015160a085015160c0909501517fffffffffffffffffffffffffffffffffffffffffffffff0000ffffffffffffff90921667010000000000000060ff948516027fffffffffffffffffffffffffffffffffffffffffffffff00ffffffffffffffff16176801000000000000000091841691909102177fffffffffffffffffffffffffffffffffffffffffff0000ffffffffffffffffff166901000000000000000000948316949094027fffffffffffffffffffffffffffffffffffffffffff00ffffffffffffffffffff16939093176a01000000000000000000009190931602919091179055610e586000610e0562ffffff8a16611de0565b604051602001610e159190614bc1565b604080517fffffffffffffffffffffffffffffffffffffffffffffffffffffffffffffffe081840301815291815260008981526001602052205488908590611e9e565b50505050508080610e6890614b22565b9150506109d7565b507f8e1d006b2d362a7e606e2a6f90b3faefd938725a74cfe85918c68a8d67d625ec8183604051610436929190614c06565b7fb53127684a568b3173ae13b9f8a6016e243e63b6e8ee1178d6a717850b5d61035473ffffffffffffffffffffffffffffffffffffffff163373ffffffffffffffffffffffffffffffffffffffff1614610f28576040517fea8e4eb500000000000000000000000000000000000000000000000000000000815260040160405180910390fd5b60005b81518110156111aa576000828281518110610f4857610f48614af3565b602002602001015190506040518060e00160405280826040015162ffffff168152602001826060015162ffffff16815260200182608001516006811115610f9157610f91614728565b815260a083015160ff90811660208084019190915260c0850151600090810b60408086019190915260e087015190931660608501526080909301839052845167ffffffffffffffff16835282815291819020835181549385015162ffffff9081166301000000027fffffffffffffffffffffffffffffffffffffffffffffffffffff00000000000090951691161792909217808355908301519082907fffffffffffffffffffffffffffffffffffffffffffffffffff00ffffffffffff16660100000000000083600681111561106957611069614728565b021790555060608201518154608084015160a085015160c0909501517fffffffffffffffffffffffffffffffffffffffffffffff0000ffffffffffffff90921667010000000000000060ff948516027fffffffffffffffffffffffffffffffffffffffffffffff00ffffffffffffffff16176801000000000000000091841691909102177fffffffffffffffffffffffffffffffffffffffffff0000ffffffffffffffffff166901000000000000000000948316949094027fffffffffffffffffffffffffffffffffffffffffff00ffffffffffffffffffff16939093176a01000000000000000000009190931602919091179055602081810151915167ffffffffffffffff16600090815260019091526040902073ffffffffffffffffffffffffffffffffffffffff9091169055806111a281614b22565b915050610f2b565b507f3c0a1b33060cb27164a8675b8ef0947a312efd921ef674321eb29f0dcbf63876816040516111da9190614ca3565b60405180910390a150565b600080806112337f00000000000000000000000000000000000000000000000000000000000000007f0000000000000000000000000000000000000000000000000000000000000000614ae0565b9050600061123f6122e9565b90507f000000000000000000000000000000000000000000000000000000000000000081101561129b576040517f3a5f7b5700000000000000000000000000000000000000000000000000000000815260040160405180910390fd5b60006112c77f000000000000000000000000000000000000000000000000000000000000000083614d7a565b90506112d38382614dbc565b6112de906002614ae0565b94507f00000000000000000000000000000000000000000000000000000000000000008361130d600288614b81565b62ffffff1661131c9190614aa0565b6113269083614d7a565b1093505050509091565b60008060405180604001604052808551600561134c9190614aa0565b67ffffffffffffffff811115611364576113646144fb565b6040519080825280602002602001820160405280156113a957816020015b60408051808201909152600080825260208201528152602001906001900390816113825790505b508152602001600081525090506113da60405180606001604052806000815260200160008152602001600081525090565b60005b8551811015611471576000806000611410868c8c8c888151811061140357611403614af3565b602002602001015161231e565b92509250925082856000018181516114289190614ae0565b90525060208501805183919061143f908390614ae0565b905250604085018051829190611456908390614ae0565b9052508392506114699150829050614b22565b9150506113dd565b506114b360006040518060400160405280600c81526020017f7265736f6c76654d6f7665730000000000000000000000000000000000000000815250846129a1565b6114dd7f000000000000000000000000000000000000000000000000000000000000000083612bbd565b73ffffffffffffffffffffffffffffffffffffffff871660009081526002602090815260409091205490820151825191945061151891614ae0565b83101561156c5760208101518151849161153191614ae0565b6040517f78fe52a60000000000000000000000000000000000000000000000000000000081526004810192909252602482015260440161039a565b73ffffffffffffffffffffffffffffffffffffffff84166115d157602081015181516115989190614ae0565b6115a29084614d7a565b73ffffffffffffffffffffffffffffffffffffffff881660009081526002602052604090208190559250611793565b80511561169e5780516040517f23b872dd00000000000000000000000000000000000000000000000000000000815273ffffffffffffffffffffffffffffffffffffffff868116600483015230602483015260448201929092527f0000000000000000000000000000000000000000000000000000000000000000909116906323b872dd906064016020604051808303816000875af1158015611678573d6000803e3d6000fd5b505050506040513d601f19601f8201168201806040525081019061169c9190614ab7565b505b6020810151156117935760208101516040517f23b872dd00000000000000000000000000000000000000000000000000000000815273ffffffffffffffffffffffffffffffffffffffff86811660048301527f00000000000000000000000000000000000000000000000000000000000000008116602483015260448201929092527f0000000000000000000000000000000000000000000000000000000000000000909116906323b872dd906064016020604051808303816000875af115801561176d573d6000803e3d6000fd5b505050506040513d601f19601f820116820180604052508101906117919190614ab7565b505b6040810151156118605760408181015190517fa9059cbb00000000000000000000000000000000000000000000000000000000815273ffffffffffffffffffffffffffffffffffffffff898116600483015260248201929092527f00000000000000000000000000000000000000000000000000000000000000009091169063a9059cbb906044016020604051808303816000875af115801561183a573d6000803e3d6000fd5b505050506040513d601f19601f8201168201806040525081019061185e9190614ab7565b505b5050949350505050565b600080806118a367ffffffffffffffff8716827fffffffffffffffffffffffffffffffffffffffffffffffffffffffffffffffff612cc5565b67ffffffffffffffff8116600090815260208181526040808320815160e081018352815462ffffff808216835263010000008204169482019490945294955092939291908301906601000000000000900460ff16600681111561190857611908614728565b600681111561191957611919614728565b8152905460ff670100000000000000820481166020840152680100000000000000008204600090810b604085015269010000000000000000008304821660608501526a0100000000000000000000909204166080909201919091529091508160400151600681111561198d5761198d614728565b146119d45760006119a2878360400151612d15565b905060008160000b12156119b7578360011793505b80850194506119d18383846060015189600260008d612db2565b50505b5060009050611a0e67ffffffffffffffff87167fffffffffffffffffffffffffffffffffffffffffffffffffffffffffffffffff83612cc5565b67ffffffffffffffff8116600090815260208181526040808320815160e081018352815462ffffff808216835263010000008204169482019490945294955092939291908301906601000000000000900460ff166006811115611a7357611a73614728565b6006811115611a8457611a84614728565b8152905460ff670100000000000000820481166020840152680100000000000000008204600090810b604085015269010000000000000000008304821660608501526a01000000000000000000009092041660809092019190915290915081604001516006811115611af857611af8614728565b14611b3f576000611b0d878360400151612d15565b905060008160000b1215611b22578360021793505b8085019450611b3c8383846060015189600360008d612db2565b50505b5060009050611b5a67ffffffffffffffff8716826001612cc5565b67ffffffffffffffff8116600090815260208181526040808320815160e081018352815462ffffff808216835263010000008204169482019490945294955092939291908301906601000000000000900460ff166006811115611bbf57611bbf614728565b6006811115611bd057611bd0614728565b8152905460ff670100000000000000820481166020840152680100000000000000008204600090810b604085015269010000000000000000008304821660608501526a01000000000000000000009092041660809092019190915290915081604001516006811115611c4457611c44614728565b14611c8a576000611c59878360400151612d15565b905060008160000b1215611c6e578360041793505b8085019450611c8783838460600151896000808d612db2565b50505b5060009050611ca567ffffffffffffffff8716600183612cc5565b67ffffffffffffffff8116600090815260208181526040808320815160e081018352815462ffffff808216835263010000008204169482019490945294955092939291908301906601000000000000900460ff166006811115611d0a57611d0a614728565b6006811115611d1b57611d1b614728565b8152905460ff670100000000000000820481166020840152680100000000000000008204600090810b604085015269010000000000000000008304821660608501526a01000000000000000000009092041660809092019190915290915081604001516006811115611d8f57611d8f614728565b14611dd6576000611da4878360400151612d15565b905060008160000b1215611db9578360081793505b8085019450611dd38383846060015189600160008d612db2565b50505b5050935093915050565b60606000611ded8361327f565b600101905060008167ffffffffffffffff811115611e0d57611e0d6144fb565b6040519080825280601f01601f191660200182016040528015611e37576020820181803683370190505b5090508181016020015b7fffffffffffffffffffffffffffffffffffffffffffffffffffffffffffffffff017f3031323334353637383961626364656600000000000000000000000000000000600a86061a8153600a8504945084611e4157509392505050565b600060ff861615611f70578560ff16600114611f35578560ff16600214611efa576040518060400160405280600c81526020017f2020202020202020202020200000000000000000000000000000000000000000815250611f81565b6040518060400160405280600881526020017f2020202020202020000000000000000000000000000000000000000000000000815250611f81565b6040518060400160405280600481526020017f2020202000000000000000000000000000000000000000000000000000000000815250611f81565b604051806020016040528060008152505b9050611fc36040518060400160405280600481526020017f25732573000000000000000000000000000000000000000000000000000000008152508287613361565b6040805160608101909152603f80825263ffffffff86811692602088811c90921692611ff69261543990830139846133f4565b61204d6040518060400160405280600e81526020017f257363656c6c202825732c2573290000000000000000000000000000000000008152508461203c8560030b613489565b6120488560030b613489565b613517565b61206f6040518060600160405280603f8152602001615439603f9139846133f4565b6120b86040518060400160405280601981526020017f2573202d206c61737445706f63685570646174653a202025730000000000000081525084876000015162ffffff166135ac565b6121016040518060400160405280601f81526020017f2573202d2065706f63685768656e546f6b656e497341646465643a202025730081525084876020015162ffffff166135ac565b6121596040518060400160405280600f81526020017f2573202d20636f6c6f723a202025730000000000000000000000000000000000815250848760400151600681111561215157612151614728565b60ff166135ac565b6121a06040518060400160405280600e81526020017f2573202d206c6966653a2020257300000000000000000000000000000000000081525084876060015160ff166135ac565b6121e76040518060400160405280601681526020017f2573202d20646973747269627574696f6e3a2020257300000000000000000000815250848760c0015160ff166135ac565b6122276040518060400160405280600f81526020017f2573202d206f776e65723a202025730000000000000000000000000000000000815250848661363f565b6122766040518060400160405280600e81526020017f2573202d2064656c74613a20257300000000000000000000000000000000000081525084612271886080015160000b613489565b613361565b6122bd6040518060400160405280601281526020017f2573202d20656e656d794d61703a202025730000000000000000000000000000815250848760a0015160ff166135ac565b6122df6040518060600160405280603f8152602001615439603f9139846133f4565b5050505050505050565b7f112c413de07a110ce0a9ace0c01e41b5b59462770325b042f0dc72c337f55f2e546000906123188142614ae0565b91505090565b6000806000806123328560000151876136d2565b90506123a860006123478862ffffff16611de0565b6040516020016123579190614dd0565b604080517fffffffffffffffffffffffffffffffffffffffffffffffffffffffffffffffe0818403018152918152885167ffffffffffffffff81166000908152600160205291909120548590611e9e565b60c0810151606082015160ff161580156123c75750815162ffffff1615155b156123f6576123d98260a00151613830565b60048360a0015160ff16901b6123ef9190614e15565b6000835290505b60008660200151600681111561240e5761240e614728565b03612522577f000000000000000000000000000000000000000000000000000000000000000060ff16826060015160ff161415806124935750855167ffffffffffffffff1660009081526001602052604090205473ffffffffffffffffffffffffffffffffffffffff89169073ffffffffffffffffffffffffffffffffffffffff1614155b156124c9576000807f00000000000000000000000000000000000000000000000000000000000000009450945094505050612997565b61251d8960405180604001604052808b73ffffffffffffffffffffffffffffffffffffffff1681526020017f0000000000000000000000000000000000000000000000000000000000000000815250613862565b612581565b8662ffffff16826020015162ffffff160361258157606082015160ff16156125505760066020870152612581565b6000807f00000000000000000000000000000000000000000000000000000000000000009450945094505050612997565b6000806125958b898b8760400151876139b4565b915091508973ffffffffffffffffffffffffffffffffffffffff16886000015167ffffffffffffffff167f17b85ded3fb12432ee427abc34a3026e1fbbb8bc431e3dbe51bc81215655c25c86604001518b602001516040516125f8929190614e2e565b60405180910390a387602001518460400190600681111561261b5761261b614728565b9081600681111561262e5761262e614728565b905250600060c0850181905262ffffff8a1660208601528460400151600681111561265b5761265b614728565b036126ba576000606085018190528085526080850181905260a08501819052885167ffffffffffffffff168152600160205260408120557f00000000000000000000000000000000000000000000000000000000000000009450612786565b60ff811660a0850152600082900b60808501526001606085015262ffffff891684527f0000000000000000000000000000000000000000000000000000000000000000965060068460400151600681111561271757612717614728565b0361275257875167ffffffffffffffff16600090815260016020526040902073ffffffffffffffffffffffffffffffffffffffff9055612786565b875167ffffffffffffffff16600090815260016020526040902073ffffffffffffffffffffffffffffffffffffffff8b1690555b875167ffffffffffffffff1660009081526020818152604091829020865181549288015162ffffff9081166301000000027fffffffffffffffffffffffffffffffffffffffffffffffffffff0000000000009094169116179190911780825591860151869282907fffffffffffffffffffffffffffffffffffffffffffffffffff00ffffffffffff16660100000000000083600681111561282957612829614728565b021790555060608201518154608084015160a085015160c0909501517fffffffffffffffffffffffffffffffffffffffffffffff0000ffffffffffffff90921667010000000000000060ff948516027fffffffffffffffffffffffffffffffffffffffffffffff00ffffffffffffffff16176801000000000000000091841691909102177fffffffffffffffffffffffffffffffffffffffffff0000ffffffffffffffffff166901000000000000000000948316949094027fffffffffffffffffffffffffffffffffffffffffff00ffffffffffffffffffff16939093176a01000000000000000000009190931602919091179055612992600061293162ffffff8c16611de0565b6040516020016129419190614e49565b604080517fffffffffffffffffffffffffffffffffffffffffffffffffffffffffffffffe08184030181529181528b5167ffffffffffffffff81166000908152600160205291909120548890611e9e565b505050505b9450945094915050565b600060ff841615612a73578360ff16600114612a38578360ff166002146129fd576040518060400160405280600c81526020017f2020202020202020202020200000000000000000000000000000000000000000815250612a84565b6040518060400160405280600881526020017f2020202020202020000000000000000000000000000000000000000000000000815250612a84565b6040518060400160405280600481526020017f2020202000000000000000000000000000000000000000000000000000000000815250612a84565b604051806020016040528060008152505b9050612ac66040518060400160405280600481526020017f25732573000000000000000000000000000000000000000000000000000000008152508285613361565b612ae86040518060600160405280603f8152602001615439603f9139826133f4565b60005b8260200151811015612b9457612b826040518060400160405280601281526020017f25737472616e73666572202825732c25732900000000000000000000000000008152508385600001518481518110612b4757612b47614af3565b602002602001015160000151612b7d87600001518681518110612b6c57612b6c614af3565b602002602001015160200151611de0565b613b54565b80612b8c81614b22565b915050612aeb565b50612bb76040518060600160405280603f8152602001615439603f9139826133f4565b50505050565b60005b8160200151811015612cc0578273ffffffffffffffffffffffffffffffffffffffff1663a9059cbb83600001518381518110612bfe57612bfe614af3565b60200260200101516000015184600001518481518110612c2057612c20614af3565b6020026020010151602001516040518363ffffffff1660e01b8152600401612c6a92919073ffffffffffffffffffffffffffffffffffffffff929092168252602082015260400190565b6020604051808303816000875af1158015612c89573d6000803e3d6000fd5b505050506040513d601f19601f82011682018060405250810190612cad9190614ab7565b5080612cb881614b22565b915050612bc0565b505050565b6000612cd78363ffffffff8616614e8e565b9250612ced8263ffffffff602087901c16614e8e565b9150612d0d63ffffffff841667ffffffff00000000602085901b16614ed0565b949350505050565b600080836006811115612d2a57612d2a614728565b14158015612d4a57506000826006811115612d4757612d47614728565b14155b15612da857816006811115612d6157612d61614728565b836006811115612d7357612d73614728565b14612d9e577fffffffffffffffffffffffffffffffffffffffffffffffffffffffffffffffff612da1565b60015b9050612dac565b5060005b92915050565b600080876060015160ff16118015612dcb575060ff8616155b15612dfc57612ddd8760a00151613830565b60048860a0015160ff16901b612df39190614e15565b60ff1660c08801525b612e6b6000612e0d8660ff16611de0565b604051602001612e1d9190614ef1565b604080517fffffffffffffffffffffffffffffffffffffffffffffffffffffffffffffffe081840301815291815267ffffffffffffffff8c166000908152600160205220548b908b90611e9e565b612e76846002615056565b612e81856002615056565b60c089015160041c16600f1603612ee95760c0870151612ea590600f16600c615065565b60c0880151909150600f166004612ec060ff87166002615087565b1960048a60c0015160ff16901c60ff161660ff16901b612ee09190614e15565b60ff1660c08801525b816006811115612efb57612efb614728565b836006811115612f0d57612f0d614728565b146130a9576000826006811115612f2657612f26614728565b03612fad57826006811115612f3d57612f3d614728565b87604001516006811115612f5357612f53614728565b03612f7657600187608001818151612f6b9190615093565b60000b9052506130a9565b600187608001818151612f8991906150d2565b60000b90525060a087018051600160ff8781169190911b81189091161690526130a9565b826006811115612fbf57612fbf614728565b87604001516006811115612fd557612fd5614728565b036130065760a087018051600160ff8781169190911b90911716905260808701805160029190612f6b908390615093565b81600681111561301857613018614728565b8760400151600681111561302e5761302e614728565b0361305f57600083600681111561304757613047614728565b14612f7657600287608001818151612f8991906150d2565b600083600681111561307357613073614728565b036130a95760018760800181815161308b9190615093565b60000b90525060a087018051600160ff8781169190911b9091171690525b62ffffff8516875260ff80871660608901526130dd906000906130cd908716611de0565b604051602001612e1d9190615111565b67ffffffffffffffff88166000908152602081815260409182902089518154928b015162ffffff9081166301000000027fffffffffffffffffffffffffffffffffffffffffffffffffffff0000000000009094169116179190911780825591890151899282907fffffffffffffffffffffffffffffffffffffffffffffffffff00ffffffffffff16660100000000000083600681111561317f5761317f614728565b021790555060608201518154608084015160a085015160c0909501517fffffffffffffffffffffffffffffffffffffffffffffff0000ffffffffffffff90921667010000000000000060ff948516027fffffffffffffffffffffffffffffffffffffffffffffff00ffffffffffffffff16176801000000000000000091841691909102177fffffffffffffffffffffffffffffffffffffffffff0000ffffffffffffffffff166901000000000000000000948316949094027fffffffffffffffffffffffffffffffffffffffffff00ffffffffffffffffffff16939093176a01000000000000000000009190931602919091179055979650505050505050565b6000807a184f03e93ff9f4daa797ed6e38ed64bf6a1f01000000000000000083106132c8577a184f03e93ff9f4daa797ed6e38ed64bf6a1f010000000000000000830492506040015b6d04ee2d6d415b85acef810000000083106132f4576d04ee2d6d415b85acef8100000000830492506020015b662386f26fc10000831061331257662386f26fc10000830492506010015b6305f5e100831061332a576305f5e100830492506008015b612710831061333e57612710830492506004015b60648310613350576064830492506002015b600a8310612dac5760010192915050565b612cc0838383604051602401613379939291906151c6565b604080517fffffffffffffffffffffffffffffffffffffffffffffffffffffffffffffffe08184030181529190526020810180517bffffffffffffffffffffffffffffffffffffffffffffffffffffffff167f2ced7cef00000000000000000000000000000000000000000000000000000000179052613be5565b613485828260405160240161340a929190615209565b604080517fffffffffffffffffffffffffffffffffffffffffffffffffffffffffffffffe08184030181529190526020810180517bffffffffffffffffffffffffffffffffffffffffffffffffffffffff167f4b5c427700000000000000000000000000000000000000000000000000000000179052613be5565b5050565b6060600082126134a857604051806020016040528060008152506134df565b6040518060400160405280600181526020017f2d000000000000000000000000000000000000000000000000000000000000008152505b6134f06134eb84613bf1565b611de0565b604051602001613501929190615237565b6040516020818303038152906040529050919050565b612bb7848484846040516024016135319493929190615266565b604080517fffffffffffffffffffffffffffffffffffffffffffffffffffffffffffffffe08184030181529190526020810180517bffffffffffffffffffffffffffffffffffffffffffffffffffffffff167fde68f20a00000000000000000000000000000000000000000000000000000000179052613be5565b612cc08383836040516024016135c4939291906152b3565b604080517fffffffffffffffffffffffffffffffffffffffffffffffffffffffffffffffe08184030181529190526020810180517bffffffffffffffffffffffffffffffffffffffffffffffffffffffff167f5821efa100000000000000000000000000000000000000000000000000000000179052613be5565b612cc0838383604051602401613657939291906152e9565b604080517fffffffffffffffffffffffffffffffffffffffffffffffffffffffffffffffe08184030181529190526020810180517bffffffffffffffffffffffffffffffffffffffffffffffffffffffff167f95ed019500000000000000000000000000000000000000000000000000000000179052613be5565b6040805160e0808201835260008083526020808401829052838501829052606084018290526080840182905260a0840182905260c0840182905267ffffffffffffffff871682528181529084902084519283018552805462ffffff808216855263010000008204169284019290925292939192918301906601000000000000900460ff16600681111561376757613767614728565b600681111561377857613778614728565b8152905460ff67010000000000000082048116602084015268010000000000000000820460000b60408401526901000000000000000000820481166060808501919091526a010000000000000000000090920416608092830152825191830151908301519293509091600162ffffff8416108015906137fa575060008160ff16115b1561382757600080613813858760a0015186868b613c08565b60ff909116606088015262ffffff16865250505b50505092915050565b60005b60ff82161561385d57613847600183615335565b90911690806138558161534e565b915050613833565b919050565b60005b826020015181101561391457816000015173ffffffffffffffffffffffffffffffffffffffff16836000015182815181106138a2576138a2614af3565b60200260200101516000015173ffffffffffffffffffffffffffffffffffffffff160361390257602082015183518051839081106138e2576138e2614af3565b60200260200101516020018181516138fa9190614ae0565b905250505050565b8061390c81614b22565b915050613865565b508051825160208401518151811061392e5761392e614af3565b60200260200101516000019073ffffffffffffffffffffffffffffffffffffffff16908173ffffffffffffffffffffffffffffffffffffffff16815250508060200151826000015183602001518151811061398b5761398b614af3565b602002602001015160200181815250508160200180518091906139ad90614b22565b9052505050565b6000806000806000806139d28a600001518a8a8d602001518b613e7c565b935093509350935060008260ff161115613a7457613a748b6040518060400160405280613a198e6000015167ffffffffffffffff1660009081526001602052604090205490565b73ffffffffffffffffffffffffffffffffffffffff168152602001600c613a637f000000000000000000000000000000000000000000000000000000000000000060ff8916614aa0565b613a6d9190614dbc565b9052613862565b60005b60048160ff161015613b425760008260ff831660048110613a9a57613a9a614af3565b602002015173ffffffffffffffffffffffffffffffffffffffff1614613b3057613b308c6040518060400160405280858560ff1660048110613ade57613ade614af3565b602002015173ffffffffffffffffffffffffffffffffffffffff1681526020018b600f1660ff167f0000000000000000000000000000000000000000000000000000000000000000613a6d9190614dbc565b80613b3a8161534e565b915050613a77565b50929a91995090975050505050505050565b612bb784848484604051602401613b6e949392919061536d565b604080517fffffffffffffffffffffffffffffffffffffffffffffffffffffffffffffffe08184030181529190526020810180517bffffffffffffffffffffffffffffffffffffffffffffffffffffffff167feb1bff80000000000000000000000000000000000000000000000000000000001790525b613bee81614242565b50565b600080821215613c045781600003612dac565b5090565b600085600162ffffff821610801590613c24575060008460ff16115b15613e72576000613c358885614b81565b62ffffff1690508015613e695760008660000b600003613c75577fffffffffffffffffffffffffffffffffffffffffffffffffffffffffffffffff613c77565b865b905060008160000b128015613c8d575060ff8816155b15613c96575060005b60008160000b1315613dba577f000000000000000000000000000000000000000000000000000000000000000060ff168660ff161015613daf57600081600181613d008a7f0000000000000000000000000000000000000000000000000000000000000000615335565b613d0a9190614e15565b613d149190615335565b613d1e9190615065565b90508060ff16831115613d32578060ff1692505b613d3c82846153c2565b613d469088614e15565b96507f000000000000000000000000000000000000000000000000000000000000000060ff168760ff161115613d9a577f000000000000000000000000000000000000000000000000000000000000000096505b869450613da7838b6153de565b935050613e63565b859350889250613e63565b60008160000b1215613e5c576000613dd1826153fa565b6001613ddc846153fa565b613de6908a614e15565b613df09190615335565b613dfa9190615065565b90508060ff16831115613e0e578060ff1692505b6000613e19836153fa565b613e2390856153c2565b90508760ff168160ff161115613e3c5760009550613e49565b613e468189615335565b95505b613e53848c6153de565b94505050613e63565b8593508492505b50613e70565b8492508791505b505b9550959350505050565b6000806000613e896144b9565b613ec86040518060400160405280600481526020017f66726f6d000000000000000000000000000000000000000000000000000000008152508a614263565b60008080613f0167ffffffffffffffff8d16827fffffffffffffffffffffffffffffffffffffffffffffffffffffffffffffffff612cc5565b9050613f426040518060400160405280600a81526020017f7570506f736974696f6e0000000000000000000000000000000000000000000081525082614263565b613f50818c60028d8d6142bf565b9093509150600083810b1215613f67578560011795505b93810193600488811c81169003613fab5767ffffffffffffffff811660009081526001602052604090205473ffffffffffffffffffffffffffffffffffffffff1684525b50948101946000613fe767ffffffffffffffff8d167fffffffffffffffffffffffffffffffffffffffffffffffffffffffffffffffff83612cc5565b90506140286040518060400160405280600c81526020017f6c656674506f736974696f6e000000000000000000000000000000000000000081525082614263565b614036818c60038d8d6142bf565b9093509150600083810b121561404d578560021795505b938101936008600489901c811690036140965767ffffffffffffffff811660009081526001602052604090205473ffffffffffffffffffffffffffffffffffffffff1660208501525b509481019460006140b367ffffffffffffffff8d16826001612cc5565b90506140f46040518060400160405280600c81526020017f646f776e506f736974696f6e000000000000000000000000000000000000000081525082614263565b614102818c60008d8d6142bf565b9093509150600083810b1215614119578560041795505b938101936001600489901c811690036141625767ffffffffffffffff811660009081526001602052604090205473ffffffffffffffffffffffffffffffffffffffff1660408501525b5094810194600061417f67ffffffffffffffff8d16600183612cc5565b90506141c06040518060400160405280600d81526020017f7269676874506f736974696f6e0000000000000000000000000000000000000081525082614263565b6141ce818c60018d8d6142bf565b9093509150600083810b12156141e5578560081795505b938101936002600489901c8116900361422e5767ffffffffffffffff811660009081526001602052604090205473ffffffffffffffffffffffffffffffffffffffff1660608501525b828701965050505095509550955095915050565b60006a636f6e736f6c652e6c6f679050600080835160208501845afa505050565b60008063ffffffff80841690602085901c1691509150612bb76040518060400160405280600b81526020017f25733a202825732c2573290000000000000000000000000000000000000000008152508561203c8560030b613489565b67ffffffffffffffff8516600090815260208181526040808320815160e081018352815462ffffff8082168352630100000082041694820194909452849384939192918301906601000000000000900460ff16600681111561432357614323614728565b600681111561433457614334614728565b8152905460ff670100000000000000820481166020840152680100000000000000008204600090810b60408086019190915269010000000000000000008404831660608601526a010000000000000000000090930490911660809093019290925282519083015192935091908160068111156143b2576143b2614728565b1461440c578560068111156143c9576143c9614728565b8160068111156143db576143db614728565b14614406577fffffffffffffffffffffffffffffffffffffffffffffffffffffffffffffffff614409565b60015b94505b60018262ffffff16101580156144345750600081600681111561443157614431614728565b14155b156144ac576000836060015160ff1611801561445957508862ffffff168262ffffff16105b156144965760008061447a848660a00151876080015188606001518f613c08565b9150915061448d8c8684848e8e8e612db2565b955050506144ac565b6144a98a8485606001518c8c8c8c612db2565b93505b5050509550959350505050565b60405180608001604052806004906020820280368337509192915050565b803573ffffffffffffffffffffffffffffffffffffffff8116811461385d57600080fd5b7f4e487b7100000000000000000000000000000000000000000000000000000000600052604160045260246000fd5b6040805190810167ffffffffffffffff8111828210171561454d5761454d6144fb565b60405290565b6040516080810167ffffffffffffffff8111828210171561454d5761454d6144fb565b604051610100810167ffffffffffffffff8111828210171561454d5761454d6144fb565b604051601f82017fffffffffffffffffffffffffffffffffffffffffffffffffffffffffffffffe016810167ffffffffffffffff811182821017156145e1576145e16144fb565b604052919050565b600067ffffffffffffffff821115614603576146036144fb565b5060051b60200190565b803567ffffffffffffffff8116811461385d57600080fd5b80356007811061385d57600080fd5b600080604080848603121561464857600080fd5b614651846144d7565b925060208085013567ffffffffffffffff81111561466e57600080fd5b8501601f8101871361467f57600080fd5b803561469261468d826145e9565b61459a565b81815260069190911b820183019083810190898311156146b157600080fd5b928401925b828410156146ff5785848b0312156146ce5760008081fd5b6146d661452a565b6146df8561460d565b81526146ec868601614625565b81870152825292850192908401906146b6565b8096505050505050509250929050565b60006020828403121561472157600080fd5b5035919050565b7f4e487b7100000000000000000000000000000000000000000000000000000000600052602160045260246000fd5b6007811061478e577f4e487b7100000000000000000000000000000000000000000000000000000000600052602160045260246000fd5b9052565b600060e08201905062ffffff8084511683528060208501511660208401525060408301516147c36040840182614757565b5060ff6060840151166060830152608083015160000b608083015260ff60a08401511660a083015260ff60c08401511660c083015292915050565b803560ff8116811461385d57600080fd5b6000602080838503121561482257600080fd5b823567ffffffffffffffff81111561483957600080fd5b8301601f8101851361484a57600080fd5b803561485861468d826145e9565b81815260079190911b8201830190838101908783111561487757600080fd5b928401925b828410156148eb57608084890312156148955760008081fd5b61489d614553565b6148a68561460d565b81526148b38686016144d7565b8682015260406148c4818701614625565b9082015260606148d58682016147fe565b908201528252608093909301929084019061487c565b979650505050505050565b803562ffffff8116811461385d57600080fd5b6000602080838503121561491c57600080fd5b823567ffffffffffffffff81111561493357600080fd5b8301601f8101851361494457600080fd5b803561495261468d826145e9565b81815260089190911b8201830190838101908783111561497157600080fd5b928401925b828410156148eb5761010084890312156149905760008081fd5b614998614576565b6149a18561460d565b81526149ae8686016144d7565b8682015260406149bf8187016148f6565b9082015260606149d08682016148f6565b9082015260806149e1868201614625565b9082015260a06149f28682016147fe565b9082015260c085810135600081810b8214614a0b578081fd5b509082015260e0614a1d8682016147fe565b908201528252610100939093019290840190614976565b7f4e487b7100000000000000000000000000000000000000000000000000000000600052601160045260246000fd5b600062ffffff821680614a7857614a78614a34565b7fffffffffffffffffffffffffffffffffffffffffffffffffffffffffffffffff0192915050565b8082028115828204841417612dac57612dac614a34565b600060208284031215614ac957600080fd5b81518015158114614ad957600080fd5b9392505050565b80820180821115612dac57612dac614a34565b7f4e487b7100000000000000000000000000000000000000000000000000000000600052603260045260246000fd5b60007fffffffffffffffffffffffffffffffffffffffffffffffffffffffffffffffff8203614b5357614b53614a34565b5060010190565b8181036000831280158383131683831282161715614b7a57614b7a614a34565b5092915050565b62ffffff828116828216039080821115614b7a57614b7a614a34565b60005b83811015614bb8578181015183820152602001614ba0565b50506000910152565b7f666f72636553696d706c6543656c6c732061742065706f636820000000000000815260008251614bf981601a850160208701614b9d565b91909101601a0192915050565b6000604080830162ffffff861684526020828186015281865180845260609350838701915082880160005b82811015614c9457815167ffffffffffffffff815116855273ffffffffffffffffffffffffffffffffffffffff86820151168686015287810151614c7789870182614757565b5086015160ff168487015260809093019290840190600101614c31565b50919998505050505050505050565b602080825282518282018190526000919060409081850190868401855b82811015614d6d57815167ffffffffffffffff815116855273ffffffffffffffffffffffffffffffffffffffff87820151168786015262ffffff868201511686860152606080820151614d198288018262ffffff169052565b5050608080820151614d2d82880182614757565b505060a08181015160ff169086015260c080820151600081900b82880152505060e09081015160ff16908501526101009093019290850190600101614cc0565b5091979650505050505050565b81810381811115612dac57612dac614a34565b7f4e487b7100000000000000000000000000000000000000000000000000000000600052601260045260246000fd5b600082614dcb57614dcb614d8d565b500490565b7f5f636f6d707574654d6f76652061742065706f63682000000000000000000000815260008251614e08816016850160208701614b9d565b9190910160160192915050565b60ff8181168382160190811115612dac57612dac614a34565b60408101614e3c8285614757565b614ad96020830184614757565b7f4146544552200000000000000000000000000000000000000000000000000000815260008251614e81816006850160208701614b9d565b9190910160060192915050565b600381810b9083900b01637fffffff81137fffffffffffffffffffffffffffffffffffffffffffffffffffffffff8000000082121715612dac57612dac614a34565b67ffffffffffffffff818116838216019080821115614b7a57614b7a614a34565b7f5f75706461746543656c6c46726f6d4e65696768626f722020696e6465780000815260008251614f2981601e850160208701614b9d565b91909101601e0192915050565b600181815b80851115614f8f57817fffffffffffffffffffffffffffffffffffffffffffffffffffffffffffffffff04821115614f7557614f75614a34565b80851615614f8257918102915b93841c9390800290614f3b565b509250929050565b600082614fa657506001612dac565b81614fb357506000612dac565b8160018114614fc95760028114614fd357614fef565b6001915050612dac565b60ff841115614fe457614fe4614a34565b50506001821b612dac565b5060208310610133831016604e8410600b8410161715615012575081810a612dac565b61501c8383614f36565b807fffffffffffffffffffffffffffffffffffffffffffffffffffffffffffffffff0482111561504e5761504e614a34565b029392505050565b6000614ad960ff841683614f97565b600060ff83168061507857615078614d8d565b8060ff84160491505092915050565b6000614ad98383614f97565b600082810b9082900b037fffffffffffffffffffffffffffffffffffffffffffffffffffffffffffffff808112607f82131715612dac57612dac614a34565b600081810b9083900b01607f81137fffffffffffffffffffffffffffffffffffffffffffffffffffffffffffffff8082121715612dac57612dac614a34565b7f4146544552205f75706461746543656c6c46726f6d4e65696768626f7220206981527f6e6465780000000000000000000000000000000000000000000000000000000060208201526000825161516f816024850160208701614b9d565b9190910160240192915050565b60008151808452615194816020860160208601614b9d565b601f017fffffffffffffffffffffffffffffffffffffffffffffffffffffffffffffffe0169290920160200192915050565b6060815260006151d9606083018661517c565b82810360208401526151eb818661517c565b905082810360408401526151ff818561517c565b9695505050505050565b60408152600061521c604083018561517c565b828103602084015261522e818561517c565b95945050505050565b60008351615249818460208801614b9d565b83519083019061525d818360208801614b9d565b01949350505050565b608081526000615279608083018761517c565b828103602084015261528b818761517c565b9050828103604084015261529f818661517c565b905082810360608401526148eb818561517c565b6060815260006152c6606083018661517c565b82810360208401526152d8818661517c565b915050826040830152949350505050565b6060815260006152fc606083018661517c565b828103602084015261530e818661517c565b91505073ffffffffffffffffffffffffffffffffffffffff83166040830152949350505050565b60ff8281168282160390811115612dac57612dac614a34565b600060ff821660ff810361536457615364614a34565b60010192915050565b608081526000615380608083018761517c565b8281036020840152615392818761517c565b905073ffffffffffffffffffffffffffffffffffffffff8516604084015282810360608401526148eb818561517c565b60ff8181168382160290811690818114614b7a57614b7a614a34565b62ffffff818116838216019080821115614b7a57614b7a614a34565b60008160000b7fffffffffffffffffffffffffffffffffffffffffffffffffffffffffffffff80810361542f5761542f614a34565b6000039291505056fe25732d2d2d2d2d2d2d2d2d2d2d2d2d2d2d2d2d2d2d2d2d2d2d2d2d2d2d2d2d2d2d2d2d2d2d2d2d2d2d2d2d2d2d2d2d2d2d2d2d2d2d2d2d2d2d2d2d2d2d2d2da2646970667358221220e19eecc29a473c977d0fb4e20ddb3ecbd550c5f013f692a4797785f2968c8ec664736f6c63430008140033",
  "linkReferences": {},
  "deployedLinkReferences": {},
  "devdoc": {
    "errors": {
      "ReserveTooLow(uint256,uint256)": [
        {
          "params": {
            "expected": "amount required to proceed",
            "inReserve": "amount in reserver as the time of the call"
          }
        }
      ]
    },
    "events": {
      "CommitmentCancelled(address,uint24)": {
        "params": {
          "epoch": "epoch number on which this commit belongs to",
          "player": "account taking the staking risk (can be a different account than the one controlling the gems)"
        }
      },
      "CommitmentMade(address,uint24,bytes24)": {
        "params": {
          "commitmentHash": "the hash of moves",
          "epoch": "epoch number on which this commit belongs to",
          "player": "account taking the staking risk (can be a different account than the one controlling the gems)"
        }
      },
      "CommitmentRevealed(address,uint24,bytes24,(uint64,uint8)[],bytes24,uint256)": {
        "params": {
          "commitmentHash": "the hash of the moves",
          "epoch": "epoch number on which this commit belongs to",
          "furtherMoves": "hash of further moves, unless bytes32(0) which indicate end.",
          "moves": "the moves",
          "player": "account who commited"
        }
      },
      "CommitmentVoid(address,uint24,uint256,bytes24)": {
        "params": {
          "amountBurnt": "amount of token to burn",
          "epoch": "epoch number on which this commit belongs to",
          "furtherMoves": "hash of further moves, unless bytes32(0) which indicate end.",
          "player": "the account that made the commitment"
        }
      },
      "MoveProcessed(uint64,address,uint8,uint8)": {
        "params": {
          "newColor": "color that takes over",
          "oldColor": "previous color of the cell",
          "player": "account making the move",
          "position": "cell at which the move take place"
        }
      },
      "ReserveDeposited(address,uint256,uint256)": {
        "params": {
          "amountDeposited": "the number of tokens deposited",
          "newAmount": "the number of tokens in reserver as a result",
          "player": "account receiving the token in the reserve"
        }
      },
      "ReserveWithdrawn(address,uint256,uint256)": {
        "params": {
          "amountWithdrawn": "the number of tokens withdrawnn",
          "newAmount": "the number of tokens in reserver as a result",
          "player": "account withdrawing the tokens"
        }
      }
    },
    "kind": "dev",
    "methods": {},
    "version": 1
  },
  "evm": {
    "gasEstimates": {
      "creation": {
        "codeDepositCost": "4335400",
        "executionCost": "infinite",
        "totalCost": "infinite"
      },
      "external": {
        "forceCells((uint64,address,uint24,uint24,uint8,uint8,int8,uint8)[])": "infinite",
        "forceMoves(address,(uint64,uint8)[])": "infinite",
        "forceSimpleCells((uint64,address,uint8,uint8)[])": "infinite",
        "getRawCell(uint256)": "5358",
        "increaseTime(uint256)": "infinite",
        "timestamp()": "2438"
      },
      "internal": {
        "_computeDelta(uint64,enum UsingStratagemsTypes.Color)": "infinite",
        "_getOwner()": "infinite",
        "_updateNeighbosrDelta(uint64,enum UsingStratagemsTypes.Color,uint24)": "infinite",
        "isEnemyOrFriend(enum UsingStratagemsTypes.Color,enum UsingStratagemsTypes.Color)": "242"
      }
    }
  },
  "storageLayout": {
    "storage": [
      {
        "astId": 15244,
        "contract": "src/game/debug/StratagemsDebug.sol:StratagemsDebug",
        "label": "_cells",
        "offset": 0,
        "slot": "0",
        "type": "t_mapping(t_uint256,t_struct(Cell)12775_storage)"
      },
      {
        "astId": 15248,
        "contract": "src/game/debug/StratagemsDebug.sol:StratagemsDebug",
        "label": "_owners",
        "offset": 0,
        "slot": "1",
        "type": "t_mapping(t_uint256,t_uint256)"
      },
      {
        "astId": 15252,
        "contract": "src/game/debug/StratagemsDebug.sol:StratagemsDebug",
        "label": "_tokensInReserve",
        "offset": 0,
        "slot": "2",
        "type": "t_mapping(t_address,t_uint256)"
      },
      {
        "astId": 15257,
        "contract": "src/game/debug/StratagemsDebug.sol:StratagemsDebug",
        "label": "_commitments",
        "offset": 0,
        "slot": "3",
        "type": "t_mapping(t_address,t_struct(Commitment)12780_storage)"
      },
      {
        "astId": 15263,
        "contract": "src/game/debug/StratagemsDebug.sol:StratagemsDebug",
        "label": "_operatorsForAll",
        "offset": 0,
        "slot": "4",
        "type": "t_mapping(t_address,t_mapping(t_address,t_bool))"
      },
      {
        "astId": 15267,
        "contract": "src/game/debug/StratagemsDebug.sol:StratagemsDebug",
        "label": "_operators",
        "offset": 0,
        "slot": "5",
        "type": "t_mapping(t_uint256,t_address)"
      }
    ],
    "types": {
      "t_address": {
        "encoding": "inplace",
        "label": "address",
        "numberOfBytes": "20"
      },
      "t_bool": {
        "encoding": "inplace",
        "label": "bool",
        "numberOfBytes": "1"
      },
      "t_bytes24": {
        "encoding": "inplace",
        "label": "bytes24",
        "numberOfBytes": "24"
      },
      "t_enum(Color)12704": {
        "encoding": "inplace",
        "label": "enum UsingStratagemsTypes.Color",
        "numberOfBytes": "1"
      },
      "t_int8": {
        "encoding": "inplace",
        "label": "int8",
        "numberOfBytes": "1"
      },
      "t_mapping(t_address,t_bool)": {
        "encoding": "mapping",
        "key": "t_address",
        "label": "mapping(address => bool)",
        "numberOfBytes": "32",
        "value": "t_bool"
      },
      "t_mapping(t_address,t_mapping(t_address,t_bool))": {
        "encoding": "mapping",
        "key": "t_address",
        "label": "mapping(address => mapping(address => bool))",
        "numberOfBytes": "32",
        "value": "t_mapping(t_address,t_bool)"
      },
      "t_mapping(t_address,t_struct(Commitment)12780_storage)": {
        "encoding": "mapping",
        "key": "t_address",
        "label": "mapping(address => struct UsingStratagemsTypes.Commitment)",
        "numberOfBytes": "32",
        "value": "t_struct(Commitment)12780_storage"
      },
      "t_mapping(t_address,t_uint256)": {
        "encoding": "mapping",
        "key": "t_address",
        "label": "mapping(address => uint256)",
        "numberOfBytes": "32",
        "value": "t_uint256"
      },
      "t_mapping(t_uint256,t_address)": {
        "encoding": "mapping",
        "key": "t_uint256",
        "label": "mapping(uint256 => address)",
        "numberOfBytes": "32",
        "value": "t_address"
      },
      "t_mapping(t_uint256,t_struct(Cell)12775_storage)": {
        "encoding": "mapping",
        "key": "t_uint256",
        "label": "mapping(uint256 => struct UsingStratagemsTypes.Cell)",
        "numberOfBytes": "32",
        "value": "t_struct(Cell)12775_storage"
      },
      "t_mapping(t_uint256,t_uint256)": {
        "encoding": "mapping",
        "key": "t_uint256",
        "label": "mapping(uint256 => uint256)",
        "numberOfBytes": "32",
        "value": "t_uint256"
      },
      "t_struct(Cell)12775_storage": {
        "encoding": "inplace",
        "label": "struct UsingStratagemsTypes.Cell",
        "members": [
          {
            "astId": 12761,
            "contract": "src/game/debug/StratagemsDebug.sol:StratagemsDebug",
            "label": "lastEpochUpdate",
            "offset": 0,
            "slot": "0",
            "type": "t_uint24"
          },
          {
            "astId": 12763,
            "contract": "src/game/debug/StratagemsDebug.sol:StratagemsDebug",
            "label": "epochWhenTokenIsAdded",
            "offset": 3,
            "slot": "0",
            "type": "t_uint24"
          },
          {
            "astId": 12766,
            "contract": "src/game/debug/StratagemsDebug.sol:StratagemsDebug",
            "label": "color",
            "offset": 6,
            "slot": "0",
            "type": "t_enum(Color)12704"
          },
          {
            "astId": 12768,
            "contract": "src/game/debug/StratagemsDebug.sol:StratagemsDebug",
            "label": "life",
            "offset": 7,
            "slot": "0",
            "type": "t_uint8"
          },
          {
            "astId": 12770,
            "contract": "src/game/debug/StratagemsDebug.sol:StratagemsDebug",
            "label": "delta",
            "offset": 8,
            "slot": "0",
            "type": "t_int8"
          },
          {
            "astId": 12772,
            "contract": "src/game/debug/StratagemsDebug.sol:StratagemsDebug",
            "label": "enemyMap",
            "offset": 9,
            "slot": "0",
            "type": "t_uint8"
          },
          {
            "astId": 12774,
            "contract": "src/game/debug/StratagemsDebug.sol:StratagemsDebug",
            "label": "distribution",
            "offset": 10,
            "slot": "0",
            "type": "t_uint8"
          }
        ],
        "numberOfBytes": "32"
      },
      "t_struct(Commitment)12780_storage": {
        "encoding": "inplace",
        "label": "struct UsingStratagemsTypes.Commitment",
        "members": [
          {
            "astId": 12777,
            "contract": "src/game/debug/StratagemsDebug.sol:StratagemsDebug",
            "label": "hash",
            "offset": 0,
            "slot": "0",
            "type": "t_bytes24"
          },
          {
            "astId": 12779,
            "contract": "src/game/debug/StratagemsDebug.sol:StratagemsDebug",
            "label": "epoch",
            "offset": 24,
            "slot": "0",
            "type": "t_uint24"
          }
        ],
        "numberOfBytes": "32"
      },
      "t_uint24": {
        "encoding": "inplace",
        "label": "uint24",
        "numberOfBytes": "3"
      },
      "t_uint256": {
        "encoding": "inplace",
        "label": "uint256",
        "numberOfBytes": "32"
      },
      "t_uint8": {
        "encoding": "inplace",
        "label": "uint8",
        "numberOfBytes": "1"
      }
    }
  },
  "userdoc": {
    "errors": {
      "CanStillReveal()": [
        {
          "notice": "Player have to reveal if they can Stratagems will prevent them from acknowledging missed reveal if there is still time to reveal."
        }
      ],
      "CommitmentHashNotMatching()": [
        {
          "notice": "Player have to reveal their commitment using the exact same move values  If they provide different value, the commitment hash will differ and Stratagems will reject their reveal."
        }
      ],
      "GameNotStarted()": [
        {
          "notice": "Game has not started yet, can't perform any action"
        }
      ],
      "InCommitmentPhase()": [
        {
          "notice": "When in Commit phase, player can make new commitment but they cannot reveal their move yet."
        }
      ],
      "InRevealPhase()": [
        {
          "notice": "When in Reveal phase, it is not possible to commit new moves or cancel previous commitment  During Reveal phase, players have to reveal their commitment, if not already done."
        }
      ],
      "InvalidEpoch()": [
        {
          "notice": "Player can only reveal their move in the same epoch they commited.abi  If a player reveal later it can only do to minimize the reserve burn cost by calling : `acknowledgeMissedReveal`"
        }
      ],
      "InvalidFurtherMoves()": [
        {
          "notice": "Player can make arbitrary number of moves per epoch. To do so they group moves into (MAX_NUM_MOVES_PER_HASH = 32) moves  This result in a recursive series of hash that they can then submit in turn while revealing.  The limit  (MAX_NUM_MOVES_PER_HASH = 32) ensure a reveal batch fits in a block."
        }
      ],
      "NotAuthorized()": [
        {
          "notice": "Not authorized to perform this operation"
        }
      ],
      "NothingToReveal()": [
        {
          "notice": "Player can only reveal moves they commited."
        }
      ],
      "PreviousCommitmentNotRevealed()": [
        {
          "notice": "Previous commitment need to be revealed before making a new one. Even if the corresponding reveal phase has passed.\\  It is also not possible to withdraw any amount from reserve until the commitment is revealed.\\If player lost the information to reveal, it can acknowledge failure which will burn all its reserve.\\"
        }
      ],
      "ReserveTooLow(uint256,uint256)": [
        {
          "notice": "to make a commitment you always need at least one `config.numTokensPerGems` amount in reserve  Player also need one `config.numTokensPerGems`  per moves during the Reveal phase."
        }
      ]
    },
    "events": {
      "CommitmentCancelled(address,uint24)": {
        "notice": "A player has cancelled its current commitment (before it reached the reveal phase)"
      },
      "CommitmentMade(address,uint24,bytes24)": {
        "notice": "A player has commited to make a move and reveal it on the reveal phase"
      },
      "CommitmentRevealed(address,uint24,bytes24,(uint64,uint8)[],bytes24,uint256)": {
        "notice": "Player has revealed its previous commitment"
      },
      "CommitmentVoid(address,uint24,uint256,bytes24)": {
        "notice": "A player has canceled a previous commitment by burning some tokens"
      },
      "MoveProcessed(uint64,address,uint8,uint8)": {
        "notice": "A move has been revealed."
      },
      "ReserveDeposited(address,uint256,uint256)": {
        "notice": "Player has deposited token in the reserve, allowing it to use that much in game"
      },
      "ReserveWithdrawn(address,uint256,uint256)": {
        "notice": "Player have withdrawn token from the reserve"
      }
    },
    "kind": "user",
    "methods": {},
    "version": 1
  },
  "argsData": "0x000000000000000000000000df193665aad68cb3d0af345e0dccdde04192b628000000000000000000000000deaddeaddeaddeaddeaddeaddeaddeaddeaddead000000000000000000000000000000000000000000000000000000000000000000000000000000000000000000000000000000000000000000000000000143700000000000000000000000000000000000000000000000000000000000000e1000000000000000000000000000000000000000000000000000000000000000070000000000000000000000000000000000000000000000000de0b6b3a7640000",
  "transaction": {
    "hash": "0x00d73908fe3d0f8fd348a8baae7389e9a488591a7a2548c07a4fea00e1856833",
    "nonce": "0xa8",
    "origin": "0x61c461ecc993aadeb7e4b47e96d1b8cc37314b20"
  }
}