{
  "address": "0xdcfb1ff6e27818f556bed3c8346d1974579f4f44",
  "abi": [
    {
      "inputs": [
        {
          "components": [
            {
              "internalType": "contract IERC20WithIERC2612",
              "name": "tokens",
              "type": "address"
            },
            {
              "internalType": "address payable",
              "name": "burnAddress",
              "type": "address"
            },
            {
              "internalType": "uint256",
              "name": "startTime",
              "type": "uint256"
            },
            {
              "internalType": "uint256",
              "name": "commitPhaseDuration",
              "type": "uint256"
            },
            {
              "internalType": "uint256",
              "name": "revealPhaseDuration",
              "type": "uint256"
            },
            {
              "internalType": "uint8",
              "name": "maxLife",
              "type": "uint8"
            },
            {
              "internalType": "uint256",
              "name": "numTokensPerGems",
              "type": "uint256"
            }
          ],
          "internalType": "struct UsingStratagemsTypes.Config",
          "name": "config",
          "type": "tuple"
        }
      ],
      "stateMutability": "nonpayable",
      "type": "constructor"
    },
    {
      "inputs": [],
      "name": "CanStillReveal",
      "type": "error"
    },
    {
      "inputs": [],
      "name": "CommitmentHashNotMatching",
      "type": "error"
    },
    {
      "inputs": [],
      "name": "GameNotStarted",
      "type": "error"
    },
    {
      "inputs": [],
      "name": "InCommitmentPhase",
      "type": "error"
    },
    {
      "inputs": [],
      "name": "InRevealPhase",
      "type": "error"
    },
    {
      "inputs": [],
      "name": "InvalidEpoch",
      "type": "error"
    },
    {
      "inputs": [],
      "name": "InvalidFurtherMoves",
      "type": "error"
    },
    {
      "inputs": [],
      "name": "NothingToReveal",
      "type": "error"
    },
    {
      "inputs": [],
      "name": "PreviousCommitmentNotRevealed",
      "type": "error"
    },
    {
      "inputs": [
        {
          "internalType": "uint256",
          "name": "inReserve",
          "type": "uint256"
        },
        {
          "internalType": "uint256",
          "name": "expected",
          "type": "uint256"
        }
      ],
      "name": "ReserveTooLow",
      "type": "error"
    },
    {
      "anonymous": false,
      "inputs": [
        {
          "indexed": true,
          "internalType": "address",
          "name": "player",
          "type": "address"
        },
        {
          "indexed": true,
          "internalType": "uint24",
          "name": "epoch",
          "type": "uint24"
        }
      ],
      "name": "CommitmentCancelled",
      "type": "event"
    },
    {
      "anonymous": false,
      "inputs": [
        {
          "indexed": true,
          "internalType": "address",
          "name": "player",
          "type": "address"
        },
        {
          "indexed": true,
          "internalType": "uint24",
          "name": "epoch",
          "type": "uint24"
        },
        {
          "indexed": false,
          "internalType": "bytes24",
          "name": "commitmentHash",
          "type": "bytes24"
        }
      ],
      "name": "CommitmentMade",
      "type": "event"
    },
    {
      "anonymous": false,
      "inputs": [
        {
          "indexed": true,
          "internalType": "address",
          "name": "player",
          "type": "address"
        },
        {
          "indexed": true,
          "internalType": "uint24",
          "name": "epoch",
          "type": "uint24"
        },
        {
          "indexed": true,
          "internalType": "bytes24",
          "name": "commitmentHash",
          "type": "bytes24"
        },
        {
          "components": [
            {
              "internalType": "uint64",
              "name": "position",
              "type": "uint64"
            },
            {
              "internalType": "enum UsingStratagemsTypes.Color",
              "name": "color",
              "type": "uint8"
            }
          ],
          "indexed": false,
          "internalType": "struct UsingStratagemsTypes.Move[]",
          "name": "moves",
          "type": "tuple[]"
        },
        {
          "indexed": false,
          "internalType": "bytes24",
          "name": "furtherMoves",
          "type": "bytes24"
        },
        {
          "indexed": false,
          "internalType": "uint256",
          "name": "newReserveAmount",
          "type": "uint256"
        }
      ],
      "name": "CommitmentRevealed",
      "type": "event"
    },
    {
      "anonymous": false,
      "inputs": [
        {
          "indexed": true,
          "internalType": "address",
          "name": "player",
          "type": "address"
        },
        {
          "indexed": true,
          "internalType": "uint24",
          "name": "epoch",
          "type": "uint24"
        },
        {
          "indexed": false,
          "internalType": "uint256",
          "name": "amountBurnt",
          "type": "uint256"
        },
        {
          "indexed": false,
          "internalType": "bytes24",
          "name": "furtherMoves",
          "type": "bytes24"
        }
      ],
      "name": "CommitmentVoid",
      "type": "event"
    },
    {
      "anonymous": false,
      "inputs": [
        {
          "indexed": true,
          "internalType": "uint64",
          "name": "position",
          "type": "uint64"
        },
        {
          "indexed": true,
          "internalType": "address",
          "name": "player",
          "type": "address"
        },
        {
          "indexed": false,
          "internalType": "enum UsingStratagemsTypes.Color",
          "name": "oldColor",
          "type": "uint8"
        },
        {
          "indexed": false,
          "internalType": "enum UsingStratagemsTypes.Color",
          "name": "newColor",
          "type": "uint8"
        }
      ],
      "name": "MoveProcessed",
      "type": "event"
    },
    {
      "anonymous": false,
      "inputs": [
        {
          "indexed": true,
          "internalType": "address",
          "name": "player",
          "type": "address"
        },
        {
          "indexed": false,
          "internalType": "uint256",
          "name": "amountDeposited",
          "type": "uint256"
        },
        {
          "indexed": false,
          "internalType": "uint256",
          "name": "newAmount",
          "type": "uint256"
        }
      ],
      "name": "ReserveDeposited",
      "type": "event"
    },
    {
      "anonymous": false,
      "inputs": [
        {
          "indexed": true,
          "internalType": "address",
          "name": "player",
          "type": "address"
        },
        {
          "indexed": false,
          "internalType": "uint256",
          "name": "amountWithdrawn",
          "type": "uint256"
        },
        {
          "indexed": false,
          "internalType": "uint256",
          "name": "newAmount",
          "type": "uint256"
        }
      ],
      "name": "ReserveWithdrawn",
      "type": "event"
    },
    {
      "inputs": [
        {
          "internalType": "address",
          "name": "player",
          "type": "address"
        },
        {
          "internalType": "bytes32",
          "name": "secret",
          "type": "bytes32"
        },
        {
          "components": [
            {
              "internalType": "uint64",
              "name": "position",
              "type": "uint64"
            },
            {
              "internalType": "enum UsingStratagemsTypes.Color",
              "name": "color",
              "type": "uint8"
            }
          ],
          "internalType": "struct UsingStratagemsTypes.Move[]",
          "name": "moves",
          "type": "tuple[]"
        },
        {
          "internalType": "bytes24",
          "name": "furtherMoves",
          "type": "bytes24"
        }
      ],
      "name": "acknowledgeMissedReveal",
      "outputs": [],
      "stateMutability": "nonpayable",
      "type": "function"
    },
    {
      "inputs": [],
      "name": "acknowledgeMissedRevealByBurningAllReserve",
      "outputs": [],
      "stateMutability": "nonpayable",
      "type": "function"
    },
    {
      "inputs": [
        {
          "internalType": "uint256",
          "name": "tokensAmountToAdd",
          "type": "uint256"
        },
        {
          "components": [
            {
              "internalType": "uint256",
              "name": "value",
              "type": "uint256"
            },
            {
              "internalType": "uint256",
              "name": "deadline",
              "type": "uint256"
            },
            {
              "internalType": "uint8",
              "name": "v",
              "type": "uint8"
            },
            {
              "internalType": "bytes32",
              "name": "r",
              "type": "bytes32"
            },
            {
              "internalType": "bytes32",
              "name": "s",
              "type": "bytes32"
            }
          ],
          "internalType": "struct UsingStratagemsTypes.Permit",
          "name": "permit",
          "type": "tuple"
        }
      ],
      "name": "addToReserve",
      "outputs": [],
      "stateMutability": "nonpayable",
      "type": "function"
    },
    {
      "inputs": [],
      "name": "cancelCommitment",
      "outputs": [],
      "stateMutability": "nonpayable",
      "type": "function"
    },
    {
      "inputs": [
        {
          "internalType": "bytes24",
          "name": "commitmentHash",
          "type": "bytes24"
        },
        {
          "internalType": "address payable",
          "name": "payee",
          "type": "address"
        }
      ],
      "name": "makeCommitment",
      "outputs": [],
      "stateMutability": "payable",
      "type": "function"
    },
    {
      "inputs": [
        {
          "internalType": "bytes24",
          "name": "commitmentHash",
          "type": "bytes24"
        },
        {
          "internalType": "uint256",
          "name": "tokensAmountToAdd",
          "type": "uint256"
        },
        {
          "components": [
            {
              "internalType": "uint256",
              "name": "value",
              "type": "uint256"
            },
            {
              "internalType": "uint256",
              "name": "deadline",
              "type": "uint256"
            },
            {
              "internalType": "uint8",
              "name": "v",
              "type": "uint8"
            },
            {
              "internalType": "bytes32",
              "name": "r",
              "type": "bytes32"
            },
            {
              "internalType": "bytes32",
              "name": "s",
              "type": "bytes32"
            }
          ],
          "internalType": "struct UsingStratagemsTypes.Permit",
          "name": "permit",
          "type": "tuple"
        },
        {
          "internalType": "address payable",
          "name": "payee",
          "type": "address"
        }
      ],
      "name": "makeCommitmentWithExtraReserve",
      "outputs": [],
      "stateMutability": "payable",
      "type": "function"
    },
    {
      "inputs": [
        {
          "internalType": "uint64",
          "name": "position",
          "type": "uint64"
        }
      ],
      "name": "poke",
      "outputs": [],
      "stateMutability": "nonpayable",
      "type": "function"
    },
    {
      "inputs": [
        {
          "internalType": "uint64[]",
          "name": "positions",
          "type": "uint64[]"
        }
      ],
      "name": "pokeMultiple",
      "outputs": [],
      "stateMutability": "nonpayable",
      "type": "function"
    },
    {
      "inputs": [
        {
          "internalType": "address",
          "name": "player",
          "type": "address"
        },
        {
          "internalType": "bytes32",
          "name": "secret",
          "type": "bytes32"
        },
        {
          "components": [
            {
              "internalType": "uint64",
              "name": "position",
              "type": "uint64"
            },
            {
              "internalType": "enum UsingStratagemsTypes.Color",
              "name": "color",
              "type": "uint8"
            }
          ],
          "internalType": "struct UsingStratagemsTypes.Move[]",
          "name": "moves",
          "type": "tuple[]"
        },
        {
          "internalType": "bytes24",
          "name": "furtherMoves",
          "type": "bytes24"
        },
        {
          "internalType": "bool",
          "name": "useReserve",
          "type": "bool"
        },
        {
          "internalType": "address payable",
          "name": "payee",
          "type": "address"
        }
      ],
      "name": "reveal",
      "outputs": [],
      "stateMutability": "payable",
      "type": "function"
    },
    {
      "inputs": [
        {
          "internalType": "uint256",
          "name": "amount",
          "type": "uint256"
        }
      ],
      "name": "withdrawFromReserve",
      "outputs": [],
      "stateMutability": "nonpayable",
      "type": "function"
    }
  ],
  "contractName": "StratagemsSetters",
  "sourceName": "src/game/routes/StratagemsSetters.sol",
  "bytecode": "0x6101606040523480156200001257600080fd5b5060405162005a4e38038062005a4e8339810160408190526200003591620000b3565b80516001600160a01b039081166080908152602083015190911661014052604082015160a0908152606083015160c09081529183015160e05282015160ff16610100520151610120526200015f565b80516001600160a01b03811681146200009c57600080fd5b919050565b805160ff811681146200009c57600080fd5b600060e08284031215620000c657600080fd5b60405160e081016001600160401b0381118282101715620000f757634e487b7160e01b600052604160045260246000fd5b604052620001058362000084565b8152620001156020840162000084565b60208201526040830151604082015260608301516060820152608083015160808201526200014660a08401620000a1565b60a082015260c083015160c08201528091505092915050565b60805160a05160c05160e0516101005161012051610140516157c26200028c600039600081816107ed01528181610b9301526122770152600081816117a1015281816117f6015281816119ef01528181611aaa01528181613154015281816131ad0152818161320c0152818161334b015281816133950152818161425f01526143240152600081816130cc0152818161390a01528181613942015281816139b001526139de01526000611516015260008181611537015261160a01526000818161156b01526115ca0152600081816103430152818161044b0152818161057b0152818161081c0152818161093001528181610bc201528181610d8c015281816113200152818161144a0152818161203d015281816121b2015281816122a7015261237401526157c26000f3fe6080604052600436106100b15760003560e01c80638b8fc3a111610069578063afa1e2d11161004e578063afa1e2d114610173578063d401978314610188578063d67101121461019b57600080fd5b80638b8fc3a114610140578063ae37a62d1461016057600080fd5b80631fdd8a691161009a5780631fdd8a69146100eb5780634dd3ab2314610100578063599a71c61461012057600080fd5b80630a8bcdb9146100b657806310837a39146100d8575b600080fd5b3480156100c257600080fd5b506100d66100d1366004614931565b6101bb565b005b6100d66100e63660046149b4565b6103f3565b3480156100f757600080fd5b506100d66106a1565b34801561010c57600080fd5b506100d661011b366004614a1d565b6108d1565b34801561012c57600080fd5b506100d661013b366004614a8b565b610959565b34801561014c57600080fd5b506100d661015b366004614afc565b610cb4565b6100d661016e366004614b71565b610db7565b34801561017f57600080fd5b506100d6610e36565b6100d6610196366004614bb6565b610f45565b3480156101a757600080fd5b506100d66101b6366004614c4e565b6112ce565b33600090815260036020526040812090806101d461150d565b845491935091507801000000000000000000000000000000000000000000000000900462ffffff161580159061023757508015806102375750825462ffffff83811678010000000000000000000000000000000000000000000000009092041614155b1561026e576040517f0aafb74c00000000000000000000000000000000000000000000000000000000815260040160405180910390fd5b336000908152600260205260409020546001850161028f57935060006102e5565b848110156102d8576040517f78fe52a600000000000000000000000000000000000000000000000000000000815260048101829052602481018690526044015b60405180910390fd5b6102e28582614caa565b90505b3360008181526002602052604090819020839055517fa9059cbb00000000000000000000000000000000000000000000000000000000815260048101919091526024810186905273ffffffffffffffffffffffffffffffffffffffff7f0000000000000000000000000000000000000000000000000000000000000000169063a9059cbb906044016020604051808303816000875af115801561038c573d6000803e3d6000fd5b505050506040513d601f19601f820116820180604052508101906103b09190614cbd565b50604080518681526020810183905233917ff7aeb382a1e87f84aa69637a22868c2e12be1261273f04cdf40a262a8b890031910160405180910390a25050505050565b3360009081526002602052604090205461040d8482614cda565b33600081815260026020526040902082905590915061042d908683611658565b82351561053a5773ffffffffffffffffffffffffffffffffffffffff7f00000000000000000000000000000000000000000000000000000000000000001663d505accf33308635602088013561048960608a0160408b01614ced565b6040517fffffffff0000000000000000000000000000000000000000000000000000000060e088901b16815273ffffffffffffffffffffffffffffffffffffffff95861660048201529490931660248501526044840191909152606483015260ff166084820152606086013560a4820152608086013560c482015260e401600060405180830381600087803b15801561052157600080fd5b505af1158015610535573d6000803e3d6000fd5b505050505b831561063a576040517f23b872dd000000000000000000000000000000000000000000000000000000008152336004820152306024820152604481018590527f000000000000000000000000000000000000000000000000000000000000000073ffffffffffffffffffffffffffffffffffffffff16906323b872dd906064016020604051808303816000875af11580156105d9573d6000803e3d6000fd5b505050506040513d601f19601f820116820180604052508101906105fd9190614cbd565b50604080518581526020810183905233917f9705a8ff16374359785d31b0f1862c27f983645496f40760d180a9830eeaf2e8910160405180910390a25b73ffffffffffffffffffffffffffffffffffffffff82161561069a5760405173ffffffffffffffffffffffffffffffffffffffff8316903480156108fc02916000818181858888f19350505050158015610698573d6000803e3d6000fd5b505b5050505050565b336000908152600360205260408120906106b961150d565b5082549091507801000000000000000000000000000000000000000000000000900462ffffff16600003610719576040517f6599c9aa00000000000000000000000000000000000000000000000000000000815260040160405180910390fd5b815462ffffff80831678010000000000000000000000000000000000000000000000009092041603610777576040517f175868d700000000000000000000000000000000000000000000000000000000815260040160405180910390fd5b81547fffffffffff000000ffffffffffffffffffffffffffffffffffffffffffffffff168255336000908152600260205260408082208054929055517fa9059cbb00000000000000000000000000000000000000000000000000000000815273ffffffffffffffffffffffffffffffffffffffff7f000000000000000000000000000000000000000000000000000000000000000081166004830152602482018390527f0000000000000000000000000000000000000000000000000000000000000000169063a9059cbb906044016020604051808303816000875af1158015610865573d6000803e3d6000fd5b505050506040513d601f19601f820116820180604052508101906108899190614cbd565b50604080518281526000602082015262ffffff84169133917f6337d70daadadd11f8be7f6e7b38e6c04d28710b1f2a2894bb14d8e3eaa8cdb6910160405180910390a3505050565b60408051600581830181815261010083019093526000928291816020015b60408051808201909152600080825260208201528152602001906001900390816108ef57505081526000602090910152905061092b818361189e565b6109557f000000000000000000000000000000000000000000000000000000000000000082611c8a565b5050565b73ffffffffffffffffffffffffffffffffffffffff851660009081526003602052604081209061098761150d565b5082549091507801000000000000000000000000000000000000000000000000900462ffffff1615806109de5750815462ffffff828116780100000000000000000000000000000000000000000000000090920416145b15610a15576040517f175868d700000000000000000000000000000000000000000000000000000000815260040160405180910390fd5b81546040805160208088028201810183528782528793610a76931b918a918a908690819060009085015b82821015610a6b57610a5c60408302860136819003810190614d4e565b81526020019060010190610a3f565b505050505087611d8d565b7fffffffffffffffffffffffffffffffffffffffffffffffff0000000000000000841615610b095760208114610ad8576040517fcc586b4500000000000000000000000000000000000000000000000000000000815260040160405180910390fd5b82547fffffffffffffffff00000000000000000000000000000000000000000000000016604085901c178355610b30565b82547fffffffffff000000ffffffffffffffffffffffffffffffffffffffffffffffff1683555b33600090815260026020526040812080548792839291610b51908490614caa565b90915550506040517fa9059cbb00000000000000000000000000000000000000000000000000000000815273ffffffffffffffffffffffffffffffffffffffff7f000000000000000000000000000000000000000000000000000000000000000081166004830152602482018390527f0000000000000000000000000000000000000000000000000000000000000000169063a9059cbb906044016020604051808303816000875af1158015610c0b573d6000803e3d6000fd5b505050506040513d601f19601f82011682018060405250810190610c2f9190614cbd565b50604080518281527fffffffffffffffffffffffffffffffffffffffffffffffff00000000000000008716602082015262ffffff85169173ffffffffffffffffffffffffffffffffffffffff8c16917f6337d70daadadd11f8be7f6e7b38e6c04d28710b1f2a2894bb14d8e3eaa8cdb6910160405180910390a3505050505050505050565b60408051808201909152819060009080610ccf846005614dd0565b67ffffffffffffffff811115610ce757610ce7614d10565b604051908082528060200260200182016040528015610d2c57816020015b6040805180820190915260008082526020820152815260200190600190039081610d055790505b5081526020016000815250905060005b82811015610d8657610d7482868684818110610d5a57610d5a614de7565b9050602002016020810190610d6f9190614a1d565b61189e565b80610d7e81614e16565b915050610d3c565b50610db17f000000000000000000000000000000000000000000000000000000000000000082611c8a565b50505050565b33600081815260026020526040902054610dd391908490611658565b73ffffffffffffffffffffffffffffffffffffffff8116156109555760405173ffffffffffffffffffffffffffffffffffffffff8216903480156108fc02916000818181858888f19350505050158015610e31573d6000803e3d6000fd5b505050565b3360009081526003602052604081209080610e4f61150d565b9150915080610e8a576040517fdc12c97300000000000000000000000000000000000000000000000000000000815260040160405180910390fd5b825462ffffff83811678010000000000000000000000000000000000000000000000009092041614610ee8576040517f0aafb74c00000000000000000000000000000000000000000000000000000000815260040160405180910390fd5b82547fffffffffff000000ffffffffffffffffffffffffffffffffffffffffffffffff16835560405162ffffff83169033907f619ef9650648da30c9647d0b77a0de24a51da0630c3533d54cc1eb3d798e1eaa90600090a3505050565b73ffffffffffffffffffffffffffffffffffffffff871660009081526003602052604081209080610f7461150d565b915091508015610fb0576040517f24f7f40f00000000000000000000000000000000000000000000000000000000815260040160405180910390fd5b82547801000000000000000000000000000000000000000000000000900462ffffff1660000361100c576040517f6599c9aa00000000000000000000000000000000000000000000000000000000815260040160405180910390fd5b825462ffffff8381167801000000000000000000000000000000000000000000000000909204161461106a576040517fd5b25b6300000000000000000000000000000000000000000000000000000000815260040160405180910390fd5b8254604080516020808b028201810183528a82526110cc9390921b918c91908c908c90819060009085015b828210156110c1576110b260408302860136819003810190614d4e565b81526020019060010190611095565b505050505089611d8d565b60006111388b848b8b808060200260200160405190810160405280939291908181526020016000905b828210156111215761111260408302860136819003810190614d4e565b815260200190600101906110f5565b505050505089611131578e611eb5565b6000611eb5565b845490915060401b7fffffffffffffffffffffffffffffffffffffffffffffffff00000000000000008816156111d357602089146111a2576040517fcc586b4500000000000000000000000000000000000000000000000000000000815260040160405180910390fd5b84547fffffffffffffffff00000000000000000000000000000000000000000000000016604089901c1785556111fa565b84547fffffffffff000000ffffffffffffffffffffffffffffffffffffffffffffffff1685555b8067ffffffffffffffff19168462ffffff168d73ffffffffffffffffffffffffffffffffffffffff167ffab312c5020dc7093e590463878dbfd0567314a7c155b164a60430ebcc7b38038d8d8d886040516112589493929190614eb8565b60405180910390a473ffffffffffffffffffffffffffffffffffffffff8616156112c05760405173ffffffffffffffffffffffffffffffffffffffff8716903480156108fc02916000818181858888f193505050501580156112be573d6000803e3d6000fd5b505b505050505050505050505050565b811561095557336000908152600260205260409020546112ee8382614cda565b336000908152600260205260409020819055905081351561140f5773ffffffffffffffffffffffffffffffffffffffff7f00000000000000000000000000000000000000000000000000000000000000001663d505accf33308535602087013561135e6060890160408a01614ced565b6040517fffffffff0000000000000000000000000000000000000000000000000000000060e088901b16815273ffffffffffffffffffffffffffffffffffffffff95861660048201529490931660248501526044840191909152606483015260ff166084820152606085013560a4820152608085013560c482015260e401600060405180830381600087803b1580156113f657600080fd5b505af115801561140a573d6000803e3d6000fd5b505050505b6040517f23b872dd000000000000000000000000000000000000000000000000000000008152336004820152306024820152604481018490527f000000000000000000000000000000000000000000000000000000000000000073ffffffffffffffffffffffffffffffffffffffff16906323b872dd906064016020604051808303816000875af11580156114a8573d6000803e3d6000fd5b505050506040513d601f19601f820116820180604052508101906114cc9190614cbd565b50604080518481526020810183905233917f9705a8ff16374359785d31b0f1862c27f983645496f40760d180a9830eeaf2e8910160405180910390a2505050565b6000808061155b7f00000000000000000000000000000000000000000000000000000000000000007f0000000000000000000000000000000000000000000000000000000000000000614cda565b905060006115676123ef565b90507f00000000000000000000000000000000000000000000000000000000000000008110156115c3576040517f3a5f7b5700000000000000000000000000000000000000000000000000000000815260040160405180910390fd5b60006115ef7f000000000000000000000000000000000000000000000000000000000000000083614caa565b90506115fb8382614f7c565b611606906002614cda565b94507f000000000000000000000000000000000000000000000000000000000000000083611635600288614f90565b62ffffff166116449190614dd0565b61164e9083614caa565b1093505050509091565b73ffffffffffffffffffffffffffffffffffffffff83166000908152600360205260408120908061168761150d565b91509150806116c2576040517fdc12c97300000000000000000000000000000000000000000000000000000000815260040160405180910390fd5b82547801000000000000000000000000000000000000000000000000900462ffffff16158015906117185750825462ffffff83811678010000000000000000000000000000000000000000000000009092041614155b1561174f576040517f0aafb74c00000000000000000000000000000000000000000000000000000000815260040160405180910390fd5b825462ffffff83167801000000000000000000000000000000000000000000000000027fffffffffff000000000000000000000000000000000000000000000000000000909116604087901c171783557f0000000000000000000000000000000000000000000000000000000000000000841015611822576040517f78fe52a6000000000000000000000000000000000000000000000000000000008152600481018590527f000000000000000000000000000000000000000000000000000000000000000060248201526044016102cf565b6040517fffffffffffffffffffffffffffffffffffffffffffffffff00000000000000008616815262ffffff83169073ffffffffffffffffffffffffffffffffffffffff8816907fe3c45ded79e3db74b160b9a697d75f465f68d287a678532ed0a9fb691553b93d9060200160405180910390a3505050505050565b60006118a861150d565b50905060006118b78383612424565b905061192a60006118cc8462ffffff16612582565b6040516020016118dc9190614fd7565b604080517fffffffffffffffffffffffffffffffffffffffffffffffffffffffffffffffe081840301815291815267ffffffffffffffff871660009081526001602052205486908590612640565b60c0810151606082015160ff161580156119495750815162ffffff1615155b156119785761195b8260a00151612a8b565b60048360a0015160ff16901b611971919061501c565b6000835290505b60008061199086868660400151876040015187612abd565b9094509250505060ff821615611a1e57611a1e8760405180604001604052806119cf8a67ffffffffffffffff1660009081526001602052604090205490565b73ffffffffffffffffffffffffffffffffffffffff168152602001611a177f000000000000000000000000000000000000000000000000000000000000000060ff8816614dd0565b9052612e83565b60005b60048160ff161015611ae35760008260ff831660048110611a4457611a44614de7565b602002015173ffffffffffffffffffffffffffffffffffffffff1614611ad157611ad1886040518060400160405280858560ff1660048110611a8857611a88614de7565b602002015173ffffffffffffffffffffffffffffffffffffffff1681526020017f0000000000000000000000000000000000000000000000000000000000000000815250612e83565b80611adb81615035565b915050611a21565b50600060c0850181905267ffffffffffffffff871681526020818152604091829020865181549288015162ffffff9081166301000000027fffffffffffffffffffffffffffffffffffffffffffffffffffff0000000000009094169116179190911780825591860151869282907fffffffffffffffffffffffffffffffffffffffffffffffffff00ffffffffffff166601000000000000836006811115611b8c57611b8c614e4e565b021790555060608201518154608084015160a085015160c0909501517fffffffffffffffffffffffffffffffffffffffffffffff0000ffffffffffffff90921667010000000000000060ff948516027fffffffffffffffffffffffffffffffffffffffffffffff00ffffffffffffffff16176801000000000000000091841691909102177fffffffffffffffffffffffffffffffffffffffffff0000ffffffffffffffffff166901000000000000000000948316949094027fffffffffffffffffffffffffffffffffffffffffff00ffffffffffffffffffff16939093176a0100000000000000000000919093160291909117905550505050505050565b60005b8160200151811015610e31578273ffffffffffffffffffffffffffffffffffffffff1663a9059cbb83600001518381518110611ccb57611ccb614de7565b60200260200101516000015184600001518481518110611ced57611ced614de7565b6020026020010151602001516040518363ffffffff1660e01b8152600401611d3792919073ffffffffffffffffffffffffffffffffffffffff929092168252602082015260400190565b6020604051808303816000875af1158015611d56573d6000803e3d6000fd5b505050506040513d601f19601f82011682018060405250810190611d7a9190614cbd565b5080611d8581614e16565b915050611c8d565b7fffffffffffffffffffffffffffffffffffffffffffffffff0000000000000000811615611e39576000838383604051602001611dcc939291906150ae565b6040516020818303038152906040528051906020012090508067ffffffffffffffff19168567ffffffffffffffff191614611e33576040517fd13415b500000000000000000000000000000000000000000000000000000000815260040160405180910390fd5b50610db1565b60008383604051602001611e4e9291906150f9565b6040516020818303038152906040528051906020012090508067ffffffffffffffff19168567ffffffffffffffff19161461069a576040517fd13415b500000000000000000000000000000000000000000000000000000000815260040160405180910390fd5b600080604051806040016040528085516005611ed19190614dd0565b67ffffffffffffffff811115611ee957611ee9614d10565b604051908082528060200260200182016040528015611f2e57816020015b6040805180820190915260008082526020820152815260200190600190039081611f075790505b50815260200160008152509050611f5f60405180606001604052806000815260200160008152602001600081525090565b60005b8551811015611ff6576000806000611f95868c8c8c8881518110611f8857611f88614de7565b6020026020010151612fd5565b9250925092508285600001818151611fad9190614cda565b905250602085018051839190611fc4908390614cda565b905250604085018051829190611fdb908390614cda565b905250839250611fee9150829050614e16565b915050611f62565b5061203860006040518060400160405280600c81526020017f7265736f6c76654d6f766573000000000000000000000000000000000000000081525084613658565b6120627f000000000000000000000000000000000000000000000000000000000000000083611c8a565b73ffffffffffffffffffffffffffffffffffffffff871660009081526002602090815260409091205490820151825191945061209d91614cda565b8310156120f1576020810151815184916120b691614cda565b6040517f78fe52a6000000000000000000000000000000000000000000000000000000008152600481019290925260248201526044016102cf565b73ffffffffffffffffffffffffffffffffffffffff8416612156576020810151815161211d9190614cda565b6121279084614caa565b73ffffffffffffffffffffffffffffffffffffffff881660009081526002602052604090208190559250612318565b8051156122235780516040517f23b872dd00000000000000000000000000000000000000000000000000000000815273ffffffffffffffffffffffffffffffffffffffff868116600483015230602483015260448201929092527f0000000000000000000000000000000000000000000000000000000000000000909116906323b872dd906064016020604051808303816000875af11580156121fd573d6000803e3d6000fd5b505050506040513d601f19601f820116820180604052508101906122219190614cbd565b505b6020810151156123185760208101516040517f23b872dd00000000000000000000000000000000000000000000000000000000815273ffffffffffffffffffffffffffffffffffffffff86811660048301527f00000000000000000000000000000000000000000000000000000000000000008116602483015260448201929092527f0000000000000000000000000000000000000000000000000000000000000000909116906323b872dd906064016020604051808303816000875af11580156122f2573d6000803e3d6000fd5b505050506040513d601f19601f820116820180604052508101906123169190614cbd565b505b6040810151156123e55760408181015190517fa9059cbb00000000000000000000000000000000000000000000000000000000815273ffffffffffffffffffffffffffffffffffffffff898116600483015260248201929092527f00000000000000000000000000000000000000000000000000000000000000009091169063a9059cbb906044016020604051808303816000875af11580156123bf573d6000803e3d6000fd5b505050506040513d601f19601f820116820180604052508101906123e39190614cbd565b505b5050949350505050565b7f112c413de07a110ce0a9ace0c01e41b5b59462770325b042f0dc72c337f55f2e5460009061241e8142614cda565b91505090565b6040805160e0808201835260008083526020808401829052838501829052606084018290526080840182905260a0840182905260c0840182905267ffffffffffffffff871682528181529084902084519283018552805462ffffff808216855263010000008204169284019290925292939192918301906601000000000000900460ff1660068111156124b9576124b9614e4e565b60068111156124ca576124ca614e4e565b8152905460ff67010000000000000082048116602084015268010000000000000000820460000b60408401526901000000000000000000820481166060808501919091526a010000000000000000000090920416608092830152825191830151908301519293509091600162ffffff84161080159061254c575060008160ff16115b1561257957600080612565858760a0015186868b61386e565b60ff909116606088015262ffffff16865250505b50505092915050565b6060600061258f83613ae2565b600101905060008167ffffffffffffffff8111156125af576125af614d10565b6040519080825280601f01601f1916602001820160405280156125d9576020820181803683370190505b5090508181016020015b7fffffffffffffffffffffffffffffffffffffffffffffffffffffffffffffffff017f3031323334353637383961626364656600000000000000000000000000000000600a86061a8153600a85049450846125e357509392505050565b600060ff861615612712578560ff166001146126d7578560ff1660021461269c576040518060400160405280600c81526020017f2020202020202020202020200000000000000000000000000000000000000000815250612723565b6040518060400160405280600881526020017f2020202020202020000000000000000000000000000000000000000000000000815250612723565b6040518060400160405280600481526020017f2020202000000000000000000000000000000000000000000000000000000000815250612723565b604051806020016040528060008152505b90506127656040518060400160405280600481526020017f25732573000000000000000000000000000000000000000000000000000000008152508287613bc5565b6040805160608101909152603f80825263ffffffff86811692602088811c909216926127989261574e9083013984613c58565b6127ef6040518060400160405280600e81526020017f257363656c6c202825732c257329000000000000000000000000000000000000815250846127de8560030b613ce9565b6127ea8560030b613ce9565b613d77565b6128116040518060600160405280603f815260200161574e603f913984613c58565b61285a6040518060400160405280601981526020017f2573202d206c61737445706f63685570646174653a202025730000000000000081525084876000015162ffffff16613e0c565b6128a36040518060400160405280601f81526020017f2573202d2065706f63685768656e546f6b656e497341646465643a202025730081525084876020015162ffffff16613e0c565b6128fb6040518060400160405280600f81526020017f2573202d20636f6c6f723a20202573000000000000000000000000000000000081525084876040015160068111156128f3576128f3614e4e565b60ff16613e0c565b6129426040518060400160405280600e81526020017f2573202d206c6966653a2020257300000000000000000000000000000000000081525084876060015160ff16613e0c565b6129896040518060400160405280601681526020017f2573202d20646973747269627574696f6e3a2020257300000000000000000000815250848760c0015160ff16613e0c565b6129c96040518060400160405280600f81526020017f2573202d206f776e65723a2020257300000000000000000000000000000000008152508486613e9f565b612a186040518060400160405280600e81526020017f2573202d2064656c74613a20257300000000000000000000000000000000000081525084612a13886080015160000b613ce9565b613bc5565b612a5f6040518060400160405280601281526020017f2573202d20656e656d794d61703a202025730000000000000000000000000000815250848760a0015160ff16613e0c565b612a816040518060600160405280603f815260200161574e603f913984613c58565b5050505050505050565b60005b60ff821615612ab857612aa2600183615112565b9091169080612ab081615035565b915050612a8e565b919050565b6000806000612aca614913565b612b096040518060400160405280600481526020017f66726f6d000000000000000000000000000000000000000000000000000000008152508a613f32565b60008080612b4267ffffffffffffffff8d16827fffffffffffffffffffffffffffffffffffffffffffffffffffffffffffffffff613f8e565b9050612b836040518060400160405280600a81526020017f7570506f736974696f6e0000000000000000000000000000000000000000000081525082613f32565b612b91818c60028d8d613fde565b9093509150600083810b1215612ba8578560011795505b93810193600488811c81169003612bec5767ffffffffffffffff811660009081526001602052604090205473ffffffffffffffffffffffffffffffffffffffff1684525b50948101946000612c2867ffffffffffffffff8d167fffffffffffffffffffffffffffffffffffffffffffffffffffffffffffffffff83613f8e565b9050612c696040518060400160405280600c81526020017f6c656674506f736974696f6e000000000000000000000000000000000000000081525082613f32565b612c77818c60038d8d613fde565b9093509150600083810b1215612c8e578560021795505b938101936008600489901c81169003612cd75767ffffffffffffffff811660009081526001602052604090205473ffffffffffffffffffffffffffffffffffffffff1660208501525b50948101946000612cf467ffffffffffffffff8d16826001613f8e565b9050612d356040518060400160405280600c81526020017f646f776e506f736974696f6e000000000000000000000000000000000000000081525082613f32565b612d43818c60008d8d613fde565b9093509150600083810b1215612d5a578560041795505b938101936001600489901c81169003612da35767ffffffffffffffff811660009081526001602052604090205473ffffffffffffffffffffffffffffffffffffffff1660408501525b50948101946000612dc067ffffffffffffffff8d16600183613f8e565b9050612e016040518060400160405280600d81526020017f7269676874506f736974696f6e0000000000000000000000000000000000000081525082613f32565b612e0f818c60018d8d613fde565b9093509150600083810b1215612e26578560081795505b938101936002600489901c81169003612e6f5767ffffffffffffffff811660009081526001602052604090205473ffffffffffffffffffffffffffffffffffffffff1660608501525b828701965050505095509550955095915050565b60005b8260200151811015612f3557816000015173ffffffffffffffffffffffffffffffffffffffff1683600001518281518110612ec357612ec3614de7565b60200260200101516000015173ffffffffffffffffffffffffffffffffffffffff1603612f235760208201518351805183908110612f0357612f03614de7565b6020026020010151602001818151612f1b9190614cda565b905250505050565b80612f2d81614e16565b915050612e86565b5080518251602084015181518110612f4f57612f4f614de7565b60200260200101516000019073ffffffffffffffffffffffffffffffffffffffff16908173ffffffffffffffffffffffffffffffffffffffff168152505080602001518260000151836020015181518110612fac57612fac614de7565b60200260200101516020018181525050816020018051809190612fce90614e16565b9052505050565b600080600080612fe9856000015187612424565b905061305f6000612ffe8862ffffff16612582565b60405160200161300e919061512b565b604080517fffffffffffffffffffffffffffffffffffffffffffffffffffffffffffffffe0818403018152918152885167ffffffffffffffff81166000908152600160205291909120548590612640565b60c0810151606082015160ff1615801561307e5750815162ffffff1615155b156130ad576130908260a00151612a8b565b60048360a0015160ff16901b6130a6919061501c565b6000835290505b6000866020015160068111156130c5576130c5614e4e565b036131d9577f000000000000000000000000000000000000000000000000000000000000000060ff16826060015160ff1614158061314a5750855167ffffffffffffffff1660009081526001602052604090205473ffffffffffffffffffffffffffffffffffffffff89169073ffffffffffffffffffffffffffffffffffffffff1614155b15613180576000807f0000000000000000000000000000000000000000000000000000000000000000945094509450505061364e565b6131d48960405180604001604052808b73ffffffffffffffffffffffffffffffffffffffff1681526020017f0000000000000000000000000000000000000000000000000000000000000000815250612e83565b613238565b8662ffffff16826020015162ffffff160361323857606082015160ff16156132075760066020870152613238565b6000807f0000000000000000000000000000000000000000000000000000000000000000945094509450505061364e565b60008061324c8b898b8760400151876141d8565b915091508973ffffffffffffffffffffffffffffffffffffffff16886000015167ffffffffffffffff167f17b85ded3fb12432ee427abc34a3026e1fbbb8bc431e3dbe51bc81215655c25c86604001518b602001516040516132af929190615170565b60405180910390a38760200151846040019060068111156132d2576132d2614e4e565b908160068111156132e5576132e5614e4e565b905250600060c0850181905262ffffff8a1660208601528460400151600681111561331257613312614e4e565b03613371576000606085018190528085526080850181905260a08501819052885167ffffffffffffffff168152600160205260408120557f0000000000000000000000000000000000000000000000000000000000000000945061343d565b60ff811660a0850152600082900b60808501526001606085015262ffffff891684527f000000000000000000000000000000000000000000000000000000000000000096506006846040015160068111156133ce576133ce614e4e565b0361340957875167ffffffffffffffff16600090815260016020526040902073ffffffffffffffffffffffffffffffffffffffff905561343d565b875167ffffffffffffffff16600090815260016020526040902073ffffffffffffffffffffffffffffffffffffffff8b1690555b875167ffffffffffffffff1660009081526020818152604091829020865181549288015162ffffff9081166301000000027fffffffffffffffffffffffffffffffffffffffffffffffffffff0000000000009094169116179190911780825591860151869282907fffffffffffffffffffffffffffffffffffffffffffffffffff00ffffffffffff1666010000000000008360068111156134e0576134e0614e4e565b021790555060608201518154608084015160a085015160c0909501517fffffffffffffffffffffffffffffffffffffffffffffff0000ffffffffffffff90921667010000000000000060ff948516027fffffffffffffffffffffffffffffffffffffffffffffff00ffffffffffffffff16176801000000000000000091841691909102177fffffffffffffffffffffffffffffffffffffffffff0000ffffffffffffffffff166901000000000000000000948316949094027fffffffffffffffffffffffffffffffffffffffffff00ffffffffffffffffffff16939093176a0100000000000000000000919093160291909117905561364960006135e862ffffff8c16612582565b6040516020016135f8919061518b565b604080517fffffffffffffffffffffffffffffffffffffffffffffffffffffffffffffffe08184030181529181528b5167ffffffffffffffff81166000908152600160205291909120548890612640565b505050505b9450945094915050565b600060ff84161561372a578360ff166001146136ef578360ff166002146136b4576040518060400160405280600c81526020017f202020202020202020202020000000000000000000000000000000000000000081525061373b565b6040518060400160405280600881526020017f202020202020202000000000000000000000000000000000000000000000000081525061373b565b6040518060400160405280600481526020017f202020200000000000000000000000000000000000000000000000000000000081525061373b565b604051806020016040528060008152505b905061377d6040518060400160405280600481526020017f25732573000000000000000000000000000000000000000000000000000000008152508285613bc5565b61379f6040518060600160405280603f815260200161574e603f913982613c58565b60005b826020015181101561384b576138396040518060400160405280601281526020017f25737472616e73666572202825732c257329000000000000000000000000000081525083856000015184815181106137fe576137fe614de7565b6020026020010151600001516138348760000151868151811061382357613823614de7565b602002602001015160200151612582565b614371565b8061384381614e16565b9150506137a2565b50610db16040518060600160405280603f815260200161574e603f913982613c58565b600085600162ffffff82161080159061388a575060008460ff16115b15613ad857600061389b8885614f90565b62ffffff1690508015613acf5760008660000b6000036138db577fffffffffffffffffffffffffffffffffffffffffffffffffffffffffffffffff6138dd565b865b905060008160000b1280156138f3575060ff8816155b156138fc575060005b60008160000b1315613a20577f000000000000000000000000000000000000000000000000000000000000000060ff168660ff161015613a15576000816001816139668a7f0000000000000000000000000000000000000000000000000000000000000000615112565b613970919061501c565b61397a9190615112565b61398491906151d0565b90508060ff16831115613998578060ff1692505b6139a282846151f2565b6139ac908861501c565b96507f000000000000000000000000000000000000000000000000000000000000000060ff168760ff161115613a00577f000000000000000000000000000000000000000000000000000000000000000096505b869450613a0d838b61520e565b935050613ac9565b859350889250613ac9565b60008160000b1215613ac2576000613a378261522a565b6001613a428461522a565b613a4c908a61501c565b613a569190615112565b613a6091906151d0565b90508060ff16831115613a74578060ff1692505b6000613a7f8361522a565b613a8990856151f2565b90508760ff168160ff161115613aa25760009550613aaf565b613aac8189615112565b95505b613ab9848c61520e565b94505050613ac9565b8593508492505b50613ad6565b8492508791505b505b9550959350505050565b6000807a184f03e93ff9f4daa797ed6e38ed64bf6a1f0100000000000000008310613b2b577a184f03e93ff9f4daa797ed6e38ed64bf6a1f010000000000000000830492506040015b6d04ee2d6d415b85acef81000000008310613b57576d04ee2d6d415b85acef8100000000830492506020015b662386f26fc100008310613b7557662386f26fc10000830492506010015b6305f5e1008310613b8d576305f5e100830492506008015b6127108310613ba157612710830492506004015b60648310613bb3576064830492506002015b600a8310613bbf576001015b92915050565b610e31838383604051602401613bdd939291906152b2565b604080517fffffffffffffffffffffffffffffffffffffffffffffffffffffffffffffffe08184030181529190526020810180517bffffffffffffffffffffffffffffffffffffffffffffffffffffffff167f2ced7cef00000000000000000000000000000000000000000000000000000000179052614402565b6109558282604051602401613c6e9291906152f5565b604080517fffffffffffffffffffffffffffffffffffffffffffffffffffffffffffffffe08184030181529190526020810180517bffffffffffffffffffffffffffffffffffffffffffffffffffffffff167f4b5c427700000000000000000000000000000000000000000000000000000000179052614402565b606060008212613d085760405180602001604052806000815250613d3f565b6040518060400160405280600181526020017f2d000000000000000000000000000000000000000000000000000000000000008152505b613d50613d4b8461440e565b612582565b604051602001613d61929190615323565b6040516020818303038152906040529050919050565b610db184848484604051602401613d919493929190615352565b604080517fffffffffffffffffffffffffffffffffffffffffffffffffffffffffffffffe08184030181529190526020810180517bffffffffffffffffffffffffffffffffffffffffffffffffffffffff167fde68f20a00000000000000000000000000000000000000000000000000000000179052614402565b610e31838383604051602401613e24939291906153aa565b604080517fffffffffffffffffffffffffffffffffffffffffffffffffffffffffffffffe08184030181529190526020810180517bffffffffffffffffffffffffffffffffffffffffffffffffffffffff167f5821efa100000000000000000000000000000000000000000000000000000000179052614402565b610e31838383604051602401613eb7939291906153e0565b604080517fffffffffffffffffffffffffffffffffffffffffffffffffffffffffffffffe08184030181529190526020810180517bffffffffffffffffffffffffffffffffffffffffffffffffffffffff167f95ed019500000000000000000000000000000000000000000000000000000000179052614402565b60008063ffffffff80841690602085901c1691509150610db16040518060400160405280600b81526020017f25733a202825732c257329000000000000000000000000000000000000000000815250856127de8560030b613ce9565b6000613fa08363ffffffff861661542c565b9250613fb68263ffffffff602087901c1661542c565b9150613fd663ffffffff841667ffffffff00000000602085901b1661546e565b949350505050565b67ffffffffffffffff8516600090815260208181526040808320815160e081018352815462ffffff8082168352630100000082041694820194909452849384939192918301906601000000000000900460ff16600681111561404257614042614e4e565b600681111561405357614053614e4e565b8152905460ff670100000000000000820481166020840152680100000000000000008204600090810b60408086019190915269010000000000000000008404831660608601526a010000000000000000000090930490911660809093019290925282519083015192935091908160068111156140d1576140d1614e4e565b1461412b578560068111156140e8576140e8614e4e565b8160068111156140fa576140fa614e4e565b14614125577fffffffffffffffffffffffffffffffffffffffffffffffffffffffffffffffff614128565b60015b94505b60018262ffffff16101580156141535750600081600681111561415057614150614e4e565b14155b156141cb576000836060015160ff1611801561417857508862ffffff168262ffffff16105b156141b557600080614199848660a00151876080015188606001518f61386e565b915091506141ac8c8684848e8e8e614425565b955050506141cb565b6141c88a8485606001518c8c8c8c614425565b93505b5050509550959350505050565b6000806000806000806141f68a600001518a8a8d602001518b612abd565b935093509350935060008260ff161115614291576142918b604051806040016040528061423d8e6000015167ffffffffffffffff1660009081526001602052604090205490565b73ffffffffffffffffffffffffffffffffffffffff168152602001600c6142877f000000000000000000000000000000000000000000000000000000000000000060ff8916614dd0565b611a179190614f7c565b60005b60048160ff16101561435f5760008260ff8316600481106142b7576142b7614de7565b602002015173ffffffffffffffffffffffffffffffffffffffff161461434d5761434d8c6040518060400160405280858560ff16600481106142fb576142fb614de7565b602002015173ffffffffffffffffffffffffffffffffffffffff1681526020018b600f1660ff167f0000000000000000000000000000000000000000000000000000000000000000611a179190614f7c565b8061435781615035565b915050614294565b50929a91995090975050505050505050565b610db18484848460405160240161438b949392919061548f565b604080517fffffffffffffffffffffffffffffffffffffffffffffffffffffffffffffffe08184030181529190526020810180517bffffffffffffffffffffffffffffffffffffffffffffffffffffffff167feb1bff80000000000000000000000000000000000000000000000000000000001790525b61440b816148f2565b50565b6000808212156144215781600003613bbf565b5090565b600080876060015160ff1611801561443e575060ff8616155b1561446f576144508760a00151612a8b565b60048860a0015160ff16901b614466919061501c565b60ff1660c08801525b6144de60006144808660ff16612582565b60405160200161449091906154e4565b604080517fffffffffffffffffffffffffffffffffffffffffffffffffffffffffffffffe081840301815291815267ffffffffffffffff8c166000908152600160205220548b908b90612640565b6144e9846002615649565b6144f4856002615649565b60c089015160041c16600f160361455c5760c087015161451890600f16600c6151d0565b60c0880151909150600f16600461453360ff87166002615658565b1960048a60c0015160ff16901c60ff161660ff16901b614553919061501c565b60ff1660c08801525b81600681111561456e5761456e614e4e565b83600681111561458057614580614e4e565b1461471c57600082600681111561459957614599614e4e565b03614620578260068111156145b0576145b0614e4e565b876040015160068111156145c6576145c6614e4e565b036145e9576001876080018181516145de9190615664565b60000b90525061471c565b6001876080018181516145fc91906156a3565b60000b90525060a087018051600160ff8781169190911b811890911616905261471c565b82600681111561463257614632614e4e565b8760400151600681111561464857614648614e4e565b036146795760a087018051600160ff8781169190911b909117169052608087018051600291906145de908390615664565b81600681111561468b5761468b614e4e565b876040015160068111156146a1576146a1614e4e565b036146d25760008360068111156146ba576146ba614e4e565b146145e9576002876080018181516145fc91906156a3565b60008360068111156146e6576146e6614e4e565b0361471c576001876080018181516146fe9190615664565b60000b90525060a087018051600160ff8781169190911b9091171690525b62ffffff8516875260ff808716606089015261475090600090614740908716612582565b60405160200161449091906156e2565b67ffffffffffffffff88166000908152602081815260409182902089518154928b015162ffffff9081166301000000027fffffffffffffffffffffffffffffffffffffffffffffffffffff0000000000009094169116179190911780825591890151899282907fffffffffffffffffffffffffffffffffffffffffffffffffff00ffffffffffff1666010000000000008360068111156147f2576147f2614e4e565b021790555060608201518154608084015160a085015160c0909501517fffffffffffffffffffffffffffffffffffffffffffffff0000ffffffffffffff90921667010000000000000060ff948516027fffffffffffffffffffffffffffffffffffffffffffffff00ffffffffffffffff16176801000000000000000091841691909102177fffffffffffffffffffffffffffffffffffffffffff0000ffffffffffffffffff166901000000000000000000948316949094027fffffffffffffffffffffffffffffffffffffffffff00ffffffffffffffffffff16939093176a01000000000000000000009190931602919091179055979650505050505050565b60006a636f6e736f6c652e6c6f679050600080835160208501845afa505050565b60405180608001604052806004906020820280368337509192915050565b60006020828403121561494357600080fd5b5035919050565b80357fffffffffffffffffffffffffffffffffffffffffffffffff000000000000000081168114612ab857600080fd5b600060a0828403121561498c57600080fd5b50919050565b73ffffffffffffffffffffffffffffffffffffffff8116811461440b57600080fd5b60008060008061010085870312156149cb57600080fd5b6149d48561494a565b9350602085013592506149ea866040870161497a565b915060e08501356149fa81614992565b939692955090935050565b803567ffffffffffffffff81168114612ab857600080fd5b600060208284031215614a2f57600080fd5b614a3882614a05565b9392505050565b60008083601f840112614a5157600080fd5b50813567ffffffffffffffff811115614a6957600080fd5b6020830191508360208260061b8501011115614a8457600080fd5b9250929050565b600080600080600060808688031215614aa357600080fd5b8535614aae81614992565b945060208601359350604086013567ffffffffffffffff811115614ad157600080fd5b614add88828901614a3f565b9094509250614af090506060870161494a565b90509295509295909350565b60008060208385031215614b0f57600080fd5b823567ffffffffffffffff80821115614b2757600080fd5b818501915085601f830112614b3b57600080fd5b813581811115614b4a57600080fd5b8660208260051b8501011115614b5f57600080fd5b60209290920196919550909350505050565b60008060408385031215614b8457600080fd5b614b8d8361494a565b91506020830135614b9d81614992565b809150509250929050565b801515811461440b57600080fd5b600080600080600080600060c0888a031215614bd157600080fd5b8735614bdc81614992565b965060208801359550604088013567ffffffffffffffff811115614bff57600080fd5b614c0b8a828b01614a3f565b9096509450614c1e90506060890161494a565b92506080880135614c2e81614ba8565b915060a0880135614c3e81614992565b8091505092959891949750929550565b60008060c08385031215614c6157600080fd5b82359150614c72846020850161497a565b90509250929050565b7f4e487b7100000000000000000000000000000000000000000000000000000000600052601160045260246000fd5b81810381811115613bbf57613bbf614c7b565b600060208284031215614ccf57600080fd5b8151614a3881614ba8565b80820180821115613bbf57613bbf614c7b565b600060208284031215614cff57600080fd5b813560ff81168114614a3857600080fd5b7f4e487b7100000000000000000000000000000000000000000000000000000000600052604160045260246000fd5b803560078110612ab857600080fd5b600060408284031215614d6057600080fd5b6040516040810181811067ffffffffffffffff82111715614daa577f4e487b7100000000000000000000000000000000000000000000000000000000600052604160045260246000fd5b604052614db683614a05565b8152614dc460208401614d3f565b60208201529392505050565b8082028115828204841417613bbf57613bbf614c7b565b7f4e487b7100000000000000000000000000000000000000000000000000000000600052603260045260246000fd5b60007fffffffffffffffffffffffffffffffffffffffffffffffffffffffffffffffff8203614e4757614e47614c7b565b5060010190565b7f4e487b7100000000000000000000000000000000000000000000000000000000600052602160045260246000fd5b60078110614eb4577f4e487b7100000000000000000000000000000000000000000000000000000000600052602160045260246000fd5b9052565b6060808252810184905260008560808301825b87811015614f165767ffffffffffffffff614ee584614a05565b1682526020614ef5818501614d3f565b614f0182850182614e7d565b50506040928301929190910190600101614ecb565b507fffffffffffffffffffffffffffffffffffffffffffffffff000000000000000095909516602084015250506040015292915050565b7f4e487b7100000000000000000000000000000000000000000000000000000000600052601260045260246000fd5b600082614f8b57614f8b614f4d565b500490565b62ffffff828116828216039080821115614fac57614fac614c7b565b5092915050565b60005b83811015614fce578181015183820152602001614fb6565b50506000910152565b7f5f706f6b652061742065706f636820000000000000000000000000000000000081526000825161500f81600f850160208701614fb3565b91909101600f0192915050565b60ff8181168382160190811115613bbf57613bbf614c7b565b600060ff821660ff810361504b5761504b614c7b565b60010192915050565b600081518084526020808501945080840160005b838110156150a3578151805167ffffffffffffffff16885283015161508f84890182614e7d565b506040969096019590820190600101615068565b509495945050505050565b8381526060602082015260006150c76060830185615054565b90507fffffffffffffffffffffffffffffffffffffffffffffffff000000000000000083166040830152949350505050565b828152604060208201526000613fd66040830184615054565b60ff8281168282160390811115613bbf57613bbf614c7b565b7f5f636f6d707574654d6f76652061742065706f63682000000000000000000000815260008251615163816016850160208701614fb3565b9190910160160192915050565b6040810161517e8285614e7d565b614a386020830184614e7d565b7f41465445522000000000000000000000000000000000000000000000000000008152600082516151c3816006850160208701614fb3565b9190910160060192915050565b600060ff8316806151e3576151e3614f4d565b8060ff84160491505092915050565b60ff8181168382160290811690818114614fac57614fac614c7b565b62ffffff818116838216019080821115614fac57614fac614c7b565b60008160000b7fffffffffffffffffffffffffffffffffffffffffffffffffffffffffffffff80810361525f5761525f614c7b565b60000392915050565b60008151808452615280816020860160208601614fb3565b601f017fffffffffffffffffffffffffffffffffffffffffffffffffffffffffffffffe0169290920160200192915050565b6060815260006152c56060830186615268565b82810360208401526152d78186615268565b905082810360408401526152eb8185615268565b9695505050505050565b6040815260006153086040830185615268565b828103602084015261531a8185615268565b95945050505050565b60008351615335818460208801614fb3565b835190830190615349818360208801614fb3565b01949350505050565b6080815260006153656080830187615268565b82810360208401526153778187615268565b9050828103604084015261538b8186615268565b9050828103606084015261539f8185615268565b979650505050505050565b6060815260006153bd6060830186615268565b82810360208401526153cf8186615268565b915050826040830152949350505050565b6060815260006153f36060830186615268565b82810360208401526154058186615268565b91505073ffffffffffffffffffffffffffffffffffffffff83166040830152949350505050565b600381810b9083900b01637fffffff81137fffffffffffffffffffffffffffffffffffffffffffffffffffffffff8000000082121715613bbf57613bbf614c7b565b67ffffffffffffffff818116838216019080821115614fac57614fac614c7b565b6080815260006154a26080830187615268565b82810360208401526154b48187615268565b905073ffffffffffffffffffffffffffffffffffffffff85166040840152828103606084015261539f8185615268565b7f5f75706461746543656c6c46726f6d4e65696768626f722020696e646578000081526000825161551c81601e850160208701614fb3565b91909101601e0192915050565b600181815b8085111561558257817fffffffffffffffffffffffffffffffffffffffffffffffffffffffffffffffff0482111561556857615568614c7b565b8085161561557557918102915b93841c939080029061552e565b509250929050565b60008261559957506001613bbf565b816155a657506000613bbf565b81600181146155bc57600281146155c6576155e2565b6001915050613bbf565b60ff8411156155d7576155d7614c7b565b50506001821b613bbf565b5060208310610133831016604e8410600b8410161715615605575081810a613bbf565b61560f8383615529565b807fffffffffffffffffffffffffffffffffffffffffffffffffffffffffffffffff0482111561564157615641614c7b565b029392505050565b6000614a3860ff84168361558a565b6000614a38838361558a565b600082810b9082900b037fffffffffffffffffffffffffffffffffffffffffffffffffffffffffffffff808112607f82131715613bbf57613bbf614c7b565b600081810b9083900b01607f81137fffffffffffffffffffffffffffffffffffffffffffffffffffffffffffffff8082121715613bbf57613bbf614c7b565b7f4146544552205f75706461746543656c6c46726f6d4e65696768626f7220206981527f6e64657800000000000000000000000000000000000000000000000000000000602082015260008251615740816024850160208701614fb3565b919091016024019291505056fe25732d2d2d2d2d2d2d2d2d2d2d2d2d2d2d2d2d2d2d2d2d2d2d2d2d2d2d2d2d2d2d2d2d2d2d2d2d2d2d2d2d2d2d2d2d2d2d2d2d2d2d2d2d2d2d2d2d2d2d2d2da2646970667358221220b6f031e5d135aeb1618321c7e0f90f3a3e275cb0ea6fc9e4f14e6af73837521264736f6c63430008140033",
  "linkReferences": {},
  "deployedLinkReferences": {},
  "devdoc": {
    "errors": {
      "ReserveTooLow(uint256,uint256)": [
        {
          "params": {
            "expected": "amount required to proceed",
            "inReserve": "amount in reserver as the time of the call"
          }
        }
      ]
    },
    "events": {
      "CommitmentCancelled(address,uint24)": {
        "params": {
          "epoch": "epoch number on which this commit belongs to",
          "player": "account taking the staking risk (can be a different account than the one controlling the gems)"
        }
      },
      "CommitmentMade(address,uint24,bytes24)": {
        "params": {
          "commitmentHash": "the hash of moves",
          "epoch": "epoch number on which this commit belongs to",
          "player": "account taking the staking risk (can be a different account than the one controlling the gems)"
        }
      },
      "CommitmentRevealed(address,uint24,bytes24,(uint64,uint8)[],bytes24,uint256)": {
        "params": {
          "commitmentHash": "the hash of the moves",
          "epoch": "epoch number on which this commit belongs to",
          "furtherMoves": "hash of further moves, unless bytes32(0) which indicate end.",
          "moves": "the moves",
          "player": "account who commited"
        }
      },
      "CommitmentVoid(address,uint24,uint256,bytes24)": {
        "params": {
          "amountBurnt": "amount of token to burn",
          "epoch": "epoch number on which this commit belongs to",
          "furtherMoves": "hash of further moves, unless bytes32(0) which indicate end.",
          "player": "the account that made the commitment"
        }
      },
      "MoveProcessed(uint64,address,uint8,uint8)": {
        "params": {
          "newColor": "color that takes over",
          "oldColor": "previous color of the cell",
          "player": "account making the move",
          "position": "cell at which the move take place"
        }
      },
      "ReserveDeposited(address,uint256,uint256)": {
        "params": {
          "amountDeposited": "the number of tokens deposited",
          "newAmount": "the number of tokens in reserver as a result",
          "player": "account receiving the token in the reserve"
        }
      },
      "ReserveWithdrawn(address,uint256,uint256)": {
        "params": {
          "amountWithdrawn": "the number of tokens withdrawnn",
          "newAmount": "the number of tokens in reserver as a result",
          "player": "account withdrawing the tokens"
        }
      }
    },
    "kind": "dev",
    "methods": {
      "acknowledgeMissedReveal(address,bytes32,(uint64,uint8)[],bytes24)": {
        "params": {
          "furtherMoves": "if moves cannot be contained in one tx, further moves are represented by a hash to reveal too",
          "moves": "the actual moves",
          "player": "the account who committed the move",
          "secret": "the secret used to make the commit"
        }
      },
      "addToReserve(uint256,(uint256,uint256,uint8,bytes32,bytes32))": {
        "params": {
          "permit": "permit EIP2612, .value = zero if not needed",
          "tokensAmountToAdd": "amount of tokens to add"
        }
      },
      "makeCommitment(bytes24,address)": {
        "params": {
          "commitmentHash": "the hash of the moves",
          "payee": "address to send ETH to along the commitment. Can be used to pay for reveal"
        }
      },
      "makeCommitmentWithExtraReserve(bytes24,uint256,(uint256,uint256,uint8,bytes32,bytes32),address)": {
        "params": {
          "commitmentHash": "the has of the moves",
          "payee": "address to send ETH to along the commitment. Can be used to pay for reveal",
          "permit": "permit EIP2612, value = zero if not needed",
          "tokensAmountToAdd": "amount of tokens to add to the reserve. the resulting total must be enough to cover the moves"
        }
      },
      "poke(uint64)": {
        "params": {
          "position": "the cell position"
        }
      },
      "pokeMultiple(uint64[])": {
        "params": {
          "positions": "cell positions to collect from"
        }
      },
      "reveal(address,bytes32,(uint64,uint8)[],bytes24,bool,address)": {
        "params": {
          "furtherMoves": "if moves cannot be contained in one tx, further moves are represented by a hash to reveal too  Note that you have to that have enough moves (specified by MAX_NUM_MOVES_PER_HASH = 32)",
          "moves": "the actual moves",
          "payee": "address to send ETH to along the reveal",
          "player": "the account who committed the move",
          "secret": "the secret used to make the commit",
          "useReserve": "whether the tokens are taken from the reserve or from approvals.  This allow player to keep their reserve intact and use it on their next move.  Note that this require the Stratagems contract to have enough allowance."
        }
      },
      "withdrawFromReserve(uint256)": {
        "params": {
          "amount": "number of tokens to withdraw"
        }
      }
    },
    "version": 1
  },
  "evm": {
    "gasEstimates": {
      "creation": {
        "codeDepositCost": "4493200",
        "executionCost": "infinite",
        "totalCost": "infinite"
      },
      "external": {
        "acknowledgeMissedReveal(address,bytes32,(uint64,uint8)[],bytes24)": "infinite",
        "acknowledgeMissedRevealByBurningAllReserve()": "infinite",
        "addToReserve(uint256,(uint256,uint256,uint8,bytes32,bytes32))": "infinite",
        "cancelCommitment()": "infinite",
        "makeCommitment(bytes24,address)": "infinite",
        "makeCommitmentWithExtraReserve(bytes24,uint256,(uint256,uint256,uint8,bytes32,bytes32),address)": "infinite",
        "poke(uint64)": "infinite",
        "pokeMultiple(uint64[])": "infinite",
        "reveal(address,bytes32,(uint64,uint8)[],bytes24,bool,address)": "infinite",
        "withdrawFromReserve(uint256)": "infinite"
      }
    }
  },
  "storageLayout": {
    "storage": [
      {
        "astId": 15244,
        "contract": "src/game/routes/StratagemsSetters.sol:StratagemsSetters",
        "label": "_cells",
        "offset": 0,
        "slot": "0",
        "type": "t_mapping(t_uint256,t_struct(Cell)12775_storage)"
      },
      {
        "astId": 15248,
        "contract": "src/game/routes/StratagemsSetters.sol:StratagemsSetters",
        "label": "_owners",
        "offset": 0,
        "slot": "1",
        "type": "t_mapping(t_uint256,t_uint256)"
      },
      {
        "astId": 15252,
        "contract": "src/game/routes/StratagemsSetters.sol:StratagemsSetters",
        "label": "_tokensInReserve",
        "offset": 0,
        "slot": "2",
        "type": "t_mapping(t_address,t_uint256)"
      },
      {
        "astId": 15257,
        "contract": "src/game/routes/StratagemsSetters.sol:StratagemsSetters",
        "label": "_commitments",
        "offset": 0,
        "slot": "3",
        "type": "t_mapping(t_address,t_struct(Commitment)12780_storage)"
      },
      {
        "astId": 15263,
        "contract": "src/game/routes/StratagemsSetters.sol:StratagemsSetters",
        "label": "_operatorsForAll",
        "offset": 0,
        "slot": "4",
        "type": "t_mapping(t_address,t_mapping(t_address,t_bool))"
      },
      {
        "astId": 15267,
        "contract": "src/game/routes/StratagemsSetters.sol:StratagemsSetters",
        "label": "_operators",
        "offset": 0,
        "slot": "5",
        "type": "t_mapping(t_uint256,t_address)"
      }
    ],
    "types": {
      "t_address": {
        "encoding": "inplace",
        "label": "address",
        "numberOfBytes": "20"
      },
      "t_bool": {
        "encoding": "inplace",
        "label": "bool",
        "numberOfBytes": "1"
      },
      "t_bytes24": {
        "encoding": "inplace",
        "label": "bytes24",
        "numberOfBytes": "24"
      },
      "t_enum(Color)12704": {
        "encoding": "inplace",
        "label": "enum UsingStratagemsTypes.Color",
        "numberOfBytes": "1"
      },
      "t_int8": {
        "encoding": "inplace",
        "label": "int8",
        "numberOfBytes": "1"
      },
      "t_mapping(t_address,t_bool)": {
        "encoding": "mapping",
        "key": "t_address",
        "label": "mapping(address => bool)",
        "numberOfBytes": "32",
        "value": "t_bool"
      },
      "t_mapping(t_address,t_mapping(t_address,t_bool))": {
        "encoding": "mapping",
        "key": "t_address",
        "label": "mapping(address => mapping(address => bool))",
        "numberOfBytes": "32",
        "value": "t_mapping(t_address,t_bool)"
      },
      "t_mapping(t_address,t_struct(Commitment)12780_storage)": {
        "encoding": "mapping",
        "key": "t_address",
        "label": "mapping(address => struct UsingStratagemsTypes.Commitment)",
        "numberOfBytes": "32",
        "value": "t_struct(Commitment)12780_storage"
      },
      "t_mapping(t_address,t_uint256)": {
        "encoding": "mapping",
        "key": "t_address",
        "label": "mapping(address => uint256)",
        "numberOfBytes": "32",
        "value": "t_uint256"
      },
      "t_mapping(t_uint256,t_address)": {
        "encoding": "mapping",
        "key": "t_uint256",
        "label": "mapping(uint256 => address)",
        "numberOfBytes": "32",
        "value": "t_address"
      },
      "t_mapping(t_uint256,t_struct(Cell)12775_storage)": {
        "encoding": "mapping",
        "key": "t_uint256",
        "label": "mapping(uint256 => struct UsingStratagemsTypes.Cell)",
        "numberOfBytes": "32",
        "value": "t_struct(Cell)12775_storage"
      },
      "t_mapping(t_uint256,t_uint256)": {
        "encoding": "mapping",
        "key": "t_uint256",
        "label": "mapping(uint256 => uint256)",
        "numberOfBytes": "32",
        "value": "t_uint256"
      },
      "t_struct(Cell)12775_storage": {
        "encoding": "inplace",
        "label": "struct UsingStratagemsTypes.Cell",
        "members": [
          {
            "astId": 12761,
            "contract": "src/game/routes/StratagemsSetters.sol:StratagemsSetters",
            "label": "lastEpochUpdate",
            "offset": 0,
            "slot": "0",
            "type": "t_uint24"
          },
          {
            "astId": 12763,
            "contract": "src/game/routes/StratagemsSetters.sol:StratagemsSetters",
            "label": "epochWhenTokenIsAdded",
            "offset": 3,
            "slot": "0",
            "type": "t_uint24"
          },
          {
            "astId": 12766,
            "contract": "src/game/routes/StratagemsSetters.sol:StratagemsSetters",
            "label": "color",
            "offset": 6,
            "slot": "0",
            "type": "t_enum(Color)12704"
          },
          {
            "astId": 12768,
            "contract": "src/game/routes/StratagemsSetters.sol:StratagemsSetters",
            "label": "life",
            "offset": 7,
            "slot": "0",
            "type": "t_uint8"
          },
          {
            "astId": 12770,
            "contract": "src/game/routes/StratagemsSetters.sol:StratagemsSetters",
            "label": "delta",
            "offset": 8,
            "slot": "0",
            "type": "t_int8"
          },
          {
            "astId": 12772,
            "contract": "src/game/routes/StratagemsSetters.sol:StratagemsSetters",
            "label": "enemyMap",
            "offset": 9,
            "slot": "0",
            "type": "t_uint8"
          },
          {
            "astId": 12774,
            "contract": "src/game/routes/StratagemsSetters.sol:StratagemsSetters",
            "label": "distribution",
            "offset": 10,
            "slot": "0",
            "type": "t_uint8"
          }
        ],
        "numberOfBytes": "32"
      },
      "t_struct(Commitment)12780_storage": {
        "encoding": "inplace",
        "label": "struct UsingStratagemsTypes.Commitment",
        "members": [
          {
            "astId": 12777,
            "contract": "src/game/routes/StratagemsSetters.sol:StratagemsSetters",
            "label": "hash",
            "offset": 0,
            "slot": "0",
            "type": "t_bytes24"
          },
          {
            "astId": 12779,
            "contract": "src/game/routes/StratagemsSetters.sol:StratagemsSetters",
            "label": "epoch",
            "offset": 24,
            "slot": "0",
            "type": "t_uint24"
          }
        ],
        "numberOfBytes": "32"
      },
      "t_uint24": {
        "encoding": "inplace",
        "label": "uint24",
        "numberOfBytes": "3"
      },
      "t_uint256": {
        "encoding": "inplace",
        "label": "uint256",
        "numberOfBytes": "32"
      },
      "t_uint8": {
        "encoding": "inplace",
        "label": "uint8",
        "numberOfBytes": "1"
      }
    }
  },
  "userdoc": {
    "errors": {
      "CanStillReveal()": [
        {
          "notice": "Player have to reveal if they can Stratagems will prevent them from acknowledging missed reveal if there is still time to reveal."
        }
      ],
      "CommitmentHashNotMatching()": [
        {
          "notice": "Player have to reveal their commitment using the exact same move values  If they provide different value, the commitment hash will differ and Stratagems will reject their reveal."
        }
      ],
      "GameNotStarted()": [
        {
          "notice": "Game has not started yet, can't perform any action"
        }
      ],
      "InCommitmentPhase()": [
        {
          "notice": "When in Commit phase, player can make new commitment but they cannot reveal their move yet."
        }
      ],
      "InRevealPhase()": [
        {
          "notice": "When in Reveal phase, it is not possible to commit new moves or cancel previous commitment  During Reveal phase, players have to reveal their commitment, if not already done."
        }
      ],
      "InvalidEpoch()": [
        {
          "notice": "Player can only reveal their move in the same epoch they commited.abi  If a player reveal later it can only do to minimize the reserve burn cost by calling : `acknowledgeMissedReveal`"
        }
      ],
      "InvalidFurtherMoves()": [
        {
          "notice": "Player can make arbitrary number of moves per epoch. To do so they group moves into (MAX_NUM_MOVES_PER_HASH = 32) moves  This result in a recursive series of hash that they can then submit in turn while revealing.  The limit  (MAX_NUM_MOVES_PER_HASH = 32) ensure a reveal batch fits in a block."
        }
      ],
      "NothingToReveal()": [
        {
          "notice": "Player can only reveal moves they commited."
        }
      ],
      "PreviousCommitmentNotRevealed()": [
        {
          "notice": "Previous commitment need to be revealed before making a new one. Even if the corresponding reveal phase has passed.\\  It is also not possible to withdraw any amount from reserve until the commitment is revealed.\\If player lost the information to reveal, it can acknowledge failure which will burn all its reserve.\\"
        }
      ],
      "ReserveTooLow(uint256,uint256)": [
        {
          "notice": "to make a commitment you always need at least one `config.numTokensPerGems` amount in reserve  Player also need one `config.numTokensPerGems`  per moves during the Reveal phase."
        }
      ]
    },
    "events": {
      "CommitmentCancelled(address,uint24)": {
        "notice": "A player has cancelled its current commitment (before it reached the reveal phase)"
      },
      "CommitmentMade(address,uint24,bytes24)": {
        "notice": "A player has commited to make a move and reveal it on the reveal phase"
      },
      "CommitmentRevealed(address,uint24,bytes24,(uint64,uint8)[],bytes24,uint256)": {
        "notice": "Player has revealed its previous commitment"
      },
      "CommitmentVoid(address,uint24,uint256,bytes24)": {
        "notice": "A player has canceled a previous commitment by burning some tokens"
      },
      "MoveProcessed(uint64,address,uint8,uint8)": {
        "notice": "A move has been revealed."
      },
      "ReserveDeposited(address,uint256,uint256)": {
        "notice": "Player has deposited token in the reserve, allowing it to use that much in game"
      },
      "ReserveWithdrawn(address,uint256,uint256)": {
        "notice": "Player have withdrawn token from the reserve"
      }
    },
    "kind": "user",
    "methods": {
      "acknowledgeMissedReveal(address,bytes32,(uint64,uint8)[],bytes24)": {
        "notice": "called by player if they missed the reveal phase and want to minimze the token loss.  By providing the moves, they will be slashed only the amount of token required to make the moves"
      },
      "acknowledgeMissedRevealByBurningAllReserve()": {
        "notice": "should only be called as last resort this will burn all tokens in reserve If player has access to the secret, better call `acknowledgeMissedReveal`"
      },
      "addToReserve(uint256,(uint256,uint256,uint8,bytes32,bytes32))": {
        "notice": "called by players to add tokens to their reserve"
      },
      "cancelCommitment()": {
        "notice": "called by players to cancel their current commitment  Can only be called during the commit phase in which the commitment was made  It cannot be called afterward"
      },
      "makeCommitment(bytes24,address)": {
        "notice": "called by players to commit their moves  this can be called multiple time in the same epoch, the last call overriding the previous.  When a commitment is made, it needs to be revealed in the reveal phase of the same epoch.abi  If missed, player can still reveal its moves but none of them will be resolved.   The player would lose its associated reserved amount."
      },
      "makeCommitmentWithExtraReserve(bytes24,uint256,(uint256,uint256,uint8,bytes32,bytes32),address)": {
        "notice": "called to make a commitment along with tokens to add to the reserve"
      },
      "pokeMultiple(uint64[])": {
        "notice": "poke and collect the tokens won across multiple cells"
      },
      "reveal(address,bytes32,(uint64,uint8)[],bytes24,bool,address)": {
        "notice": "called by player to reveal their moves  this is where the core logic of the game takes place  This is where the game board evolves  The game is designed so that reveal order does not matter"
      },
      "withdrawFromReserve(uint256)": {
        "notice": "called by players to withdraw tokens from the reserve  can only be called if no commitments are pending  Note that while you can withdraw after commiting, note that if you do not have enough tokens  you'll have your commitment failing."
      }
    },
    "version": 1
  },
  "argsData": "0x000000000000000000000000df193665aad68cb3d0af345e0dccdde04192b628000000000000000000000000deaddeaddeaddeaddeaddeaddeaddeaddeaddead000000000000000000000000000000000000000000000000000000000000000000000000000000000000000000000000000000000000000000000000000143700000000000000000000000000000000000000000000000000000000000000e1000000000000000000000000000000000000000000000000000000000000000070000000000000000000000000000000000000000000000000de0b6b3a7640000",
  "transaction": {
    "hash": "0x75be50c922aff79742da2c90bdec0e668b5f62ee2b582d3e492d9e03ae77f05a",
    "nonce": "0xa6",
    "origin": "0x61c461ecc993aadeb7e4b47e96d1b8cc37314b20"
  }
}