{
  "address": "0x564c4045fce3de04911c0bd1ed79db9c8781cd0f",
  "abi": [
    {
      "inputs": [
        {
          "internalType": "address",
          "name": "implementationAddress",
          "type": "address"
        },
        {
          "internalType": "address",
          "name": "ownerAddress",
          "type": "address"
        },
        {
          "internalType": "bytes",
          "name": "data",
          "type": "bytes"
        }
      ],
      "stateMutability": "payable",
      "type": "constructor"
    },
    {
      "anonymous": false,
      "inputs": [
        {
          "indexed": true,
          "internalType": "address",
          "name": "previousOwner",
          "type": "address"
        },
        {
          "indexed": true,
          "internalType": "address",
          "name": "newOwner",
          "type": "address"
        }
      ],
      "name": "OwnershipTransferred",
      "type": "event"
    },
    {
      "anonymous": false,
      "inputs": [
        {
          "indexed": true,
          "internalType": "address",
          "name": "previousImplementation",
          "type": "address"
        },
        {
          "indexed": true,
          "internalType": "address",
          "name": "newImplementation",
          "type": "address"
        }
      ],
      "name": "ProxyImplementationUpdated",
      "type": "event"
    },
    {
      "stateMutability": "payable",
      "type": "fallback"
    },
    {
      "inputs": [],
      "name": "owner",
      "outputs": [
        {
          "internalType": "address",
          "name": "",
          "type": "address"
        }
      ],
      "stateMutability": "view",
      "type": "function"
    },
    {
      "inputs": [
        {
          "internalType": "bytes4",
          "name": "id",
          "type": "bytes4"
        }
      ],
      "name": "supportsInterface",
      "outputs": [
        {
          "internalType": "bool",
          "name": "",
          "type": "bool"
        }
      ],
      "stateMutability": "view",
      "type": "function"
    },
    {
      "inputs": [
        {
          "internalType": "address",
          "name": "newOwner",
          "type": "address"
        }
      ],
      "name": "transferOwnership",
      "outputs": [],
      "stateMutability": "nonpayable",
      "type": "function"
    },
    {
      "inputs": [
        {
          "internalType": "address",
          "name": "newImplementation",
          "type": "address"
        }
      ],
      "name": "upgradeTo",
      "outputs": [],
      "stateMutability": "nonpayable",
      "type": "function"
    },
    {
      "inputs": [
        {
          "internalType": "address",
          "name": "newImplementation",
          "type": "address"
        },
        {
          "internalType": "bytes",
          "name": "data",
          "type": "bytes"
        }
      ],
      "name": "upgradeToAndCall",
      "outputs": [],
      "stateMutability": "payable",
      "type": "function"
    },
    {
      "stateMutability": "payable",
      "type": "receive"
    }
  ],
  "contractName": "EIP173Proxy",
  "sourceName": "solc_0.8/EIP173/EIP173Proxy.sol",
  "bytecode": "0x608060405260405162000c7838038062000c788339810160408190526200002691620001e4565b620000318262000046565b6200003d8382620000b5565b505050620002db565b5f6200005e5f8051602062000c588339815191525490565b9050815f8051602062000c5883398151915255816001600160a01b0316816001600160a01b03167f8be0079c531659141344cd1fd0a4f28419497f9722a3daafe3b4186f6b6457e060405160405180910390a35050565b7f360894a13ba1a3210667c828492db98dca3e2076cc3735a920a3ca505d382bbc8054908390556040516001600160a01b0380851691908316907f5570d70a002632a7b0b3c9304cc89efb62d8da9eca0dbd7752c83b7379068296905f90a38151156200018b575f836001600160a01b031683604051620001379190620002be565b5f60405180830381855af49150503d805f811462000171576040519150601f19603f3d011682016040523d82523d5f602084013e62000176565b606091505b505090508062000189573d805f803e805ffd5b505b505050565b80516001600160a01b0381168114620001a7575f80fd5b919050565b634e487b7160e01b5f52604160045260245ffd5b5f5b83811015620001dc578181015183820152602001620001c2565b50505f910152565b5f805f60608486031215620001f7575f80fd5b620002028462000190565b9250620002126020850162000190565b60408501519092506001600160401b03808211156200022f575f80fd5b818601915086601f83011262000243575f80fd5b815181811115620002585762000258620001ac565b604051601f8201601f19908116603f01168101908382118183101715620002835762000283620001ac565b816040528281528960208487010111156200029c575f80fd5b620002af836020830160208801620001c0565b80955050505050509250925092565b5f8251620002d1818460208701620001c0565b9190910192915050565b61096f80620002e95f395ff3fe60806040526004361061005d575f3560e01c80634f1ef286116100425780634f1ef286146101265780638da5cb5b14610139578063f2fde38b14610172576100c9565b806301ffc9a7146100d35780633659cfe614610107576100c9565b366100c9576040517f08c379a000000000000000000000000000000000000000000000000000000000815260206004820152600e60248201527f45544845525f52454a454354454400000000000000000000000000000000000060448201526064015b60405180910390fd5b6100d1610191565b005b3480156100de575f80fd5b506100f26100ed3660046107f2565b6101db565b60405190151581526020015b60405180910390f35b348015610112575f80fd5b506100d1610121366004610859565b6103a6565b6100d1610134366004610872565b610477565b348015610144575f80fd5b5061014d610571565b60405173ffffffffffffffffffffffffffffffffffffffff90911681526020016100fe565b34801561017d575f80fd5b506100d161018c366004610859565b61059f565b7f360894a13ba1a3210667c828492db98dca3e2076cc3735a920a3ca505d382bbc545f3681823780813683855af491503d8082833e8280156101d1578183f35b8183fd5b50505050565b5f7f01ffc9a7000000000000000000000000000000000000000000000000000000007fffffffff000000000000000000000000000000000000000000000000000000008316148061026d57507f7f5828d0000000000000000000000000000000000000000000000000000000007fffffffff000000000000000000000000000000000000000000000000000000008316145b1561027a57506001919050565b7fffffffff0000000000000000000000000000000000000000000000000000000080831690036102ab57505f919050565b7f360894a13ba1a3210667c828492db98dca3e2076cc3735a920a3ca505d382bbc546040517f01ffc9a70000000000000000000000000000000000000000000000000000000081527fffffffff000000000000000000000000000000000000000000000000000000008416600482015273ffffffffffffffffffffffffffffffffffffffff8216906301ffc9a790602401602060405180830381865afa925050508015610393575060408051601f3d9081017fffffffffffffffffffffffffffffffffffffffffffffffffffffffffffffffe0168201909252610390918101906108ee565b60015b61039f57505f92915050565b9392505050565b7fb53127684a568b3173ae13b9f8a6016e243e63b6e8ee1178d6a717850b5d61035473ffffffffffffffffffffffffffffffffffffffff163373ffffffffffffffffffffffffffffffffffffffff161461045c576040517f08c379a000000000000000000000000000000000000000000000000000000000815260206004820152600e60248201527f4e4f545f415554484f52495a454400000000000000000000000000000000000060448201526064016100c0565b6104748160405180602001604052805f81525061065e565b50565b7fb53127684a568b3173ae13b9f8a6016e243e63b6e8ee1178d6a717850b5d61035473ffffffffffffffffffffffffffffffffffffffff163373ffffffffffffffffffffffffffffffffffffffff161461052d576040517f08c379a000000000000000000000000000000000000000000000000000000000815260206004820152600e60248201527f4e4f545f415554484f52495a454400000000000000000000000000000000000060448201526064016100c0565b61056c8383838080601f0160208091040260200160405190810160405280939291908181526020018383808284375f9201919091525061065e92505050565b505050565b5f61059a7fb53127684a568b3173ae13b9f8a6016e243e63b6e8ee1178d6a717850b5d61035490565b905090565b7fb53127684a568b3173ae13b9f8a6016e243e63b6e8ee1178d6a717850b5d61035473ffffffffffffffffffffffffffffffffffffffff163373ffffffffffffffffffffffffffffffffffffffff1614610655576040517f08c379a000000000000000000000000000000000000000000000000000000000815260206004820152600e60248201527f4e4f545f415554484f52495a454400000000000000000000000000000000000060448201526064016100c0565b61047481610746565b7f360894a13ba1a3210667c828492db98dca3e2076cc3735a920a3ca505d382bbc80549083905560405173ffffffffffffffffffffffffffffffffffffffff80851691908316907f5570d70a002632a7b0b3c9304cc89efb62d8da9eca0dbd7752c83b7379068296905f90a381511561056c575f8373ffffffffffffffffffffffffffffffffffffffff16836040516106f7919061090d565b5f60405180830381855af49150503d805f811461072f576040519150601f19603f3d011682016040523d82523d5f602084013e610734565b606091505b50509050806101d5573d805f803e805ffd5b5f61076f7fb53127684a568b3173ae13b9f8a6016e243e63b6e8ee1178d6a717850b5d61035490565b9050817fb53127684a568b3173ae13b9f8a6016e243e63b6e8ee1178d6a717850b5d6103558173ffffffffffffffffffffffffffffffffffffffff168173ffffffffffffffffffffffffffffffffffffffff167f8be0079c531659141344cd1fd0a4f28419497f9722a3daafe3b4186f6b6457e060405160405180910390a35050565b5f60208284031215610802575f80fd5b81357fffffffff000000000000000000000000000000000000000000000000000000008116811461039f575f80fd5b803573ffffffffffffffffffffffffffffffffffffffff81168114610854575f80fd5b919050565b5f60208284031215610869575f80fd5b61039f82610831565b5f805f60408486031215610884575f80fd5b61088d84610831565b9250602084013567ffffffffffffffff808211156108a9575f80fd5b818601915086601f8301126108bc575f80fd5b8135818111156108ca575f80fd5b8760208285010111156108db575f80fd5b6020830194508093505050509250925092565b5f602082840312156108fe575f80fd5b8151801515811461039f575f80fd5b5f82515f5b8181101561092c5760208186018101518583015201610912565b505f92019182525091905056fea2646970667358221220b684f5b70c5366d5cfce68365932ccc48bc1e8ce159edd1546835e83f82a3f2964736f6c63430008140033b53127684a568b3173ae13b9f8a6016e243e63b6e8ee1178d6a717850b5d6103",
  "linkReferences": {},
  "deployedLinkReferences": {},
  "devdoc": {
    "kind": "dev",
    "methods": {},
    "version": 1
  },
  "evm": {
    "gasEstimates": {
      "creation": {
        "codeDepositCost": "483000",
        "executionCost": "infinite",
        "totalCost": "infinite"
      },
      "external": {
        "": "infinite",
        "owner()": "2359",
        "supportsInterface(bytes4)": "infinite",
        "transferOwnership(address)": "28275",
        "upgradeTo(address)": "28302",
        "upgradeToAndCall(address,bytes)": "infinite"
      },
      "internal": {
        "_owner()": "infinite",
        "_setOwner(address)": "25798"
      }
    }
  },
  "storageLayout": {
    "storage": [],
    "types": null
  },
  "userdoc": {
    "kind": "user",
    "methods": {},
    "notice": "Proxy implementing EIP173 for ownership management",
    "version": 1
  },
  "argsData": "0x0000000000000000000000003f75e916ac2871bcdeb8b6e5b28f29052407333600000000000000000000000061c461ecc993aadeb7e4b47e96d1b8cc37314b2000000000000000000000000000000000000000000000000000000000000000600000000000000000000000000000000000000000000000000000000000000000",
  "transaction": {
    "hash": "0x166317a721a5396c6775e747e1966601a59850f50c2ee823c20bbcb6d786f6a3",
    "nonce": "0x8c",
    "origin": "0x61c461ecc993aadeb7e4b47e96d1b8cc37314b20"
  }
}