{
  "address": "0xd51b777835d43a660e080ffd46ff3ad5ebd47d55",
  "abi": [
    {
      "inputs": [
        {
          "components": [
            {
              "internalType": "contract IERC20WithIERC2612",
              "name": "tokens",
              "type": "address"
            },
            {
              "internalType": "address payable",
              "name": "burnAddress",
              "type": "address"
            },
            {
              "internalType": "uint256",
              "name": "startTime",
              "type": "uint256"
            },
            {
              "internalType": "uint256",
              "name": "commitPhaseDuration",
              "type": "uint256"
            },
            {
              "internalType": "uint256",
              "name": "resolutionPhaseDuration",
              "type": "uint256"
            },
            {
              "internalType": "uint8",
              "name": "maxLife",
              "type": "uint8"
            },
            {
              "internalType": "uint256",
              "name": "numTokensPerGems",
              "type": "uint256"
            }
          ],
          "internalType": "struct UsingStratagemsTypes.Config",
          "name": "config",
          "type": "tuple"
        }
      ],
      "stateMutability": "nonpayable",
      "type": "constructor"
    },
    {
      "inputs": [],
      "name": "CanStillResolve",
      "type": "error"
    },
    {
      "inputs": [],
      "name": "CommitmentHashNotMatching",
      "type": "error"
    },
    {
      "inputs": [],
      "name": "GameNotStarted",
      "type": "error"
    },
    {
      "inputs": [],
      "name": "InCommitmentPhase",
      "type": "error"
    },
    {
      "inputs": [],
      "name": "InResolutionPhase",
      "type": "error"
    },
    {
      "inputs": [],
      "name": "InvalidCellOverwrite",
      "type": "error"
    },
    {
      "inputs": [],
      "name": "InvalidEpoch",
      "type": "error"
    },
    {
      "inputs": [],
      "name": "InvalidFurtherMoves",
      "type": "error"
    },
    {
      "inputs": [
        {
          "internalType": "uint256",
          "name": "life",
          "type": "uint256"
        },
        {
          "internalType": "int32",
          "name": "x",
          "type": "int32"
        },
        {
          "internalType": "int32",
          "name": "y",
          "type": "int32"
        }
      ],
      "name": "InvalidLifeConfiguration",
      "type": "error"
    },
    {
      "inputs": [],
      "name": "NotAuthorized",
      "type": "error"
    },
    {
      "inputs": [],
      "name": "NothingToResolve",
      "type": "error"
    },
    {
      "inputs": [],
      "name": "PreviousCommitmentNotResolved",
      "type": "error"
    },
    {
      "inputs": [
        {
          "internalType": "uint256",
          "name": "inReserve",
          "type": "uint256"
        },
        {
          "internalType": "uint256",
          "name": "expected",
          "type": "uint256"
        }
      ],
      "name": "ReserveTooLow",
      "type": "error"
    },
    {
      "anonymous": false,
      "inputs": [
        {
          "indexed": true,
          "internalType": "address",
          "name": "player",
          "type": "address"
        },
        {
          "indexed": true,
          "internalType": "uint24",
          "name": "epoch",
          "type": "uint24"
        }
      ],
      "name": "CommitmentCancelled",
      "type": "event"
    },
    {
      "anonymous": false,
      "inputs": [
        {
          "indexed": true,
          "internalType": "address",
          "name": "player",
          "type": "address"
        },
        {
          "indexed": true,
          "internalType": "uint24",
          "name": "epoch",
          "type": "uint24"
        },
        {
          "indexed": false,
          "internalType": "bytes24",
          "name": "commitmentHash",
          "type": "bytes24"
        }
      ],
      "name": "CommitmentMade",
      "type": "event"
    },
    {
      "anonymous": false,
      "inputs": [
        {
          "indexed": true,
          "internalType": "address",
          "name": "player",
          "type": "address"
        },
        {
          "indexed": true,
          "internalType": "uint24",
          "name": "epoch",
          "type": "uint24"
        },
        {
          "indexed": true,
          "internalType": "bytes24",
          "name": "commitmentHash",
          "type": "bytes24"
        },
        {
          "components": [
            {
              "internalType": "uint64",
              "name": "position",
              "type": "uint64"
            },
            {
              "internalType": "enum UsingStratagemsTypes.Color",
              "name": "color",
              "type": "uint8"
            }
          ],
          "indexed": false,
          "internalType": "struct UsingStratagemsTypes.Move[]",
          "name": "moves",
          "type": "tuple[]"
        },
        {
          "indexed": false,
          "internalType": "bytes24",
          "name": "furtherMoves",
          "type": "bytes24"
        },
        {
          "indexed": false,
          "internalType": "uint256",
          "name": "newReserveAmount",
          "type": "uint256"
        }
      ],
      "name": "CommitmentResolved",
      "type": "event"
    },
    {
      "anonymous": false,
      "inputs": [
        {
          "indexed": true,
          "internalType": "address",
          "name": "player",
          "type": "address"
        },
        {
          "indexed": true,
          "internalType": "uint24",
          "name": "epoch",
          "type": "uint24"
        },
        {
          "indexed": false,
          "internalType": "uint256",
          "name": "amountBurnt",
          "type": "uint256"
        },
        {
          "indexed": false,
          "internalType": "bytes24",
          "name": "furtherMoves",
          "type": "bytes24"
        }
      ],
      "name": "CommitmentVoid",
      "type": "event"
    },
    {
      "anonymous": false,
      "inputs": [
        {
          "components": [
            {
              "internalType": "uint64",
              "name": "position",
              "type": "uint64"
            },
            {
              "internalType": "address",
              "name": "owner",
              "type": "address"
            },
            {
              "internalType": "uint24",
              "name": "lastEpochUpdate",
              "type": "uint24"
            },
            {
              "internalType": "uint24",
              "name": "epochWhenTokenIsAdded",
              "type": "uint24"
            },
            {
              "internalType": "enum UsingStratagemsTypes.Color",
              "name": "color",
              "type": "uint8"
            },
            {
              "internalType": "uint8",
              "name": "life",
              "type": "uint8"
            },
            {
              "internalType": "int8",
              "name": "delta",
              "type": "int8"
            },
            {
              "internalType": "uint8",
              "name": "enemyMap",
              "type": "uint8"
            }
          ],
          "indexed": false,
          "internalType": "struct IStratagemsDebug.DebugCell[]",
          "name": "cells",
          "type": "tuple[]"
        }
      ],
      "name": "ForceCells",
      "type": "event"
    },
    {
      "anonymous": false,
      "inputs": [
        {
          "indexed": false,
          "internalType": "uint24",
          "name": "epoch",
          "type": "uint24"
        },
        {
          "components": [
            {
              "internalType": "uint64",
              "name": "position",
              "type": "uint64"
            },
            {
              "internalType": "address",
              "name": "owner",
              "type": "address"
            },
            {
              "internalType": "enum UsingStratagemsTypes.Color",
              "name": "color",
              "type": "uint8"
            },
            {
              "internalType": "uint8",
              "name": "life",
              "type": "uint8"
            }
          ],
          "indexed": false,
          "internalType": "struct IStratagemsDebug.SimpleCell[]",
          "name": "cells",
          "type": "tuple[]"
        }
      ],
      "name": "ForceSimpleCells",
      "type": "event"
    },
    {
      "anonymous": false,
      "inputs": [
        {
          "indexed": true,
          "internalType": "uint64",
          "name": "position",
          "type": "uint64"
        },
        {
          "indexed": true,
          "internalType": "address",
          "name": "player",
          "type": "address"
        },
        {
          "indexed": false,
          "internalType": "enum UsingStratagemsTypes.Color",
          "name": "oldColor",
          "type": "uint8"
        },
        {
          "indexed": false,
          "internalType": "enum UsingStratagemsTypes.Color",
          "name": "newColor",
          "type": "uint8"
        }
      ],
      "name": "MoveProcessed",
      "type": "event"
    },
    {
      "anonymous": false,
      "inputs": [
        {
          "indexed": true,
          "internalType": "address",
          "name": "player",
          "type": "address"
        },
        {
          "indexed": false,
          "internalType": "uint256",
          "name": "amountDeposited",
          "type": "uint256"
        },
        {
          "indexed": false,
          "internalType": "uint256",
          "name": "newAmount",
          "type": "uint256"
        }
      ],
      "name": "ReserveDeposited",
      "type": "event"
    },
    {
      "anonymous": false,
      "inputs": [
        {
          "indexed": true,
          "internalType": "address",
          "name": "player",
          "type": "address"
        },
        {
          "indexed": false,
          "internalType": "uint256",
          "name": "amountWithdrawn",
          "type": "uint256"
        },
        {
          "indexed": false,
          "internalType": "uint256",
          "name": "newAmount",
          "type": "uint256"
        }
      ],
      "name": "ReserveWithdrawn",
      "type": "event"
    },
    {
      "anonymous": false,
      "inputs": [
        {
          "indexed": false,
          "internalType": "uint256",
          "name": "newTime",
          "type": "uint256"
        },
        {
          "indexed": false,
          "internalType": "uint256",
          "name": "delta",
          "type": "uint256"
        }
      ],
      "name": "TimeIncreased",
      "type": "event"
    },
    {
      "inputs": [
        {
          "components": [
            {
              "internalType": "uint64",
              "name": "position",
              "type": "uint64"
            },
            {
              "internalType": "address",
              "name": "owner",
              "type": "address"
            },
            {
              "internalType": "uint24",
              "name": "lastEpochUpdate",
              "type": "uint24"
            },
            {
              "internalType": "uint24",
              "name": "epochWhenTokenIsAdded",
              "type": "uint24"
            },
            {
              "internalType": "enum UsingStratagemsTypes.Color",
              "name": "color",
              "type": "uint8"
            },
            {
              "internalType": "uint8",
              "name": "life",
              "type": "uint8"
            },
            {
              "internalType": "int8",
              "name": "delta",
              "type": "int8"
            },
            {
              "internalType": "uint8",
              "name": "enemyMap",
              "type": "uint8"
            }
          ],
          "internalType": "struct IStratagemsDebug.DebugCell[]",
          "name": "cells",
          "type": "tuple[]"
        }
      ],
      "name": "forceCells",
      "outputs": [],
      "stateMutability": "nonpayable",
      "type": "function"
    },
    {
      "inputs": [
        {
          "internalType": "address",
          "name": "player",
          "type": "address"
        },
        {
          "components": [
            {
              "internalType": "uint64",
              "name": "position",
              "type": "uint64"
            },
            {
              "internalType": "enum UsingStratagemsTypes.Color",
              "name": "color",
              "type": "uint8"
            }
          ],
          "internalType": "struct UsingStratagemsTypes.Move[]",
          "name": "moves",
          "type": "tuple[]"
        }
      ],
      "name": "forceMoves",
      "outputs": [],
      "stateMutability": "nonpayable",
      "type": "function"
    },
    {
      "inputs": [
        {
          "components": [
            {
              "internalType": "uint64",
              "name": "position",
              "type": "uint64"
            },
            {
              "internalType": "address",
              "name": "owner",
              "type": "address"
            },
            {
              "internalType": "enum UsingStratagemsTypes.Color",
              "name": "color",
              "type": "uint8"
            },
            {
              "internalType": "uint8",
              "name": "life",
              "type": "uint8"
            }
          ],
          "internalType": "struct IStratagemsDebug.SimpleCell[]",
          "name": "cells",
          "type": "tuple[]"
        }
      ],
      "name": "forceSimpleCells",
      "outputs": [],
      "stateMutability": "nonpayable",
      "type": "function"
    },
    {
      "inputs": [
        {
          "internalType": "uint256",
          "name": "id",
          "type": "uint256"
        }
      ],
      "name": "getRawCell",
      "outputs": [
        {
          "components": [
            {
              "internalType": "uint24",
              "name": "lastEpochUpdate",
              "type": "uint24"
            },
            {
              "internalType": "uint24",
              "name": "epochWhenTokenIsAdded",
              "type": "uint24"
            },
            {
              "internalType": "enum UsingStratagemsTypes.Color",
              "name": "color",
              "type": "uint8"
            },
            {
              "internalType": "uint8",
              "name": "life",
              "type": "uint8"
            },
            {
              "internalType": "int8",
              "name": "delta",
              "type": "int8"
            },
            {
              "internalType": "uint8",
              "name": "enemyMap",
              "type": "uint8"
            },
            {
              "internalType": "uint8",
              "name": "distribution",
              "type": "uint8"
            }
          ],
          "internalType": "struct UsingStratagemsTypes.Cell",
          "name": "",
          "type": "tuple"
        }
      ],
      "stateMutability": "view",
      "type": "function"
    },
    {
      "inputs": [
        {
          "internalType": "uint256",
          "name": "delta",
          "type": "uint256"
        }
      ],
      "name": "increaseTime",
      "outputs": [],
      "stateMutability": "nonpayable",
      "type": "function"
    },
    {
      "inputs": [],
      "name": "timestamp",
      "outputs": [
        {
          "internalType": "uint256",
          "name": "",
          "type": "uint256"
        }
      ],
      "stateMutability": "view",
      "type": "function"
    }
  ],
  "contractName": "StratagemsDebug",
  "sourceName": "src/game/debug/StratagemsDebug.sol",
  "bytecode": "0x61016060405234801562000011575f80fd5b50604051620045bb380380620045bb8339810160408190526200003491620000b0565b80516001600160a01b039081166080908152602083015190911661014052604082015160a0908152606083015160c09081529183015160e05282015160ff166101005201516101205262000158565b80516001600160a01b03811681146200009a575f80fd5b919050565b805160ff811681146200009a575f80fd5b5f60e08284031215620000c1575f80fd5b60405160e081016001600160401b0381118282101715620000f057634e487b7160e01b5f52604160045260245ffd5b604052620000fe8362000083565b81526200010e6020840162000083565b60208201526040830151604082015260608301516060820152608083015160808201526200013f60a084016200009f565b60a082015260c083015160c08201528091505092915050565b60805160a05160c05160e051610100516101205161014051614385620002365f395f61169d01525f81816101a9015281816106b201528181611f9901528181611ff2015281816120500152818161218b015281816121d401528181612f0d0152612fd701525f8181610b2d01528181611f13015281816130b5015281816130ec0152818161315a015261318801525f6111b601525f81816111d701526112a801525f818161120a015261126801525f8181610210015281816106d801528181611468015281816115db015281816116cd015261179701526143855ff3fe608060405234801561000f575f80fd5b506004361061006f575f3560e01c8063cd315b081161004d578063cd315b08146100b6578063d703f50a146100d6578063df971134146100e9575f80fd5b80632779347e146100735780633c9a2a1a14610088578063b80777ea1461009b575b5f80fd5b610086610081366004613850565b6100fc565b005b610086610096366004613925565b6102de565b6100a3610437565b6040519081526020015b60405180910390f35b6100c96100c4366004613925565b61046f565b6040516100ad91906139a2565b6100866100e4366004613a1c565b610569565b6100866100f7366004613b0f565b610e6f565b7fb53127684a568b3173ae13b9f8a6016e243e63b6e8ee1178d6a717850b5d61035473ffffffffffffffffffffffffffffffffffffffff163373ffffffffffffffffffffffffffffffffffffffff1614610182576040517fea8e4eb500000000000000000000000000000000000000000000000000000000815260040160405180910390fd5b5f8061018c6111ae565b9150915080156101a457816101a081613c60565b9250505b5f83517f00000000000000000000000000000000000000000000000000000000000000006101d29190613c9c565b6040517f23b872dd000000000000000000000000000000000000000000000000000000008152336004820152306024820152604481018290529091507f000000000000000000000000000000000000000000000000000000000000000073ffffffffffffffffffffffffffffffffffffffff16906323b872dd906064016020604051808303815f875af115801561026b573d5f803e3d5ffd5b505050506040513d601f19601f8201168201806040525081019061028f9190613cb3565b5073ffffffffffffffffffffffffffffffffffffffff85165f90815260026020526040812080548392906102c4908490613cd9565b909155506102d69050858486336112f6565b505050505050565b7fb53127684a568b3173ae13b9f8a6016e243e63b6e8ee1178d6a717850b5d61035473ffffffffffffffffffffffffffffffffffffffff163373ffffffffffffffffffffffffffffffffffffffff1614610399576040517f08c379a000000000000000000000000000000000000000000000000000000000815260206004820152600e60248201527f4e4f545f415554484f52495a454400000000000000000000000000000000000060448201526064015b60405180910390fd5b5f816103c37f0112c413de07a110ce0a9ace0c01e41b5b59462770325b042f0dc72c337f55f25490565b6103cd9190613cd9565b9050807f0112c413de07a110ce0a9ace0c01e41b5b59462770325b042f0dc72c337f55f2557f36e7cd7cbe0c64c4f819149d7127212cc2ebb56e948ae958ef18f6d1535871c961041b610437565b6040805191825260208201859052015b60405180910390a15050565b5f6104607f0112c413de07a110ce0a9ace0c01e41b5b59462770325b042f0dc72c337f55f25490565b61046a9042613cd9565b905090565b6040805160e0810182525f80825260208201819052918101829052606081018290526080810182905260a0810182905260c08101919091525f8281526020818152604091829020825160e081018452815462ffffff8082168352630100000082041693820193909352929091908301906601000000000000900460ff1660068111156104fd576104fd61393c565b600681111561050e5761050e61393c565b8152905460ff6701000000000000008204811660208401526801000000000000000082045f0b604084015269010000000000000000008204811660608401526a01000000000000000000009091041660809091015292915050565b7fb53127684a568b3173ae13b9f8a6016e243e63b6e8ee1178d6a717850b5d61035473ffffffffffffffffffffffffffffffffffffffff163373ffffffffffffffffffffffffffffffffffffffff16146105ef576040517fea8e4eb500000000000000000000000000000000000000000000000000000000815260040160405180910390fd5b5f6105f86111ae565b5090505f5b82518110156109b9575f83828151811061061957610619613cec565b602090810291909101810151805167ffffffffffffffff165f9081529182905260409091205490915062ffffff161561067e576040517ff9e4d84a00000000000000000000000000000000000000000000000000000000815260040160405180910390fd5b6040517f23b872dd0000000000000000000000000000000000000000000000000000000081523360048201523060248201527f000000000000000000000000000000000000000000000000000000000000000060448201527f000000000000000000000000000000000000000000000000000000000000000073ffffffffffffffffffffffffffffffffffffffff16906323b872dd906064016020604051808303815f875af1158015610733573d5f803e3d5ffd5b505050506040513d601f19601f820116820180604052508101906107579190613cb3565b505f8061076c835f015184604001518761180f565b915091506040518060e001604052808662ffffff1681526020018662ffffff168152602001846040015160068111156107a7576107a761393c565b815260608086015160ff9081166020808501919091525f87810b604080870191909152928716938501939093526080909301829052865167ffffffffffffffff16825281835290819020835181549385015162ffffff9081166301000000027fffffffffffffffffffffffffffffffffffffffffffffffffffff00000000000090951691161792909217808355908301519082907fffffffffffffffffffffffffffffffffffffffffffffffffff00ffffffffffff1666010000000000008360068111156108775761087761393c565b021790555060608201518154608084015160a085015160c0909501517fffffffffffffffffffffffffffffffffffffffffffffff0000ffffffffffffff90921667010000000000000060ff948516027fffffffffffffffffffffffffffffffffffffffffffffff00ffffffffffffffff16176801000000000000000091841691909102177fffffffffffffffffffffffffffffffffffffffffff0000ffffffffffffffffff166901000000000000000000948316949094027fffffffffffffffffffffffffffffffffffffffffff00ffffffffffffffffffff16939093176a010000000000000000000091909316029190911790555050602081810151915167ffffffffffffffff165f90815260019091526040902073ffffffffffffffffffffffffffffffffffffffff9091169055806109b181613d19565b9150506105fd565b505f5b8251811015610e3d575f8382815181106109d8576109d8613cec565b6020908102919091018101515167ffffffffffffffff165f8181528083526040808220815160e081018352815462ffffff80821683526301000000820416968201969096529395509193908301906601000000000000900460ff166006811115610a4457610a4461393c565b6006811115610a5557610a5561393c565b8152905460ff6701000000000000008204811660208401526801000000000000000082045f90810b604085015269010000000000000000008304821660608501526a0100000000000000000000909204166080928301529082015191925090810b8103610ae2577fffffffffffffffffffffffffffffffffffffffffffffffffffffffffffffffff610ae8565b81608001515b90505f815f0b128015610b00575060a082015160ff16155b15610b0857505f5b5f815f0b836060015160ff16610b1e9190613d50565b90505f811215610b2b57505f5b7f000000000000000000000000000000000000000000000000000000000000000060ff16811115610bac576040517fa21143880000000000000000000000000000000000000000000000000000000081526004810182905263ffffffff8516600381810b6024840152602087901c9081900b60448401529091606401610390565b60ff811660608401526040805160e081019091525f9080610bce60018a613d76565b62ffffff168152602001610be360018a613d76565b62ffffff16815260200185604001516006811115610c0357610c0361393c565b815260608087015160ff9081166020808501919091526080808a01515f90810b60408088019190915260a08c01519094169486019490945290930182905288825281835290819020835181549385015162ffffff9081166301000000027fffffffffffffffffffffffffffffffffffffffffffffffffffff000000000000909516911617929092178083559083015192935083929082907fffffffffffffffffffffffffffffffffffffffffffffffffff00ffffffffffff166601000000000000836006811115610cd657610cd661393c565b021790555060608201518154608084015160a085015160c0909501517fffffffffffffffffffffffffffffffffffffffffffffff0000ffffffffffffff90921667010000000000000060ff948516027fffffffffffffffffffffffffffffffffffffffffffffff00ffffffffffffffff16176801000000000000000091841691909102177fffffffffffffffffffffffffffffffffffffffffff0000ffffffffffffffffff166901000000000000000000948316949094027fffffffffffffffffffffffffffffffffffffffffff00ffffffffffffffffffff16939093176a01000000000000000000009190931602919091179055610e255f610ddd62ffffff8a16611d41565b604051602001610ded9190613dbf565b604080518083037fffffffffffffffffffffffffffffffffffffffffffffffffffffffffffffffe001905252505f8690526001602052565b50505050508080610e3590613d19565b9150506109bc565b507f8e1d006b2d362a7e606e2a6f90b3faefd938725a74cfe85918c68a8d67d625ec818360405161042b929190613df0565b7fb53127684a568b3173ae13b9f8a6016e243e63b6e8ee1178d6a717850b5d61035473ffffffffffffffffffffffffffffffffffffffff163373ffffffffffffffffffffffffffffffffffffffff1614610ef5576040517fea8e4eb500000000000000000000000000000000000000000000000000000000815260040160405180910390fd5b5f5b8151811015611173575f828281518110610f1357610f13613cec565b602002602001015190506040518060e00160405280826040015162ffffff168152602001826060015162ffffff16815260200182608001516006811115610f5c57610f5c61393c565b815260a083015160ff90811660208084019190915260c08501515f90810b60408086019190915260e087015190931660608501526080909301839052845167ffffffffffffffff16835282815291819020835181549385015162ffffff9081166301000000027fffffffffffffffffffffffffffffffffffffffffffffffffffff00000000000090951691161792909217808355908301519082907fffffffffffffffffffffffffffffffffffffffffffffffffff00ffffffffffff1666010000000000008360068111156110335761103361393c565b021790555060608201518154608084015160a085015160c0909501517fffffffffffffffffffffffffffffffffffffffffffffff0000ffffffffffffff90921667010000000000000060ff948516027fffffffffffffffffffffffffffffffffffffffffffffff00ffffffffffffffff16176801000000000000000091841691909102177fffffffffffffffffffffffffffffffffffffffffff0000ffffffffffffffffff166901000000000000000000948316949094027fffffffffffffffffffffffffffffffffffffffffff00ffffffffffffffffffff16939093176a01000000000000000000009190931602919091179055602081810151915167ffffffffffffffff165f90815260019091526040902073ffffffffffffffffffffffffffffffffffffffff90911690558061116b81613d19565b915050610ef7565b507f3c0a1b33060cb27164a8675b8ef0947a312efd921ef674321eb29f0dcbf63876816040516111a39190613e8b565b60405180910390a150565b5f80806111fb7f00000000000000000000000000000000000000000000000000000000000000007f0000000000000000000000000000000000000000000000000000000000000000613cd9565b90505f611206611dfd565b90507f0000000000000000000000000000000000000000000000000000000000000000811015611262576040517f3a5f7b5700000000000000000000000000000000000000000000000000000000815260040160405180910390fd5b5f61128d7f000000000000000000000000000000000000000000000000000000000000000083613f60565b90506112998382613fa0565b6112a4906002613cd9565b94507f0000000000000000000000000000000000000000000000000000000000000000836112d3600288613d76565b62ffffff166112e29190613c9c565b6112ec9083613f60565b1093505050509091565b5f806040518060400160405280855160056113119190613c9c565b67ffffffffffffffff8111156113295761132961371c565b60405190808252806020026020018201604052801561136d57816020015b604080518082019091525f80825260208201528152602001906001900390816113475790505b5081526020015f815250905061139a60405180606001604052805f81526020015f81526020015f81525090565b5f5b855181101561142d575f805f6113cd868c8c8c88815181106113c0576113c0613cec565b6020026020010151611e31565b92509250925082855f018181516113e49190613cd9565b9052506020850180518391906113fb908390613cd9565b905250604085018051829190611412908390613cd9565b9052508392506114259150829050613d19565b91505061139c565b5060408051808201909152600781527f7265736f6c76650000000000000000000000000000000000000000000000000060209091015261148d7f000000000000000000000000000000000000000000000000000000000000000083612489565b73ffffffffffffffffffffffffffffffffffffffff87165f908152600260209081526040909120549082015182519194506114c791613cd9565b83101561151b576020810151815184916114e091613cd9565b6040517f78fe52a600000000000000000000000000000000000000000000000000000000815260048101929092526024820152604401610390565b73ffffffffffffffffffffffffffffffffffffffff841661157f57602081015181516115479190613cd9565b6115519084613f60565b73ffffffffffffffffffffffffffffffffffffffff88165f908152600260205260409020819055925061173b565b8051156116495780516040517f23b872dd00000000000000000000000000000000000000000000000000000000815273ffffffffffffffffffffffffffffffffffffffff868116600483015230602483015260448201929092527f0000000000000000000000000000000000000000000000000000000000000000909116906323b872dd906064016020604051808303815f875af1158015611623573d5f803e3d5ffd5b505050506040513d601f19601f820116820180604052508101906116479190613cb3565b505b60208101511561173b5760208101516040517f23b872dd00000000000000000000000000000000000000000000000000000000815273ffffffffffffffffffffffffffffffffffffffff86811660048301527f00000000000000000000000000000000000000000000000000000000000000008116602483015260448201929092527f0000000000000000000000000000000000000000000000000000000000000000909116906323b872dd906064016020604051808303815f875af1158015611715573d5f803e3d5ffd5b505050506040513d601f19601f820116820180604052508101906117399190613cb3565b505b6040810151156118055760408181015190517fa9059cbb00000000000000000000000000000000000000000000000000000000815273ffffffffffffffffffffffffffffffffffffffff898116600483015260248201929092527f00000000000000000000000000000000000000000000000000000000000000009091169063a9059cbb906044016020604051808303815f875af11580156117df573d5f803e3d5ffd5b505050506040513d601f19601f820116820180604052508101906118039190613cb3565b505b5050949350505050565b67ffffffffffffffff63ffffffff808516600390810b602087811c9390931690910b7fffffffffffffffffffffffffffffffffffffffffffffffffffffffffffffffff8101831b82019384165f9081528084526040808220815160e081018352815462ffffff80821683526301000000820416978201979097529296879690938793909291908301906601000000000000900460ff1660068111156118b6576118b661393c565b60068111156118c7576118c761393c565b8152905460ff6701000000000000008204811660208401526801000000000000000082045f90810b604085015269010000000000000000008304821660608501526a0100000000000000000000909204166080909201919091529091508160400151600681111561193a5761193a61393c565b1461197d575f61194e898360400151612585565b90505f815f0b1215611961578560011795505b808701965061197a838384606001518b60025f8f61261f565b50505b505067ffffffffffffffff602082811b84017fffffffffffffffffffffffffffffffffffffffffffffffffffffffffffffffff019182165f9081528082526040808220815160e081018352815462ffffff80821683526301000000820416958201959095529293909183019060ff6601000000000000909104166006811115611a0857611a0861393c565b6006811115611a1957611a1961393c565b8152905460ff6701000000000000008204811660208401526801000000000000000082045f90810b604085015269010000000000000000008304821660608501526a01000000000000000000009092041660809092019190915290915081604001516006811115611a8c57611a8c61393c565b14611acf575f611aa0898360400151612585565b90505f815f0b1215611ab3578560021795505b8087019650611acc838384606001518b60035f8f61261f565b50505b505067ffffffffffffffff60018201602090811b84019182165f9081528082526040808220815160e081018352815462ffffff80821683526301000000820416958201959095529293909183019060ff6601000000000000909104166006811115611b3c57611b3c61393c565b6006811115611b4d57611b4d61393c565b8152905460ff6701000000000000008204811660208401526801000000000000000082045f90810b604085015269010000000000000000008304821660608501526a01000000000000000000009092041660809092019190915290915081604001516006811115611bc057611bc061393c565b14611c02575f611bd4898360400151612585565b90505f815f0b1215611be7578560041795505b8087019650611bff838384606001518b5f808f61261f565b50505b505067ffffffffffffffff602082811b84016001019182165f9081528082526040808220815160e081018352815462ffffff80821683526301000000820416958201959095529293909183019060ff6601000000000000909104166006811115611c6e57611c6e61393c565b6006811115611c7f57611c7f61393c565b8152905460ff6701000000000000008204811660208401526801000000000000000082045f90810b604085015269010000000000000000008304821660608501526a01000000000000000000009092041660809092019190915290915081604001516006811115611cf257611cf261393c565b14611d35575f611d06898360400151612585565b90505f815f0b1215611d19578560081795505b8087019650611d32838384606001518b60015f8f61261f565b50505b50505050935093915050565b60605f611d4d83612ad5565b60010190505f8167ffffffffffffffff811115611d6c57611d6c61371c565b6040519080825280601f01601f191660200182016040528015611d96576020820181803683370190505b5090508181016020015b7fffffffffffffffffffffffffffffffffffffffffffffffffffffffffffffffff017f3031323334353637383961626364656600000000000000000000000000000000600a86061a8153600a8504945084611da057509392505050565b7f0112c413de07a110ce0a9ace0c01e41b5b59462770325b042f0dc72c337f55f2545f90611e2b8142613cd9565b91505090565b5f805f80611e42855f015187612bb6565b9050611ea85f611e568862ffffff16611d41565b604051602001611e669190613fb3565b604080518083037fffffffffffffffffffffffffffffffffffffffffffffffffffffffffffffffe00190525250855167ffffffffffffffff165f526001602052565b60c0810151606082015160ff16158015611ec75750815162ffffff1615155b15611ef557611ed98260a00151612d10565b60048360a0015160ff16901b611eef9190613fe4565b5f835290505b5f86602001516006811115611f0c57611f0c61393c565b0361201e577f000000000000000000000000000000000000000000000000000000000000000060ff16826060015160ff16141580611f905750855167ffffffffffffffff165f9081526001602052604090205473ffffffffffffffffffffffffffffffffffffffff89169073ffffffffffffffffffffffffffffffffffffffff1614155b15611fc5575f807f0000000000000000000000000000000000000000000000000000000000000000945094509450505061247a565b6120198960405180604001604052808b73ffffffffffffffffffffffffffffffffffffffff1681526020017f0000000000000000000000000000000000000000000000000000000000000000815250612d41565b61207c565b8662ffffff16826020015162ffffff160361207c57606082015160ff161561204c576006602087015261207c565b5f807f0000000000000000000000000000000000000000000000000000000000000000945094509450505061247a565b5f8061208f8b898b876040015187612e8d565b915091508973ffffffffffffffffffffffffffffffffffffffff16885f015167ffffffffffffffff167f17b85ded3fb12432ee427abc34a3026e1fbbb8bc431e3dbe51bc81215655c25c86604001518b602001516040516120f1929190613ffd565b60405180910390a38760200151846040019060068111156121145761211461393c565b908160068111156121275761212761393c565b9052505f60c0850181905262ffffff8a166020860152846040015160068111156121535761215361393c565b036121b1575f606085018190528085526080850181905260a08501819052885167ffffffffffffffff168152600160205260408120557f0000000000000000000000000000000000000000000000000000000000000000945061227a565b60ff811660a08501525f82900b60808501526001606085015262ffffff891684527f0000000000000000000000000000000000000000000000000000000000000000965060068460400151600681111561220d5761220d61393c565b0361224757875167ffffffffffffffff165f90815260016020526040902073ffffffffffffffffffffffffffffffffffffffff905561227a565b875167ffffffffffffffff165f90815260016020526040902073ffffffffffffffffffffffffffffffffffffffff8b1690555b875167ffffffffffffffff165f9081526020818152604091829020865181549288015162ffffff9081166301000000027fffffffffffffffffffffffffffffffffffffffffffffffffffff0000000000009094169116179190911780825591860151869282907fffffffffffffffffffffffffffffffffffffffffffffffffff00ffffffffffff16660100000000000083600681111561231c5761231c61393c565b021790555060608201518154608084015160a085015160c0909501517fffffffffffffffffffffffffffffffffffffffffffffff0000ffffffffffffff90921667010000000000000060ff948516027fffffffffffffffffffffffffffffffffffffffffffffff00ffffffffffffffff16176801000000000000000091841691909102177fffffffffffffffffffffffffffffffffffffffffff0000ffffffffffffffffff166901000000000000000000948316949094027fffffffffffffffffffffffffffffffffffffffffff00ffffffffffffffffffff16939093176a010000000000000000000091909316029190911790556124755f61242362ffffff8c16611d41565b6040516020016124339190614018565b604080518083037fffffffffffffffffffffffffffffffffffffffffffffffffffffffffffffffe00190525250885167ffffffffffffffff165f526001602052565b505050505b9450945094915050565b505050565b5f5b8160200151811015612484578273ffffffffffffffffffffffffffffffffffffffff1663a9059cbb835f015183815181106124c8576124c8613cec565b60200260200101515f0151845f015184815181106124e8576124e8613cec565b6020026020010151602001516040518363ffffffff1660e01b815260040161253292919073ffffffffffffffffffffffffffffffffffffffff929092168252602082015260400190565b6020604051808303815f875af115801561254e573d5f803e3d5ffd5b505050506040513d601f19601f820116820180604052508101906125729190613cb3565b508061257d81613d19565b91505061248b565b5f808360068111156125995761259961393c565b141580156125b857505f8260068111156125b5576125b561393c565b14155b15612616578160068111156125cf576125cf61393c565b8360068111156125e1576125e161393c565b1461260c577fffffffffffffffffffffffffffffffffffffffffffffffffffffffffffffffff61260f565b60015b9050612619565b505f5b92915050565b5f80876060015160ff16118015612637575060ff8616155b15612668576126498760a00151612d10565b60048860a0015160ff16901b61265f9190613fe4565b60ff1660c08801525b6126c95f6126788660ff16611d41565b6040516020016126889190614049565b604080518083037fffffffffffffffffffffffffffffffffffffffffffffffffffffffffffffffe0019052525067ffffffffffffffff89165f526001602052565b6126d4846002614198565b6126df856002614198565b60c089015160041c16600f16036127475760c087015161270390600f16600c6141a6565b60c0880151909150600f16600461271e60ff871660026141c7565b1960048a60c0015160ff16901c60ff161660ff16901b61273e9190613fe4565b60ff1660c08801525b8160068111156127595761275961393c565b83600681111561276b5761276b61393c565b14612901575f8260068111156127835761278361393c565b036128085782600681111561279a5761279a61393c565b876040015160068111156127b0576127b061393c565b036127d2576001876080018181516127c891906141d2565b5f0b905250612901565b6001876080018181516127e59190614210565b5f0b90525060a087018051600160ff8781169190911b8118909116169052612901565b82600681111561281a5761281a61393c565b876040015160068111156128305761283061393c565b036128615760a087018051600160ff8781169190911b909117169052608087018051600291906127c89083906141d2565b8160068111156128735761287361393c565b876040015160068111156128895761288961393c565b036128b9575f8360068111156128a1576128a161393c565b146127d2576002876080018181516127e59190614210565b5f8360068111156128cc576128cc61393c565b03612901576001876080018181516128e491906141d2565b5f0b90525060a087018051600160ff8781169190911b9091171690525b62ffffff8516875260ff8087166060890152612934905f90612924908716611d41565b604051602001612688919061424e565b67ffffffffffffffff88165f908152602081815260409182902089518154928b015162ffffff9081166301000000027fffffffffffffffffffffffffffffffffffffffffffffffffffff0000000000009094169116179190911780825591890151899282907fffffffffffffffffffffffffffffffffffffffffffffffffff00ffffffffffff1666010000000000008360068111156129d5576129d561393c565b021790555060608201518154608084015160a085015160c0909501517fffffffffffffffffffffffffffffffffffffffffffffff0000ffffffffffffff90921667010000000000000060ff948516027fffffffffffffffffffffffffffffffffffffffffffffff00ffffffffffffffff16176801000000000000000091841691909102177fffffffffffffffffffffffffffffffffffffffffff0000ffffffffffffffffff166901000000000000000000948316949094027fffffffffffffffffffffffffffffffffffffffffff00ffffffffffffffffffff16939093176a01000000000000000000009190931602919091179055979650505050505050565b5f807a184f03e93ff9f4daa797ed6e38ed64bf6a1f0100000000000000008310612b1d577a184f03e93ff9f4daa797ed6e38ed64bf6a1f010000000000000000830492506040015b6d04ee2d6d415b85acef81000000008310612b49576d04ee2d6d415b85acef8100000000830492506020015b662386f26fc100008310612b6757662386f26fc10000830492506010015b6305f5e1008310612b7f576305f5e100830492506008015b6127108310612b9357612710830492506004015b60648310612ba5576064830492506002015b600a83106126195760010192915050565b6040805160e080820183525f8083526020808401829052838501829052606084018290526080840182905260a0840182905260c0840182905267ffffffffffffffff871682528181529084902084519283018552805462ffffff808216855263010000008204169284019290925292939192918301906601000000000000900460ff166006811115612c4a57612c4a61393c565b6006811115612c5b57612c5b61393c565b8152905460ff6701000000000000008204811660208401526801000000000000000082045f0b60408401526901000000000000000000820481166060808501919091526a010000000000000000000090920416608092830152825191830151908301519293509091600162ffffff841610801590612cdb57505f8160ff16115b15612d07575f80612cf3858760a0015186868b613024565b60ff909116606088015262ffffff16865250505b50505092915050565b5f5b60ff821615612d3c57612d266001836142a5565b9091169080612d34816142be565b915050612d12565b919050565b5f5b8260200151811015612def57815f015173ffffffffffffffffffffffffffffffffffffffff16835f01518281518110612d7e57612d7e613cec565b60200260200101515f015173ffffffffffffffffffffffffffffffffffffffff1603612ddd5760208201518351805183908110612dbd57612dbd613cec565b6020026020010151602001818151612dd59190613cd9565b905250505050565b80612de781613d19565b915050612d43565b5080518251602084015181518110612e0957612e09613cec565b60200260200101515f019073ffffffffffffffffffffffffffffffffffffffff16908173ffffffffffffffffffffffffffffffffffffffff16815250508060200151825f0151836020015181518110612e6457612e64613cec565b60200260200101516020018181525050816020018051809190612e8690613d19565b9052505050565b5f805f805f80612ea78a5f01518a8a8d602001518b613287565b93509350935093505f8260ff161115612f4657612f468b6040518060400160405280612eeb8e5f015167ffffffffffffffff165f9081526001602052604090205490565b73ffffffffffffffffffffffffffffffffffffffff168152602001600c612f357f000000000000000000000000000000000000000000000000000000000000000060ff8916613c9c565b612f3f9190613fa0565b9052612d41565b5f5b60048160ff161015613012575f8260ff831660048110612f6a57612f6a613cec565b602002015173ffffffffffffffffffffffffffffffffffffffff1614613000576130008c6040518060400160405280858560ff1660048110612fae57612fae613cec565b602002015173ffffffffffffffffffffffffffffffffffffffff1681526020018b600f1660ff167f0000000000000000000000000000000000000000000000000000000000000000612f3f9190613fa0565b8061300a816142be565b915050612f48565b50929a91995090975050505050505050565b5f85600162ffffff82161080159061303e57505f8460ff16115b1561327d575f61304e8885613d76565b62ffffff1690508015613274575f865f0b5f0361308b577fffffffffffffffffffffffffffffffffffffffffffffffffffffffffffffffff61308d565b865b90505f815f0b1280156130a1575060ff8816155b156130a957505f5b5f815f0b13156131ca577f000000000000000000000000000000000000000000000000000000000000000060ff168660ff1610156131bf575f816001816131108a7f00000000000000000000000000000000000000000000000000000000000000006142a5565b61311a9190613fe4565b61312491906142a5565b61312e91906141a6565b90508060ff16831115613142578060ff1692505b61314c82846142dc565b6131569088613fe4565b96507f000000000000000000000000000000000000000000000000000000000000000060ff168760ff1611156131aa577f000000000000000000000000000000000000000000000000000000000000000096505b8694506131b7838b6142f8565b93505061326e565b85935088925061326e565b5f815f0b1215613267575f6131de82614314565b60016131e984614314565b6131f3908a613fe4565b6131fd91906142a5565b61320791906141a6565b90508060ff1683111561321b578060ff1692505b5f61322583614314565b61322f90856142dc565b90508760ff168160ff161115613247575f9550613254565b61325181896142a5565b95505b61325e848c6142f8565b9450505061326e565b8593508492505b5061327b565b8492508791505b505b9550959350505050565b5f805f6132926136db565b63ffffffff808a16600390810b9160208c811c90911690910b905f9081907fffffffffffffffffffffffffffffffffffffffffffffffffffffffffffffffff8401901b84016132e5818e60028f8f6134e6565b90935091505f83810b12156132fb578760011797505b9581019560048a811c8116900361333e5767ffffffffffffffff81165f9081526001602052604090205473ffffffffffffffffffffffffffffffffffffffff1686525b5096810196602083901b84017fffffffffffffffffffffffffffffffffffffffffffffffffffffffffffffffff0161337a818e60038f8f6134e6565b90935091505f83810b1215613390578760021797505b95810195600860048b901c811690036133d85767ffffffffffffffff81165f9081526001602052604090205473ffffffffffffffffffffffffffffffffffffffff1660208701525b50968101966001830160201b84016133f3818e5f8f8f6134e6565b90935091505f83810b1215613409578760041797505b95810195600160048b901c811690036134515767ffffffffffffffff81165f9081526001602052604090205473ffffffffffffffffffffffffffffffffffffffff1660408701525b8289019850505f84600101602085901b019050613472818e60018f8f6134e6565b90935091505f83810b1215613488578760081797505b95810195600260048b901c811690036134d05767ffffffffffffffff81165f9081526001602052604090205473ffffffffffffffffffffffffffffffffffffffff1660608701525b8289019850505050505095509550955095915050565b67ffffffffffffffff85165f90815260208181526040808320815160e081018352815462ffffff8082168352630100000082041694820194909452849384939192918301906601000000000000900460ff1660068111156135495761354961393c565b600681111561355a5761355a61393c565b8152905460ff6701000000000000008204811660208401526801000000000000000082045f90810b60408086019190915269010000000000000000008404831660608601526a010000000000000000000090930490911660809093019290925282519083015192935091908160068111156135d7576135d761393c565b14613631578560068111156135ee576135ee61393c565b8160068111156136005761360061393c565b1461362b577fffffffffffffffffffffffffffffffffffffffffffffffffffffffffffffffff61362e565b60015b94505b60018262ffffff161015801561365857505f8160068111156136555761365561393c565b14155b156136ce575f836060015160ff1611801561367c57508862ffffff168262ffffff16105b156136b8575f8061369c848660a00151876080015188606001518f613024565b915091506136af8c8684848e8e8e61261f565b955050506136ce565b6136cb8a8485606001518c8c8c8c61261f565b93505b5050509550959350505050565b60405180608001604052806004906020820280368337509192915050565b803573ffffffffffffffffffffffffffffffffffffffff81168114612d3c575f80fd5b7f4e487b71000000000000000000000000000000000000000000000000000000005f52604160045260245ffd5b6040805190810167ffffffffffffffff8111828210171561376c5761376c61371c565b60405290565b6040516080810167ffffffffffffffff8111828210171561376c5761376c61371c565b604051610100810167ffffffffffffffff8111828210171561376c5761376c61371c565b604051601f82017fffffffffffffffffffffffffffffffffffffffffffffffffffffffffffffffe016810167ffffffffffffffff811182821017156138005761380061371c565b604052919050565b5f67ffffffffffffffff8211156138215761382161371c565b5060051b60200190565b803567ffffffffffffffff81168114612d3c575f80fd5b803560078110612d3c575f80fd5b5f806040808486031215613862575f80fd5b61386b846136f9565b925060208085013567ffffffffffffffff811115613887575f80fd5b8501601f81018713613897575f80fd5b80356138aa6138a582613808565b6137b9565b81815260069190911b820183019083810190898311156138c8575f80fd5b928401925b828410156139155785848b0312156138e4575f8081fd5b6138ec613749565b6138f58561382b565b8152613902868601613842565b81870152825292850192908401906138cd565b8096505050505050509250929050565b5f60208284031215613935575f80fd5b5035919050565b7f4e487b71000000000000000000000000000000000000000000000000000000005f52602160045260245ffd5b6007811061399e577f4e487b71000000000000000000000000000000000000000000000000000000005f52602160045260245ffd5b9052565b5f60e08201905062ffffff8084511683528060208501511660208401525060408301516139d26040840182613969565b5060ff606084015116606083015260808301515f0b608083015260ff60a08401511660a083015260ff60c08401511660c083015292915050565b803560ff81168114612d3c575f80fd5b5f6020808385031215613a2d575f80fd5b823567ffffffffffffffff811115613a43575f80fd5b8301601f81018513613a53575f80fd5b8035613a616138a582613808565b81815260079190911b82018301908381019087831115613a7f575f80fd5b928401925b82841015613af25760808489031215613a9c575f8081fd5b613aa4613772565b613aad8561382b565b8152613aba8686016136f9565b868201526040613acb818701613842565b908201526060613adc868201613a0c565b9082015282526080939093019290840190613a84565b979650505050505050565b803562ffffff81168114612d3c575f80fd5b5f6020808385031215613b20575f80fd5b823567ffffffffffffffff811115613b36575f80fd5b8301601f81018513613b46575f80fd5b8035613b546138a582613808565b81815260089190911b82018301908381019087831115613b72575f80fd5b928401925b82841015613af2576101008489031215613b90575f8081fd5b613b98613795565b613ba18561382b565b8152613bae8686016136f9565b868201526040613bbf818701613afd565b908201526060613bd0868201613afd565b908201526080613be1868201613842565b9082015260a0613bf2868201613a0c565b9082015260c0858101355f81810b8214613c0a578081fd5b509082015260e0613c1c868201613a0c565b908201528252610100939093019290840190613b77565b7f4e487b71000000000000000000000000000000000000000000000000000000005f52601160045260245ffd5b5f62ffffff821680613c7457613c74613c33565b7fffffffffffffffffffffffffffffffffffffffffffffffffffffffffffffffff0192915050565b808202811582820484141761261957612619613c33565b5f60208284031215613cc3575f80fd5b81518015158114613cd2575f80fd5b9392505050565b8082018082111561261957612619613c33565b7f4e487b71000000000000000000000000000000000000000000000000000000005f52603260045260245ffd5b5f7fffffffffffffffffffffffffffffffffffffffffffffffffffffffffffffffff8203613d4957613d49613c33565b5060010190565b8181035f831280158383131683831282161715613d6f57613d6f613c33565b5092915050565b62ffffff828116828216039080821115613d6f57613d6f613c33565b5f81515f5b81811015613db15760208185018101518683015201613d97565b505f93019283525090919050565b7f666f72636553696d706c6543656c6c732061742065706f63682000000000000081525f613cd2601a830184613d92565b5f604080830162ffffff86168452602082818601528186518084526060935083870191508288015f5b82811015613e7c57815167ffffffffffffffff815116855273ffffffffffffffffffffffffffffffffffffffff86820151168686015287810151613e5f89870182613969565b5086015160ff168487015260809093019290840190600101613e19565b50919998505050505050505050565b602080825282518282018190525f919060409081850190868401855b82811015613f5357815167ffffffffffffffff815116855273ffffffffffffffffffffffffffffffffffffffff87820151168786015262ffffff868201511686860152606080820151613f008288018262ffffff169052565b5050608080820151613f1482880182613969565b505060a08181015160ff169086015260c0808201515f81900b82880152505060e09081015160ff16908501526101009093019290850190600101613ea7565b5091979650505050505050565b8181038181111561261957612619613c33565b7f4e487b71000000000000000000000000000000000000000000000000000000005f52601260045260245ffd5b5f82613fae57613fae613f73565b500490565b7f5f636f6d707574654d6f76652061742065706f6368200000000000000000000081525f613cd26016830184613d92565b60ff818116838216019081111561261957612619613c33565b6040810161400b8285613969565b613cd26020830184613969565b7f414654455220000000000000000000000000000000000000000000000000000081525f613cd26006830184613d92565b7f5f75706461746543656c6c46726f6d4e65696768626f722020696e646578000081525f613cd2601e830184613d92565b600181815b808511156140d357817fffffffffffffffffffffffffffffffffffffffffffffffffffffffffffffffff048211156140b9576140b9613c33565b808516156140c657918102915b93841c939080029061407f565b509250929050565b5f826140e957506001612619565b816140f557505f612619565b816001811461410b576002811461411557614131565b6001915050612619565b60ff84111561412657614126613c33565b50506001821b612619565b5060208310610133831016604e8410600b8410161715614154575081810a612619565b61415e838361407a565b807fffffffffffffffffffffffffffffffffffffffffffffffffffffffffffffffff0482111561419057614190613c33565b029392505050565b5f613cd260ff8416836140db565b5f60ff8316806141b8576141b8613f73565b8060ff84160491505092915050565b5f613cd283836140db565b5f82810b9082900b037fffffffffffffffffffffffffffffffffffffffffffffffffffffffffffffff808112607f8213171561261957612619613c33565b5f81810b9083900b01607f81137fffffffffffffffffffffffffffffffffffffffffffffffffffffffffffffff808212171561261957612619613c33565b7f4146544552205f75706461746543656c6c46726f6d4e65696768626f7220206981527f6e6465780000000000000000000000000000000000000000000000000000000060208201525f613cd26024830184613d92565b60ff828116828216039081111561261957612619613c33565b5f60ff821660ff81036142d3576142d3613c33565b60010192915050565b60ff8181168382160290811690818114613d6f57613d6f613c33565b62ffffff818116838216019080821115613d6f57613d6f613c33565b5f815f0b7fffffffffffffffffffffffffffffffffffffffffffffffffffffffffffffff80810361434757614347613c33565b5f039291505056fea2646970667358221220c0c16baaf8e818b65713d67ddc57fbe523f726f46d1bad6b76b802127a67850c64736f6c63430008140033",
  "linkReferences": {},
  "deployedLinkReferences": {},
  "devdoc": {
    "errors": {
      "ReserveTooLow(uint256,uint256)": [
        {
          "params": {
            "expected": "amount required to proceed",
            "inReserve": "amount in reserver as the time of the call"
          }
        }
      ]
    },
    "events": {
      "CommitmentCancelled(address,uint24)": {
        "params": {
          "epoch": "epoch number on which this commit belongs to",
          "player": "account taking the staking risk (can be a different account than the one controlling the gems)"
        }
      },
      "CommitmentMade(address,uint24,bytes24)": {
        "params": {
          "commitmentHash": "the hash of moves",
          "epoch": "epoch number on which this commit belongs to",
          "player": "account taking the staking risk (can be a different account than the one controlling the gems)"
        }
      },
      "CommitmentResolved(address,uint24,bytes24,(uint64,uint8)[],bytes24,uint256)": {
        "params": {
          "commitmentHash": "the hash of the moves",
          "epoch": "epoch number on which this commit belongs to",
          "furtherMoves": "hash of further moves, unless bytes32(0) which indicate end.",
          "moves": "the moves",
          "player": "account who commited"
        }
      },
      "CommitmentVoid(address,uint24,uint256,bytes24)": {
        "params": {
          "amountBurnt": "amount of token to burn",
          "epoch": "epoch number on which this commit belongs to",
          "furtherMoves": "hash of further moves, unless bytes32(0) which indicate end.",
          "player": "the account that made the commitment"
        }
      },
      "MoveProcessed(uint64,address,uint8,uint8)": {
        "params": {
          "newColor": "color that takes over",
          "oldColor": "previous color of the cell",
          "player": "account making the move",
          "position": "cell at which the move take place"
        }
      },
      "ReserveDeposited(address,uint256,uint256)": {
        "params": {
          "amountDeposited": "the number of tokens deposited",
          "newAmount": "the number of tokens in reserver as a result",
          "player": "account receiving the token in the reserve"
        }
      },
      "ReserveWithdrawn(address,uint256,uint256)": {
        "params": {
          "amountWithdrawn": "the number of tokens withdrawnn",
          "newAmount": "the number of tokens in reserver as a result",
          "player": "account withdrawing the tokens"
        }
      }
    },
    "kind": "dev",
    "methods": {},
    "version": 1
  },
  "evm": {
    "gasEstimates": {
      "creation": {
        "codeDepositCost": "3457000",
        "executionCost": "infinite",
        "totalCost": "infinite"
      },
      "external": {
        "forceCells((uint64,address,uint24,uint24,uint8,uint8,int8,uint8)[])": "infinite",
        "forceMoves(address,(uint64,uint8)[])": "infinite",
        "forceSimpleCells((uint64,address,uint8,uint8)[])": "infinite",
        "getRawCell(uint256)": "5351",
        "increaseTime(uint256)": "infinite",
        "timestamp()": "2436"
      },
      "internal": {
        "_computeDelta(uint64,enum UsingStratagemsTypes.Color)": "infinite",
        "_getOwner()": "infinite",
        "_updateNeighbosrDelta(uint64,enum UsingStratagemsTypes.Color,uint24)": "infinite",
        "isEnemyOrFriend(enum UsingStratagemsTypes.Color,enum UsingStratagemsTypes.Color)": "240"
      }
    }
  },
  "storageLayout": {
    "storage": [
      {
        "astId": 13922,
        "contract": "src/game/debug/StratagemsDebug.sol:StratagemsDebug",
        "label": "_cells",
        "offset": 0,
        "slot": "0",
        "type": "t_mapping(t_uint256,t_struct(Cell)11667_storage)"
      },
      {
        "astId": 13926,
        "contract": "src/game/debug/StratagemsDebug.sol:StratagemsDebug",
        "label": "_owners",
        "offset": 0,
        "slot": "1",
        "type": "t_mapping(t_uint256,t_uint256)"
      },
      {
        "astId": 13930,
        "contract": "src/game/debug/StratagemsDebug.sol:StratagemsDebug",
        "label": "_tokensInReserve",
        "offset": 0,
        "slot": "2",
        "type": "t_mapping(t_address,t_uint256)"
      },
      {
        "astId": 13935,
        "contract": "src/game/debug/StratagemsDebug.sol:StratagemsDebug",
        "label": "_commitments",
        "offset": 0,
        "slot": "3",
        "type": "t_mapping(t_address,t_struct(Commitment)11672_storage)"
      },
      {
        "astId": 13941,
        "contract": "src/game/debug/StratagemsDebug.sol:StratagemsDebug",
        "label": "_operatorsForAll",
        "offset": 0,
        "slot": "4",
        "type": "t_mapping(t_address,t_mapping(t_address,t_bool))"
      },
      {
        "astId": 13945,
        "contract": "src/game/debug/StratagemsDebug.sol:StratagemsDebug",
        "label": "_operators",
        "offset": 0,
        "slot": "5",
        "type": "t_mapping(t_uint256,t_address)"
      }
    ],
    "types": {
      "t_address": {
        "encoding": "inplace",
        "label": "address",
        "numberOfBytes": "20"
      },
      "t_bool": {
        "encoding": "inplace",
        "label": "bool",
        "numberOfBytes": "1"
      },
      "t_bytes24": {
        "encoding": "inplace",
        "label": "bytes24",
        "numberOfBytes": "24"
      },
      "t_enum(Color)11596": {
        "encoding": "inplace",
        "label": "enum UsingStratagemsTypes.Color",
        "numberOfBytes": "1"
      },
      "t_int8": {
        "encoding": "inplace",
        "label": "int8",
        "numberOfBytes": "1"
      },
      "t_mapping(t_address,t_bool)": {
        "encoding": "mapping",
        "key": "t_address",
        "label": "mapping(address => bool)",
        "numberOfBytes": "32",
        "value": "t_bool"
      },
      "t_mapping(t_address,t_mapping(t_address,t_bool))": {
        "encoding": "mapping",
        "key": "t_address",
        "label": "mapping(address => mapping(address => bool))",
        "numberOfBytes": "32",
        "value": "t_mapping(t_address,t_bool)"
      },
      "t_mapping(t_address,t_struct(Commitment)11672_storage)": {
        "encoding": "mapping",
        "key": "t_address",
        "label": "mapping(address => struct UsingStratagemsTypes.Commitment)",
        "numberOfBytes": "32",
        "value": "t_struct(Commitment)11672_storage"
      },
      "t_mapping(t_address,t_uint256)": {
        "encoding": "mapping",
        "key": "t_address",
        "label": "mapping(address => uint256)",
        "numberOfBytes": "32",
        "value": "t_uint256"
      },
      "t_mapping(t_uint256,t_address)": {
        "encoding": "mapping",
        "key": "t_uint256",
        "label": "mapping(uint256 => address)",
        "numberOfBytes": "32",
        "value": "t_address"
      },
      "t_mapping(t_uint256,t_struct(Cell)11667_storage)": {
        "encoding": "mapping",
        "key": "t_uint256",
        "label": "mapping(uint256 => struct UsingStratagemsTypes.Cell)",
        "numberOfBytes": "32",
        "value": "t_struct(Cell)11667_storage"
      },
      "t_mapping(t_uint256,t_uint256)": {
        "encoding": "mapping",
        "key": "t_uint256",
        "label": "mapping(uint256 => uint256)",
        "numberOfBytes": "32",
        "value": "t_uint256"
      },
      "t_struct(Cell)11667_storage": {
        "encoding": "inplace",
        "label": "struct UsingStratagemsTypes.Cell",
        "members": [
          {
            "astId": 11653,
            "contract": "src/game/debug/StratagemsDebug.sol:StratagemsDebug",
            "label": "lastEpochUpdate",
            "offset": 0,
            "slot": "0",
            "type": "t_uint24"
          },
          {
            "astId": 11655,
            "contract": "src/game/debug/StratagemsDebug.sol:StratagemsDebug",
            "label": "epochWhenTokenIsAdded",
            "offset": 3,
            "slot": "0",
            "type": "t_uint24"
          },
          {
            "astId": 11658,
            "contract": "src/game/debug/StratagemsDebug.sol:StratagemsDebug",
            "label": "color",
            "offset": 6,
            "slot": "0",
            "type": "t_enum(Color)11596"
          },
          {
            "astId": 11660,
            "contract": "src/game/debug/StratagemsDebug.sol:StratagemsDebug",
            "label": "life",
            "offset": 7,
            "slot": "0",
            "type": "t_uint8"
          },
          {
            "astId": 11662,
            "contract": "src/game/debug/StratagemsDebug.sol:StratagemsDebug",
            "label": "delta",
            "offset": 8,
            "slot": "0",
            "type": "t_int8"
          },
          {
            "astId": 11664,
            "contract": "src/game/debug/StratagemsDebug.sol:StratagemsDebug",
            "label": "enemyMap",
            "offset": 9,
            "slot": "0",
            "type": "t_uint8"
          },
          {
            "astId": 11666,
            "contract": "src/game/debug/StratagemsDebug.sol:StratagemsDebug",
            "label": "distribution",
            "offset": 10,
            "slot": "0",
            "type": "t_uint8"
          }
        ],
        "numberOfBytes": "32"
      },
      "t_struct(Commitment)11672_storage": {
        "encoding": "inplace",
        "label": "struct UsingStratagemsTypes.Commitment",
        "members": [
          {
            "astId": 11669,
            "contract": "src/game/debug/StratagemsDebug.sol:StratagemsDebug",
            "label": "hash",
            "offset": 0,
            "slot": "0",
            "type": "t_bytes24"
          },
          {
            "astId": 11671,
            "contract": "src/game/debug/StratagemsDebug.sol:StratagemsDebug",
            "label": "epoch",
            "offset": 24,
            "slot": "0",
            "type": "t_uint24"
          }
        ],
        "numberOfBytes": "32"
      },
      "t_uint24": {
        "encoding": "inplace",
        "label": "uint24",
        "numberOfBytes": "3"
      },
      "t_uint256": {
        "encoding": "inplace",
        "label": "uint256",
        "numberOfBytes": "32"
      },
      "t_uint8": {
        "encoding": "inplace",
        "label": "uint8",
        "numberOfBytes": "1"
      }
    }
  },
  "userdoc": {
    "errors": {
      "CanStillResolve()": [
        {
          "notice": "Player have to resolve if they can Stratagems will prevent them from acknowledging missed resolution if there is still time to resolve."
        }
      ],
      "CommitmentHashNotMatching()": [
        {
          "notice": "Player have to reveal their commitment using the exact same move values  If they provide different value, the commitment hash will differ and Stratagems will reject their resolution."
        }
      ],
      "GameNotStarted()": [
        {
          "notice": "Game has not started yet, can't perform any action"
        }
      ],
      "InCommitmentPhase()": [
        {
          "notice": "When in Commit phase, player can make new commitment but they cannot resolve their move yet."
        }
      ],
      "InResolutionPhase()": [
        {
          "notice": "When in Resolution phase, it is not possible to commit new moves or cancel previous commitment  During Resolution phase, players have to reveal their commitment, if not already done."
        }
      ],
      "InvalidEpoch()": [
        {
          "notice": "Player can only resolve their move in the same epoch they commited.abi  If a player resolve later it can only do to minimize the reserve burn cost by calling : `acknowledgeMissedResolution`"
        }
      ],
      "InvalidFurtherMoves()": [
        {
          "notice": "Player can make arbitrary number of moves per epoch. To do so they group moves into (MAX_NUM_MOVES_PER_HASH = 32) moves  This result in a recursive series of hash that they can then submit in turn while resolving.  The limit  (MAX_NUM_MOVES_PER_HASH = 32) ensure a resolution batch fits in a block."
        }
      ],
      "NotAuthorized()": [
        {
          "notice": "Not authorized to perform this operation"
        }
      ],
      "NothingToResolve()": [
        {
          "notice": "Player can only resolve moves they commited."
        }
      ],
      "PreviousCommitmentNotResolved()": [
        {
          "notice": "Previous commitment need to be resolved before making a new one. Even if the corresponding reveal phase has passed.\\  It is also not possible to withdraw any amount from reserve until the commitment is revealed.\\If player lost the information to reveal, it can acknowledge failure which will burn all its reserve.\\"
        }
      ],
      "ReserveTooLow(uint256,uint256)": [
        {
          "notice": "to make a commitment you always need at least one `config.numTokensPerGems` amount in reserve  Player also need one `config.numTokensPerGems`  per moves during the resolution phase."
        }
      ]
    },
    "events": {
      "CommitmentCancelled(address,uint24)": {
        "notice": "A player has cancelled its current commitment (before it reached the resolution phase)"
      },
      "CommitmentMade(address,uint24,bytes24)": {
        "notice": "A player has commited to make a move and resolve it on the resolution phase"
      },
      "CommitmentResolved(address,uint24,bytes24,(uint64,uint8)[],bytes24,uint256)": {
        "notice": "Player has resolved its previous commitment"
      },
      "CommitmentVoid(address,uint24,uint256,bytes24)": {
        "notice": "A player has canceled a previous commitment by burning some tokens"
      },
      "MoveProcessed(uint64,address,uint8,uint8)": {
        "notice": "A move has been resolved."
      },
      "ReserveDeposited(address,uint256,uint256)": {
        "notice": "Player has deposited token in the reserve, allowing it to use that much in game"
      },
      "ReserveWithdrawn(address,uint256,uint256)": {
        "notice": "Player have withdrawn token from the reserve"
      }
    },
    "kind": "user",
    "methods": {},
    "version": 1
  },
  "argsData": "0x0000000000000000000000004c78783faac7636c0d55605ae5bd1d6b9a62f496000000000000000000000000deaddeaddeaddeaddeaddeaddeaddeaddeaddead000000000000000000000000000000000000000000000000000000000000000000000000000000000000000000000000000000000000000000000000000143700000000000000000000000000000000000000000000000000000000000000e1000000000000000000000000000000000000000000000000000000000000000070000000000000000000000000000000000000000000000000de0b6b3a7640000",
  "transaction": {
    "hash": "0x9435f753bebc1a5b5392adf3f1602c92899af9682bcaf9773d9171ce160bbea1",
    "nonce": "0x8a",
    "origin": "0x61c461ecc993aadeb7e4b47e96d1b8cc37314b20"
  }
}