{
  "address": "0x82f6cc7f0bcc32bb27c75b56db90aa5bcbdd8c70",
  "abi": [
    {
      "inputs": [
        {
          "components": [
            {
              "internalType": "contract IERC20WithIERC2612",
              "name": "tokens",
              "type": "address"
            },
            {
              "internalType": "address payable",
              "name": "burnAddress",
              "type": "address"
            },
            {
              "internalType": "uint256",
              "name": "startTime",
              "type": "uint256"
            },
            {
              "internalType": "uint256",
              "name": "commitPhaseDuration",
              "type": "uint256"
            },
            {
              "internalType": "uint256",
              "name": "resolutionPhaseDuration",
              "type": "uint256"
            },
            {
              "internalType": "uint8",
              "name": "maxLife",
              "type": "uint8"
            },
            {
              "internalType": "uint256",
              "name": "numTokensPerGems",
              "type": "uint256"
            }
          ],
          "internalType": "struct UsingStratagemsTypes.Config",
          "name": "config",
          "type": "tuple"
        }
      ],
      "stateMutability": "nonpayable",
      "type": "constructor"
    },
    {
      "inputs": [],
      "name": "CanStillResolve",
      "type": "error"
    },
    {
      "inputs": [],
      "name": "CommitmentHashNotMatching",
      "type": "error"
    },
    {
      "inputs": [],
      "name": "GameNotStarted",
      "type": "error"
    },
    {
      "inputs": [],
      "name": "InCommitmentPhase",
      "type": "error"
    },
    {
      "inputs": [],
      "name": "InResolutionPhase",
      "type": "error"
    },
    {
      "inputs": [],
      "name": "InvalidEpoch",
      "type": "error"
    },
    {
      "inputs": [],
      "name": "InvalidFurtherMoves",
      "type": "error"
    },
    {
      "inputs": [],
      "name": "NothingToResolve",
      "type": "error"
    },
    {
      "inputs": [],
      "name": "PreviousCommitmentNotResolved",
      "type": "error"
    },
    {
      "inputs": [
        {
          "internalType": "uint256",
          "name": "inReserve",
          "type": "uint256"
        },
        {
          "internalType": "uint256",
          "name": "expected",
          "type": "uint256"
        }
      ],
      "name": "ReserveTooLow",
      "type": "error"
    },
    {
      "anonymous": false,
      "inputs": [
        {
          "indexed": true,
          "internalType": "address",
          "name": "player",
          "type": "address"
        },
        {
          "indexed": true,
          "internalType": "uint24",
          "name": "epoch",
          "type": "uint24"
        }
      ],
      "name": "CommitmentCancelled",
      "type": "event"
    },
    {
      "anonymous": false,
      "inputs": [
        {
          "indexed": true,
          "internalType": "address",
          "name": "player",
          "type": "address"
        },
        {
          "indexed": true,
          "internalType": "uint24",
          "name": "epoch",
          "type": "uint24"
        },
        {
          "indexed": false,
          "internalType": "bytes24",
          "name": "commitmentHash",
          "type": "bytes24"
        }
      ],
      "name": "CommitmentMade",
      "type": "event"
    },
    {
      "anonymous": false,
      "inputs": [
        {
          "indexed": true,
          "internalType": "address",
          "name": "player",
          "type": "address"
        },
        {
          "indexed": true,
          "internalType": "uint24",
          "name": "epoch",
          "type": "uint24"
        },
        {
          "indexed": true,
          "internalType": "bytes24",
          "name": "commitmentHash",
          "type": "bytes24"
        },
        {
          "components": [
            {
              "internalType": "uint64",
              "name": "position",
              "type": "uint64"
            },
            {
              "internalType": "enum UsingStratagemsTypes.Color",
              "name": "color",
              "type": "uint8"
            }
          ],
          "indexed": false,
          "internalType": "struct UsingStratagemsTypes.Move[]",
          "name": "moves",
          "type": "tuple[]"
        },
        {
          "indexed": false,
          "internalType": "bytes24",
          "name": "furtherMoves",
          "type": "bytes24"
        },
        {
          "indexed": false,
          "internalType": "uint256",
          "name": "newReserveAmount",
          "type": "uint256"
        }
      ],
      "name": "CommitmentResolved",
      "type": "event"
    },
    {
      "anonymous": false,
      "inputs": [
        {
          "indexed": true,
          "internalType": "address",
          "name": "player",
          "type": "address"
        },
        {
          "indexed": true,
          "internalType": "uint24",
          "name": "epoch",
          "type": "uint24"
        },
        {
          "indexed": false,
          "internalType": "uint256",
          "name": "amountBurnt",
          "type": "uint256"
        },
        {
          "indexed": false,
          "internalType": "bytes24",
          "name": "furtherMoves",
          "type": "bytes24"
        }
      ],
      "name": "CommitmentVoid",
      "type": "event"
    },
    {
      "anonymous": false,
      "inputs": [
        {
          "indexed": true,
          "internalType": "uint64",
          "name": "position",
          "type": "uint64"
        },
        {
          "indexed": true,
          "internalType": "address",
          "name": "player",
          "type": "address"
        },
        {
          "indexed": false,
          "internalType": "enum UsingStratagemsTypes.Color",
          "name": "oldColor",
          "type": "uint8"
        },
        {
          "indexed": false,
          "internalType": "enum UsingStratagemsTypes.Color",
          "name": "newColor",
          "type": "uint8"
        }
      ],
      "name": "MoveProcessed",
      "type": "event"
    },
    {
      "anonymous": false,
      "inputs": [
        {
          "indexed": true,
          "internalType": "address",
          "name": "player",
          "type": "address"
        },
        {
          "indexed": false,
          "internalType": "uint256",
          "name": "amountDeposited",
          "type": "uint256"
        },
        {
          "indexed": false,
          "internalType": "uint256",
          "name": "newAmount",
          "type": "uint256"
        }
      ],
      "name": "ReserveDeposited",
      "type": "event"
    },
    {
      "anonymous": false,
      "inputs": [
        {
          "indexed": true,
          "internalType": "address",
          "name": "player",
          "type": "address"
        },
        {
          "indexed": false,
          "internalType": "uint256",
          "name": "amountWithdrawn",
          "type": "uint256"
        },
        {
          "indexed": false,
          "internalType": "uint256",
          "name": "newAmount",
          "type": "uint256"
        }
      ],
      "name": "ReserveWithdrawn",
      "type": "event"
    },
    {
      "inputs": [
        {
          "internalType": "address",
          "name": "player",
          "type": "address"
        },
        {
          "internalType": "bytes32",
          "name": "secret",
          "type": "bytes32"
        },
        {
          "components": [
            {
              "internalType": "uint64",
              "name": "position",
              "type": "uint64"
            },
            {
              "internalType": "enum UsingStratagemsTypes.Color",
              "name": "color",
              "type": "uint8"
            }
          ],
          "internalType": "struct UsingStratagemsTypes.Move[]",
          "name": "moves",
          "type": "tuple[]"
        },
        {
          "internalType": "bytes24",
          "name": "furtherMoves",
          "type": "bytes24"
        }
      ],
      "name": "acknowledgeMissedResolution",
      "outputs": [],
      "stateMutability": "nonpayable",
      "type": "function"
    },
    {
      "inputs": [],
      "name": "acknowledgeMissedResolutionByBurningAllReserve",
      "outputs": [],
      "stateMutability": "nonpayable",
      "type": "function"
    },
    {
      "inputs": [
        {
          "internalType": "uint256",
          "name": "tokensAmountToAdd",
          "type": "uint256"
        },
        {
          "components": [
            {
              "internalType": "uint256",
              "name": "value",
              "type": "uint256"
            },
            {
              "internalType": "uint256",
              "name": "deadline",
              "type": "uint256"
            },
            {
              "internalType": "uint8",
              "name": "v",
              "type": "uint8"
            },
            {
              "internalType": "bytes32",
              "name": "r",
              "type": "bytes32"
            },
            {
              "internalType": "bytes32",
              "name": "s",
              "type": "bytes32"
            }
          ],
          "internalType": "struct UsingStratagemsTypes.Permit",
          "name": "permit",
          "type": "tuple"
        }
      ],
      "name": "addToReserve",
      "outputs": [],
      "stateMutability": "nonpayable",
      "type": "function"
    },
    {
      "inputs": [],
      "name": "cancelCommitment",
      "outputs": [],
      "stateMutability": "nonpayable",
      "type": "function"
    },
    {
      "inputs": [
        {
          "internalType": "uint256",
          "name": "id",
          "type": "uint256"
        }
      ],
      "name": "getCell",
      "outputs": [
        {
          "components": [
            {
              "internalType": "address",
              "name": "owner",
              "type": "address"
            },
            {
              "internalType": "uint24",
              "name": "lastEpochUpdate",
              "type": "uint24"
            },
            {
              "internalType": "uint24",
              "name": "epochWhenTokenIsAdded",
              "type": "uint24"
            },
            {
              "internalType": "enum UsingStratagemsTypes.Color",
              "name": "color",
              "type": "uint8"
            },
            {
              "internalType": "uint8",
              "name": "life",
              "type": "uint8"
            },
            {
              "internalType": "int8",
              "name": "delta",
              "type": "int8"
            },
            {
              "internalType": "uint8",
              "name": "enemyMap",
              "type": "uint8"
            },
            {
              "internalType": "uint8",
              "name": "distribution",
              "type": "uint8"
            }
          ],
          "internalType": "struct UsingStratagemsTypes.FullCell",
          "name": "",
          "type": "tuple"
        }
      ],
      "stateMutability": "view",
      "type": "function"
    },
    {
      "inputs": [
        {
          "internalType": "uint256[]",
          "name": "ids",
          "type": "uint256[]"
        }
      ],
      "name": "getCells",
      "outputs": [
        {
          "components": [
            {
              "internalType": "address",
              "name": "owner",
              "type": "address"
            },
            {
              "internalType": "uint24",
              "name": "lastEpochUpdate",
              "type": "uint24"
            },
            {
              "internalType": "uint24",
              "name": "epochWhenTokenIsAdded",
              "type": "uint24"
            },
            {
              "internalType": "enum UsingStratagemsTypes.Color",
              "name": "color",
              "type": "uint8"
            },
            {
              "internalType": "uint8",
              "name": "life",
              "type": "uint8"
            },
            {
              "internalType": "int8",
              "name": "delta",
              "type": "int8"
            },
            {
              "internalType": "uint8",
              "name": "enemyMap",
              "type": "uint8"
            },
            {
              "internalType": "uint8",
              "name": "distribution",
              "type": "uint8"
            }
          ],
          "internalType": "struct UsingStratagemsTypes.FullCell[]",
          "name": "cells",
          "type": "tuple[]"
        }
      ],
      "stateMutability": "view",
      "type": "function"
    },
    {
      "inputs": [
        {
          "internalType": "address",
          "name": "account",
          "type": "address"
        }
      ],
      "name": "getCommitment",
      "outputs": [
        {
          "components": [
            {
              "internalType": "bytes24",
              "name": "hash",
              "type": "bytes24"
            },
            {
              "internalType": "uint24",
              "name": "epoch",
              "type": "uint24"
            }
          ],
          "internalType": "struct UsingStratagemsTypes.Commitment",
          "name": "commitment",
          "type": "tuple"
        }
      ],
      "stateMutability": "view",
      "type": "function"
    },
    {
      "inputs": [],
      "name": "getConfig",
      "outputs": [
        {
          "components": [
            {
              "internalType": "contract IERC20WithIERC2612",
              "name": "tokens",
              "type": "address"
            },
            {
              "internalType": "address payable",
              "name": "burnAddress",
              "type": "address"
            },
            {
              "internalType": "uint256",
              "name": "startTime",
              "type": "uint256"
            },
            {
              "internalType": "uint256",
              "name": "commitPhaseDuration",
              "type": "uint256"
            },
            {
              "internalType": "uint256",
              "name": "resolutionPhaseDuration",
              "type": "uint256"
            },
            {
              "internalType": "uint8",
              "name": "maxLife",
              "type": "uint8"
            },
            {
              "internalType": "uint256",
              "name": "numTokensPerGems",
              "type": "uint256"
            }
          ],
          "internalType": "struct UsingStratagemsTypes.Config",
          "name": "config",
          "type": "tuple"
        }
      ],
      "stateMutability": "view",
      "type": "function"
    },
    {
      "inputs": [
        {
          "internalType": "address",
          "name": "account",
          "type": "address"
        }
      ],
      "name": "getTokensInReserve",
      "outputs": [
        {
          "internalType": "uint256",
          "name": "amount",
          "type": "uint256"
        }
      ],
      "stateMutability": "view",
      "type": "function"
    },
    {
      "inputs": [
        {
          "internalType": "bytes24",
          "name": "commitmentHash",
          "type": "bytes24"
        }
      ],
      "name": "makeCommitment",
      "outputs": [],
      "stateMutability": "nonpayable",
      "type": "function"
    },
    {
      "inputs": [
        {
          "internalType": "bytes24",
          "name": "commitmentHash",
          "type": "bytes24"
        },
        {
          "internalType": "uint256",
          "name": "tokensAmountToAdd",
          "type": "uint256"
        },
        {
          "components": [
            {
              "internalType": "uint256",
              "name": "value",
              "type": "uint256"
            },
            {
              "internalType": "uint256",
              "name": "deadline",
              "type": "uint256"
            },
            {
              "internalType": "uint8",
              "name": "v",
              "type": "uint8"
            },
            {
              "internalType": "bytes32",
              "name": "r",
              "type": "bytes32"
            },
            {
              "internalType": "bytes32",
              "name": "s",
              "type": "bytes32"
            }
          ],
          "internalType": "struct UsingStratagemsTypes.Permit",
          "name": "permit",
          "type": "tuple"
        }
      ],
      "name": "makeCommitmentWithExtraReserve",
      "outputs": [],
      "stateMutability": "nonpayable",
      "type": "function"
    },
    {
      "inputs": [
        {
          "internalType": "uint64",
          "name": "position",
          "type": "uint64"
        }
      ],
      "name": "poke",
      "outputs": [],
      "stateMutability": "nonpayable",
      "type": "function"
    },
    {
      "inputs": [
        {
          "internalType": "uint64[]",
          "name": "positions",
          "type": "uint64[]"
        }
      ],
      "name": "pokeMultiple",
      "outputs": [],
      "stateMutability": "nonpayable",
      "type": "function"
    },
    {
      "inputs": [
        {
          "internalType": "address",
          "name": "player",
          "type": "address"
        },
        {
          "internalType": "bytes32",
          "name": "secret",
          "type": "bytes32"
        },
        {
          "components": [
            {
              "internalType": "uint64",
              "name": "position",
              "type": "uint64"
            },
            {
              "internalType": "enum UsingStratagemsTypes.Color",
              "name": "color",
              "type": "uint8"
            }
          ],
          "internalType": "struct UsingStratagemsTypes.Move[]",
          "name": "moves",
          "type": "tuple[]"
        },
        {
          "internalType": "bytes24",
          "name": "furtherMoves",
          "type": "bytes24"
        },
        {
          "internalType": "bool",
          "name": "useReserve",
          "type": "bool"
        }
      ],
      "name": "resolve",
      "outputs": [],
      "stateMutability": "nonpayable",
      "type": "function"
    },
    {
      "inputs": [
        {
          "internalType": "uint256",
          "name": "amount",
          "type": "uint256"
        }
      ],
      "name": "withdrawFromReserve",
      "outputs": [],
      "stateMutability": "nonpayable",
      "type": "function"
    }
  ],
  "contractName": "StratagemsGameplay",
  "sourceName": "src/game/routes/StratagemsGameplay.sol",
  "bytecode": "0x61016060405234801562000011575f80fd5b5060405162004fc638038062004fc68339810160408190526200003491620000b0565b80516001600160a01b039081166080908152602083015190911661014052604082015160a0908152606083015160c09081529183015160e05282015160ff166101005201516101205262000158565b80516001600160a01b03811681146200009a575f80fd5b919050565b805160ff811681146200009a575f80fd5b5f60e08284031215620000c1575f80fd5b60405160e081016001600160401b0381118282101715620000f057634e487b7160e01b5f52604160045260245ffd5b604052620000fe8362000083565b81526200010e6020840162000083565b60208201526040830151604082015260608301516060820152608083015160808201526200013f60a084016200009f565b60a082015260c083015160c08201528091505092915050565b60805160a05160c05160e051610100516101205161014051614d19620002ad5f395f8181610af401528181610e90015281816114be0152611f8501525f8181611580015281816123640152818161241d015281816128450152818161289a01528181612ade01528181612b3701528181612b9501528181612cd001528181612d1901528181613744015261380701525f818161155901528181612a580152818161305a01528181613091015281816130ff015261312d01525f8181611531015261197101525f818161150b015281816119920152611a6301525f81816114e5015281816119c50152611a2301525f818161050d01528181610b2301528181610c3001528181610ebf015281816110820152818161122e0152818161135901528181611499015281816115f70152818161171c01528181611d5001528181611ec301528181611fb5015261207f0152614d195ff3fe608060405234801561000f575f80fd5b50600436106100f0575f3560e01c8063990b050911610093578063c3f909d411610063578063c3f909d4146101f7578063d671011214610271578063f18885ce14610284578063fa1026dd146102a4575f80fd5b8063990b050914610186578063afa1e2d1146101c9578063b3015773146101d1578063c0e75387146101e4575f80fd5b806324a27240116100ce57806324a27240146101455780634dd3ab231461014d57806381ca54b9146101605780638b8fc3a114610173575f80fd5b80630a8bcdb9146100f4578063145165a914610109578063206848f61461011c575b5f80fd5b610107610102366004614062565b610389565b005b610107610117366004614120565b6105ba565b61012f61012a366004614062565b6108dc565b60405161013c9190614289565b60405180910390f35b6101076109ab565b61010761015b3660046142af565b610bd4565b61010761016e3660046142cf565b610c59565b610107610181366004614339565b610fae565b6101bb6101943660046143a8565b73ffffffffffffffffffffffffffffffffffffffff165f9081526002602052604090205490565b60405190815260200161013c565b6101076110ad565b6101076101df3660046143c1565b6111ba565b6101076101f23660046143f0565b6111d8565b6101ff61141a565b60405161013c91905f60e08201905073ffffffffffffffffffffffffffffffffffffffff8084511683528060208501511660208401525060408301516040830152606083015160608301526080830151608083015260ff60a08401511660a083015260c083015160c083015292915050565b61010761027f36600461442a565b6115a7565b6102976102923660046144d1565b6117dc565b60405161013c9190614572565b6103476102b23660046143a8565b604080518082019091525f80825260208201525073ffffffffffffffffffffffffffffffffffffffff165f908152600360209081526040918290208251808401845290549283901b7fffffffffffffffffffffffffffffffffffffffffffffffff0000000000000000168152780100000000000000000000000000000000000000000000000090920462ffffff169082015290565b6040805182517fffffffffffffffffffffffffffffffffffffffffffffffff000000000000000016815260209283015162ffffff16928101929092520161013c565b335f90815260036020526040812090806103a1611969565b845491935091507801000000000000000000000000000000000000000000000000900462ffffff161580159061040457508015806104045750825462ffffff83811678010000000000000000000000000000000000000000000000009092041614155b1561043b576040517fea27126e00000000000000000000000000000000000000000000000000000000815260040160405180910390fd5b335f908152600260205260409020546001850161045a5793505f6104b0565b848110156104a3576040517f78fe52a600000000000000000000000000000000000000000000000000000000815260048101829052602481018690526044015b60405180910390fd5b6104ad85826145ed565b90505b335f8181526002602052604090819020839055517fa9059cbb00000000000000000000000000000000000000000000000000000000815260048101919091526024810186905273ffffffffffffffffffffffffffffffffffffffff7f0000000000000000000000000000000000000000000000000000000000000000169063a9059cbb906044016020604051808303815f875af1158015610553573d5f803e3d5ffd5b505050506040513d601f19601f820116820180604052508101906105779190614600565b50604080518681526020810183905233917ff7aeb382a1e87f84aa69637a22868c2e12be1261273f04cdf40a262a8b890031910160405180910390a25050505050565b73ffffffffffffffffffffffffffffffffffffffff86165f90815260036020526040812090806105e8611969565b915091508015610624576040517f24f7f40f00000000000000000000000000000000000000000000000000000000815260040160405180910390fd5b82547801000000000000000000000000000000000000000000000000900462ffffff165f0361067f576040517f99c04fd700000000000000000000000000000000000000000000000000000000815260040160405180910390fd5b825462ffffff838116780100000000000000000000000000000000000000000000000090920416146106dd576040517fd5b25b6300000000000000000000000000000000000000000000000000000000815260040160405180910390fd5b8254604080516020808a0282018101835289825261073e9390921b918b91908b908b9081905f9085015b828210156107335761072460408302860136819003810190614629565b81526020019060010190610707565b505050505088611ab1565b5f6107a78a848a8a808060200260200160405190810160405280939291908181526020015f905b828210156107915761078260408302860136819003810190614629565b81526020019060010190610765565b5050505050886107a1578d611bde565b5f611bde565b845490915060401b7fffffffffffffffffffffffffffffffffffffffffffffffff00000000000000008716156108425760208814610811576040517fcc586b4500000000000000000000000000000000000000000000000000000000815260040160405180910390fd5b84547fffffffffffffffff00000000000000000000000000000000000000000000000016604088901c178555610869565b84547fffffffffff000000ffffffffffffffffffffffffffffffffffffffffffffffff1685555b8067ffffffffffffffff19168462ffffff168c73ffffffffffffffffffffffffffffffffffffffff167f1a98c747a021d0d5f559e6beea9f0e9f36e11c5f218f85fda0bd665b6b0273548c8c8c886040516108c79493929190614682565b60405180910390a45050505050505050505050565b6108e4613fe1565b5f6108ed611969565b5090505f6108fb84836120f7565b905060405180610100016040528061091e865f9081526001602052604090205490565b73ffffffffffffffffffffffffffffffffffffffff168152602001825f015162ffffff168152602001826020015162ffffff1681526020018260400151600681111561096c5761096c61419d565b8152602001826060015160ff16815260200182608001515f0b81526020018260a0015160ff1681526020018260c0015160ff1681525092505050919050565b335f908152600360205260408120906109c2611969565b5082549091507801000000000000000000000000000000000000000000000000900462ffffff165f03610a21576040517f99c04fd700000000000000000000000000000000000000000000000000000000815260040160405180910390fd5b815462ffffff80831678010000000000000000000000000000000000000000000000009092041603610a7f576040517f53a4c7b200000000000000000000000000000000000000000000000000000000815260040160405180910390fd5b81547fffffffffff000000ffffffffffffffffffffffffffffffffffffffffffffffff168255335f908152600260205260408082208054929055517fa9059cbb00000000000000000000000000000000000000000000000000000000815273ffffffffffffffffffffffffffffffffffffffff7f000000000000000000000000000000000000000000000000000000000000000081166004830152602482018390527f0000000000000000000000000000000000000000000000000000000000000000169063a9059cbb906044016020604051808303815f875af1158015610b69573d5f803e3d5ffd5b505050506040513d601f19601f82011682018060405250810190610b8d9190614600565b50604080518281525f602082015262ffffff84169133917f6337d70daadadd11f8be7f6e7b38e6c04d28710b1f2a2894bb14d8e3eaa8cdb6910160405180910390a3505050565b60408051600581830181815261010083019093525f928291816020015b604080518082019091525f8082526020820152815260200190600190039081610bf157505081525f6020909101529050610c2b8183612226565b610c557f0000000000000000000000000000000000000000000000000000000000000000826125fc565b5050565b73ffffffffffffffffffffffffffffffffffffffff85165f90815260036020526040812090610c86611969565b5082549091507801000000000000000000000000000000000000000000000000900462ffffff161580610cdd5750815462ffffff828116780100000000000000000000000000000000000000000000000090920416145b15610d14576040517f53a4c7b200000000000000000000000000000000000000000000000000000000815260040160405180910390fd5b81546040805160208088028201810183528782528793610d74931b918a918a90869081905f9085015b82821015610d6957610d5a60408302860136819003810190614629565b81526020019060010190610d3d565b505050505087611ab1565b7fffffffffffffffffffffffffffffffffffffffffffffffff0000000000000000841615610e075760208114610dd6576040517fcc586b4500000000000000000000000000000000000000000000000000000000815260040160405180910390fd5b82547fffffffffffffffff00000000000000000000000000000000000000000000000016604085901c178355610e2e565b82547fffffffffff000000ffffffffffffffffffffffffffffffffffffffffffffffff1683555b335f90815260026020526040812080548792839291610e4e9084906145ed565b90915550506040517fa9059cbb00000000000000000000000000000000000000000000000000000000815273ffffffffffffffffffffffffffffffffffffffff7f000000000000000000000000000000000000000000000000000000000000000081166004830152602482018390527f0000000000000000000000000000000000000000000000000000000000000000169063a9059cbb906044016020604051808303815f875af1158015610f05573d5f803e3d5ffd5b505050506040513d601f19601f82011682018060405250810190610f299190614600565b50604080518281527fffffffffffffffffffffffffffffffffffffffffffffffff00000000000000008716602082015262ffffff85169173ffffffffffffffffffffffffffffffffffffffff8c16917f6337d70daadadd11f8be7f6e7b38e6c04d28710b1f2a2894bb14d8e3eaa8cdb6910160405180910390a3505050505050505050565b6040805180820190915281905f9080610fc8846005614716565b67ffffffffffffffff811115610fe057610fe0614455565b60405190808252806020026020018201604052801561102457816020015b604080518082019091525f8082526020820152815260200190600190039081610ffe5790505b5081526020015f81525090505f5b8281101561107c5761106a828686848181106110505761105061472d565b905060200201602081019061106591906142af565b612226565b806110748161475a565b915050611032565b506110a77f0000000000000000000000000000000000000000000000000000000000000000826125fc565b50505050565b335f90815260036020526040812090806110c5611969565b9150915080611100576040517f9713090900000000000000000000000000000000000000000000000000000000815260040160405180910390fd5b825462ffffff8381167801000000000000000000000000000000000000000000000000909204161461115e576040517fea27126e00000000000000000000000000000000000000000000000000000000815260040160405180910390fd5b82547fffffffffff000000ffffffffffffffffffffffffffffffffffffffffffffffff16835560405162ffffff83169033907f619ef9650648da30c9647d0b77a0de24a51da0630c3533d54cc1eb3d798e1eaa905f90a3505050565b335f818152600260205260409020546111d5919083906126fd565b50565b335f908152600260205260409020546111f18382614791565b335f8181526002602052604090208290559091506112109085836126fd565b8135156113185773ffffffffffffffffffffffffffffffffffffffff7f00000000000000000000000000000000000000000000000000000000000000001663d505accf33308535602087013561126c6060890160408a016147a4565b6040517fffffffff0000000000000000000000000000000000000000000000000000000060e088901b16815273ffffffffffffffffffffffffffffffffffffffff95861660048201529490931660248501526044840191909152606483015260ff166084820152606085013560a4820152608085013560c482015260e4015f604051808303815f87803b158015611301575f80fd5b505af1158015611313573d5f803e3d5ffd5b505050505b82156110a7576040517f23b872dd000000000000000000000000000000000000000000000000000000008152336004820152306024820152604481018490527f000000000000000000000000000000000000000000000000000000000000000073ffffffffffffffffffffffffffffffffffffffff16906323b872dd906064016020604051808303815f875af11580156113b4573d5f803e3d5ffd5b505050506040513d601f19601f820116820180604052508101906113d89190614600565b50604080518481526020810183905233917f9705a8ff16374359785d31b0f1862c27f983645496f40760d180a9830eeaf2e8910160405180910390a250505050565b6114826040518060e001604052805f73ffffffffffffffffffffffffffffffffffffffff1681526020015f73ffffffffffffffffffffffffffffffffffffffff1681526020015f81526020015f81526020015f81526020015f60ff1681526020015f81525090565b73ffffffffffffffffffffffffffffffffffffffff7f0000000000000000000000000000000000000000000000000000000000000000811682527f00000000000000000000000000000000000000000000000000000000000000001660208201527f000000000000000000000000000000000000000000000000000000000000000060408201527f000000000000000000000000000000000000000000000000000000000000000060608201527f0000000000000000000000000000000000000000000000000000000000000000608082015260ff7f00000000000000000000000000000000000000000000000000000000000000001660a08201527f000000000000000000000000000000000000000000000000000000000000000060c082015290565b8115610c5557335f908152600260205260409020546115c68382614791565b335f90815260026020526040902081905590508135156116e15773ffffffffffffffffffffffffffffffffffffffff7f00000000000000000000000000000000000000000000000000000000000000001663d505accf3330853560208701356116356060890160408a016147a4565b6040517fffffffff0000000000000000000000000000000000000000000000000000000060e088901b16815273ffffffffffffffffffffffffffffffffffffffff95861660048201529490931660248501526044840191909152606483015260ff166084820152606085013560a4820152608085013560c482015260e4015f604051808303815f87803b1580156116ca575f80fd5b505af11580156116dc573d5f803e3d5ffd5b505050505b6040517f23b872dd000000000000000000000000000000000000000000000000000000008152336004820152306024820152604481018490527f000000000000000000000000000000000000000000000000000000000000000073ffffffffffffffffffffffffffffffffffffffff16906323b872dd906064016020604051808303815f875af1158015611777573d5f803e3d5ffd5b505050506040513d601f19601f8201168201806040525081019061179b9190614600565b50604080518481526020810183905233917f9705a8ff16374359785d31b0f1862c27f983645496f40760d180a9830eeaf2e8910160405180910390a2505050565b60605f6117e7611969565b5083519091508067ffffffffffffffff81111561180657611806614455565b60405190808252806020026020018201604052801561183f57816020015b61182c613fe1565b8152602001906001900390816118245790505b5092505f5b81811015611961575f6118708683815181106118625761186261472d565b6020026020010151856120f7565b90506040518061010001604052806118ac8885815181106118935761189361472d565b60200260200101515f9081526001602052604090205490565b73ffffffffffffffffffffffffffffffffffffffff168152602001825f015162ffffff168152602001826020015162ffffff168152602001826040015160068111156118fa576118fa61419d565b8152602001826060015160ff16815260200182608001515f0b81526020018260a0015160ff1681526020018260c0015160ff168152508583815181106119425761194261472d565b60200260200101819052505080806119599061475a565b915050611844565b505050919050565b5f80806119b67f00000000000000000000000000000000000000000000000000000000000000007f0000000000000000000000000000000000000000000000000000000000000000614791565b90505f6119c1612942565b90507f0000000000000000000000000000000000000000000000000000000000000000811015611a1d576040517f3a5f7b5700000000000000000000000000000000000000000000000000000000815260040160405180910390fd5b5f611a487f0000000000000000000000000000000000000000000000000000000000000000836145ed565b9050611a5483826147f1565b611a5f906002614791565b94507f000000000000000000000000000000000000000000000000000000000000000083611a8e600288614804565b62ffffff16611a9d9190614716565b611aa790836145ed565b1093505050509091565b7fffffffffffffffffffffffffffffffffffffffffffffffff0000000000000000811615611b5c575f838383604051602001611aef9392919061487f565b6040516020818303038152906040528051906020012090508067ffffffffffffffff19168567ffffffffffffffff191614611b56576040517fd13415b500000000000000000000000000000000000000000000000000000000815260040160405180910390fd5b506110a7565b5f8383604051602001611b709291906148c9565b6040516020818303038152906040528051906020012090508067ffffffffffffffff19168567ffffffffffffffff191614611bd7576040517fd13415b500000000000000000000000000000000000000000000000000000000815260040160405180910390fd5b5050505050565b5f80604051806040016040528085516005611bf99190614716565b67ffffffffffffffff811115611c1157611c11614455565b604051908082528060200260200182016040528015611c5557816020015b604080518082019091525f8082526020820152815260200190600190039081611c2f5790505b5081526020015f8152509050611c8260405180606001604052805f81526020015f81526020015f81525090565b5f5b8551811015611d15575f805f611cb5868c8c8c8881518110611ca857611ca861472d565b6020026020010151612976565b92509250925082855f01818151611ccc9190614791565b905250602085018051839190611ce3908390614791565b905250604085018051829190611cfa908390614791565b905250839250611d0d915082905061475a565b915050611c84565b5060408051808201909152600781527f7265736f6c766500000000000000000000000000000000000000000000000000602090910152611d757f0000000000000000000000000000000000000000000000000000000000000000836125fc565b73ffffffffffffffffffffffffffffffffffffffff87165f90815260026020908152604090912054908201518251919450611daf91614791565b831015611e0357602081015181518491611dc891614791565b6040517f78fe52a60000000000000000000000000000000000000000000000000000000081526004810192909252602482015260440161049a565b73ffffffffffffffffffffffffffffffffffffffff8416611e675760208101518151611e2f9190614791565b611e3990846145ed565b73ffffffffffffffffffffffffffffffffffffffff88165f9081526002602052604090208190559250612023565b805115611f315780516040517f23b872dd00000000000000000000000000000000000000000000000000000000815273ffffffffffffffffffffffffffffffffffffffff868116600483015230602483015260448201929092527f0000000000000000000000000000000000000000000000000000000000000000909116906323b872dd906064016020604051808303815f875af1158015611f0b573d5f803e3d5ffd5b505050506040513d601f19601f82011682018060405250810190611f2f9190614600565b505b6020810151156120235760208101516040517f23b872dd00000000000000000000000000000000000000000000000000000000815273ffffffffffffffffffffffffffffffffffffffff86811660048301527f00000000000000000000000000000000000000000000000000000000000000008116602483015260448201929092527f0000000000000000000000000000000000000000000000000000000000000000909116906323b872dd906064016020604051808303815f875af1158015611ffd573d5f803e3d5ffd5b505050506040513d601f19601f820116820180604052508101906120219190614600565b505b6040810151156120ed5760408181015190517fa9059cbb00000000000000000000000000000000000000000000000000000000815273ffffffffffffffffffffffffffffffffffffffff898116600483015260248201929092527f00000000000000000000000000000000000000000000000000000000000000009091169063a9059cbb906044016020604051808303815f875af11580156120c7573d5f803e3d5ffd5b505050506040513d601f19601f820116820180604052508101906120eb9190614600565b505b5050949350505050565b6120ff614025565b67ffffffffffffffff83165f9081526020818152604091829020825160e081018452815462ffffff8082168352630100000082041693820193909352929091908301906601000000000000900460ff1660068111156121605761216061419d565b60068111156121715761217161419d565b8152905460ff6701000000000000008204811660208401526801000000000000000082045f0b60408401526901000000000000000000820481166060808501919091526a010000000000000000000090920416608092830152825191830151908301519293509091600162ffffff8416108015906121f157505f8160ff16115b1561221d575f80612209858760a0015186868b612fc9565b60ff909116606088015262ffffff16865250505b50505092915050565b5f61222f611969565b5090505f61223d83836120f7565b90506122a25f6122518462ffffff1661322c565b6040516020016122619190614916565b604080518083037fffffffffffffffffffffffffffffffffffffffffffffffffffffffffffffffe0019052525067ffffffffffffffff84165f526001602052565b60c0810151606082015160ff161580156122c15750815162ffffff1615155b156122ef576122d38260a001516132e8565b60048360a0015160ff16901b6122e99190614947565b5f835290505b5f8061230686868660400151876040015187613319565b9094509250505060ff821615612393576123938760405180604001604052806123448a67ffffffffffffffff165f9081526001602052604090205490565b73ffffffffffffffffffffffffffffffffffffffff16815260200161238c7f000000000000000000000000000000000000000000000000000000000000000060ff8816614716565b9052613578565b5f5b60048160ff161015612456575f8260ff8316600481106123b7576123b761472d565b602002015173ffffffffffffffffffffffffffffffffffffffff161461244457612444886040518060400160405280858560ff16600481106123fb576123fb61472d565b602002015173ffffffffffffffffffffffffffffffffffffffff1681526020017f0000000000000000000000000000000000000000000000000000000000000000815250613578565b8061244e81614960565b915050612395565b505f60c0850181905267ffffffffffffffff871681526020818152604091829020865181549288015162ffffff9081166301000000027fffffffffffffffffffffffffffffffffffffffffffffffffffff0000000000009094169116179190911780825591860151869282907fffffffffffffffffffffffffffffffffffffffffffffffffff00ffffffffffff1666010000000000008360068111156124fe576124fe61419d565b021790555060608201518154608084015160a085015160c0909501517fffffffffffffffffffffffffffffffffffffffffffffff0000ffffffffffffff90921667010000000000000060ff948516027fffffffffffffffffffffffffffffffffffffffffffffff00ffffffffffffffff16176801000000000000000091841691909102177fffffffffffffffffffffffffffffffffffffffffff0000ffffffffffffffffff166901000000000000000000948316949094027fffffffffffffffffffffffffffffffffffffffffff00ffffffffffffffffffff16939093176a0100000000000000000000919093160291909117905550505050505050565b5f5b81602001518110156126f8578273ffffffffffffffffffffffffffffffffffffffff1663a9059cbb835f0151838151811061263b5761263b61472d565b60200260200101515f0151845f0151848151811061265b5761265b61472d565b6020026020010151602001516040518363ffffffff1660e01b81526004016126a592919073ffffffffffffffffffffffffffffffffffffffff929092168252602082015260400190565b6020604051808303815f875af11580156126c1573d5f803e3d5ffd5b505050506040513d601f19601f820116820180604052508101906126e59190614600565b50806126f08161475a565b9150506125fe565b505050565b73ffffffffffffffffffffffffffffffffffffffff83165f908152600360205260408120908061272b611969565b9150915080612766576040517f9713090900000000000000000000000000000000000000000000000000000000815260040160405180910390fd5b82547801000000000000000000000000000000000000000000000000900462ffffff16158015906127bc5750825462ffffff83811678010000000000000000000000000000000000000000000000009092041614155b156127f3576040517fea27126e00000000000000000000000000000000000000000000000000000000815260040160405180910390fd5b825462ffffff83167801000000000000000000000000000000000000000000000000027fffffffffff000000000000000000000000000000000000000000000000000000909116604087901c171783557f00000000000000000000000000000000000000000000000000000000000000008410156128c6576040517f78fe52a6000000000000000000000000000000000000000000000000000000008152600481018590527f0000000000000000000000000000000000000000000000000000000000000000602482015260440161049a565b6040517fffffffffffffffffffffffffffffffffffffffffffffffff00000000000000008616815262ffffff83169073ffffffffffffffffffffffffffffffffffffffff8816907fe3c45ded79e3db74b160b9a697d75f465f68d287a678532ed0a9fb691553b93d9060200160405180910390a3505050505050565b7f0112c413de07a110ce0a9ace0c01e41b5b59462770325b042f0dc72c337f55f2545f906129708142614791565b91505090565b5f805f80612987855f0151876120f7565b90506129ed5f61299b8862ffffff1661322c565b6040516020016129ab919061497e565b604080518083037fffffffffffffffffffffffffffffffffffffffffffffffffffffffffffffffe00190525250855167ffffffffffffffff165f526001602052565b60c0810151606082015160ff16158015612a0c5750815162ffffff1615155b15612a3a57612a1e8260a001516132e8565b60048360a0015160ff16901b612a349190614947565b5f835290505b5f86602001516006811115612a5157612a5161419d565b03612b63577f000000000000000000000000000000000000000000000000000000000000000060ff16826060015160ff16141580612ad55750855167ffffffffffffffff165f9081526001602052604090205473ffffffffffffffffffffffffffffffffffffffff89169073ffffffffffffffffffffffffffffffffffffffff1614155b15612b0a575f807f00000000000000000000000000000000000000000000000000000000000000009450945094505050612fbf565b612b5e8960405180604001604052808b73ffffffffffffffffffffffffffffffffffffffff1681526020017f0000000000000000000000000000000000000000000000000000000000000000815250613578565b612bc1565b8662ffffff16826020015162ffffff1603612bc157606082015160ff1615612b915760066020870152612bc1565b5f807f00000000000000000000000000000000000000000000000000000000000000009450945094505050612fbf565b5f80612bd48b898b8760400151876136c4565b915091508973ffffffffffffffffffffffffffffffffffffffff16885f015167ffffffffffffffff167f17b85ded3fb12432ee427abc34a3026e1fbbb8bc431e3dbe51bc81215655c25c86604001518b60200151604051612c369291906149af565b60405180910390a3876020015184604001906006811115612c5957612c5961419d565b90816006811115612c6c57612c6c61419d565b9052505f60c0850181905262ffffff8a16602086015284604001516006811115612c9857612c9861419d565b03612cf6575f606085018190528085526080850181905260a08501819052885167ffffffffffffffff168152600160205260408120557f00000000000000000000000000000000000000000000000000000000000000009450612dbf565b60ff811660a08501525f82900b60808501526001606085015262ffffff891684527f00000000000000000000000000000000000000000000000000000000000000009650600684604001516006811115612d5257612d5261419d565b03612d8c57875167ffffffffffffffff165f90815260016020526040902073ffffffffffffffffffffffffffffffffffffffff9055612dbf565b875167ffffffffffffffff165f90815260016020526040902073ffffffffffffffffffffffffffffffffffffffff8b1690555b875167ffffffffffffffff165f9081526020818152604091829020865181549288015162ffffff9081166301000000027fffffffffffffffffffffffffffffffffffffffffffffffffffff0000000000009094169116179190911780825591860151869282907fffffffffffffffffffffffffffffffffffffffffffffffffff00ffffffffffff166601000000000000836006811115612e6157612e6161419d565b021790555060608201518154608084015160a085015160c0909501517fffffffffffffffffffffffffffffffffffffffffffffff0000ffffffffffffff90921667010000000000000060ff948516027fffffffffffffffffffffffffffffffffffffffffffffff00ffffffffffffffff16176801000000000000000091841691909102177fffffffffffffffffffffffffffffffffffffffffff0000ffffffffffffffffff166901000000000000000000948316949094027fffffffffffffffffffffffffffffffffffffffffff00ffffffffffffffffffff16939093176a01000000000000000000009190931602919091179055612fba5f612f6862ffffff8c1661322c565b604051602001612f7891906149ca565b604080518083037fffffffffffffffffffffffffffffffffffffffffffffffffffffffffffffffe00190525250885167ffffffffffffffff165f526001602052565b505050505b9450945094915050565b5f85600162ffffff821610801590612fe357505f8460ff16115b15613222575f612ff38885614804565b62ffffff1690508015613219575f865f0b5f03613030577fffffffffffffffffffffffffffffffffffffffffffffffffffffffffffffffff613032565b865b90505f815f0b128015613046575060ff8816155b1561304e57505f5b5f815f0b131561316f577f000000000000000000000000000000000000000000000000000000000000000060ff168660ff161015613164575f816001816130b58a7f00000000000000000000000000000000000000000000000000000000000000006149fb565b6130bf9190614947565b6130c991906149fb565b6130d39190614a14565b90508060ff168311156130e7578060ff1692505b6130f18284614a35565b6130fb9088614947565b96507f000000000000000000000000000000000000000000000000000000000000000060ff168760ff16111561314f577f000000000000000000000000000000000000000000000000000000000000000096505b86945061315c838b614a51565b935050613213565b859350889250613213565b5f815f0b121561320c575f61318382614a6d565b600161318e84614a6d565b613198908a614947565b6131a291906149fb565b6131ac9190614a14565b90508060ff168311156131c0578060ff1692505b5f6131ca83614a6d565b6131d49085614a35565b90508760ff168160ff1611156131ec575f95506131f9565b6131f681896149fb565b95505b613203848c614a51565b94505050613213565b8593508492505b50613220565b8492508791505b505b9550959350505050565b60605f61323883613854565b60010190505f8167ffffffffffffffff81111561325757613257614455565b6040519080825280601f01601f191660200182016040528015613281576020820181803683370190505b5090508181016020015b7fffffffffffffffffffffffffffffffffffffffffffffffffffffffffffffffff017f3031323334353637383961626364656600000000000000000000000000000000600a86061a8153600a850494508461328b57509392505050565b5f5b60ff821615613314576132fe6001836149fb565b909116908061330c81614960565b9150506132ea565b919050565b5f805f613324614044565b63ffffffff808a16600390810b9160208c811c90911690910b905f9081907fffffffffffffffffffffffffffffffffffffffffffffffffffffffffffffffff8401901b8401613377818e60028f8f613936565b90935091505f83810b121561338d578760011797505b9581019560048a811c811690036133d05767ffffffffffffffff81165f9081526001602052604090205473ffffffffffffffffffffffffffffffffffffffff1686525b5096810196602083901b84017fffffffffffffffffffffffffffffffffffffffffffffffffffffffffffffffff0161340c818e60038f8f613936565b90935091505f83810b1215613422578760021797505b95810195600860048b901c8116900361346a5767ffffffffffffffff81165f9081526001602052604090205473ffffffffffffffffffffffffffffffffffffffff1660208701525b50968101966001830160201b8401613485818e5f8f8f613936565b90935091505f83810b121561349b578760041797505b95810195600160048b901c811690036134e35767ffffffffffffffff81165f9081526001602052604090205473ffffffffffffffffffffffffffffffffffffffff1660408701525b8289019850505f84600101602085901b019050613504818e60018f8f613936565b90935091505f83810b121561351a578760081797505b95810195600260048b901c811690036135625767ffffffffffffffff81165f9081526001602052604090205473ffffffffffffffffffffffffffffffffffffffff1660608701525b8289019850505050505095509550955095915050565b5f5b826020015181101561362657815f015173ffffffffffffffffffffffffffffffffffffffff16835f015182815181106135b5576135b561472d565b60200260200101515f015173ffffffffffffffffffffffffffffffffffffffff160361361457602082015183518051839081106135f4576135f461472d565b602002602001015160200181815161360c9190614791565b905250505050565b8061361e8161475a565b91505061357a565b50805182516020840151815181106136405761364061472d565b60200260200101515f019073ffffffffffffffffffffffffffffffffffffffff16908173ffffffffffffffffffffffffffffffffffffffff16815250508060200151825f015183602001518151811061369b5761369b61472d565b602002602001015160200181815250508160200180518091906136bd9061475a565b9052505050565b5f805f805f806136de8a5f01518a8a8d602001518b613319565b93509350935093505f8260ff161115613776576137768b60405180604001604052806137228e5f015167ffffffffffffffff165f9081526001602052604090205490565b73ffffffffffffffffffffffffffffffffffffffff168152602001600c61376c7f000000000000000000000000000000000000000000000000000000000000000060ff8916614716565b61238c91906147f1565b5f5b60048160ff161015613842575f8260ff83166004811061379a5761379a61472d565b602002015173ffffffffffffffffffffffffffffffffffffffff1614613830576138308c6040518060400160405280858560ff16600481106137de576137de61472d565b602002015173ffffffffffffffffffffffffffffffffffffffff1681526020018b600f1660ff167f000000000000000000000000000000000000000000000000000000000000000061238c91906147f1565b8061383a81614960565b915050613778565b50929a91995090975050505050505050565b5f807a184f03e93ff9f4daa797ed6e38ed64bf6a1f010000000000000000831061389c577a184f03e93ff9f4daa797ed6e38ed64bf6a1f010000000000000000830492506040015b6d04ee2d6d415b85acef810000000083106138c8576d04ee2d6d415b85acef8100000000830492506020015b662386f26fc1000083106138e657662386f26fc10000830492506010015b6305f5e10083106138fe576305f5e100830492506008015b612710831061391257612710830492506004015b60648310613924576064830492506002015b600a8310613930576001015b92915050565b67ffffffffffffffff85165f90815260208181526040808320815160e081018352815462ffffff8082168352630100000082041694820194909452849384939192918301906601000000000000900460ff1660068111156139995761399961419d565b60068111156139aa576139aa61419d565b8152905460ff6701000000000000008204811660208401526801000000000000000082045f90810b60408086019190915269010000000000000000008404831660608601526a01000000000000000000009093049091166080909301929092528251908301519293509190816006811115613a2757613a2761419d565b14613a8157856006811115613a3e57613a3e61419d565b816006811115613a5057613a5061419d565b14613a7b577fffffffffffffffffffffffffffffffffffffffffffffffffffffffffffffffff613a7e565b60015b94505b60018262ffffff1610158015613aa857505f816006811115613aa557613aa561419d565b14155b15613b1e575f836060015160ff16118015613acc57508862ffffff168262ffffff16105b15613b08575f80613aec848660a00151876080015188606001518f612fc9565b91509150613aff8c8684848e8e8e613b2b565b95505050613b1e565b613b1b8a8485606001518c8c8c8c613b2b565b93505b5050509550959350505050565b5f80876060015160ff16118015613b43575060ff8616155b15613b7457613b558760a001516132e8565b60048860a0015160ff16901b613b6b9190614947565b60ff1660c08801525b613bd55f613b848660ff1661322c565b604051602001613b949190614aa8565b604080518083037fffffffffffffffffffffffffffffffffffffffffffffffffffffffffffffffe0019052525067ffffffffffffffff89165f526001602052565b613be0846002614bf7565b613beb856002614bf7565b60c089015160041c16600f1603613c535760c0870151613c0f90600f16600c614a14565b60c0880151909150600f166004613c2a60ff87166002614c05565b1960048a60c0015160ff16901c60ff161660ff16901b613c4a9190614947565b60ff1660c08801525b816006811115613c6557613c6561419d565b836006811115613c7757613c7761419d565b14613e0d575f826006811115613c8f57613c8f61419d565b03613d1457826006811115613ca657613ca661419d565b87604001516006811115613cbc57613cbc61419d565b03613cde57600187608001818151613cd49190614c10565b5f0b905250613e0d565b600187608001818151613cf19190614c4e565b5f0b90525060a087018051600160ff8781169190911b8118909116169052613e0d565b826006811115613d2657613d2661419d565b87604001516006811115613d3c57613d3c61419d565b03613d6d5760a087018051600160ff8781169190911b90911716905260808701805160029190613cd4908390614c10565b816006811115613d7f57613d7f61419d565b87604001516006811115613d9557613d9561419d565b03613dc5575f836006811115613dad57613dad61419d565b14613cde57600287608001818151613cf19190614c4e565b5f836006811115613dd857613dd861419d565b03613e0d57600187608001818151613df09190614c10565b5f0b90525060a087018051600160ff8781169190911b9091171690525b62ffffff8516875260ff8087166060890152613e40905f90613e3090871661322c565b604051602001613b949190614c8c565b67ffffffffffffffff88165f908152602081815260409182902089518154928b015162ffffff9081166301000000027fffffffffffffffffffffffffffffffffffffffffffffffffffff0000000000009094169116179190911780825591890151899282907fffffffffffffffffffffffffffffffffffffffffffffffffff00ffffffffffff166601000000000000836006811115613ee157613ee161419d565b021790555060608201518154608084015160a085015160c0909501517fffffffffffffffffffffffffffffffffffffffffffffff0000ffffffffffffff90921667010000000000000060ff948516027fffffffffffffffffffffffffffffffffffffffffffffff00ffffffffffffffff16176801000000000000000091841691909102177fffffffffffffffffffffffffffffffffffffffffff0000ffffffffffffffffff166901000000000000000000948316949094027fffffffffffffffffffffffffffffffffffffffffff00ffffffffffffffffffff16939093176a01000000000000000000009190931602919091179055979650505050505050565b60408051610100810182525f808252602082018190529181018290529060608201905b81525f60208201819052604082018190526060820181905260809091015290565b6040805160e0810182525f808252602082018190529091820190614004565b60405180608001604052806004906020820280368337509192915050565b5f60208284031215614072575f80fd5b5035919050565b803573ffffffffffffffffffffffffffffffffffffffff81168114613314575f80fd5b5f8083601f8401126140ac575f80fd5b50813567ffffffffffffffff8111156140c3575f80fd5b6020830191508360208260061b85010111156140dd575f80fd5b9250929050565b80357fffffffffffffffffffffffffffffffffffffffffffffffff000000000000000081168114613314575f80fd5b80151581146111d5575f80fd5b5f805f805f8060a08789031215614135575f80fd5b61413e87614079565b955060208701359450604087013567ffffffffffffffff811115614160575f80fd5b61416c89828a0161409c565b909550935061417f9050606088016140e4565b9150608087013561418f81614113565b809150509295509295509295565b7f4e487b71000000000000000000000000000000000000000000000000000000005f52602160045260245ffd5b600781106141ff577f4e487b71000000000000000000000000000000000000000000000000000000005f52602160045260245ffd5b9052565b73ffffffffffffffffffffffffffffffffffffffff8151168252602081015162ffffff80821660208501528060408401511660408501525050606081015161424e60608401826141ca565b5060ff608082015116608083015260a08101515f0b60a083015260ff60c08201511660c083015260e08101516126f860e084018260ff169052565b61010081016139308284614203565b803567ffffffffffffffff81168114613314575f80fd5b5f602082840312156142bf575f80fd5b6142c882614298565b9392505050565b5f805f805f608086880312156142e3575f80fd5b6142ec86614079565b945060208601359350604086013567ffffffffffffffff81111561430e575f80fd5b61431a8882890161409c565b909450925061432d9050606087016140e4565b90509295509295909350565b5f806020838503121561434a575f80fd5b823567ffffffffffffffff80821115614361575f80fd5b818501915085601f830112614374575f80fd5b813581811115614382575f80fd5b8660208260051b8501011115614396575f80fd5b60209290920196919550909350505050565b5f602082840312156143b8575f80fd5b6142c882614079565b5f602082840312156143d1575f80fd5b6142c8826140e4565b5f60a082840312156143ea575f80fd5b50919050565b5f805f60e08486031215614402575f80fd5b61440b846140e4565b92506020840135915061442185604086016143da565b90509250925092565b5f8060c0838503121561443b575f80fd5b8235915061444c84602085016143da565b90509250929050565b7f4e487b71000000000000000000000000000000000000000000000000000000005f52604160045260245ffd5b604051601f82017fffffffffffffffffffffffffffffffffffffffffffffffffffffffffffffffe016810167ffffffffffffffff811182821017156144c9576144c9614455565b604052919050565b5f60208083850312156144e2575f80fd5b823567ffffffffffffffff808211156144f9575f80fd5b818501915085601f83011261450c575f80fd5b81358181111561451e5761451e614455565b8060051b915061452f848301614482565b8181529183018401918481019088841115614548575f80fd5b938501935b838510156145665784358252938501939085019061454d565b98975050505050505050565b602080825282518282018190525f9190848201906040850190845b818110156145b4576145a0838551614203565b92840192610100929092019160010161458d565b50909695505050505050565b7f4e487b71000000000000000000000000000000000000000000000000000000005f52601160045260245ffd5b81810381811115613930576139306145c0565b5f60208284031215614610575f80fd5b81516142c881614113565b803560078110613314575f80fd5b5f60408284031215614639575f80fd5b6040516040810181811067ffffffffffffffff8211171561465c5761465c614455565b60405261466883614298565b81526146766020840161461b565b60208201529392505050565b606080825281018490525f8560808301825b878110156146df5767ffffffffffffffff6146ae84614298565b16825260206146be81850161461b565b6146ca828501826141ca565b50506040928301929190910190600101614694565b507fffffffffffffffffffffffffffffffffffffffffffffffff000000000000000095909516602084015250506040015292915050565b8082028115828204841417613930576139306145c0565b7f4e487b71000000000000000000000000000000000000000000000000000000005f52603260045260245ffd5b5f7fffffffffffffffffffffffffffffffffffffffffffffffffffffffffffffffff820361478a5761478a6145c0565b5060010190565b80820180821115613930576139306145c0565b5f602082840312156147b4575f80fd5b813560ff811681146142c8575f80fd5b7f4e487b71000000000000000000000000000000000000000000000000000000005f52601260045260245ffd5b5f826147ff576147ff6147c4565b500490565b62ffffff828116828216039080821115614820576148206145c0565b5092915050565b5f8151808452602080850194508084015f5b83811015614874578151805167ffffffffffffffff168852830151614860848901826141ca565b506040969096019590820190600101614839565b509495945050505050565b838152606060208201525f6148976060830185614827565b90507fffffffffffffffffffffffffffffffffffffffffffffffff000000000000000083166040830152949350505050565b828152604060208201525f6148e16040830184614827565b949350505050565b5f81515f5b8181101561490857602081850181015186830152016148ee565b505f93019283525090919050565b7f5f706f6b652061742065706f636820000000000000000000000000000000000081525f6142c8600f8301846148e9565b60ff8181168382160190811115613930576139306145c0565b5f60ff821660ff8103614975576149756145c0565b60010192915050565b7f5f636f6d707574654d6f76652061742065706f6368200000000000000000000081525f6142c860168301846148e9565b604081016149bd82856141ca565b6142c860208301846141ca565b7f414654455220000000000000000000000000000000000000000000000000000081525f6142c860068301846148e9565b60ff8281168282160390811115613930576139306145c0565b5f60ff831680614a2657614a266147c4565b8060ff84160491505092915050565b60ff8181168382160290811690818114614820576148206145c0565b62ffffff818116838216019080821115614820576148206145c0565b5f815f0b7fffffffffffffffffffffffffffffffffffffffffffffffffffffffffffffff808103614aa057614aa06145c0565b5f0392915050565b7f5f75706461746543656c6c46726f6d4e65696768626f722020696e646578000081525f6142c8601e8301846148e9565b600181815b80851115614b3257817fffffffffffffffffffffffffffffffffffffffffffffffffffffffffffffffff04821115614b1857614b186145c0565b80851615614b2557918102915b93841c9390800290614ade565b509250929050565b5f82614b4857506001613930565b81614b5457505f613930565b8160018114614b6a5760028114614b7457614b90565b6001915050613930565b60ff841115614b8557614b856145c0565b50506001821b613930565b5060208310610133831016604e8410600b8410161715614bb3575081810a613930565b614bbd8383614ad9565b807fffffffffffffffffffffffffffffffffffffffffffffffffffffffffffffffff04821115614bef57614bef6145c0565b029392505050565b5f6142c860ff841683614b3a565b5f6142c88383614b3a565b5f82810b9082900b037fffffffffffffffffffffffffffffffffffffffffffffffffffffffffffffff808112607f82131715613930576139306145c0565b5f81810b9083900b01607f81137fffffffffffffffffffffffffffffffffffffffffffffffffffffffffffffff8082121715613930576139306145c0565b7f4146544552205f75706461746543656c6c46726f6d4e65696768626f7220206981527f6e6465780000000000000000000000000000000000000000000000000000000060208201525f6142c860248301846148e956fea2646970667358221220cf1ac55cca884e4666a0e2e61145f92ba34cc5b8fbb4102d0cd1b79e3345145464736f6c63430008140033",
  "linkReferences": {},
  "deployedLinkReferences": {},
  "devdoc": {
    "errors": {
      "ReserveTooLow(uint256,uint256)": [
        {
          "params": {
            "expected": "amount required to proceed",
            "inReserve": "amount in reserver as the time of the call"
          }
        }
      ]
    },
    "events": {
      "CommitmentCancelled(address,uint24)": {
        "params": {
          "epoch": "epoch number on which this commit belongs to",
          "player": "account taking the staking risk (can be a different account than the one controlling the gems)"
        }
      },
      "CommitmentMade(address,uint24,bytes24)": {
        "params": {
          "commitmentHash": "the hash of moves",
          "epoch": "epoch number on which this commit belongs to",
          "player": "account taking the staking risk (can be a different account than the one controlling the gems)"
        }
      },
      "CommitmentResolved(address,uint24,bytes24,(uint64,uint8)[],bytes24,uint256)": {
        "params": {
          "commitmentHash": "the hash of the moves",
          "epoch": "epoch number on which this commit belongs to",
          "furtherMoves": "hash of further moves, unless bytes32(0) which indicate end.",
          "moves": "the moves",
          "player": "account who commited"
        }
      },
      "CommitmentVoid(address,uint24,uint256,bytes24)": {
        "params": {
          "amountBurnt": "amount of token to burn",
          "epoch": "epoch number on which this commit belongs to",
          "furtherMoves": "hash of further moves, unless bytes32(0) which indicate end.",
          "player": "the account that made the commitment"
        }
      },
      "MoveProcessed(uint64,address,uint8,uint8)": {
        "params": {
          "newColor": "color that takes over",
          "oldColor": "previous color of the cell",
          "player": "account making the move",
          "position": "cell at which the move take place"
        }
      },
      "ReserveDeposited(address,uint256,uint256)": {
        "params": {
          "amountDeposited": "the number of tokens deposited",
          "newAmount": "the number of tokens in reserver as a result",
          "player": "account receiving the token in the reserve"
        }
      },
      "ReserveWithdrawn(address,uint256,uint256)": {
        "params": {
          "amountWithdrawn": "the number of tokens withdrawnn",
          "newAmount": "the number of tokens in reserver as a result",
          "player": "account withdrawing the tokens"
        }
      }
    },
    "kind": "dev",
    "methods": {
      "acknowledgeMissedResolution(address,bytes32,(uint64,uint8)[],bytes24)": {
        "params": {
          "furtherMoves": "if moves cannot be contained in one tx, further moves are represented by a hash to resolve too",
          "moves": "the actual moves",
          "player": "the account who committed the move",
          "secret": "the secret used to make the commit"
        }
      },
      "addToReserve(uint256,(uint256,uint256,uint8,bytes32,bytes32))": {
        "params": {
          "permit": "permit EIP2612, .value = zero if not needed",
          "tokensAmountToAdd": "amount of tokens to add"
        }
      },
      "getCell(uint256)": {
        "params": {
          "id": "the cell id"
        }
      },
      "getCells(uint256[])": {
        "params": {
          "ids": "the list of cell ids"
        }
      },
      "getCommitment(address)": {
        "params": {
          "account": "the address of which to retrieve the commitment"
        }
      },
      "getTokensInReserve(address)": {
        "params": {
          "account": "the address to retrived the amount in reserve of."
        }
      },
      "makeCommitment(bytes24)": {
        "params": {
          "commitmentHash": "the hash of the moves"
        }
      },
      "makeCommitmentWithExtraReserve(bytes24,uint256,(uint256,uint256,uint8,bytes32,bytes32))": {
        "params": {
          "commitmentHash": "the has of the moves",
          "permit": "permit EIP2612, value = zero if not needed",
          "tokensAmountToAdd": "amount of tokens to add to the reserve. the resulting total must be enough to cover the moves"
        }
      },
      "poke(uint64)": {
        "params": {
          "position": "the cell position"
        }
      },
      "pokeMultiple(uint64[])": {
        "params": {
          "positions": "cell positions to collect from"
        }
      },
      "resolve(address,bytes32,(uint64,uint8)[],bytes24,bool)": {
        "params": {
          "furtherMoves": "if moves cannot be contained in one tx, further moves are represented by a hash to resolve too  Note that you have to that have enough moves (specified by MAX_NUM_MOVES_PER_HASH = 32)",
          "moves": "the actual moves",
          "player": "the account who committed the move",
          "secret": "the secret used to make the commit",
          "useReserve": "whether the tokens are taken from the reserve or from approvals.  This allow player to keep their reserve intact and use it on their next move.  Note that this require the Stratagems contract to have enough allowance."
        }
      },
      "withdrawFromReserve(uint256)": {
        "params": {
          "amount": "number of tokens to withdraw"
        }
      }
    },
    "version": 1
  },
  "evm": {
    "gasEstimates": {
      "creation": {
        "codeDepositCost": "3947400",
        "executionCost": "infinite",
        "totalCost": "infinite"
      },
      "external": {
        "acknowledgeMissedResolution(address,bytes32,(uint64,uint8)[],bytes24)": "infinite",
        "acknowledgeMissedResolutionByBurningAllReserve()": "infinite",
        "addToReserve(uint256,(uint256,uint256,uint8,bytes32,bytes32))": "infinite",
        "cancelCommitment()": "infinite",
        "getCell(uint256)": "infinite",
        "getCells(uint256[])": "infinite",
        "getCommitment(address)": "2808",
        "getConfig()": "infinite",
        "getTokensInReserve(address)": "2533",
        "makeCommitment(bytes24)": "infinite",
        "makeCommitmentWithExtraReserve(bytes24,uint256,(uint256,uint256,uint8,bytes32,bytes32))": "infinite",
        "poke(uint64)": "infinite",
        "pokeMultiple(uint64[])": "infinite",
        "resolve(address,bytes32,(uint64,uint8)[],bytes24,bool)": "infinite",
        "withdrawFromReserve(uint256)": "infinite"
      }
    }
  },
  "storageLayout": {
    "storage": [
      {
        "astId": 12262,
        "contract": "src/game/routes/StratagemsGameplay.sol:StratagemsGameplay",
        "label": "_cells",
        "offset": 0,
        "slot": "0",
        "type": "t_mapping(t_uint256,t_struct(Cell)10007_storage)"
      },
      {
        "astId": 12266,
        "contract": "src/game/routes/StratagemsGameplay.sol:StratagemsGameplay",
        "label": "_owners",
        "offset": 0,
        "slot": "1",
        "type": "t_mapping(t_uint256,t_uint256)"
      },
      {
        "astId": 12270,
        "contract": "src/game/routes/StratagemsGameplay.sol:StratagemsGameplay",
        "label": "_tokensInReserve",
        "offset": 0,
        "slot": "2",
        "type": "t_mapping(t_address,t_uint256)"
      },
      {
        "astId": 12275,
        "contract": "src/game/routes/StratagemsGameplay.sol:StratagemsGameplay",
        "label": "_commitments",
        "offset": 0,
        "slot": "3",
        "type": "t_mapping(t_address,t_struct(Commitment)10012_storage)"
      },
      {
        "astId": 12281,
        "contract": "src/game/routes/StratagemsGameplay.sol:StratagemsGameplay",
        "label": "_operatorsForAll",
        "offset": 0,
        "slot": "4",
        "type": "t_mapping(t_address,t_mapping(t_address,t_bool))"
      },
      {
        "astId": 12285,
        "contract": "src/game/routes/StratagemsGameplay.sol:StratagemsGameplay",
        "label": "_operators",
        "offset": 0,
        "slot": "5",
        "type": "t_mapping(t_uint256,t_address)"
      }
    ],
    "types": {
      "t_address": {
        "encoding": "inplace",
        "label": "address",
        "numberOfBytes": "20"
      },
      "t_bool": {
        "encoding": "inplace",
        "label": "bool",
        "numberOfBytes": "1"
      },
      "t_bytes24": {
        "encoding": "inplace",
        "label": "bytes24",
        "numberOfBytes": "24"
      },
      "t_enum(Color)9936": {
        "encoding": "inplace",
        "label": "enum UsingStratagemsTypes.Color",
        "numberOfBytes": "1"
      },
      "t_int8": {
        "encoding": "inplace",
        "label": "int8",
        "numberOfBytes": "1"
      },
      "t_mapping(t_address,t_bool)": {
        "encoding": "mapping",
        "key": "t_address",
        "label": "mapping(address => bool)",
        "numberOfBytes": "32",
        "value": "t_bool"
      },
      "t_mapping(t_address,t_mapping(t_address,t_bool))": {
        "encoding": "mapping",
        "key": "t_address",
        "label": "mapping(address => mapping(address => bool))",
        "numberOfBytes": "32",
        "value": "t_mapping(t_address,t_bool)"
      },
      "t_mapping(t_address,t_struct(Commitment)10012_storage)": {
        "encoding": "mapping",
        "key": "t_address",
        "label": "mapping(address => struct UsingStratagemsTypes.Commitment)",
        "numberOfBytes": "32",
        "value": "t_struct(Commitment)10012_storage"
      },
      "t_mapping(t_address,t_uint256)": {
        "encoding": "mapping",
        "key": "t_address",
        "label": "mapping(address => uint256)",
        "numberOfBytes": "32",
        "value": "t_uint256"
      },
      "t_mapping(t_uint256,t_address)": {
        "encoding": "mapping",
        "key": "t_uint256",
        "label": "mapping(uint256 => address)",
        "numberOfBytes": "32",
        "value": "t_address"
      },
      "t_mapping(t_uint256,t_struct(Cell)10007_storage)": {
        "encoding": "mapping",
        "key": "t_uint256",
        "label": "mapping(uint256 => struct UsingStratagemsTypes.Cell)",
        "numberOfBytes": "32",
        "value": "t_struct(Cell)10007_storage"
      },
      "t_mapping(t_uint256,t_uint256)": {
        "encoding": "mapping",
        "key": "t_uint256",
        "label": "mapping(uint256 => uint256)",
        "numberOfBytes": "32",
        "value": "t_uint256"
      },
      "t_struct(Cell)10007_storage": {
        "encoding": "inplace",
        "label": "struct UsingStratagemsTypes.Cell",
        "members": [
          {
            "astId": 9993,
            "contract": "src/game/routes/StratagemsGameplay.sol:StratagemsGameplay",
            "label": "lastEpochUpdate",
            "offset": 0,
            "slot": "0",
            "type": "t_uint24"
          },
          {
            "astId": 9995,
            "contract": "src/game/routes/StratagemsGameplay.sol:StratagemsGameplay",
            "label": "epochWhenTokenIsAdded",
            "offset": 3,
            "slot": "0",
            "type": "t_uint24"
          },
          {
            "astId": 9998,
            "contract": "src/game/routes/StratagemsGameplay.sol:StratagemsGameplay",
            "label": "color",
            "offset": 6,
            "slot": "0",
            "type": "t_enum(Color)9936"
          },
          {
            "astId": 10000,
            "contract": "src/game/routes/StratagemsGameplay.sol:StratagemsGameplay",
            "label": "life",
            "offset": 7,
            "slot": "0",
            "type": "t_uint8"
          },
          {
            "astId": 10002,
            "contract": "src/game/routes/StratagemsGameplay.sol:StratagemsGameplay",
            "label": "delta",
            "offset": 8,
            "slot": "0",
            "type": "t_int8"
          },
          {
            "astId": 10004,
            "contract": "src/game/routes/StratagemsGameplay.sol:StratagemsGameplay",
            "label": "enemyMap",
            "offset": 9,
            "slot": "0",
            "type": "t_uint8"
          },
          {
            "astId": 10006,
            "contract": "src/game/routes/StratagemsGameplay.sol:StratagemsGameplay",
            "label": "distribution",
            "offset": 10,
            "slot": "0",
            "type": "t_uint8"
          }
        ],
        "numberOfBytes": "32"
      },
      "t_struct(Commitment)10012_storage": {
        "encoding": "inplace",
        "label": "struct UsingStratagemsTypes.Commitment",
        "members": [
          {
            "astId": 10009,
            "contract": "src/game/routes/StratagemsGameplay.sol:StratagemsGameplay",
            "label": "hash",
            "offset": 0,
            "slot": "0",
            "type": "t_bytes24"
          },
          {
            "astId": 10011,
            "contract": "src/game/routes/StratagemsGameplay.sol:StratagemsGameplay",
            "label": "epoch",
            "offset": 24,
            "slot": "0",
            "type": "t_uint24"
          }
        ],
        "numberOfBytes": "32"
      },
      "t_uint24": {
        "encoding": "inplace",
        "label": "uint24",
        "numberOfBytes": "3"
      },
      "t_uint256": {
        "encoding": "inplace",
        "label": "uint256",
        "numberOfBytes": "32"
      },
      "t_uint8": {
        "encoding": "inplace",
        "label": "uint8",
        "numberOfBytes": "1"
      }
    }
  },
  "userdoc": {
    "errors": {
      "CanStillResolve()": [
        {
          "notice": "Player have to resolve if they can Stratagems will prevent them from acknowledging missed resolution if there is still time to resolve."
        }
      ],
      "CommitmentHashNotMatching()": [
        {
          "notice": "Player have to reveal their commitment using the exact same move values  If they provide different value, the commitment hash will differ and Stratagems will reject their resolution."
        }
      ],
      "GameNotStarted()": [
        {
          "notice": "Game has not started yet, can't perform any action"
        }
      ],
      "InCommitmentPhase()": [
        {
          "notice": "When in Commit phase, player can make new commitment but they cannot resolve their move yet."
        }
      ],
      "InResolutionPhase()": [
        {
          "notice": "When in Resolution phase, it is not possible to commit new moves or cancel previous commitment  During Resolution phase, players have to reveal their commitment, if not already done."
        }
      ],
      "InvalidEpoch()": [
        {
          "notice": "Player can only resolve their move in the same epoch they commited.abi  If a player resolve later it can only do to minimize the reserve burn cost by calling : `acknowledgeMissedResolution`"
        }
      ],
      "InvalidFurtherMoves()": [
        {
          "notice": "Player can make arbitrary number of moves per epoch. To do so they group moves into (MAX_NUM_MOVES_PER_HASH = 32) moves  This result in a recursive series of hash that they can then submit in turn while resolving.  The limit  (MAX_NUM_MOVES_PER_HASH = 32) ensure a resolution batch fits in a block."
        }
      ],
      "NothingToResolve()": [
        {
          "notice": "Player can only resolve moves they commited."
        }
      ],
      "PreviousCommitmentNotResolved()": [
        {
          "notice": "Previous commitment need to be resolved before making a new one. Even if the corresponding reveal phase has passed.\\  It is also not possible to withdraw any amount from reserve until the commitment is revealed.\\If player lost the information to reveal, it can acknowledge failure which will burn all its reserve.\\"
        }
      ],
      "ReserveTooLow(uint256,uint256)": [
        {
          "notice": "to make a commitment you always need at least one `config.numTokensPerGems` amount in reserve  Player also need one `config.numTokensPerGems`  per moves during the resolution phase."
        }
      ]
    },
    "events": {
      "CommitmentCancelled(address,uint24)": {
        "notice": "A player has cancelled its current commitment (before it reached the resolution phase)"
      },
      "CommitmentMade(address,uint24,bytes24)": {
        "notice": "A player has commited to make a move and resolve it on the resolution phase"
      },
      "CommitmentResolved(address,uint24,bytes24,(uint64,uint8)[],bytes24,uint256)": {
        "notice": "Player has resolved its previous commitment"
      },
      "CommitmentVoid(address,uint24,uint256,bytes24)": {
        "notice": "A player has canceled a previous commitment by burning some tokens"
      },
      "MoveProcessed(uint64,address,uint8,uint8)": {
        "notice": "A move has been resolved."
      },
      "ReserveDeposited(address,uint256,uint256)": {
        "notice": "Player has deposited token in the reserve, allowing it to use that much in game"
      },
      "ReserveWithdrawn(address,uint256,uint256)": {
        "notice": "Player have withdrawn token from the reserve"
      }
    },
    "kind": "user",
    "methods": {
      "acknowledgeMissedResolution(address,bytes32,(uint64,uint8)[],bytes24)": {
        "notice": "called by player if they missed the resolution phase and want to minimze the token loss.  By providing the moves, they will be slashed only the amount of token required to make the moves"
      },
      "acknowledgeMissedResolutionByBurningAllReserve()": {
        "notice": "should only be called as last resort this will burn all tokens in reserve If player has access to the secret, better call `acknowledgeMissedResolution`"
      },
      "addToReserve(uint256,(uint256,uint256,uint8,bytes32,bytes32))": {
        "notice": "called by players to add tokens to their reserve"
      },
      "cancelCommitment()": {
        "notice": "called by players to cancel their current commitment  Can only be called during the commit phase in which the commitment was made  It cannot be called afterward"
      },
      "getCell(uint256)": {
        "notice": "return updated cell (based on current epoch)"
      },
      "getCells(uint256[])": {
        "notice": "return the list of updated cells (based on current epoch) whose ids is given"
      },
      "getCommitment(address)": {
        "notice": "The commitment to be resolved. zeroed if no commitment need to be made."
      },
      "getConfig()": {
        "notice": "return the config used to initialise the Game"
      },
      "getTokensInReserve(address)": {
        "notice": "the number of token in reserve per account  This is used to slash player who do not resolve their commit  The amount can be greater than the number of token required for the next move  This allow player to potentially hide their intention."
      },
      "makeCommitment(bytes24)": {
        "notice": "called by players to commit their moves  this can be called multiple time in the same epoch, the last call overriding the previous.  When a commitment is made, it needs to be resolved in the resolution phase of the same epoch.abi  If missed, player can still reveal its moves but none of them will be resolved.   The player would lose its associated reserved amount."
      },
      "makeCommitmentWithExtraReserve(bytes24,uint256,(uint256,uint256,uint8,bytes32,bytes32))": {
        "notice": "called to make a commitment along with tokens to add to the reserve"
      },
      "pokeMultiple(uint64[])": {
        "notice": "poke and collect the tokens won across multiple cells"
      },
      "resolve(address,bytes32,(uint64,uint8)[],bytes24,bool)": {
        "notice": "called by player to resolve their commitment  this is where the core logic of the game takes place  This is where the game board evolves  The game is designed so that resolution order do not matter"
      },
      "withdrawFromReserve(uint256)": {
        "notice": "called by players to withdraw tokens from the reserve  can only be called if no commitments are pending  Note that while you can withdraw after commiting, note that if you do not have enough tokens  you'll have your commitment failing."
      }
    },
    "version": 1
  },
  "argsData": "0x0000000000000000000000004c78783faac7636c0d55605ae5bd1d6b9a62f496000000000000000000000000deaddeaddeaddeaddeaddeaddeaddeaddeaddead000000000000000000000000000000000000000000000000000000000000000000000000000000000000000000000000000000000000000000000000000143700000000000000000000000000000000000000000000000000000000000000e1000000000000000000000000000000000000000000000000000000000000000070000000000000000000000000000000000000000000000000de0b6b3a7640000",
  "transaction": {
    "hash": "0x459cbd5c3d934803951a4c092cf9c9839b38ba9c5d409e0ca0fc88580b08389c",
    "nonce": "0x88",
    "origin": "0x61c461ecc993aadeb7e4b47e96d1b8cc37314b20"
  }
}