{
  "address": "0x77ff1d71fec90100141635a6e6224446b3a1443c",
  "abi": [
    {
      "inputs": [
        {
          "internalType": "address",
          "name": "to",
          "type": "address"
        },
        {
          "internalType": "uint256",
          "name": "amount",
          "type": "uint256"
        }
      ],
      "stateMutability": "nonpayable",
      "type": "constructor"
    },
    {
      "inputs": [
        {
          "internalType": "uint256",
          "name": "currentTime",
          "type": "uint256"
        },
        {
          "internalType": "uint256",
          "name": "deadline",
          "type": "uint256"
        }
      ],
      "name": "DeadlineOver",
      "type": "error"
    },
    {
      "inputs": [
        {
          "internalType": "address",
          "name": "addr",
          "type": "address"
        }
      ],
      "name": "InvalidAddress",
      "type": "error"
    },
    {
      "inputs": [
        {
          "internalType": "uint256",
          "name": "provided",
          "type": "uint256"
        },
        {
          "internalType": "uint256",
          "name": "expected",
          "type": "uint256"
        }
      ],
      "name": "InvalidMsgValue",
      "type": "error"
    },
    {
      "inputs": [],
      "name": "InvalidSignature",
      "type": "error"
    },
    {
      "inputs": [
        {
          "internalType": "uint256",
          "name": "provided",
          "type": "uint256"
        },
        {
          "internalType": "uint256",
          "name": "expected",
          "type": "uint256"
        }
      ],
      "name": "InvalidTotalAmount",
      "type": "error"
    },
    {
      "inputs": [
        {
          "internalType": "uint256",
          "name": "currentAllowance",
          "type": "uint256"
        },
        {
          "internalType": "uint256",
          "name": "expected",
          "type": "uint256"
        }
      ],
      "name": "NotAuthorizedAllowance",
      "type": "error"
    },
    {
      "inputs": [],
      "name": "NotEnoughETH",
      "type": "error"
    },
    {
      "inputs": [
        {
          "internalType": "uint256",
          "name": "currentBalance",
          "type": "uint256"
        },
        {
          "internalType": "uint256",
          "name": "expected",
          "type": "uint256"
        }
      ],
      "name": "NotEnoughTokens",
      "type": "error"
    },
    {
      "anonymous": false,
      "inputs": [
        {
          "indexed": true,
          "internalType": "address",
          "name": "owner",
          "type": "address"
        },
        {
          "indexed": true,
          "internalType": "address",
          "name": "spender",
          "type": "address"
        },
        {
          "indexed": false,
          "internalType": "uint256",
          "name": "value",
          "type": "uint256"
        }
      ],
      "name": "Approval",
      "type": "event"
    },
    {
      "anonymous": false,
      "inputs": [
        {
          "indexed": true,
          "internalType": "address",
          "name": "from",
          "type": "address"
        },
        {
          "indexed": true,
          "internalType": "address",
          "name": "to",
          "type": "address"
        },
        {
          "indexed": false,
          "internalType": "uint256",
          "name": "value",
          "type": "uint256"
        }
      ],
      "name": "Transfer",
      "type": "event"
    },
    {
      "inputs": [],
      "name": "DOMAIN_SEPARATOR",
      "outputs": [
        {
          "internalType": "bytes32",
          "name": "",
          "type": "bytes32"
        }
      ],
      "stateMutability": "view",
      "type": "function"
    },
    {
      "inputs": [
        {
          "internalType": "address",
          "name": "owner",
          "type": "address"
        },
        {
          "internalType": "address",
          "name": "spender",
          "type": "address"
        }
      ],
      "name": "allowance",
      "outputs": [
        {
          "internalType": "uint256",
          "name": "",
          "type": "uint256"
        }
      ],
      "stateMutability": "view",
      "type": "function"
    },
    {
      "inputs": [
        {
          "internalType": "address",
          "name": "spender",
          "type": "address"
        },
        {
          "internalType": "uint256",
          "name": "amount",
          "type": "uint256"
        }
      ],
      "name": "approve",
      "outputs": [
        {
          "internalType": "bool",
          "name": "",
          "type": "bool"
        }
      ],
      "stateMutability": "nonpayable",
      "type": "function"
    },
    {
      "inputs": [
        {
          "internalType": "address",
          "name": "spender",
          "type": "address"
        },
        {
          "internalType": "uint256",
          "name": "amount",
          "type": "uint256"
        },
        {
          "internalType": "bytes",
          "name": "data",
          "type": "bytes"
        }
      ],
      "name": "approveAndCall",
      "outputs": [
        {
          "internalType": "bool",
          "name": "",
          "type": "bool"
        }
      ],
      "stateMutability": "nonpayable",
      "type": "function"
    },
    {
      "inputs": [
        {
          "internalType": "address",
          "name": "owner",
          "type": "address"
        }
      ],
      "name": "balanceOf",
      "outputs": [
        {
          "internalType": "uint256",
          "name": "",
          "type": "uint256"
        }
      ],
      "stateMutability": "view",
      "type": "function"
    },
    {
      "inputs": [],
      "name": "decimals",
      "outputs": [
        {
          "internalType": "uint8",
          "name": "",
          "type": "uint8"
        }
      ],
      "stateMutability": "pure",
      "type": "function"
    },
    {
      "inputs": [
        {
          "internalType": "address payable[]",
          "name": "tos",
          "type": "address[]"
        },
        {
          "internalType": "uint256",
          "name": "totalAmount",
          "type": "uint256"
        }
      ],
      "name": "distributeAlongWithETH",
      "outputs": [
        {
          "internalType": "bool",
          "name": "",
          "type": "bool"
        }
      ],
      "stateMutability": "payable",
      "type": "function"
    },
    {
      "inputs": [],
      "name": "eip712Domain",
      "outputs": [
        {
          "internalType": "bytes1",
          "name": "fields",
          "type": "bytes1"
        },
        {
          "internalType": "string",
          "name": "name",
          "type": "string"
        },
        {
          "internalType": "string",
          "name": "version",
          "type": "string"
        },
        {
          "internalType": "uint256",
          "name": "chainID",
          "type": "uint256"
        },
        {
          "internalType": "address",
          "name": "verifyingContract",
          "type": "address"
        },
        {
          "internalType": "bytes32",
          "name": "salt",
          "type": "bytes32"
        },
        {
          "internalType": "uint256[]",
          "name": "extensions",
          "type": "uint256[]"
        }
      ],
      "stateMutability": "view",
      "type": "function"
    },
    {
      "inputs": [],
      "name": "name",
      "outputs": [
        {
          "internalType": "string",
          "name": "",
          "type": "string"
        }
      ],
      "stateMutability": "pure",
      "type": "function"
    },
    {
      "inputs": [
        {
          "internalType": "address",
          "name": "owner",
          "type": "address"
        }
      ],
      "name": "nonces",
      "outputs": [
        {
          "internalType": "uint256",
          "name": "",
          "type": "uint256"
        }
      ],
      "stateMutability": "view",
      "type": "function"
    },
    {
      "inputs": [
        {
          "internalType": "address",
          "name": "owner",
          "type": "address"
        },
        {
          "internalType": "address",
          "name": "spender",
          "type": "address"
        },
        {
          "internalType": "uint256",
          "name": "value",
          "type": "uint256"
        },
        {
          "internalType": "uint256",
          "name": "deadline",
          "type": "uint256"
        },
        {
          "internalType": "uint8",
          "name": "v",
          "type": "uint8"
        },
        {
          "internalType": "bytes32",
          "name": "r",
          "type": "bytes32"
        },
        {
          "internalType": "bytes32",
          "name": "s",
          "type": "bytes32"
        }
      ],
      "name": "permit",
      "outputs": [],
      "stateMutability": "nonpayable",
      "type": "function"
    },
    {
      "inputs": [],
      "name": "symbol",
      "outputs": [
        {
          "internalType": "string",
          "name": "",
          "type": "string"
        }
      ],
      "stateMutability": "view",
      "type": "function"
    },
    {
      "inputs": [],
      "name": "topup",
      "outputs": [],
      "stateMutability": "payable",
      "type": "function"
    },
    {
      "inputs": [],
      "name": "totalSupply",
      "outputs": [
        {
          "internalType": "uint256",
          "name": "",
          "type": "uint256"
        }
      ],
      "stateMutability": "view",
      "type": "function"
    },
    {
      "inputs": [
        {
          "internalType": "address",
          "name": "to",
          "type": "address"
        },
        {
          "internalType": "uint256",
          "name": "amount",
          "type": "uint256"
        }
      ],
      "name": "transfer",
      "outputs": [
        {
          "internalType": "bool",
          "name": "",
          "type": "bool"
        }
      ],
      "stateMutability": "nonpayable",
      "type": "function"
    },
    {
      "inputs": [
        {
          "internalType": "address payable",
          "name": "to",
          "type": "address"
        },
        {
          "internalType": "uint256",
          "name": "amount",
          "type": "uint256"
        }
      ],
      "name": "transferAlongWithETH",
      "outputs": [
        {
          "internalType": "bool",
          "name": "",
          "type": "bool"
        }
      ],
      "stateMutability": "payable",
      "type": "function"
    },
    {
      "inputs": [
        {
          "internalType": "address",
          "name": "to",
          "type": "address"
        },
        {
          "internalType": "uint256",
          "name": "amount",
          "type": "uint256"
        },
        {
          "internalType": "bytes",
          "name": "data",
          "type": "bytes"
        }
      ],
      "name": "transferAndCall",
      "outputs": [
        {
          "internalType": "bool",
          "name": "",
          "type": "bool"
        }
      ],
      "stateMutability": "nonpayable",
      "type": "function"
    },
    {
      "inputs": [
        {
          "internalType": "address",
          "name": "from",
          "type": "address"
        },
        {
          "internalType": "address",
          "name": "to",
          "type": "address"
        },
        {
          "internalType": "uint256",
          "name": "amount",
          "type": "uint256"
        }
      ],
      "name": "transferFrom",
      "outputs": [
        {
          "internalType": "bool",
          "name": "",
          "type": "bool"
        }
      ],
      "stateMutability": "nonpayable",
      "type": "function"
    },
    {
      "inputs": [
        {
          "internalType": "address",
          "name": "from",
          "type": "address"
        },
        {
          "internalType": "address",
          "name": "to",
          "type": "address"
        },
        {
          "internalType": "uint256",
          "name": "amount",
          "type": "uint256"
        },
        {
          "internalType": "bytes",
          "name": "data",
          "type": "bytes"
        }
      ],
      "name": "transferFromAndCall",
      "outputs": [
        {
          "internalType": "bool",
          "name": "",
          "type": "bool"
        }
      ],
      "stateMutability": "nonpayable",
      "type": "function"
    },
    {
      "inputs": [
        {
          "internalType": "address",
          "name": "forAddress",
          "type": "address"
        },
        {
          "internalType": "address",
          "name": "to",
          "type": "address"
        },
        {
          "internalType": "uint256",
          "name": "amount",
          "type": "uint256"
        },
        {
          "internalType": "bytes",
          "name": "data",
          "type": "bytes"
        }
      ],
      "name": "transferOnBehalfAndCall",
      "outputs": [
        {
          "internalType": "bool",
          "name": "",
          "type": "bool"
        }
      ],
      "stateMutability": "nonpayable",
      "type": "function"
    }
  ],
  "contractName": "TestTokens",
  "sourceName": "src/test/TestTokens.sol",
  "bytecode": "0x60e060405234801562000010575f80fd5b5060405162001b7238038062001b728339810160408190526200003391620001ac565b4660808190523090819081156200004b57816200004d565b305b6001600160a01b031660c08190526200006890829062000084565b60a052506200007c91508390508262000123565b505062000205565b5f7f8cad95687ba82c2ce50e74f7b754645e5117c3a5bec8151c0726d5857980a866620000ca604080518082019091526006815265546f6b656e7360d01b602082015290565b80516020918201206040516200010493928791879101938452602084019290925260408301526001600160a01b0316606082015260800190565b6040516020818303038152906040528051906020012090505b92915050565b805f80828254620001359190620001e5565b90915550506001600160a01b0382165f908152600160205260408120805483929062000163908490620001e5565b90915550506040518181526001600160a01b038316905f907fddf252ad1be2c89b69c2b068fc378daa952ba7f163c4a11628f55a4df523b3ef9060200160405180910390a35050565b5f8060408385031215620001be575f80fd5b82516001600160a01b0381168114620001d5575f80fd5b6020939093015192949293505050565b808201808211156200011d57634e487b7160e01b5f52601160045260245ffd5b60805160a05160c05161193b620002375f395f8181610810015261107c01525f6110a701525f611051015261193b5ff3fe608060405260043610610157575f3560e01c806370a08231116100bb578063c1d34b8911610071578063d505accf11610057578063d505accf146103f5578063dd62ed3e14610414578063e7fcb06514610433575f80fd5b8063c1d34b89146103b7578063cae9ca51146103d6575f80fd5b806384b0196e116100a157806384b0196e1461032957806395d89b4114610350578063a9059cbb14610398575f80fd5b806370a08231146102a75780637ecebe00146102e8575f80fd5b8063313ce567116101105780634000aea0116100f65780634000aea01461025f57806365520efa1461027e57806369774c2d1461029d575f80fd5b8063313ce567146102305780633644e5151461024b575f80fd5b80630e02df54116101405780630e02df54146101e157806318160ddd146101f457806323b872dd14610211575f80fd5b806306fdde031461015b578063095ea7b3146101b2575b5f80fd5b348015610166575f80fd5b5060408051808201909152600681527f546f6b656e73000000000000000000000000000000000000000000000000000060208201525b6040516101a991906112c9565b60405180910390f35b3480156101bd575f80fd5b506101d16101cc366004611306565b610446565b60405190151581526020016101a9565b6101d16101ef36600461136d565b61045c565b3480156101ff575f80fd5b505f545b6040519081526020016101a9565b34801561021c575f80fd5b506101d161022b366004611451565b6105e9565b34801561023b575f80fd5b50604051601281526020016101a9565b348015610256575f80fd5b506102036105ff565b34801561026a575f80fd5b506101d16102793660046114d4565b610608565b348015610289575f80fd5b506101d161029836600461152c565b6106b5565b6102a5610765565b005b3480156102b2575f80fd5b506102036102c136600461159a565b73ffffffffffffffffffffffffffffffffffffffff165f9081526001602052604090205490565b3480156102f3575f80fd5b5061020361030236600461159a565b73ffffffffffffffffffffffffffffffffffffffff165f9081526003602052604090205490565b348015610334575f80fd5b5061033d6107ba565b6040516101a997969594939291906115b5565b34801561035b575f80fd5b5061019c6040518060400160405280600581526020017f544f4b454e00000000000000000000000000000000000000000000000000000081525081565b3480156103a3575f80fd5b506101d16103b2366004611306565b61083a565b3480156103c2575f80fd5b506101d16103d136600461152c565b610846565b3480156103e1575f80fd5b506101d16103f03660046114d4565b6108aa565b348015610400575f80fd5b506102a561040f366004611672565b61090c565b34801561041f575f80fd5b5061020361042e3660046116e3565b610bcf565b6101d1610441366004611306565b610c4c565b5f610452338484610c97565b5060015b92915050565b5f8083513461046b9190611747565b905083518161047a919061177f565b34146104ce573484518261048e919061177f565b6040517f1f89f671000000000000000000000000000000000000000000000000000000008152600481019290925260248201526044015b60405180910390fd5b5f8451846104dc9190611747565b90508451816104eb919061177f565b841461053a57838551826104ff919061177f565b6040517fe93890a2000000000000000000000000000000000000000000000000000000008152600481019290925260248201526044016104c5565b5f5b85518110156105d8576105693387838151811061055b5761055b611796565b602002602001015184610d74565b85818151811061057b5761057b611796565b602002602001015173ffffffffffffffffffffffffffffffffffffffff166108fc8490811502906040515f60405180830381858888f193505050501580156105c5573d5f803e3d5ffd5b50806105d0816117c3565b91505061053c565b50600195945050505050565b905090565b5f6105f5848484610f24565b5060019392505050565b5f6105e461104d565b5f610614338686610d74565b6040517fa4c0ed3600000000000000000000000000000000000000000000000000000000815273ffffffffffffffffffffffffffffffffffffffff86169063a4c0ed369061066c903390889088908890600401611841565b6020604051808303815f875af1158015610688573d5f803e3d5ffd5b505050506040513d601f19601f820116820180604052508101906106ac9190611876565b95945050505050565b5f6106c1338686610d74565b6040517f2eedcb7100000000000000000000000000000000000000000000000000000000815273ffffffffffffffffffffffffffffffffffffffff861690632eedcb719061071b9033908a90899089908990600401611895565b6020604051808303815f875af1158015610737573d5f803e3d5ffd5b505050506040513d601f19601f8201168201806040525081019061075b9190611876565b9695505050505050565b662386f26fc100003410156107a6576040517f583aa02600000000000000000000000000000000000000000000000000000000815260040160405180910390fd5b6107b83367d02ab486cedc00006110cd565b565b7f0d000000000000000000000000000000000000000000000000000000000000006060805f8080836107ea61116c565b60408051602080820183525f8083528351818152918201909352999a92999098504697507f0000000000000000000000000000000000000000000000000000000000000000965090945092509050565b5f610452338484610d74565b5f610852868686610f24565b6040517fa4c0ed3600000000000000000000000000000000000000000000000000000000815273ffffffffffffffffffffffffffffffffffffffff86169063a4c0ed369061071b908990889088908890600401611841565b5f6108b6338686610c97565b6040517eba451f00000000000000000000000000000000000000000000000000000000815273ffffffffffffffffffffffffffffffffffffffff86169062ba451f9061066c903390889088908890600401611841565b73ffffffffffffffffffffffffffffffffffffffff871661095b576040517f8e4c8aa60000000000000000000000000000000000000000000000000000000081525f60048201526024016104c5565b73ffffffffffffffffffffffffffffffffffffffff87165f90815260036020526040812054906109896105ff565b604080517f6e71edae12b1b97f4d1f60370fef10105fa2faae0126114a169c64845d6126c9602082015273ffffffffffffffffffffffffffffffffffffffff808d1692820192909252908a1660608201526080810189905260a0810184905260c0810188905260e00160405160208183030381529060405280519060200120604051602001610a4a9291907f190100000000000000000000000000000000000000000000000000000000000081526002810192909252602282015260420190565b604080517fffffffffffffffffffffffffffffffffffffffffffffffffffffffffffffffe081840301815282825280516020918201205f845290830180835281905260ff8816918301919091526060820186905260808201859052915060019060a0016020604051602081039080840390855afa158015610acd573d5f803e3d5ffd5b5050506020604051035173ffffffffffffffffffffffffffffffffffffffff168973ffffffffffffffffffffffffffffffffffffffff1614610b3b576040517f8baa579f00000000000000000000000000000000000000000000000000000000815260040160405180910390fd5b8515801590610b4957508542115b15610b89576040517fdd6b219a000000000000000000000000000000000000000000000000000000008152426004820152602481018790526044016104c5565b610b948260016118df565b73ffffffffffffffffffffffffffffffffffffffff8a165f90815260036020526040902055610bc4898989610c97565b505050505050505050565b5f3073ffffffffffffffffffffffffffffffffffffffff841603610c1457507fffffffffffffffffffffffffffffffffffffffffffffffffffffffffffffffff610456565b5073ffffffffffffffffffffffffffffffffffffffff9182165f90815260026020908152604080832093909416825291909152205490565b5f610c58338484610d74565b60405173ffffffffffffffffffffffffffffffffffffffff8416903480156108fc02915f818181858888f193505050501580156105f5573d5f803e3d5ffd5b73ffffffffffffffffffffffffffffffffffffffff83161580610cce575073ffffffffffffffffffffffffffffffffffffffff8216155b15610d07576040517f8e4c8aa60000000000000000000000000000000000000000000000000000000081525f60048201526024016104c5565b73ffffffffffffffffffffffffffffffffffffffff8381165f8181526002602090815260408083209487168084529482529182902085905590518481527f8c5be1e5ebec7d5bd14f71427d1e84f3dd0314c0f7b2291e5b200ac8c7c3b925910160405180910390a3505050565b73ffffffffffffffffffffffffffffffffffffffff82161580610dac575073ffffffffffffffffffffffffffffffffffffffff821630145b15610dfb576040517f8e4c8aa600000000000000000000000000000000000000000000000000000000815273ffffffffffffffffffffffffffffffffffffffff831660048201526024016104c5565b73ffffffffffffffffffffffffffffffffffffffff83165f9081526001602052604090205481811015610e64576040517f6584853f00000000000000000000000000000000000000000000000000000000815260048101829052602481018390526044016104c5565b610e6e82826118f2565b73ffffffffffffffffffffffffffffffffffffffff8086165f908152600160205260408082209390935590851681529081208054849290610eb09084906118df565b925050819055508273ffffffffffffffffffffffffffffffffffffffff168473ffffffffffffffffffffffffffffffffffffffff167fddf252ad1be2c89b69c2b068fc378daa952ba7f163c4a11628f55a4df523b3ef84604051610f1691815260200190565b60405180910390a350505050565b3373ffffffffffffffffffffffffffffffffffffffff841614801590610f60575073ffffffffffffffffffffffffffffffffffffffff83163014155b1561103d5773ffffffffffffffffffffffffffffffffffffffff83165f9081526002602090815260408083203384529091529020547fffffffffffffffffffffffffffffffffffffffffffffffffffffffffffffffff811461103b5781811015611000576040517f95fcd25400000000000000000000000000000000000000000000000000000000815260048101829052602481018390526044016104c5565b61100a82826118f2565b73ffffffffffffffffffffffffffffffffffffffff85165f9081526002602090815260408083203384529091529020555b505b611048838383610d74565b505050565b5f467f000000000000000000000000000000000000000000000000000000000000000081146110a5576110a0817f00000000000000000000000000000000000000000000000000000000000000006111a8565b6110c7565b7f00000000000000000000000000000000000000000000000000000000000000005b91505090565b805f808282546110dd91906118df565b909155505073ffffffffffffffffffffffffffffffffffffffff82165f90815260016020526040812080548392906111169084906118df565b909155505060405181815273ffffffffffffffffffffffffffffffffffffffff8316905f907fddf252ad1be2c89b69c2b068fc378daa952ba7f163c4a11628f55a4df523b3ef9060200160405180910390a35050565b60606105e460408051808201909152600681527f546f6b656e730000000000000000000000000000000000000000000000000000602082015290565b5f7f8cad95687ba82c2ce50e74f7b754645e5117c3a5bec8151c0726d5857980a86661120460408051808201909152600681527f546f6b656e730000000000000000000000000000000000000000000000000000602082015290565b805160209182012060405161124a939287918791019384526020840192909252604083015273ffffffffffffffffffffffffffffffffffffffff16606082015260800190565b60405160208183030381529060405280519060200120905092915050565b5f81518084525f5b8181101561128c57602081850181015186830182015201611270565b505f6020828601015260207fffffffffffffffffffffffffffffffffffffffffffffffffffffffffffffffe0601f83011685010191505092915050565b602081525f6112db6020830184611268565b9392505050565b73ffffffffffffffffffffffffffffffffffffffff81168114611303575f80fd5b50565b5f8060408385031215611317575f80fd5b8235611322816112e2565b946020939093013593505050565b7f4e487b71000000000000000000000000000000000000000000000000000000005f52604160045260245ffd5b8035611368816112e2565b919050565b5f806040838503121561137e575f80fd5b823567ffffffffffffffff80821115611395575f80fd5b818501915085601f8301126113a8575f80fd5b81356020828211156113bc576113bc611330565b8160051b6040517fffffffffffffffffffffffffffffffffffffffffffffffffffffffffffffffe0603f830116810181811086821117156113ff576113ff611330565b60405292835281830193508481018201928984111561141c575f80fd5b948201945b83861015611441576114328661135d565b85529482019493820193611421565b9997909101359750505050505050565b5f805f60608486031215611463575f80fd5b833561146e816112e2565b9250602084013561147e816112e2565b929592945050506040919091013590565b5f8083601f84011261149f575f80fd5b50813567ffffffffffffffff8111156114b6575f80fd5b6020830191508360208285010111156114cd575f80fd5b9250929050565b5f805f80606085870312156114e7575f80fd5b84356114f2816112e2565b935060208501359250604085013567ffffffffffffffff811115611514575f80fd5b6115208782880161148f565b95989497509550505050565b5f805f805f60808688031215611540575f80fd5b853561154b816112e2565b9450602086013561155b816112e2565b935060408601359250606086013567ffffffffffffffff81111561157d575f80fd5b6115898882890161148f565b969995985093965092949392505050565b5f602082840312156115aa575f80fd5b81356112db816112e2565b7fff00000000000000000000000000000000000000000000000000000000000000881681525f602060e0818401526115f060e084018a611268565b8381036040850152611602818a611268565b6060850189905273ffffffffffffffffffffffffffffffffffffffff8816608086015260a0850187905284810360c086015285518082528387019250908301905f5b8181101561166057835183529284019291840191600101611644565b50909c9b505050505050505050505050565b5f805f805f805f60e0888a031215611688575f80fd5b8735611693816112e2565b965060208801356116a3816112e2565b95506040880135945060608801359350608088013560ff811681146116c6575f80fd5b9699959850939692959460a0840135945060c09093013592915050565b5f80604083850312156116f4575f80fd5b82356116ff816112e2565b9150602083013561170f816112e2565b809150509250929050565b7f4e487b71000000000000000000000000000000000000000000000000000000005f52601160045260245ffd5b5f8261177a577f4e487b71000000000000000000000000000000000000000000000000000000005f52601260045260245ffd5b500490565b80820281158282048414176104565761045661171a565b7f4e487b71000000000000000000000000000000000000000000000000000000005f52603260045260245ffd5b5f7fffffffffffffffffffffffffffffffffffffffffffffffffffffffffffffffff82036117f3576117f361171a565b5060010190565b81835281816020850137505f602082840101525f60207fffffffffffffffffffffffffffffffffffffffffffffffffffffffffffffffe0601f840116840101905092915050565b73ffffffffffffffffffffffffffffffffffffffff85168152836020820152606060408201525f61075b6060830184866117fa565b5f60208284031215611886575f80fd5b815180151581146112db575f80fd5b5f73ffffffffffffffffffffffffffffffffffffffff8088168352808716602084015250846040830152608060608301526118d46080830184866117fa565b979650505050505050565b808201808211156104565761045661171a565b818103818111156104565761045661171a56fea26469706673582212203ffe829308ceffc820f753bef8119ec6ece27c28182a7a05aa994d728d6cf71064736f6c63430008140033",
  "linkReferences": {},
  "deployedLinkReferences": {},
  "devdoc": {
    "errors": {
      "DeadlineOver(uint256,uint256)": [
        {
          "params": {
            "currentTime": "time at which the error happen",
            "deadline": "the deadline"
          }
        }
      ],
      "InvalidAddress(address)": [
        {
          "params": {
            "addr": "invalid address"
          }
        }
      ],
      "InvalidMsgValue(uint256,uint256)": [
        {
          "params": {
            "expected": "value expected",
            "provided": "msg.value amount provided"
          }
        }
      ],
      "InvalidTotalAmount(uint256,uint256)": [
        {
          "params": {
            "expected": "value expected",
            "provided": "msg.value amount provided"
          }
        }
      ],
      "NotAuthorizedAllowance(uint256,uint256)": [
        {
          "params": {
            "currentAllowance": "the current allowance",
            "expected": "amount expected"
          }
        }
      ],
      "NotEnoughTokens(uint256,uint256)": [
        {
          "params": {
            "currentBalance": "the current balance",
            "expected": "amount expected"
          }
        }
      ]
    },
    "events": {
      "Approval(address,address,uint256)": {
        "params": {
          "owner": "the account approving the `spender`",
          "spender": "the account allowed to spend",
          "value": "the amount granted"
        }
      },
      "Transfer(address,address,uint256)": {
        "params": {
          "from": "the account the tokens are sent from",
          "to": "the account the tokens are sent to",
          "value": "number of tokens sent"
        }
      }
    },
    "kind": "dev",
    "methods": {
      "approveAndCall(address,uint256,bytes)": {
        "params": {
          "amount": "number of token to transfer",
          "data": "extra data",
          "spender": "account to send the token for"
        },
        "returns": {
          "_0": "success"
        }
      },
      "eip712Domain()": {
        "returns": {
          "chainID": "EIP-712 chainID",
          "extensions": "A list of EIP numbers that specify additional fields in the domain. The method to obtain the value for each of these additional fields and any conditions for inclusion are expected to be specified in the respective EIP. The value of fields does not affect their inclusion.",
          "fields": "A bit map where bit i is set to 1 if and only if domain field i is present (0 ≤ i ≤ 4). Bits are read from least significant to most significant, and fields are indexed in the order that is specified by EIP-712, identical to the order in which they are listed in the function type.",
          "name": "EIP-712 name",
          "salt": "EIP-712 salt",
          "verifyingContract": "EIP-712 name verifyingContract",
          "version": "EIP-712 version"
        }
      },
      "nonces(address)": {
        "params": {
          "owner": "address queried"
        },
        "returns": {
          "_0": "nonce value"
        }
      },
      "permit(address,address,uint256,uint256,uint8,bytes32,bytes32)": {
        "params": {
          "deadline": "timestamp in seconds after which the permit is not valid.",
          "owner": "owner of the tokens",
          "r": "signature part r",
          "s": "signature part s",
          "spender": "address allowed to spend on behalf of the owner.",
          "v": "signature part v",
          "value": "amount of token allowed to be spent"
        }
      },
      "transferAndCall(address,uint256,bytes)": {
        "params": {
          "amount": "number of token to transfer",
          "data": "extra data",
          "to": "account to receive the tokens"
        },
        "returns": {
          "_0": "success"
        }
      },
      "transferFromAndCall(address,address,uint256,bytes)": {
        "params": {
          "amount": "number of token to transfer",
          "data": "extra data",
          "from": "account to send the token from",
          "to": "account to receive the tokens"
        },
        "returns": {
          "_0": "success"
        }
      },
      "transferOnBehalfAndCall(address,address,uint256,bytes)": {
        "params": {
          "amount": "number of token to transfer",
          "data": "extra data",
          "forAddress": "account to send the token for",
          "to": "account to receive the tokens"
        },
        "returns": {
          "_0": "success"
        }
      }
    },
    "version": 1
  },
  "evm": {
    "gasEstimates": {
      "creation": {
        "codeDepositCost": "1291800",
        "executionCost": "infinite",
        "totalCost": "infinite"
      },
      "external": {
        "DOMAIN_SEPARATOR()": "infinite",
        "allowance(address,address)": "infinite",
        "approve(address,uint256)": "24622",
        "approveAndCall(address,uint256,bytes)": "infinite",
        "balanceOf(address)": "2550",
        "decimals()": "222",
        "distributeAlongWithETH(address[],uint256)": "infinite",
        "eip712Domain()": "infinite",
        "name()": "infinite",
        "nonces(address)": "2572",
        "permit(address,address,uint256,uint256,uint8,bytes32,bytes32)": "infinite",
        "symbol()": "infinite",
        "topup()": "infinite",
        "totalSupply()": "2347",
        "transfer(address,uint256)": "infinite",
        "transferAlongWithETH(address,uint256)": "infinite",
        "transferAndCall(address,uint256,bytes)": "infinite",
        "transferFrom(address,address,uint256)": "infinite",
        "transferFromAndCall(address,address,uint256,bytes)": "infinite",
        "transferOnBehalfAndCall(address,address,uint256,bytes)": "infinite"
      }
    }
  },
  "storageLayout": {
    "storage": [
      {
        "astId": 243,
        "contract": "src/test/TestTokens.sol:TestTokens",
        "label": "_totalSupply",
        "offset": 0,
        "slot": "0",
        "type": "t_uint256"
      },
      {
        "astId": 247,
        "contract": "src/test/TestTokens.sol:TestTokens",
        "label": "_balances",
        "offset": 0,
        "slot": "1",
        "type": "t_mapping(t_address,t_uint256)"
      },
      {
        "astId": 253,
        "contract": "src/test/TestTokens.sol:TestTokens",
        "label": "_allowances",
        "offset": 0,
        "slot": "2",
        "type": "t_mapping(t_address,t_mapping(t_address,t_uint256))"
      },
      {
        "astId": 22,
        "contract": "src/test/TestTokens.sol:TestTokens",
        "label": "_nonces",
        "offset": 0,
        "slot": "3",
        "type": "t_mapping(t_address,t_uint256)"
      }
    ],
    "types": {
      "t_address": {
        "encoding": "inplace",
        "label": "address",
        "numberOfBytes": "20"
      },
      "t_mapping(t_address,t_mapping(t_address,t_uint256))": {
        "encoding": "mapping",
        "key": "t_address",
        "label": "mapping(address => mapping(address => uint256))",
        "numberOfBytes": "32",
        "value": "t_mapping(t_address,t_uint256)"
      },
      "t_mapping(t_address,t_uint256)": {
        "encoding": "mapping",
        "key": "t_address",
        "label": "mapping(address => uint256)",
        "numberOfBytes": "32",
        "value": "t_uint256"
      },
      "t_uint256": {
        "encoding": "inplace",
        "label": "uint256",
        "numberOfBytes": "32"
      }
    }
  },
  "userdoc": {
    "errors": {
      "DeadlineOver(uint256,uint256)": [
        {
          "notice": "The permit has expired"
        }
      ],
      "InvalidAddress(address)": [
        {
          "notice": "An invalid address is specified (for example: zero address)"
        }
      ],
      "InvalidMsgValue(uint256,uint256)": [
        {
          "notice": "The msg value do not match the expected value"
        }
      ],
      "InvalidSignature()": [
        {
          "notice": "The signature do not match the expected signer"
        }
      ],
      "InvalidTotalAmount(uint256,uint256)": [
        {
          "notice": "The total amount provided do not match the expected value"
        }
      ],
      "NotAuthorizedAllowance(uint256,uint256)": [
        {
          "notice": "the amount requested exceed the allowance"
        }
      ],
      "NotEnoughTokens(uint256,uint256)": [
        {
          "notice": "the amount requested exceed the balance"
        }
      ]
    },
    "events": {
      "Approval(address,address,uint256)": {
        "notice": "trigger on approval amount being set.   Note that Transfer events need to be considered to compute the current allowance."
      },
      "Transfer(address,address,uint256)": {
        "notice": "trigger when tokens are transferred, including zero value transfers."
      }
    },
    "kind": "user",
    "methods": {
      "DOMAIN_SEPARATOR()": {
        "notice": "EIP-712 Domain separator hash"
      },
      "allowance(address,address)": {
        "notice": "Returns the amount which `spender` is still allowed to withdraw from `owner`."
      },
      "approve(address,uint256)": {
        "notice": "Allows `spender` to withdraw from your account multiple times, up to `amount`."
      },
      "approveAndCall(address,uint256,bytes)": {
        "notice": "approve `amount` token to be spent by `spender` and callback into it via `onTokenApproval`"
      },
      "balanceOf(address)": {
        "notice": "Returns the account balance of another account with address `owner`."
      },
      "decimals()": {
        "notice": "Returns the number of decimals the token uses."
      },
      "distributeAlongWithETH(address[],uint256)": {
        "notice": "distribute"
      },
      "eip712Domain()": {
        "notice": "The return values of this function MUST describe the domain separator that is used for verification of EIP-712 signatures in the contract. They describe both the form of the EIP712Domain struct (i.e., which of the optional fields and extensions are present) and the value of each field, as follows."
      },
      "nonces(address)": {
        "notice": "return the current nonce of the owner"
      },
      "permit(address,address,uint256,uint256,uint8,bytes32,bytes32)": {
        "notice": "allow `spender` to spend `value` amount of token on behalf of `owner`"
      },
      "symbol()": {
        "notice": "Returns the symbol of the token."
      },
      "totalSupply()": {
        "notice": "Returns the total token supply."
      },
      "transfer(address,uint256)": {
        "notice": "Transfers `amount` of tokens to address `to`."
      },
      "transferAlongWithETH(address,uint256)": {
        "notice": "transfer"
      },
      "transferAndCall(address,uint256,bytes)": {
        "notice": "transfer `amount` token to `to` and callback into it via `onTokenTransfer`"
      },
      "transferFrom(address,address,uint256)": {
        "notice": "Transfers `amount` tokens from address `from` to address `to`."
      },
      "transferFromAndCall(address,address,uint256,bytes)": {
        "notice": "transfer `amount` token to `to` and callback into it via `onTokenTransfer`"
      },
      "transferOnBehalfAndCall(address,address,uint256,bytes)": {
        "notice": "transfer `amount` token to `to` and callback into it via `onTokenTransferedOnBehalf`"
      }
    },
    "version": 1
  },
  "argsData": "0x000000000000000000000000e53cd71271acadbeb0f64d9c8c62bbddc8ca9e660000000000000000000000000000000000000000033b2e3c9fd0803ce8000000",
  "transaction": {
    "hash": "0x363fcbeb1fdeacb37f52024be98f05746625accea107bd7f982217b54486ef52",
    "nonce": "0x91",
    "origin": "0x61c461ecc993aadeb7e4b47e96d1b8cc37314b20"
  }
}