{
  "address": "0xdf193665aad68cb3d0af345e0dccdde04192b628",
  "abi": [
    {
      "inputs": [
        {
          "internalType": "address",
          "name": "to",
          "type": "address"
        },
        {
          "internalType": "uint256",
          "name": "amount",
          "type": "uint256"
        }
      ],
      "stateMutability": "nonpayable",
      "type": "constructor"
    },
    {
      "inputs": [
        {
          "internalType": "uint256",
          "name": "currentTime",
          "type": "uint256"
        },
        {
          "internalType": "uint256",
          "name": "deadline",
          "type": "uint256"
        }
      ],
      "name": "DeadlineOver",
      "type": "error"
    },
    {
      "inputs": [
        {
          "internalType": "address",
          "name": "addr",
          "type": "address"
        }
      ],
      "name": "InvalidAddress",
      "type": "error"
    },
    {
      "inputs": [
        {
          "internalType": "uint256",
          "name": "provided",
          "type": "uint256"
        },
        {
          "internalType": "uint256",
          "name": "expected",
          "type": "uint256"
        }
      ],
      "name": "InvalidMsgValue",
      "type": "error"
    },
    {
      "inputs": [],
      "name": "InvalidSignature",
      "type": "error"
    },
    {
      "inputs": [
        {
          "internalType": "uint256",
          "name": "provided",
          "type": "uint256"
        },
        {
          "internalType": "uint256",
          "name": "expected",
          "type": "uint256"
        }
      ],
      "name": "InvalidTotalAmount",
      "type": "error"
    },
    {
      "inputs": [
        {
          "internalType": "uint256",
          "name": "currentAllowance",
          "type": "uint256"
        },
        {
          "internalType": "uint256",
          "name": "expected",
          "type": "uint256"
        }
      ],
      "name": "NotAuthorizedAllowance",
      "type": "error"
    },
    {
      "inputs": [],
      "name": "NotEnoughETH",
      "type": "error"
    },
    {
      "inputs": [
        {
          "internalType": "uint256",
          "name": "currentBalance",
          "type": "uint256"
        },
        {
          "internalType": "uint256",
          "name": "expected",
          "type": "uint256"
        }
      ],
      "name": "NotEnoughTokens",
      "type": "error"
    },
    {
      "anonymous": false,
      "inputs": [
        {
          "indexed": true,
          "internalType": "address",
          "name": "owner",
          "type": "address"
        },
        {
          "indexed": true,
          "internalType": "address",
          "name": "spender",
          "type": "address"
        },
        {
          "indexed": false,
          "internalType": "uint256",
          "name": "value",
          "type": "uint256"
        }
      ],
      "name": "Approval",
      "type": "event"
    },
    {
      "anonymous": false,
      "inputs": [
        {
          "indexed": true,
          "internalType": "address",
          "name": "from",
          "type": "address"
        },
        {
          "indexed": true,
          "internalType": "address",
          "name": "to",
          "type": "address"
        },
        {
          "indexed": false,
          "internalType": "uint256",
          "name": "value",
          "type": "uint256"
        }
      ],
      "name": "Transfer",
      "type": "event"
    },
    {
      "inputs": [],
      "name": "DOMAIN_SEPARATOR",
      "outputs": [
        {
          "internalType": "bytes32",
          "name": "",
          "type": "bytes32"
        }
      ],
      "stateMutability": "view",
      "type": "function"
    },
    {
      "inputs": [
        {
          "internalType": "address",
          "name": "owner",
          "type": "address"
        },
        {
          "internalType": "address",
          "name": "spender",
          "type": "address"
        }
      ],
      "name": "allowance",
      "outputs": [
        {
          "internalType": "uint256",
          "name": "",
          "type": "uint256"
        }
      ],
      "stateMutability": "view",
      "type": "function"
    },
    {
      "inputs": [
        {
          "internalType": "address",
          "name": "spender",
          "type": "address"
        },
        {
          "internalType": "uint256",
          "name": "amount",
          "type": "uint256"
        }
      ],
      "name": "approve",
      "outputs": [
        {
          "internalType": "bool",
          "name": "",
          "type": "bool"
        }
      ],
      "stateMutability": "nonpayable",
      "type": "function"
    },
    {
      "inputs": [
        {
          "internalType": "address",
          "name": "spender",
          "type": "address"
        },
        {
          "internalType": "uint256",
          "name": "amount",
          "type": "uint256"
        },
        {
          "internalType": "bytes",
          "name": "data",
          "type": "bytes"
        }
      ],
      "name": "approveAndCall",
      "outputs": [
        {
          "internalType": "bool",
          "name": "",
          "type": "bool"
        }
      ],
      "stateMutability": "nonpayable",
      "type": "function"
    },
    {
      "inputs": [
        {
          "internalType": "address",
          "name": "owner",
          "type": "address"
        }
      ],
      "name": "balanceOf",
      "outputs": [
        {
          "internalType": "uint256",
          "name": "",
          "type": "uint256"
        }
      ],
      "stateMutability": "view",
      "type": "function"
    },
    {
      "inputs": [],
      "name": "decimals",
      "outputs": [
        {
          "internalType": "uint8",
          "name": "",
          "type": "uint8"
        }
      ],
      "stateMutability": "pure",
      "type": "function"
    },
    {
      "inputs": [
        {
          "internalType": "address payable[]",
          "name": "tos",
          "type": "address[]"
        },
        {
          "internalType": "uint256",
          "name": "totalAmount",
          "type": "uint256"
        }
      ],
      "name": "distributeAlongWithETH",
      "outputs": [
        {
          "internalType": "bool",
          "name": "",
          "type": "bool"
        }
      ],
      "stateMutability": "payable",
      "type": "function"
    },
    {
      "inputs": [],
      "name": "eip712Domain",
      "outputs": [
        {
          "internalType": "bytes1",
          "name": "fields",
          "type": "bytes1"
        },
        {
          "internalType": "string",
          "name": "name",
          "type": "string"
        },
        {
          "internalType": "string",
          "name": "version",
          "type": "string"
        },
        {
          "internalType": "uint256",
          "name": "chainID",
          "type": "uint256"
        },
        {
          "internalType": "address",
          "name": "verifyingContract",
          "type": "address"
        },
        {
          "internalType": "bytes32",
          "name": "salt",
          "type": "bytes32"
        },
        {
          "internalType": "uint256[]",
          "name": "extensions",
          "type": "uint256[]"
        }
      ],
      "stateMutability": "view",
      "type": "function"
    },
    {
      "inputs": [],
      "name": "name",
      "outputs": [
        {
          "internalType": "string",
          "name": "",
          "type": "string"
        }
      ],
      "stateMutability": "pure",
      "type": "function"
    },
    {
      "inputs": [
        {
          "internalType": "address",
          "name": "owner",
          "type": "address"
        }
      ],
      "name": "nonces",
      "outputs": [
        {
          "internalType": "uint256",
          "name": "",
          "type": "uint256"
        }
      ],
      "stateMutability": "view",
      "type": "function"
    },
    {
      "inputs": [
        {
          "internalType": "address",
          "name": "owner",
          "type": "address"
        },
        {
          "internalType": "address",
          "name": "spender",
          "type": "address"
        },
        {
          "internalType": "uint256",
          "name": "value",
          "type": "uint256"
        },
        {
          "internalType": "uint256",
          "name": "deadline",
          "type": "uint256"
        },
        {
          "internalType": "uint8",
          "name": "v",
          "type": "uint8"
        },
        {
          "internalType": "bytes32",
          "name": "r",
          "type": "bytes32"
        },
        {
          "internalType": "bytes32",
          "name": "s",
          "type": "bytes32"
        }
      ],
      "name": "permit",
      "outputs": [],
      "stateMutability": "nonpayable",
      "type": "function"
    },
    {
      "inputs": [],
      "name": "symbol",
      "outputs": [
        {
          "internalType": "string",
          "name": "",
          "type": "string"
        }
      ],
      "stateMutability": "view",
      "type": "function"
    },
    {
      "inputs": [],
      "name": "topup",
      "outputs": [],
      "stateMutability": "payable",
      "type": "function"
    },
    {
      "inputs": [],
      "name": "totalSupply",
      "outputs": [
        {
          "internalType": "uint256",
          "name": "",
          "type": "uint256"
        }
      ],
      "stateMutability": "view",
      "type": "function"
    },
    {
      "inputs": [
        {
          "internalType": "address",
          "name": "to",
          "type": "address"
        },
        {
          "internalType": "uint256",
          "name": "amount",
          "type": "uint256"
        }
      ],
      "name": "transfer",
      "outputs": [
        {
          "internalType": "bool",
          "name": "",
          "type": "bool"
        }
      ],
      "stateMutability": "nonpayable",
      "type": "function"
    },
    {
      "inputs": [
        {
          "internalType": "address payable",
          "name": "to",
          "type": "address"
        },
        {
          "internalType": "uint256",
          "name": "amount",
          "type": "uint256"
        }
      ],
      "name": "transferAlongWithETH",
      "outputs": [
        {
          "internalType": "bool",
          "name": "",
          "type": "bool"
        }
      ],
      "stateMutability": "payable",
      "type": "function"
    },
    {
      "inputs": [
        {
          "internalType": "address",
          "name": "to",
          "type": "address"
        },
        {
          "internalType": "uint256",
          "name": "amount",
          "type": "uint256"
        },
        {
          "internalType": "bytes",
          "name": "data",
          "type": "bytes"
        }
      ],
      "name": "transferAndCall",
      "outputs": [
        {
          "internalType": "bool",
          "name": "",
          "type": "bool"
        }
      ],
      "stateMutability": "nonpayable",
      "type": "function"
    },
    {
      "inputs": [
        {
          "internalType": "address",
          "name": "from",
          "type": "address"
        },
        {
          "internalType": "address",
          "name": "to",
          "type": "address"
        },
        {
          "internalType": "uint256",
          "name": "amount",
          "type": "uint256"
        }
      ],
      "name": "transferFrom",
      "outputs": [
        {
          "internalType": "bool",
          "name": "",
          "type": "bool"
        }
      ],
      "stateMutability": "nonpayable",
      "type": "function"
    },
    {
      "inputs": [
        {
          "internalType": "address",
          "name": "from",
          "type": "address"
        },
        {
          "internalType": "address",
          "name": "to",
          "type": "address"
        },
        {
          "internalType": "uint256",
          "name": "amount",
          "type": "uint256"
        },
        {
          "internalType": "bytes",
          "name": "data",
          "type": "bytes"
        }
      ],
      "name": "transferFromAndCall",
      "outputs": [
        {
          "internalType": "bool",
          "name": "",
          "type": "bool"
        }
      ],
      "stateMutability": "nonpayable",
      "type": "function"
    },
    {
      "inputs": [
        {
          "internalType": "address",
          "name": "forAddress",
          "type": "address"
        },
        {
          "internalType": "address",
          "name": "to",
          "type": "address"
        },
        {
          "internalType": "uint256",
          "name": "amount",
          "type": "uint256"
        },
        {
          "internalType": "bytes",
          "name": "data",
          "type": "bytes"
        }
      ],
      "name": "transferOnBehalfAndCall",
      "outputs": [
        {
          "internalType": "bool",
          "name": "",
          "type": "bool"
        }
      ],
      "stateMutability": "nonpayable",
      "type": "function"
    }
  ],
  "contractName": "TestTokens",
  "sourceName": "src/test/TestTokens.sol",
  "bytecode": "0x60e06040523480156200001157600080fd5b5060405162001c0438038062001c048339810160408190526200003491620001b1565b4660808190523090819081156200004c57816200004e565b305b6001600160a01b031660c08190526200006990829062000085565b60a052506200007d91508390508262000125565b50506200020f565b60007f8cad95687ba82c2ce50e74f7b754645e5117c3a5bec8151c0726d5857980a866620000cc604080518082019091526006815265546f6b656e7360d01b602082015290565b80516020918201206040516200010693928791879101938452602084019290925260408301526001600160a01b0316606082015260800190565b6040516020818303038152906040528051906020012090505b92915050565b80600080828254620001389190620001ed565b90915550506001600160a01b0382166000908152600160205260408120805483929062000167908490620001ed565b90915550506040518181526001600160a01b038316906000907fddf252ad1be2c89b69c2b068fc378daa952ba7f163c4a11628f55a4df523b3ef9060200160405180910390a35050565b60008060408385031215620001c557600080fd5b82516001600160a01b0381168114620001dd57600080fd5b6020939093015192949293505050565b808201808211156200011f57634e487b7160e01b600052601160045260246000fd5b60805160a05160c0516119be620002466000396000818161084001526110c2015260006110ed0152600061109701526119be6000f3fe60806040526004361061015f5760003560e01c806370a08231116100c0578063c1d34b8911610074578063d505accf11610059578063d505accf14610410578063dd62ed3e14610430578063e7fcb0651461045057600080fd5b8063c1d34b89146103d0578063cae9ca51146103f057600080fd5b806384b0196e116100a557806384b0196e1461033f57806395d89b4114610367578063a9059cbb146103b057600080fd5b806370a08231146102b95780637ecebe00146102fc57600080fd5b8063313ce567116101175780634000aea0116100fc5780634000aea01461026f57806365520efa1461028f57806369774c2d146102af57600080fd5b8063313ce5671461023e5780633644e5151461025a57600080fd5b80630e02df54116101485780630e02df54146101ec57806318160ddd146101ff57806323b872dd1461021e57600080fd5b806306fdde0314610164578063095ea7b3146101bc575b600080fd5b34801561017057600080fd5b5060408051808201909152600681527f546f6b656e73000000000000000000000000000000000000000000000000000060208201525b6040516101b39190611316565b60405180910390f35b3480156101c857600080fd5b506101dc6101d7366004611355565b610463565b60405190151581526020016101b3565b6101dc6101fa3660046113c0565b61047a565b34801561020b57600080fd5b506000545b6040519081526020016101b3565b34801561022a57600080fd5b506101dc6102393660046114a9565b61060d565b34801561024a57600080fd5b50604051601281526020016101b3565b34801561026657600080fd5b50610210610624565b34801561027b57600080fd5b506101dc61028a366004611533565b61062e565b34801561029b57600080fd5b506101dc6102aa36600461158f565b6106df565b6102b7610793565b005b3480156102c557600080fd5b506102106102d4366004611602565b73ffffffffffffffffffffffffffffffffffffffff1660009081526001602052604090205490565b34801561030857600080fd5b50610210610317366004611602565b73ffffffffffffffffffffffffffffffffffffffff1660009081526003602052604090205490565b34801561034b57600080fd5b506103546107e8565b6040516101b3979695949392919061161f565b34801561037357600080fd5b506101a66040518060400160405280600581526020017f544f4b454e00000000000000000000000000000000000000000000000000000081525081565b3480156103bc57600080fd5b506101dc6103cb366004611355565b61086a565b3480156103dc57600080fd5b506101dc6103eb36600461158f565b610877565b3480156103fc57600080fd5b506101dc61040b366004611533565b6108dc565b34801561041c57600080fd5b506102b761042b3660046116de565b61093f565b34801561043c57600080fd5b5061021061044b366004611755565b610c08565b6101dc61045e366004611355565b610c87565b6000610470338484610cd6565b5060015b92915050565b60008083513461048a91906117bd565b905083518161049991906117f8565b34146104ed57348451826104ad91906117f8565b6040517f1f89f671000000000000000000000000000000000000000000000000000000008152600481019290925260248201526044015b60405180910390fd5b60008451846104fc91906117bd565b905084518161050b91906117f8565b841461055a578385518261051f91906117f8565b6040517fe93890a2000000000000000000000000000000000000000000000000000000008152600481019290925260248201526044016104e4565b60005b85518110156105fc5761058a3387838151811061057c5761057c61180f565b602002602001015184610db5565b85818151811061059c5761059c61180f565b602002602001015173ffffffffffffffffffffffffffffffffffffffff166108fc849081150290604051600060405180830381858888f193505050501580156105e9573d6000803e3d6000fd5b50806105f48161183e565b91505061055d565b50600195945050505050565b905090565b600061061a848484610f67565b5060019392505050565b6000610608611092565b600061063b338686610db5565b6040517fa4c0ed3600000000000000000000000000000000000000000000000000000000815273ffffffffffffffffffffffffffffffffffffffff86169063a4c0ed36906106939033908890889088906004016118bf565b6020604051808303816000875af11580156106b2573d6000803e3d6000fd5b505050506040513d601f19601f820116820180604052508101906106d691906118f5565b95945050505050565b60006106ec338686610db5565b6040517f2eedcb7100000000000000000000000000000000000000000000000000000000815273ffffffffffffffffffffffffffffffffffffffff861690632eedcb71906107469033908a90899089908990600401611917565b6020604051808303816000875af1158015610765573d6000803e3d6000fd5b505050506040513d601f19601f8201168201806040525081019061078991906118f5565b9695505050505050565b662386f26fc100003410156107d4576040517f583aa02600000000000000000000000000000000000000000000000000000000815260040160405180910390fd5b6107e63367d02ab486cedc0000611113565b565b7f0d0000000000000000000000000000000000000000000000000000000000000060608060008080836108196111b5565b604080516020808201835260008083528351818152918201909352999a92999098504697507f0000000000000000000000000000000000000000000000000000000000000000965090945092509050565b6000610470338484610db5565b6000610884868686610f67565b6040517fa4c0ed3600000000000000000000000000000000000000000000000000000000815273ffffffffffffffffffffffffffffffffffffffff86169063a4c0ed36906107469089908890889088906004016118bf565b60006108e9338686610cd6565b6040517eba451f00000000000000000000000000000000000000000000000000000000815273ffffffffffffffffffffffffffffffffffffffff86169062ba451f906106939033908890889088906004016118bf565b73ffffffffffffffffffffffffffffffffffffffff871661098f576040517f8e4c8aa6000000000000000000000000000000000000000000000000000000008152600060048201526024016104e4565b73ffffffffffffffffffffffffffffffffffffffff8716600090815260036020526040812054906109be610624565b604080517f6e71edae12b1b97f4d1f60370fef10105fa2faae0126114a169c64845d6126c9602082015273ffffffffffffffffffffffffffffffffffffffff808d1692820192909252908a1660608201526080810189905260a0810184905260c0810188905260e00160405160208183030381529060405280519060200120604051602001610a7f9291907f190100000000000000000000000000000000000000000000000000000000000081526002810192909252602282015260420190565b604080517fffffffffffffffffffffffffffffffffffffffffffffffffffffffffffffffe081840301815282825280516020918201206000845290830180835281905260ff8816918301919091526060820186905260808201859052915060019060a0016020604051602081039080840390855afa158015610b05573d6000803e3d6000fd5b5050506020604051035173ffffffffffffffffffffffffffffffffffffffff168973ffffffffffffffffffffffffffffffffffffffff1614610b73576040517f8baa579f00000000000000000000000000000000000000000000000000000000815260040160405180910390fd5b8515801590610b8157508542115b15610bc1576040517fdd6b219a000000000000000000000000000000000000000000000000000000008152426004820152602481018790526044016104e4565b610bcc826001611962565b73ffffffffffffffffffffffffffffffffffffffff8a16600090815260036020526040902055610bfd898989610cd6565b505050505050505050565b60003073ffffffffffffffffffffffffffffffffffffffff841603610c4e57507fffffffffffffffffffffffffffffffffffffffffffffffffffffffffffffffff610474565b5073ffffffffffffffffffffffffffffffffffffffff918216600090815260026020908152604080832093909416825291909152205490565b6000610c94338484610db5565b60405173ffffffffffffffffffffffffffffffffffffffff8416903480156108fc02916000818181858888f1935050505015801561061a573d6000803e3d6000fd5b73ffffffffffffffffffffffffffffffffffffffff83161580610d0d575073ffffffffffffffffffffffffffffffffffffffff8216155b15610d47576040517f8e4c8aa6000000000000000000000000000000000000000000000000000000008152600060048201526024016104e4565b73ffffffffffffffffffffffffffffffffffffffff83811660008181526002602090815260408083209487168084529482529182902085905590518481527f8c5be1e5ebec7d5bd14f71427d1e84f3dd0314c0f7b2291e5b200ac8c7c3b925910160405180910390a3505050565b73ffffffffffffffffffffffffffffffffffffffff82161580610ded575073ffffffffffffffffffffffffffffffffffffffff821630145b15610e3c576040517f8e4c8aa600000000000000000000000000000000000000000000000000000000815273ffffffffffffffffffffffffffffffffffffffff831660048201526024016104e4565b73ffffffffffffffffffffffffffffffffffffffff831660009081526001602052604090205481811015610ea6576040517f6584853f00000000000000000000000000000000000000000000000000000000815260048101829052602481018390526044016104e4565b610eb08282611975565b73ffffffffffffffffffffffffffffffffffffffff8086166000908152600160205260408082209390935590851681529081208054849290610ef3908490611962565b925050819055508273ffffffffffffffffffffffffffffffffffffffff168473ffffffffffffffffffffffffffffffffffffffff167fddf252ad1be2c89b69c2b068fc378daa952ba7f163c4a11628f55a4df523b3ef84604051610f5991815260200190565b60405180910390a350505050565b3373ffffffffffffffffffffffffffffffffffffffff841614801590610fa3575073ffffffffffffffffffffffffffffffffffffffff83163014155b156110825773ffffffffffffffffffffffffffffffffffffffff831660009081526002602090815260408083203384529091529020547fffffffffffffffffffffffffffffffffffffffffffffffffffffffffffffffff81146110805781811015611044576040517f95fcd25400000000000000000000000000000000000000000000000000000000815260048101829052602481018390526044016104e4565b61104e8282611975565b73ffffffffffffffffffffffffffffffffffffffff851660009081526002602090815260408083203384529091529020555b505b61108d838383610db5565b505050565b6000467f000000000000000000000000000000000000000000000000000000000000000081146110eb576110e6817f00000000000000000000000000000000000000000000000000000000000000006111f1565b61110d565b7f00000000000000000000000000000000000000000000000000000000000000005b91505090565b806000808282546111249190611962565b909155505073ffffffffffffffffffffffffffffffffffffffff82166000908152600160205260408120805483929061115e908490611962565b909155505060405181815273ffffffffffffffffffffffffffffffffffffffff8316906000907fddf252ad1be2c89b69c2b068fc378daa952ba7f163c4a11628f55a4df523b3ef9060200160405180910390a35050565b606061060860408051808201909152600681527f546f6b656e730000000000000000000000000000000000000000000000000000602082015290565b60007f8cad95687ba82c2ce50e74f7b754645e5117c3a5bec8151c0726d5857980a86661124e60408051808201909152600681527f546f6b656e730000000000000000000000000000000000000000000000000000602082015290565b8051602091820120604051611294939287918791019384526020840192909252604083015273ffffffffffffffffffffffffffffffffffffffff16606082015260800190565b60405160208183030381529060405280519060200120905092915050565b6000815180845260005b818110156112d8576020818501810151868301820152016112bc565b5060006020828601015260207fffffffffffffffffffffffffffffffffffffffffffffffffffffffffffffffe0601f83011685010191505092915050565b60208152600061132960208301846112b2565b9392505050565b73ffffffffffffffffffffffffffffffffffffffff8116811461135257600080fd5b50565b6000806040838503121561136857600080fd5b823561137381611330565b946020939093013593505050565b7f4e487b7100000000000000000000000000000000000000000000000000000000600052604160045260246000fd5b80356113bb81611330565b919050565b600080604083850312156113d357600080fd5b823567ffffffffffffffff808211156113eb57600080fd5b818501915085601f8301126113ff57600080fd5b813560208282111561141357611413611381565b8160051b6040517fffffffffffffffffffffffffffffffffffffffffffffffffffffffffffffffe0603f8301168101818110868211171561145657611456611381565b60405292835281830193508481018201928984111561147457600080fd5b948201945b838610156114995761148a866113b0565b85529482019493820193611479565b9997909101359750505050505050565b6000806000606084860312156114be57600080fd5b83356114c981611330565b925060208401356114d981611330565b929592945050506040919091013590565b60008083601f8401126114fc57600080fd5b50813567ffffffffffffffff81111561151457600080fd5b60208301915083602082850101111561152c57600080fd5b9250929050565b6000806000806060858703121561154957600080fd5b843561155481611330565b935060208501359250604085013567ffffffffffffffff81111561157757600080fd5b611583878288016114ea565b95989497509550505050565b6000806000806000608086880312156115a757600080fd5b85356115b281611330565b945060208601356115c281611330565b935060408601359250606086013567ffffffffffffffff8111156115e557600080fd5b6115f1888289016114ea565b969995985093965092949392505050565b60006020828403121561161457600080fd5b813561132981611330565b7fff00000000000000000000000000000000000000000000000000000000000000881681526000602060e08184015261165b60e084018a6112b2565b838103604085015261166d818a6112b2565b6060850189905273ffffffffffffffffffffffffffffffffffffffff8816608086015260a0850187905284810360c0860152855180825283870192509083019060005b818110156116cc578351835292840192918401916001016116b0565b50909c9b505050505050505050505050565b600080600080600080600060e0888a0312156116f957600080fd5b873561170481611330565b9650602088013561171481611330565b95506040880135945060608801359350608088013560ff8116811461173857600080fd5b9699959850939692959460a0840135945060c09093013592915050565b6000806040838503121561176857600080fd5b823561177381611330565b9150602083013561178381611330565b809150509250929050565b7f4e487b7100000000000000000000000000000000000000000000000000000000600052601160045260246000fd5b6000826117f3577f4e487b7100000000000000000000000000000000000000000000000000000000600052601260045260246000fd5b500490565b80820281158282048414176104745761047461178e565b7f4e487b7100000000000000000000000000000000000000000000000000000000600052603260045260246000fd5b60007fffffffffffffffffffffffffffffffffffffffffffffffffffffffffffffffff820361186f5761186f61178e565b5060010190565b8183528181602085013750600060208284010152600060207fffffffffffffffffffffffffffffffffffffffffffffffffffffffffffffffe0601f840116840101905092915050565b73ffffffffffffffffffffffffffffffffffffffff85168152836020820152606060408201526000610789606083018486611876565b60006020828403121561190757600080fd5b8151801515811461132957600080fd5b600073ffffffffffffffffffffffffffffffffffffffff808816835280871660208401525084604083015260806060830152611957608083018486611876565b979650505050505050565b808201808211156104745761047461178e565b818103818111156104745761047461178e56fea2646970667358221220c747c59e9cb58531b2e461b6f3c4f12f138e29ece778d319182d8ce1e404c4bb64736f6c63430008140033",
  "linkReferences": {},
  "deployedLinkReferences": {},
  "devdoc": {
    "errors": {
      "DeadlineOver(uint256,uint256)": [
        {
          "params": {
            "currentTime": "time at which the error happen",
            "deadline": "the deadline"
          }
        }
      ],
      "InvalidAddress(address)": [
        {
          "params": {
            "addr": "invalid address"
          }
        }
      ],
      "InvalidMsgValue(uint256,uint256)": [
        {
          "params": {
            "expected": "value expected",
            "provided": "msg.value amount provided"
          }
        }
      ],
      "InvalidTotalAmount(uint256,uint256)": [
        {
          "params": {
            "expected": "value expected",
            "provided": "msg.value amount provided"
          }
        }
      ],
      "NotAuthorizedAllowance(uint256,uint256)": [
        {
          "params": {
            "currentAllowance": "the current allowance",
            "expected": "amount expected"
          }
        }
      ],
      "NotEnoughTokens(uint256,uint256)": [
        {
          "params": {
            "currentBalance": "the current balance",
            "expected": "amount expected"
          }
        }
      ]
    },
    "events": {
      "Approval(address,address,uint256)": {
        "params": {
          "owner": "the account approving the `spender`",
          "spender": "the account allowed to spend",
          "value": "the amount granted"
        }
      },
      "Transfer(address,address,uint256)": {
        "params": {
          "from": "the account the tokens are sent from",
          "to": "the account the tokens are sent to",
          "value": "number of tokens sent"
        }
      }
    },
    "kind": "dev",
    "methods": {
      "approveAndCall(address,uint256,bytes)": {
        "params": {
          "amount": "number of token to transfer",
          "data": "extra data",
          "spender": "account to send the token for"
        },
        "returns": {
          "_0": "success"
        }
      },
      "eip712Domain()": {
        "returns": {
          "chainID": "EIP-712 chainID",
          "extensions": "A list of EIP numbers that specify additional fields in the domain. The method to obtain the value for each of these additional fields and any conditions for inclusion are expected to be specified in the respective EIP. The value of fields does not affect their inclusion.",
          "fields": "A bit map where bit i is set to 1 if and only if domain field i is present (0 ≤ i ≤ 4). Bits are read from least significant to most significant, and fields are indexed in the order that is specified by EIP-712, identical to the order in which they are listed in the function type.",
          "name": "EIP-712 name",
          "salt": "EIP-712 salt",
          "verifyingContract": "EIP-712 name verifyingContract",
          "version": "EIP-712 version"
        }
      },
      "nonces(address)": {
        "params": {
          "owner": "address queried"
        },
        "returns": {
          "_0": "nonce value"
        }
      },
      "permit(address,address,uint256,uint256,uint8,bytes32,bytes32)": {
        "params": {
          "deadline": "timestamp in seconds after which the permit is not valid.",
          "owner": "owner of the tokens",
          "r": "signature part r",
          "s": "signature part s",
          "spender": "address allowed to spend on behalf of the owner.",
          "v": "signature part v",
          "value": "amount of token allowed to be spent"
        }
      },
      "transferAndCall(address,uint256,bytes)": {
        "params": {
          "amount": "number of token to transfer",
          "data": "extra data",
          "to": "account to receive the tokens"
        },
        "returns": {
          "_0": "success"
        }
      },
      "transferFromAndCall(address,address,uint256,bytes)": {
        "params": {
          "amount": "number of token to transfer",
          "data": "extra data",
          "from": "account to send the token from",
          "to": "account to receive the tokens"
        },
        "returns": {
          "_0": "success"
        }
      },
      "transferOnBehalfAndCall(address,address,uint256,bytes)": {
        "params": {
          "amount": "number of token to transfer",
          "data": "extra data",
          "forAddress": "account to send the token for",
          "to": "account to receive the tokens"
        },
        "returns": {
          "_0": "success"
        }
      }
    },
    "version": 1
  },
  "evm": {
    "gasEstimates": {
      "creation": {
        "codeDepositCost": "1318000",
        "executionCost": "infinite",
        "totalCost": "infinite"
      },
      "external": {
        "DOMAIN_SEPARATOR()": "infinite",
        "allowance(address,address)": "infinite",
        "approve(address,uint256)": "24626",
        "approveAndCall(address,uint256,bytes)": "infinite",
        "balanceOf(address)": "2553",
        "decimals()": "223",
        "distributeAlongWithETH(address[],uint256)": "infinite",
        "eip712Domain()": "infinite",
        "name()": "infinite",
        "nonces(address)": "2575",
        "permit(address,address,uint256,uint256,uint8,bytes32,bytes32)": "infinite",
        "symbol()": "infinite",
        "topup()": "infinite",
        "totalSupply()": "2349",
        "transfer(address,uint256)": "infinite",
        "transferAlongWithETH(address,uint256)": "infinite",
        "transferAndCall(address,uint256,bytes)": "infinite",
        "transferFrom(address,address,uint256)": "infinite",
        "transferFromAndCall(address,address,uint256,bytes)": "infinite",
        "transferOnBehalfAndCall(address,address,uint256,bytes)": "infinite"
      }
    }
  },
  "storageLayout": {
    "storage": [
      {
        "astId": 9556,
        "contract": "src/test/TestTokens.sol:TestTokens",
        "label": "_totalSupply",
        "offset": 0,
        "slot": "0",
        "type": "t_uint256"
      },
      {
        "astId": 9560,
        "contract": "src/test/TestTokens.sol:TestTokens",
        "label": "_balances",
        "offset": 0,
        "slot": "1",
        "type": "t_mapping(t_address,t_uint256)"
      },
      {
        "astId": 9566,
        "contract": "src/test/TestTokens.sol:TestTokens",
        "label": "_allowances",
        "offset": 0,
        "slot": "2",
        "type": "t_mapping(t_address,t_mapping(t_address,t_uint256))"
      },
      {
        "astId": 9326,
        "contract": "src/test/TestTokens.sol:TestTokens",
        "label": "_nonces",
        "offset": 0,
        "slot": "3",
        "type": "t_mapping(t_address,t_uint256)"
      }
    ],
    "types": {
      "t_address": {
        "encoding": "inplace",
        "label": "address",
        "numberOfBytes": "20"
      },
      "t_mapping(t_address,t_mapping(t_address,t_uint256))": {
        "encoding": "mapping",
        "key": "t_address",
        "label": "mapping(address => mapping(address => uint256))",
        "numberOfBytes": "32",
        "value": "t_mapping(t_address,t_uint256)"
      },
      "t_mapping(t_address,t_uint256)": {
        "encoding": "mapping",
        "key": "t_address",
        "label": "mapping(address => uint256)",
        "numberOfBytes": "32",
        "value": "t_uint256"
      },
      "t_uint256": {
        "encoding": "inplace",
        "label": "uint256",
        "numberOfBytes": "32"
      }
    }
  },
  "userdoc": {
    "errors": {
      "DeadlineOver(uint256,uint256)": [
        {
          "notice": "The permit has expired"
        }
      ],
      "InvalidAddress(address)": [
        {
          "notice": "An invalid address is specified (for example: zero address)"
        }
      ],
      "InvalidMsgValue(uint256,uint256)": [
        {
          "notice": "The msg value do not match the expected value"
        }
      ],
      "InvalidSignature()": [
        {
          "notice": "The signature do not match the expected signer"
        }
      ],
      "InvalidTotalAmount(uint256,uint256)": [
        {
          "notice": "The total amount provided do not match the expected value"
        }
      ],
      "NotAuthorizedAllowance(uint256,uint256)": [
        {
          "notice": "the amount requested exceed the allowance"
        }
      ],
      "NotEnoughTokens(uint256,uint256)": [
        {
          "notice": "the amount requested exceed the balance"
        }
      ]
    },
    "events": {
      "Approval(address,address,uint256)": {
        "notice": "trigger on approval amount being set.   Note that Transfer events need to be considered to compute the current allowance."
      },
      "Transfer(address,address,uint256)": {
        "notice": "trigger when tokens are transferred, including zero value transfers."
      }
    },
    "kind": "user",
    "methods": {
      "DOMAIN_SEPARATOR()": {
        "notice": "EIP-712 Domain separator hash"
      },
      "allowance(address,address)": {
        "notice": "Returns the amount which `spender` is still allowed to withdraw from `owner`."
      },
      "approve(address,uint256)": {
        "notice": "Allows `spender` to withdraw from your account multiple times, up to `amount`."
      },
      "approveAndCall(address,uint256,bytes)": {
        "notice": "approve `amount` token to be spent by `spender` and callback into it via `onTokenApproval`"
      },
      "balanceOf(address)": {
        "notice": "Returns the account balance of another account with address `owner`."
      },
      "decimals()": {
        "notice": "Returns the number of decimals the token uses."
      },
      "distributeAlongWithETH(address[],uint256)": {
        "notice": "distribute"
      },
      "eip712Domain()": {
        "notice": "The return values of this function MUST describe the domain separator that is used for verification of EIP-712 signatures in the contract. They describe both the form of the EIP712Domain struct (i.e., which of the optional fields and extensions are present) and the value of each field, as follows."
      },
      "nonces(address)": {
        "notice": "return the current nonce of the owner"
      },
      "permit(address,address,uint256,uint256,uint8,bytes32,bytes32)": {
        "notice": "allow `spender` to spend `value` amount of token on behalf of `owner`"
      },
      "symbol()": {
        "notice": "Returns the symbol of the token."
      },
      "totalSupply()": {
        "notice": "Returns the total token supply."
      },
      "transfer(address,uint256)": {
        "notice": "Transfers `amount` of tokens to address `to`."
      },
      "transferAlongWithETH(address,uint256)": {
        "notice": "transfer"
      },
      "transferAndCall(address,uint256,bytes)": {
        "notice": "transfer `amount` token to `to` and callback into it via `onTokenTransfer`"
      },
      "transferFrom(address,address,uint256)": {
        "notice": "Transfers `amount` tokens from address `from` to address `to`."
      },
      "transferFromAndCall(address,address,uint256,bytes)": {
        "notice": "transfer `amount` token to `to` and callback into it via `onTokenTransfer`"
      },
      "transferOnBehalfAndCall(address,address,uint256,bytes)": {
        "notice": "transfer `amount` token to `to` and callback into it via `onTokenTransferedOnBehalf`"
      }
    },
    "version": 1
  },
  "argsData": "0x000000000000000000000000e53cd71271acadbeb0f64d9c8c62bbddc8ca9e660000000000000000000000000000000000000000033b2e3c9fd0803ce8000000",
  "transaction": {
    "hash": "0xcec5bfaa27b0909f1282a41da3efdda04b80c2fd190aaabaf6ebfe0bd074e528",
    "nonce": "0xa2",
    "origin": "0x61c461ecc993aadeb7e4b47e96d1b8cc37314b20"
  }
}