{
  "address": "0xefB2062c5C831c9d1f5217Ac9EA741d5aD700457",
  "abi": [
    {
      "inputs": [
        {
          "internalType": "address",
          "name": "to",
          "type": "address"
        },
        {
          "internalType": "uint256",
          "name": "amount",
          "type": "uint256"
        }
      ],
      "stateMutability": "nonpayable",
      "type": "constructor"
    },
    {
      "anonymous": false,
      "inputs": [
        {
          "indexed": true,
          "internalType": "address",
          "name": "owner",
          "type": "address"
        },
        {
          "indexed": true,
          "internalType": "address",
          "name": "spender",
          "type": "address"
        },
        {
          "indexed": false,
          "internalType": "uint256",
          "name": "value",
          "type": "uint256"
        }
      ],
      "name": "Approval",
      "type": "event"
    },
    {
      "anonymous": false,
      "inputs": [
        {
          "indexed": true,
          "internalType": "address",
          "name": "from",
          "type": "address"
        },
        {
          "indexed": true,
          "internalType": "address",
          "name": "to",
          "type": "address"
        },
        {
          "indexed": false,
          "internalType": "uint256",
          "name": "value",
          "type": "uint256"
        }
      ],
      "name": "Transfer",
      "type": "event"
    },
    {
      "inputs": [],
      "name": "DOMAIN_SEPARATOR",
      "outputs": [
        {
          "internalType": "bytes32",
          "name": "",
          "type": "bytes32"
        }
      ],
      "stateMutability": "view",
      "type": "function"
    },
    {
      "inputs": [
        {
          "internalType": "address",
          "name": "owner",
          "type": "address"
        },
        {
          "internalType": "address",
          "name": "spender",
          "type": "address"
        }
      ],
      "name": "allowance",
      "outputs": [
        {
          "internalType": "uint256",
          "name": "",
          "type": "uint256"
        }
      ],
      "stateMutability": "view",
      "type": "function"
    },
    {
      "inputs": [
        {
          "internalType": "address",
          "name": "spender",
          "type": "address"
        },
        {
          "internalType": "uint256",
          "name": "amount",
          "type": "uint256"
        }
      ],
      "name": "approve",
      "outputs": [
        {
          "internalType": "bool",
          "name": "",
          "type": "bool"
        }
      ],
      "stateMutability": "nonpayable",
      "type": "function"
    },
    {
      "inputs": [
        {
          "internalType": "address",
          "name": "spender",
          "type": "address"
        },
        {
          "internalType": "uint256",
          "name": "amount",
          "type": "uint256"
        },
        {
          "internalType": "bytes",
          "name": "data",
          "type": "bytes"
        }
      ],
      "name": "approveAndCall",
      "outputs": [
        {
          "internalType": "bool",
          "name": "",
          "type": "bool"
        }
      ],
      "stateMutability": "nonpayable",
      "type": "function"
    },
    {
      "inputs": [
        {
          "internalType": "address",
          "name": "owner",
          "type": "address"
        }
      ],
      "name": "balanceOf",
      "outputs": [
        {
          "internalType": "uint256",
          "name": "",
          "type": "uint256"
        }
      ],
      "stateMutability": "view",
      "type": "function"
    },
    {
      "inputs": [
        {
          "internalType": "uint256",
          "name": "amount",
          "type": "uint256"
        }
      ],
      "name": "burn",
      "outputs": [],
      "stateMutability": "nonpayable",
      "type": "function"
    },
    {
      "inputs": [],
      "name": "decimals",
      "outputs": [
        {
          "internalType": "uint8",
          "name": "",
          "type": "uint8"
        }
      ],
      "stateMutability": "pure",
      "type": "function"
    },
    {
      "inputs": [
        {
          "internalType": "address payable[]",
          "name": "tos",
          "type": "address[]"
        },
        {
          "internalType": "uint256",
          "name": "totalAmount",
          "type": "uint256"
        }
      ],
      "name": "distributeAlongWithETH",
      "outputs": [
        {
          "internalType": "bool",
          "name": "",
          "type": "bool"
        }
      ],
      "stateMutability": "payable",
      "type": "function"
    },
    {
      "inputs": [],
      "name": "eip712Domain",
      "outputs": [
        {
          "internalType": "bytes1",
          "name": "",
          "type": "bytes1"
        },
        {
          "internalType": "string",
          "name": "",
          "type": "string"
        },
        {
          "internalType": "string",
          "name": "",
          "type": "string"
        },
        {
          "internalType": "uint256",
          "name": "",
          "type": "uint256"
        },
        {
          "internalType": "address",
          "name": "",
          "type": "address"
        },
        {
          "internalType": "bytes32",
          "name": "",
          "type": "bytes32"
        },
        {
          "internalType": "uint256[]",
          "name": "",
          "type": "uint256[]"
        }
      ],
      "stateMutability": "view",
      "type": "function"
    },
    {
      "inputs": [],
      "name": "name",
      "outputs": [
        {
          "internalType": "string",
          "name": "",
          "type": "string"
        }
      ],
      "stateMutability": "pure",
      "type": "function"
    },
    {
      "inputs": [
        {
          "internalType": "address",
          "name": "owner",
          "type": "address"
        }
      ],
      "name": "nonces",
      "outputs": [
        {
          "internalType": "uint256",
          "name": "",
          "type": "uint256"
        }
      ],
      "stateMutability": "view",
      "type": "function"
    },
    {
      "inputs": [
        {
          "internalType": "address",
          "name": "owner",
          "type": "address"
        },
        {
          "internalType": "address",
          "name": "spender",
          "type": "address"
        },
        {
          "internalType": "uint256",
          "name": "value",
          "type": "uint256"
        },
        {
          "internalType": "uint256",
          "name": "deadline",
          "type": "uint256"
        },
        {
          "internalType": "uint8",
          "name": "v",
          "type": "uint8"
        },
        {
          "internalType": "bytes32",
          "name": "r",
          "type": "bytes32"
        },
        {
          "internalType": "bytes32",
          "name": "s",
          "type": "bytes32"
        }
      ],
      "name": "permit",
      "outputs": [],
      "stateMutability": "nonpayable",
      "type": "function"
    },
    {
      "inputs": [],
      "name": "symbol",
      "outputs": [
        {
          "internalType": "string",
          "name": "",
          "type": "string"
        }
      ],
      "stateMutability": "view",
      "type": "function"
    },
    {
      "inputs": [],
      "name": "totalSupply",
      "outputs": [
        {
          "internalType": "uint256",
          "name": "",
          "type": "uint256"
        }
      ],
      "stateMutability": "view",
      "type": "function"
    },
    {
      "inputs": [
        {
          "internalType": "address",
          "name": "to",
          "type": "address"
        },
        {
          "internalType": "uint256",
          "name": "amount",
          "type": "uint256"
        }
      ],
      "name": "transfer",
      "outputs": [
        {
          "internalType": "bool",
          "name": "",
          "type": "bool"
        }
      ],
      "stateMutability": "nonpayable",
      "type": "function"
    },
    {
      "inputs": [
        {
          "internalType": "address payable",
          "name": "to",
          "type": "address"
        },
        {
          "internalType": "uint256",
          "name": "amount",
          "type": "uint256"
        }
      ],
      "name": "transferAlongWithETH",
      "outputs": [
        {
          "internalType": "bool",
          "name": "",
          "type": "bool"
        }
      ],
      "stateMutability": "payable",
      "type": "function"
    },
    {
      "inputs": [
        {
          "internalType": "address",
          "name": "to",
          "type": "address"
        },
        {
          "internalType": "uint256",
          "name": "amount",
          "type": "uint256"
        },
        {
          "internalType": "bytes",
          "name": "data",
          "type": "bytes"
        }
      ],
      "name": "transferAndCall",
      "outputs": [
        {
          "internalType": "bool",
          "name": "",
          "type": "bool"
        }
      ],
      "stateMutability": "nonpayable",
      "type": "function"
    },
    {
      "inputs": [
        {
          "internalType": "address",
          "name": "from",
          "type": "address"
        },
        {
          "internalType": "address",
          "name": "to",
          "type": "address"
        },
        {
          "internalType": "uint256",
          "name": "amount",
          "type": "uint256"
        }
      ],
      "name": "transferFrom",
      "outputs": [
        {
          "internalType": "bool",
          "name": "",
          "type": "bool"
        }
      ],
      "stateMutability": "nonpayable",
      "type": "function"
    },
    {
      "inputs": [
        {
          "internalType": "address",
          "name": "from",
          "type": "address"
        },
        {
          "internalType": "address",
          "name": "to",
          "type": "address"
        },
        {
          "internalType": "uint256",
          "name": "amount",
          "type": "uint256"
        },
        {
          "internalType": "bytes",
          "name": "data",
          "type": "bytes"
        }
      ],
      "name": "transferFromAndCall",
      "outputs": [
        {
          "internalType": "bool",
          "name": "",
          "type": "bool"
        }
      ],
      "stateMutability": "nonpayable",
      "type": "function"
    },
    {
      "inputs": [
        {
          "internalType": "address",
          "name": "forAddress",
          "type": "address"
        },
        {
          "internalType": "address",
          "name": "to",
          "type": "address"
        },
        {
          "internalType": "uint256",
          "name": "amount",
          "type": "uint256"
        },
        {
          "internalType": "bytes",
          "name": "data",
          "type": "bytes"
        }
      ],
      "name": "transferOnBehalfAndCall",
      "outputs": [
        {
          "internalType": "bool",
          "name": "",
          "type": "bool"
        }
      ],
      "stateMutability": "nonpayable",
      "type": "function"
    }
  ],
  "transactionHash": "0x65fe88280416349dff1cfeb812cefbf7c1aef60eaf2d92c67e254854cd41eed2",
  "args": [
    "0x61c461EcC993aaDEB7e4b47E96d1B8cC37314B20",
    "1000000000000000000000000000"
  ],
  "numDeployments": 1,
  "solcInputHash": "1c71b247de91ce51d22be93638e98029",
  "bytecode": "0x60c06040523480156200001157600080fd5b50604051620018f8380380620018f8833981016040819052620000349162000177565b46608081905262000045816200005d565b60a05250620000558282620000eb565b5050620001da565b60007f8cad95687ba82c2ce50e74f7b754645e5117c3a5bec8151c0726d5857980a866620000a4604080518082019091526006815265546f6b656e7360d01b602082015290565b80516020918201206040805192830193909352918101919091526060810183905230608082015260a001604051602081830303815290604052805190602001209050919050565b80600080828254620000fe9190620001b3565b90915550506001600160a01b038216600090815260016020526040812080548392906200012d908490620001b3565b90915550506040518181526001600160a01b038316906000907fddf252ad1be2c89b69c2b068fc378daa952ba7f163c4a11628f55a4df523b3ef9060200160405180910390a35050565b600080604083850312156200018b57600080fd5b82516001600160a01b0381168114620001a357600080fd5b6020939093015192949293505050565b60008219821115620001d557634e487b7160e01b600052601160045260246000fd5b500190565b60805160a0516116f8620002006000396000610f3401526000610eff01526116f86000f3fe60806040526004361061015f5760003560e01c806370a08231116100c0578063c1d34b8911610074578063d505accf11610059578063d505accf146103f7578063dd62ed3e14610417578063e7fcb0651461043757600080fd5b8063c1d34b89146103b7578063cae9ca51146103d757600080fd5b806384b0196e116100a557806384b0196e1461032657806395d89b411461034e578063a9059cbb1461039757600080fd5b806370a08231146102ba5780637ecebe00146102f057600080fd5b8063313ce567116101175780634000aea0116100fc5780634000aea01461025857806342966c681461027857806365520efa1461029a57600080fd5b8063313ce567146102275780633644e5151461024357600080fd5b80630e02df54116101485780630e02df54146101d557806318160ddd146101e857806323b872dd1461020757600080fd5b806306fdde0314610164578063095ea7b3146101a5575b600080fd5b34801561017057600080fd5b50604080518082019091526006815265546f6b656e7360d01b60208201525b60405161019c9190611118565b60405180910390f35b3480156101b157600080fd5b506101c56101c036600461114a565b61044a565b604051901515815260200161019c565b6101c56101e336600461119c565b610461565b3480156101f457600080fd5b506000545b60405190815260200161019c565b34801561021357600080fd5b506101c5610222366004611267565b6105e5565b34801561023357600080fd5b506040516012815260200161019c565b34801561024f57600080fd5b506101f96105fc565b34801561026457600080fd5b506101c56102733660046112f1565b610606565b34801561028457600080fd5b5061029861029336600461134d565b6106aa565b005b3480156102a657600080fd5b506101c56102b5366004611366565b6106b9565b3480156102c657600080fd5b506101f96102d53660046113d9565b6001600160a01b031660009081526001602052604090205490565b3480156102fc57600080fd5b506101f961030b3660046113d9565b6001600160a01b031660009081526003602052604090205490565b34801561033257600080fd5b5061033b610760565b60405161019c97969594939291906113f6565b34801561035a57600080fd5b5061018f6040518060400160405280600681526020017f544f4b454e53000000000000000000000000000000000000000000000000000081525081565b3480156103a357600080fd5b506101c56103b236600461114a565b6107c1565b3480156103c357600080fd5b506101c56103d2366004611366565b6107ce565b3480156103e357600080fd5b506101c56103f23660046112f1565b610826565b34801561040357600080fd5b506102986104123660046114a8565b61087c565b34801561042357600080fd5b506101f961043236600461151f565b610b0d565b6101c561044536600461114a565b610b54565b6000610457338484610b96565b5060015b92915050565b600080835134610471919061156e565b90508351816104809190611590565b34146104d35760405162461bcd60e51b815260206004820152601160248201527f494e56414c49445f4d53475f56414c554500000000000000000000000000000060448201526064015b60405180910390fd5b60008451846104e2919061156e565b90508451816104f19190611590565b841461053f5760405162461bcd60e51b815260206004820152601460248201527f494e56414c49445f544f54414c5f414d4f554e5400000000000000000000000060448201526064016104ca565b60005b85518110156105d45761056f33878381518110610561576105616115af565b602002602001015184610c64565b858181518110610581576105816115af565b60200260200101516001600160a01b03166108fc849081150290604051600060405180830381858888f193505050501580156105c1573d6000803e3d6000fd5b50806105cc816115c5565b915050610542565b50600195945050505050565b905090565b60006105f2848484610e15565b5060019392505050565b60006105e0610efa565b6000610613338686610c64565b6040517fa4c0ed360000000000000000000000000000000000000000000000000000000081526001600160a01b0386169063a4c0ed369061065e90339088908890889060040161160a565b6020604051808303816000875af115801561067d573d6000803e3d6000fd5b505050506040513d601f19601f820116820180604052508101906106a19190611633565b95945050505050565b336106b58183610f5a565b5050565b60006106c6338686610c64565b6040517f2eedcb710000000000000000000000000000000000000000000000000000000081526001600160a01b03861690632eedcb71906107139033908a90899089908990600401611655565b6020604051808303816000875af1158015610732573d6000803e3d6000fd5b505050506040513d601f19601f820116820180604052508101906107569190611633565b9695505050505050565b60006060808280808346600d61078f604080518082019091526006815265546f6b656e7360d01b602082015290565b6040805160008082528183019092526020810182815260f89490941b9c929b5092995092975030965091945092509050565b6000610457338484610c64565b60006107db868686610e15565b6040517fa4c0ed360000000000000000000000000000000000000000000000000000000081526001600160a01b0386169063a4c0ed369061071390899088908890889060040161160a565b6000610833338686610b96565b6040517eba451f0000000000000000000000000000000000000000000000000000000081526001600160a01b0386169062ba451f9061065e90339088908890889060040161160a565b6001600160a01b0387166108d25760405162461bcd60e51b815260206004820152601460248201527f494e56414c49445f5a45524f5f4144445245535300000000000000000000000060448201526064016104ca565b6001600160a01b038716600090815260036020526040812054906108f46105fc565b604080517f6e71edae12b1b97f4d1f60370fef10105fa2faae0126114a169c64845d6126c960208201526001600160a01b03808d1692820192909252908a1660608201526080810189905260a0810184905260c0810188905260e001604051602081830303815290604052805190602001206040516020016109a89291907f190100000000000000000000000000000000000000000000000000000000000081526002810192909252602282015260420190565b60408051601f1981840301815282825280516020918201206000845290830180835281905260ff8816918301919091526060820186905260808201859052915060019060a0016020604051602081039080840390855afa158015610a10573d6000803e3d6000fd5b505050602060405103516001600160a01b0316896001600160a01b031614610a7a5760405162461bcd60e51b815260206004820152601160248201527f494e56414c49445f5349474e415455524500000000000000000000000000000060448201526064016104ca565b851580610a875750854211155b610ad35760405162461bcd60e51b815260206004820152600860248201527f544f4f5f4c41544500000000000000000000000000000000000000000000000060448201526064016104ca565b610ade826001611693565b6001600160a01b038a16600090815260036020526040902055610b02898989610b96565b505050505050505050565b6000306001600160a01b03841603610b28575060001961045b565b506001600160a01b03918216600090815260026020908152604080832093909416825291909152205490565b6000610b61338484610c64565b6040516001600160a01b038416903480156108fc02916000818181858888f193505050501580156105f2573d6000803e3d6000fd5b6001600160a01b03831615801590610bb657506001600160a01b03821615155b610c025760405162461bcd60e51b815260206004820152601460248201527f494e56414c49445f5a45524f5f4144445245535300000000000000000000000060448201526064016104ca565b6001600160a01b0383811660008181526002602090815260408083209487168084529482529182902085905590518481527f8c5be1e5ebec7d5bd14f71427d1e84f3dd0314c0f7b2291e5b200ac8c7c3b92591015b60405180910390a3505050565b6001600160a01b038216610cba5760405162461bcd60e51b815260206004820152601460248201527f494e56414c49445f5a45524f5f4144445245535300000000000000000000000060448201526064016104ca565b306001600160a01b03831603610d125760405162461bcd60e51b815260206004820152601460248201527f494e56414c49445f544849535f4144445245535300000000000000000000000060448201526064016104ca565b6001600160a01b03831660009081526001602052604090205481811015610d7b5760405162461bcd60e51b815260206004820152601160248201527f4e4f545f454e4f5547485f544f4b454e5300000000000000000000000000000060448201526064016104ca565b610d8582826116ab565b6001600160a01b038086166000908152600160205260408082209390935590851681529081208054849290610dbb908490611693565b92505081905550826001600160a01b0316846001600160a01b03167fddf252ad1be2c89b69c2b068fc378daa952ba7f163c4a11628f55a4df523b3ef84604051610e0791815260200190565b60405180910390a350505050565b336001600160a01b03841614801590610e3757506001600160a01b0383163014155b15610eea576001600160a01b03831660009081526002602090815260408083203384529091529020546000198114610ee85781811015610eb95760405162461bcd60e51b815260206004820152601760248201527f4e4f545f415554484f495a45445f414c4c4f57414e434500000000000000000060448201526064016104ca565b610ec382826116ab565b6001600160a01b03851660009081526002602090815260408083203384529091529020555b505b610ef5838383610c64565b505050565b6000467f00000000000000000000000000000000000000000000000000000000000000008114610f3257610f2d8161103e565b610f54565b7f00000000000000000000000000000000000000000000000000000000000000005b91505090565b6001600160a01b03821660009081526001602052604090205481811015610fc35760405162461bcd60e51b815260206004820152601160248201527f4e4f545f454e4f5547485f544f4b454e5300000000000000000000000000000060448201526064016104ca565b610fcd82826116ab565b6001600160a01b03841660009081526001602052604081209190915580548391908190610ffb9084906116ab565b90915550506040518281526000906001600160a01b038516907fddf252ad1be2c89b69c2b068fc378daa952ba7f163c4a11628f55a4df523b3ef90602001610c57565b60007f8cad95687ba82c2ce50e74f7b754645e5117c3a5bec8151c0726d5857980a866611084604080518082019091526006815265546f6b656e7360d01b602082015290565b80516020918201206040805192830193909352918101919091526060810183905230608082015260a001604051602081830303815290604052805190602001209050919050565b6000815180845260005b818110156110f1576020818501810151868301820152016110d5565b81811115611103576000602083870101525b50601f01601f19169290920160200192915050565b60208152600061112b60208301846110cb565b9392505050565b6001600160a01b038116811461114757600080fd5b50565b6000806040838503121561115d57600080fd5b823561116881611132565b946020939093013593505050565b634e487b7160e01b600052604160045260246000fd5b803561119781611132565b919050565b600080604083850312156111af57600080fd5b823567ffffffffffffffff808211156111c757600080fd5b818501915085601f8301126111db57600080fd5b81356020828211156111ef576111ef611176565b8160051b604051601f19603f8301168101818110868211171561121457611214611176565b60405292835281830193508481018201928984111561123257600080fd5b948201945b83861015611257576112488661118c565b85529482019493820193611237565b9997909101359750505050505050565b60008060006060848603121561127c57600080fd5b833561128781611132565b9250602084013561129781611132565b929592945050506040919091013590565b60008083601f8401126112ba57600080fd5b50813567ffffffffffffffff8111156112d257600080fd5b6020830191508360208285010111156112ea57600080fd5b9250929050565b6000806000806060858703121561130757600080fd5b843561131281611132565b935060208501359250604085013567ffffffffffffffff81111561133557600080fd5b611341878288016112a8565b95989497509550505050565b60006020828403121561135f57600080fd5b5035919050565b60008060008060006080868803121561137e57600080fd5b853561138981611132565b9450602086013561139981611132565b935060408601359250606086013567ffffffffffffffff8111156113bc57600080fd5b6113c8888289016112a8565b969995985093965092949392505050565b6000602082840312156113eb57600080fd5b813561112b81611132565b7fff00000000000000000000000000000000000000000000000000000000000000881681526000602060e08184015261143260e084018a6110cb565b8381036040850152611444818a6110cb565b606085018990526001600160a01b038816608086015260a0850187905284810360c0860152855180825283870192509083019060005b818110156114965783518352928401929184019160010161147a565b50909c9b505050505050505050505050565b600080600080600080600060e0888a0312156114c357600080fd5b87356114ce81611132565b965060208801356114de81611132565b95506040880135945060608801359350608088013560ff8116811461150257600080fd5b9699959850939692959460a0840135945060c09093013592915050565b6000806040838503121561153257600080fd5b823561153d81611132565b9150602083013561154d81611132565b809150509250929050565b634e487b7160e01b600052601160045260246000fd5b60008261158b57634e487b7160e01b600052601260045260246000fd5b500490565b60008160001904831182151516156115aa576115aa611558565b500290565b634e487b7160e01b600052603260045260246000fd5b600060001982036115d8576115d8611558565b5060010190565b818352818160208501375060006020828401015260006020601f19601f840116840101905092915050565b6001600160a01b03851681528360208201526060604082015260006107566060830184866115df565b60006020828403121561164557600080fd5b8151801515811461112b57600080fd5b60006001600160a01b038088168352808716602084015250846040830152608060608301526116886080830184866115df565b979650505050505050565b600082198211156116a6576116a6611558565b500190565b6000828210156116bd576116bd611558565b50039056fea2646970667358221220ad448441b2dbf36798f11395b10887616c7fcbbf4416995449dd1c24b73255e864736f6c634300080d0033",
  "devdoc": {
    "kind": "dev",
    "methods": {},
    "version": 1
  },
  "userdoc": {
    "kind": "user",
    "methods": {},
    "version": 1
  },
  "storageLayout": {
    "storage": [
      {
        "astId": 249,
        "contract": "src/Tokens.sol:Tokens",
        "label": "_totalSupply",
        "offset": 0,
        "slot": "0",
        "type": "t_uint256"
      },
      {
        "astId": 253,
        "contract": "src/Tokens.sol:Tokens",
        "label": "_balances",
        "offset": 0,
        "slot": "1",
        "type": "t_mapping(t_address,t_uint256)"
      },
      {
        "astId": 259,
        "contract": "src/Tokens.sol:Tokens",
        "label": "_allowances",
        "offset": 0,
        "slot": "2",
        "type": "t_mapping(t_address,t_mapping(t_address,t_uint256))"
      },
      {
        "astId": 30,
        "contract": "src/Tokens.sol:Tokens",
        "label": "_nonces",
        "offset": 0,
        "slot": "3",
        "type": "t_mapping(t_address,t_uint256)"
      }
    ],
    "types": {
      "t_address": {
        "encoding": "inplace",
        "label": "address",
        "numberOfBytes": "20"
      },
      "t_mapping(t_address,t_mapping(t_address,t_uint256))": {
        "encoding": "mapping",
        "key": "t_address",
        "label": "mapping(address => mapping(address => uint256))",
        "numberOfBytes": "32",
        "value": "t_mapping(t_address,t_uint256)"
      },
      "t_mapping(t_address,t_uint256)": {
        "encoding": "mapping",
        "key": "t_address",
        "label": "mapping(address => uint256)",
        "numberOfBytes": "32",
        "value": "t_uint256"
      },
      "t_uint256": {
        "encoding": "inplace",
        "label": "uint256",
        "numberOfBytes": "32"
      }
    }
  }
}