{
  "address": "0x9370d088b7022593f550dfe8e7490207d8709a08",
  "abi": [
    {
      "inputs": [
        {
          "internalType": "contract IReward",
          "name": "rewardAddress",
          "type": "address"
        },
        {
          "components": [
            {
              "internalType": "uint256",
              "name": "rewardRateMillionth",
              "type": "uint256"
            },
            {
              "internalType": "uint256",
              "name": "fixedRewardRateThousandsMillionth",
              "type": "uint256"
            }
          ],
          "internalType": "struct RewardsGenerator.Config",
          "name": "config",
          "type": "tuple"
        },
        {
          "internalType": "address[]",
          "name": "initialGames",
          "type": "address[]"
        }
      ],
      "stateMutability": "nonpayable",
      "type": "constructor"
    },
    {
      "inputs": [],
      "name": "NonTransferable",
      "type": "error"
    },
    {
      "inputs": [],
      "name": "NotAuthorized",
      "type": "error"
    },
    {
      "anonymous": false,
      "inputs": [
        {
          "indexed": true,
          "internalType": "address",
          "name": "owner",
          "type": "address"
        },
        {
          "indexed": true,
          "internalType": "address",
          "name": "spender",
          "type": "address"
        },
        {
          "indexed": false,
          "internalType": "uint256",
          "name": "value",
          "type": "uint256"
        }
      ],
      "name": "Approval",
      "type": "event"
    },
    {
      "anonymous": false,
      "inputs": [
        {
          "indexed": true,
          "internalType": "address",
          "name": "game",
          "type": "address"
        },
        {
          "indexed": false,
          "internalType": "uint256",
          "name": "weight",
          "type": "uint256"
        },
        {
          "indexed": false,
          "internalType": "uint256",
          "name": "timestamp",
          "type": "uint256"
        }
      ],
      "name": "GameEnabled",
      "type": "event"
    },
    {
      "anonymous": false,
      "inputs": [
        {
          "indexed": true,
          "internalType": "address",
          "name": "from",
          "type": "address"
        },
        {
          "indexed": true,
          "internalType": "address",
          "name": "to",
          "type": "address"
        },
        {
          "indexed": false,
          "internalType": "uint256",
          "name": "value",
          "type": "uint256"
        }
      ],
      "name": "Transfer",
      "type": "event"
    },
    {
      "inputs": [],
      "name": "REWARD",
      "outputs": [
        {
          "internalType": "contract IReward",
          "name": "",
          "type": "address"
        }
      ],
      "stateMutability": "view",
      "type": "function"
    },
    {
      "inputs": [
        {
          "internalType": "address",
          "name": "account",
          "type": "address"
        },
        {
          "internalType": "uint256",
          "name": "amount",
          "type": "uint256"
        }
      ],
      "name": "add",
      "outputs": [],
      "stateMutability": "nonpayable",
      "type": "function"
    },
    {
      "inputs": [
        {
          "internalType": "address",
          "name": "",
          "type": "address"
        },
        {
          "internalType": "address",
          "name": "",
          "type": "address"
        }
      ],
      "name": "allowance",
      "outputs": [
        {
          "internalType": "uint256",
          "name": "",
          "type": "uint256"
        }
      ],
      "stateMutability": "pure",
      "type": "function"
    },
    {
      "inputs": [
        {
          "internalType": "address",
          "name": "",
          "type": "address"
        },
        {
          "internalType": "uint256",
          "name": "",
          "type": "uint256"
        }
      ],
      "name": "approve",
      "outputs": [
        {
          "internalType": "bool",
          "name": "",
          "type": "bool"
        }
      ],
      "stateMutability": "pure",
      "type": "function"
    },
    {
      "inputs": [
        {
          "internalType": "address",
          "name": "owner",
          "type": "address"
        }
      ],
      "name": "balanceOf",
      "outputs": [
        {
          "internalType": "uint256",
          "name": "",
          "type": "uint256"
        }
      ],
      "stateMutability": "view",
      "type": "function"
    },
    {
      "inputs": [
        {
          "internalType": "address",
          "name": "to",
          "type": "address"
        }
      ],
      "name": "claimFixedRewards",
      "outputs": [],
      "stateMutability": "nonpayable",
      "type": "function"
    },
    {
      "inputs": [
        {
          "internalType": "address",
          "name": "to",
          "type": "address"
        }
      ],
      "name": "claimSharedPoolRewards",
      "outputs": [],
      "stateMutability": "nonpayable",
      "type": "function"
    },
    {
      "inputs": [],
      "name": "decimals",
      "outputs": [
        {
          "internalType": "uint8",
          "name": "",
          "type": "uint8"
        }
      ],
      "stateMutability": "pure",
      "type": "function"
    },
    {
      "inputs": [
        {
          "internalType": "address",
          "name": "account",
          "type": "address"
        }
      ],
      "name": "earnedFromFixedRate",
      "outputs": [
        {
          "internalType": "uint256",
          "name": "",
          "type": "uint256"
        }
      ],
      "stateMutability": "view",
      "type": "function"
    },
    {
      "inputs": [
        {
          "internalType": "address[]",
          "name": "accounts",
          "type": "address[]"
        }
      ],
      "name": "earnedFromFixedRateMultipleAccounts",
      "outputs": [
        {
          "internalType": "uint256[]",
          "name": "result",
          "type": "uint256[]"
        }
      ],
      "stateMutability": "view",
      "type": "function"
    },
    {
      "inputs": [
        {
          "internalType": "address",
          "name": "account",
          "type": "address"
        }
      ],
      "name": "earnedFromPoolRate",
      "outputs": [
        {
          "internalType": "uint256",
          "name": "",
          "type": "uint256"
        }
      ],
      "stateMutability": "view",
      "type": "function"
    },
    {
      "inputs": [
        {
          "internalType": "address[]",
          "name": "accounts",
          "type": "address[]"
        }
      ],
      "name": "earnedFromPoolRateMultipleAccounts",
      "outputs": [
        {
          "internalType": "uint256[]",
          "name": "result",
          "type": "uint256[]"
        }
      ],
      "stateMutability": "view",
      "type": "function"
    },
    {
      "inputs": [
        {
          "internalType": "address",
          "name": "game",
          "type": "address"
        },
        {
          "internalType": "uint256",
          "name": "weight",
          "type": "uint256"
        }
      ],
      "name": "enableGame",
      "outputs": [],
      "stateMutability": "nonpayable",
      "type": "function"
    },
    {
      "inputs": [],
      "name": "getTotalRewardPerPointWithPrecision24",
      "outputs": [
        {
          "internalType": "uint256",
          "name": "",
          "type": "uint256"
        }
      ],
      "stateMutability": "view",
      "type": "function"
    },
    {
      "inputs": [
        {
          "internalType": "address",
          "name": "from",
          "type": "address"
        },
        {
          "internalType": "address",
          "name": "to",
          "type": "address"
        },
        {
          "internalType": "uint256",
          "name": "amount",
          "type": "uint256"
        }
      ],
      "name": "move",
      "outputs": [],
      "stateMutability": "nonpayable",
      "type": "function"
    },
    {
      "inputs": [],
      "name": "name",
      "outputs": [
        {
          "internalType": "string",
          "name": "",
          "type": "string"
        }
      ],
      "stateMutability": "pure",
      "type": "function"
    },
    {
      "inputs": [
        {
          "internalType": "contract IReward",
          "name": "rewardAddress",
          "type": "address"
        },
        {
          "components": [
            {
              "internalType": "uint256",
              "name": "rewardRateMillionth",
              "type": "uint256"
            },
            {
              "internalType": "uint256",
              "name": "fixedRewardRateThousandsMillionth",
              "type": "uint256"
            }
          ],
          "internalType": "struct RewardsGenerator.Config",
          "name": "config",
          "type": "tuple"
        },
        {
          "internalType": "address[]",
          "name": "initialGames",
          "type": "address[]"
        }
      ],
      "name": "postUpgrade",
      "outputs": [],
      "stateMutability": "nonpayable",
      "type": "function"
    },
    {
      "inputs": [
        {
          "internalType": "address",
          "name": "account",
          "type": "address"
        },
        {
          "internalType": "uint256",
          "name": "amount",
          "type": "uint256"
        }
      ],
      "name": "remove",
      "outputs": [],
      "stateMutability": "nonpayable",
      "type": "function"
    },
    {
      "inputs": [],
      "name": "symbol",
      "outputs": [
        {
          "internalType": "string",
          "name": "",
          "type": "string"
        }
      ],
      "stateMutability": "view",
      "type": "function"
    },
    {
      "inputs": [],
      "name": "totalSupply",
      "outputs": [
        {
          "internalType": "uint256",
          "name": "",
          "type": "uint256"
        }
      ],
      "stateMutability": "view",
      "type": "function"
    },
    {
      "inputs": [
        {
          "internalType": "address",
          "name": "",
          "type": "address"
        },
        {
          "internalType": "uint256",
          "name": "",
          "type": "uint256"
        }
      ],
      "name": "transfer",
      "outputs": [
        {
          "internalType": "bool",
          "name": "",
          "type": "bool"
        }
      ],
      "stateMutability": "pure",
      "type": "function"
    },
    {
      "inputs": [
        {
          "internalType": "address",
          "name": "",
          "type": "address"
        },
        {
          "internalType": "address",
          "name": "",
          "type": "address"
        },
        {
          "internalType": "uint256",
          "name": "",
          "type": "uint256"
        }
      ],
      "name": "transferFrom",
      "outputs": [
        {
          "internalType": "bool",
          "name": "",
          "type": "bool"
        }
      ],
      "stateMutability": "pure",
      "type": "function"
    }
  ],
  "contractName": "RewardsGenerator",
  "sourceName": "src/token/RewardsGenerator.sol",
  "bytecode": "0x604060e0815234620001d957620019e7803803806200001e81620001f4565b92833981019080820360808112620001d9578151916001600160a01b03908184168403620001d95785602093601f190112620001d95785516001600160401b039481880186811183821017620001de5788528483015182528783015192858301938452606081015190878211620001d957019680601f89011215620001d9578751968711620001de576005978760051b908780620000be818501620001f4565b809b81520192820101928311620001d9578701905b828210620001bf5750505060c052516080525160a05260ff60045416156200013c575b84516117cc90816200021b82396080518181816109cd015281816112a4015261154b015260a0518161120d015260c051818181610166015281816106a10152610c350152f35b60009260005b8151811015620001a257808385600193891b8501015116808752600386527f50b08f8489c009db3c1b3f160cc0dae1c0c6706774750c001e4c083f9483d5f389670de0b6b3a764000080828b205581519081524289820152a20162000142565b505050505050600160ff19600454161760045538808080620000f6565b81518781168103620001d9578152908701908701620000d3565b600080fd5b634e487b7160e01b600052604160045260246000fd5b6040519190601f01601f191682016001600160401b03811183821017620001de5760405256fe60806040908082526004918236101561001757600080fd5b600091823560e01c908163066112f914610be25750806306fdde0314610b70578063095ea7b3146107a057806316cf09f814610aaf57806318160ddd14610a7257806323b872dd14610a38578063313ce567146109ff578063484833821461097c57806359d431b31461092857806370a08231146108b75780637997f96d1461085e57806395d89b41146107e8578063a8671f6a146107a5578063a9059cbb146107a0578063abe7f1ab14610749578063b061963c146106ff578063bb35783b146106c5578063cab34c0814610657578063cee2960b14610432578063dd62ed3e146103cc578063f5d82b6b146103485763ff1e03e91461011757600080fd5b346103445760207ffffffffffffffffffffffffffffffffffffffffffffffffffffffffffffffffc3601126103445761014e610d70565b9073ffffffffffffffffffffffffffffffffffffffff7f000000000000000000000000000000000000000000000000000000000000000016801561031c5793839433855260016020526dffffffffffffffffffffffffffff908184872054166102486101ed6101bb611531565b939050338a52600160205283888b20916cffffffffffffffffffffffffff97600189855460701c169401541692611411565b933389526001602052868920921682907fffffffffff00000000000000000000000000ffffffffffffffffffffffffffff7affffffffffffffffffffffffff000000000000000000000000000083549260701b169116179055565b82610251578680f35b6001017fffffffffffffffffffffffffffffffffffff00000000000000000000000000008154169055803b15610318576102de948680948651978895869485937f21670f2200000000000000000000000000000000000000000000000000000000855284016020909392919373ffffffffffffffffffffffffffffffffffffffff60408201951681520152565b03925af190811561030f57506102f8575b80808080808680f35b61030190610f62565b61030c5780386102ef565b80fd5b513d84823e3d90fd5b8580fd5b8482517fea8e4eb5000000000000000000000000000000000000000000000000000000008152fd5b5080fd5b5082346103c857817ffffffffffffffffffffffffffffffffffffffffffffffffffffffffffffffffc3601126103c857610380610d70565b91338452600360205280842054156103a2578361039f60243585611452565b80f35b517fea8e4eb5000000000000000000000000000000000000000000000000000000008152fd5b8280fd5b50903461030c57817ffffffffffffffffffffffffffffffffffffffffffffffffffffffffffffffffc36011261030c57610404610d70565b5060243573ffffffffffffffffffffffffffffffffffffffff81160361042d5760209151908152f35b600080fd5b5082346103c85760807ffffffffffffffffffffffffffffffffffffffffffffffffffffffffffffffffc3601126103c85773ffffffffffffffffffffffffffffffffffffffff81358181160361065357827fffffffffffffffffffffffffffffffffffffffffffffffffffffffffffffffdc3601126106535782519067ffffffffffffffff82850181811184821017610625578552602435835260443560209384015260643590811161031857366023820112156103185780840135906104f882611002565b9161050587519384610fc1565b80835260248584019160051b8301019136831161062157602401905b82821061060957505050610559827fb53127684a568b3173ae13b9f8a6016e243e63b6e8ee1178d6a717850b5d61035416331461101a565b60ff84541615610567578580f35b9091929394805b82518110156105d15780846105856001938661116a565b511680600052600387527f50b08f8489c009db3c1b3f160cc0dae1c0c6706774750c001e4c083f9483d5f389670de0b6b3a76400008082600020558151908152428a820152a20161056e565b50945050505060017fffffffffffffffffffffffffffffffffffffffffffffffffffffffffffffff0082541617905581808080808580f35b8135858116810361042d578152908501908501610521565b8880fd5b6041857f4e487b71000000000000000000000000000000000000000000000000000000006000525260246000fd5b8380fd5b503461034457817ffffffffffffffffffffffffffffffffffffffffffffffffffffffffffffffffc360112610344576020905173ffffffffffffffffffffffffffffffffffffffff7f0000000000000000000000000000000000000000000000000000000000000000168152f35b509134610344576106d536610e5b565b92909194338552600360205280852054156103a25750506106fa8261039f949561132f565b611452565b50346103445760207ffffffffffffffffffffffffffffffffffffffffffffffffffffffffffffffffc3601126103445760209061074261073d610d70565b611247565b9051908152f35b5082346103c857817ffffffffffffffffffffffffffffffffffffffffffffffffffffffffffffffffc3601126103c857610781610d70565b91338452600360205280842054156103a2578361039f6024358561132f565b610df9565b50346103445760207ffffffffffffffffffffffffffffffffffffffffffffffffffffffffffffffffc360112610344576020906107426107e3610d70565b61119e565b503461034457817ffffffffffffffffffffffffffffffffffffffffffffffffffffffffffffffffc36011261034457805161085a9161082682610fa5565b600582527f504f494e5400000000000000000000000000000000000000000000000000000060208301525191829182610d93565b0390f35b50903461030c5761086e36610ebb565b610877816110bb565b925b81811061088d5784518061085a8682610f26565b806108a66107e36108a1600194868861110a565b611149565b6108b0828761116a565b5201610879565b50346103445760207ffffffffffffffffffffffffffffffffffffffffffffffffffffffffffffffffc360112610344576dffffffffffffffffffffffffffff8160209373ffffffffffffffffffffffffffffffffffffffff610917610d70565b168152600185522054169051908152f35b50903461030c5761093836610ebb565b610941816110bb565b925b8181106109575784518061085a8682610f26565b8061096b61073d6108a1600194868861110a565b610975828761116a565b5201610943565b503461034457817ffffffffffffffffffffffffffffffffffffffffffffffffffffffffffffffffc36011261034457610742602092546cffffffffffffffffffffffffff6109f564ffffffffff83167f00000000000000000000000000000000000000000000000000000000000000008460901c6112ed565b9160281c1661107f565b503461034457817ffffffffffffffffffffffffffffffffffffffffffffffffffffffffffffffffc360112610344576020905160128152f35b50903461030c5750610a4936610e5b565b505050517f9cbe2357000000000000000000000000000000000000000000000000000000008152fd5b503461034457817ffffffffffffffffffffffffffffffffffffffffffffffffffffffffffffffffc360112610344576020915460901c9051908152f35b503461034457807ffffffffffffffffffffffffffffffffffffffffffffffffffffffffffffffffc360112610344577f50b08f8489c009db3c1b3f160cc0dae1c0c6706774750c001e4c083f9483d5f3610b07610d70565b916024359273ffffffffffffffffffffffffffffffffffffffff90610b50827fb53127684a568b3173ae13b9f8a6016e243e63b6e8ee1178d6a717850b5d61035416331461101a565b16928360005260036020528082600020558151908152426020820152a280f35b503461034457817ffffffffffffffffffffffffffffffffffffffffffffffffffffffffffffffffc36011261034457805161085a91610bae82610fa5565b600682527f506f696e7473000000000000000000000000000000000000000000000000000060208301525191829182610d93565b84929150346106535760207ffffffffffffffffffffffffffffffffffffffffffffffffffffffffffffffffc36011261065357610c1d610d70565b9073ffffffffffffffffffffffffffffffffffffffff7f000000000000000000000000000000000000000000000000000000000000000016908115610d495750908491610c693361119e565b9182610c73578380f35b338452600260205284842080547fffffffffffffffffffffffffff000000000000000000000000000000000000001672ffffffffff00000000000000000000000000004260701b16179055813b156106535783610d20968651978895869485937f21670f2200000000000000000000000000000000000000000000000000000000855284016020909392919373ffffffffffffffffffffffffffffffffffffffff60408201951681520152565b03925af190811561030f5750610d3a575b80828180808380f35b610d4390610f62565b81610d31565b807fea8e4eb500000000000000000000000000000000000000000000000000000000869252fd5b6004359073ffffffffffffffffffffffffffffffffffffffff8216820361042d57565b60208082528251818301819052939260005b858110610de5575050507fffffffffffffffffffffffffffffffffffffffffffffffffffffffffffffffe0601f8460006040809697860101520116010190565b818101830151848201604001528201610da5565b3461042d5760407ffffffffffffffffffffffffffffffffffffffffffffffffffffffffffffffffc36011261042d57610e30610d70565b5060046040517f9cbe2357000000000000000000000000000000000000000000000000000000008152fd5b7ffffffffffffffffffffffffffffffffffffffffffffffffffffffffffffffffc606091011261042d5773ffffffffffffffffffffffffffffffffffffffff90600435828116810361042d5791602435908116810361042d579060443590565b9060207ffffffffffffffffffffffffffffffffffffffffffffffffffffffffffffffffc83011261042d5760043567ffffffffffffffff9283821161042d578060238301121561042d57816004013593841161042d5760248460051b8301011161042d576024019190565b602090602060408183019282815285518094520193019160005b828110610f4e575050505090565b835185529381019392810192600101610f40565b67ffffffffffffffff8111610f7657604052565b7f4e487b7100000000000000000000000000000000000000000000000000000000600052604160045260246000fd5b6040810190811067ffffffffffffffff821117610f7657604052565b90601f7fffffffffffffffffffffffffffffffffffffffffffffffffffffffffffffffe0910116810190811067ffffffffffffffff821117610f7657604052565b67ffffffffffffffff8111610f765760051b60200190565b1561102157565b60646040517f08c379a000000000000000000000000000000000000000000000000000000000815260206004820152600e60248201527f4e4f545f415554484f52495a45440000000000000000000000000000000000006044820152fd5b9190820180921161108c57565b7f4e487b7100000000000000000000000000000000000000000000000000000000600052601160045260246000fd5b906110c582611002565b6110d26040519182610fc1565b8281527fffffffffffffffffffffffffffffffffffffffffffffffffffffffffffffffe06111008294611002565b0190602036910137565b919081101561111a5760051b0190565b7f4e487b7100000000000000000000000000000000000000000000000000000000600052603260045260246000fd5b3573ffffffffffffffffffffffffffffffffffffffff8116810361042d5790565b805182101561111a5760209160051b010190565b9190820391821161108c57565b8181029291811591840414171561108c57565b73ffffffffffffffffffffffffffffffffffffffff61124491166000818152600260205260406111db64ffffffffff8284205460701c164261117e565b918381526001602052633b9aca0061123261120b6dffffffffffffffffffffffffffff958686862054169061118b565b7f00000000000000000000000000000000000000000000000000000000000000009061118b565b0493815260026020522054169061107f565b90565b73ffffffffffffffffffffffffffffffffffffffff6112449116806000526001602052604060002054906cffffffffffffffffffffffffff916dffffffffffffffffffffffffffff926112cc600054826109f564ffffffffff83167f00000000000000000000000000000000000000000000000000000000000000008460901c6112ed565b92600052600160205283600160406000200154169382169160701c16611411565b9190821561132757611302611307924261117e565b61118b565b69d3c21bcecceda10000009081810291818304149015171561108c570490565b505050600090565b811561140d577fddf252ad1be2c89b69c2b068fc378daa952ba7f163c4a11628f55a4df523b3ef602060009373ffffffffffffffffffffffffffffffffffffffff611379856115ce565b959071ffffffffffffffffffffffffffffffffffff7fffffffffffffffffffffffffffff000000000000000000000000000000000000858a54930360901b1691161787551693848652600183526dffffffffffffffffffffffffffff82604088209203167fffffffffffffffffffffffffffffffffffff0000000000000000000000000000825416179055604051908152a3565b5050565b61141e906114249361117e565b9061118b565b9064e8d4a510009182810292818404149015171561108c5769d3c21bcecceda100000061124492049061107f565b90801561140d577fddf252ad1be2c89b69c2b068fc378daa952ba7f163c4a11628f55a4df523b3ef602060009273ffffffffffffffffffffffffffffffffffffffff61149d866115ce565b969071ffffffffffffffffffffffffffffffffffff7fffffffffffffffffffffffffffff000000000000000000000000000000000000858954930160901b1691161786551694858552600183526dffffffffffffffffffffffffffff82604087209201167fffffffffffffffffffffffffffffffffffff0000000000000000000000000000825416179055604051908152a3565b6000548060901c9164ffffffffff916115886115708483167f0000000000000000000000000000000000000000000000000000000000000000876112ed565b6cffffffffffffffffffffffffff8360281c1661107f565b924216907fffffffffffffffffffffffffffff00000000000000000000000000000000000071ffffffffffffffffffffffffff00000000008560281b1691161717600055565b9073ffffffffffffffffffffffffffffffffffffffff916115ed611531565b93909116600090808252600160205260016116426116ca604085209788546dffffffffffffffffffffffffffff93818386809416809d856cffffffffffffffffffffffffff9a8b920154169360701c16611411565b169385875260016020526040872091600183017fffffffffffffffffffffffffffffffffffff00000000000000000000000000009687825416179055167fffffffffff00000000000000000000000000ffffffffffffffffffffffffffff7affffffffffffffffffffffffff000000000000000000000000000083549260701b169116179055565b600260205264ffffffffff93633b9aca006116f561120b8a61130289604087205460701c164261117e565b04938152600260205261174d6040822095421686907fffffffffffffffffffffffffff0000000000ffffffffffffffffffffffffffff72ffffffffff000000000000000000000000000083549260701b169116179055565b8185549416828516019082821161176957501691161790559190565b807f4e487b7100000000000000000000000000000000000000000000000000000000602492526011600452fdfea2646970667358221220f386f7fc19815ae602f74a78b28d4ea05c0fa1a9fa2d07c7a3abb4f18d1b23bb64736f6c63430008180033",
  "linkReferences": {},
  "deployedLinkReferences": {},
  "devdoc": {
    "events": {
      "Approval(address,address,uint256)": {
        "params": {
          "owner": "the account approving the `spender`",
          "spender": "the account allowed to spend",
          "value": "the amount granted"
        }
      },
      "Transfer(address,address,uint256)": {
        "params": {
          "from": "the account the tokens are sent from",
          "to": "the account the tokens are sent to",
          "value": "number of tokens sent"
        }
      }
    },
    "kind": "dev",
    "methods": {},
    "version": 1
  },
  "evm": {
    "gasEstimates": {
      "creation": {
        "codeDepositCost": "1218400",
        "executionCost": "infinite",
        "totalCost": "infinite"
      },
      "external": {
        "REWARD()": "infinite",
        "add(address,uint256)": "infinite",
        "allowance(address,address)": "687",
        "approve(address,uint256)": "289",
        "balanceOf(address)": "2606",
        "claimFixedRewards(address)": "infinite",
        "claimSharedPoolRewards(address)": "infinite",
        "decimals()": "304",
        "earnedFromFixedRate(address)": "infinite",
        "earnedFromFixedRateMultipleAccounts(address[])": "infinite",
        "earnedFromPoolRate(address)": "infinite",
        "earnedFromPoolRateMultipleAccounts(address[])": "infinite",
        "enableGame(address,uint256)": "26303",
        "getTotalRewardPerPointWithPrecision24()": "infinite",
        "move(address,address,uint256)": "infinite",
        "name()": "infinite",
        "postUpgrade(address,(uint256,uint256),address[])": "infinite",
        "remove(address,uint256)": "infinite",
        "symbol()": "infinite",
        "totalSupply()": "2369",
        "transfer(address,uint256)": "531",
        "transferFrom(address,address,uint256)": "403"
      },
      "internal": {
        "_add(address,uint256)": "infinite",
        "_computeExtraTotalRewardPerPointSinceLastTime(uint256,uint256,uint256)": "259",
        "_computeRewardsEarned(uint256,uint256,uint256,uint256)": "304",
        "_enableGame(address,uint256)": "infinite",
        "_postUpgrade(contract IReward,struct RewardsGenerator.Config memory,address[] memory)": "infinite",
        "_remove(address,uint256)": "infinite",
        "_update(address)": "infinite",
        "_updateAccount(address,uint256)": "infinite",
        "_updateGlobal()": "infinite"
      }
    }
  },
  "storageLayout": {
    "storage": [
      {
        "astId": 203,
        "contract": "src/token/RewardsGenerator.sol:RewardsGenerator",
        "label": "_global",
        "offset": 0,
        "slot": "0",
        "type": "t_struct(GlobalState)200_storage"
      },
      {
        "astId": 215,
        "contract": "src/token/RewardsGenerator.sol:RewardsGenerator",
        "label": "_sharedRateRewardPerAccount",
        "offset": 0,
        "slot": "1",
        "type": "t_mapping(t_address,t_struct(SharedRatePerAccount)210_storage)"
      },
      {
        "astId": 225,
        "contract": "src/token/RewardsGenerator.sol:RewardsGenerator",
        "label": "_fixedRateRewardPerAccount",
        "offset": 0,
        "slot": "2",
        "type": "t_mapping(t_address,t_struct(FixedRate)220_storage)"
      },
      {
        "astId": 229,
        "contract": "src/token/RewardsGenerator.sol:RewardsGenerator",
        "label": "_games",
        "offset": 0,
        "slot": "3",
        "type": "t_mapping(t_address,t_uint256)"
      },
      {
        "astId": 239,
        "contract": "src/token/RewardsGenerator.sol:RewardsGenerator",
        "label": "_init",
        "offset": 0,
        "slot": "4",
        "type": "t_bool"
      }
    ],
    "types": {
      "t_address": {
        "encoding": "inplace",
        "label": "address",
        "numberOfBytes": "20"
      },
      "t_bool": {
        "encoding": "inplace",
        "label": "bool",
        "numberOfBytes": "1"
      },
      "t_mapping(t_address,t_struct(FixedRate)220_storage)": {
        "encoding": "mapping",
        "key": "t_address",
        "label": "mapping(address => struct RewardsGenerator.FixedRate)",
        "numberOfBytes": "32",
        "value": "t_struct(FixedRate)220_storage"
      },
      "t_mapping(t_address,t_struct(SharedRatePerAccount)210_storage)": {
        "encoding": "mapping",
        "key": "t_address",
        "label": "mapping(address => struct RewardsGenerator.SharedRatePerAccount)",
        "numberOfBytes": "32",
        "value": "t_struct(SharedRatePerAccount)210_storage"
      },
      "t_mapping(t_address,t_uint256)": {
        "encoding": "mapping",
        "key": "t_address",
        "label": "mapping(address => uint256)",
        "numberOfBytes": "32",
        "value": "t_uint256"
      },
      "t_struct(FixedRate)220_storage": {
        "encoding": "inplace",
        "label": "struct RewardsGenerator.FixedRate",
        "members": [
          {
            "astId": 217,
            "contract": "src/token/RewardsGenerator.sol:RewardsGenerator",
            "label": "toWithdraw",
            "offset": 0,
            "slot": "0",
            "type": "t_uint112"
          },
          {
            "astId": 219,
            "contract": "src/token/RewardsGenerator.sol:RewardsGenerator",
            "label": "lastTime",
            "offset": 14,
            "slot": "0",
            "type": "t_uint40"
          }
        ],
        "numberOfBytes": "32"
      },
      "t_struct(GlobalState)200_storage": {
        "encoding": "inplace",
        "label": "struct RewardsGenerator.GlobalState",
        "members": [
          {
            "astId": 195,
            "contract": "src/token/RewardsGenerator.sol:RewardsGenerator",
            "label": "lastUpdateTime",
            "offset": 0,
            "slot": "0",
            "type": "t_uint40"
          },
          {
            "astId": 197,
            "contract": "src/token/RewardsGenerator.sol:RewardsGenerator",
            "label": "totalRewardPerPointAtLastUpdate",
            "offset": 5,
            "slot": "0",
            "type": "t_uint104"
          },
          {
            "astId": 199,
            "contract": "src/token/RewardsGenerator.sol:RewardsGenerator",
            "label": "totalPoints",
            "offset": 18,
            "slot": "0",
            "type": "t_uint112"
          }
        ],
        "numberOfBytes": "32"
      },
      "t_struct(SharedRatePerAccount)210_storage": {
        "encoding": "inplace",
        "label": "struct RewardsGenerator.SharedRatePerAccount",
        "members": [
          {
            "astId": 205,
            "contract": "src/token/RewardsGenerator.sol:RewardsGenerator",
            "label": "points",
            "offset": 0,
            "slot": "0",
            "type": "t_uint112"
          },
          {
            "astId": 207,
            "contract": "src/token/RewardsGenerator.sol:RewardsGenerator",
            "label": "totalRewardPerPointAccounted",
            "offset": 14,
            "slot": "0",
            "type": "t_uint104"
          },
          {
            "astId": 209,
            "contract": "src/token/RewardsGenerator.sol:RewardsGenerator",
            "label": "rewardsToWithdraw",
            "offset": 0,
            "slot": "1",
            "type": "t_uint112"
          }
        ],
        "numberOfBytes": "64"
      },
      "t_uint104": {
        "encoding": "inplace",
        "label": "uint104",
        "numberOfBytes": "13"
      },
      "t_uint112": {
        "encoding": "inplace",
        "label": "uint112",
        "numberOfBytes": "14"
      },
      "t_uint256": {
        "encoding": "inplace",
        "label": "uint256",
        "numberOfBytes": "32"
      },
      "t_uint40": {
        "encoding": "inplace",
        "label": "uint40",
        "numberOfBytes": "5"
      }
    }
  },
  "userdoc": {
    "errors": {
      "NonTransferable()": [
        {
          "notice": "Token cannot be transfered"
        }
      ],
      "NotAuthorized()": [
        {
          "notice": "Not authorized to perform this operation"
        }
      ]
    },
    "events": {
      "Approval(address,address,uint256)": {
        "notice": "trigger on approval amount being set.   Note that Transfer events need to be considered to compute the current allowance."
      },
      "Transfer(address,address,uint256)": {
        "notice": "trigger when tokens are transferred, including zero value transfers."
      }
    },
    "kind": "user",
    "methods": {
      "allowance(address,address)": {
        "notice": "Returns the amount which `spender` is still allowed to withdraw from `owner`."
      },
      "approve(address,uint256)": {
        "notice": "Allows `spender` to withdraw from your account multiple times, up to `amount`."
      },
      "balanceOf(address)": {
        "notice": "Returns the account balance of another account with address `owner`."
      },
      "claimFixedRewards(address)": {
        "notice": "claim the rewards earned so far using a fixed rate per point"
      },
      "claimSharedPoolRewards(address)": {
        "notice": "claim the rewards earned so far in the shared pool"
      },
      "decimals()": {
        "notice": "Returns the number of decimals the token uses."
      },
      "earnedFromFixedRate(address)": {
        "notice": "The amount of reward an account has accrued so far. Does not include already withdrawn rewards."
      },
      "earnedFromFixedRateMultipleAccounts(address[])": {
        "notice": "The amount of reward an account has accrued so far. Does not include already withdrawn rewards."
      },
      "earnedFromPoolRate(address)": {
        "notice": "The amount of reward an account has accrued so far. Does not include already withdrawn rewards."
      },
      "earnedFromPoolRateMultipleAccounts(address[])": {
        "notice": "The amount of reward an account has accrued so far. Does not include already withdrawn rewards."
      },
      "getTotalRewardPerPointWithPrecision24()": {
        "notice": "The amount of reward each point has earned so far"
      },
      "name()": {
        "notice": "Returns the name of the token."
      },
      "symbol()": {
        "notice": "Returns the symbol of the token."
      },
      "totalSupply()": {
        "notice": "Returns the total token supply."
      },
      "transfer(address,uint256)": {
        "notice": "Transfers `amount` of tokens to address `to`."
      },
      "transferFrom(address,address,uint256)": {
        "notice": "Transfers `amount` tokens from address `from` to address `to`."
      }
    },
    "version": 1
  },
  "argsData": "0x00000000000000000000000000000000000000000000000000000000000000000000000000000000000000000000000000000000000000000000000000000064000000000000000000000000000000000000000000000000000000000000000a00000000000000000000000000000000000000000000000000000000000000800000000000000000000000000000000000000000000000000000000000000000",
  "transaction": {
    "hash": "0x78531dab046b77bf7b427ef06913eafd65e72d370a088c83d7dc599423bfccba",
    "nonce": "0x6",
    "origin": "0x61c461ecc993aadeb7e4b47e96d1b8cc37314b20"
  }
}