{
  "address": "0x33a0d701f0619afb407963d6b7f9781dc40f9fcf",
  "abi": [
    {
      "inputs": [
        {
          "internalType": "contract IReward",
          "name": "rewardAddress",
          "type": "address"
        },
        {
          "components": [
            {
              "internalType": "uint256",
              "name": "rewardRateMillionth",
              "type": "uint256"
            },
            {
              "internalType": "uint256",
              "name": "fixedRewardRateThousandsMillionth",
              "type": "uint256"
            }
          ],
          "internalType": "struct RewardsGenerator.Config",
          "name": "config",
          "type": "tuple"
        },
        {
          "internalType": "address[]",
          "name": "initialGames",
          "type": "address[]"
        }
      ],
      "stateMutability": "nonpayable",
      "type": "constructor"
    },
    {
      "inputs": [],
      "name": "NonTransferable",
      "type": "error"
    },
    {
      "inputs": [],
      "name": "NotAuthorized",
      "type": "error"
    },
    {
      "anonymous": false,
      "inputs": [
        {
          "indexed": true,
          "internalType": "address",
          "name": "owner",
          "type": "address"
        },
        {
          "indexed": true,
          "internalType": "address",
          "name": "spender",
          "type": "address"
        },
        {
          "indexed": false,
          "internalType": "uint256",
          "name": "value",
          "type": "uint256"
        }
      ],
      "name": "Approval",
      "type": "event"
    },
    {
      "anonymous": false,
      "inputs": [
        {
          "indexed": true,
          "internalType": "address",
          "name": "game",
          "type": "address"
        },
        {
          "indexed": false,
          "internalType": "uint256",
          "name": "weight",
          "type": "uint256"
        },
        {
          "indexed": false,
          "internalType": "uint256",
          "name": "timestamp",
          "type": "uint256"
        }
      ],
      "name": "GameEnabled",
      "type": "event"
    },
    {
      "anonymous": false,
      "inputs": [
        {
          "indexed": true,
          "internalType": "address",
          "name": "from",
          "type": "address"
        },
        {
          "indexed": true,
          "internalType": "address",
          "name": "to",
          "type": "address"
        },
        {
          "indexed": false,
          "internalType": "uint256",
          "name": "value",
          "type": "uint256"
        }
      ],
      "name": "Transfer",
      "type": "event"
    },
    {
      "inputs": [],
      "name": "REWARD",
      "outputs": [
        {
          "internalType": "contract IReward",
          "name": "",
          "type": "address"
        }
      ],
      "stateMutability": "view",
      "type": "function"
    },
    {
      "inputs": [
        {
          "internalType": "address",
          "name": "account",
          "type": "address"
        },
        {
          "internalType": "uint256",
          "name": "amount",
          "type": "uint256"
        }
      ],
      "name": "add",
      "outputs": [],
      "stateMutability": "nonpayable",
      "type": "function"
    },
    {
      "inputs": [
        {
          "internalType": "address",
          "name": "",
          "type": "address"
        },
        {
          "internalType": "address",
          "name": "",
          "type": "address"
        }
      ],
      "name": "allowance",
      "outputs": [
        {
          "internalType": "uint256",
          "name": "",
          "type": "uint256"
        }
      ],
      "stateMutability": "pure",
      "type": "function"
    },
    {
      "inputs": [
        {
          "internalType": "address",
          "name": "",
          "type": "address"
        },
        {
          "internalType": "uint256",
          "name": "",
          "type": "uint256"
        }
      ],
      "name": "approve",
      "outputs": [
        {
          "internalType": "bool",
          "name": "",
          "type": "bool"
        }
      ],
      "stateMutability": "pure",
      "type": "function"
    },
    {
      "inputs": [
        {
          "internalType": "address",
          "name": "owner",
          "type": "address"
        }
      ],
      "name": "balanceOf",
      "outputs": [
        {
          "internalType": "uint256",
          "name": "",
          "type": "uint256"
        }
      ],
      "stateMutability": "view",
      "type": "function"
    },
    {
      "inputs": [
        {
          "internalType": "address",
          "name": "to",
          "type": "address"
        }
      ],
      "name": "claimFixedRewards",
      "outputs": [],
      "stateMutability": "nonpayable",
      "type": "function"
    },
    {
      "inputs": [
        {
          "internalType": "address",
          "name": "to",
          "type": "address"
        }
      ],
      "name": "claimSharedPoolRewards",
      "outputs": [],
      "stateMutability": "nonpayable",
      "type": "function"
    },
    {
      "inputs": [],
      "name": "decimals",
      "outputs": [
        {
          "internalType": "uint8",
          "name": "",
          "type": "uint8"
        }
      ],
      "stateMutability": "pure",
      "type": "function"
    },
    {
      "inputs": [
        {
          "internalType": "address",
          "name": "account",
          "type": "address"
        }
      ],
      "name": "earnedFromFixedRate",
      "outputs": [
        {
          "internalType": "uint256",
          "name": "",
          "type": "uint256"
        }
      ],
      "stateMutability": "view",
      "type": "function"
    },
    {
      "inputs": [
        {
          "internalType": "address[]",
          "name": "accounts",
          "type": "address[]"
        }
      ],
      "name": "earnedFromFixedRateMultipleAccounts",
      "outputs": [
        {
          "internalType": "uint256[]",
          "name": "result",
          "type": "uint256[]"
        }
      ],
      "stateMutability": "view",
      "type": "function"
    },
    {
      "inputs": [
        {
          "internalType": "address",
          "name": "account",
          "type": "address"
        }
      ],
      "name": "earnedFromPoolRate",
      "outputs": [
        {
          "internalType": "uint256",
          "name": "",
          "type": "uint256"
        }
      ],
      "stateMutability": "view",
      "type": "function"
    },
    {
      "inputs": [
        {
          "internalType": "address[]",
          "name": "accounts",
          "type": "address[]"
        }
      ],
      "name": "earnedFromPoolRateMultipleAccounts",
      "outputs": [
        {
          "internalType": "uint256[]",
          "name": "result",
          "type": "uint256[]"
        }
      ],
      "stateMutability": "view",
      "type": "function"
    },
    {
      "inputs": [
        {
          "internalType": "address",
          "name": "game",
          "type": "address"
        },
        {
          "internalType": "uint256",
          "name": "weight",
          "type": "uint256"
        }
      ],
      "name": "enableGame",
      "outputs": [],
      "stateMutability": "nonpayable",
      "type": "function"
    },
    {
      "inputs": [
        {
          "internalType": "address",
          "name": "",
          "type": "address"
        }
      ],
      "name": "games",
      "outputs": [
        {
          "internalType": "uint256",
          "name": "",
          "type": "uint256"
        }
      ],
      "stateMutability": "view",
      "type": "function"
    },
    {
      "inputs": [],
      "name": "getTotalRewardPerPointWithPrecision24",
      "outputs": [
        {
          "internalType": "uint256",
          "name": "",
          "type": "uint256"
        }
      ],
      "stateMutability": "view",
      "type": "function"
    },
    {
      "inputs": [
        {
          "internalType": "address",
          "name": "from",
          "type": "address"
        },
        {
          "internalType": "address",
          "name": "to",
          "type": "address"
        },
        {
          "internalType": "uint256",
          "name": "amount",
          "type": "uint256"
        }
      ],
      "name": "move",
      "outputs": [],
      "stateMutability": "nonpayable",
      "type": "function"
    },
    {
      "inputs": [],
      "name": "name",
      "outputs": [
        {
          "internalType": "string",
          "name": "",
          "type": "string"
        }
      ],
      "stateMutability": "pure",
      "type": "function"
    },
    {
      "inputs": [
        {
          "internalType": "contract IReward",
          "name": "rewardAddress",
          "type": "address"
        },
        {
          "components": [
            {
              "internalType": "uint256",
              "name": "rewardRateMillionth",
              "type": "uint256"
            },
            {
              "internalType": "uint256",
              "name": "fixedRewardRateThousandsMillionth",
              "type": "uint256"
            }
          ],
          "internalType": "struct RewardsGenerator.Config",
          "name": "config",
          "type": "tuple"
        },
        {
          "internalType": "address[]",
          "name": "initialGames",
          "type": "address[]"
        }
      ],
      "name": "postUpgrade",
      "outputs": [],
      "stateMutability": "nonpayable",
      "type": "function"
    },
    {
      "inputs": [
        {
          "internalType": "address",
          "name": "account",
          "type": "address"
        },
        {
          "internalType": "uint256",
          "name": "amount",
          "type": "uint256"
        }
      ],
      "name": "remove",
      "outputs": [],
      "stateMutability": "nonpayable",
      "type": "function"
    },
    {
      "inputs": [],
      "name": "symbol",
      "outputs": [
        {
          "internalType": "string",
          "name": "",
          "type": "string"
        }
      ],
      "stateMutability": "view",
      "type": "function"
    },
    {
      "inputs": [],
      "name": "totalSupply",
      "outputs": [
        {
          "internalType": "uint256",
          "name": "",
          "type": "uint256"
        }
      ],
      "stateMutability": "view",
      "type": "function"
    },
    {
      "inputs": [
        {
          "internalType": "address",
          "name": "",
          "type": "address"
        },
        {
          "internalType": "uint256",
          "name": "",
          "type": "uint256"
        }
      ],
      "name": "transfer",
      "outputs": [
        {
          "internalType": "bool",
          "name": "",
          "type": "bool"
        }
      ],
      "stateMutability": "pure",
      "type": "function"
    },
    {
      "inputs": [
        {
          "internalType": "address",
          "name": "",
          "type": "address"
        },
        {
          "internalType": "address",
          "name": "",
          "type": "address"
        },
        {
          "internalType": "uint256",
          "name": "",
          "type": "uint256"
        }
      ],
      "name": "transferFrom",
      "outputs": [
        {
          "internalType": "bool",
          "name": "",
          "type": "bool"
        }
      ],
      "stateMutability": "pure",
      "type": "function"
    },
    {
      "inputs": [],
      "name": "update",
      "outputs": [],
      "stateMutability": "nonpayable",
      "type": "function"
    }
  ],
  "contractName": "RewardsGenerator",
  "sourceName": "src/token/RewardsGenerator.sol",
  "linkReferences": {},
  "deployedLinkReferences": {},
  "devdoc": {
    "events": {
      "Approval(address,address,uint256)": {
        "params": {
          "owner": "the account approving the `spender`",
          "spender": "the account allowed to spend",
          "value": "the amount granted"
        }
      },
      "Transfer(address,address,uint256)": {
        "params": {
          "from": "the account the tokens are sent from",
          "to": "the account the tokens are sent to",
          "value": "number of tokens sent"
        }
      }
    },
    "kind": "dev",
    "methods": {},
    "version": 1
  },
  "evm": {
    "bytecode": {
      "linkReferences": {},
      "object": "604060e0815234620001465762001a07803803806200001e8162000161565b928339810181810360808112620001465782516001600160a01b03929091908383168303620001465785602092601f19011262000146578551936001600160401b03858801818111878210176200014b578852838701518652878701519684870197885260608101519082821162000146570183601f82011215620001465780519182116200014b5784808360051b93620000bb82860162000161565b908152019282010193841162000146578401905b8382106200012c57505050505060c052516080525160a0525161187f9081620001888239608051818181610a800152818161135701526113fc015260a051816112c0015260c05181818161017c015281816106b70152610ce80152f35b8151838116810362000146578152908401908401620000cf565b600080fd5b634e487b7160e01b600052604160045260246000fd5b6040519190601f01601f191682016001600160401b038111838210176200014b5760405256fe60806040908082526004918236101561001757600080fd5b600091823560e01c908163066112f914610c955750806306fdde0314610c23578063095ea7b3146107b657806316cf09f814610b6257806318160ddd14610b2557806323b872dd14610aeb578063313ce56714610ab25780634848338214610a2f57806359d431b3146109db57806370a082311461096a57806379131a19146109095780637997f96d146108b057806395d89b411461083a578063a2e62045146107fe578063a8671f6a146107bb578063a9059cbb146107b6578063abe7f1ab1461075f578063b061963c14610715578063bb35783b146106db578063cab34c081461066d578063cee2960b14610448578063dd62ed3e146103e2578063f5d82b6b1461035e5763ff1e03e91461012d57600080fd5b3461035a5760207ffffffffffffffffffffffffffffffffffffffffffffffffffffffffffffffffc36011261035a57610164610e23565b9073ffffffffffffffffffffffffffffffffffffffff7f00000000000000000000000000000000000000000000000000000000000000001680156103325793839433855260016020526dffffffffffffffffffffffffffff9081848720541661025e6102036101d16113e2565b939050338a52600160205283888b20916cffffffffffffffffffffffffff97600189855460701c169401541692611561565b933389526001602052868920921682907fffffffffff00000000000000000000000000ffffffffffffffffffffffffffff7affffffffffffffffffffffffff000000000000000000000000000083549260701b169116179055565b82610267578680f35b6001017fffffffffffffffffffffffffffffffffffff00000000000000000000000000008154169055803b1561032e576102f4948680948651978895869485937f21670f2200000000000000000000000000000000000000000000000000000000855284016020909392919373ffffffffffffffffffffffffffffffffffffffff60408201951681520152565b03925af1908115610325575061030e575b80808080808680f35b61031790611015565b610322578038610305565b80fd5b513d84823e3d90fd5b8580fd5b8482517fea8e4eb5000000000000000000000000000000000000000000000000000000008152fd5b5080fd5b5082346103de57817ffffffffffffffffffffffffffffffffffffffffffffffffffffffffffffffffc3601126103de57610396610e23565b91338452600360205280842054156103b857836103b5602435856115a2565b80f35b517fea8e4eb5000000000000000000000000000000000000000000000000000000008152fd5b8280fd5b50903461032257817ffffffffffffffffffffffffffffffffffffffffffffffffffffffffffffffffc3601126103225761041a610e23565b5060243573ffffffffffffffffffffffffffffffffffffffff8116036104435760209151908152f35b600080fd5b5082346103de5760807ffffffffffffffffffffffffffffffffffffffffffffffffffffffffffffffffc3601126103de5773ffffffffffffffffffffffffffffffffffffffff81358181160361066957827fffffffffffffffffffffffffffffffffffffffffffffffffffffffffffffffdc3601126106695782519067ffffffffffffffff8285018181118482101761063b578552602435835260443560209384015260643590811161032e573660238201121561032e57808401359061050e826110b5565b9161051b87519384611074565b80835260248584019160051b8301019136831161063757602401905b82821061061f5750505061056f827fb53127684a568b3173ae13b9f8a6016e243e63b6e8ee1178d6a717850b5d6103541633146110cd565b60ff8454161561057d578580f35b9091929394805b82518110156105e757808461059b6001938661121d565b511680600052600387527f50b08f8489c009db3c1b3f160cc0dae1c0c6706774750c001e4c083f9483d5f389670de0b6b3a76400008082600020558151908152428a820152a201610584565b50945050505060017fffffffffffffffffffffffffffffffffffffffffffffffffffffffffffffff0082541617905581808080808580f35b81358581168103610443578152908501908501610537565b8880fd5b6041857f4e487b71000000000000000000000000000000000000000000000000000000006000525260246000fd5b8380fd5b503461035a57817ffffffffffffffffffffffffffffffffffffffffffffffffffffffffffffffffc36011261035a576020905173ffffffffffffffffffffffffffffffffffffffff7f0000000000000000000000000000000000000000000000000000000000000000168152f35b50913461035a576106eb36610f0e565b92909194338552600360205280852054156103b8575050610710826103b5949561147f565b6115a2565b503461035a5760207ffffffffffffffffffffffffffffffffffffffffffffffffffffffffffffffffc36011261035a57602090610758610753610e23565b6112fa565b9051908152f35b5082346103de57817ffffffffffffffffffffffffffffffffffffffffffffffffffffffffffffffffc3601126103de57610797610e23565b91338452600360205280842054156103b857836103b56024358561147f565b610eac565b503461035a5760207ffffffffffffffffffffffffffffffffffffffffffffffffffffffffffffffffc36011261035a576020906107586107f9610e23565b611251565b823461032257807ffffffffffffffffffffffffffffffffffffffffffffffffffffffffffffffffc360112610322576108356113e2565b505080f35b503461035a57817ffffffffffffffffffffffffffffffffffffffffffffffffffffffffffffffffc36011261035a5780516108ac9161087882611058565b600582527f504f494e5400000000000000000000000000000000000000000000000000000060208301525191829182610e46565b0390f35b509034610322576108c036610f6e565b6108c98161116e565b925b8181106108df578451806108ac8682610fd9565b806108f86107f96108f360019486886111bd565b6111fc565b610902828761121d565b52016108cb565b503461035a5760207ffffffffffffffffffffffffffffffffffffffffffffffffffffffffffffffffc36011261035a578060209273ffffffffffffffffffffffffffffffffffffffff61095a610e23565b1681526003845220549051908152f35b503461035a5760207ffffffffffffffffffffffffffffffffffffffffffffffffffffffffffffffffc36011261035a576dffffffffffffffffffffffffffff8160209373ffffffffffffffffffffffffffffffffffffffff6109ca610e23565b168152600185522054169051908152f35b509034610322576109eb36610f6e565b6109f48161116e565b925b818110610a0a578451806108ac8682610fd9565b80610a1e6107536108f360019486886111bd565b610a28828761121d565b52016109f6565b503461035a57817ffffffffffffffffffffffffffffffffffffffffffffffffffffffffffffffffc36011261035a57610758602092546cffffffffffffffffffffffffff610aa864ffffffffff83167f00000000000000000000000000000000000000000000000000000000000000008460901c6113a0565b9160281c16611132565b503461035a57817ffffffffffffffffffffffffffffffffffffffffffffffffffffffffffffffffc36011261035a576020905160128152f35b5090346103225750610afc36610f0e565b505050517f9cbe2357000000000000000000000000000000000000000000000000000000008152fd5b503461035a57817ffffffffffffffffffffffffffffffffffffffffffffffffffffffffffffffffc36011261035a576020915460901c9051908152f35b503461035a57807ffffffffffffffffffffffffffffffffffffffffffffffffffffffffffffffffc36011261035a577f50b08f8489c009db3c1b3f160cc0dae1c0c6706774750c001e4c083f9483d5f3610bba610e23565b916024359273ffffffffffffffffffffffffffffffffffffffff90610c03827fb53127684a568b3173ae13b9f8a6016e243e63b6e8ee1178d6a717850b5d6103541633146110cd565b16928360005260036020528082600020558151908152426020820152a280f35b503461035a57817ffffffffffffffffffffffffffffffffffffffffffffffffffffffffffffffffc36011261035a5780516108ac91610c6182611058565b600682527f506f696e7473000000000000000000000000000000000000000000000000000060208301525191829182610e46565b84929150346106695760207ffffffffffffffffffffffffffffffffffffffffffffffffffffffffffffffffc36011261066957610cd0610e23565b9073ffffffffffffffffffffffffffffffffffffffff7f000000000000000000000000000000000000000000000000000000000000000016908115610dfc5750908491610d1c33611251565b9182610d26578380f35b338452600260205284842080547fffffffffffffffffffffffffff000000000000000000000000000000000000001672ffffffffff00000000000000000000000000004260701b16179055813b156106695783610dd3968651978895869485937f21670f2200000000000000000000000000000000000000000000000000000000855284016020909392919373ffffffffffffffffffffffffffffffffffffffff60408201951681520152565b03925af19081156103255750610ded575b80828180808380f35b610df690611015565b81610de4565b807fea8e4eb500000000000000000000000000000000000000000000000000000000869252fd5b6004359073ffffffffffffffffffffffffffffffffffffffff8216820361044357565b60208082528251818301819052939260005b858110610e98575050507fffffffffffffffffffffffffffffffffffffffffffffffffffffffffffffffe0601f8460006040809697860101520116010190565b818101830151848201604001528201610e58565b346104435760407ffffffffffffffffffffffffffffffffffffffffffffffffffffffffffffffffc36011261044357610ee3610e23565b5060046040517f9cbe2357000000000000000000000000000000000000000000000000000000008152fd5b7ffffffffffffffffffffffffffffffffffffffffffffffffffffffffffffffffc60609101126104435773ffffffffffffffffffffffffffffffffffffffff90600435828116810361044357916024359081168103610443579060443590565b9060207ffffffffffffffffffffffffffffffffffffffffffffffffffffffffffffffffc8301126104435760043567ffffffffffffffff9283821161044357806023830112156104435781600401359384116104435760248460051b83010111610443576024019190565b602090602060408183019282815285518094520193019160005b828110611001575050505090565b835185529381019392810192600101610ff3565b67ffffffffffffffff811161102957604052565b7f4e487b7100000000000000000000000000000000000000000000000000000000600052604160045260246000fd5b6040810190811067ffffffffffffffff82111761102957604052565b90601f7fffffffffffffffffffffffffffffffffffffffffffffffffffffffffffffffe0910116810190811067ffffffffffffffff82111761102957604052565b67ffffffffffffffff81116110295760051b60200190565b156110d457565b60646040517f08c379a000000000000000000000000000000000000000000000000000000000815260206004820152600e60248201527f4e4f545f415554484f52495a45440000000000000000000000000000000000006044820152fd5b9190820180921161113f57565b7f4e487b7100000000000000000000000000000000000000000000000000000000600052601160045260246000fd5b90611178826110b5565b6111856040519182611074565b8281527fffffffffffffffffffffffffffffffffffffffffffffffffffffffffffffffe06111b382946110b5565b0190602036910137565b91908110156111cd5760051b0190565b7f4e487b7100000000000000000000000000000000000000000000000000000000600052603260045260246000fd5b3573ffffffffffffffffffffffffffffffffffffffff811681036104435790565b80518210156111cd5760209160051b010190565b9190820391821161113f57565b8181029291811591840414171561113f57565b73ffffffffffffffffffffffffffffffffffffffff6112f7911660008181526002602052604061128e64ffffffffff8284205460701c1642611231565b918381526001602052633b9aca006112e56112be6dffffffffffffffffffffffffffff958686862054169061123e565b7f00000000000000000000000000000000000000000000000000000000000000009061123e565b04938152600260205220541690611132565b90565b73ffffffffffffffffffffffffffffffffffffffff6112f79116806000526001602052604060002054906cffffffffffffffffffffffffff916dffffffffffffffffffffffffffff9261137f60005482610aa864ffffffffff83167f00000000000000000000000000000000000000000000000000000000000000008460901c6113a0565b92600052600160205283600160406000200154169382169160701c16611561565b919082156113da576113b56113ba9242611231565b61123e565b69d3c21bcecceda10000009081810291818304149015171561113f570490565b505050600090565b6000548060901c9164ffffffffff916114396114218483167f0000000000000000000000000000000000000000000000000000000000000000876113a0565b6cffffffffffffffffffffffffff8360281c16611132565b924216907fffffffffffffffffffffffffffff00000000000000000000000000000000000071ffffffffffffffffffffffffff00000000008560281b1691161717600055565b811561155d577fddf252ad1be2c89b69c2b068fc378daa952ba7f163c4a11628f55a4df523b3ef602060009373ffffffffffffffffffffffffffffffffffffffff6114c985611681565b959071ffffffffffffffffffffffffffffffffffff7fffffffffffffffffffffffffffff000000000000000000000000000000000000858a54930360901b1691161787551693848652600183526dffffffffffffffffffffffffffff82604088209203167fffffffffffffffffffffffffffffffffffff0000000000000000000000000000825416179055604051908152a3565b5050565b61156e9061157493611231565b9061123e565b9064e8d4a510009182810292818404149015171561113f5769d3c21bcecceda10000006112f7920490611132565b90801561155d577fddf252ad1be2c89b69c2b068fc378daa952ba7f163c4a11628f55a4df523b3ef602060009273ffffffffffffffffffffffffffffffffffffffff6115ed86611681565b969071ffffffffffffffffffffffffffffffffffff7fffffffffffffffffffffffffffff000000000000000000000000000000000000858954930160901b1691161786551694858552600183526dffffffffffffffffffffffffffff82604087209201167fffffffffffffffffffffffffffffffffffff0000000000000000000000000000825416179055604051908152a3565b9073ffffffffffffffffffffffffffffffffffffffff916116a06113e2565b93909116600090808252600160205260016116f561177d604085209788546dffffffffffffffffffffffffffff93818386809416809d856cffffffffffffffffffffffffff9a8b920154169360701c16611561565b169385875260016020526040872091600183017fffffffffffffffffffffffffffffffffffff00000000000000000000000000009687825416179055167fffffffffff00000000000000000000000000ffffffffffffffffffffffffffff7affffffffffffffffffffffffff000000000000000000000000000083549260701b169116179055565b600260205264ffffffffff93633b9aca006117a86112be8a6113b589604087205460701c1642611231565b0493815260026020526118006040822095421686907fffffffffffffffffffffffffff0000000000ffffffffffffffffffffffffffff72ffffffffff000000000000000000000000000083549260701b169116179055565b8185549416828516019082821161181c57501691161790559190565b807f4e487b7100000000000000000000000000000000000000000000000000000000602492526011600452fdfea26469706673582212200f1b4bb332a3e26da31a88d1fa45fff0a97c946952ffd70f0917076d91927ea564736f6c63430008180033",
      "opcodes": "PUSH1 0x40 PUSH1 0xE0 DUP2 MSTORE CALLVALUE PUSH3 0x146 JUMPI PUSH3 0x1A07 DUP1 CODESIZE SUB DUP1 PUSH3 0x1E DUP2 PUSH3 0x161 JUMP JUMPDEST SWAP3 DUP4 CODECOPY DUP2 ADD DUP2 DUP2 SUB PUSH1 0x80 DUP2 SLT PUSH3 0x146 JUMPI DUP3 MLOAD PUSH1 0x1 PUSH1 0x1 PUSH1 0xA0 SHL SUB SWAP3 SWAP1 SWAP2 SWAP1 DUP4 DUP4 AND DUP4 SUB PUSH3 0x146 JUMPI DUP6 PUSH1 0x20 SWAP3 PUSH1 0x1F NOT ADD SLT PUSH3 0x146 JUMPI DUP6 MLOAD SWAP4 PUSH1 0x1 PUSH1 0x1 PUSH1 0x40 SHL SUB DUP6 DUP9 ADD DUP2 DUP2 GT DUP8 DUP3 LT OR PUSH3 0x14B JUMPI DUP9 MSTORE DUP4 DUP8 ADD MLOAD DUP7 MSTORE DUP8 DUP8 ADD MLOAD SWAP7 DUP5 DUP8 ADD SWAP8 DUP9 MSTORE PUSH1 0x60 DUP2 ADD MLOAD SWAP1 DUP3 DUP3 GT PUSH3 0x146 JUMPI ADD DUP4 PUSH1 0x1F DUP3 ADD SLT ISZERO PUSH3 0x146 JUMPI DUP1 MLOAD SWAP2 DUP3 GT PUSH3 0x14B JUMPI DUP5 DUP1 DUP4 PUSH1 0x5 SHL SWAP4 PUSH3 0xBB DUP3 DUP7 ADD PUSH3 0x161 JUMP JUMPDEST SWAP1 DUP2 MSTORE ADD SWAP3 DUP3 ADD ADD SWAP4 DUP5 GT PUSH3 0x146 JUMPI DUP5 ADD SWAP1 JUMPDEST DUP4 DUP3 LT PUSH3 0x12C JUMPI POP POP POP POP POP PUSH1 0xC0 MSTORE MLOAD PUSH1 0x80 MSTORE MLOAD PUSH1 0xA0 MSTORE MLOAD PUSH2 0x187F SWAP1 DUP2 PUSH3 0x188 DUP3 CODECOPY PUSH1 0x80 MLOAD DUP2 DUP2 DUP2 PUSH2 0xA80 ADD MSTORE DUP2 DUP2 PUSH2 0x1357 ADD MSTORE PUSH2 0x13FC ADD MSTORE PUSH1 0xA0 MLOAD DUP2 PUSH2 0x12C0 ADD MSTORE PUSH1 0xC0 MLOAD DUP2 DUP2 DUP2 PUSH2 0x17C ADD MSTORE DUP2 DUP2 PUSH2 0x6B7 ADD MSTORE PUSH2 0xCE8 ADD MSTORE RETURN JUMPDEST DUP2 MLOAD DUP4 DUP2 AND DUP2 SUB PUSH3 0x146 JUMPI DUP2 MSTORE SWAP1 DUP5 ADD SWAP1 DUP5 ADD PUSH3 0xCF JUMP JUMPDEST PUSH1 0x0 DUP1 REVERT JUMPDEST PUSH4 0x4E487B71 PUSH1 0xE0 SHL PUSH1 0x0 MSTORE PUSH1 0x41 PUSH1 0x4 MSTORE PUSH1 0x24 PUSH1 0x0 REVERT JUMPDEST PUSH1 0x40 MLOAD SWAP2 SWAP1 PUSH1 0x1F ADD PUSH1 0x1F NOT AND DUP3 ADD PUSH1 0x1 PUSH1 0x1 PUSH1 0x40 SHL SUB DUP2 GT DUP4 DUP3 LT OR PUSH3 0x14B JUMPI PUSH1 0x40 MSTORE JUMP INVALID PUSH1 0x80 PUSH1 0x40 SWAP1 DUP1 DUP3 MSTORE PUSH1 0x4 SWAP2 DUP3 CALLDATASIZE LT ISZERO PUSH2 0x17 JUMPI PUSH1 0x0 DUP1 REVERT JUMPDEST PUSH1 0x0 SWAP2 DUP3 CALLDATALOAD PUSH1 0xE0 SHR SWAP1 DUP2 PUSH4 0x66112F9 EQ PUSH2 0xC95 JUMPI POP DUP1 PUSH4 0x6FDDE03 EQ PUSH2 0xC23 JUMPI DUP1 PUSH4 0x95EA7B3 EQ PUSH2 0x7B6 JUMPI DUP1 PUSH4 0x16CF09F8 EQ PUSH2 0xB62 JUMPI DUP1 PUSH4 0x18160DDD EQ PUSH2 0xB25 JUMPI DUP1 PUSH4 0x23B872DD EQ PUSH2 0xAEB JUMPI DUP1 PUSH4 0x313CE567 EQ PUSH2 0xAB2 JUMPI DUP1 PUSH4 0x48483382 EQ PUSH2 0xA2F JUMPI DUP1 PUSH4 0x59D431B3 EQ PUSH2 0x9DB JUMPI DUP1 PUSH4 0x70A08231 EQ PUSH2 0x96A JUMPI DUP1 PUSH4 0x79131A19 EQ PUSH2 0x909 JUMPI DUP1 PUSH4 0x7997F96D EQ PUSH2 0x8B0 JUMPI DUP1 PUSH4 0x95D89B41 EQ PUSH2 0x83A JUMPI DUP1 PUSH4 0xA2E62045 EQ PUSH2 0x7FE JUMPI DUP1 PUSH4 0xA8671F6A EQ PUSH2 0x7BB JUMPI DUP1 PUSH4 0xA9059CBB EQ PUSH2 0x7B6 JUMPI DUP1 PUSH4 0xABE7F1AB EQ PUSH2 0x75F JUMPI DUP1 PUSH4 0xB061963C EQ PUSH2 0x715 JUMPI DUP1 PUSH4 0xBB35783B EQ PUSH2 0x6DB JUMPI DUP1 PUSH4 0xCAB34C08 EQ PUSH2 0x66D JUMPI DUP1 PUSH4 0xCEE2960B EQ PUSH2 0x448 JUMPI DUP1 PUSH4 0xDD62ED3E EQ PUSH2 0x3E2 JUMPI DUP1 PUSH4 0xF5D82B6B EQ PUSH2 0x35E JUMPI PUSH4 0xFF1E03E9 EQ PUSH2 0x12D JUMPI PUSH1 0x0 DUP1 REVERT JUMPDEST CALLVALUE PUSH2 0x35A JUMPI PUSH1 0x20 PUSH32 0xFFFFFFFFFFFFFFFFFFFFFFFFFFFFFFFFFFFFFFFFFFFFFFFFFFFFFFFFFFFFFFFC CALLDATASIZE ADD SLT PUSH2 0x35A JUMPI PUSH2 0x164 PUSH2 0xE23 JUMP JUMPDEST SWAP1 PUSH20 0xFFFFFFFFFFFFFFFFFFFFFFFFFFFFFFFFFFFFFFFF PUSH32 0x0 AND DUP1 ISZERO PUSH2 0x332 JUMPI SWAP4 DUP4 SWAP5 CALLER DUP6 MSTORE PUSH1 0x1 PUSH1 0x20 MSTORE PUSH14 0xFFFFFFFFFFFFFFFFFFFFFFFFFFFF SWAP1 DUP2 DUP5 DUP8 KECCAK256 SLOAD AND PUSH2 0x25E PUSH2 0x203 PUSH2 0x1D1 PUSH2 0x13E2 JUMP JUMPDEST SWAP4 SWAP1 POP CALLER DUP11 MSTORE PUSH1 0x1 PUSH1 0x20 MSTORE DUP4 DUP9 DUP12 KECCAK256 SWAP2 PUSH13 0xFFFFFFFFFFFFFFFFFFFFFFFFFF SWAP8 PUSH1 0x1 DUP10 DUP6 SLOAD PUSH1 0x70 SHR AND SWAP5 ADD SLOAD AND SWAP3 PUSH2 0x1561 JUMP JUMPDEST SWAP4 CALLER DUP10 MSTORE PUSH1 0x1 PUSH1 0x20 MSTORE DUP7 DUP10 KECCAK256 SWAP3 AND DUP3 SWAP1 PUSH32 0xFFFFFFFFFF00000000000000000000000000FFFFFFFFFFFFFFFFFFFFFFFFFFFF PUSH27 0xFFFFFFFFFFFFFFFFFFFFFFFFFF0000000000000000000000000000 DUP4 SLOAD SWAP3 PUSH1 0x70 SHL AND SWAP2 AND OR SWAP1 SSTORE JUMP JUMPDEST DUP3 PUSH2 0x267 JUMPI DUP7 DUP1 RETURN JUMPDEST PUSH1 0x1 ADD PUSH32 0xFFFFFFFFFFFFFFFFFFFFFFFFFFFFFFFFFFFF0000000000000000000000000000 DUP2 SLOAD AND SWAP1 SSTORE DUP1 EXTCODESIZE ISZERO PUSH2 0x32E JUMPI PUSH2 0x2F4 SWAP5 DUP7 DUP1 SWAP5 DUP7 MLOAD SWAP8 DUP9 SWAP6 DUP7 SWAP5 DUP6 SWAP4 PUSH32 0x21670F2200000000000000000000000000000000000000000000000000000000 DUP6 MSTORE DUP5 ADD PUSH1 0x20 SWAP1 SWAP4 SWAP3 SWAP2 SWAP4 PUSH20 0xFFFFFFFFFFFFFFFFFFFFFFFFFFFFFFFFFFFFFFFF PUSH1 0x40 DUP3 ADD SWAP6 AND DUP2 MSTORE ADD MSTORE JUMP JUMPDEST SUB SWAP3 GAS CALL SWAP1 DUP2 ISZERO PUSH2 0x325 JUMPI POP PUSH2 0x30E JUMPI JUMPDEST DUP1 DUP1 DUP1 DUP1 DUP1 DUP7 DUP1 RETURN JUMPDEST PUSH2 0x317 SWAP1 PUSH2 0x1015 JUMP JUMPDEST PUSH2 0x322 JUMPI DUP1 CODESIZE PUSH2 0x305 JUMP JUMPDEST DUP1 REVERT JUMPDEST MLOAD RETURNDATASIZE DUP5 DUP3 RETURNDATACOPY RETURNDATASIZE SWAP1 REVERT JUMPDEST DUP6 DUP1 REVERT JUMPDEST DUP5 DUP3 MLOAD PUSH32 0xEA8E4EB500000000000000000000000000000000000000000000000000000000 DUP2 MSTORE REVERT JUMPDEST POP DUP1 REVERT JUMPDEST POP DUP3 CALLVALUE PUSH2 0x3DE JUMPI DUP2 PUSH32 0xFFFFFFFFFFFFFFFFFFFFFFFFFFFFFFFFFFFFFFFFFFFFFFFFFFFFFFFFFFFFFFFC CALLDATASIZE ADD SLT PUSH2 0x3DE JUMPI PUSH2 0x396 PUSH2 0xE23 JUMP JUMPDEST SWAP2 CALLER DUP5 MSTORE PUSH1 0x3 PUSH1 0x20 MSTORE DUP1 DUP5 KECCAK256 SLOAD ISZERO PUSH2 0x3B8 JUMPI DUP4 PUSH2 0x3B5 PUSH1 0x24 CALLDATALOAD DUP6 PUSH2 0x15A2 JUMP JUMPDEST DUP1 RETURN JUMPDEST MLOAD PUSH32 0xEA8E4EB500000000000000000000000000000000000000000000000000000000 DUP2 MSTORE REVERT JUMPDEST DUP3 DUP1 REVERT JUMPDEST POP SWAP1 CALLVALUE PUSH2 0x322 JUMPI DUP2 PUSH32 0xFFFFFFFFFFFFFFFFFFFFFFFFFFFFFFFFFFFFFFFFFFFFFFFFFFFFFFFFFFFFFFFC CALLDATASIZE ADD SLT PUSH2 0x322 JUMPI PUSH2 0x41A PUSH2 0xE23 JUMP JUMPDEST POP PUSH1 0x24 CALLDATALOAD PUSH20 0xFFFFFFFFFFFFFFFFFFFFFFFFFFFFFFFFFFFFFFFF DUP2 AND SUB PUSH2 0x443 JUMPI PUSH1 0x20 SWAP2 MLOAD SWAP1 DUP2 MSTORE RETURN JUMPDEST PUSH1 0x0 DUP1 REVERT JUMPDEST POP DUP3 CALLVALUE PUSH2 0x3DE JUMPI PUSH1 0x80 PUSH32 0xFFFFFFFFFFFFFFFFFFFFFFFFFFFFFFFFFFFFFFFFFFFFFFFFFFFFFFFFFFFFFFFC CALLDATASIZE ADD SLT PUSH2 0x3DE JUMPI PUSH20 0xFFFFFFFFFFFFFFFFFFFFFFFFFFFFFFFFFFFFFFFF DUP2 CALLDATALOAD DUP2 DUP2 AND SUB PUSH2 0x669 JUMPI DUP3 PUSH32 0xFFFFFFFFFFFFFFFFFFFFFFFFFFFFFFFFFFFFFFFFFFFFFFFFFFFFFFFFFFFFFFDC CALLDATASIZE ADD SLT PUSH2 0x669 JUMPI DUP3 MLOAD SWAP1 PUSH8 0xFFFFFFFFFFFFFFFF DUP3 DUP6 ADD DUP2 DUP2 GT DUP5 DUP3 LT OR PUSH2 0x63B JUMPI DUP6 MSTORE PUSH1 0x24 CALLDATALOAD DUP4 MSTORE PUSH1 0x44 CALLDATALOAD PUSH1 0x20 SWAP4 DUP5 ADD MSTORE PUSH1 0x64 CALLDATALOAD SWAP1 DUP2 GT PUSH2 0x32E JUMPI CALLDATASIZE PUSH1 0x23 DUP3 ADD SLT ISZERO PUSH2 0x32E JUMPI DUP1 DUP5 ADD CALLDATALOAD SWAP1 PUSH2 0x50E DUP3 PUSH2 0x10B5 JUMP JUMPDEST SWAP2 PUSH2 0x51B DUP8 MLOAD SWAP4 DUP5 PUSH2 0x1074 JUMP JUMPDEST DUP1 DUP4 MSTORE PUSH1 0x24 DUP6 DUP5 ADD SWAP2 PUSH1 0x5 SHL DUP4 ADD ADD SWAP2 CALLDATASIZE DUP4 GT PUSH2 0x637 JUMPI PUSH1 0x24 ADD SWAP1 JUMPDEST DUP3 DUP3 LT PUSH2 0x61F JUMPI POP POP POP PUSH2 0x56F DUP3 PUSH32 0xB53127684A568B3173AE13B9F8A6016E243E63B6E8EE1178D6A717850B5D6103 SLOAD AND CALLER EQ PUSH2 0x10CD JUMP JUMPDEST PUSH1 0xFF DUP5 SLOAD AND ISZERO PUSH2 0x57D JUMPI DUP6 DUP1 RETURN JUMPDEST SWAP1 SWAP2 SWAP3 SWAP4 SWAP5 DUP1 JUMPDEST DUP3 MLOAD DUP2 LT ISZERO PUSH2 0x5E7 JUMPI DUP1 DUP5 PUSH2 0x59B PUSH1 0x1 SWAP4 DUP7 PUSH2 0x121D JUMP JUMPDEST MLOAD AND DUP1 PUSH1 0x0 MSTORE PUSH1 0x3 DUP8 MSTORE PUSH32 0x50B08F8489C009DB3C1B3F160CC0DAE1C0C6706774750C001E4C083F9483D5F3 DUP10 PUSH8 0xDE0B6B3A7640000 DUP1 DUP3 PUSH1 0x0 KECCAK256 SSTORE DUP2 MLOAD SWAP1 DUP2 MSTORE TIMESTAMP DUP11 DUP3 ADD MSTORE LOG2 ADD PUSH2 0x584 JUMP JUMPDEST POP SWAP5 POP POP POP POP PUSH1 0x1 PUSH32 0xFFFFFFFFFFFFFFFFFFFFFFFFFFFFFFFFFFFFFFFFFFFFFFFFFFFFFFFFFFFFFF00 DUP3 SLOAD AND OR SWAP1 SSTORE DUP2 DUP1 DUP1 DUP1 DUP1 DUP6 DUP1 RETURN JUMPDEST DUP2 CALLDATALOAD DUP6 DUP2 AND DUP2 SUB PUSH2 0x443 JUMPI DUP2 MSTORE SWAP1 DUP6 ADD SWAP1 DUP6 ADD PUSH2 0x537 JUMP JUMPDEST DUP9 DUP1 REVERT JUMPDEST PUSH1 0x41 DUP6 PUSH32 0x4E487B7100000000000000000000000000000000000000000000000000000000 PUSH1 0x0 MSTORE MSTORE PUSH1 0x24 PUSH1 0x0 REVERT JUMPDEST DUP4 DUP1 REVERT JUMPDEST POP CALLVALUE PUSH2 0x35A JUMPI DUP2 PUSH32 0xFFFFFFFFFFFFFFFFFFFFFFFFFFFFFFFFFFFFFFFFFFFFFFFFFFFFFFFFFFFFFFFC CALLDATASIZE ADD SLT PUSH2 0x35A JUMPI PUSH1 0x20 SWAP1 MLOAD PUSH20 0xFFFFFFFFFFFFFFFFFFFFFFFFFFFFFFFFFFFFFFFF PUSH32 0x0 AND DUP2 MSTORE RETURN JUMPDEST POP SWAP2 CALLVALUE PUSH2 0x35A JUMPI PUSH2 0x6EB CALLDATASIZE PUSH2 0xF0E JUMP JUMPDEST SWAP3 SWAP1 SWAP2 SWAP5 CALLER DUP6 MSTORE PUSH1 0x3 PUSH1 0x20 MSTORE DUP1 DUP6 KECCAK256 SLOAD ISZERO PUSH2 0x3B8 JUMPI POP POP PUSH2 0x710 DUP3 PUSH2 0x3B5 SWAP5 SWAP6 PUSH2 0x147F JUMP JUMPDEST PUSH2 0x15A2 JUMP JUMPDEST POP CALLVALUE PUSH2 0x35A JUMPI PUSH1 0x20 PUSH32 0xFFFFFFFFFFFFFFFFFFFFFFFFFFFFFFFFFFFFFFFFFFFFFFFFFFFFFFFFFFFFFFFC CALLDATASIZE ADD SLT PUSH2 0x35A JUMPI PUSH1 0x20 SWAP1 PUSH2 0x758 PUSH2 0x753 PUSH2 0xE23 JUMP JUMPDEST PUSH2 0x12FA JUMP JUMPDEST SWAP1 MLOAD SWAP1 DUP2 MSTORE RETURN JUMPDEST POP DUP3 CALLVALUE PUSH2 0x3DE JUMPI DUP2 PUSH32 0xFFFFFFFFFFFFFFFFFFFFFFFFFFFFFFFFFFFFFFFFFFFFFFFFFFFFFFFFFFFFFFFC CALLDATASIZE ADD SLT PUSH2 0x3DE JUMPI PUSH2 0x797 PUSH2 0xE23 JUMP JUMPDEST SWAP2 CALLER DUP5 MSTORE PUSH1 0x3 PUSH1 0x20 MSTORE DUP1 DUP5 KECCAK256 SLOAD ISZERO PUSH2 0x3B8 JUMPI DUP4 PUSH2 0x3B5 PUSH1 0x24 CALLDATALOAD DUP6 PUSH2 0x147F JUMP JUMPDEST PUSH2 0xEAC JUMP JUMPDEST POP CALLVALUE PUSH2 0x35A JUMPI PUSH1 0x20 PUSH32 0xFFFFFFFFFFFFFFFFFFFFFFFFFFFFFFFFFFFFFFFFFFFFFFFFFFFFFFFFFFFFFFFC CALLDATASIZE ADD SLT PUSH2 0x35A JUMPI PUSH1 0x20 SWAP1 PUSH2 0x758 PUSH2 0x7F9 PUSH2 0xE23 JUMP JUMPDEST PUSH2 0x1251 JUMP JUMPDEST DUP3 CALLVALUE PUSH2 0x322 JUMPI DUP1 PUSH32 0xFFFFFFFFFFFFFFFFFFFFFFFFFFFFFFFFFFFFFFFFFFFFFFFFFFFFFFFFFFFFFFFC CALLDATASIZE ADD SLT PUSH2 0x322 JUMPI PUSH2 0x835 PUSH2 0x13E2 JUMP JUMPDEST POP POP DUP1 RETURN JUMPDEST POP CALLVALUE PUSH2 0x35A JUMPI DUP2 PUSH32 0xFFFFFFFFFFFFFFFFFFFFFFFFFFFFFFFFFFFFFFFFFFFFFFFFFFFFFFFFFFFFFFFC CALLDATASIZE ADD SLT PUSH2 0x35A JUMPI DUP1 MLOAD PUSH2 0x8AC SWAP2 PUSH2 0x878 DUP3 PUSH2 0x1058 JUMP JUMPDEST PUSH1 0x5 DUP3 MSTORE PUSH32 0x504F494E54000000000000000000000000000000000000000000000000000000 PUSH1 0x20 DUP4 ADD MSTORE MLOAD SWAP2 DUP3 SWAP2 DUP3 PUSH2 0xE46 JUMP JUMPDEST SUB SWAP1 RETURN JUMPDEST POP SWAP1 CALLVALUE PUSH2 0x322 JUMPI PUSH2 0x8C0 CALLDATASIZE PUSH2 0xF6E JUMP JUMPDEST PUSH2 0x8C9 DUP2 PUSH2 0x116E JUMP JUMPDEST SWAP3 JUMPDEST DUP2 DUP2 LT PUSH2 0x8DF JUMPI DUP5 MLOAD DUP1 PUSH2 0x8AC DUP7 DUP3 PUSH2 0xFD9 JUMP JUMPDEST DUP1 PUSH2 0x8F8 PUSH2 0x7F9 PUSH2 0x8F3 PUSH1 0x1 SWAP5 DUP7 DUP9 PUSH2 0x11BD JUMP JUMPDEST PUSH2 0x11FC JUMP JUMPDEST PUSH2 0x902 DUP3 DUP8 PUSH2 0x121D JUMP JUMPDEST MSTORE ADD PUSH2 0x8CB JUMP JUMPDEST POP CALLVALUE PUSH2 0x35A JUMPI PUSH1 0x20 PUSH32 0xFFFFFFFFFFFFFFFFFFFFFFFFFFFFFFFFFFFFFFFFFFFFFFFFFFFFFFFFFFFFFFFC CALLDATASIZE ADD SLT PUSH2 0x35A JUMPI DUP1 PUSH1 0x20 SWAP3 PUSH20 0xFFFFFFFFFFFFFFFFFFFFFFFFFFFFFFFFFFFFFFFF PUSH2 0x95A PUSH2 0xE23 JUMP JUMPDEST AND DUP2 MSTORE PUSH1 0x3 DUP5 MSTORE KECCAK256 SLOAD SWAP1 MLOAD SWAP1 DUP2 MSTORE RETURN JUMPDEST POP CALLVALUE PUSH2 0x35A JUMPI PUSH1 0x20 PUSH32 0xFFFFFFFFFFFFFFFFFFFFFFFFFFFFFFFFFFFFFFFFFFFFFFFFFFFFFFFFFFFFFFFC CALLDATASIZE ADD SLT PUSH2 0x35A JUMPI PUSH14 0xFFFFFFFFFFFFFFFFFFFFFFFFFFFF DUP2 PUSH1 0x20 SWAP4 PUSH20 0xFFFFFFFFFFFFFFFFFFFFFFFFFFFFFFFFFFFFFFFF PUSH2 0x9CA PUSH2 0xE23 JUMP JUMPDEST AND DUP2 MSTORE PUSH1 0x1 DUP6 MSTORE KECCAK256 SLOAD AND SWAP1 MLOAD SWAP1 DUP2 MSTORE RETURN JUMPDEST POP SWAP1 CALLVALUE PUSH2 0x322 JUMPI PUSH2 0x9EB CALLDATASIZE PUSH2 0xF6E JUMP JUMPDEST PUSH2 0x9F4 DUP2 PUSH2 0x116E JUMP JUMPDEST SWAP3 JUMPDEST DUP2 DUP2 LT PUSH2 0xA0A JUMPI DUP5 MLOAD DUP1 PUSH2 0x8AC DUP7 DUP3 PUSH2 0xFD9 JUMP JUMPDEST DUP1 PUSH2 0xA1E PUSH2 0x753 PUSH2 0x8F3 PUSH1 0x1 SWAP5 DUP7 DUP9 PUSH2 0x11BD JUMP JUMPDEST PUSH2 0xA28 DUP3 DUP8 PUSH2 0x121D JUMP JUMPDEST MSTORE ADD PUSH2 0x9F6 JUMP JUMPDEST POP CALLVALUE PUSH2 0x35A JUMPI DUP2 PUSH32 0xFFFFFFFFFFFFFFFFFFFFFFFFFFFFFFFFFFFFFFFFFFFFFFFFFFFFFFFFFFFFFFFC CALLDATASIZE ADD SLT PUSH2 0x35A JUMPI PUSH2 0x758 PUSH1 0x20 SWAP3 SLOAD PUSH13 0xFFFFFFFFFFFFFFFFFFFFFFFFFF PUSH2 0xAA8 PUSH5 0xFFFFFFFFFF DUP4 AND PUSH32 0x0 DUP5 PUSH1 0x90 SHR PUSH2 0x13A0 JUMP JUMPDEST SWAP2 PUSH1 0x28 SHR AND PUSH2 0x1132 JUMP JUMPDEST POP CALLVALUE PUSH2 0x35A JUMPI DUP2 PUSH32 0xFFFFFFFFFFFFFFFFFFFFFFFFFFFFFFFFFFFFFFFFFFFFFFFFFFFFFFFFFFFFFFFC CALLDATASIZE ADD SLT PUSH2 0x35A JUMPI PUSH1 0x20 SWAP1 MLOAD PUSH1 0x12 DUP2 MSTORE RETURN JUMPDEST POP SWAP1 CALLVALUE PUSH2 0x322 JUMPI POP PUSH2 0xAFC CALLDATASIZE PUSH2 0xF0E JUMP JUMPDEST POP POP POP MLOAD PUSH32 0x9CBE235700000000000000000000000000000000000000000000000000000000 DUP2 MSTORE REVERT JUMPDEST POP CALLVALUE PUSH2 0x35A JUMPI DUP2 PUSH32 0xFFFFFFFFFFFFFFFFFFFFFFFFFFFFFFFFFFFFFFFFFFFFFFFFFFFFFFFFFFFFFFFC CALLDATASIZE ADD SLT PUSH2 0x35A JUMPI PUSH1 0x20 SWAP2 SLOAD PUSH1 0x90 SHR SWAP1 MLOAD SWAP1 DUP2 MSTORE RETURN JUMPDEST POP CALLVALUE PUSH2 0x35A JUMPI DUP1 PUSH32 0xFFFFFFFFFFFFFFFFFFFFFFFFFFFFFFFFFFFFFFFFFFFFFFFFFFFFFFFFFFFFFFFC CALLDATASIZE ADD SLT PUSH2 0x35A JUMPI PUSH32 0x50B08F8489C009DB3C1B3F160CC0DAE1C0C6706774750C001E4C083F9483D5F3 PUSH2 0xBBA PUSH2 0xE23 JUMP JUMPDEST SWAP2 PUSH1 0x24 CALLDATALOAD SWAP3 PUSH20 0xFFFFFFFFFFFFFFFFFFFFFFFFFFFFFFFFFFFFFFFF SWAP1 PUSH2 0xC03 DUP3 PUSH32 0xB53127684A568B3173AE13B9F8A6016E243E63B6E8EE1178D6A717850B5D6103 SLOAD AND CALLER EQ PUSH2 0x10CD JUMP JUMPDEST AND SWAP3 DUP4 PUSH1 0x0 MSTORE PUSH1 0x3 PUSH1 0x20 MSTORE DUP1 DUP3 PUSH1 0x0 KECCAK256 SSTORE DUP2 MLOAD SWAP1 DUP2 MSTORE TIMESTAMP PUSH1 0x20 DUP3 ADD MSTORE LOG2 DUP1 RETURN JUMPDEST POP CALLVALUE PUSH2 0x35A JUMPI DUP2 PUSH32 0xFFFFFFFFFFFFFFFFFFFFFFFFFFFFFFFFFFFFFFFFFFFFFFFFFFFFFFFFFFFFFFFC CALLDATASIZE ADD SLT PUSH2 0x35A JUMPI DUP1 MLOAD PUSH2 0x8AC SWAP2 PUSH2 0xC61 DUP3 PUSH2 0x1058 JUMP JUMPDEST PUSH1 0x6 DUP3 MSTORE PUSH32 0x506F696E74730000000000000000000000000000000000000000000000000000 PUSH1 0x20 DUP4 ADD MSTORE MLOAD SWAP2 DUP3 SWAP2 DUP3 PUSH2 0xE46 JUMP JUMPDEST DUP5 SWAP3 SWAP2 POP CALLVALUE PUSH2 0x669 JUMPI PUSH1 0x20 PUSH32 0xFFFFFFFFFFFFFFFFFFFFFFFFFFFFFFFFFFFFFFFFFFFFFFFFFFFFFFFFFFFFFFFC CALLDATASIZE ADD SLT PUSH2 0x669 JUMPI PUSH2 0xCD0 PUSH2 0xE23 JUMP JUMPDEST SWAP1 PUSH20 0xFFFFFFFFFFFFFFFFFFFFFFFFFFFFFFFFFFFFFFFF PUSH32 0x0 AND SWAP1 DUP2 ISZERO PUSH2 0xDFC JUMPI POP SWAP1 DUP5 SWAP2 PUSH2 0xD1C CALLER PUSH2 0x1251 JUMP JUMPDEST SWAP2 DUP3 PUSH2 0xD26 JUMPI DUP4 DUP1 RETURN JUMPDEST CALLER DUP5 MSTORE PUSH1 0x2 PUSH1 0x20 MSTORE DUP5 DUP5 KECCAK256 DUP1 SLOAD PUSH32 0xFFFFFFFFFFFFFFFFFFFFFFFFFF00000000000000000000000000000000000000 AND PUSH19 0xFFFFFFFFFF0000000000000000000000000000 TIMESTAMP PUSH1 0x70 SHL AND OR SWAP1 SSTORE DUP2 EXTCODESIZE ISZERO PUSH2 0x669 JUMPI DUP4 PUSH2 0xDD3 SWAP7 DUP7 MLOAD SWAP8 DUP9 SWAP6 DUP7 SWAP5 DUP6 SWAP4 PUSH32 0x21670F2200000000000000000000000000000000000000000000000000000000 DUP6 MSTORE DUP5 ADD PUSH1 0x20 SWAP1 SWAP4 SWAP3 SWAP2 SWAP4 PUSH20 0xFFFFFFFFFFFFFFFFFFFFFFFFFFFFFFFFFFFFFFFF PUSH1 0x40 DUP3 ADD SWAP6 AND DUP2 MSTORE ADD MSTORE JUMP JUMPDEST SUB SWAP3 GAS CALL SWAP1 DUP2 ISZERO PUSH2 0x325 JUMPI POP PUSH2 0xDED JUMPI JUMPDEST DUP1 DUP3 DUP2 DUP1 DUP1 DUP4 DUP1 RETURN JUMPDEST PUSH2 0xDF6 SWAP1 PUSH2 0x1015 JUMP JUMPDEST DUP2 PUSH2 0xDE4 JUMP JUMPDEST DUP1 PUSH32 0xEA8E4EB500000000000000000000000000000000000000000000000000000000 DUP7 SWAP3 MSTORE REVERT JUMPDEST PUSH1 0x4 CALLDATALOAD SWAP1 PUSH20 0xFFFFFFFFFFFFFFFFFFFFFFFFFFFFFFFFFFFFFFFF DUP3 AND DUP3 SUB PUSH2 0x443 JUMPI JUMP JUMPDEST PUSH1 0x20 DUP1 DUP3 MSTORE DUP3 MLOAD DUP2 DUP4 ADD DUP2 SWAP1 MSTORE SWAP4 SWAP3 PUSH1 0x0 JUMPDEST DUP6 DUP2 LT PUSH2 0xE98 JUMPI POP POP POP PUSH32 0xFFFFFFFFFFFFFFFFFFFFFFFFFFFFFFFFFFFFFFFFFFFFFFFFFFFFFFFFFFFFFFE0 PUSH1 0x1F DUP5 PUSH1 0x0 PUSH1 0x40 DUP1 SWAP7 SWAP8 DUP7 ADD ADD MSTORE ADD AND ADD ADD SWAP1 JUMP JUMPDEST DUP2 DUP2 ADD DUP4 ADD MLOAD DUP5 DUP3 ADD PUSH1 0x40 ADD MSTORE DUP3 ADD PUSH2 0xE58 JUMP JUMPDEST CALLVALUE PUSH2 0x443 JUMPI PUSH1 0x40 PUSH32 0xFFFFFFFFFFFFFFFFFFFFFFFFFFFFFFFFFFFFFFFFFFFFFFFFFFFFFFFFFFFFFFFC CALLDATASIZE ADD SLT PUSH2 0x443 JUMPI PUSH2 0xEE3 PUSH2 0xE23 JUMP JUMPDEST POP PUSH1 0x4 PUSH1 0x40 MLOAD PUSH32 0x9CBE235700000000000000000000000000000000000000000000000000000000 DUP2 MSTORE REVERT JUMPDEST PUSH32 0xFFFFFFFFFFFFFFFFFFFFFFFFFFFFFFFFFFFFFFFFFFFFFFFFFFFFFFFFFFFFFFFC PUSH1 0x60 SWAP2 ADD SLT PUSH2 0x443 JUMPI PUSH20 0xFFFFFFFFFFFFFFFFFFFFFFFFFFFFFFFFFFFFFFFF SWAP1 PUSH1 0x4 CALLDATALOAD DUP3 DUP2 AND DUP2 SUB PUSH2 0x443 JUMPI SWAP2 PUSH1 0x24 CALLDATALOAD SWAP1 DUP2 AND DUP2 SUB PUSH2 0x443 JUMPI SWAP1 PUSH1 0x44 CALLDATALOAD SWAP1 JUMP JUMPDEST SWAP1 PUSH1 0x20 PUSH32 0xFFFFFFFFFFFFFFFFFFFFFFFFFFFFFFFFFFFFFFFFFFFFFFFFFFFFFFFFFFFFFFFC DUP4 ADD SLT PUSH2 0x443 JUMPI PUSH1 0x4 CALLDATALOAD PUSH8 0xFFFFFFFFFFFFFFFF SWAP3 DUP4 DUP3 GT PUSH2 0x443 JUMPI DUP1 PUSH1 0x23 DUP4 ADD SLT ISZERO PUSH2 0x443 JUMPI DUP2 PUSH1 0x4 ADD CALLDATALOAD SWAP4 DUP5 GT PUSH2 0x443 JUMPI PUSH1 0x24 DUP5 PUSH1 0x5 SHL DUP4 ADD ADD GT PUSH2 0x443 JUMPI PUSH1 0x24 ADD SWAP2 SWAP1 JUMP JUMPDEST PUSH1 0x20 SWAP1 PUSH1 0x20 PUSH1 0x40 DUP2 DUP4 ADD SWAP3 DUP3 DUP2 MSTORE DUP6 MLOAD DUP1 SWAP5 MSTORE ADD SWAP4 ADD SWAP2 PUSH1 0x0 JUMPDEST DUP3 DUP2 LT PUSH2 0x1001 JUMPI POP POP POP POP SWAP1 JUMP JUMPDEST DUP4 MLOAD DUP6 MSTORE SWAP4 DUP2 ADD SWAP4 SWAP3 DUP2 ADD SWAP3 PUSH1 0x1 ADD PUSH2 0xFF3 JUMP JUMPDEST PUSH8 0xFFFFFFFFFFFFFFFF DUP2 GT PUSH2 0x1029 JUMPI PUSH1 0x40 MSTORE JUMP JUMPDEST PUSH32 0x4E487B7100000000000000000000000000000000000000000000000000000000 PUSH1 0x0 MSTORE PUSH1 0x41 PUSH1 0x4 MSTORE PUSH1 0x24 PUSH1 0x0 REVERT JUMPDEST PUSH1 0x40 DUP2 ADD SWAP1 DUP2 LT PUSH8 0xFFFFFFFFFFFFFFFF DUP3 GT OR PUSH2 0x1029 JUMPI PUSH1 0x40 MSTORE JUMP JUMPDEST SWAP1 PUSH1 0x1F PUSH32 0xFFFFFFFFFFFFFFFFFFFFFFFFFFFFFFFFFFFFFFFFFFFFFFFFFFFFFFFFFFFFFFE0 SWAP2 ADD AND DUP2 ADD SWAP1 DUP2 LT PUSH8 0xFFFFFFFFFFFFFFFF DUP3 GT OR PUSH2 0x1029 JUMPI PUSH1 0x40 MSTORE JUMP JUMPDEST PUSH8 0xFFFFFFFFFFFFFFFF DUP2 GT PUSH2 0x1029 JUMPI PUSH1 0x5 SHL PUSH1 0x20 ADD SWAP1 JUMP JUMPDEST ISZERO PUSH2 0x10D4 JUMPI JUMP JUMPDEST PUSH1 0x64 PUSH1 0x40 MLOAD PUSH32 0x8C379A000000000000000000000000000000000000000000000000000000000 DUP2 MSTORE PUSH1 0x20 PUSH1 0x4 DUP3 ADD MSTORE PUSH1 0xE PUSH1 0x24 DUP3 ADD MSTORE PUSH32 0x4E4F545F415554484F52495A4544000000000000000000000000000000000000 PUSH1 0x44 DUP3 ADD MSTORE REVERT JUMPDEST SWAP2 SWAP1 DUP3 ADD DUP1 SWAP3 GT PUSH2 0x113F JUMPI JUMP JUMPDEST PUSH32 0x4E487B7100000000000000000000000000000000000000000000000000000000 PUSH1 0x0 MSTORE PUSH1 0x11 PUSH1 0x4 MSTORE PUSH1 0x24 PUSH1 0x0 REVERT JUMPDEST SWAP1 PUSH2 0x1178 DUP3 PUSH2 0x10B5 JUMP JUMPDEST PUSH2 0x1185 PUSH1 0x40 MLOAD SWAP2 DUP3 PUSH2 0x1074 JUMP JUMPDEST DUP3 DUP2 MSTORE PUSH32 0xFFFFFFFFFFFFFFFFFFFFFFFFFFFFFFFFFFFFFFFFFFFFFFFFFFFFFFFFFFFFFFE0 PUSH2 0x11B3 DUP3 SWAP5 PUSH2 0x10B5 JUMP JUMPDEST ADD SWAP1 PUSH1 0x20 CALLDATASIZE SWAP2 ADD CALLDATACOPY JUMP JUMPDEST SWAP2 SWAP1 DUP2 LT ISZERO PUSH2 0x11CD JUMPI PUSH1 0x5 SHL ADD SWAP1 JUMP JUMPDEST PUSH32 0x4E487B7100000000000000000000000000000000000000000000000000000000 PUSH1 0x0 MSTORE PUSH1 0x32 PUSH1 0x4 MSTORE PUSH1 0x24 PUSH1 0x0 REVERT JUMPDEST CALLDATALOAD PUSH20 0xFFFFFFFFFFFFFFFFFFFFFFFFFFFFFFFFFFFFFFFF DUP2 AND DUP2 SUB PUSH2 0x443 JUMPI SWAP1 JUMP JUMPDEST DUP1 MLOAD DUP3 LT ISZERO PUSH2 0x11CD JUMPI PUSH1 0x20 SWAP2 PUSH1 0x5 SHL ADD ADD SWAP1 JUMP JUMPDEST SWAP2 SWAP1 DUP3 SUB SWAP2 DUP3 GT PUSH2 0x113F JUMPI JUMP JUMPDEST DUP2 DUP2 MUL SWAP3 SWAP2 DUP2 ISZERO SWAP2 DUP5 DIV EQ OR ISZERO PUSH2 0x113F JUMPI JUMP JUMPDEST PUSH20 0xFFFFFFFFFFFFFFFFFFFFFFFFFFFFFFFFFFFFFFFF PUSH2 0x12F7 SWAP2 AND PUSH1 0x0 DUP2 DUP2 MSTORE PUSH1 0x2 PUSH1 0x20 MSTORE PUSH1 0x40 PUSH2 0x128E PUSH5 0xFFFFFFFFFF DUP3 DUP5 KECCAK256 SLOAD PUSH1 0x70 SHR AND TIMESTAMP PUSH2 0x1231 JUMP JUMPDEST SWAP2 DUP4 DUP2 MSTORE PUSH1 0x1 PUSH1 0x20 MSTORE PUSH4 0x3B9ACA00 PUSH2 0x12E5 PUSH2 0x12BE PUSH14 0xFFFFFFFFFFFFFFFFFFFFFFFFFFFF SWAP6 DUP7 DUP7 DUP7 KECCAK256 SLOAD AND SWAP1 PUSH2 0x123E JUMP JUMPDEST PUSH32 0x0 SWAP1 PUSH2 0x123E JUMP JUMPDEST DIV SWAP4 DUP2 MSTORE PUSH1 0x2 PUSH1 0x20 MSTORE KECCAK256 SLOAD AND SWAP1 PUSH2 0x1132 JUMP JUMPDEST SWAP1 JUMP JUMPDEST PUSH20 0xFFFFFFFFFFFFFFFFFFFFFFFFFFFFFFFFFFFFFFFF PUSH2 0x12F7 SWAP2 AND DUP1 PUSH1 0x0 MSTORE PUSH1 0x1 PUSH1 0x20 MSTORE PUSH1 0x40 PUSH1 0x0 KECCAK256 SLOAD SWAP1 PUSH13 0xFFFFFFFFFFFFFFFFFFFFFFFFFF SWAP2 PUSH14 0xFFFFFFFFFFFFFFFFFFFFFFFFFFFF SWAP3 PUSH2 0x137F PUSH1 0x0 SLOAD DUP3 PUSH2 0xAA8 PUSH5 0xFFFFFFFFFF DUP4 AND PUSH32 0x0 DUP5 PUSH1 0x90 SHR PUSH2 0x13A0 JUMP JUMPDEST SWAP3 PUSH1 0x0 MSTORE PUSH1 0x1 PUSH1 0x20 MSTORE DUP4 PUSH1 0x1 PUSH1 0x40 PUSH1 0x0 KECCAK256 ADD SLOAD AND SWAP4 DUP3 AND SWAP2 PUSH1 0x70 SHR AND PUSH2 0x1561 JUMP JUMPDEST SWAP2 SWAP1 DUP3 ISZERO PUSH2 0x13DA JUMPI PUSH2 0x13B5 PUSH2 0x13BA SWAP3 TIMESTAMP PUSH2 0x1231 JUMP JUMPDEST PUSH2 0x123E JUMP JUMPDEST PUSH10 0xD3C21BCECCEDA1000000 SWAP1 DUP2 DUP2 MUL SWAP2 DUP2 DUP4 DIV EQ SWAP1 ISZERO OR ISZERO PUSH2 0x113F JUMPI DIV SWAP1 JUMP JUMPDEST POP POP POP PUSH1 0x0 SWAP1 JUMP JUMPDEST PUSH1 0x0 SLOAD DUP1 PUSH1 0x90 SHR SWAP2 PUSH5 0xFFFFFFFFFF SWAP2 PUSH2 0x1439 PUSH2 0x1421 DUP5 DUP4 AND PUSH32 0x0 DUP8 PUSH2 0x13A0 JUMP JUMPDEST PUSH13 0xFFFFFFFFFFFFFFFFFFFFFFFFFF DUP4 PUSH1 0x28 SHR AND PUSH2 0x1132 JUMP JUMPDEST SWAP3 TIMESTAMP AND SWAP1 PUSH32 0xFFFFFFFFFFFFFFFFFFFFFFFFFFFF000000000000000000000000000000000000 PUSH18 0xFFFFFFFFFFFFFFFFFFFFFFFFFF0000000000 DUP6 PUSH1 0x28 SHL AND SWAP2 AND OR OR PUSH1 0x0 SSTORE JUMP JUMPDEST DUP2 ISZERO PUSH2 0x155D JUMPI PUSH32 0xDDF252AD1BE2C89B69C2B068FC378DAA952BA7F163C4A11628F55A4DF523B3EF PUSH1 0x20 PUSH1 0x0 SWAP4 PUSH20 0xFFFFFFFFFFFFFFFFFFFFFFFFFFFFFFFFFFFFFFFF PUSH2 0x14C9 DUP6 PUSH2 0x1681 JUMP JUMPDEST SWAP6 SWAP1 PUSH18 0xFFFFFFFFFFFFFFFFFFFFFFFFFFFFFFFFFFFF PUSH32 0xFFFFFFFFFFFFFFFFFFFFFFFFFFFF000000000000000000000000000000000000 DUP6 DUP11 SLOAD SWAP4 SUB PUSH1 0x90 SHL AND SWAP2 AND OR DUP8 SSTORE AND SWAP4 DUP5 DUP7 MSTORE PUSH1 0x1 DUP4 MSTORE PUSH14 0xFFFFFFFFFFFFFFFFFFFFFFFFFFFF DUP3 PUSH1 0x40 DUP9 KECCAK256 SWAP3 SUB AND PUSH32 0xFFFFFFFFFFFFFFFFFFFFFFFFFFFFFFFFFFFF0000000000000000000000000000 DUP3 SLOAD AND OR SWAP1 SSTORE PUSH1 0x40 MLOAD SWAP1 DUP2 MSTORE LOG3 JUMP JUMPDEST POP POP JUMP JUMPDEST PUSH2 0x156E SWAP1 PUSH2 0x1574 SWAP4 PUSH2 0x1231 JUMP JUMPDEST SWAP1 PUSH2 0x123E JUMP JUMPDEST SWAP1 PUSH5 0xE8D4A51000 SWAP2 DUP3 DUP2 MUL SWAP3 DUP2 DUP5 DIV EQ SWAP1 ISZERO OR ISZERO PUSH2 0x113F JUMPI PUSH10 0xD3C21BCECCEDA1000000 PUSH2 0x12F7 SWAP3 DIV SWAP1 PUSH2 0x1132 JUMP JUMPDEST SWAP1 DUP1 ISZERO PUSH2 0x155D JUMPI PUSH32 0xDDF252AD1BE2C89B69C2B068FC378DAA952BA7F163C4A11628F55A4DF523B3EF PUSH1 0x20 PUSH1 0x0 SWAP3 PUSH20 0xFFFFFFFFFFFFFFFFFFFFFFFFFFFFFFFFFFFFFFFF PUSH2 0x15ED DUP7 PUSH2 0x1681 JUMP JUMPDEST SWAP7 SWAP1 PUSH18 0xFFFFFFFFFFFFFFFFFFFFFFFFFFFFFFFFFFFF PUSH32 0xFFFFFFFFFFFFFFFFFFFFFFFFFFFF000000000000000000000000000000000000 DUP6 DUP10 SLOAD SWAP4 ADD PUSH1 0x90 SHL AND SWAP2 AND OR DUP7 SSTORE AND SWAP5 DUP6 DUP6 MSTORE PUSH1 0x1 DUP4 MSTORE PUSH14 0xFFFFFFFFFFFFFFFFFFFFFFFFFFFF DUP3 PUSH1 0x40 DUP8 KECCAK256 SWAP3 ADD AND PUSH32 0xFFFFFFFFFFFFFFFFFFFFFFFFFFFFFFFFFFFF0000000000000000000000000000 DUP3 SLOAD AND OR SWAP1 SSTORE PUSH1 0x40 MLOAD SWAP1 DUP2 MSTORE LOG3 JUMP JUMPDEST SWAP1 PUSH20 0xFFFFFFFFFFFFFFFFFFFFFFFFFFFFFFFFFFFFFFFF SWAP2 PUSH2 0x16A0 PUSH2 0x13E2 JUMP JUMPDEST SWAP4 SWAP1 SWAP2 AND PUSH1 0x0 SWAP1 DUP1 DUP3 MSTORE PUSH1 0x1 PUSH1 0x20 MSTORE PUSH1 0x1 PUSH2 0x16F5 PUSH2 0x177D PUSH1 0x40 DUP6 KECCAK256 SWAP8 DUP9 SLOAD PUSH14 0xFFFFFFFFFFFFFFFFFFFFFFFFFFFF SWAP4 DUP2 DUP4 DUP7 DUP1 SWAP5 AND DUP1 SWAP14 DUP6 PUSH13 0xFFFFFFFFFFFFFFFFFFFFFFFFFF SWAP11 DUP12 SWAP3 ADD SLOAD AND SWAP4 PUSH1 0x70 SHR AND PUSH2 0x1561 JUMP JUMPDEST AND SWAP4 DUP6 DUP8 MSTORE PUSH1 0x1 PUSH1 0x20 MSTORE PUSH1 0x40 DUP8 KECCAK256 SWAP2 PUSH1 0x1 DUP4 ADD PUSH32 0xFFFFFFFFFFFFFFFFFFFFFFFFFFFFFFFFFFFF0000000000000000000000000000 SWAP7 DUP8 DUP3 SLOAD AND OR SWAP1 SSTORE AND PUSH32 0xFFFFFFFFFF00000000000000000000000000FFFFFFFFFFFFFFFFFFFFFFFFFFFF PUSH27 0xFFFFFFFFFFFFFFFFFFFFFFFFFF0000000000000000000000000000 DUP4 SLOAD SWAP3 PUSH1 0x70 SHL AND SWAP2 AND OR SWAP1 SSTORE JUMP JUMPDEST PUSH1 0x2 PUSH1 0x20 MSTORE PUSH5 0xFFFFFFFFFF SWAP4 PUSH4 0x3B9ACA00 PUSH2 0x17A8 PUSH2 0x12BE DUP11 PUSH2 0x13B5 DUP10 PUSH1 0x40 DUP8 KECCAK256 SLOAD PUSH1 0x70 SHR AND TIMESTAMP PUSH2 0x1231 JUMP JUMPDEST DIV SWAP4 DUP2 MSTORE PUSH1 0x2 PUSH1 0x20 MSTORE PUSH2 0x1800 PUSH1 0x40 DUP3 KECCAK256 SWAP6 TIMESTAMP AND DUP7 SWAP1 PUSH32 0xFFFFFFFFFFFFFFFFFFFFFFFFFF0000000000FFFFFFFFFFFFFFFFFFFFFFFFFFFF PUSH19 0xFFFFFFFFFF0000000000000000000000000000 DUP4 SLOAD SWAP3 PUSH1 0x70 SHL AND SWAP2 AND OR SWAP1 SSTORE JUMP JUMPDEST DUP2 DUP6 SLOAD SWAP5 AND DUP3 DUP6 AND ADD SWAP1 DUP3 DUP3 GT PUSH2 0x181C JUMPI POP AND SWAP2 AND OR SWAP1 SSTORE SWAP2 SWAP1 JUMP JUMPDEST DUP1 PUSH32 0x4E487B7100000000000000000000000000000000000000000000000000000000 PUSH1 0x24 SWAP3 MSTORE PUSH1 0x11 PUSH1 0x4 MSTORE REVERT INVALID LOG2 PUSH5 0x6970667358 0x22 SLT KECCAK256 0xF SHL 0x4B 0xB3 ORIGIN LOG3 0xE2 PUSH14 0xA31A88D1FA45FFF0A97C946952FF 0xD7 0xF MULMOD OR SMOD PUSH14 0x91927EA564736F6C634300081800 CALLER "
    },
    "gasEstimates": {
      "creation": {
        "codeDepositCost": "1254200",
        "executionCost": "infinite",
        "totalCost": "infinite"
      },
      "external": {
        "REWARD()": "infinite",
        "add(address,uint256)": "infinite",
        "allowance(address,address)": "731",
        "approve(address,uint256)": "289",
        "balanceOf(address)": "2606",
        "claimFixedRewards(address)": "infinite",
        "claimSharedPoolRewards(address)": "infinite",
        "decimals()": "304",
        "earnedFromFixedRate(address)": "infinite",
        "earnedFromFixedRateMultipleAccounts(address[])": "infinite",
        "earnedFromPoolRate(address)": "infinite",
        "earnedFromPoolRateMultipleAccounts(address[])": "infinite",
        "enableGame(address,uint256)": "26303",
        "games(address)": "2622",
        "getTotalRewardPerPointWithPrecision24()": "infinite",
        "move(address,address,uint256)": "infinite",
        "name()": "infinite",
        "postUpgrade(address,(uint256,uint256),address[])": "infinite",
        "remove(address,uint256)": "infinite",
        "symbol()": "infinite",
        "totalSupply()": "2369",
        "transfer(address,uint256)": "575",
        "transferFrom(address,address,uint256)": "403",
        "update()": "infinite"
      },
      "internal": {
        "_add(address,uint256)": "infinite",
        "_computeExtraTotalRewardPerPointSinceLastTime(uint256,uint256,uint256)": "259",
        "_computeRewardsEarned(uint256,uint256,uint256,uint256)": "304",
        "_enableGame(address,uint256)": "infinite",
        "_postUpgrade(contract IReward,struct RewardsGenerator.Config memory,address[] memory)": "infinite",
        "_remove(address,uint256)": "infinite",
        "_update(address)": "infinite",
        "_updateAccount(address,uint256)": "infinite",
        "_updateGlobal()": "infinite"
      }
    },
    "methodIdentifiers": {
      "REWARD()": "cab34c08",
      "add(address,uint256)": "f5d82b6b",
      "allowance(address,address)": "dd62ed3e",
      "approve(address,uint256)": "095ea7b3",
      "balanceOf(address)": "70a08231",
      "claimFixedRewards(address)": "066112f9",
      "claimSharedPoolRewards(address)": "ff1e03e9",
      "decimals()": "313ce567",
      "earnedFromFixedRate(address)": "a8671f6a",
      "earnedFromFixedRateMultipleAccounts(address[])": "7997f96d",
      "earnedFromPoolRate(address)": "b061963c",
      "earnedFromPoolRateMultipleAccounts(address[])": "59d431b3",
      "enableGame(address,uint256)": "16cf09f8",
      "games(address)": "79131a19",
      "getTotalRewardPerPointWithPrecision24()": "48483382",
      "move(address,address,uint256)": "bb35783b",
      "name()": "06fdde03",
      "postUpgrade(address,(uint256,uint256),address[])": "cee2960b",
      "remove(address,uint256)": "abe7f1ab",
      "symbol()": "95d89b41",
      "totalSupply()": "18160ddd",
      "transfer(address,uint256)": "a9059cbb",
      "transferFrom(address,address,uint256)": "23b872dd",
      "update()": "a2e62045"
    }
  },
  "storageLayout": {
    "storage": [
      {
        "astId": 16862,
        "contract": "src/token/RewardsGenerator.sol:RewardsGenerator",
        "label": "_global",
        "offset": 0,
        "slot": "0",
        "type": "t_struct(GlobalState)16859_storage"
      },
      {
        "astId": 16874,
        "contract": "src/token/RewardsGenerator.sol:RewardsGenerator",
        "label": "_sharedRateRewardPerAccount",
        "offset": 0,
        "slot": "1",
        "type": "t_mapping(t_address,t_struct(SharedRatePerAccount)16869_storage)"
      },
      {
        "astId": 16884,
        "contract": "src/token/RewardsGenerator.sol:RewardsGenerator",
        "label": "_fixedRateRewardPerAccount",
        "offset": 0,
        "slot": "2",
        "type": "t_mapping(t_address,t_struct(FixedRate)16879_storage)"
      },
      {
        "astId": 16888,
        "contract": "src/token/RewardsGenerator.sol:RewardsGenerator",
        "label": "games",
        "offset": 0,
        "slot": "3",
        "type": "t_mapping(t_address,t_uint256)"
      },
      {
        "astId": 16898,
        "contract": "src/token/RewardsGenerator.sol:RewardsGenerator",
        "label": "_init",
        "offset": 0,
        "slot": "4",
        "type": "t_bool"
      }
    ],
    "types": {
      "t_address": {
        "encoding": "inplace",
        "label": "address",
        "numberOfBytes": "20"
      },
      "t_bool": {
        "encoding": "inplace",
        "label": "bool",
        "numberOfBytes": "1"
      },
      "t_mapping(t_address,t_struct(FixedRate)16879_storage)": {
        "encoding": "mapping",
        "key": "t_address",
        "label": "mapping(address => struct RewardsGenerator.FixedRate)",
        "numberOfBytes": "32",
        "value": "t_struct(FixedRate)16879_storage"
      },
      "t_mapping(t_address,t_struct(SharedRatePerAccount)16869_storage)": {
        "encoding": "mapping",
        "key": "t_address",
        "label": "mapping(address => struct RewardsGenerator.SharedRatePerAccount)",
        "numberOfBytes": "32",
        "value": "t_struct(SharedRatePerAccount)16869_storage"
      },
      "t_mapping(t_address,t_uint256)": {
        "encoding": "mapping",
        "key": "t_address",
        "label": "mapping(address => uint256)",
        "numberOfBytes": "32",
        "value": "t_uint256"
      },
      "t_struct(FixedRate)16879_storage": {
        "encoding": "inplace",
        "label": "struct RewardsGenerator.FixedRate",
        "members": [
          {
            "astId": 16876,
            "contract": "src/token/RewardsGenerator.sol:RewardsGenerator",
            "label": "toWithdraw",
            "offset": 0,
            "slot": "0",
            "type": "t_uint112"
          },
          {
            "astId": 16878,
            "contract": "src/token/RewardsGenerator.sol:RewardsGenerator",
            "label": "lastTime",
            "offset": 14,
            "slot": "0",
            "type": "t_uint40"
          }
        ],
        "numberOfBytes": "32"
      },
      "t_struct(GlobalState)16859_storage": {
        "encoding": "inplace",
        "label": "struct RewardsGenerator.GlobalState",
        "members": [
          {
            "astId": 16854,
            "contract": "src/token/RewardsGenerator.sol:RewardsGenerator",
            "label": "lastUpdateTime",
            "offset": 0,
            "slot": "0",
            "type": "t_uint40"
          },
          {
            "astId": 16856,
            "contract": "src/token/RewardsGenerator.sol:RewardsGenerator",
            "label": "totalRewardPerPointAtLastUpdate",
            "offset": 5,
            "slot": "0",
            "type": "t_uint104"
          },
          {
            "astId": 16858,
            "contract": "src/token/RewardsGenerator.sol:RewardsGenerator",
            "label": "totalPoints",
            "offset": 18,
            "slot": "0",
            "type": "t_uint112"
          }
        ],
        "numberOfBytes": "32"
      },
      "t_struct(SharedRatePerAccount)16869_storage": {
        "encoding": "inplace",
        "label": "struct RewardsGenerator.SharedRatePerAccount",
        "members": [
          {
            "astId": 16864,
            "contract": "src/token/RewardsGenerator.sol:RewardsGenerator",
            "label": "points",
            "offset": 0,
            "slot": "0",
            "type": "t_uint112"
          },
          {
            "astId": 16866,
            "contract": "src/token/RewardsGenerator.sol:RewardsGenerator",
            "label": "totalRewardPerPointAccounted",
            "offset": 14,
            "slot": "0",
            "type": "t_uint104"
          },
          {
            "astId": 16868,
            "contract": "src/token/RewardsGenerator.sol:RewardsGenerator",
            "label": "rewardsToWithdraw",
            "offset": 0,
            "slot": "1",
            "type": "t_uint112"
          }
        ],
        "numberOfBytes": "64"
      },
      "t_uint104": {
        "encoding": "inplace",
        "label": "uint104",
        "numberOfBytes": "13"
      },
      "t_uint112": {
        "encoding": "inplace",
        "label": "uint112",
        "numberOfBytes": "14"
      },
      "t_uint256": {
        "encoding": "inplace",
        "label": "uint256",
        "numberOfBytes": "32"
      },
      "t_uint40": {
        "encoding": "inplace",
        "label": "uint40",
        "numberOfBytes": "5"
      }
    }
  },
  "userdoc": {
    "errors": {
      "NonTransferable()": [
        {
          "notice": "Token cannot be transfered"
        }
      ],
      "NotAuthorized()": [
        {
          "notice": "Not authorized to perform this operation"
        }
      ]
    },
    "events": {
      "Approval(address,address,uint256)": {
        "notice": "trigger on approval amount being set.   Note that Transfer events need to be considered to compute the current allowance."
      },
      "Transfer(address,address,uint256)": {
        "notice": "trigger when tokens are transferred, including zero value transfers."
      }
    },
    "kind": "user",
    "methods": {
      "allowance(address,address)": {
        "notice": "Returns the amount which `spender` is still allowed to withdraw from `owner`."
      },
      "approve(address,uint256)": {
        "notice": "Allows `spender` to withdraw from your account multiple times, up to `amount`."
      },
      "balanceOf(address)": {
        "notice": "Returns the account balance of another account with address `owner`."
      },
      "claimFixedRewards(address)": {
        "notice": "claim the rewards earned so far using a fixed rate per point"
      },
      "claimSharedPoolRewards(address)": {
        "notice": "claim the rewards earned so far in the shared pool"
      },
      "decimals()": {
        "notice": "Returns the number of decimals the token uses."
      },
      "earnedFromFixedRate(address)": {
        "notice": "The amount of reward an account has accrued so far. Does not include already withdrawn rewards."
      },
      "earnedFromFixedRateMultipleAccounts(address[])": {
        "notice": "The amount of reward an account has accrued so far. Does not include already withdrawn rewards."
      },
      "earnedFromPoolRate(address)": {
        "notice": "The amount of reward an account has accrued so far. Does not include already withdrawn rewards."
      },
      "earnedFromPoolRateMultipleAccounts(address[])": {
        "notice": "The amount of reward an account has accrued so far. Does not include already withdrawn rewards."
      },
      "getTotalRewardPerPointWithPrecision24()": {
        "notice": "The amount of reward each point has earned so far"
      },
      "name()": {
        "notice": "Returns the name of the token."
      },
      "symbol()": {
        "notice": "Returns the symbol of the token."
      },
      "totalSupply()": {
        "notice": "Returns the total token supply."
      },
      "transfer(address,uint256)": {
        "notice": "Transfers `amount` of tokens to address `to`."
      },
      "transferFrom(address,address,uint256)": {
        "notice": "Transfers `amount` tokens from address `from` to address `to`."
      },
      "update()": {
        "notice": "update the global pool rate"
      }
    },
    "version": 1
  },
  "argsData": "0x000000000000000000000000e5c05697666a18bbb0f1f620237402413cf7e1a100000000000000000000000061c461ecc993aadeb7e4b47e96d1b8cc37314b20000000000000000000000000000000000000000000000000000000000000006000000000000000000000000000000000000000000000000000000000000000a4cee2960b00000000000000000000000000000000000000000000000000000000000000000000000000000000000000000000000000000000000000000000000000000000000000000000000000000000000000000000000000000000000000000000000a0000000000000000000000000000000000000000000000000000000000000080000000000000000000000000000000000000000000000000000000000000000000000000000000000000000000000000000000000000000000000000",
  "transaction": {
    "hash": "0xb4ee78013dba1a0f527ccbcf9c9a5f1530c3ebede3fba352181909cbdaf2c1ac",
    "origin": "0x61c461ecc993aadeb7e4b47e96d1b8cc37314b20"
  },
  "updated": true,
  "_format": "hh-sol-artifact-1"
}