{
  "address": "0xfb4d29be83e36ab46003948e9f785292ba825941",
  "abi": [
    {
      "inputs": [
        {
          "internalType": "address",
          "name": "initialOwner",
          "type": "address"
        },
        {
          "internalType": "address",
          "name": "initialBenefieciary",
          "type": "address"
        },
        {
          "internalType": "uint256",
          "name": "amount",
          "type": "uint256"
        }
      ],
      "stateMutability": "nonpayable",
      "type": "constructor"
    },
    {
      "inputs": [
        {
          "internalType": "uint256",
          "name": "currentTime",
          "type": "uint256"
        },
        {
          "internalType": "uint256",
          "name": "deadline",
          "type": "uint256"
        }
      ],
      "name": "DeadlineOver",
      "type": "error"
    },
    {
      "inputs": [
        {
          "internalType": "address",
          "name": "addr",
          "type": "address"
        }
      ],
      "name": "InvalidAddress",
      "type": "error"
    },
    {
      "inputs": [
        {
          "internalType": "uint256",
          "name": "provided",
          "type": "uint256"
        },
        {
          "internalType": "uint256",
          "name": "expected",
          "type": "uint256"
        }
      ],
      "name": "InvalidMsgValue",
      "type": "error"
    },
    {
      "inputs": [],
      "name": "InvalidSignature",
      "type": "error"
    },
    {
      "inputs": [
        {
          "internalType": "uint256",
          "name": "provided",
          "type": "uint256"
        },
        {
          "internalType": "uint256",
          "name": "expected",
          "type": "uint256"
        }
      ],
      "name": "InvalidTotalAmount",
      "type": "error"
    },
    {
      "inputs": [],
      "name": "NotAuthorized",
      "type": "error"
    },
    {
      "inputs": [
        {
          "internalType": "uint256",
          "name": "currentAllowance",
          "type": "uint256"
        },
        {
          "internalType": "uint256",
          "name": "expected",
          "type": "uint256"
        }
      ],
      "name": "NotAuthorizedAllowance",
      "type": "error"
    },
    {
      "inputs": [
        {
          "internalType": "uint256",
          "name": "currentBalance",
          "type": "uint256"
        },
        {
          "internalType": "uint256",
          "name": "expected",
          "type": "uint256"
        }
      ],
      "name": "NotEnoughTokens",
      "type": "error"
    },
    {
      "anonymous": false,
      "inputs": [
        {
          "indexed": true,
          "internalType": "address",
          "name": "owner",
          "type": "address"
        },
        {
          "indexed": true,
          "internalType": "address",
          "name": "spender",
          "type": "address"
        },
        {
          "indexed": false,
          "internalType": "uint256",
          "name": "value",
          "type": "uint256"
        }
      ],
      "name": "Approval",
      "type": "event"
    },
    {
      "anonymous": false,
      "inputs": [
        {
          "indexed": false,
          "internalType": "address",
          "name": "generator",
          "type": "address"
        },
        {
          "indexed": false,
          "internalType": "bool",
          "name": "enabled",
          "type": "bool"
        }
      ],
      "name": "GeneratorEnabled",
      "type": "event"
    },
    {
      "anonymous": false,
      "inputs": [
        {
          "indexed": true,
          "internalType": "address",
          "name": "previousOwner",
          "type": "address"
        },
        {
          "indexed": true,
          "internalType": "address",
          "name": "newOwner",
          "type": "address"
        }
      ],
      "name": "OwnershipTransferred",
      "type": "event"
    },
    {
      "anonymous": false,
      "inputs": [
        {
          "indexed": true,
          "internalType": "address",
          "name": "from",
          "type": "address"
        },
        {
          "indexed": true,
          "internalType": "address",
          "name": "to",
          "type": "address"
        },
        {
          "indexed": false,
          "internalType": "uint256",
          "name": "value",
          "type": "uint256"
        }
      ],
      "name": "Transfer",
      "type": "event"
    },
    {
      "inputs": [],
      "name": "DOMAIN_SEPARATOR",
      "outputs": [
        {
          "internalType": "bytes32",
          "name": "",
          "type": "bytes32"
        }
      ],
      "stateMutability": "view",
      "type": "function"
    },
    {
      "inputs": [
        {
          "internalType": "address",
          "name": "owner",
          "type": "address"
        },
        {
          "internalType": "address",
          "name": "spender",
          "type": "address"
        }
      ],
      "name": "allowance",
      "outputs": [
        {
          "internalType": "uint256",
          "name": "",
          "type": "uint256"
        }
      ],
      "stateMutability": "view",
      "type": "function"
    },
    {
      "inputs": [
        {
          "internalType": "address",
          "name": "spender",
          "type": "address"
        },
        {
          "internalType": "uint256",
          "name": "amount",
          "type": "uint256"
        }
      ],
      "name": "approve",
      "outputs": [
        {
          "internalType": "bool",
          "name": "",
          "type": "bool"
        }
      ],
      "stateMutability": "nonpayable",
      "type": "function"
    },
    {
      "inputs": [
        {
          "internalType": "address",
          "name": "spender",
          "type": "address"
        },
        {
          "internalType": "uint256",
          "name": "amount",
          "type": "uint256"
        },
        {
          "internalType": "bytes",
          "name": "data",
          "type": "bytes"
        }
      ],
      "name": "approveAndCall",
      "outputs": [
        {
          "internalType": "bool",
          "name": "",
          "type": "bool"
        }
      ],
      "stateMutability": "nonpayable",
      "type": "function"
    },
    {
      "inputs": [
        {
          "internalType": "address",
          "name": "owner",
          "type": "address"
        }
      ],
      "name": "balanceOf",
      "outputs": [
        {
          "internalType": "uint256",
          "name": "",
          "type": "uint256"
        }
      ],
      "stateMutability": "view",
      "type": "function"
    },
    {
      "inputs": [],
      "name": "decimals",
      "outputs": [
        {
          "internalType": "uint8",
          "name": "",
          "type": "uint8"
        }
      ],
      "stateMutability": "pure",
      "type": "function"
    },
    {
      "inputs": [
        {
          "internalType": "address payable[]",
          "name": "tos",
          "type": "address[]"
        },
        {
          "internalType": "uint256",
          "name": "totalAmount",
          "type": "uint256"
        }
      ],
      "name": "distributeAlongWithETH",
      "outputs": [
        {
          "internalType": "bool",
          "name": "",
          "type": "bool"
        }
      ],
      "stateMutability": "payable",
      "type": "function"
    },
    {
      "inputs": [],
      "name": "eip712Domain",
      "outputs": [
        {
          "internalType": "bytes1",
          "name": "fields",
          "type": "bytes1"
        },
        {
          "internalType": "string",
          "name": "name",
          "type": "string"
        },
        {
          "internalType": "string",
          "name": "version",
          "type": "string"
        },
        {
          "internalType": "uint256",
          "name": "chainID",
          "type": "uint256"
        },
        {
          "internalType": "address",
          "name": "verifyingContract",
          "type": "address"
        },
        {
          "internalType": "bytes32",
          "name": "salt",
          "type": "bytes32"
        },
        {
          "internalType": "uint256[]",
          "name": "extensions",
          "type": "uint256[]"
        }
      ],
      "stateMutability": "view",
      "type": "function"
    },
    {
      "inputs": [
        {
          "internalType": "address",
          "name": "",
          "type": "address"
        }
      ],
      "name": "generators",
      "outputs": [
        {
          "internalType": "bool",
          "name": "",
          "type": "bool"
        }
      ],
      "stateMutability": "view",
      "type": "function"
    },
    {
      "inputs": [],
      "name": "name",
      "outputs": [
        {
          "internalType": "string",
          "name": "",
          "type": "string"
        }
      ],
      "stateMutability": "pure",
      "type": "function"
    },
    {
      "inputs": [
        {
          "internalType": "address",
          "name": "owner",
          "type": "address"
        }
      ],
      "name": "nonces",
      "outputs": [
        {
          "internalType": "uint256",
          "name": "",
          "type": "uint256"
        }
      ],
      "stateMutability": "view",
      "type": "function"
    },
    {
      "inputs": [],
      "name": "owner",
      "outputs": [
        {
          "internalType": "address",
          "name": "",
          "type": "address"
        }
      ],
      "stateMutability": "view",
      "type": "function"
    },
    {
      "inputs": [
        {
          "internalType": "address",
          "name": "owner",
          "type": "address"
        },
        {
          "internalType": "address",
          "name": "spender",
          "type": "address"
        },
        {
          "internalType": "uint256",
          "name": "value",
          "type": "uint256"
        },
        {
          "internalType": "uint256",
          "name": "deadline",
          "type": "uint256"
        },
        {
          "internalType": "uint8",
          "name": "v",
          "type": "uint8"
        },
        {
          "internalType": "bytes32",
          "name": "r",
          "type": "bytes32"
        },
        {
          "internalType": "bytes32",
          "name": "s",
          "type": "bytes32"
        }
      ],
      "name": "permit",
      "outputs": [],
      "stateMutability": "nonpayable",
      "type": "function"
    },
    {
      "inputs": [
        {
          "internalType": "address",
          "name": "to",
          "type": "address"
        },
        {
          "internalType": "uint256",
          "name": "amount",
          "type": "uint256"
        }
      ],
      "name": "reward",
      "outputs": [],
      "stateMutability": "nonpayable",
      "type": "function"
    },
    {
      "inputs": [
        {
          "internalType": "address",
          "name": "generator",
          "type": "address"
        },
        {
          "internalType": "bool",
          "name": "enabled",
          "type": "bool"
        }
      ],
      "name": "setGenerator",
      "outputs": [],
      "stateMutability": "nonpayable",
      "type": "function"
    },
    {
      "inputs": [],
      "name": "symbol",
      "outputs": [
        {
          "internalType": "string",
          "name": "",
          "type": "string"
        }
      ],
      "stateMutability": "view",
      "type": "function"
    },
    {
      "inputs": [],
      "name": "totalSupply",
      "outputs": [
        {
          "internalType": "uint256",
          "name": "",
          "type": "uint256"
        }
      ],
      "stateMutability": "view",
      "type": "function"
    },
    {
      "inputs": [
        {
          "internalType": "address",
          "name": "to",
          "type": "address"
        },
        {
          "internalType": "uint256",
          "name": "amount",
          "type": "uint256"
        }
      ],
      "name": "transfer",
      "outputs": [
        {
          "internalType": "bool",
          "name": "",
          "type": "bool"
        }
      ],
      "stateMutability": "nonpayable",
      "type": "function"
    },
    {
      "inputs": [
        {
          "internalType": "address payable",
          "name": "to",
          "type": "address"
        },
        {
          "internalType": "uint256",
          "name": "amount",
          "type": "uint256"
        }
      ],
      "name": "transferAlongWithETH",
      "outputs": [
        {
          "internalType": "bool",
          "name": "",
          "type": "bool"
        }
      ],
      "stateMutability": "payable",
      "type": "function"
    },
    {
      "inputs": [
        {
          "internalType": "address",
          "name": "to",
          "type": "address"
        },
        {
          "internalType": "uint256",
          "name": "amount",
          "type": "uint256"
        },
        {
          "internalType": "bytes",
          "name": "data",
          "type": "bytes"
        }
      ],
      "name": "transferAndCall",
      "outputs": [
        {
          "internalType": "bool",
          "name": "",
          "type": "bool"
        }
      ],
      "stateMutability": "nonpayable",
      "type": "function"
    },
    {
      "inputs": [
        {
          "internalType": "address",
          "name": "from",
          "type": "address"
        },
        {
          "internalType": "address",
          "name": "to",
          "type": "address"
        },
        {
          "internalType": "uint256",
          "name": "amount",
          "type": "uint256"
        }
      ],
      "name": "transferFrom",
      "outputs": [
        {
          "internalType": "bool",
          "name": "",
          "type": "bool"
        }
      ],
      "stateMutability": "nonpayable",
      "type": "function"
    },
    {
      "inputs": [
        {
          "internalType": "address",
          "name": "from",
          "type": "address"
        },
        {
          "internalType": "address",
          "name": "to",
          "type": "address"
        },
        {
          "internalType": "uint256",
          "name": "amount",
          "type": "uint256"
        },
        {
          "internalType": "bytes",
          "name": "data",
          "type": "bytes"
        }
      ],
      "name": "transferFromAndCall",
      "outputs": [
        {
          "internalType": "bool",
          "name": "",
          "type": "bool"
        }
      ],
      "stateMutability": "nonpayable",
      "type": "function"
    },
    {
      "inputs": [
        {
          "internalType": "address",
          "name": "forAddress",
          "type": "address"
        },
        {
          "internalType": "address",
          "name": "to",
          "type": "address"
        },
        {
          "internalType": "uint256",
          "name": "amount",
          "type": "uint256"
        },
        {
          "internalType": "bytes",
          "name": "data",
          "type": "bytes"
        }
      ],
      "name": "transferOnBehalfAndCall",
      "outputs": [
        {
          "internalType": "bool",
          "name": "",
          "type": "bool"
        }
      ],
      "stateMutability": "nonpayable",
      "type": "function"
    },
    {
      "inputs": [
        {
          "internalType": "address",
          "name": "newOwner",
          "type": "address"
        }
      ],
      "name": "transferOwnership",
      "outputs": [],
      "stateMutability": "nonpayable",
      "type": "function"
    },
    {
      "inputs": [
        {
          "internalType": "contract IERC20",
          "name": "token",
          "type": "address"
        },
        {
          "internalType": "address",
          "name": "to",
          "type": "address"
        }
      ],
      "name": "withdrawERC20",
      "outputs": [],
      "stateMutability": "nonpayable",
      "type": "function"
    }
  ],
  "contractName": "Gems",
  "sourceName": "src/token/Gems.sol",
  "bytecode": "0x60e0346200020557601f62001e2b38819003918201601f19168301926001600160401b039290918385118386101762000197578160609284926040978852833981010312620002055762000053816200020a565b8362000062602084016200020a565b920151926001600160a01b03918083169081620001b5575b50504660805230620001ad5730915b8260c05285518681018181108482111762000197576004916020918952828152016347656d7360e01b815220938187519460208601967f8cad95687ba82c2ce50e74f7b754645e5117c3a5bec8151c0726d5857980a8668852898701524660608701521660808501526080845260a08401928484109084111762000197576000947fddf252ad1be2c89b69c2b068fc378daa952ba7f163c4a11628f55a4df523b3ef94602094895251902060a052620001448686546200021f565b85551693848452600182528584206200015f8282546200021f565b90558551908152a351611be7908162000244823960805181611a7d015260a05181611aa3015260c051818181610c6a0152611b680152f35b634e487b7160e01b600052604160045260246000fd5b309162000089565b7fb53127684a568b3173ae13b9f8a6016e243e63b6e8ee1178d6a717850b5d61035560007f8be0079c531659141344cd1fd0a4f28419497f9722a3daafe3b4186f6b6457e08180a338806200007a565b600080fd5b51906001600160a01b03821682036200020557565b919082018092116200022d57565b634e487b7160e01b600052601160045260246000fdfe6080604081815260048036101561001557600080fd5b600092833560e01c90816306fdde031461132457508063095ea7b3146112dc5780630e02df54146110ad57806318160ddd1461107257806321670f2214610f9357806323b872dd14610f43578063313ce56714610f095780633644e51514610ece578381634000aea014610e5c5750806365520efa14610d9457806370a0823114610d325780637ecebe0014610cd057806384b0196e14610b7b5780638da5cb5b14610b0957806390ad4ad814610aa45780639456fbcc146108f457806395d89b4114610875578063a9059cbb1461082657838163c1d34b89146107b4578163cae9ca51146106e857508063d505accf14610406578063dd62ed3e146103b3578063e132a49c1461029a578063e7fcb0651461020d5763f2fde38b1461013a57600080fd5b346102095760207ffffffffffffffffffffffffffffffffffffffffffffffffffffffffffffffffc360112610209576101716113f8565b7fb53127684a568b3173ae13b9f8a6016e243e63b6e8ee1178d6a717850b5d610380549273ffffffffffffffffffffffffffffffffffffffff809416948533036101e357505081905516907f8be0079c531659141344cd1fd0a4f28419497f9722a3daafe3b4186f6b6457e08380a380f35b517fea8e4eb5000000000000000000000000000000000000000000000000000000008152fd5b8280fd5b5050807ffffffffffffffffffffffffffffffffffffffffffffffffffffffffffffffffc360112610296578180808073ffffffffffffffffffffffffffffffffffffffff6102596113f8565b16610267602435823361187f565b8190341561028c575b3491f115610282576020905160018152f35b51903d90823e3d90fd5b6108fc9150610270565b5080fd5b5091903461029657807ffffffffffffffffffffffffffffffffffffffffffffffffffffffffffffffffc360112610296576102d36113f8565b926024358015158091036103af5773ffffffffffffffffffffffffffffffffffffffff807fb53127684a568b3173ae13b9f8a6016e243e63b6e8ee1178d6a717850b5d610354163303610387577f8ca5286ca61361caa1112bea7ae9f3a6963a05629399d1fd8fdb91c0e10cda22949516918286526020528285207fffffffffffffffffffffffffffffffffffffffffffffffffffffffffffffff0081541660ff831617905582519182526020820152a180f35b8284517fea8e4eb5000000000000000000000000000000000000000000000000000000008152fd5b8380fd5b50503461029657807ffffffffffffffffffffffffffffffffffffffffffffffffffffffffffffffffc360112610296576020906103ff6103f16113f8565b6103f9611420565b90611760565b9051908152f35b509190346102965760e07ffffffffffffffffffffffffffffffffffffffffffffffffffffffffffffffffc360112610296576104406113f8565b610448611420565b9060443592606435906084359160ff83168093036106e45773ffffffffffffffffffffffffffffffffffffffff908185169182156106b55782895260036020528389205494610495611a7a565b9085519060208201927f6e71edae12b1b97f4d1f60370fef10105fa2faae0126114a169c64845d6126c984528688840152848b1660608401528b60808401528860a08401528560c084015260c0835260e0830167ffffffffffffffff948482108683111761068857818a52845190206101008501927f19010000000000000000000000000000000000000000000000000000000000008452610102860152610122850152604281526101608401948186109086111761065a57848952519020835261018082015260a4356101a082015260c4356101c0909101528980526020908a9060809060015afa15610650578851168203610628578015158061061f575b6105e95750600183018093116105bd57866105ba9798505260036020528620556117c4565b80f35b60248760118a7f4e487b7100000000000000000000000000000000000000000000000000000000835252fd5b886044918451917fdd6b219a00000000000000000000000000000000000000000000000000000000835242908301526024820152fd5b50804211610595565b8883517f8baa579f000000000000000000000000000000000000000000000000000000008152fd5b83513d8a823e3d90fd5b505060248c60418f7f4e487b7100000000000000000000000000000000000000000000000000000000835252fd5b8f8f60416024927f4e487b7100000000000000000000000000000000000000000000000000000000835252fd5b60248a8a8651917f8e4c8aa6000000000000000000000000000000000000000000000000000000008352820152fd5b8680fd5b808484346107b05760209073ffffffffffffffffffffffffffffffffffffffff61071136611519565b9791929390946107228486336117c4565b6107598851998a97889687947eba451f0000000000000000000000000000000000000000000000000000000086523390860161171e565b0393165af19182156107a65760209392610777575b50519015158152f35b610798919250833d851161079f575b61079081836114aa565b8101906116c7565b908361076e565b503d610786565b81513d85823e3d90fd5b5050fd5b808484346107b05761075960209173ffffffffffffffffffffffffffffffffffffffff6107e03661158b565b6107f3838587989699959a949d97611986565b89519a8b98899788957fa4c0ed36000000000000000000000000000000000000000000000000000000008752860161171e565b50503461029657807ffffffffffffffffffffffffffffffffffffffffffffffffffffffffffffffffc3601126102965760209061086e6108646113f8565b602435903361187f565b5160018152f35b50503461029657817ffffffffffffffffffffffffffffffffffffffffffffffffffffffffffffffffc3601126102965780516108f0916108b482611443565b600382527f47454d000000000000000000000000000000000000000000000000000000000060208301525191829160208352602083019061139a565b0390f35b503461020957817ffffffffffffffffffffffffffffffffffffffffffffffffffffffffffffffffc3601126102095780359173ffffffffffffffffffffffffffffffffffffffff92838116809103610aa05761094e611420565b93807fb53127684a568b3173ae13b9f8a6016e243e63b6e8ee1178d6a717850b5d610354163303610a78578251947f70a082310000000000000000000000000000000000000000000000000000000086523085870152866020968781602481885afa908115610a6e579082918995949391610a37575b50946044939495875198899687957fa9059cbb000000000000000000000000000000000000000000000000000000008752169085015260248401525af1908115610a2e5750610a11578280f35b81610a2792903d1061079f5761079081836114aa565b5038808280f35b513d85823e3d90fd5b8581959692503d8311610a67575b610a4f81836114aa565b81010312610a645791518793929060446109c4565b80fd5b503d610a45565b86513d84823e3d90fd5b5050517fea8e4eb5000000000000000000000000000000000000000000000000000000008152fd5b8480fd5b50346102095760207ffffffffffffffffffffffffffffffffffffffffffffffffffffffffffffffffc360112610209578160209360ff9273ffffffffffffffffffffffffffffffffffffffff610af86113f8565b168252855220541690519015158152f35b50503461029657817ffffffffffffffffffffffffffffffffffffffffffffffffffffffffffffffffc3601126102965760209073ffffffffffffffffffffffffffffffffffffffff7fb53127684a568b3173ae13b9f8a6016e243e63b6e8ee1178d6a717850b5d610354915191168152f35b509134610a6457807ffffffffffffffffffffffffffffffffffffffffffffffffffffffffffffffffc360112610a645790610c3f9291815192610bbd84611443565b835260207f47656d730000000000000000000000000000000000000000000000000000000081850152610c4c835193610bf58561148e565b838552805194610c048661148e565b84865281519788977f0d00000000000000000000000000000000000000000000000000000000000000895260e0868a015260e089019061139a565b918783039088015261139a565b9046606086015273ffffffffffffffffffffffffffffffffffffffff7f00000000000000000000000000000000000000000000000000000000000000001660808601528260a086015284820360c08601528080855193848152019401925b828110610cb957505050500390f35b835185528695509381019392810192600101610caa565b5050346102965760207ffffffffffffffffffffffffffffffffffffffffffffffffffffffffffffffffc360112610296578060209273ffffffffffffffffffffffffffffffffffffffff610d226113f8565b1681526003845220549051908152f35b5050346102965760207ffffffffffffffffffffffffffffffffffffffffffffffffffffffffffffffffc360112610296578060209273ffffffffffffffffffffffffffffffffffffffff610d846113f8565b1681526001845220549051908152f35b50903461020957602083610da73661158b565b90949197610db8898596953361187f565b610e2073ffffffffffffffffffffffffffffffffffffffff9687938a519b8c998a9889967f2eedcb71000000000000000000000000000000000000000000000000000000008852339088015216602486015260448501526080606485015260848401916116df565b0393165af19182156107a65760209392610e3d5750519015158152f35b610e55919250833d851161079f5761079081836114aa565b903861076e565b808484346107b05760209073ffffffffffffffffffffffffffffffffffffffff610e8536611519565b979192939094610e9684863361187f565b6107598851998a97889687947fa4c0ed360000000000000000000000000000000000000000000000000000000086523390860161171e565b50503461029657817ffffffffffffffffffffffffffffffffffffffffffffffffffffffffffffffffc360112610296576020906103ff611a7a565b50503461029657817ffffffffffffffffffffffffffffffffffffffffffffffffffffffffffffffffc360112610296576020905160128152f35b5050346102965760607ffffffffffffffffffffffffffffffffffffffffffffffffffffffffffffffffc3601126102965760209061086e610f826113f8565b610f8a611420565b60443591611986565b503461020957817ffffffffffffffffffffffffffffffffffffffffffffffffffffffffffffffffc36011261020957610fca6113f8565b602435913385528060205260ff84862054161561104b575060208273ffffffffffffffffffffffffffffffffffffffff7fddf252ad1be2c89b69c2b068fc378daa952ba7f163c4a11628f55a4df523b3ef9361102888968754611753565b8655169485855260018352808520611041838254611753565b905551908152a380f35b83517fea8e4eb5000000000000000000000000000000000000000000000000000000008152fd5b50503461029657817ffffffffffffffffffffffffffffffffffffffffffffffffffffffffffffffffc36011261029657602091549051908152f35b5090807ffffffffffffffffffffffffffffffffffffffffffffffffffffffffffffffffc3601126102095767ffffffffffffffff8235818111610aa05736602382011215610aa057808401359060249282116112b1578160051b9060209185519361111b60208301866114aa565b8452846020850191830101913683116112ad578501905b82821061127d575050505081359361114b825134611609565b92611157835185611642565b340361123d57611168835187611609565b95611174845188611642565b81036111fe575050509284908215915b85518110156111f4578680808087856111c0888d6111b873ffffffffffffffffffffffffffffffffffffffff948592611684565b51163361187f565b6111ca878d611684565b511682896111eb575bf1156111e157600101611184565b84513d88823e3d90fd5b506108fc6111d3565b6020855160018152f35b90859161120f886044965190611642565b9251937fe93890a2000000000000000000000000000000000000000000000000000000008552840152820152fd5b61124d6044948693945190611642565b9151927f1f89f6710000000000000000000000000000000000000000000000000000000084523490840152820152fd5b813573ffffffffffffffffffffffffffffffffffffffff811681036112a9578152908301908301611132565b8980fd5b8880fd5b82866041877f4e487b7100000000000000000000000000000000000000000000000000000000835252fd5b50503461029657807ffffffffffffffffffffffffffffffffffffffffffffffffffffffffffffffffc3601126102965760209061086e61131a6113f8565b60243590336117c4565b92919050346103af57837ffffffffffffffffffffffffffffffffffffffffffffffffffffffffffffffffc3601126103af576108f0935061136483611443565b82527f47656d73000000000000000000000000000000000000000000000000000000006020830152519182916020835260208301905b919082519283825260005b8481106113e45750507fffffffffffffffffffffffffffffffffffffffffffffffffffffffffffffffe0601f8460006020809697860101520116010190565b6020818301810151848301820152016113a5565b6004359073ffffffffffffffffffffffffffffffffffffffff8216820361141b57565b600080fd5b6024359073ffffffffffffffffffffffffffffffffffffffff8216820361141b57565b6040810190811067ffffffffffffffff82111761145f57604052565b7f4e487b7100000000000000000000000000000000000000000000000000000000600052604160045260246000fd5b6020810190811067ffffffffffffffff82111761145f57604052565b90601f7fffffffffffffffffffffffffffffffffffffffffffffffffffffffffffffffe0910116810190811067ffffffffffffffff82111761145f57604052565b9181601f8401121561141b5782359167ffffffffffffffff831161141b576020838186019501011161141b57565b60607ffffffffffffffffffffffffffffffffffffffffffffffffffffffffffffffffc82011261141b5760043573ffffffffffffffffffffffffffffffffffffffff8116810361141b5791602435916044359067ffffffffffffffff821161141b57611587916004016114eb565b9091565b9060807ffffffffffffffffffffffffffffffffffffffffffffffffffffffffffffffffc83011261141b5773ffffffffffffffffffffffffffffffffffffffff91600435838116810361141b5792602435908116810361141b5791604435916064359067ffffffffffffffff821161141b57611587916004016114eb565b8115611613570490565b7f4e487b7100000000000000000000000000000000000000000000000000000000600052601260045260246000fd5b8181029291811591840414171561165557565b7f4e487b7100000000000000000000000000000000000000000000000000000000600052601160045260246000fd5b80518210156116985760209160051b010190565b7f4e487b7100000000000000000000000000000000000000000000000000000000600052603260045260246000fd5b9081602091031261141b5751801515810361141b5790565b601f82602094937fffffffffffffffffffffffffffffffffffffffffffffffffffffffffffffffe0938186528686013760008582860101520116010190565b611750949273ffffffffffffffffffffffffffffffffffffffff606093168252602082015281604082015201916116df565b90565b9190820180921161165557565b73ffffffffffffffffffffffffffffffffffffffff80911630811461179d5760005260026020526040600020911660005260205260406000205490565b5050507fffffffffffffffffffffffffffffffffffffffffffffffffffffffffffffffff90565b909173ffffffffffffffffffffffffffffffffffffffff8092169182158015611868575b611837577f8c5be1e5ebec7d5bd14f71427d1e84f3dd0314c0f7b2291e5b200ac8c7c3b925916020918460005260028352604060002095169485600052825280604060002055604051908152a3565b60246040517f8e4c8aa600000000000000000000000000000000000000000000000000000000815260006004820152fd5b50808416156117e8565b9190820391821161165557565b919073ffffffffffffffffffffffffffffffffffffffff809116928315801561197d575b61194c571690600082815260016020526040812054828110611915579160406020926118f0837fddf252ad1be2c89b69c2b068fc378daa952ba7f163c4a11628f55a4df523b3ef96611872565b86825260018552828220558681522061190a828254611753565b9055604051908152a3565b60449083604051917f6584853f00000000000000000000000000000000000000000000000000000000835260048301526024820152fd5b602484604051907f8e4c8aa60000000000000000000000000000000000000000000000000000000082526004820152fd5b503084146118a3565b92919073ffffffffffffffffffffffffffffffffffffffff8416938433141580611a70575b6119bd575b6119bb93945061187f565b565b60009480865260026020526040862033875260205260408620547fffffffffffffffffffffffffffffffffffffffffffffffffffffffffffffffff8103611a06575b50506119b0565b848110611a39576119bb9596611a1e86604093611872565b928152600260205281812033825260205220558493386119ff565b60449085604051917f95fcd25400000000000000000000000000000000000000000000000000000000835260048301526024820152fd5b50308514156119ab565b467f000000000000000000000000000000000000000000000000000000000000000003611ac5577f000000000000000000000000000000000000000000000000000000000000000090565b7f47656d73000000000000000000000000000000000000000000000000000000006020604051611af481611443565b60048152015260405160208101907f8cad95687ba82c2ce50e74f7b754645e5117c3a5bec8151c0726d5857980a86682527f849d51b8b51243870209a85889ba65314e382851046895233ed0df7e2b72de49604082015246606082015273ffffffffffffffffffffffffffffffffffffffff7f00000000000000000000000000000000000000000000000000000000000000001660808201526080815260a0810181811067ffffffffffffffff82111761145f576040525190209056fea264697066735822122087a42bc456abf881d9342a84cb119547fbefdb12524460c5a96f167cc9e5efdc64736f6c63430008180033",
  "linkReferences": {},
  "deployedLinkReferences": {},
  "devdoc": {
    "errors": {
      "DeadlineOver(uint256,uint256)": [
        {
          "params": {
            "currentTime": "time at which the error happen",
            "deadline": "the deadline"
          }
        }
      ],
      "InvalidAddress(address)": [
        {
          "params": {
            "addr": "invalid address"
          }
        }
      ],
      "InvalidMsgValue(uint256,uint256)": [
        {
          "params": {
            "expected": "value expected",
            "provided": "msg.value amount provided"
          }
        }
      ],
      "InvalidTotalAmount(uint256,uint256)": [
        {
          "params": {
            "expected": "value expected",
            "provided": "msg.value amount provided"
          }
        }
      ],
      "NotAuthorizedAllowance(uint256,uint256)": [
        {
          "params": {
            "currentAllowance": "the current allowance",
            "expected": "amount expected"
          }
        }
      ],
      "NotEnoughTokens(uint256,uint256)": [
        {
          "params": {
            "currentBalance": "the current balance",
            "expected": "amount expected"
          }
        }
      ]
    },
    "events": {
      "Approval(address,address,uint256)": {
        "params": {
          "owner": "the account approving the `spender`",
          "spender": "the account allowed to spend",
          "value": "the amount granted"
        }
      },
      "OwnershipTransferred(address,address)": {
        "params": {
          "newOwner": "the new owner",
          "previousOwner": "the previous owner"
        }
      },
      "Transfer(address,address,uint256)": {
        "params": {
          "from": "the account the tokens are sent from",
          "to": "the account the tokens are sent to",
          "value": "number of tokens sent"
        }
      }
    },
    "kind": "dev",
    "methods": {
      "approveAndCall(address,uint256,bytes)": {
        "params": {
          "amount": "number of token to transfer",
          "data": "extra data",
          "spender": "account to send the token for"
        },
        "returns": {
          "_0": "success"
        }
      },
      "eip712Domain()": {
        "returns": {
          "chainID": "EIP-712 chainID",
          "extensions": "A list of EIP numbers that specify additional fields in the domain. The method to obtain the value for each of these additional fields and any conditions for inclusion are expected to be specified in the respective EIP. The value of fields does not affect their inclusion.",
          "fields": "A bit map where bit i is set to 1 if and only if domain field i is present (0 ≤ i ≤ 4). Bits are read from least significant to most significant, and fields are indexed in the order that is specified by EIP-712, identical to the order in which they are listed in the function type.",
          "name": "EIP-712 name",
          "salt": "EIP-712 salt",
          "verifyingContract": "EIP-712 name verifyingContract",
          "version": "EIP-712 version"
        }
      },
      "nonces(address)": {
        "params": {
          "owner": "address queried"
        },
        "returns": {
          "_0": "nonce value"
        }
      },
      "owner()": {
        "returns": {
          "_0": "The address of the owner."
        }
      },
      "permit(address,address,uint256,uint256,uint8,bytes32,bytes32)": {
        "params": {
          "deadline": "timestamp in seconds after which the permit is not valid.",
          "owner": "owner of the tokens",
          "r": "signature part r",
          "s": "signature part s",
          "spender": "address allowed to spend on behalf of the owner.",
          "v": "signature part v",
          "value": "amount of token allowed to be spent"
        }
      },
      "transferAndCall(address,uint256,bytes)": {
        "params": {
          "amount": "number of token to transfer",
          "data": "extra data",
          "to": "account to receive the tokens"
        },
        "returns": {
          "_0": "success"
        }
      },
      "transferFromAndCall(address,address,uint256,bytes)": {
        "params": {
          "amount": "number of token to transfer",
          "data": "extra data",
          "from": "account to send the token from",
          "to": "account to receive the tokens"
        },
        "returns": {
          "_0": "success"
        }
      },
      "transferOnBehalfAndCall(address,address,uint256,bytes)": {
        "params": {
          "amount": "number of token to transfer",
          "data": "extra data",
          "forAddress": "account to send the token for",
          "to": "account to receive the tokens"
        },
        "returns": {
          "_0": "success"
        }
      },
      "transferOwnership(address)": {
        "details": "Set newOwner to address(0) to renounce any ownership.",
        "params": {
          "newOwner": "The address of the new owner of the contract"
        }
      },
      "withdrawERC20(address,address)": {
        "params": {
          "to": "address that will receive the tokens",
          "token": "ERC20 contract address to withdraw"
        }
      }
    },
    "title": "Gems Tokens",
    "version": 1
  },
  "evm": {
    "gasEstimates": {
      "creation": {
        "codeDepositCost": "1428600",
        "executionCost": "infinite",
        "totalCost": "infinite"
      },
      "external": {
        "DOMAIN_SEPARATOR()": "infinite",
        "allowance(address,address)": "3057",
        "approve(address,uint256)": "24396",
        "approveAndCall(address,uint256,bytes)": "infinite",
        "balanceOf(address)": "2623",
        "decimals()": "300",
        "distributeAlongWithETH(address[],uint256)": "infinite",
        "eip712Domain()": "infinite",
        "generators(address)": "2721",
        "name()": "infinite",
        "nonces(address)": "2645",
        "owner()": "2571",
        "permit(address,address,uint256,uint256,uint8,bytes32,bytes32)": "infinite",
        "reward(address,uint256)": "infinite",
        "setGenerator(address,bool)": "28476",
        "symbol()": "infinite",
        "totalSupply()": "2337",
        "transfer(address,uint256)": "51256",
        "transferAlongWithETH(address,uint256)": "infinite",
        "transferAndCall(address,uint256,bytes)": "infinite",
        "transferFrom(address,address,uint256)": "53439",
        "transferFromAndCall(address,address,uint256,bytes)": "infinite",
        "transferOnBehalfAndCall(address,address,uint256,bytes)": "infinite",
        "transferOwnership(address)": "26509",
        "withdrawERC20(address,address)": "infinite"
      }
    }
  },
  "storageLayout": {
    "storage": [
      {
        "astId": 9974,
        "contract": "src/token/Gems.sol:Gems",
        "label": "_totalSupply",
        "offset": 0,
        "slot": "0",
        "type": "t_uint256"
      },
      {
        "astId": 9978,
        "contract": "src/token/Gems.sol:Gems",
        "label": "_balances",
        "offset": 0,
        "slot": "1",
        "type": "t_mapping(t_address,t_uint256)"
      },
      {
        "astId": 9984,
        "contract": "src/token/Gems.sol:Gems",
        "label": "_allowances",
        "offset": 0,
        "slot": "2",
        "type": "t_mapping(t_address,t_mapping(t_address,t_uint256))"
      },
      {
        "astId": 9732,
        "contract": "src/token/Gems.sol:Gems",
        "label": "_nonces",
        "offset": 0,
        "slot": "3",
        "type": "t_mapping(t_address,t_uint256)"
      },
      {
        "astId": 18476,
        "contract": "src/token/Gems.sol:Gems",
        "label": "generators",
        "offset": 0,
        "slot": "4",
        "type": "t_mapping(t_address,t_bool)"
      }
    ],
    "types": {
      "t_address": {
        "encoding": "inplace",
        "label": "address",
        "numberOfBytes": "20"
      },
      "t_bool": {
        "encoding": "inplace",
        "label": "bool",
        "numberOfBytes": "1"
      },
      "t_mapping(t_address,t_bool)": {
        "encoding": "mapping",
        "key": "t_address",
        "label": "mapping(address => bool)",
        "numberOfBytes": "32",
        "value": "t_bool"
      },
      "t_mapping(t_address,t_mapping(t_address,t_uint256))": {
        "encoding": "mapping",
        "key": "t_address",
        "label": "mapping(address => mapping(address => uint256))",
        "numberOfBytes": "32",
        "value": "t_mapping(t_address,t_uint256)"
      },
      "t_mapping(t_address,t_uint256)": {
        "encoding": "mapping",
        "key": "t_address",
        "label": "mapping(address => uint256)",
        "numberOfBytes": "32",
        "value": "t_uint256"
      },
      "t_uint256": {
        "encoding": "inplace",
        "label": "uint256",
        "numberOfBytes": "32"
      }
    }
  },
  "userdoc": {
    "errors": {
      "DeadlineOver(uint256,uint256)": [
        {
          "notice": "The permit has expired"
        }
      ],
      "InvalidAddress(address)": [
        {
          "notice": "An invalid address is specified (for example: zero address)"
        }
      ],
      "InvalidMsgValue(uint256,uint256)": [
        {
          "notice": "The msg value do not match the expected value"
        }
      ],
      "InvalidSignature()": [
        {
          "notice": "The signature do not match the expected signer"
        }
      ],
      "InvalidTotalAmount(uint256,uint256)": [
        {
          "notice": "The total amount provided do not match the expected value"
        }
      ],
      "NotAuthorized()": [
        {
          "notice": "Not authorized to perform this operation"
        }
      ],
      "NotAuthorizedAllowance(uint256,uint256)": [
        {
          "notice": "the amount requested exceed the allowance"
        }
      ],
      "NotEnoughTokens(uint256,uint256)": [
        {
          "notice": "the amount requested exceed the balance"
        }
      ]
    },
    "events": {
      "Approval(address,address,uint256)": {
        "notice": "trigger on approval amount being set.   Note that Transfer events need to be considered to compute the current allowance."
      },
      "OwnershipTransferred(address,address)": {
        "notice": "This emits when ownership of the contract changes."
      },
      "Transfer(address,address,uint256)": {
        "notice": "trigger when tokens are transferred, including zero value transfers."
      }
    },
    "kind": "user",
    "methods": {
      "DOMAIN_SEPARATOR()": {
        "notice": "EIP-712 Domain separator hash"
      },
      "allowance(address,address)": {
        "notice": "Returns the amount which `spender` is still allowed to withdraw from `owner`."
      },
      "approve(address,uint256)": {
        "notice": "Allows `spender` to withdraw from your account multiple times, up to `amount`."
      },
      "approveAndCall(address,uint256,bytes)": {
        "notice": "approve `amount` token to be spent by `spender` and callback into it via `onTokenApproval`"
      },
      "balanceOf(address)": {
        "notice": "Returns the account balance of another account with address `owner`."
      },
      "decimals()": {
        "notice": "Returns the number of decimals the token uses."
      },
      "distributeAlongWithETH(address[],uint256)": {
        "notice": "distribute"
      },
      "eip712Domain()": {
        "notice": "The return values of this function MUST describe the domain separator that is used for verification of EIP-712 signatures in the contract. They describe both the form of the EIP712Domain struct (i.e., which of the optional fields and extensions are present) and the value of each field, as follows."
      },
      "name()": {
        "notice": "Returns the name of the token."
      },
      "nonces(address)": {
        "notice": "return the current nonce of the owner"
      },
      "owner()": {
        "notice": "Get the address of the owner"
      },
      "permit(address,address,uint256,uint256,uint8,bytes32,bytes32)": {
        "notice": "allow `spender` to spend `value` amount of token on behalf of `owner`"
      },
      "symbol()": {
        "notice": "Returns the symbol of the token."
      },
      "totalSupply()": {
        "notice": "Returns the total token supply."
      },
      "transfer(address,uint256)": {
        "notice": "Transfers `amount` of tokens to address `to`."
      },
      "transferAlongWithETH(address,uint256)": {
        "notice": "transfer"
      },
      "transferAndCall(address,uint256,bytes)": {
        "notice": "transfer `amount` token to `to` and callback into it via `onTokenTransfer`"
      },
      "transferFrom(address,address,uint256)": {
        "notice": "Transfers `amount` tokens from address `from` to address `to`."
      },
      "transferFromAndCall(address,address,uint256,bytes)": {
        "notice": "transfer `amount` token to `to` and callback into it via `onTokenTransfer`"
      },
      "transferOnBehalfAndCall(address,address,uint256,bytes)": {
        "notice": "transfer `amount` token to `to` and callback into it via `onTokenTransferedOnBehalf`"
      },
      "transferOwnership(address)": {
        "notice": "Set the address of the new owner of the contract"
      },
      "withdrawERC20(address,address)": {
        "notice": "withdraw the total balance of a particular ERC20 token owned by this contract."
      }
    },
    "notice": "Gems Tokens initialy generated by playing instances of Stratagems",
    "version": 1
  },
  "argsData": "0x00000000000000000000000061c461ecc993aadeb7e4b47e96d1b8cc37314b20000000000000000000000000e53cd71271acadbeb0f64d9c8c62bbddc8ca9e6600000000000000000000000000000000000000000000003635c9adc5dea00000",
  "transaction": {
    "hash": "0xa953c408a97a179fa0627ec776c4c14c4ad352474068ab96d6a65965e378a254",
    "origin": "0x61c461ecc993aadeb7e4b47e96d1b8cc37314b20"
  }
}