{
  "address": "0x00466d78b4b5f9e85337f0d71bedbb5ffe33fa62",
  "abi": [
    {
      "inputs": [
        {
          "internalType": "contract IReward",
          "name": "rewardAddress",
          "type": "address"
        },
        {
          "components": [
            {
              "internalType": "uint256",
              "name": "rewardRateMillionth",
              "type": "uint256"
            },
            {
              "internalType": "uint256",
              "name": "fixedRewardRateThousandsMillionth",
              "type": "uint256"
            }
          ],
          "internalType": "struct RewardsGenerator.Config",
          "name": "config",
          "type": "tuple"
        },
        {
          "internalType": "address[]",
          "name": "initialGames",
          "type": "address[]"
        }
      ],
      "stateMutability": "nonpayable",
      "type": "constructor"
    },
    {
      "inputs": [],
      "name": "NonTransferable",
      "type": "error"
    },
    {
      "inputs": [],
      "name": "NotAuthorized",
      "type": "error"
    },
    {
      "anonymous": false,
      "inputs": [
        {
          "indexed": true,
          "internalType": "address",
          "name": "owner",
          "type": "address"
        },
        {
          "indexed": true,
          "internalType": "address",
          "name": "spender",
          "type": "address"
        },
        {
          "indexed": false,
          "internalType": "uint256",
          "name": "value",
          "type": "uint256"
        }
      ],
      "name": "Approval",
      "type": "event"
    },
    {
      "anonymous": false,
      "inputs": [
        {
          "indexed": true,
          "internalType": "address",
          "name": "game",
          "type": "address"
        },
        {
          "indexed": false,
          "internalType": "uint256",
          "name": "weight",
          "type": "uint256"
        },
        {
          "indexed": false,
          "internalType": "uint256",
          "name": "timestamp",
          "type": "uint256"
        }
      ],
      "name": "GameEnabled",
      "type": "event"
    },
    {
      "anonymous": false,
      "inputs": [
        {
          "indexed": true,
          "internalType": "address",
          "name": "from",
          "type": "address"
        },
        {
          "indexed": true,
          "internalType": "address",
          "name": "to",
          "type": "address"
        },
        {
          "indexed": false,
          "internalType": "uint256",
          "name": "value",
          "type": "uint256"
        }
      ],
      "name": "Transfer",
      "type": "event"
    },
    {
      "inputs": [],
      "name": "REWARD",
      "outputs": [
        {
          "internalType": "contract IReward",
          "name": "",
          "type": "address"
        }
      ],
      "stateMutability": "view",
      "type": "function"
    },
    {
      "inputs": [
        {
          "internalType": "address",
          "name": "account",
          "type": "address"
        },
        {
          "internalType": "uint256",
          "name": "amount",
          "type": "uint256"
        }
      ],
      "name": "add",
      "outputs": [],
      "stateMutability": "nonpayable",
      "type": "function"
    },
    {
      "inputs": [
        {
          "internalType": "address",
          "name": "",
          "type": "address"
        },
        {
          "internalType": "address",
          "name": "",
          "type": "address"
        }
      ],
      "name": "allowance",
      "outputs": [
        {
          "internalType": "uint256",
          "name": "",
          "type": "uint256"
        }
      ],
      "stateMutability": "pure",
      "type": "function"
    },
    {
      "inputs": [
        {
          "internalType": "address",
          "name": "",
          "type": "address"
        },
        {
          "internalType": "uint256",
          "name": "",
          "type": "uint256"
        }
      ],
      "name": "approve",
      "outputs": [
        {
          "internalType": "bool",
          "name": "",
          "type": "bool"
        }
      ],
      "stateMutability": "pure",
      "type": "function"
    },
    {
      "inputs": [
        {
          "internalType": "address",
          "name": "owner",
          "type": "address"
        }
      ],
      "name": "balanceOf",
      "outputs": [
        {
          "internalType": "uint256",
          "name": "",
          "type": "uint256"
        }
      ],
      "stateMutability": "view",
      "type": "function"
    },
    {
      "inputs": [
        {
          "internalType": "address",
          "name": "to",
          "type": "address"
        }
      ],
      "name": "claimFixedRewards",
      "outputs": [],
      "stateMutability": "nonpayable",
      "type": "function"
    },
    {
      "inputs": [
        {
          "internalType": "address",
          "name": "to",
          "type": "address"
        }
      ],
      "name": "claimSharedPoolRewards",
      "outputs": [],
      "stateMutability": "nonpayable",
      "type": "function"
    },
    {
      "inputs": [],
      "name": "decimals",
      "outputs": [
        {
          "internalType": "uint8",
          "name": "",
          "type": "uint8"
        }
      ],
      "stateMutability": "pure",
      "type": "function"
    },
    {
      "inputs": [
        {
          "internalType": "address",
          "name": "account",
          "type": "address"
        }
      ],
      "name": "earnedFromFixedRate",
      "outputs": [
        {
          "internalType": "uint256",
          "name": "",
          "type": "uint256"
        }
      ],
      "stateMutability": "view",
      "type": "function"
    },
    {
      "inputs": [
        {
          "internalType": "address[]",
          "name": "accounts",
          "type": "address[]"
        }
      ],
      "name": "earnedFromFixedRateMultipleAccounts",
      "outputs": [
        {
          "internalType": "uint256[]",
          "name": "result",
          "type": "uint256[]"
        }
      ],
      "stateMutability": "view",
      "type": "function"
    },
    {
      "inputs": [
        {
          "internalType": "address",
          "name": "account",
          "type": "address"
        }
      ],
      "name": "earnedFromPoolRate",
      "outputs": [
        {
          "internalType": "uint256",
          "name": "",
          "type": "uint256"
        }
      ],
      "stateMutability": "view",
      "type": "function"
    },
    {
      "inputs": [
        {
          "internalType": "address[]",
          "name": "accounts",
          "type": "address[]"
        }
      ],
      "name": "earnedFromPoolRateMultipleAccounts",
      "outputs": [
        {
          "internalType": "uint256[]",
          "name": "result",
          "type": "uint256[]"
        }
      ],
      "stateMutability": "view",
      "type": "function"
    },
    {
      "inputs": [
        {
          "internalType": "address",
          "name": "game",
          "type": "address"
        },
        {
          "internalType": "uint256",
          "name": "weight",
          "type": "uint256"
        }
      ],
      "name": "enableGame",
      "outputs": [],
      "stateMutability": "nonpayable",
      "type": "function"
    },
    {
      "inputs": [
        {
          "internalType": "address",
          "name": "",
          "type": "address"
        }
      ],
      "name": "games",
      "outputs": [
        {
          "internalType": "uint256",
          "name": "",
          "type": "uint256"
        }
      ],
      "stateMutability": "view",
      "type": "function"
    },
    {
      "inputs": [],
      "name": "getTotalRewardPerPointWithPrecision24",
      "outputs": [
        {
          "internalType": "uint256",
          "name": "",
          "type": "uint256"
        }
      ],
      "stateMutability": "view",
      "type": "function"
    },
    {
      "inputs": [
        {
          "internalType": "address",
          "name": "from",
          "type": "address"
        },
        {
          "internalType": "address",
          "name": "to",
          "type": "address"
        },
        {
          "internalType": "uint256",
          "name": "amount",
          "type": "uint256"
        }
      ],
      "name": "move",
      "outputs": [],
      "stateMutability": "nonpayable",
      "type": "function"
    },
    {
      "inputs": [],
      "name": "name",
      "outputs": [
        {
          "internalType": "string",
          "name": "",
          "type": "string"
        }
      ],
      "stateMutability": "pure",
      "type": "function"
    },
    {
      "inputs": [
        {
          "internalType": "contract IReward",
          "name": "rewardAddress",
          "type": "address"
        },
        {
          "components": [
            {
              "internalType": "uint256",
              "name": "rewardRateMillionth",
              "type": "uint256"
            },
            {
              "internalType": "uint256",
              "name": "fixedRewardRateThousandsMillionth",
              "type": "uint256"
            }
          ],
          "internalType": "struct RewardsGenerator.Config",
          "name": "config",
          "type": "tuple"
        },
        {
          "internalType": "address[]",
          "name": "initialGames",
          "type": "address[]"
        }
      ],
      "name": "postUpgrade",
      "outputs": [],
      "stateMutability": "nonpayable",
      "type": "function"
    },
    {
      "inputs": [
        {
          "internalType": "address",
          "name": "account",
          "type": "address"
        },
        {
          "internalType": "uint256",
          "name": "amount",
          "type": "uint256"
        }
      ],
      "name": "remove",
      "outputs": [],
      "stateMutability": "nonpayable",
      "type": "function"
    },
    {
      "inputs": [],
      "name": "symbol",
      "outputs": [
        {
          "internalType": "string",
          "name": "",
          "type": "string"
        }
      ],
      "stateMutability": "view",
      "type": "function"
    },
    {
      "inputs": [],
      "name": "totalSupply",
      "outputs": [
        {
          "internalType": "uint256",
          "name": "",
          "type": "uint256"
        }
      ],
      "stateMutability": "view",
      "type": "function"
    },
    {
      "inputs": [
        {
          "internalType": "address",
          "name": "",
          "type": "address"
        },
        {
          "internalType": "uint256",
          "name": "",
          "type": "uint256"
        }
      ],
      "name": "transfer",
      "outputs": [
        {
          "internalType": "bool",
          "name": "",
          "type": "bool"
        }
      ],
      "stateMutability": "pure",
      "type": "function"
    },
    {
      "inputs": [
        {
          "internalType": "address",
          "name": "",
          "type": "address"
        },
        {
          "internalType": "address",
          "name": "",
          "type": "address"
        },
        {
          "internalType": "uint256",
          "name": "",
          "type": "uint256"
        }
      ],
      "name": "transferFrom",
      "outputs": [
        {
          "internalType": "bool",
          "name": "",
          "type": "bool"
        }
      ],
      "stateMutability": "pure",
      "type": "function"
    }
  ],
  "contractName": "RewardsGenerator",
  "sourceName": "src/token/RewardsGenerator.sol",
  "linkReferences": {},
  "deployedLinkReferences": {},
  "devdoc": {
    "events": {
      "Approval(address,address,uint256)": {
        "params": {
          "owner": "the account approving the `spender`",
          "spender": "the account allowed to spend",
          "value": "the amount granted"
        }
      },
      "Transfer(address,address,uint256)": {
        "params": {
          "from": "the account the tokens are sent from",
          "to": "the account the tokens are sent to",
          "value": "number of tokens sent"
        }
      }
    },
    "kind": "dev",
    "methods": {},
    "version": 1
  },
  "evm": {
    "bytecode": {
      "linkReferences": {},
      "object": "604060c08152346200024f5762001ae7803803806200001e816200026a565b928339810181810391608083126200024f578051926001600160a01b0380851685036200024f5785602092601f1901126200024f5785516001600160401b0395909390848801878111868210176200025457885283820151855287820151918486019283526060810151908882116200024f57019580601f880112156200024f57865197881162000254576005968860051b908680620000c08185016200026a565b809c815201928201019283116200024f578601905b828210620002355750505060a05251608052600194600154936000948554906200010d64ffffffffff92838316908360901c62000290565b602882901c6001600160681b03169081019290831062000221574216600160281b600160901b0360289390931b929092166001600160901b031991909116171760015551845560055460ff16156200018f575b86516117f29081620002f5823960805181611268015260a051818181610171015281816106b30152610c8c0152f35b859484955b620001ba575b50505050505050600160ff19600554161760055538808080808062000160565b81518610156200021b57868684868399851b8601015116808852600487527f50b08f8489c009db3c1b3f160cc0dae1c0c6706774750c001e4c083f9483d5f38b670de0b6b3a764000080828c20558151908152428a820152a2019562000194565b6200019a565b634e487b7160e01b88526011600452602488fd5b815186811681036200024f578152908601908601620000d5565b600080fd5b634e487b7160e01b600052604160045260246000fd5b6040519190601f01601f191682016001600160401b038111838210176200025457604052565b918215620002ec5780420391428311620002d657808302928304149042141715620002d65769d3c21bcecceda100000090818102918183041490151715620002d6570490565b634e487b7160e01b600052601160045260246000fd5b50505060009056fe60806040908082526004918236101561001757600080fd5b600091823560e01c908163066112f914610c395750806306fdde0314610bc7578063095ea7b3146107b057806316cf09f814610b0657806318160ddd14610ac757806323b872dd14610a8d578063313ce56714610a5457806348483382146109ed57806359d431b31461099957806370a082311461092857806379131a19146108c75780637997f96d1461086e57806395d89b41146107f8578063a8671f6a146107b5578063a9059cbb146107b0578063abe7f1ab1461075a578063b061963c14610710578063bb35783b146106d7578063cab34c0814610669578063cee2960b1461043c578063dd62ed3e146103d6578063f5d82b6b146103535763ff1e03e91461012257600080fd5b3461034f5760207ffffffffffffffffffffffffffffffffffffffffffffffffffffffffffffffffc36011261034f57610159610dcb565b9073ffffffffffffffffffffffffffffffffffffffff7f00000000000000000000000000000000000000000000000000000000000000001680156103275793839433855260026020526dffffffffffffffffffffffffffff908184872054166102536101f86101c6611573565b939050338a52600260205283888b20916cffffffffffffffffffffffffff97600189855460701c169401541692611451565b933389526002602052868920921682907fffffffffff00000000000000000000000000ffffffffffffffffffffffffffff7affffffffffffffffffffffffff000000000000000000000000000083549260701b169116179055565b8261025c578680f35b6001017fffffffffffffffffffffffffffffffffffff00000000000000000000000000008154169055803b15610323576102e9948680948651978895869485937f21670f2200000000000000000000000000000000000000000000000000000000855284016020909392919373ffffffffffffffffffffffffffffffffffffffff60408201951681520152565b03925af190811561031a5750610303575b80808080808680f35b61030c90610fbd565b6103175780386102fa565b80fd5b513d84823e3d90fd5b8580fd5b8482517fea8e4eb5000000000000000000000000000000000000000000000000000000008152fd5b5080fd5b5082346103d257817ffffffffffffffffffffffffffffffffffffffffffffffffffffffffffffffffc3601126103d25761038b610dcb565b913384528160205280842054156103ac57836103a960243585611492565b80f35b517fea8e4eb5000000000000000000000000000000000000000000000000000000008152fd5b8280fd5b50903461031757817ffffffffffffffffffffffffffffffffffffffffffffffffffffffffffffffffc3601126103175761040e610dcb565b5060243573ffffffffffffffffffffffffffffffffffffffff8116036104375760209151908152f35b600080fd5b50913461034f5760807ffffffffffffffffffffffffffffffffffffffffffffffffffffffffffffffffc36011261034f5773ffffffffffffffffffffffffffffffffffffffff8135818116036103d257837fffffffffffffffffffffffffffffffffffffffffffffffffffffffffffffffdc3601126103d25783519067ffffffffffffffff8286018181118482101761063b57865260243583526020926044358482015260643591821161032357366023830112156103235781850135916105038361105d565b926105108951948561101c565b80845260248685019160051b8301019136831161063757602401905b82821061061f57505050610564837fb53127684a568b3173ae13b9f8a6016e243e63b6e8ee1178d6a717850b5d610354163314611075565b61056c611573565b505051855560ff6005541615610580578480f35b845b81518110156105e4578083610599600193856111c5565b5116806000528686527f50b08f8489c009db3c1b3f160cc0dae1c0c6706774750c001e4c083f9483d5f389670de0b6b3a764000080826000205581519081524289820152a201610582565b5050505050905060017fffffffffffffffffffffffffffffffffffffffffffffffffffffffffffffff00600554161760055580388080808480f35b8135868116810361043757815290860190860161052c565b8880fd5b6041857f4e487b71000000000000000000000000000000000000000000000000000000006000525260246000fd5b503461034f57817ffffffffffffffffffffffffffffffffffffffffffffffffffffffffffffffffc36011261034f576020905173ffffffffffffffffffffffffffffffffffffffff7f0000000000000000000000000000000000000000000000000000000000000000168152f35b50913461034f576106e736610eb6565b929091943385528160205280852054156103ac57505061070b826103a9949561136d565b611492565b503461034f5760207ffffffffffffffffffffffffffffffffffffffffffffffffffffffffffffffffc36011261034f5760209061075361074e610dcb565b6112a2565b9051908152f35b5082346103d257817ffffffffffffffffffffffffffffffffffffffffffffffffffffffffffffffffc3601126103d257610792610dcb565b913384528160205280842054156103ac57836103a96024358561136d565b610e54565b503461034f5760207ffffffffffffffffffffffffffffffffffffffffffffffffffffffffffffffffc36011261034f576020906107536107f3610dcb565b6111f9565b503461034f57817ffffffffffffffffffffffffffffffffffffffffffffffffffffffffffffffffc36011261034f57805161086a9161083682611000565b600582527f504f494e5400000000000000000000000000000000000000000000000000000060208301525191829182610dee565b0390f35b5090346103175761087e36610f16565b61088781611116565b925b81811061089d5784518061086a8682610f81565b806108b66107f36108b16001948688611165565b6111a4565b6108c082876111c5565b5201610889565b5082346103d25760207ffffffffffffffffffffffffffffffffffffffffffffffffffffffffffffffffc3601126103d257602092829173ffffffffffffffffffffffffffffffffffffffff61091a610dcb565b168252845220549051908152f35b503461034f5760207ffffffffffffffffffffffffffffffffffffffffffffffffffffffffffffffffc36011261034f576dffffffffffffffffffffffffffff8160209373ffffffffffffffffffffffffffffffffffffffff610988610dcb565b168152600285522054169051908152f35b509034610317576109a936610f16565b6109b281611116565b925b8181106109c85784518061086a8682610f81565b806109dc61074e6108b16001948688611165565b6109e682876111c5565b52016109b4565b503461034f57817ffffffffffffffffffffffffffffffffffffffffffffffffffffffffffffffffc36011261034f576107536020926cffffffffffffffffffffffffff610a4a600154925464ffffffffff8416908460901c61132b565b9160281c166110da565b503461034f57817ffffffffffffffffffffffffffffffffffffffffffffffffffffffffffffffffc36011261034f576020905160128152f35b5090346103175750610a9e36610eb6565b505050517f9cbe2357000000000000000000000000000000000000000000000000000000008152fd5b503461034f57817ffffffffffffffffffffffffffffffffffffffffffffffffffffffffffffffffc36011261034f5760209060015460901c9051908152f35b508290346103d257807ffffffffffffffffffffffffffffffffffffffffffffffffffffffffffffffffc3601126103d2577f50b08f8489c009db3c1b3f160cc0dae1c0c6706774750c001e4c083f9483d5f390610b61610dcb565b6024359073ffffffffffffffffffffffffffffffffffffffff90610ba9827fb53127684a568b3173ae13b9f8a6016e243e63b6e8ee1178d6a717850b5d610354163314611075565b1693846000526020528082600020558151908152426020820152a280f35b503461034f57817ffffffffffffffffffffffffffffffffffffffffffffffffffffffffffffffffc36011261034f57805161086a91610c0582611000565b600682527f506f696e7473000000000000000000000000000000000000000000000000000060208301525191829182610dee565b8492915034610da05760207ffffffffffffffffffffffffffffffffffffffffffffffffffffffffffffffffc360112610da057610c74610dcb565b9073ffffffffffffffffffffffffffffffffffffffff7f000000000000000000000000000000000000000000000000000000000000000016908115610da45750908491610cc0336111f9565b9182610cca578380f35b338452600360205284842080547fffffffffffffffffffffffffff000000000000000000000000000000000000001672ffffffffff00000000000000000000000000004260701b16179055813b15610da05783610d77968651978895869485937f21670f2200000000000000000000000000000000000000000000000000000000855284016020909392919373ffffffffffffffffffffffffffffffffffffffff60408201951681520152565b03925af190811561031a5750610d91575b80828180808380f35b610d9a90610fbd565b81610d88565b8380fd5b807fea8e4eb500000000000000000000000000000000000000000000000000000000869252fd5b6004359073ffffffffffffffffffffffffffffffffffffffff8216820361043757565b60208082528251818301819052939260005b858110610e40575050507fffffffffffffffffffffffffffffffffffffffffffffffffffffffffffffffe0601f8460006040809697860101520116010190565b818101830151848201604001528201610e00565b346104375760407ffffffffffffffffffffffffffffffffffffffffffffffffffffffffffffffffc36011261043757610e8b610dcb565b5060046040517f9cbe2357000000000000000000000000000000000000000000000000000000008152fd5b7ffffffffffffffffffffffffffffffffffffffffffffffffffffffffffffffffc60609101126104375773ffffffffffffffffffffffffffffffffffffffff90600435828116810361043757916024359081168103610437579060443590565b9060207ffffffffffffffffffffffffffffffffffffffffffffffffffffffffffffffffc8301126104375760043567ffffffffffffffff9283821161043757806023830112156104375781600401359384116104375760248460051b83010111610437576024019190565b602090602060408183019282815285518094520193019160005b828110610fa9575050505090565b835185529381019392810192600101610f9b565b67ffffffffffffffff8111610fd157604052565b7f4e487b7100000000000000000000000000000000000000000000000000000000600052604160045260246000fd5b6040810190811067ffffffffffffffff821117610fd157604052565b90601f7fffffffffffffffffffffffffffffffffffffffffffffffffffffffffffffffe0910116810190811067ffffffffffffffff821117610fd157604052565b67ffffffffffffffff8111610fd15760051b60200190565b1561107c57565b60646040517f08c379a000000000000000000000000000000000000000000000000000000000815260206004820152600e60248201527f4e4f545f415554484f52495a45440000000000000000000000000000000000006044820152fd5b919082018092116110e757565b7f4e487b7100000000000000000000000000000000000000000000000000000000600052601160045260246000fd5b906111208261105d565b61112d604051918261101c565b8281527fffffffffffffffffffffffffffffffffffffffffffffffffffffffffffffffe061115b829461105d565b0190602036910137565b91908110156111755760051b0190565b7f4e487b7100000000000000000000000000000000000000000000000000000000600052603260045260246000fd5b3573ffffffffffffffffffffffffffffffffffffffff811681036104375790565b80518210156111755760209160051b010190565b919082039182116110e757565b818102929181159184041417156110e757565b73ffffffffffffffffffffffffffffffffffffffff61129f911660008181526003602052604061123664ffffffffff8284205460701c16426111d9565b918381526002602052633b9aca0061128d6112666dffffffffffffffffffffffffffff95868686205416906111e6565b7f0000000000000000000000000000000000000000000000000000000000000000906111e6565b049381526003602052205416906110da565b90565b73ffffffffffffffffffffffffffffffffffffffff61129f9116806000526002602052604060002054906cffffffffffffffffffffffffff916dffffffffffffffffffffffffffff9261130a60015482610a4a60005464ffffffffff8416908460901c61132b565b92600052600260205283600160406000200154169382169160701c16611451565b919082156113655761134061134592426111d9565b6111e6565b69d3c21bcecceda1000000908181029181830414901517156110e7570490565b505050600090565b811561144d577fddf252ad1be2c89b69c2b068fc378daa952ba7f163c4a11628f55a4df523b3ef602060009373ffffffffffffffffffffffffffffffffffffffff6113b7856115f4565b959071ffffffffffffffffffffffffffffffffffff7fffffffffffffffffffffffffffff00000000000000000000000000000000000085600154930360901b169116176001551693848652600283526dffffffffffffffffffffffffffff82604088209203167fffffffffffffffffffffffffffffffffffff0000000000000000000000000000825416179055604051908152a3565b5050565b61145e90611464936111d9565b906111e6565b9064e8d4a51000918281029281840414901517156110e75769d3c21bcecceda100000061129f9204906110da565b90801561144d577fddf252ad1be2c89b69c2b068fc378daa952ba7f163c4a11628f55a4df523b3ef602060009273ffffffffffffffffffffffffffffffffffffffff6114dd866115f4565b969071ffffffffffffffffffffffffffffffffffff7fffffffffffffffffffffffffffff00000000000000000000000000000000000085600154930160901b169116176001551694858552600283526dffffffffffffffffffffffffffff82604087209201167fffffffffffffffffffffffffffffffffffff0000000000000000000000000000825416179055604051908152a3565b6001548060901c91600054916115ae61159664ffffffffff94858416908761132b565b6cffffffffffffffffffffffffff8360281c166110da565b924216907fffffffffffffffffffffffffffff00000000000000000000000000000000000071ffffffffffffffffffffffffff00000000008560281b1691161717600155565b9073ffffffffffffffffffffffffffffffffffffffff91611613611573565b93909116600090808252600260205260016116686116f0604085209788546dffffffffffffffffffffffffffff93818386809416809d856cffffffffffffffffffffffffff9a8b920154169360701c16611451565b169385875260026020526040872091600183017fffffffffffffffffffffffffffffffffffff00000000000000000000000000009687825416179055167fffffffffff00000000000000000000000000ffffffffffffffffffffffffffff7affffffffffffffffffffffffff000000000000000000000000000083549260701b169116179055565b600360205264ffffffffff93633b9aca0061171b6112668a61134089604087205460701c16426111d9565b0493815260036020526117736040822095421686907fffffffffffffffffffffffffff0000000000ffffffffffffffffffffffffffff72ffffffffff000000000000000000000000000083549260701b169116179055565b8185549416828516019082821161178f57501691161790559190565b807f4e487b7100000000000000000000000000000000000000000000000000000000602492526011600452fdfea26469706673582212206458fb4b32a5479ed483a6568a84fdee2f46dd20a1f4836d890bfec2d9993f5264736f6c63430008180033",
      "opcodes": "PUSH1 0x40 PUSH1 0xC0 DUP2 MSTORE CALLVALUE PUSH3 0x24F JUMPI PUSH3 0x1AE7 DUP1 CODESIZE SUB DUP1 PUSH3 0x1E DUP2 PUSH3 0x26A JUMP JUMPDEST SWAP3 DUP4 CODECOPY DUP2 ADD DUP2 DUP2 SUB SWAP2 PUSH1 0x80 DUP4 SLT PUSH3 0x24F JUMPI DUP1 MLOAD SWAP3 PUSH1 0x1 PUSH1 0x1 PUSH1 0xA0 SHL SUB DUP1 DUP6 AND DUP6 SUB PUSH3 0x24F JUMPI DUP6 PUSH1 0x20 SWAP3 PUSH1 0x1F NOT ADD SLT PUSH3 0x24F JUMPI DUP6 MLOAD PUSH1 0x1 PUSH1 0x1 PUSH1 0x40 SHL SUB SWAP6 SWAP1 SWAP4 SWAP1 DUP5 DUP9 ADD DUP8 DUP2 GT DUP7 DUP3 LT OR PUSH3 0x254 JUMPI DUP9 MSTORE DUP4 DUP3 ADD MLOAD DUP6 MSTORE DUP8 DUP3 ADD MLOAD SWAP2 DUP5 DUP7 ADD SWAP3 DUP4 MSTORE PUSH1 0x60 DUP2 ADD MLOAD SWAP1 DUP9 DUP3 GT PUSH3 0x24F JUMPI ADD SWAP6 DUP1 PUSH1 0x1F DUP9 ADD SLT ISZERO PUSH3 0x24F JUMPI DUP7 MLOAD SWAP8 DUP9 GT PUSH3 0x254 JUMPI PUSH1 0x5 SWAP7 DUP9 PUSH1 0x5 SHL SWAP1 DUP7 DUP1 PUSH3 0xC0 DUP2 DUP6 ADD PUSH3 0x26A JUMP JUMPDEST DUP1 SWAP13 DUP2 MSTORE ADD SWAP3 DUP3 ADD ADD SWAP3 DUP4 GT PUSH3 0x24F JUMPI DUP7 ADD SWAP1 JUMPDEST DUP3 DUP3 LT PUSH3 0x235 JUMPI POP POP POP PUSH1 0xA0 MSTORE MLOAD PUSH1 0x80 MSTORE PUSH1 0x1 SWAP5 PUSH1 0x1 SLOAD SWAP4 PUSH1 0x0 SWAP5 DUP6 SLOAD SWAP1 PUSH3 0x10D PUSH5 0xFFFFFFFFFF SWAP3 DUP4 DUP4 AND SWAP1 DUP4 PUSH1 0x90 SHR PUSH3 0x290 JUMP JUMPDEST PUSH1 0x28 DUP3 SWAP1 SHR PUSH1 0x1 PUSH1 0x1 PUSH1 0x68 SHL SUB AND SWAP1 DUP2 ADD SWAP3 SWAP1 DUP4 LT PUSH3 0x221 JUMPI TIMESTAMP AND PUSH1 0x1 PUSH1 0x28 SHL PUSH1 0x1 PUSH1 0x90 SHL SUB PUSH1 0x28 SWAP4 SWAP1 SWAP4 SHL SWAP3 SWAP1 SWAP3 AND PUSH1 0x1 PUSH1 0x1 PUSH1 0x90 SHL SUB NOT SWAP2 SWAP1 SWAP2 AND OR OR PUSH1 0x1 SSTORE MLOAD DUP5 SSTORE PUSH1 0x5 SLOAD PUSH1 0xFF AND ISZERO PUSH3 0x18F JUMPI JUMPDEST DUP7 MLOAD PUSH2 0x17F2 SWAP1 DUP2 PUSH3 0x2F5 DUP3 CODECOPY PUSH1 0x80 MLOAD DUP2 PUSH2 0x1268 ADD MSTORE PUSH1 0xA0 MLOAD DUP2 DUP2 DUP2 PUSH2 0x171 ADD MSTORE DUP2 DUP2 PUSH2 0x6B3 ADD MSTORE PUSH2 0xC8C ADD MSTORE RETURN JUMPDEST DUP6 SWAP5 DUP5 SWAP6 JUMPDEST PUSH3 0x1BA JUMPI JUMPDEST POP POP POP POP POP POP POP PUSH1 0x1 PUSH1 0xFF NOT PUSH1 0x5 SLOAD AND OR PUSH1 0x5 SSTORE CODESIZE DUP1 DUP1 DUP1 DUP1 DUP1 PUSH3 0x160 JUMP JUMPDEST DUP2 MLOAD DUP7 LT ISZERO PUSH3 0x21B JUMPI DUP7 DUP7 DUP5 DUP7 DUP4 SWAP10 DUP6 SHL DUP7 ADD ADD MLOAD AND DUP1 DUP9 MSTORE PUSH1 0x4 DUP8 MSTORE PUSH32 0x50B08F8489C009DB3C1B3F160CC0DAE1C0C6706774750C001E4C083F9483D5F3 DUP12 PUSH8 0xDE0B6B3A7640000 DUP1 DUP3 DUP13 KECCAK256 SSTORE DUP2 MLOAD SWAP1 DUP2 MSTORE TIMESTAMP DUP11 DUP3 ADD MSTORE LOG2 ADD SWAP6 PUSH3 0x194 JUMP JUMPDEST PUSH3 0x19A JUMP JUMPDEST PUSH4 0x4E487B71 PUSH1 0xE0 SHL DUP9 MSTORE PUSH1 0x11 PUSH1 0x4 MSTORE PUSH1 0x24 DUP9 REVERT JUMPDEST DUP2 MLOAD DUP7 DUP2 AND DUP2 SUB PUSH3 0x24F JUMPI DUP2 MSTORE SWAP1 DUP7 ADD SWAP1 DUP7 ADD PUSH3 0xD5 JUMP JUMPDEST PUSH1 0x0 DUP1 REVERT JUMPDEST PUSH4 0x4E487B71 PUSH1 0xE0 SHL PUSH1 0x0 MSTORE PUSH1 0x41 PUSH1 0x4 MSTORE PUSH1 0x24 PUSH1 0x0 REVERT JUMPDEST PUSH1 0x40 MLOAD SWAP2 SWAP1 PUSH1 0x1F ADD PUSH1 0x1F NOT AND DUP3 ADD PUSH1 0x1 PUSH1 0x1 PUSH1 0x40 SHL SUB DUP2 GT DUP4 DUP3 LT OR PUSH3 0x254 JUMPI PUSH1 0x40 MSTORE JUMP JUMPDEST SWAP2 DUP3 ISZERO PUSH3 0x2EC JUMPI DUP1 TIMESTAMP SUB SWAP2 TIMESTAMP DUP4 GT PUSH3 0x2D6 JUMPI DUP1 DUP4 MUL SWAP3 DUP4 DIV EQ SWAP1 TIMESTAMP EQ OR ISZERO PUSH3 0x2D6 JUMPI PUSH10 0xD3C21BCECCEDA1000000 SWAP1 DUP2 DUP2 MUL SWAP2 DUP2 DUP4 DIV EQ SWAP1 ISZERO OR ISZERO PUSH3 0x2D6 JUMPI DIV SWAP1 JUMP JUMPDEST PUSH4 0x4E487B71 PUSH1 0xE0 SHL PUSH1 0x0 MSTORE PUSH1 0x11 PUSH1 0x4 MSTORE PUSH1 0x24 PUSH1 0x0 REVERT JUMPDEST POP POP POP PUSH1 0x0 SWAP1 JUMP INVALID PUSH1 0x80 PUSH1 0x40 SWAP1 DUP1 DUP3 MSTORE PUSH1 0x4 SWAP2 DUP3 CALLDATASIZE LT ISZERO PUSH2 0x17 JUMPI PUSH1 0x0 DUP1 REVERT JUMPDEST PUSH1 0x0 SWAP2 DUP3 CALLDATALOAD PUSH1 0xE0 SHR SWAP1 DUP2 PUSH4 0x66112F9 EQ PUSH2 0xC39 JUMPI POP DUP1 PUSH4 0x6FDDE03 EQ PUSH2 0xBC7 JUMPI DUP1 PUSH4 0x95EA7B3 EQ PUSH2 0x7B0 JUMPI DUP1 PUSH4 0x16CF09F8 EQ PUSH2 0xB06 JUMPI DUP1 PUSH4 0x18160DDD EQ PUSH2 0xAC7 JUMPI DUP1 PUSH4 0x23B872DD EQ PUSH2 0xA8D JUMPI DUP1 PUSH4 0x313CE567 EQ PUSH2 0xA54 JUMPI DUP1 PUSH4 0x48483382 EQ PUSH2 0x9ED JUMPI DUP1 PUSH4 0x59D431B3 EQ PUSH2 0x999 JUMPI DUP1 PUSH4 0x70A08231 EQ PUSH2 0x928 JUMPI DUP1 PUSH4 0x79131A19 EQ PUSH2 0x8C7 JUMPI DUP1 PUSH4 0x7997F96D EQ PUSH2 0x86E JUMPI DUP1 PUSH4 0x95D89B41 EQ PUSH2 0x7F8 JUMPI DUP1 PUSH4 0xA8671F6A EQ PUSH2 0x7B5 JUMPI DUP1 PUSH4 0xA9059CBB EQ PUSH2 0x7B0 JUMPI DUP1 PUSH4 0xABE7F1AB EQ PUSH2 0x75A JUMPI DUP1 PUSH4 0xB061963C EQ PUSH2 0x710 JUMPI DUP1 PUSH4 0xBB35783B EQ PUSH2 0x6D7 JUMPI DUP1 PUSH4 0xCAB34C08 EQ PUSH2 0x669 JUMPI DUP1 PUSH4 0xCEE2960B EQ PUSH2 0x43C JUMPI DUP1 PUSH4 0xDD62ED3E EQ PUSH2 0x3D6 JUMPI DUP1 PUSH4 0xF5D82B6B EQ PUSH2 0x353 JUMPI PUSH4 0xFF1E03E9 EQ PUSH2 0x122 JUMPI PUSH1 0x0 DUP1 REVERT JUMPDEST CALLVALUE PUSH2 0x34F JUMPI PUSH1 0x20 PUSH32 0xFFFFFFFFFFFFFFFFFFFFFFFFFFFFFFFFFFFFFFFFFFFFFFFFFFFFFFFFFFFFFFFC CALLDATASIZE ADD SLT PUSH2 0x34F JUMPI PUSH2 0x159 PUSH2 0xDCB JUMP JUMPDEST SWAP1 PUSH20 0xFFFFFFFFFFFFFFFFFFFFFFFFFFFFFFFFFFFFFFFF PUSH32 0x0 AND DUP1 ISZERO PUSH2 0x327 JUMPI SWAP4 DUP4 SWAP5 CALLER DUP6 MSTORE PUSH1 0x2 PUSH1 0x20 MSTORE PUSH14 0xFFFFFFFFFFFFFFFFFFFFFFFFFFFF SWAP1 DUP2 DUP5 DUP8 KECCAK256 SLOAD AND PUSH2 0x253 PUSH2 0x1F8 PUSH2 0x1C6 PUSH2 0x1573 JUMP JUMPDEST SWAP4 SWAP1 POP CALLER DUP11 MSTORE PUSH1 0x2 PUSH1 0x20 MSTORE DUP4 DUP9 DUP12 KECCAK256 SWAP2 PUSH13 0xFFFFFFFFFFFFFFFFFFFFFFFFFF SWAP8 PUSH1 0x1 DUP10 DUP6 SLOAD PUSH1 0x70 SHR AND SWAP5 ADD SLOAD AND SWAP3 PUSH2 0x1451 JUMP JUMPDEST SWAP4 CALLER DUP10 MSTORE PUSH1 0x2 PUSH1 0x20 MSTORE DUP7 DUP10 KECCAK256 SWAP3 AND DUP3 SWAP1 PUSH32 0xFFFFFFFFFF00000000000000000000000000FFFFFFFFFFFFFFFFFFFFFFFFFFFF PUSH27 0xFFFFFFFFFFFFFFFFFFFFFFFFFF0000000000000000000000000000 DUP4 SLOAD SWAP3 PUSH1 0x70 SHL AND SWAP2 AND OR SWAP1 SSTORE JUMP JUMPDEST DUP3 PUSH2 0x25C JUMPI DUP7 DUP1 RETURN JUMPDEST PUSH1 0x1 ADD PUSH32 0xFFFFFFFFFFFFFFFFFFFFFFFFFFFFFFFFFFFF0000000000000000000000000000 DUP2 SLOAD AND SWAP1 SSTORE DUP1 EXTCODESIZE ISZERO PUSH2 0x323 JUMPI PUSH2 0x2E9 SWAP5 DUP7 DUP1 SWAP5 DUP7 MLOAD SWAP8 DUP9 SWAP6 DUP7 SWAP5 DUP6 SWAP4 PUSH32 0x21670F2200000000000000000000000000000000000000000000000000000000 DUP6 MSTORE DUP5 ADD PUSH1 0x20 SWAP1 SWAP4 SWAP3 SWAP2 SWAP4 PUSH20 0xFFFFFFFFFFFFFFFFFFFFFFFFFFFFFFFFFFFFFFFF PUSH1 0x40 DUP3 ADD SWAP6 AND DUP2 MSTORE ADD MSTORE JUMP JUMPDEST SUB SWAP3 GAS CALL SWAP1 DUP2 ISZERO PUSH2 0x31A JUMPI POP PUSH2 0x303 JUMPI JUMPDEST DUP1 DUP1 DUP1 DUP1 DUP1 DUP7 DUP1 RETURN JUMPDEST PUSH2 0x30C SWAP1 PUSH2 0xFBD JUMP JUMPDEST PUSH2 0x317 JUMPI DUP1 CODESIZE PUSH2 0x2FA JUMP JUMPDEST DUP1 REVERT JUMPDEST MLOAD RETURNDATASIZE DUP5 DUP3 RETURNDATACOPY RETURNDATASIZE SWAP1 REVERT JUMPDEST DUP6 DUP1 REVERT JUMPDEST DUP5 DUP3 MLOAD PUSH32 0xEA8E4EB500000000000000000000000000000000000000000000000000000000 DUP2 MSTORE REVERT JUMPDEST POP DUP1 REVERT JUMPDEST POP DUP3 CALLVALUE PUSH2 0x3D2 JUMPI DUP2 PUSH32 0xFFFFFFFFFFFFFFFFFFFFFFFFFFFFFFFFFFFFFFFFFFFFFFFFFFFFFFFFFFFFFFFC CALLDATASIZE ADD SLT PUSH2 0x3D2 JUMPI PUSH2 0x38B PUSH2 0xDCB JUMP JUMPDEST SWAP2 CALLER DUP5 MSTORE DUP2 PUSH1 0x20 MSTORE DUP1 DUP5 KECCAK256 SLOAD ISZERO PUSH2 0x3AC JUMPI DUP4 PUSH2 0x3A9 PUSH1 0x24 CALLDATALOAD DUP6 PUSH2 0x1492 JUMP JUMPDEST DUP1 RETURN JUMPDEST MLOAD PUSH32 0xEA8E4EB500000000000000000000000000000000000000000000000000000000 DUP2 MSTORE REVERT JUMPDEST DUP3 DUP1 REVERT JUMPDEST POP SWAP1 CALLVALUE PUSH2 0x317 JUMPI DUP2 PUSH32 0xFFFFFFFFFFFFFFFFFFFFFFFFFFFFFFFFFFFFFFFFFFFFFFFFFFFFFFFFFFFFFFFC CALLDATASIZE ADD SLT PUSH2 0x317 JUMPI PUSH2 0x40E PUSH2 0xDCB JUMP JUMPDEST POP PUSH1 0x24 CALLDATALOAD PUSH20 0xFFFFFFFFFFFFFFFFFFFFFFFFFFFFFFFFFFFFFFFF DUP2 AND SUB PUSH2 0x437 JUMPI PUSH1 0x20 SWAP2 MLOAD SWAP1 DUP2 MSTORE RETURN JUMPDEST PUSH1 0x0 DUP1 REVERT JUMPDEST POP SWAP2 CALLVALUE PUSH2 0x34F JUMPI PUSH1 0x80 PUSH32 0xFFFFFFFFFFFFFFFFFFFFFFFFFFFFFFFFFFFFFFFFFFFFFFFFFFFFFFFFFFFFFFFC CALLDATASIZE ADD SLT PUSH2 0x34F JUMPI PUSH20 0xFFFFFFFFFFFFFFFFFFFFFFFFFFFFFFFFFFFFFFFF DUP2 CALLDATALOAD DUP2 DUP2 AND SUB PUSH2 0x3D2 JUMPI DUP4 PUSH32 0xFFFFFFFFFFFFFFFFFFFFFFFFFFFFFFFFFFFFFFFFFFFFFFFFFFFFFFFFFFFFFFDC CALLDATASIZE ADD SLT PUSH2 0x3D2 JUMPI DUP4 MLOAD SWAP1 PUSH8 0xFFFFFFFFFFFFFFFF DUP3 DUP7 ADD DUP2 DUP2 GT DUP5 DUP3 LT OR PUSH2 0x63B JUMPI DUP7 MSTORE PUSH1 0x24 CALLDATALOAD DUP4 MSTORE PUSH1 0x20 SWAP3 PUSH1 0x44 CALLDATALOAD DUP5 DUP3 ADD MSTORE PUSH1 0x64 CALLDATALOAD SWAP2 DUP3 GT PUSH2 0x323 JUMPI CALLDATASIZE PUSH1 0x23 DUP4 ADD SLT ISZERO PUSH2 0x323 JUMPI DUP2 DUP6 ADD CALLDATALOAD SWAP2 PUSH2 0x503 DUP4 PUSH2 0x105D JUMP JUMPDEST SWAP3 PUSH2 0x510 DUP10 MLOAD SWAP5 DUP6 PUSH2 0x101C JUMP JUMPDEST DUP1 DUP5 MSTORE PUSH1 0x24 DUP7 DUP6 ADD SWAP2 PUSH1 0x5 SHL DUP4 ADD ADD SWAP2 CALLDATASIZE DUP4 GT PUSH2 0x637 JUMPI PUSH1 0x24 ADD SWAP1 JUMPDEST DUP3 DUP3 LT PUSH2 0x61F JUMPI POP POP POP PUSH2 0x564 DUP4 PUSH32 0xB53127684A568B3173AE13B9F8A6016E243E63B6E8EE1178D6A717850B5D6103 SLOAD AND CALLER EQ PUSH2 0x1075 JUMP JUMPDEST PUSH2 0x56C PUSH2 0x1573 JUMP JUMPDEST POP POP MLOAD DUP6 SSTORE PUSH1 0xFF PUSH1 0x5 SLOAD AND ISZERO PUSH2 0x580 JUMPI DUP5 DUP1 RETURN JUMPDEST DUP5 JUMPDEST DUP2 MLOAD DUP2 LT ISZERO PUSH2 0x5E4 JUMPI DUP1 DUP4 PUSH2 0x599 PUSH1 0x1 SWAP4 DUP6 PUSH2 0x11C5 JUMP JUMPDEST MLOAD AND DUP1 PUSH1 0x0 MSTORE DUP7 DUP7 MSTORE PUSH32 0x50B08F8489C009DB3C1B3F160CC0DAE1C0C6706774750C001E4C083F9483D5F3 DUP10 PUSH8 0xDE0B6B3A7640000 DUP1 DUP3 PUSH1 0x0 KECCAK256 SSTORE DUP2 MLOAD SWAP1 DUP2 MSTORE TIMESTAMP DUP10 DUP3 ADD MSTORE LOG2 ADD PUSH2 0x582 JUMP JUMPDEST POP POP POP POP POP SWAP1 POP PUSH1 0x1 PUSH32 0xFFFFFFFFFFFFFFFFFFFFFFFFFFFFFFFFFFFFFFFFFFFFFFFFFFFFFFFFFFFFFF00 PUSH1 0x5 SLOAD AND OR PUSH1 0x5 SSTORE DUP1 CODESIZE DUP1 DUP1 DUP1 DUP5 DUP1 RETURN JUMPDEST DUP2 CALLDATALOAD DUP7 DUP2 AND DUP2 SUB PUSH2 0x437 JUMPI DUP2 MSTORE SWAP1 DUP7 ADD SWAP1 DUP7 ADD PUSH2 0x52C JUMP JUMPDEST DUP9 DUP1 REVERT JUMPDEST PUSH1 0x41 DUP6 PUSH32 0x4E487B7100000000000000000000000000000000000000000000000000000000 PUSH1 0x0 MSTORE MSTORE PUSH1 0x24 PUSH1 0x0 REVERT JUMPDEST POP CALLVALUE PUSH2 0x34F JUMPI DUP2 PUSH32 0xFFFFFFFFFFFFFFFFFFFFFFFFFFFFFFFFFFFFFFFFFFFFFFFFFFFFFFFFFFFFFFFC CALLDATASIZE ADD SLT PUSH2 0x34F JUMPI PUSH1 0x20 SWAP1 MLOAD PUSH20 0xFFFFFFFFFFFFFFFFFFFFFFFFFFFFFFFFFFFFFFFF PUSH32 0x0 AND DUP2 MSTORE RETURN JUMPDEST POP SWAP2 CALLVALUE PUSH2 0x34F JUMPI PUSH2 0x6E7 CALLDATASIZE PUSH2 0xEB6 JUMP JUMPDEST SWAP3 SWAP1 SWAP2 SWAP5 CALLER DUP6 MSTORE DUP2 PUSH1 0x20 MSTORE DUP1 DUP6 KECCAK256 SLOAD ISZERO PUSH2 0x3AC JUMPI POP POP PUSH2 0x70B DUP3 PUSH2 0x3A9 SWAP5 SWAP6 PUSH2 0x136D JUMP JUMPDEST PUSH2 0x1492 JUMP JUMPDEST POP CALLVALUE PUSH2 0x34F JUMPI PUSH1 0x20 PUSH32 0xFFFFFFFFFFFFFFFFFFFFFFFFFFFFFFFFFFFFFFFFFFFFFFFFFFFFFFFFFFFFFFFC CALLDATASIZE ADD SLT PUSH2 0x34F JUMPI PUSH1 0x20 SWAP1 PUSH2 0x753 PUSH2 0x74E PUSH2 0xDCB JUMP JUMPDEST PUSH2 0x12A2 JUMP JUMPDEST SWAP1 MLOAD SWAP1 DUP2 MSTORE RETURN JUMPDEST POP DUP3 CALLVALUE PUSH2 0x3D2 JUMPI DUP2 PUSH32 0xFFFFFFFFFFFFFFFFFFFFFFFFFFFFFFFFFFFFFFFFFFFFFFFFFFFFFFFFFFFFFFFC CALLDATASIZE ADD SLT PUSH2 0x3D2 JUMPI PUSH2 0x792 PUSH2 0xDCB JUMP JUMPDEST SWAP2 CALLER DUP5 MSTORE DUP2 PUSH1 0x20 MSTORE DUP1 DUP5 KECCAK256 SLOAD ISZERO PUSH2 0x3AC JUMPI DUP4 PUSH2 0x3A9 PUSH1 0x24 CALLDATALOAD DUP6 PUSH2 0x136D JUMP JUMPDEST PUSH2 0xE54 JUMP JUMPDEST POP CALLVALUE PUSH2 0x34F JUMPI PUSH1 0x20 PUSH32 0xFFFFFFFFFFFFFFFFFFFFFFFFFFFFFFFFFFFFFFFFFFFFFFFFFFFFFFFFFFFFFFFC CALLDATASIZE ADD SLT PUSH2 0x34F JUMPI PUSH1 0x20 SWAP1 PUSH2 0x753 PUSH2 0x7F3 PUSH2 0xDCB JUMP JUMPDEST PUSH2 0x11F9 JUMP JUMPDEST POP CALLVALUE PUSH2 0x34F JUMPI DUP2 PUSH32 0xFFFFFFFFFFFFFFFFFFFFFFFFFFFFFFFFFFFFFFFFFFFFFFFFFFFFFFFFFFFFFFFC CALLDATASIZE ADD SLT PUSH2 0x34F JUMPI DUP1 MLOAD PUSH2 0x86A SWAP2 PUSH2 0x836 DUP3 PUSH2 0x1000 JUMP JUMPDEST PUSH1 0x5 DUP3 MSTORE PUSH32 0x504F494E54000000000000000000000000000000000000000000000000000000 PUSH1 0x20 DUP4 ADD MSTORE MLOAD SWAP2 DUP3 SWAP2 DUP3 PUSH2 0xDEE JUMP JUMPDEST SUB SWAP1 RETURN JUMPDEST POP SWAP1 CALLVALUE PUSH2 0x317 JUMPI PUSH2 0x87E CALLDATASIZE PUSH2 0xF16 JUMP JUMPDEST PUSH2 0x887 DUP2 PUSH2 0x1116 JUMP JUMPDEST SWAP3 JUMPDEST DUP2 DUP2 LT PUSH2 0x89D JUMPI DUP5 MLOAD DUP1 PUSH2 0x86A DUP7 DUP3 PUSH2 0xF81 JUMP JUMPDEST DUP1 PUSH2 0x8B6 PUSH2 0x7F3 PUSH2 0x8B1 PUSH1 0x1 SWAP5 DUP7 DUP9 PUSH2 0x1165 JUMP JUMPDEST PUSH2 0x11A4 JUMP JUMPDEST PUSH2 0x8C0 DUP3 DUP8 PUSH2 0x11C5 JUMP JUMPDEST MSTORE ADD PUSH2 0x889 JUMP JUMPDEST POP DUP3 CALLVALUE PUSH2 0x3D2 JUMPI PUSH1 0x20 PUSH32 0xFFFFFFFFFFFFFFFFFFFFFFFFFFFFFFFFFFFFFFFFFFFFFFFFFFFFFFFFFFFFFFFC CALLDATASIZE ADD SLT PUSH2 0x3D2 JUMPI PUSH1 0x20 SWAP3 DUP3 SWAP2 PUSH20 0xFFFFFFFFFFFFFFFFFFFFFFFFFFFFFFFFFFFFFFFF PUSH2 0x91A PUSH2 0xDCB JUMP JUMPDEST AND DUP3 MSTORE DUP5 MSTORE KECCAK256 SLOAD SWAP1 MLOAD SWAP1 DUP2 MSTORE RETURN JUMPDEST POP CALLVALUE PUSH2 0x34F JUMPI PUSH1 0x20 PUSH32 0xFFFFFFFFFFFFFFFFFFFFFFFFFFFFFFFFFFFFFFFFFFFFFFFFFFFFFFFFFFFFFFFC CALLDATASIZE ADD SLT PUSH2 0x34F JUMPI PUSH14 0xFFFFFFFFFFFFFFFFFFFFFFFFFFFF DUP2 PUSH1 0x20 SWAP4 PUSH20 0xFFFFFFFFFFFFFFFFFFFFFFFFFFFFFFFFFFFFFFFF PUSH2 0x988 PUSH2 0xDCB JUMP JUMPDEST AND DUP2 MSTORE PUSH1 0x2 DUP6 MSTORE KECCAK256 SLOAD AND SWAP1 MLOAD SWAP1 DUP2 MSTORE RETURN JUMPDEST POP SWAP1 CALLVALUE PUSH2 0x317 JUMPI PUSH2 0x9A9 CALLDATASIZE PUSH2 0xF16 JUMP JUMPDEST PUSH2 0x9B2 DUP2 PUSH2 0x1116 JUMP JUMPDEST SWAP3 JUMPDEST DUP2 DUP2 LT PUSH2 0x9C8 JUMPI DUP5 MLOAD DUP1 PUSH2 0x86A DUP7 DUP3 PUSH2 0xF81 JUMP JUMPDEST DUP1 PUSH2 0x9DC PUSH2 0x74E PUSH2 0x8B1 PUSH1 0x1 SWAP5 DUP7 DUP9 PUSH2 0x1165 JUMP JUMPDEST PUSH2 0x9E6 DUP3 DUP8 PUSH2 0x11C5 JUMP JUMPDEST MSTORE ADD PUSH2 0x9B4 JUMP JUMPDEST POP CALLVALUE PUSH2 0x34F JUMPI DUP2 PUSH32 0xFFFFFFFFFFFFFFFFFFFFFFFFFFFFFFFFFFFFFFFFFFFFFFFFFFFFFFFFFFFFFFFC CALLDATASIZE ADD SLT PUSH2 0x34F JUMPI PUSH2 0x753 PUSH1 0x20 SWAP3 PUSH13 0xFFFFFFFFFFFFFFFFFFFFFFFFFF PUSH2 0xA4A PUSH1 0x1 SLOAD SWAP3 SLOAD PUSH5 0xFFFFFFFFFF DUP5 AND SWAP1 DUP5 PUSH1 0x90 SHR PUSH2 0x132B JUMP JUMPDEST SWAP2 PUSH1 0x28 SHR AND PUSH2 0x10DA JUMP JUMPDEST POP CALLVALUE PUSH2 0x34F JUMPI DUP2 PUSH32 0xFFFFFFFFFFFFFFFFFFFFFFFFFFFFFFFFFFFFFFFFFFFFFFFFFFFFFFFFFFFFFFFC CALLDATASIZE ADD SLT PUSH2 0x34F JUMPI PUSH1 0x20 SWAP1 MLOAD PUSH1 0x12 DUP2 MSTORE RETURN JUMPDEST POP SWAP1 CALLVALUE PUSH2 0x317 JUMPI POP PUSH2 0xA9E CALLDATASIZE PUSH2 0xEB6 JUMP JUMPDEST POP POP POP MLOAD PUSH32 0x9CBE235700000000000000000000000000000000000000000000000000000000 DUP2 MSTORE REVERT JUMPDEST POP CALLVALUE PUSH2 0x34F JUMPI DUP2 PUSH32 0xFFFFFFFFFFFFFFFFFFFFFFFFFFFFFFFFFFFFFFFFFFFFFFFFFFFFFFFFFFFFFFFC CALLDATASIZE ADD SLT PUSH2 0x34F JUMPI PUSH1 0x20 SWAP1 PUSH1 0x1 SLOAD PUSH1 0x90 SHR SWAP1 MLOAD SWAP1 DUP2 MSTORE RETURN JUMPDEST POP DUP3 SWAP1 CALLVALUE PUSH2 0x3D2 JUMPI DUP1 PUSH32 0xFFFFFFFFFFFFFFFFFFFFFFFFFFFFFFFFFFFFFFFFFFFFFFFFFFFFFFFFFFFFFFFC CALLDATASIZE ADD SLT PUSH2 0x3D2 JUMPI PUSH32 0x50B08F8489C009DB3C1B3F160CC0DAE1C0C6706774750C001E4C083F9483D5F3 SWAP1 PUSH2 0xB61 PUSH2 0xDCB JUMP JUMPDEST PUSH1 0x24 CALLDATALOAD SWAP1 PUSH20 0xFFFFFFFFFFFFFFFFFFFFFFFFFFFFFFFFFFFFFFFF SWAP1 PUSH2 0xBA9 DUP3 PUSH32 0xB53127684A568B3173AE13B9F8A6016E243E63B6E8EE1178D6A717850B5D6103 SLOAD AND CALLER EQ PUSH2 0x1075 JUMP JUMPDEST AND SWAP4 DUP5 PUSH1 0x0 MSTORE PUSH1 0x20 MSTORE DUP1 DUP3 PUSH1 0x0 KECCAK256 SSTORE DUP2 MLOAD SWAP1 DUP2 MSTORE TIMESTAMP PUSH1 0x20 DUP3 ADD MSTORE LOG2 DUP1 RETURN JUMPDEST POP CALLVALUE PUSH2 0x34F JUMPI DUP2 PUSH32 0xFFFFFFFFFFFFFFFFFFFFFFFFFFFFFFFFFFFFFFFFFFFFFFFFFFFFFFFFFFFFFFFC CALLDATASIZE ADD SLT PUSH2 0x34F JUMPI DUP1 MLOAD PUSH2 0x86A SWAP2 PUSH2 0xC05 DUP3 PUSH2 0x1000 JUMP JUMPDEST PUSH1 0x6 DUP3 MSTORE PUSH32 0x506F696E74730000000000000000000000000000000000000000000000000000 PUSH1 0x20 DUP4 ADD MSTORE MLOAD SWAP2 DUP3 SWAP2 DUP3 PUSH2 0xDEE JUMP JUMPDEST DUP5 SWAP3 SWAP2 POP CALLVALUE PUSH2 0xDA0 JUMPI PUSH1 0x20 PUSH32 0xFFFFFFFFFFFFFFFFFFFFFFFFFFFFFFFFFFFFFFFFFFFFFFFFFFFFFFFFFFFFFFFC CALLDATASIZE ADD SLT PUSH2 0xDA0 JUMPI PUSH2 0xC74 PUSH2 0xDCB JUMP JUMPDEST SWAP1 PUSH20 0xFFFFFFFFFFFFFFFFFFFFFFFFFFFFFFFFFFFFFFFF PUSH32 0x0 AND SWAP1 DUP2 ISZERO PUSH2 0xDA4 JUMPI POP SWAP1 DUP5 SWAP2 PUSH2 0xCC0 CALLER PUSH2 0x11F9 JUMP JUMPDEST SWAP2 DUP3 PUSH2 0xCCA JUMPI DUP4 DUP1 RETURN JUMPDEST CALLER DUP5 MSTORE PUSH1 0x3 PUSH1 0x20 MSTORE DUP5 DUP5 KECCAK256 DUP1 SLOAD PUSH32 0xFFFFFFFFFFFFFFFFFFFFFFFFFF00000000000000000000000000000000000000 AND PUSH19 0xFFFFFFFFFF0000000000000000000000000000 TIMESTAMP PUSH1 0x70 SHL AND OR SWAP1 SSTORE DUP2 EXTCODESIZE ISZERO PUSH2 0xDA0 JUMPI DUP4 PUSH2 0xD77 SWAP7 DUP7 MLOAD SWAP8 DUP9 SWAP6 DUP7 SWAP5 DUP6 SWAP4 PUSH32 0x21670F2200000000000000000000000000000000000000000000000000000000 DUP6 MSTORE DUP5 ADD PUSH1 0x20 SWAP1 SWAP4 SWAP3 SWAP2 SWAP4 PUSH20 0xFFFFFFFFFFFFFFFFFFFFFFFFFFFFFFFFFFFFFFFF PUSH1 0x40 DUP3 ADD SWAP6 AND DUP2 MSTORE ADD MSTORE JUMP JUMPDEST SUB SWAP3 GAS CALL SWAP1 DUP2 ISZERO PUSH2 0x31A JUMPI POP PUSH2 0xD91 JUMPI JUMPDEST DUP1 DUP3 DUP2 DUP1 DUP1 DUP4 DUP1 RETURN JUMPDEST PUSH2 0xD9A SWAP1 PUSH2 0xFBD JUMP JUMPDEST DUP2 PUSH2 0xD88 JUMP JUMPDEST DUP4 DUP1 REVERT JUMPDEST DUP1 PUSH32 0xEA8E4EB500000000000000000000000000000000000000000000000000000000 DUP7 SWAP3 MSTORE REVERT JUMPDEST PUSH1 0x4 CALLDATALOAD SWAP1 PUSH20 0xFFFFFFFFFFFFFFFFFFFFFFFFFFFFFFFFFFFFFFFF DUP3 AND DUP3 SUB PUSH2 0x437 JUMPI JUMP JUMPDEST PUSH1 0x20 DUP1 DUP3 MSTORE DUP3 MLOAD DUP2 DUP4 ADD DUP2 SWAP1 MSTORE SWAP4 SWAP3 PUSH1 0x0 JUMPDEST DUP6 DUP2 LT PUSH2 0xE40 JUMPI POP POP POP PUSH32 0xFFFFFFFFFFFFFFFFFFFFFFFFFFFFFFFFFFFFFFFFFFFFFFFFFFFFFFFFFFFFFFE0 PUSH1 0x1F DUP5 PUSH1 0x0 PUSH1 0x40 DUP1 SWAP7 SWAP8 DUP7 ADD ADD MSTORE ADD AND ADD ADD SWAP1 JUMP JUMPDEST DUP2 DUP2 ADD DUP4 ADD MLOAD DUP5 DUP3 ADD PUSH1 0x40 ADD MSTORE DUP3 ADD PUSH2 0xE00 JUMP JUMPDEST CALLVALUE PUSH2 0x437 JUMPI PUSH1 0x40 PUSH32 0xFFFFFFFFFFFFFFFFFFFFFFFFFFFFFFFFFFFFFFFFFFFFFFFFFFFFFFFFFFFFFFFC CALLDATASIZE ADD SLT PUSH2 0x437 JUMPI PUSH2 0xE8B PUSH2 0xDCB JUMP JUMPDEST POP PUSH1 0x4 PUSH1 0x40 MLOAD PUSH32 0x9CBE235700000000000000000000000000000000000000000000000000000000 DUP2 MSTORE REVERT JUMPDEST PUSH32 0xFFFFFFFFFFFFFFFFFFFFFFFFFFFFFFFFFFFFFFFFFFFFFFFFFFFFFFFFFFFFFFFC PUSH1 0x60 SWAP2 ADD SLT PUSH2 0x437 JUMPI PUSH20 0xFFFFFFFFFFFFFFFFFFFFFFFFFFFFFFFFFFFFFFFF SWAP1 PUSH1 0x4 CALLDATALOAD DUP3 DUP2 AND DUP2 SUB PUSH2 0x437 JUMPI SWAP2 PUSH1 0x24 CALLDATALOAD SWAP1 DUP2 AND DUP2 SUB PUSH2 0x437 JUMPI SWAP1 PUSH1 0x44 CALLDATALOAD SWAP1 JUMP JUMPDEST SWAP1 PUSH1 0x20 PUSH32 0xFFFFFFFFFFFFFFFFFFFFFFFFFFFFFFFFFFFFFFFFFFFFFFFFFFFFFFFFFFFFFFFC DUP4 ADD SLT PUSH2 0x437 JUMPI PUSH1 0x4 CALLDATALOAD PUSH8 0xFFFFFFFFFFFFFFFF SWAP3 DUP4 DUP3 GT PUSH2 0x437 JUMPI DUP1 PUSH1 0x23 DUP4 ADD SLT ISZERO PUSH2 0x437 JUMPI DUP2 PUSH1 0x4 ADD CALLDATALOAD SWAP4 DUP5 GT PUSH2 0x437 JUMPI PUSH1 0x24 DUP5 PUSH1 0x5 SHL DUP4 ADD ADD GT PUSH2 0x437 JUMPI PUSH1 0x24 ADD SWAP2 SWAP1 JUMP JUMPDEST PUSH1 0x20 SWAP1 PUSH1 0x20 PUSH1 0x40 DUP2 DUP4 ADD SWAP3 DUP3 DUP2 MSTORE DUP6 MLOAD DUP1 SWAP5 MSTORE ADD SWAP4 ADD SWAP2 PUSH1 0x0 JUMPDEST DUP3 DUP2 LT PUSH2 0xFA9 JUMPI POP POP POP POP SWAP1 JUMP JUMPDEST DUP4 MLOAD DUP6 MSTORE SWAP4 DUP2 ADD SWAP4 SWAP3 DUP2 ADD SWAP3 PUSH1 0x1 ADD PUSH2 0xF9B JUMP JUMPDEST PUSH8 0xFFFFFFFFFFFFFFFF DUP2 GT PUSH2 0xFD1 JUMPI PUSH1 0x40 MSTORE JUMP JUMPDEST PUSH32 0x4E487B7100000000000000000000000000000000000000000000000000000000 PUSH1 0x0 MSTORE PUSH1 0x41 PUSH1 0x4 MSTORE PUSH1 0x24 PUSH1 0x0 REVERT JUMPDEST PUSH1 0x40 DUP2 ADD SWAP1 DUP2 LT PUSH8 0xFFFFFFFFFFFFFFFF DUP3 GT OR PUSH2 0xFD1 JUMPI PUSH1 0x40 MSTORE JUMP JUMPDEST SWAP1 PUSH1 0x1F PUSH32 0xFFFFFFFFFFFFFFFFFFFFFFFFFFFFFFFFFFFFFFFFFFFFFFFFFFFFFFFFFFFFFFE0 SWAP2 ADD AND DUP2 ADD SWAP1 DUP2 LT PUSH8 0xFFFFFFFFFFFFFFFF DUP3 GT OR PUSH2 0xFD1 JUMPI PUSH1 0x40 MSTORE JUMP JUMPDEST PUSH8 0xFFFFFFFFFFFFFFFF DUP2 GT PUSH2 0xFD1 JUMPI PUSH1 0x5 SHL PUSH1 0x20 ADD SWAP1 JUMP JUMPDEST ISZERO PUSH2 0x107C JUMPI JUMP JUMPDEST PUSH1 0x64 PUSH1 0x40 MLOAD PUSH32 0x8C379A000000000000000000000000000000000000000000000000000000000 DUP2 MSTORE PUSH1 0x20 PUSH1 0x4 DUP3 ADD MSTORE PUSH1 0xE PUSH1 0x24 DUP3 ADD MSTORE PUSH32 0x4E4F545F415554484F52495A4544000000000000000000000000000000000000 PUSH1 0x44 DUP3 ADD MSTORE REVERT JUMPDEST SWAP2 SWAP1 DUP3 ADD DUP1 SWAP3 GT PUSH2 0x10E7 JUMPI JUMP JUMPDEST PUSH32 0x4E487B7100000000000000000000000000000000000000000000000000000000 PUSH1 0x0 MSTORE PUSH1 0x11 PUSH1 0x4 MSTORE PUSH1 0x24 PUSH1 0x0 REVERT JUMPDEST SWAP1 PUSH2 0x1120 DUP3 PUSH2 0x105D JUMP JUMPDEST PUSH2 0x112D PUSH1 0x40 MLOAD SWAP2 DUP3 PUSH2 0x101C JUMP JUMPDEST DUP3 DUP2 MSTORE PUSH32 0xFFFFFFFFFFFFFFFFFFFFFFFFFFFFFFFFFFFFFFFFFFFFFFFFFFFFFFFFFFFFFFE0 PUSH2 0x115B DUP3 SWAP5 PUSH2 0x105D JUMP JUMPDEST ADD SWAP1 PUSH1 0x20 CALLDATASIZE SWAP2 ADD CALLDATACOPY JUMP JUMPDEST SWAP2 SWAP1 DUP2 LT ISZERO PUSH2 0x1175 JUMPI PUSH1 0x5 SHL ADD SWAP1 JUMP JUMPDEST PUSH32 0x4E487B7100000000000000000000000000000000000000000000000000000000 PUSH1 0x0 MSTORE PUSH1 0x32 PUSH1 0x4 MSTORE PUSH1 0x24 PUSH1 0x0 REVERT JUMPDEST CALLDATALOAD PUSH20 0xFFFFFFFFFFFFFFFFFFFFFFFFFFFFFFFFFFFFFFFF DUP2 AND DUP2 SUB PUSH2 0x437 JUMPI SWAP1 JUMP JUMPDEST DUP1 MLOAD DUP3 LT ISZERO PUSH2 0x1175 JUMPI PUSH1 0x20 SWAP2 PUSH1 0x5 SHL ADD ADD SWAP1 JUMP JUMPDEST SWAP2 SWAP1 DUP3 SUB SWAP2 DUP3 GT PUSH2 0x10E7 JUMPI JUMP JUMPDEST DUP2 DUP2 MUL SWAP3 SWAP2 DUP2 ISZERO SWAP2 DUP5 DIV EQ OR ISZERO PUSH2 0x10E7 JUMPI JUMP JUMPDEST PUSH20 0xFFFFFFFFFFFFFFFFFFFFFFFFFFFFFFFFFFFFFFFF PUSH2 0x129F SWAP2 AND PUSH1 0x0 DUP2 DUP2 MSTORE PUSH1 0x3 PUSH1 0x20 MSTORE PUSH1 0x40 PUSH2 0x1236 PUSH5 0xFFFFFFFFFF DUP3 DUP5 KECCAK256 SLOAD PUSH1 0x70 SHR AND TIMESTAMP PUSH2 0x11D9 JUMP JUMPDEST SWAP2 DUP4 DUP2 MSTORE PUSH1 0x2 PUSH1 0x20 MSTORE PUSH4 0x3B9ACA00 PUSH2 0x128D PUSH2 0x1266 PUSH14 0xFFFFFFFFFFFFFFFFFFFFFFFFFFFF SWAP6 DUP7 DUP7 DUP7 KECCAK256 SLOAD AND SWAP1 PUSH2 0x11E6 JUMP JUMPDEST PUSH32 0x0 SWAP1 PUSH2 0x11E6 JUMP JUMPDEST DIV SWAP4 DUP2 MSTORE PUSH1 0x3 PUSH1 0x20 MSTORE KECCAK256 SLOAD AND SWAP1 PUSH2 0x10DA JUMP JUMPDEST SWAP1 JUMP JUMPDEST PUSH20 0xFFFFFFFFFFFFFFFFFFFFFFFFFFFFFFFFFFFFFFFF PUSH2 0x129F SWAP2 AND DUP1 PUSH1 0x0 MSTORE PUSH1 0x2 PUSH1 0x20 MSTORE PUSH1 0x40 PUSH1 0x0 KECCAK256 SLOAD SWAP1 PUSH13 0xFFFFFFFFFFFFFFFFFFFFFFFFFF SWAP2 PUSH14 0xFFFFFFFFFFFFFFFFFFFFFFFFFFFF SWAP3 PUSH2 0x130A PUSH1 0x1 SLOAD DUP3 PUSH2 0xA4A PUSH1 0x0 SLOAD PUSH5 0xFFFFFFFFFF DUP5 AND SWAP1 DUP5 PUSH1 0x90 SHR PUSH2 0x132B JUMP JUMPDEST SWAP3 PUSH1 0x0 MSTORE PUSH1 0x2 PUSH1 0x20 MSTORE DUP4 PUSH1 0x1 PUSH1 0x40 PUSH1 0x0 KECCAK256 ADD SLOAD AND SWAP4 DUP3 AND SWAP2 PUSH1 0x70 SHR AND PUSH2 0x1451 JUMP JUMPDEST SWAP2 SWAP1 DUP3 ISZERO PUSH2 0x1365 JUMPI PUSH2 0x1340 PUSH2 0x1345 SWAP3 TIMESTAMP PUSH2 0x11D9 JUMP JUMPDEST PUSH2 0x11E6 JUMP JUMPDEST PUSH10 0xD3C21BCECCEDA1000000 SWAP1 DUP2 DUP2 MUL SWAP2 DUP2 DUP4 DIV EQ SWAP1 ISZERO OR ISZERO PUSH2 0x10E7 JUMPI DIV SWAP1 JUMP JUMPDEST POP POP POP PUSH1 0x0 SWAP1 JUMP JUMPDEST DUP2 ISZERO PUSH2 0x144D JUMPI PUSH32 0xDDF252AD1BE2C89B69C2B068FC378DAA952BA7F163C4A11628F55A4DF523B3EF PUSH1 0x20 PUSH1 0x0 SWAP4 PUSH20 0xFFFFFFFFFFFFFFFFFFFFFFFFFFFFFFFFFFFFFFFF PUSH2 0x13B7 DUP6 PUSH2 0x15F4 JUMP JUMPDEST SWAP6 SWAP1 PUSH18 0xFFFFFFFFFFFFFFFFFFFFFFFFFFFFFFFFFFFF PUSH32 0xFFFFFFFFFFFFFFFFFFFFFFFFFFFF000000000000000000000000000000000000 DUP6 PUSH1 0x1 SLOAD SWAP4 SUB PUSH1 0x90 SHL AND SWAP2 AND OR PUSH1 0x1 SSTORE AND SWAP4 DUP5 DUP7 MSTORE PUSH1 0x2 DUP4 MSTORE PUSH14 0xFFFFFFFFFFFFFFFFFFFFFFFFFFFF DUP3 PUSH1 0x40 DUP9 KECCAK256 SWAP3 SUB AND PUSH32 0xFFFFFFFFFFFFFFFFFFFFFFFFFFFFFFFFFFFF0000000000000000000000000000 DUP3 SLOAD AND OR SWAP1 SSTORE PUSH1 0x40 MLOAD SWAP1 DUP2 MSTORE LOG3 JUMP JUMPDEST POP POP JUMP JUMPDEST PUSH2 0x145E SWAP1 PUSH2 0x1464 SWAP4 PUSH2 0x11D9 JUMP JUMPDEST SWAP1 PUSH2 0x11E6 JUMP JUMPDEST SWAP1 PUSH5 0xE8D4A51000 SWAP2 DUP3 DUP2 MUL SWAP3 DUP2 DUP5 DIV EQ SWAP1 ISZERO OR ISZERO PUSH2 0x10E7 JUMPI PUSH10 0xD3C21BCECCEDA1000000 PUSH2 0x129F SWAP3 DIV SWAP1 PUSH2 0x10DA JUMP JUMPDEST SWAP1 DUP1 ISZERO PUSH2 0x144D JUMPI PUSH32 0xDDF252AD1BE2C89B69C2B068FC378DAA952BA7F163C4A11628F55A4DF523B3EF PUSH1 0x20 PUSH1 0x0 SWAP3 PUSH20 0xFFFFFFFFFFFFFFFFFFFFFFFFFFFFFFFFFFFFFFFF PUSH2 0x14DD DUP7 PUSH2 0x15F4 JUMP JUMPDEST SWAP7 SWAP1 PUSH18 0xFFFFFFFFFFFFFFFFFFFFFFFFFFFFFFFFFFFF PUSH32 0xFFFFFFFFFFFFFFFFFFFFFFFFFFFF000000000000000000000000000000000000 DUP6 PUSH1 0x1 SLOAD SWAP4 ADD PUSH1 0x90 SHL AND SWAP2 AND OR PUSH1 0x1 SSTORE AND SWAP5 DUP6 DUP6 MSTORE PUSH1 0x2 DUP4 MSTORE PUSH14 0xFFFFFFFFFFFFFFFFFFFFFFFFFFFF DUP3 PUSH1 0x40 DUP8 KECCAK256 SWAP3 ADD AND PUSH32 0xFFFFFFFFFFFFFFFFFFFFFFFFFFFFFFFFFFFF0000000000000000000000000000 DUP3 SLOAD AND OR SWAP1 SSTORE PUSH1 0x40 MLOAD SWAP1 DUP2 MSTORE LOG3 JUMP JUMPDEST PUSH1 0x1 SLOAD DUP1 PUSH1 0x90 SHR SWAP2 PUSH1 0x0 SLOAD SWAP2 PUSH2 0x15AE PUSH2 0x1596 PUSH5 0xFFFFFFFFFF SWAP5 DUP6 DUP5 AND SWAP1 DUP8 PUSH2 0x132B JUMP JUMPDEST PUSH13 0xFFFFFFFFFFFFFFFFFFFFFFFFFF DUP4 PUSH1 0x28 SHR AND PUSH2 0x10DA JUMP JUMPDEST SWAP3 TIMESTAMP AND SWAP1 PUSH32 0xFFFFFFFFFFFFFFFFFFFFFFFFFFFF000000000000000000000000000000000000 PUSH18 0xFFFFFFFFFFFFFFFFFFFFFFFFFF0000000000 DUP6 PUSH1 0x28 SHL AND SWAP2 AND OR OR PUSH1 0x1 SSTORE JUMP JUMPDEST SWAP1 PUSH20 0xFFFFFFFFFFFFFFFFFFFFFFFFFFFFFFFFFFFFFFFF SWAP2 PUSH2 0x1613 PUSH2 0x1573 JUMP JUMPDEST SWAP4 SWAP1 SWAP2 AND PUSH1 0x0 SWAP1 DUP1 DUP3 MSTORE PUSH1 0x2 PUSH1 0x20 MSTORE PUSH1 0x1 PUSH2 0x1668 PUSH2 0x16F0 PUSH1 0x40 DUP6 KECCAK256 SWAP8 DUP9 SLOAD PUSH14 0xFFFFFFFFFFFFFFFFFFFFFFFFFFFF SWAP4 DUP2 DUP4 DUP7 DUP1 SWAP5 AND DUP1 SWAP14 DUP6 PUSH13 0xFFFFFFFFFFFFFFFFFFFFFFFFFF SWAP11 DUP12 SWAP3 ADD SLOAD AND SWAP4 PUSH1 0x70 SHR AND PUSH2 0x1451 JUMP JUMPDEST AND SWAP4 DUP6 DUP8 MSTORE PUSH1 0x2 PUSH1 0x20 MSTORE PUSH1 0x40 DUP8 KECCAK256 SWAP2 PUSH1 0x1 DUP4 ADD PUSH32 0xFFFFFFFFFFFFFFFFFFFFFFFFFFFFFFFFFFFF0000000000000000000000000000 SWAP7 DUP8 DUP3 SLOAD AND OR SWAP1 SSTORE AND PUSH32 0xFFFFFFFFFF00000000000000000000000000FFFFFFFFFFFFFFFFFFFFFFFFFFFF PUSH27 0xFFFFFFFFFFFFFFFFFFFFFFFFFF0000000000000000000000000000 DUP4 SLOAD SWAP3 PUSH1 0x70 SHL AND SWAP2 AND OR SWAP1 SSTORE JUMP JUMPDEST PUSH1 0x3 PUSH1 0x20 MSTORE PUSH5 0xFFFFFFFFFF SWAP4 PUSH4 0x3B9ACA00 PUSH2 0x171B PUSH2 0x1266 DUP11 PUSH2 0x1340 DUP10 PUSH1 0x40 DUP8 KECCAK256 SLOAD PUSH1 0x70 SHR AND TIMESTAMP PUSH2 0x11D9 JUMP JUMPDEST DIV SWAP4 DUP2 MSTORE PUSH1 0x3 PUSH1 0x20 MSTORE PUSH2 0x1773 PUSH1 0x40 DUP3 KECCAK256 SWAP6 TIMESTAMP AND DUP7 SWAP1 PUSH32 0xFFFFFFFFFFFFFFFFFFFFFFFFFF0000000000FFFFFFFFFFFFFFFFFFFFFFFFFFFF PUSH19 0xFFFFFFFFFF0000000000000000000000000000 DUP4 SLOAD SWAP3 PUSH1 0x70 SHL AND SWAP2 AND OR SWAP1 SSTORE JUMP JUMPDEST DUP2 DUP6 SLOAD SWAP5 AND DUP3 DUP6 AND ADD SWAP1 DUP3 DUP3 GT PUSH2 0x178F JUMPI POP AND SWAP2 AND OR SWAP1 SSTORE SWAP2 SWAP1 JUMP JUMPDEST DUP1 PUSH32 0x4E487B7100000000000000000000000000000000000000000000000000000000 PUSH1 0x24 SWAP3 MSTORE PUSH1 0x11 PUSH1 0x4 MSTORE REVERT INVALID LOG2 PUSH5 0x6970667358 0x22 SLT KECCAK256 PUSH5 0x58FB4B32A5 SELFBALANCE SWAP15 0xD4 DUP4 0xA6 JUMP DUP11 DUP5 REVERT 0xEE 0x2F CHAINID 0xDD KECCAK256 LOG1 DELEGATECALL DUP4 PUSH14 0x890BFEC2D9993F5264736F6C6343 STOP ADDMOD XOR STOP CALLER "
    },
    "gasEstimates": {
      "creation": {
        "codeDepositCost": "1226000",
        "executionCost": "infinite",
        "totalCost": "infinite"
      },
      "external": {
        "REWARD()": "infinite",
        "add(address,uint256)": "infinite",
        "allowance(address,address)": "709",
        "approve(address,uint256)": "289",
        "balanceOf(address)": "2606",
        "claimFixedRewards(address)": "infinite",
        "claimSharedPoolRewards(address)": "infinite",
        "decimals()": "304",
        "earnedFromFixedRate(address)": "infinite",
        "earnedFromFixedRateMultipleAccounts(address[])": "infinite",
        "earnedFromPoolRate(address)": "infinite",
        "earnedFromPoolRateMultipleAccounts(address[])": "infinite",
        "enableGame(address,uint256)": "26306",
        "games(address)": "2625",
        "getTotalRewardPerPointWithPrecision24()": "4888",
        "move(address,address,uint256)": "infinite",
        "name()": "infinite",
        "postUpgrade(address,(uint256,uint256),address[])": "infinite",
        "remove(address,uint256)": "infinite",
        "symbol()": "infinite",
        "totalSupply()": "2372",
        "transfer(address,uint256)": "553",
        "transferFrom(address,address,uint256)": "403"
      },
      "internal": {
        "_add(address,uint256)": "infinite",
        "_computeExtraTotalRewardPerPointSinceLastTime(uint256,uint256,uint256)": "259",
        "_computeRewardsEarned(uint256,uint256,uint256,uint256)": "304",
        "_enableGame(address,uint256)": "infinite",
        "_postUpgrade(contract IReward,struct RewardsGenerator.Config memory,address[] memory)": "infinite",
        "_remove(address,uint256)": "infinite",
        "_update(address)": "infinite",
        "_updateAccount(address,uint256)": "infinite",
        "_updateGlobal()": "26727"
      }
    },
    "methodIdentifiers": {
      "REWARD()": "cab34c08",
      "add(address,uint256)": "f5d82b6b",
      "allowance(address,address)": "dd62ed3e",
      "approve(address,uint256)": "095ea7b3",
      "balanceOf(address)": "70a08231",
      "claimFixedRewards(address)": "066112f9",
      "claimSharedPoolRewards(address)": "ff1e03e9",
      "decimals()": "313ce567",
      "earnedFromFixedRate(address)": "a8671f6a",
      "earnedFromFixedRateMultipleAccounts(address[])": "7997f96d",
      "earnedFromPoolRate(address)": "b061963c",
      "earnedFromPoolRateMultipleAccounts(address[])": "59d431b3",
      "enableGame(address,uint256)": "16cf09f8",
      "games(address)": "79131a19",
      "getTotalRewardPerPointWithPrecision24()": "48483382",
      "move(address,address,uint256)": "bb35783b",
      "name()": "06fdde03",
      "postUpgrade(address,(uint256,uint256),address[])": "cee2960b",
      "remove(address,uint256)": "abe7f1ab",
      "symbol()": "95d89b41",
      "totalSupply()": "18160ddd",
      "transfer(address,uint256)": "a9059cbb",
      "transferFrom(address,address,uint256)": "23b872dd"
    }
  },
  "storageLayout": {
    "storage": [
      {
        "astId": 183,
        "contract": "src/token/RewardsGenerator.sol:RewardsGenerator",
        "label": "REWARD_RATE_millionth",
        "offset": 0,
        "slot": "0",
        "type": "t_uint256"
      },
      {
        "astId": 203,
        "contract": "src/token/RewardsGenerator.sol:RewardsGenerator",
        "label": "_global",
        "offset": 0,
        "slot": "1",
        "type": "t_struct(GlobalState)200_storage"
      },
      {
        "astId": 215,
        "contract": "src/token/RewardsGenerator.sol:RewardsGenerator",
        "label": "_sharedRateRewardPerAccount",
        "offset": 0,
        "slot": "2",
        "type": "t_mapping(t_address,t_struct(SharedRatePerAccount)210_storage)"
      },
      {
        "astId": 225,
        "contract": "src/token/RewardsGenerator.sol:RewardsGenerator",
        "label": "_fixedRateRewardPerAccount",
        "offset": 0,
        "slot": "3",
        "type": "t_mapping(t_address,t_struct(FixedRate)220_storage)"
      },
      {
        "astId": 229,
        "contract": "src/token/RewardsGenerator.sol:RewardsGenerator",
        "label": "games",
        "offset": 0,
        "slot": "4",
        "type": "t_mapping(t_address,t_uint256)"
      },
      {
        "astId": 239,
        "contract": "src/token/RewardsGenerator.sol:RewardsGenerator",
        "label": "_init",
        "offset": 0,
        "slot": "5",
        "type": "t_bool"
      }
    ],
    "types": {
      "t_address": {
        "encoding": "inplace",
        "label": "address",
        "numberOfBytes": "20"
      },
      "t_bool": {
        "encoding": "inplace",
        "label": "bool",
        "numberOfBytes": "1"
      },
      "t_mapping(t_address,t_struct(FixedRate)220_storage)": {
        "encoding": "mapping",
        "key": "t_address",
        "label": "mapping(address => struct RewardsGenerator.FixedRate)",
        "numberOfBytes": "32",
        "value": "t_struct(FixedRate)220_storage"
      },
      "t_mapping(t_address,t_struct(SharedRatePerAccount)210_storage)": {
        "encoding": "mapping",
        "key": "t_address",
        "label": "mapping(address => struct RewardsGenerator.SharedRatePerAccount)",
        "numberOfBytes": "32",
        "value": "t_struct(SharedRatePerAccount)210_storage"
      },
      "t_mapping(t_address,t_uint256)": {
        "encoding": "mapping",
        "key": "t_address",
        "label": "mapping(address => uint256)",
        "numberOfBytes": "32",
        "value": "t_uint256"
      },
      "t_struct(FixedRate)220_storage": {
        "encoding": "inplace",
        "label": "struct RewardsGenerator.FixedRate",
        "members": [
          {
            "astId": 217,
            "contract": "src/token/RewardsGenerator.sol:RewardsGenerator",
            "label": "toWithdraw",
            "offset": 0,
            "slot": "0",
            "type": "t_uint112"
          },
          {
            "astId": 219,
            "contract": "src/token/RewardsGenerator.sol:RewardsGenerator",
            "label": "lastTime",
            "offset": 14,
            "slot": "0",
            "type": "t_uint40"
          }
        ],
        "numberOfBytes": "32"
      },
      "t_struct(GlobalState)200_storage": {
        "encoding": "inplace",
        "label": "struct RewardsGenerator.GlobalState",
        "members": [
          {
            "astId": 195,
            "contract": "src/token/RewardsGenerator.sol:RewardsGenerator",
            "label": "lastUpdateTime",
            "offset": 0,
            "slot": "0",
            "type": "t_uint40"
          },
          {
            "astId": 197,
            "contract": "src/token/RewardsGenerator.sol:RewardsGenerator",
            "label": "totalRewardPerPointAtLastUpdate",
            "offset": 5,
            "slot": "0",
            "type": "t_uint104"
          },
          {
            "astId": 199,
            "contract": "src/token/RewardsGenerator.sol:RewardsGenerator",
            "label": "totalPoints",
            "offset": 18,
            "slot": "0",
            "type": "t_uint112"
          }
        ],
        "numberOfBytes": "32"
      },
      "t_struct(SharedRatePerAccount)210_storage": {
        "encoding": "inplace",
        "label": "struct RewardsGenerator.SharedRatePerAccount",
        "members": [
          {
            "astId": 205,
            "contract": "src/token/RewardsGenerator.sol:RewardsGenerator",
            "label": "points",
            "offset": 0,
            "slot": "0",
            "type": "t_uint112"
          },
          {
            "astId": 207,
            "contract": "src/token/RewardsGenerator.sol:RewardsGenerator",
            "label": "totalRewardPerPointAccounted",
            "offset": 14,
            "slot": "0",
            "type": "t_uint104"
          },
          {
            "astId": 209,
            "contract": "src/token/RewardsGenerator.sol:RewardsGenerator",
            "label": "rewardsToWithdraw",
            "offset": 0,
            "slot": "1",
            "type": "t_uint112"
          }
        ],
        "numberOfBytes": "64"
      },
      "t_uint104": {
        "encoding": "inplace",
        "label": "uint104",
        "numberOfBytes": "13"
      },
      "t_uint112": {
        "encoding": "inplace",
        "label": "uint112",
        "numberOfBytes": "14"
      },
      "t_uint256": {
        "encoding": "inplace",
        "label": "uint256",
        "numberOfBytes": "32"
      },
      "t_uint40": {
        "encoding": "inplace",
        "label": "uint40",
        "numberOfBytes": "5"
      }
    }
  },
  "userdoc": {
    "errors": {
      "NonTransferable()": [
        {
          "notice": "Token cannot be transfered"
        }
      ],
      "NotAuthorized()": [
        {
          "notice": "Not authorized to perform this operation"
        }
      ]
    },
    "events": {
      "Approval(address,address,uint256)": {
        "notice": "trigger on approval amount being set.   Note that Transfer events need to be considered to compute the current allowance."
      },
      "Transfer(address,address,uint256)": {
        "notice": "trigger when tokens are transferred, including zero value transfers."
      }
    },
    "kind": "user",
    "methods": {
      "allowance(address,address)": {
        "notice": "Returns the amount which `spender` is still allowed to withdraw from `owner`."
      },
      "approve(address,uint256)": {
        "notice": "Allows `spender` to withdraw from your account multiple times, up to `amount`."
      },
      "balanceOf(address)": {
        "notice": "Returns the account balance of another account with address `owner`."
      },
      "claimFixedRewards(address)": {
        "notice": "claim the rewards earned so far using a fixed rate per point"
      },
      "claimSharedPoolRewards(address)": {
        "notice": "claim the rewards earned so far in the shared pool"
      },
      "decimals()": {
        "notice": "Returns the number of decimals the token uses."
      },
      "earnedFromFixedRate(address)": {
        "notice": "The amount of reward an account has accrued so far. Does not include already withdrawn rewards."
      },
      "earnedFromFixedRateMultipleAccounts(address[])": {
        "notice": "The amount of reward an account has accrued so far. Does not include already withdrawn rewards."
      },
      "earnedFromPoolRate(address)": {
        "notice": "The amount of reward an account has accrued so far. Does not include already withdrawn rewards."
      },
      "earnedFromPoolRateMultipleAccounts(address[])": {
        "notice": "The amount of reward an account has accrued so far. Does not include already withdrawn rewards."
      },
      "getTotalRewardPerPointWithPrecision24()": {
        "notice": "The amount of reward each point has earned so far"
      },
      "name()": {
        "notice": "Returns the name of the token."
      },
      "symbol()": {
        "notice": "Returns the symbol of the token."
      },
      "totalSupply()": {
        "notice": "Returns the total token supply."
      },
      "transfer(address,uint256)": {
        "notice": "Transfers `amount` of tokens to address `to`."
      },
      "transferFrom(address,address,uint256)": {
        "notice": "Transfers `amount` tokens from address `from` to address `to`."
      }
    },
    "version": 1
  },
  "argsData": "0x000000000000000000000000d2944ce5be41def8920a73c2a1da38720cbb9d3e00000000000000000000000061c461ecc993aadeb7e4b47e96d1b8cc37314b2000000000000000000000000000000000000000000000000000000000000000600000000000000000000000000000000000000000000000000000000000000000",
  "transaction": {
    "hash": "0xeab98389e987c0e38f600b9d795e810674b22bb0513a508e2735a13b13ea2b9b",
    "nonce": "0x57",
    "origin": "0x61c461ecc993aadeb7e4b47e96d1b8cc37314b20"
  },
  "updated": true,
  "_format": "hh-sol-artifact-1"
}