{
  "address": "0xd2944ce5be41def8920a73c2a1da38720cbb9d3e",
  "abi": [
    {
      "inputs": [
        {
          "internalType": "contract IReward",
          "name": "rewardAddress",
          "type": "address"
        },
        {
          "components": [
            {
              "internalType": "uint256",
              "name": "rewardRateMillionth",
              "type": "uint256"
            },
            {
              "internalType": "uint256",
              "name": "fixedRewardRateThousandsMillionth",
              "type": "uint256"
            }
          ],
          "internalType": "struct RewardsGenerator.Config",
          "name": "config",
          "type": "tuple"
        },
        {
          "internalType": "address[]",
          "name": "initialGames",
          "type": "address[]"
        }
      ],
      "stateMutability": "nonpayable",
      "type": "constructor"
    },
    {
      "inputs": [],
      "name": "NonTransferable",
      "type": "error"
    },
    {
      "inputs": [],
      "name": "NotAuthorized",
      "type": "error"
    },
    {
      "anonymous": false,
      "inputs": [
        {
          "indexed": true,
          "internalType": "address",
          "name": "owner",
          "type": "address"
        },
        {
          "indexed": true,
          "internalType": "address",
          "name": "spender",
          "type": "address"
        },
        {
          "indexed": false,
          "internalType": "uint256",
          "name": "value",
          "type": "uint256"
        }
      ],
      "name": "Approval",
      "type": "event"
    },
    {
      "anonymous": false,
      "inputs": [
        {
          "indexed": true,
          "internalType": "address",
          "name": "game",
          "type": "address"
        },
        {
          "indexed": false,
          "internalType": "uint256",
          "name": "weight",
          "type": "uint256"
        },
        {
          "indexed": false,
          "internalType": "uint256",
          "name": "timestamp",
          "type": "uint256"
        }
      ],
      "name": "GameEnabled",
      "type": "event"
    },
    {
      "anonymous": false,
      "inputs": [
        {
          "indexed": true,
          "internalType": "address",
          "name": "from",
          "type": "address"
        },
        {
          "indexed": true,
          "internalType": "address",
          "name": "to",
          "type": "address"
        },
        {
          "indexed": false,
          "internalType": "uint256",
          "name": "value",
          "type": "uint256"
        }
      ],
      "name": "Transfer",
      "type": "event"
    },
    {
      "inputs": [],
      "name": "REWARD",
      "outputs": [
        {
          "internalType": "contract IReward",
          "name": "",
          "type": "address"
        }
      ],
      "stateMutability": "view",
      "type": "function"
    },
    {
      "inputs": [
        {
          "internalType": "address",
          "name": "account",
          "type": "address"
        },
        {
          "internalType": "uint256",
          "name": "amount",
          "type": "uint256"
        }
      ],
      "name": "add",
      "outputs": [],
      "stateMutability": "nonpayable",
      "type": "function"
    },
    {
      "inputs": [
        {
          "internalType": "address",
          "name": "",
          "type": "address"
        },
        {
          "internalType": "address",
          "name": "",
          "type": "address"
        }
      ],
      "name": "allowance",
      "outputs": [
        {
          "internalType": "uint256",
          "name": "",
          "type": "uint256"
        }
      ],
      "stateMutability": "pure",
      "type": "function"
    },
    {
      "inputs": [
        {
          "internalType": "address",
          "name": "",
          "type": "address"
        },
        {
          "internalType": "uint256",
          "name": "",
          "type": "uint256"
        }
      ],
      "name": "approve",
      "outputs": [
        {
          "internalType": "bool",
          "name": "",
          "type": "bool"
        }
      ],
      "stateMutability": "pure",
      "type": "function"
    },
    {
      "inputs": [
        {
          "internalType": "address",
          "name": "owner",
          "type": "address"
        }
      ],
      "name": "balanceOf",
      "outputs": [
        {
          "internalType": "uint256",
          "name": "",
          "type": "uint256"
        }
      ],
      "stateMutability": "view",
      "type": "function"
    },
    {
      "inputs": [
        {
          "internalType": "address",
          "name": "to",
          "type": "address"
        }
      ],
      "name": "claimFixedRewards",
      "outputs": [],
      "stateMutability": "nonpayable",
      "type": "function"
    },
    {
      "inputs": [
        {
          "internalType": "address",
          "name": "to",
          "type": "address"
        }
      ],
      "name": "claimSharedPoolRewards",
      "outputs": [],
      "stateMutability": "nonpayable",
      "type": "function"
    },
    {
      "inputs": [],
      "name": "decimals",
      "outputs": [
        {
          "internalType": "uint8",
          "name": "",
          "type": "uint8"
        }
      ],
      "stateMutability": "pure",
      "type": "function"
    },
    {
      "inputs": [
        {
          "internalType": "address",
          "name": "account",
          "type": "address"
        }
      ],
      "name": "earnedFromFixedRate",
      "outputs": [
        {
          "internalType": "uint256",
          "name": "",
          "type": "uint256"
        }
      ],
      "stateMutability": "view",
      "type": "function"
    },
    {
      "inputs": [
        {
          "internalType": "address[]",
          "name": "accounts",
          "type": "address[]"
        }
      ],
      "name": "earnedFromFixedRateMultipleAccounts",
      "outputs": [
        {
          "internalType": "uint256[]",
          "name": "result",
          "type": "uint256[]"
        }
      ],
      "stateMutability": "view",
      "type": "function"
    },
    {
      "inputs": [
        {
          "internalType": "address",
          "name": "account",
          "type": "address"
        }
      ],
      "name": "earnedFromPoolRate",
      "outputs": [
        {
          "internalType": "uint256",
          "name": "",
          "type": "uint256"
        }
      ],
      "stateMutability": "view",
      "type": "function"
    },
    {
      "inputs": [
        {
          "internalType": "address[]",
          "name": "accounts",
          "type": "address[]"
        }
      ],
      "name": "earnedFromPoolRateMultipleAccounts",
      "outputs": [
        {
          "internalType": "uint256[]",
          "name": "result",
          "type": "uint256[]"
        }
      ],
      "stateMutability": "view",
      "type": "function"
    },
    {
      "inputs": [
        {
          "internalType": "address",
          "name": "game",
          "type": "address"
        },
        {
          "internalType": "uint256",
          "name": "weight",
          "type": "uint256"
        }
      ],
      "name": "enableGame",
      "outputs": [],
      "stateMutability": "nonpayable",
      "type": "function"
    },
    {
      "inputs": [
        {
          "internalType": "address",
          "name": "",
          "type": "address"
        }
      ],
      "name": "games",
      "outputs": [
        {
          "internalType": "uint256",
          "name": "",
          "type": "uint256"
        }
      ],
      "stateMutability": "view",
      "type": "function"
    },
    {
      "inputs": [],
      "name": "getTotalRewardPerPointWithPrecision24",
      "outputs": [
        {
          "internalType": "uint256",
          "name": "",
          "type": "uint256"
        }
      ],
      "stateMutability": "view",
      "type": "function"
    },
    {
      "inputs": [
        {
          "internalType": "address",
          "name": "from",
          "type": "address"
        },
        {
          "internalType": "address",
          "name": "to",
          "type": "address"
        },
        {
          "internalType": "uint256",
          "name": "amount",
          "type": "uint256"
        }
      ],
      "name": "move",
      "outputs": [],
      "stateMutability": "nonpayable",
      "type": "function"
    },
    {
      "inputs": [],
      "name": "name",
      "outputs": [
        {
          "internalType": "string",
          "name": "",
          "type": "string"
        }
      ],
      "stateMutability": "pure",
      "type": "function"
    },
    {
      "inputs": [
        {
          "internalType": "contract IReward",
          "name": "rewardAddress",
          "type": "address"
        },
        {
          "components": [
            {
              "internalType": "uint256",
              "name": "rewardRateMillionth",
              "type": "uint256"
            },
            {
              "internalType": "uint256",
              "name": "fixedRewardRateThousandsMillionth",
              "type": "uint256"
            }
          ],
          "internalType": "struct RewardsGenerator.Config",
          "name": "config",
          "type": "tuple"
        },
        {
          "internalType": "address[]",
          "name": "initialGames",
          "type": "address[]"
        }
      ],
      "name": "postUpgrade",
      "outputs": [],
      "stateMutability": "nonpayable",
      "type": "function"
    },
    {
      "inputs": [
        {
          "internalType": "address",
          "name": "account",
          "type": "address"
        },
        {
          "internalType": "uint256",
          "name": "amount",
          "type": "uint256"
        }
      ],
      "name": "remove",
      "outputs": [],
      "stateMutability": "nonpayable",
      "type": "function"
    },
    {
      "inputs": [],
      "name": "symbol",
      "outputs": [
        {
          "internalType": "string",
          "name": "",
          "type": "string"
        }
      ],
      "stateMutability": "view",
      "type": "function"
    },
    {
      "inputs": [],
      "name": "totalSupply",
      "outputs": [
        {
          "internalType": "uint256",
          "name": "",
          "type": "uint256"
        }
      ],
      "stateMutability": "view",
      "type": "function"
    },
    {
      "inputs": [
        {
          "internalType": "address",
          "name": "",
          "type": "address"
        },
        {
          "internalType": "uint256",
          "name": "",
          "type": "uint256"
        }
      ],
      "name": "transfer",
      "outputs": [
        {
          "internalType": "bool",
          "name": "",
          "type": "bool"
        }
      ],
      "stateMutability": "pure",
      "type": "function"
    },
    {
      "inputs": [
        {
          "internalType": "address",
          "name": "",
          "type": "address"
        },
        {
          "internalType": "address",
          "name": "",
          "type": "address"
        },
        {
          "internalType": "uint256",
          "name": "",
          "type": "uint256"
        }
      ],
      "name": "transferFrom",
      "outputs": [
        {
          "internalType": "bool",
          "name": "",
          "type": "bool"
        }
      ],
      "stateMutability": "pure",
      "type": "function"
    }
  ],
  "contractName": "RewardsGenerator",
  "sourceName": "src/token/RewardsGenerator.sol",
  "bytecode": "0x604060c08152346200024f5762001ae7803803806200001e816200026a565b928339810181810391608083126200024f578051926001600160a01b0380851685036200024f5785602092601f1901126200024f5785516001600160401b0395909390848801878111868210176200025457885283820151855287820151918486019283526060810151908882116200024f57019580601f880112156200024f57865197881162000254576005968860051b908680620000c08185016200026a565b809c815201928201019283116200024f578601905b828210620002355750505060a05251608052600194600154936000948554906200010d64ffffffffff92838316908360901c62000290565b602882901c6001600160681b03169081019290831062000221574216600160281b600160901b0360289390931b929092166001600160901b031991909116171760015551845560055460ff16156200018f575b86516117f29081620002f5823960805181611268015260a051818181610171015281816106b30152610c8c0152f35b859484955b620001ba575b50505050505050600160ff19600554161760055538808080808062000160565b81518610156200021b57868684868399851b8601015116808852600487527f50b08f8489c009db3c1b3f160cc0dae1c0c6706774750c001e4c083f9483d5f38b670de0b6b3a764000080828c20558151908152428a820152a2019562000194565b6200019a565b634e487b7160e01b88526011600452602488fd5b815186811681036200024f578152908601908601620000d5565b600080fd5b634e487b7160e01b600052604160045260246000fd5b6040519190601f01601f191682016001600160401b038111838210176200025457604052565b918215620002ec5780420391428311620002d657808302928304149042141715620002d65769d3c21bcecceda100000090818102918183041490151715620002d6570490565b634e487b7160e01b600052601160045260246000fd5b50505060009056fe60806040908082526004918236101561001757600080fd5b600091823560e01c908163066112f914610c395750806306fdde0314610bc7578063095ea7b3146107b057806316cf09f814610b0657806318160ddd14610ac757806323b872dd14610a8d578063313ce56714610a5457806348483382146109ed57806359d431b31461099957806370a082311461092857806379131a19146108c75780637997f96d1461086e57806395d89b41146107f8578063a8671f6a146107b5578063a9059cbb146107b0578063abe7f1ab1461075a578063b061963c14610710578063bb35783b146106d7578063cab34c0814610669578063cee2960b1461043c578063dd62ed3e146103d6578063f5d82b6b146103535763ff1e03e91461012257600080fd5b3461034f5760207ffffffffffffffffffffffffffffffffffffffffffffffffffffffffffffffffc36011261034f57610159610dcb565b9073ffffffffffffffffffffffffffffffffffffffff7f00000000000000000000000000000000000000000000000000000000000000001680156103275793839433855260026020526dffffffffffffffffffffffffffff908184872054166102536101f86101c6611573565b939050338a52600260205283888b20916cffffffffffffffffffffffffff97600189855460701c169401541692611451565b933389526002602052868920921682907fffffffffff00000000000000000000000000ffffffffffffffffffffffffffff7affffffffffffffffffffffffff000000000000000000000000000083549260701b169116179055565b8261025c578680f35b6001017fffffffffffffffffffffffffffffffffffff00000000000000000000000000008154169055803b15610323576102e9948680948651978895869485937f21670f2200000000000000000000000000000000000000000000000000000000855284016020909392919373ffffffffffffffffffffffffffffffffffffffff60408201951681520152565b03925af190811561031a5750610303575b80808080808680f35b61030c90610fbd565b6103175780386102fa565b80fd5b513d84823e3d90fd5b8580fd5b8482517fea8e4eb5000000000000000000000000000000000000000000000000000000008152fd5b5080fd5b5082346103d257817ffffffffffffffffffffffffffffffffffffffffffffffffffffffffffffffffc3601126103d25761038b610dcb565b913384528160205280842054156103ac57836103a960243585611492565b80f35b517fea8e4eb5000000000000000000000000000000000000000000000000000000008152fd5b8280fd5b50903461031757817ffffffffffffffffffffffffffffffffffffffffffffffffffffffffffffffffc3601126103175761040e610dcb565b5060243573ffffffffffffffffffffffffffffffffffffffff8116036104375760209151908152f35b600080fd5b50913461034f5760807ffffffffffffffffffffffffffffffffffffffffffffffffffffffffffffffffc36011261034f5773ffffffffffffffffffffffffffffffffffffffff8135818116036103d257837fffffffffffffffffffffffffffffffffffffffffffffffffffffffffffffffdc3601126103d25783519067ffffffffffffffff8286018181118482101761063b57865260243583526020926044358482015260643591821161032357366023830112156103235781850135916105038361105d565b926105108951948561101c565b80845260248685019160051b8301019136831161063757602401905b82821061061f57505050610564837fb53127684a568b3173ae13b9f8a6016e243e63b6e8ee1178d6a717850b5d610354163314611075565b61056c611573565b505051855560ff6005541615610580578480f35b845b81518110156105e4578083610599600193856111c5565b5116806000528686527f50b08f8489c009db3c1b3f160cc0dae1c0c6706774750c001e4c083f9483d5f389670de0b6b3a764000080826000205581519081524289820152a201610582565b5050505050905060017fffffffffffffffffffffffffffffffffffffffffffffffffffffffffffffff00600554161760055580388080808480f35b8135868116810361043757815290860190860161052c565b8880fd5b6041857f4e487b71000000000000000000000000000000000000000000000000000000006000525260246000fd5b503461034f57817ffffffffffffffffffffffffffffffffffffffffffffffffffffffffffffffffc36011261034f576020905173ffffffffffffffffffffffffffffffffffffffff7f0000000000000000000000000000000000000000000000000000000000000000168152f35b50913461034f576106e736610eb6565b929091943385528160205280852054156103ac57505061070b826103a9949561136d565b611492565b503461034f5760207ffffffffffffffffffffffffffffffffffffffffffffffffffffffffffffffffc36011261034f5760209061075361074e610dcb565b6112a2565b9051908152f35b5082346103d257817ffffffffffffffffffffffffffffffffffffffffffffffffffffffffffffffffc3601126103d257610792610dcb565b913384528160205280842054156103ac57836103a96024358561136d565b610e54565b503461034f5760207ffffffffffffffffffffffffffffffffffffffffffffffffffffffffffffffffc36011261034f576020906107536107f3610dcb565b6111f9565b503461034f57817ffffffffffffffffffffffffffffffffffffffffffffffffffffffffffffffffc36011261034f57805161086a9161083682611000565b600582527f504f494e5400000000000000000000000000000000000000000000000000000060208301525191829182610dee565b0390f35b5090346103175761087e36610f16565b61088781611116565b925b81811061089d5784518061086a8682610f81565b806108b66107f36108b16001948688611165565b6111a4565b6108c082876111c5565b5201610889565b5082346103d25760207ffffffffffffffffffffffffffffffffffffffffffffffffffffffffffffffffc3601126103d257602092829173ffffffffffffffffffffffffffffffffffffffff61091a610dcb565b168252845220549051908152f35b503461034f5760207ffffffffffffffffffffffffffffffffffffffffffffffffffffffffffffffffc36011261034f576dffffffffffffffffffffffffffff8160209373ffffffffffffffffffffffffffffffffffffffff610988610dcb565b168152600285522054169051908152f35b509034610317576109a936610f16565b6109b281611116565b925b8181106109c85784518061086a8682610f81565b806109dc61074e6108b16001948688611165565b6109e682876111c5565b52016109b4565b503461034f57817ffffffffffffffffffffffffffffffffffffffffffffffffffffffffffffffffc36011261034f576107536020926cffffffffffffffffffffffffff610a4a600154925464ffffffffff8416908460901c61132b565b9160281c166110da565b503461034f57817ffffffffffffffffffffffffffffffffffffffffffffffffffffffffffffffffc36011261034f576020905160128152f35b5090346103175750610a9e36610eb6565b505050517f9cbe2357000000000000000000000000000000000000000000000000000000008152fd5b503461034f57817ffffffffffffffffffffffffffffffffffffffffffffffffffffffffffffffffc36011261034f5760209060015460901c9051908152f35b508290346103d257807ffffffffffffffffffffffffffffffffffffffffffffffffffffffffffffffffc3601126103d2577f50b08f8489c009db3c1b3f160cc0dae1c0c6706774750c001e4c083f9483d5f390610b61610dcb565b6024359073ffffffffffffffffffffffffffffffffffffffff90610ba9827fb53127684a568b3173ae13b9f8a6016e243e63b6e8ee1178d6a717850b5d610354163314611075565b1693846000526020528082600020558151908152426020820152a280f35b503461034f57817ffffffffffffffffffffffffffffffffffffffffffffffffffffffffffffffffc36011261034f57805161086a91610c0582611000565b600682527f506f696e7473000000000000000000000000000000000000000000000000000060208301525191829182610dee565b8492915034610da05760207ffffffffffffffffffffffffffffffffffffffffffffffffffffffffffffffffc360112610da057610c74610dcb565b9073ffffffffffffffffffffffffffffffffffffffff7f000000000000000000000000000000000000000000000000000000000000000016908115610da45750908491610cc0336111f9565b9182610cca578380f35b338452600360205284842080547fffffffffffffffffffffffffff000000000000000000000000000000000000001672ffffffffff00000000000000000000000000004260701b16179055813b15610da05783610d77968651978895869485937f21670f2200000000000000000000000000000000000000000000000000000000855284016020909392919373ffffffffffffffffffffffffffffffffffffffff60408201951681520152565b03925af190811561031a5750610d91575b80828180808380f35b610d9a90610fbd565b81610d88565b8380fd5b807fea8e4eb500000000000000000000000000000000000000000000000000000000869252fd5b6004359073ffffffffffffffffffffffffffffffffffffffff8216820361043757565b60208082528251818301819052939260005b858110610e40575050507fffffffffffffffffffffffffffffffffffffffffffffffffffffffffffffffe0601f8460006040809697860101520116010190565b818101830151848201604001528201610e00565b346104375760407ffffffffffffffffffffffffffffffffffffffffffffffffffffffffffffffffc36011261043757610e8b610dcb565b5060046040517f9cbe2357000000000000000000000000000000000000000000000000000000008152fd5b7ffffffffffffffffffffffffffffffffffffffffffffffffffffffffffffffffc60609101126104375773ffffffffffffffffffffffffffffffffffffffff90600435828116810361043757916024359081168103610437579060443590565b9060207ffffffffffffffffffffffffffffffffffffffffffffffffffffffffffffffffc8301126104375760043567ffffffffffffffff9283821161043757806023830112156104375781600401359384116104375760248460051b83010111610437576024019190565b602090602060408183019282815285518094520193019160005b828110610fa9575050505090565b835185529381019392810192600101610f9b565b67ffffffffffffffff8111610fd157604052565b7f4e487b7100000000000000000000000000000000000000000000000000000000600052604160045260246000fd5b6040810190811067ffffffffffffffff821117610fd157604052565b90601f7fffffffffffffffffffffffffffffffffffffffffffffffffffffffffffffffe0910116810190811067ffffffffffffffff821117610fd157604052565b67ffffffffffffffff8111610fd15760051b60200190565b1561107c57565b60646040517f08c379a000000000000000000000000000000000000000000000000000000000815260206004820152600e60248201527f4e4f545f415554484f52495a45440000000000000000000000000000000000006044820152fd5b919082018092116110e757565b7f4e487b7100000000000000000000000000000000000000000000000000000000600052601160045260246000fd5b906111208261105d565b61112d604051918261101c565b8281527fffffffffffffffffffffffffffffffffffffffffffffffffffffffffffffffe061115b829461105d565b0190602036910137565b91908110156111755760051b0190565b7f4e487b7100000000000000000000000000000000000000000000000000000000600052603260045260246000fd5b3573ffffffffffffffffffffffffffffffffffffffff811681036104375790565b80518210156111755760209160051b010190565b919082039182116110e757565b818102929181159184041417156110e757565b73ffffffffffffffffffffffffffffffffffffffff61129f911660008181526003602052604061123664ffffffffff8284205460701c16426111d9565b918381526002602052633b9aca0061128d6112666dffffffffffffffffffffffffffff95868686205416906111e6565b7f0000000000000000000000000000000000000000000000000000000000000000906111e6565b049381526003602052205416906110da565b90565b73ffffffffffffffffffffffffffffffffffffffff61129f9116806000526002602052604060002054906cffffffffffffffffffffffffff916dffffffffffffffffffffffffffff9261130a60015482610a4a60005464ffffffffff8416908460901c61132b565b92600052600260205283600160406000200154169382169160701c16611451565b919082156113655761134061134592426111d9565b6111e6565b69d3c21bcecceda1000000908181029181830414901517156110e7570490565b505050600090565b811561144d577fddf252ad1be2c89b69c2b068fc378daa952ba7f163c4a11628f55a4df523b3ef602060009373ffffffffffffffffffffffffffffffffffffffff6113b7856115f4565b959071ffffffffffffffffffffffffffffffffffff7fffffffffffffffffffffffffffff00000000000000000000000000000000000085600154930360901b169116176001551693848652600283526dffffffffffffffffffffffffffff82604088209203167fffffffffffffffffffffffffffffffffffff0000000000000000000000000000825416179055604051908152a3565b5050565b61145e90611464936111d9565b906111e6565b9064e8d4a51000918281029281840414901517156110e75769d3c21bcecceda100000061129f9204906110da565b90801561144d577fddf252ad1be2c89b69c2b068fc378daa952ba7f163c4a11628f55a4df523b3ef602060009273ffffffffffffffffffffffffffffffffffffffff6114dd866115f4565b969071ffffffffffffffffffffffffffffffffffff7fffffffffffffffffffffffffffff00000000000000000000000000000000000085600154930160901b169116176001551694858552600283526dffffffffffffffffffffffffffff82604087209201167fffffffffffffffffffffffffffffffffffff0000000000000000000000000000825416179055604051908152a3565b6001548060901c91600054916115ae61159664ffffffffff94858416908761132b565b6cffffffffffffffffffffffffff8360281c166110da565b924216907fffffffffffffffffffffffffffff00000000000000000000000000000000000071ffffffffffffffffffffffffff00000000008560281b1691161717600155565b9073ffffffffffffffffffffffffffffffffffffffff91611613611573565b93909116600090808252600260205260016116686116f0604085209788546dffffffffffffffffffffffffffff93818386809416809d856cffffffffffffffffffffffffff9a8b920154169360701c16611451565b169385875260026020526040872091600183017fffffffffffffffffffffffffffffffffffff00000000000000000000000000009687825416179055167fffffffffff00000000000000000000000000ffffffffffffffffffffffffffff7affffffffffffffffffffffffff000000000000000000000000000083549260701b169116179055565b600360205264ffffffffff93633b9aca0061171b6112668a61134089604087205460701c16426111d9565b0493815260036020526117736040822095421686907fffffffffffffffffffffffffff0000000000ffffffffffffffffffffffffffff72ffffffffff000000000000000000000000000083549260701b169116179055565b8185549416828516019082821161178f57501691161790559190565b807f4e487b7100000000000000000000000000000000000000000000000000000000602492526011600452fdfea26469706673582212206458fb4b32a5479ed483a6568a84fdee2f46dd20a1f4836d890bfec2d9993f5264736f6c63430008180033",
  "linkReferences": {},
  "deployedLinkReferences": {},
  "devdoc": {
    "events": {
      "Approval(address,address,uint256)": {
        "params": {
          "owner": "the account approving the `spender`",
          "spender": "the account allowed to spend",
          "value": "the amount granted"
        }
      },
      "Transfer(address,address,uint256)": {
        "params": {
          "from": "the account the tokens are sent from",
          "to": "the account the tokens are sent to",
          "value": "number of tokens sent"
        }
      }
    },
    "kind": "dev",
    "methods": {},
    "version": 1
  },
  "evm": {
    "gasEstimates": {
      "creation": {
        "codeDepositCost": "1226000",
        "executionCost": "infinite",
        "totalCost": "infinite"
      },
      "external": {
        "REWARD()": "infinite",
        "add(address,uint256)": "infinite",
        "allowance(address,address)": "709",
        "approve(address,uint256)": "289",
        "balanceOf(address)": "2606",
        "claimFixedRewards(address)": "infinite",
        "claimSharedPoolRewards(address)": "infinite",
        "decimals()": "304",
        "earnedFromFixedRate(address)": "infinite",
        "earnedFromFixedRateMultipleAccounts(address[])": "infinite",
        "earnedFromPoolRate(address)": "infinite",
        "earnedFromPoolRateMultipleAccounts(address[])": "infinite",
        "enableGame(address,uint256)": "26306",
        "games(address)": "2625",
        "getTotalRewardPerPointWithPrecision24()": "4888",
        "move(address,address,uint256)": "infinite",
        "name()": "infinite",
        "postUpgrade(address,(uint256,uint256),address[])": "infinite",
        "remove(address,uint256)": "infinite",
        "symbol()": "infinite",
        "totalSupply()": "2372",
        "transfer(address,uint256)": "553",
        "transferFrom(address,address,uint256)": "403"
      },
      "internal": {
        "_add(address,uint256)": "infinite",
        "_computeExtraTotalRewardPerPointSinceLastTime(uint256,uint256,uint256)": "259",
        "_computeRewardsEarned(uint256,uint256,uint256,uint256)": "304",
        "_enableGame(address,uint256)": "infinite",
        "_postUpgrade(contract IReward,struct RewardsGenerator.Config memory,address[] memory)": "infinite",
        "_remove(address,uint256)": "infinite",
        "_update(address)": "infinite",
        "_updateAccount(address,uint256)": "infinite",
        "_updateGlobal()": "26727"
      }
    }
  },
  "storageLayout": {
    "storage": [
      {
        "astId": 183,
        "contract": "src/token/RewardsGenerator.sol:RewardsGenerator",
        "label": "REWARD_RATE_millionth",
        "offset": 0,
        "slot": "0",
        "type": "t_uint256"
      },
      {
        "astId": 203,
        "contract": "src/token/RewardsGenerator.sol:RewardsGenerator",
        "label": "_global",
        "offset": 0,
        "slot": "1",
        "type": "t_struct(GlobalState)200_storage"
      },
      {
        "astId": 215,
        "contract": "src/token/RewardsGenerator.sol:RewardsGenerator",
        "label": "_sharedRateRewardPerAccount",
        "offset": 0,
        "slot": "2",
        "type": "t_mapping(t_address,t_struct(SharedRatePerAccount)210_storage)"
      },
      {
        "astId": 225,
        "contract": "src/token/RewardsGenerator.sol:RewardsGenerator",
        "label": "_fixedRateRewardPerAccount",
        "offset": 0,
        "slot": "3",
        "type": "t_mapping(t_address,t_struct(FixedRate)220_storage)"
      },
      {
        "astId": 229,
        "contract": "src/token/RewardsGenerator.sol:RewardsGenerator",
        "label": "games",
        "offset": 0,
        "slot": "4",
        "type": "t_mapping(t_address,t_uint256)"
      },
      {
        "astId": 239,
        "contract": "src/token/RewardsGenerator.sol:RewardsGenerator",
        "label": "_init",
        "offset": 0,
        "slot": "5",
        "type": "t_bool"
      }
    ],
    "types": {
      "t_address": {
        "encoding": "inplace",
        "label": "address",
        "numberOfBytes": "20"
      },
      "t_bool": {
        "encoding": "inplace",
        "label": "bool",
        "numberOfBytes": "1"
      },
      "t_mapping(t_address,t_struct(FixedRate)220_storage)": {
        "encoding": "mapping",
        "key": "t_address",
        "label": "mapping(address => struct RewardsGenerator.FixedRate)",
        "numberOfBytes": "32",
        "value": "t_struct(FixedRate)220_storage"
      },
      "t_mapping(t_address,t_struct(SharedRatePerAccount)210_storage)": {
        "encoding": "mapping",
        "key": "t_address",
        "label": "mapping(address => struct RewardsGenerator.SharedRatePerAccount)",
        "numberOfBytes": "32",
        "value": "t_struct(SharedRatePerAccount)210_storage"
      },
      "t_mapping(t_address,t_uint256)": {
        "encoding": "mapping",
        "key": "t_address",
        "label": "mapping(address => uint256)",
        "numberOfBytes": "32",
        "value": "t_uint256"
      },
      "t_struct(FixedRate)220_storage": {
        "encoding": "inplace",
        "label": "struct RewardsGenerator.FixedRate",
        "members": [
          {
            "astId": 217,
            "contract": "src/token/RewardsGenerator.sol:RewardsGenerator",
            "label": "toWithdraw",
            "offset": 0,
            "slot": "0",
            "type": "t_uint112"
          },
          {
            "astId": 219,
            "contract": "src/token/RewardsGenerator.sol:RewardsGenerator",
            "label": "lastTime",
            "offset": 14,
            "slot": "0",
            "type": "t_uint40"
          }
        ],
        "numberOfBytes": "32"
      },
      "t_struct(GlobalState)200_storage": {
        "encoding": "inplace",
        "label": "struct RewardsGenerator.GlobalState",
        "members": [
          {
            "astId": 195,
            "contract": "src/token/RewardsGenerator.sol:RewardsGenerator",
            "label": "lastUpdateTime",
            "offset": 0,
            "slot": "0",
            "type": "t_uint40"
          },
          {
            "astId": 197,
            "contract": "src/token/RewardsGenerator.sol:RewardsGenerator",
            "label": "totalRewardPerPointAtLastUpdate",
            "offset": 5,
            "slot": "0",
            "type": "t_uint104"
          },
          {
            "astId": 199,
            "contract": "src/token/RewardsGenerator.sol:RewardsGenerator",
            "label": "totalPoints",
            "offset": 18,
            "slot": "0",
            "type": "t_uint112"
          }
        ],
        "numberOfBytes": "32"
      },
      "t_struct(SharedRatePerAccount)210_storage": {
        "encoding": "inplace",
        "label": "struct RewardsGenerator.SharedRatePerAccount",
        "members": [
          {
            "astId": 205,
            "contract": "src/token/RewardsGenerator.sol:RewardsGenerator",
            "label": "points",
            "offset": 0,
            "slot": "0",
            "type": "t_uint112"
          },
          {
            "astId": 207,
            "contract": "src/token/RewardsGenerator.sol:RewardsGenerator",
            "label": "totalRewardPerPointAccounted",
            "offset": 14,
            "slot": "0",
            "type": "t_uint104"
          },
          {
            "astId": 209,
            "contract": "src/token/RewardsGenerator.sol:RewardsGenerator",
            "label": "rewardsToWithdraw",
            "offset": 0,
            "slot": "1",
            "type": "t_uint112"
          }
        ],
        "numberOfBytes": "64"
      },
      "t_uint104": {
        "encoding": "inplace",
        "label": "uint104",
        "numberOfBytes": "13"
      },
      "t_uint112": {
        "encoding": "inplace",
        "label": "uint112",
        "numberOfBytes": "14"
      },
      "t_uint256": {
        "encoding": "inplace",
        "label": "uint256",
        "numberOfBytes": "32"
      },
      "t_uint40": {
        "encoding": "inplace",
        "label": "uint40",
        "numberOfBytes": "5"
      }
    }
  },
  "userdoc": {
    "errors": {
      "NonTransferable()": [
        {
          "notice": "Token cannot be transfered"
        }
      ],
      "NotAuthorized()": [
        {
          "notice": "Not authorized to perform this operation"
        }
      ]
    },
    "events": {
      "Approval(address,address,uint256)": {
        "notice": "trigger on approval amount being set.   Note that Transfer events need to be considered to compute the current allowance."
      },
      "Transfer(address,address,uint256)": {
        "notice": "trigger when tokens are transferred, including zero value transfers."
      }
    },
    "kind": "user",
    "methods": {
      "allowance(address,address)": {
        "notice": "Returns the amount which `spender` is still allowed to withdraw from `owner`."
      },
      "approve(address,uint256)": {
        "notice": "Allows `spender` to withdraw from your account multiple times, up to `amount`."
      },
      "balanceOf(address)": {
        "notice": "Returns the account balance of another account with address `owner`."
      },
      "claimFixedRewards(address)": {
        "notice": "claim the rewards earned so far using a fixed rate per point"
      },
      "claimSharedPoolRewards(address)": {
        "notice": "claim the rewards earned so far in the shared pool"
      },
      "decimals()": {
        "notice": "Returns the number of decimals the token uses."
      },
      "earnedFromFixedRate(address)": {
        "notice": "The amount of reward an account has accrued so far. Does not include already withdrawn rewards."
      },
      "earnedFromFixedRateMultipleAccounts(address[])": {
        "notice": "The amount of reward an account has accrued so far. Does not include already withdrawn rewards."
      },
      "earnedFromPoolRate(address)": {
        "notice": "The amount of reward an account has accrued so far. Does not include already withdrawn rewards."
      },
      "earnedFromPoolRateMultipleAccounts(address[])": {
        "notice": "The amount of reward an account has accrued so far. Does not include already withdrawn rewards."
      },
      "getTotalRewardPerPointWithPrecision24()": {
        "notice": "The amount of reward each point has earned so far"
      },
      "name()": {
        "notice": "Returns the name of the token."
      },
      "symbol()": {
        "notice": "Returns the symbol of the token."
      },
      "totalSupply()": {
        "notice": "Returns the total token supply."
      },
      "transfer(address,uint256)": {
        "notice": "Transfers `amount` of tokens to address `to`."
      },
      "transferFrom(address,address,uint256)": {
        "notice": "Transfers `amount` tokens from address `from` to address `to`."
      }
    },
    "version": 1
  },
  "argsData": "0x00000000000000000000000000000000000000000000000000000000000000000000000000000000000000000000000000000000000000000000000000000000000000000000000000000000000000000000000000000000000000000000000a00000000000000000000000000000000000000000000000000000000000000800000000000000000000000000000000000000000000000000000000000000000",
  "transaction": {
    "hash": "0x9c2de0f3f20751ea6a685a8a9b2635df562a11f4d2ee5d6c5092c13f152a3182",
    "nonce": "0x56",
    "origin": "0x61c461ecc993aadeb7e4b47e96d1b8cc37314b20"
  }
}