{
  "address": "0xe5c05697666a18bbb0f1f620237402413cf7e1a1",
  "abi": [
    {
      "inputs": [
        {
          "internalType": "contract IReward",
          "name": "rewardAddress",
          "type": "address"
        },
        {
          "components": [
            {
              "internalType": "uint256",
              "name": "rewardRateMillionth",
              "type": "uint256"
            },
            {
              "internalType": "uint256",
              "name": "fixedRewardRateThousandsMillionth",
              "type": "uint256"
            }
          ],
          "internalType": "struct RewardsGenerator.Config",
          "name": "config",
          "type": "tuple"
        },
        {
          "internalType": "address[]",
          "name": "initialGames",
          "type": "address[]"
        }
      ],
      "stateMutability": "nonpayable",
      "type": "constructor"
    },
    {
      "inputs": [],
      "name": "NonTransferable",
      "type": "error"
    },
    {
      "inputs": [],
      "name": "NotAuthorized",
      "type": "error"
    },
    {
      "anonymous": false,
      "inputs": [
        {
          "indexed": true,
          "internalType": "address",
          "name": "owner",
          "type": "address"
        },
        {
          "indexed": true,
          "internalType": "address",
          "name": "spender",
          "type": "address"
        },
        {
          "indexed": false,
          "internalType": "uint256",
          "name": "value",
          "type": "uint256"
        }
      ],
      "name": "Approval",
      "type": "event"
    },
    {
      "anonymous": false,
      "inputs": [
        {
          "indexed": true,
          "internalType": "address",
          "name": "game",
          "type": "address"
        },
        {
          "indexed": false,
          "internalType": "uint256",
          "name": "weight",
          "type": "uint256"
        },
        {
          "indexed": false,
          "internalType": "uint256",
          "name": "timestamp",
          "type": "uint256"
        }
      ],
      "name": "GameEnabled",
      "type": "event"
    },
    {
      "anonymous": false,
      "inputs": [
        {
          "indexed": true,
          "internalType": "address",
          "name": "from",
          "type": "address"
        },
        {
          "indexed": true,
          "internalType": "address",
          "name": "to",
          "type": "address"
        },
        {
          "indexed": false,
          "internalType": "uint256",
          "name": "value",
          "type": "uint256"
        }
      ],
      "name": "Transfer",
      "type": "event"
    },
    {
      "inputs": [],
      "name": "REWARD",
      "outputs": [
        {
          "internalType": "contract IReward",
          "name": "",
          "type": "address"
        }
      ],
      "stateMutability": "view",
      "type": "function"
    },
    {
      "inputs": [
        {
          "internalType": "address",
          "name": "account",
          "type": "address"
        },
        {
          "internalType": "uint256",
          "name": "amount",
          "type": "uint256"
        }
      ],
      "name": "add",
      "outputs": [],
      "stateMutability": "nonpayable",
      "type": "function"
    },
    {
      "inputs": [
        {
          "internalType": "address",
          "name": "",
          "type": "address"
        },
        {
          "internalType": "address",
          "name": "",
          "type": "address"
        }
      ],
      "name": "allowance",
      "outputs": [
        {
          "internalType": "uint256",
          "name": "",
          "type": "uint256"
        }
      ],
      "stateMutability": "pure",
      "type": "function"
    },
    {
      "inputs": [
        {
          "internalType": "address",
          "name": "",
          "type": "address"
        },
        {
          "internalType": "uint256",
          "name": "",
          "type": "uint256"
        }
      ],
      "name": "approve",
      "outputs": [
        {
          "internalType": "bool",
          "name": "",
          "type": "bool"
        }
      ],
      "stateMutability": "pure",
      "type": "function"
    },
    {
      "inputs": [
        {
          "internalType": "address",
          "name": "owner",
          "type": "address"
        }
      ],
      "name": "balanceOf",
      "outputs": [
        {
          "internalType": "uint256",
          "name": "",
          "type": "uint256"
        }
      ],
      "stateMutability": "view",
      "type": "function"
    },
    {
      "inputs": [
        {
          "internalType": "address",
          "name": "to",
          "type": "address"
        }
      ],
      "name": "claimFixedRewards",
      "outputs": [],
      "stateMutability": "nonpayable",
      "type": "function"
    },
    {
      "inputs": [
        {
          "internalType": "address",
          "name": "to",
          "type": "address"
        }
      ],
      "name": "claimSharedPoolRewards",
      "outputs": [],
      "stateMutability": "nonpayable",
      "type": "function"
    },
    {
      "inputs": [],
      "name": "decimals",
      "outputs": [
        {
          "internalType": "uint8",
          "name": "",
          "type": "uint8"
        }
      ],
      "stateMutability": "pure",
      "type": "function"
    },
    {
      "inputs": [
        {
          "internalType": "address",
          "name": "account",
          "type": "address"
        }
      ],
      "name": "earnedFromFixedRate",
      "outputs": [
        {
          "internalType": "uint256",
          "name": "",
          "type": "uint256"
        }
      ],
      "stateMutability": "view",
      "type": "function"
    },
    {
      "inputs": [
        {
          "internalType": "address[]",
          "name": "accounts",
          "type": "address[]"
        }
      ],
      "name": "earnedFromFixedRateMultipleAccounts",
      "outputs": [
        {
          "internalType": "uint256[]",
          "name": "result",
          "type": "uint256[]"
        }
      ],
      "stateMutability": "view",
      "type": "function"
    },
    {
      "inputs": [
        {
          "internalType": "address",
          "name": "account",
          "type": "address"
        }
      ],
      "name": "earnedFromPoolRate",
      "outputs": [
        {
          "internalType": "uint256",
          "name": "",
          "type": "uint256"
        }
      ],
      "stateMutability": "view",
      "type": "function"
    },
    {
      "inputs": [
        {
          "internalType": "address[]",
          "name": "accounts",
          "type": "address[]"
        }
      ],
      "name": "earnedFromPoolRateMultipleAccounts",
      "outputs": [
        {
          "internalType": "uint256[]",
          "name": "result",
          "type": "uint256[]"
        }
      ],
      "stateMutability": "view",
      "type": "function"
    },
    {
      "inputs": [
        {
          "internalType": "address",
          "name": "game",
          "type": "address"
        },
        {
          "internalType": "uint256",
          "name": "weight",
          "type": "uint256"
        }
      ],
      "name": "enableGame",
      "outputs": [],
      "stateMutability": "nonpayable",
      "type": "function"
    },
    {
      "inputs": [],
      "name": "getTotalRewardPerPointWithPrecision24",
      "outputs": [
        {
          "internalType": "uint256",
          "name": "",
          "type": "uint256"
        }
      ],
      "stateMutability": "view",
      "type": "function"
    },
    {
      "inputs": [
        {
          "internalType": "address",
          "name": "from",
          "type": "address"
        },
        {
          "internalType": "address",
          "name": "to",
          "type": "address"
        },
        {
          "internalType": "uint256",
          "name": "amount",
          "type": "uint256"
        }
      ],
      "name": "move",
      "outputs": [],
      "stateMutability": "nonpayable",
      "type": "function"
    },
    {
      "inputs": [],
      "name": "name",
      "outputs": [
        {
          "internalType": "string",
          "name": "",
          "type": "string"
        }
      ],
      "stateMutability": "pure",
      "type": "function"
    },
    {
      "inputs": [
        {
          "internalType": "contract IReward",
          "name": "rewardAddress",
          "type": "address"
        },
        {
          "components": [
            {
              "internalType": "uint256",
              "name": "rewardRateMillionth",
              "type": "uint256"
            },
            {
              "internalType": "uint256",
              "name": "fixedRewardRateThousandsMillionth",
              "type": "uint256"
            }
          ],
          "internalType": "struct RewardsGenerator.Config",
          "name": "config",
          "type": "tuple"
        },
        {
          "internalType": "address[]",
          "name": "initialGames",
          "type": "address[]"
        }
      ],
      "name": "postUpgrade",
      "outputs": [],
      "stateMutability": "nonpayable",
      "type": "function"
    },
    {
      "inputs": [
        {
          "internalType": "address",
          "name": "account",
          "type": "address"
        },
        {
          "internalType": "uint256",
          "name": "amount",
          "type": "uint256"
        }
      ],
      "name": "remove",
      "outputs": [],
      "stateMutability": "nonpayable",
      "type": "function"
    },
    {
      "inputs": [],
      "name": "symbol",
      "outputs": [
        {
          "internalType": "string",
          "name": "",
          "type": "string"
        }
      ],
      "stateMutability": "view",
      "type": "function"
    },
    {
      "inputs": [],
      "name": "totalSupply",
      "outputs": [
        {
          "internalType": "uint256",
          "name": "",
          "type": "uint256"
        }
      ],
      "stateMutability": "view",
      "type": "function"
    },
    {
      "inputs": [
        {
          "internalType": "address",
          "name": "",
          "type": "address"
        },
        {
          "internalType": "uint256",
          "name": "",
          "type": "uint256"
        }
      ],
      "name": "transfer",
      "outputs": [
        {
          "internalType": "bool",
          "name": "",
          "type": "bool"
        }
      ],
      "stateMutability": "pure",
      "type": "function"
    },
    {
      "inputs": [
        {
          "internalType": "address",
          "name": "",
          "type": "address"
        },
        {
          "internalType": "address",
          "name": "",
          "type": "address"
        },
        {
          "internalType": "uint256",
          "name": "",
          "type": "uint256"
        }
      ],
      "name": "transferFrom",
      "outputs": [
        {
          "internalType": "bool",
          "name": "",
          "type": "bool"
        }
      ],
      "stateMutability": "pure",
      "type": "function"
    }
  ],
  "contractName": "RewardsGenerator",
  "sourceName": "src/token/RewardsGenerator.sol",
  "linkReferences": {},
  "deployedLinkReferences": {},
  "devdoc": {
    "events": {
      "Approval(address,address,uint256)": {
        "params": {
          "owner": "the account approving the `spender`",
          "spender": "the account allowed to spend",
          "value": "the amount granted"
        }
      },
      "Transfer(address,address,uint256)": {
        "params": {
          "from": "the account the tokens are sent from",
          "to": "the account the tokens are sent to",
          "value": "number of tokens sent"
        }
      }
    },
    "kind": "dev",
    "methods": {},
    "version": 1
  },
  "evm": {
    "bytecode": {
      "linkReferences": {},
      "object": "604060e0815234620001d957620019e7803803806200001e81620001f4565b92833981019080820360808112620001d9578151916001600160a01b03908184168403620001d95785602093601f190112620001d95785516001600160401b039481880186811183821017620001de5788528483015182528783015192858301938452606081015190878211620001d957019680601f89011215620001d9578751968711620001de576005978760051b908780620000be818501620001f4565b809b81520192820101928311620001d9578701905b828210620001bf5750505060c052516080525160a05260ff60045416156200013c575b84516117cc90816200021b82396080518181816109cd015281816112a4015261154b015260a0518161120d015260c051818181610166015281816106a10152610c350152f35b60009260005b8151811015620001a257808385600193891b8501015116808752600386527f50b08f8489c009db3c1b3f160cc0dae1c0c6706774750c001e4c083f9483d5f389670de0b6b3a764000080828b205581519081524289820152a20162000142565b505050505050600160ff19600454161760045538808080620000f6565b81518781168103620001d9578152908701908701620000d3565b600080fd5b634e487b7160e01b600052604160045260246000fd5b6040519190601f01601f191682016001600160401b03811183821017620001de5760405256fe60806040908082526004918236101561001757600080fd5b600091823560e01c908163066112f914610be25750806306fdde0314610b70578063095ea7b3146107a057806316cf09f814610aaf57806318160ddd14610a7257806323b872dd14610a38578063313ce567146109ff578063484833821461097c57806359d431b31461092857806370a08231146108b75780637997f96d1461085e57806395d89b41146107e8578063a8671f6a146107a5578063a9059cbb146107a0578063abe7f1ab14610749578063b061963c146106ff578063bb35783b146106c5578063cab34c0814610657578063cee2960b14610432578063dd62ed3e146103cc578063f5d82b6b146103485763ff1e03e91461011757600080fd5b346103445760207ffffffffffffffffffffffffffffffffffffffffffffffffffffffffffffffffc3601126103445761014e610d70565b9073ffffffffffffffffffffffffffffffffffffffff7f000000000000000000000000000000000000000000000000000000000000000016801561031c5793839433855260016020526dffffffffffffffffffffffffffff908184872054166102486101ed6101bb611531565b939050338a52600160205283888b20916cffffffffffffffffffffffffff97600189855460701c169401541692611411565b933389526001602052868920921682907fffffffffff00000000000000000000000000ffffffffffffffffffffffffffff7affffffffffffffffffffffffff000000000000000000000000000083549260701b169116179055565b82610251578680f35b6001017fffffffffffffffffffffffffffffffffffff00000000000000000000000000008154169055803b15610318576102de948680948651978895869485937f21670f2200000000000000000000000000000000000000000000000000000000855284016020909392919373ffffffffffffffffffffffffffffffffffffffff60408201951681520152565b03925af190811561030f57506102f8575b80808080808680f35b61030190610f62565b61030c5780386102ef565b80fd5b513d84823e3d90fd5b8580fd5b8482517fea8e4eb5000000000000000000000000000000000000000000000000000000008152fd5b5080fd5b5082346103c857817ffffffffffffffffffffffffffffffffffffffffffffffffffffffffffffffffc3601126103c857610380610d70565b91338452600360205280842054156103a2578361039f60243585611452565b80f35b517fea8e4eb5000000000000000000000000000000000000000000000000000000008152fd5b8280fd5b50903461030c57817ffffffffffffffffffffffffffffffffffffffffffffffffffffffffffffffffc36011261030c57610404610d70565b5060243573ffffffffffffffffffffffffffffffffffffffff81160361042d5760209151908152f35b600080fd5b5082346103c85760807ffffffffffffffffffffffffffffffffffffffffffffffffffffffffffffffffc3601126103c85773ffffffffffffffffffffffffffffffffffffffff81358181160361065357827fffffffffffffffffffffffffffffffffffffffffffffffffffffffffffffffdc3601126106535782519067ffffffffffffffff82850181811184821017610625578552602435835260443560209384015260643590811161031857366023820112156103185780840135906104f882611002565b9161050587519384610fc1565b80835260248584019160051b8301019136831161062157602401905b82821061060957505050610559827fb53127684a568b3173ae13b9f8a6016e243e63b6e8ee1178d6a717850b5d61035416331461101a565b60ff84541615610567578580f35b9091929394805b82518110156105d15780846105856001938661116a565b511680600052600387527f50b08f8489c009db3c1b3f160cc0dae1c0c6706774750c001e4c083f9483d5f389670de0b6b3a76400008082600020558151908152428a820152a20161056e565b50945050505060017fffffffffffffffffffffffffffffffffffffffffffffffffffffffffffffff0082541617905581808080808580f35b8135858116810361042d578152908501908501610521565b8880fd5b6041857f4e487b71000000000000000000000000000000000000000000000000000000006000525260246000fd5b8380fd5b503461034457817ffffffffffffffffffffffffffffffffffffffffffffffffffffffffffffffffc360112610344576020905173ffffffffffffffffffffffffffffffffffffffff7f0000000000000000000000000000000000000000000000000000000000000000168152f35b509134610344576106d536610e5b565b92909194338552600360205280852054156103a25750506106fa8261039f949561132f565b611452565b50346103445760207ffffffffffffffffffffffffffffffffffffffffffffffffffffffffffffffffc3601126103445760209061074261073d610d70565b611247565b9051908152f35b5082346103c857817ffffffffffffffffffffffffffffffffffffffffffffffffffffffffffffffffc3601126103c857610781610d70565b91338452600360205280842054156103a2578361039f6024358561132f565b610df9565b50346103445760207ffffffffffffffffffffffffffffffffffffffffffffffffffffffffffffffffc360112610344576020906107426107e3610d70565b61119e565b503461034457817ffffffffffffffffffffffffffffffffffffffffffffffffffffffffffffffffc36011261034457805161085a9161082682610fa5565b600582527f504f494e5400000000000000000000000000000000000000000000000000000060208301525191829182610d93565b0390f35b50903461030c5761086e36610ebb565b610877816110bb565b925b81811061088d5784518061085a8682610f26565b806108a66107e36108a1600194868861110a565b611149565b6108b0828761116a565b5201610879565b50346103445760207ffffffffffffffffffffffffffffffffffffffffffffffffffffffffffffffffc360112610344576dffffffffffffffffffffffffffff8160209373ffffffffffffffffffffffffffffffffffffffff610917610d70565b168152600185522054169051908152f35b50903461030c5761093836610ebb565b610941816110bb565b925b8181106109575784518061085a8682610f26565b8061096b61073d6108a1600194868861110a565b610975828761116a565b5201610943565b503461034457817ffffffffffffffffffffffffffffffffffffffffffffffffffffffffffffffffc36011261034457610742602092546cffffffffffffffffffffffffff6109f564ffffffffff83167f00000000000000000000000000000000000000000000000000000000000000008460901c6112ed565b9160281c1661107f565b503461034457817ffffffffffffffffffffffffffffffffffffffffffffffffffffffffffffffffc360112610344576020905160128152f35b50903461030c5750610a4936610e5b565b505050517f9cbe2357000000000000000000000000000000000000000000000000000000008152fd5b503461034457817ffffffffffffffffffffffffffffffffffffffffffffffffffffffffffffffffc360112610344576020915460901c9051908152f35b503461034457807ffffffffffffffffffffffffffffffffffffffffffffffffffffffffffffffffc360112610344577f50b08f8489c009db3c1b3f160cc0dae1c0c6706774750c001e4c083f9483d5f3610b07610d70565b916024359273ffffffffffffffffffffffffffffffffffffffff90610b50827fb53127684a568b3173ae13b9f8a6016e243e63b6e8ee1178d6a717850b5d61035416331461101a565b16928360005260036020528082600020558151908152426020820152a280f35b503461034457817ffffffffffffffffffffffffffffffffffffffffffffffffffffffffffffffffc36011261034457805161085a91610bae82610fa5565b600682527f506f696e7473000000000000000000000000000000000000000000000000000060208301525191829182610d93565b84929150346106535760207ffffffffffffffffffffffffffffffffffffffffffffffffffffffffffffffffc36011261065357610c1d610d70565b9073ffffffffffffffffffffffffffffffffffffffff7f000000000000000000000000000000000000000000000000000000000000000016908115610d495750908491610c693361119e565b9182610c73578380f35b338452600260205284842080547fffffffffffffffffffffffffff000000000000000000000000000000000000001672ffffffffff00000000000000000000000000004260701b16179055813b156106535783610d20968651978895869485937f21670f2200000000000000000000000000000000000000000000000000000000855284016020909392919373ffffffffffffffffffffffffffffffffffffffff60408201951681520152565b03925af190811561030f5750610d3a575b80828180808380f35b610d4390610f62565b81610d31565b807fea8e4eb500000000000000000000000000000000000000000000000000000000869252fd5b6004359073ffffffffffffffffffffffffffffffffffffffff8216820361042d57565b60208082528251818301819052939260005b858110610de5575050507fffffffffffffffffffffffffffffffffffffffffffffffffffffffffffffffe0601f8460006040809697860101520116010190565b818101830151848201604001528201610da5565b3461042d5760407ffffffffffffffffffffffffffffffffffffffffffffffffffffffffffffffffc36011261042d57610e30610d70565b5060046040517f9cbe2357000000000000000000000000000000000000000000000000000000008152fd5b7ffffffffffffffffffffffffffffffffffffffffffffffffffffffffffffffffc606091011261042d5773ffffffffffffffffffffffffffffffffffffffff90600435828116810361042d5791602435908116810361042d579060443590565b9060207ffffffffffffffffffffffffffffffffffffffffffffffffffffffffffffffffc83011261042d5760043567ffffffffffffffff9283821161042d578060238301121561042d57816004013593841161042d5760248460051b8301011161042d576024019190565b602090602060408183019282815285518094520193019160005b828110610f4e575050505090565b835185529381019392810192600101610f40565b67ffffffffffffffff8111610f7657604052565b7f4e487b7100000000000000000000000000000000000000000000000000000000600052604160045260246000fd5b6040810190811067ffffffffffffffff821117610f7657604052565b90601f7fffffffffffffffffffffffffffffffffffffffffffffffffffffffffffffffe0910116810190811067ffffffffffffffff821117610f7657604052565b67ffffffffffffffff8111610f765760051b60200190565b1561102157565b60646040517f08c379a000000000000000000000000000000000000000000000000000000000815260206004820152600e60248201527f4e4f545f415554484f52495a45440000000000000000000000000000000000006044820152fd5b9190820180921161108c57565b7f4e487b7100000000000000000000000000000000000000000000000000000000600052601160045260246000fd5b906110c582611002565b6110d26040519182610fc1565b8281527fffffffffffffffffffffffffffffffffffffffffffffffffffffffffffffffe06111008294611002565b0190602036910137565b919081101561111a5760051b0190565b7f4e487b7100000000000000000000000000000000000000000000000000000000600052603260045260246000fd5b3573ffffffffffffffffffffffffffffffffffffffff8116810361042d5790565b805182101561111a5760209160051b010190565b9190820391821161108c57565b8181029291811591840414171561108c57565b73ffffffffffffffffffffffffffffffffffffffff61124491166000818152600260205260406111db64ffffffffff8284205460701c164261117e565b918381526001602052633b9aca0061123261120b6dffffffffffffffffffffffffffff958686862054169061118b565b7f00000000000000000000000000000000000000000000000000000000000000009061118b565b0493815260026020522054169061107f565b90565b73ffffffffffffffffffffffffffffffffffffffff6112449116806000526001602052604060002054906cffffffffffffffffffffffffff916dffffffffffffffffffffffffffff926112cc600054826109f564ffffffffff83167f00000000000000000000000000000000000000000000000000000000000000008460901c6112ed565b92600052600160205283600160406000200154169382169160701c16611411565b9190821561132757611302611307924261117e565b61118b565b69d3c21bcecceda10000009081810291818304149015171561108c570490565b505050600090565b811561140d577fddf252ad1be2c89b69c2b068fc378daa952ba7f163c4a11628f55a4df523b3ef602060009373ffffffffffffffffffffffffffffffffffffffff611379856115ce565b959071ffffffffffffffffffffffffffffffffffff7fffffffffffffffffffffffffffff000000000000000000000000000000000000858a54930360901b1691161787551693848652600183526dffffffffffffffffffffffffffff82604088209203167fffffffffffffffffffffffffffffffffffff0000000000000000000000000000825416179055604051908152a3565b5050565b61141e906114249361117e565b9061118b565b9064e8d4a510009182810292818404149015171561108c5769d3c21bcecceda100000061124492049061107f565b90801561140d577fddf252ad1be2c89b69c2b068fc378daa952ba7f163c4a11628f55a4df523b3ef602060009273ffffffffffffffffffffffffffffffffffffffff61149d866115ce565b969071ffffffffffffffffffffffffffffffffffff7fffffffffffffffffffffffffffff000000000000000000000000000000000000858954930160901b1691161786551694858552600183526dffffffffffffffffffffffffffff82604087209201167fffffffffffffffffffffffffffffffffffff0000000000000000000000000000825416179055604051908152a3565b6000548060901c9164ffffffffff916115886115708483167f0000000000000000000000000000000000000000000000000000000000000000876112ed565b6cffffffffffffffffffffffffff8360281c1661107f565b924216907fffffffffffffffffffffffffffff00000000000000000000000000000000000071ffffffffffffffffffffffffff00000000008560281b1691161717600055565b9073ffffffffffffffffffffffffffffffffffffffff916115ed611531565b93909116600090808252600160205260016116426116ca604085209788546dffffffffffffffffffffffffffff93818386809416809d856cffffffffffffffffffffffffff9a8b920154169360701c16611411565b169385875260016020526040872091600183017fffffffffffffffffffffffffffffffffffff00000000000000000000000000009687825416179055167fffffffffff00000000000000000000000000ffffffffffffffffffffffffffff7affffffffffffffffffffffffff000000000000000000000000000083549260701b169116179055565b600260205264ffffffffff93633b9aca006116f561120b8a61130289604087205460701c164261117e565b04938152600260205261174d6040822095421686907fffffffffffffffffffffffffff0000000000ffffffffffffffffffffffffffff72ffffffffff000000000000000000000000000083549260701b169116179055565b8185549416828516019082821161176957501691161790559190565b807f4e487b7100000000000000000000000000000000000000000000000000000000602492526011600452fdfea2646970667358221220f386f7fc19815ae602f74a78b28d4ea05c0fa1a9fa2d07c7a3abb4f18d1b23bb64736f6c63430008180033",
      "opcodes": "PUSH1 0x40 PUSH1 0xE0 DUP2 MSTORE CALLVALUE PUSH3 0x1D9 JUMPI PUSH3 0x19E7 DUP1 CODESIZE SUB DUP1 PUSH3 0x1E DUP2 PUSH3 0x1F4 JUMP JUMPDEST SWAP3 DUP4 CODECOPY DUP2 ADD SWAP1 DUP1 DUP3 SUB PUSH1 0x80 DUP2 SLT PUSH3 0x1D9 JUMPI DUP2 MLOAD SWAP2 PUSH1 0x1 PUSH1 0x1 PUSH1 0xA0 SHL SUB SWAP1 DUP2 DUP5 AND DUP5 SUB PUSH3 0x1D9 JUMPI DUP6 PUSH1 0x20 SWAP4 PUSH1 0x1F NOT ADD SLT PUSH3 0x1D9 JUMPI DUP6 MLOAD PUSH1 0x1 PUSH1 0x1 PUSH1 0x40 SHL SUB SWAP5 DUP2 DUP9 ADD DUP7 DUP2 GT DUP4 DUP3 LT OR PUSH3 0x1DE JUMPI DUP9 MSTORE DUP5 DUP4 ADD MLOAD DUP3 MSTORE DUP8 DUP4 ADD MLOAD SWAP3 DUP6 DUP4 ADD SWAP4 DUP5 MSTORE PUSH1 0x60 DUP2 ADD MLOAD SWAP1 DUP8 DUP3 GT PUSH3 0x1D9 JUMPI ADD SWAP7 DUP1 PUSH1 0x1F DUP10 ADD SLT ISZERO PUSH3 0x1D9 JUMPI DUP8 MLOAD SWAP7 DUP8 GT PUSH3 0x1DE JUMPI PUSH1 0x5 SWAP8 DUP8 PUSH1 0x5 SHL SWAP1 DUP8 DUP1 PUSH3 0xBE DUP2 DUP6 ADD PUSH3 0x1F4 JUMP JUMPDEST DUP1 SWAP12 DUP2 MSTORE ADD SWAP3 DUP3 ADD ADD SWAP3 DUP4 GT PUSH3 0x1D9 JUMPI DUP8 ADD SWAP1 JUMPDEST DUP3 DUP3 LT PUSH3 0x1BF JUMPI POP POP POP PUSH1 0xC0 MSTORE MLOAD PUSH1 0x80 MSTORE MLOAD PUSH1 0xA0 MSTORE PUSH1 0xFF PUSH1 0x4 SLOAD AND ISZERO PUSH3 0x13C JUMPI JUMPDEST DUP5 MLOAD PUSH2 0x17CC SWAP1 DUP2 PUSH3 0x21B DUP3 CODECOPY PUSH1 0x80 MLOAD DUP2 DUP2 DUP2 PUSH2 0x9CD ADD MSTORE DUP2 DUP2 PUSH2 0x12A4 ADD MSTORE PUSH2 0x154B ADD MSTORE PUSH1 0xA0 MLOAD DUP2 PUSH2 0x120D ADD MSTORE PUSH1 0xC0 MLOAD DUP2 DUP2 DUP2 PUSH2 0x166 ADD MSTORE DUP2 DUP2 PUSH2 0x6A1 ADD MSTORE PUSH2 0xC35 ADD MSTORE RETURN JUMPDEST PUSH1 0x0 SWAP3 PUSH1 0x0 JUMPDEST DUP2 MLOAD DUP2 LT ISZERO PUSH3 0x1A2 JUMPI DUP1 DUP4 DUP6 PUSH1 0x1 SWAP4 DUP10 SHL DUP6 ADD ADD MLOAD AND DUP1 DUP8 MSTORE PUSH1 0x3 DUP7 MSTORE PUSH32 0x50B08F8489C009DB3C1B3F160CC0DAE1C0C6706774750C001E4C083F9483D5F3 DUP10 PUSH8 0xDE0B6B3A7640000 DUP1 DUP3 DUP12 KECCAK256 SSTORE DUP2 MLOAD SWAP1 DUP2 MSTORE TIMESTAMP DUP10 DUP3 ADD MSTORE LOG2 ADD PUSH3 0x142 JUMP JUMPDEST POP POP POP POP POP POP PUSH1 0x1 PUSH1 0xFF NOT PUSH1 0x4 SLOAD AND OR PUSH1 0x4 SSTORE CODESIZE DUP1 DUP1 DUP1 PUSH3 0xF6 JUMP JUMPDEST DUP2 MLOAD DUP8 DUP2 AND DUP2 SUB PUSH3 0x1D9 JUMPI DUP2 MSTORE SWAP1 DUP8 ADD SWAP1 DUP8 ADD PUSH3 0xD3 JUMP JUMPDEST PUSH1 0x0 DUP1 REVERT JUMPDEST PUSH4 0x4E487B71 PUSH1 0xE0 SHL PUSH1 0x0 MSTORE PUSH1 0x41 PUSH1 0x4 MSTORE PUSH1 0x24 PUSH1 0x0 REVERT JUMPDEST PUSH1 0x40 MLOAD SWAP2 SWAP1 PUSH1 0x1F ADD PUSH1 0x1F NOT AND DUP3 ADD PUSH1 0x1 PUSH1 0x1 PUSH1 0x40 SHL SUB DUP2 GT DUP4 DUP3 LT OR PUSH3 0x1DE JUMPI PUSH1 0x40 MSTORE JUMP INVALID PUSH1 0x80 PUSH1 0x40 SWAP1 DUP1 DUP3 MSTORE PUSH1 0x4 SWAP2 DUP3 CALLDATASIZE LT ISZERO PUSH2 0x17 JUMPI PUSH1 0x0 DUP1 REVERT JUMPDEST PUSH1 0x0 SWAP2 DUP3 CALLDATALOAD PUSH1 0xE0 SHR SWAP1 DUP2 PUSH4 0x66112F9 EQ PUSH2 0xBE2 JUMPI POP DUP1 PUSH4 0x6FDDE03 EQ PUSH2 0xB70 JUMPI DUP1 PUSH4 0x95EA7B3 EQ PUSH2 0x7A0 JUMPI DUP1 PUSH4 0x16CF09F8 EQ PUSH2 0xAAF JUMPI DUP1 PUSH4 0x18160DDD EQ PUSH2 0xA72 JUMPI DUP1 PUSH4 0x23B872DD EQ PUSH2 0xA38 JUMPI DUP1 PUSH4 0x313CE567 EQ PUSH2 0x9FF JUMPI DUP1 PUSH4 0x48483382 EQ PUSH2 0x97C JUMPI DUP1 PUSH4 0x59D431B3 EQ PUSH2 0x928 JUMPI DUP1 PUSH4 0x70A08231 EQ PUSH2 0x8B7 JUMPI DUP1 PUSH4 0x7997F96D EQ PUSH2 0x85E JUMPI DUP1 PUSH4 0x95D89B41 EQ PUSH2 0x7E8 JUMPI DUP1 PUSH4 0xA8671F6A EQ PUSH2 0x7A5 JUMPI DUP1 PUSH4 0xA9059CBB EQ PUSH2 0x7A0 JUMPI DUP1 PUSH4 0xABE7F1AB EQ PUSH2 0x749 JUMPI DUP1 PUSH4 0xB061963C EQ PUSH2 0x6FF JUMPI DUP1 PUSH4 0xBB35783B EQ PUSH2 0x6C5 JUMPI DUP1 PUSH4 0xCAB34C08 EQ PUSH2 0x657 JUMPI DUP1 PUSH4 0xCEE2960B EQ PUSH2 0x432 JUMPI DUP1 PUSH4 0xDD62ED3E EQ PUSH2 0x3CC JUMPI DUP1 PUSH4 0xF5D82B6B EQ PUSH2 0x348 JUMPI PUSH4 0xFF1E03E9 EQ PUSH2 0x117 JUMPI PUSH1 0x0 DUP1 REVERT JUMPDEST CALLVALUE PUSH2 0x344 JUMPI PUSH1 0x20 PUSH32 0xFFFFFFFFFFFFFFFFFFFFFFFFFFFFFFFFFFFFFFFFFFFFFFFFFFFFFFFFFFFFFFFC CALLDATASIZE ADD SLT PUSH2 0x344 JUMPI PUSH2 0x14E PUSH2 0xD70 JUMP JUMPDEST SWAP1 PUSH20 0xFFFFFFFFFFFFFFFFFFFFFFFFFFFFFFFFFFFFFFFF PUSH32 0x0 AND DUP1 ISZERO PUSH2 0x31C JUMPI SWAP4 DUP4 SWAP5 CALLER DUP6 MSTORE PUSH1 0x1 PUSH1 0x20 MSTORE PUSH14 0xFFFFFFFFFFFFFFFFFFFFFFFFFFFF SWAP1 DUP2 DUP5 DUP8 KECCAK256 SLOAD AND PUSH2 0x248 PUSH2 0x1ED PUSH2 0x1BB PUSH2 0x1531 JUMP JUMPDEST SWAP4 SWAP1 POP CALLER DUP11 MSTORE PUSH1 0x1 PUSH1 0x20 MSTORE DUP4 DUP9 DUP12 KECCAK256 SWAP2 PUSH13 0xFFFFFFFFFFFFFFFFFFFFFFFFFF SWAP8 PUSH1 0x1 DUP10 DUP6 SLOAD PUSH1 0x70 SHR AND SWAP5 ADD SLOAD AND SWAP3 PUSH2 0x1411 JUMP JUMPDEST SWAP4 CALLER DUP10 MSTORE PUSH1 0x1 PUSH1 0x20 MSTORE DUP7 DUP10 KECCAK256 SWAP3 AND DUP3 SWAP1 PUSH32 0xFFFFFFFFFF00000000000000000000000000FFFFFFFFFFFFFFFFFFFFFFFFFFFF PUSH27 0xFFFFFFFFFFFFFFFFFFFFFFFFFF0000000000000000000000000000 DUP4 SLOAD SWAP3 PUSH1 0x70 SHL AND SWAP2 AND OR SWAP1 SSTORE JUMP JUMPDEST DUP3 PUSH2 0x251 JUMPI DUP7 DUP1 RETURN JUMPDEST PUSH1 0x1 ADD PUSH32 0xFFFFFFFFFFFFFFFFFFFFFFFFFFFFFFFFFFFF0000000000000000000000000000 DUP2 SLOAD AND SWAP1 SSTORE DUP1 EXTCODESIZE ISZERO PUSH2 0x318 JUMPI PUSH2 0x2DE SWAP5 DUP7 DUP1 SWAP5 DUP7 MLOAD SWAP8 DUP9 SWAP6 DUP7 SWAP5 DUP6 SWAP4 PUSH32 0x21670F2200000000000000000000000000000000000000000000000000000000 DUP6 MSTORE DUP5 ADD PUSH1 0x20 SWAP1 SWAP4 SWAP3 SWAP2 SWAP4 PUSH20 0xFFFFFFFFFFFFFFFFFFFFFFFFFFFFFFFFFFFFFFFF PUSH1 0x40 DUP3 ADD SWAP6 AND DUP2 MSTORE ADD MSTORE JUMP JUMPDEST SUB SWAP3 GAS CALL SWAP1 DUP2 ISZERO PUSH2 0x30F JUMPI POP PUSH2 0x2F8 JUMPI JUMPDEST DUP1 DUP1 DUP1 DUP1 DUP1 DUP7 DUP1 RETURN JUMPDEST PUSH2 0x301 SWAP1 PUSH2 0xF62 JUMP JUMPDEST PUSH2 0x30C JUMPI DUP1 CODESIZE PUSH2 0x2EF JUMP JUMPDEST DUP1 REVERT JUMPDEST MLOAD RETURNDATASIZE DUP5 DUP3 RETURNDATACOPY RETURNDATASIZE SWAP1 REVERT JUMPDEST DUP6 DUP1 REVERT JUMPDEST DUP5 DUP3 MLOAD PUSH32 0xEA8E4EB500000000000000000000000000000000000000000000000000000000 DUP2 MSTORE REVERT JUMPDEST POP DUP1 REVERT JUMPDEST POP DUP3 CALLVALUE PUSH2 0x3C8 JUMPI DUP2 PUSH32 0xFFFFFFFFFFFFFFFFFFFFFFFFFFFFFFFFFFFFFFFFFFFFFFFFFFFFFFFFFFFFFFFC CALLDATASIZE ADD SLT PUSH2 0x3C8 JUMPI PUSH2 0x380 PUSH2 0xD70 JUMP JUMPDEST SWAP2 CALLER DUP5 MSTORE PUSH1 0x3 PUSH1 0x20 MSTORE DUP1 DUP5 KECCAK256 SLOAD ISZERO PUSH2 0x3A2 JUMPI DUP4 PUSH2 0x39F PUSH1 0x24 CALLDATALOAD DUP6 PUSH2 0x1452 JUMP JUMPDEST DUP1 RETURN JUMPDEST MLOAD PUSH32 0xEA8E4EB500000000000000000000000000000000000000000000000000000000 DUP2 MSTORE REVERT JUMPDEST DUP3 DUP1 REVERT JUMPDEST POP SWAP1 CALLVALUE PUSH2 0x30C JUMPI DUP2 PUSH32 0xFFFFFFFFFFFFFFFFFFFFFFFFFFFFFFFFFFFFFFFFFFFFFFFFFFFFFFFFFFFFFFFC CALLDATASIZE ADD SLT PUSH2 0x30C JUMPI PUSH2 0x404 PUSH2 0xD70 JUMP JUMPDEST POP PUSH1 0x24 CALLDATALOAD PUSH20 0xFFFFFFFFFFFFFFFFFFFFFFFFFFFFFFFFFFFFFFFF DUP2 AND SUB PUSH2 0x42D JUMPI PUSH1 0x20 SWAP2 MLOAD SWAP1 DUP2 MSTORE RETURN JUMPDEST PUSH1 0x0 DUP1 REVERT JUMPDEST POP DUP3 CALLVALUE PUSH2 0x3C8 JUMPI PUSH1 0x80 PUSH32 0xFFFFFFFFFFFFFFFFFFFFFFFFFFFFFFFFFFFFFFFFFFFFFFFFFFFFFFFFFFFFFFFC CALLDATASIZE ADD SLT PUSH2 0x3C8 JUMPI PUSH20 0xFFFFFFFFFFFFFFFFFFFFFFFFFFFFFFFFFFFFFFFF DUP2 CALLDATALOAD DUP2 DUP2 AND SUB PUSH2 0x653 JUMPI DUP3 PUSH32 0xFFFFFFFFFFFFFFFFFFFFFFFFFFFFFFFFFFFFFFFFFFFFFFFFFFFFFFFFFFFFFFDC CALLDATASIZE ADD SLT PUSH2 0x653 JUMPI DUP3 MLOAD SWAP1 PUSH8 0xFFFFFFFFFFFFFFFF DUP3 DUP6 ADD DUP2 DUP2 GT DUP5 DUP3 LT OR PUSH2 0x625 JUMPI DUP6 MSTORE PUSH1 0x24 CALLDATALOAD DUP4 MSTORE PUSH1 0x44 CALLDATALOAD PUSH1 0x20 SWAP4 DUP5 ADD MSTORE PUSH1 0x64 CALLDATALOAD SWAP1 DUP2 GT PUSH2 0x318 JUMPI CALLDATASIZE PUSH1 0x23 DUP3 ADD SLT ISZERO PUSH2 0x318 JUMPI DUP1 DUP5 ADD CALLDATALOAD SWAP1 PUSH2 0x4F8 DUP3 PUSH2 0x1002 JUMP JUMPDEST SWAP2 PUSH2 0x505 DUP8 MLOAD SWAP4 DUP5 PUSH2 0xFC1 JUMP JUMPDEST DUP1 DUP4 MSTORE PUSH1 0x24 DUP6 DUP5 ADD SWAP2 PUSH1 0x5 SHL DUP4 ADD ADD SWAP2 CALLDATASIZE DUP4 GT PUSH2 0x621 JUMPI PUSH1 0x24 ADD SWAP1 JUMPDEST DUP3 DUP3 LT PUSH2 0x609 JUMPI POP POP POP PUSH2 0x559 DUP3 PUSH32 0xB53127684A568B3173AE13B9F8A6016E243E63B6E8EE1178D6A717850B5D6103 SLOAD AND CALLER EQ PUSH2 0x101A JUMP JUMPDEST PUSH1 0xFF DUP5 SLOAD AND ISZERO PUSH2 0x567 JUMPI DUP6 DUP1 RETURN JUMPDEST SWAP1 SWAP2 SWAP3 SWAP4 SWAP5 DUP1 JUMPDEST DUP3 MLOAD DUP2 LT ISZERO PUSH2 0x5D1 JUMPI DUP1 DUP5 PUSH2 0x585 PUSH1 0x1 SWAP4 DUP7 PUSH2 0x116A JUMP JUMPDEST MLOAD AND DUP1 PUSH1 0x0 MSTORE PUSH1 0x3 DUP8 MSTORE PUSH32 0x50B08F8489C009DB3C1B3F160CC0DAE1C0C6706774750C001E4C083F9483D5F3 DUP10 PUSH8 0xDE0B6B3A7640000 DUP1 DUP3 PUSH1 0x0 KECCAK256 SSTORE DUP2 MLOAD SWAP1 DUP2 MSTORE TIMESTAMP DUP11 DUP3 ADD MSTORE LOG2 ADD PUSH2 0x56E JUMP JUMPDEST POP SWAP5 POP POP POP POP PUSH1 0x1 PUSH32 0xFFFFFFFFFFFFFFFFFFFFFFFFFFFFFFFFFFFFFFFFFFFFFFFFFFFFFFFFFFFFFF00 DUP3 SLOAD AND OR SWAP1 SSTORE DUP2 DUP1 DUP1 DUP1 DUP1 DUP6 DUP1 RETURN JUMPDEST DUP2 CALLDATALOAD DUP6 DUP2 AND DUP2 SUB PUSH2 0x42D JUMPI DUP2 MSTORE SWAP1 DUP6 ADD SWAP1 DUP6 ADD PUSH2 0x521 JUMP JUMPDEST DUP9 DUP1 REVERT JUMPDEST PUSH1 0x41 DUP6 PUSH32 0x4E487B7100000000000000000000000000000000000000000000000000000000 PUSH1 0x0 MSTORE MSTORE PUSH1 0x24 PUSH1 0x0 REVERT JUMPDEST DUP4 DUP1 REVERT JUMPDEST POP CALLVALUE PUSH2 0x344 JUMPI DUP2 PUSH32 0xFFFFFFFFFFFFFFFFFFFFFFFFFFFFFFFFFFFFFFFFFFFFFFFFFFFFFFFFFFFFFFFC CALLDATASIZE ADD SLT PUSH2 0x344 JUMPI PUSH1 0x20 SWAP1 MLOAD PUSH20 0xFFFFFFFFFFFFFFFFFFFFFFFFFFFFFFFFFFFFFFFF PUSH32 0x0 AND DUP2 MSTORE RETURN JUMPDEST POP SWAP2 CALLVALUE PUSH2 0x344 JUMPI PUSH2 0x6D5 CALLDATASIZE PUSH2 0xE5B JUMP JUMPDEST SWAP3 SWAP1 SWAP2 SWAP5 CALLER DUP6 MSTORE PUSH1 0x3 PUSH1 0x20 MSTORE DUP1 DUP6 KECCAK256 SLOAD ISZERO PUSH2 0x3A2 JUMPI POP POP PUSH2 0x6FA DUP3 PUSH2 0x39F SWAP5 SWAP6 PUSH2 0x132F JUMP JUMPDEST PUSH2 0x1452 JUMP JUMPDEST POP CALLVALUE PUSH2 0x344 JUMPI PUSH1 0x20 PUSH32 0xFFFFFFFFFFFFFFFFFFFFFFFFFFFFFFFFFFFFFFFFFFFFFFFFFFFFFFFFFFFFFFFC CALLDATASIZE ADD SLT PUSH2 0x344 JUMPI PUSH1 0x20 SWAP1 PUSH2 0x742 PUSH2 0x73D PUSH2 0xD70 JUMP JUMPDEST PUSH2 0x1247 JUMP JUMPDEST SWAP1 MLOAD SWAP1 DUP2 MSTORE RETURN JUMPDEST POP DUP3 CALLVALUE PUSH2 0x3C8 JUMPI DUP2 PUSH32 0xFFFFFFFFFFFFFFFFFFFFFFFFFFFFFFFFFFFFFFFFFFFFFFFFFFFFFFFFFFFFFFFC CALLDATASIZE ADD SLT PUSH2 0x3C8 JUMPI PUSH2 0x781 PUSH2 0xD70 JUMP JUMPDEST SWAP2 CALLER DUP5 MSTORE PUSH1 0x3 PUSH1 0x20 MSTORE DUP1 DUP5 KECCAK256 SLOAD ISZERO PUSH2 0x3A2 JUMPI DUP4 PUSH2 0x39F PUSH1 0x24 CALLDATALOAD DUP6 PUSH2 0x132F JUMP JUMPDEST PUSH2 0xDF9 JUMP JUMPDEST POP CALLVALUE PUSH2 0x344 JUMPI PUSH1 0x20 PUSH32 0xFFFFFFFFFFFFFFFFFFFFFFFFFFFFFFFFFFFFFFFFFFFFFFFFFFFFFFFFFFFFFFFC CALLDATASIZE ADD SLT PUSH2 0x344 JUMPI PUSH1 0x20 SWAP1 PUSH2 0x742 PUSH2 0x7E3 PUSH2 0xD70 JUMP JUMPDEST PUSH2 0x119E JUMP JUMPDEST POP CALLVALUE PUSH2 0x344 JUMPI DUP2 PUSH32 0xFFFFFFFFFFFFFFFFFFFFFFFFFFFFFFFFFFFFFFFFFFFFFFFFFFFFFFFFFFFFFFFC CALLDATASIZE ADD SLT PUSH2 0x344 JUMPI DUP1 MLOAD PUSH2 0x85A SWAP2 PUSH2 0x826 DUP3 PUSH2 0xFA5 JUMP JUMPDEST PUSH1 0x5 DUP3 MSTORE PUSH32 0x504F494E54000000000000000000000000000000000000000000000000000000 PUSH1 0x20 DUP4 ADD MSTORE MLOAD SWAP2 DUP3 SWAP2 DUP3 PUSH2 0xD93 JUMP JUMPDEST SUB SWAP1 RETURN JUMPDEST POP SWAP1 CALLVALUE PUSH2 0x30C JUMPI PUSH2 0x86E CALLDATASIZE PUSH2 0xEBB JUMP JUMPDEST PUSH2 0x877 DUP2 PUSH2 0x10BB JUMP JUMPDEST SWAP3 JUMPDEST DUP2 DUP2 LT PUSH2 0x88D JUMPI DUP5 MLOAD DUP1 PUSH2 0x85A DUP7 DUP3 PUSH2 0xF26 JUMP JUMPDEST DUP1 PUSH2 0x8A6 PUSH2 0x7E3 PUSH2 0x8A1 PUSH1 0x1 SWAP5 DUP7 DUP9 PUSH2 0x110A JUMP JUMPDEST PUSH2 0x1149 JUMP JUMPDEST PUSH2 0x8B0 DUP3 DUP8 PUSH2 0x116A JUMP JUMPDEST MSTORE ADD PUSH2 0x879 JUMP JUMPDEST POP CALLVALUE PUSH2 0x344 JUMPI PUSH1 0x20 PUSH32 0xFFFFFFFFFFFFFFFFFFFFFFFFFFFFFFFFFFFFFFFFFFFFFFFFFFFFFFFFFFFFFFFC CALLDATASIZE ADD SLT PUSH2 0x344 JUMPI PUSH14 0xFFFFFFFFFFFFFFFFFFFFFFFFFFFF DUP2 PUSH1 0x20 SWAP4 PUSH20 0xFFFFFFFFFFFFFFFFFFFFFFFFFFFFFFFFFFFFFFFF PUSH2 0x917 PUSH2 0xD70 JUMP JUMPDEST AND DUP2 MSTORE PUSH1 0x1 DUP6 MSTORE KECCAK256 SLOAD AND SWAP1 MLOAD SWAP1 DUP2 MSTORE RETURN JUMPDEST POP SWAP1 CALLVALUE PUSH2 0x30C JUMPI PUSH2 0x938 CALLDATASIZE PUSH2 0xEBB JUMP JUMPDEST PUSH2 0x941 DUP2 PUSH2 0x10BB JUMP JUMPDEST SWAP3 JUMPDEST DUP2 DUP2 LT PUSH2 0x957 JUMPI DUP5 MLOAD DUP1 PUSH2 0x85A DUP7 DUP3 PUSH2 0xF26 JUMP JUMPDEST DUP1 PUSH2 0x96B PUSH2 0x73D PUSH2 0x8A1 PUSH1 0x1 SWAP5 DUP7 DUP9 PUSH2 0x110A JUMP JUMPDEST PUSH2 0x975 DUP3 DUP8 PUSH2 0x116A JUMP JUMPDEST MSTORE ADD PUSH2 0x943 JUMP JUMPDEST POP CALLVALUE PUSH2 0x344 JUMPI DUP2 PUSH32 0xFFFFFFFFFFFFFFFFFFFFFFFFFFFFFFFFFFFFFFFFFFFFFFFFFFFFFFFFFFFFFFFC CALLDATASIZE ADD SLT PUSH2 0x344 JUMPI PUSH2 0x742 PUSH1 0x20 SWAP3 SLOAD PUSH13 0xFFFFFFFFFFFFFFFFFFFFFFFFFF PUSH2 0x9F5 PUSH5 0xFFFFFFFFFF DUP4 AND PUSH32 0x0 DUP5 PUSH1 0x90 SHR PUSH2 0x12ED JUMP JUMPDEST SWAP2 PUSH1 0x28 SHR AND PUSH2 0x107F JUMP JUMPDEST POP CALLVALUE PUSH2 0x344 JUMPI DUP2 PUSH32 0xFFFFFFFFFFFFFFFFFFFFFFFFFFFFFFFFFFFFFFFFFFFFFFFFFFFFFFFFFFFFFFFC CALLDATASIZE ADD SLT PUSH2 0x344 JUMPI PUSH1 0x20 SWAP1 MLOAD PUSH1 0x12 DUP2 MSTORE RETURN JUMPDEST POP SWAP1 CALLVALUE PUSH2 0x30C JUMPI POP PUSH2 0xA49 CALLDATASIZE PUSH2 0xE5B JUMP JUMPDEST POP POP POP MLOAD PUSH32 0x9CBE235700000000000000000000000000000000000000000000000000000000 DUP2 MSTORE REVERT JUMPDEST POP CALLVALUE PUSH2 0x344 JUMPI DUP2 PUSH32 0xFFFFFFFFFFFFFFFFFFFFFFFFFFFFFFFFFFFFFFFFFFFFFFFFFFFFFFFFFFFFFFFC CALLDATASIZE ADD SLT PUSH2 0x344 JUMPI PUSH1 0x20 SWAP2 SLOAD PUSH1 0x90 SHR SWAP1 MLOAD SWAP1 DUP2 MSTORE RETURN JUMPDEST POP CALLVALUE PUSH2 0x344 JUMPI DUP1 PUSH32 0xFFFFFFFFFFFFFFFFFFFFFFFFFFFFFFFFFFFFFFFFFFFFFFFFFFFFFFFFFFFFFFFC CALLDATASIZE ADD SLT PUSH2 0x344 JUMPI PUSH32 0x50B08F8489C009DB3C1B3F160CC0DAE1C0C6706774750C001E4C083F9483D5F3 PUSH2 0xB07 PUSH2 0xD70 JUMP JUMPDEST SWAP2 PUSH1 0x24 CALLDATALOAD SWAP3 PUSH20 0xFFFFFFFFFFFFFFFFFFFFFFFFFFFFFFFFFFFFFFFF SWAP1 PUSH2 0xB50 DUP3 PUSH32 0xB53127684A568B3173AE13B9F8A6016E243E63B6E8EE1178D6A717850B5D6103 SLOAD AND CALLER EQ PUSH2 0x101A JUMP JUMPDEST AND SWAP3 DUP4 PUSH1 0x0 MSTORE PUSH1 0x3 PUSH1 0x20 MSTORE DUP1 DUP3 PUSH1 0x0 KECCAK256 SSTORE DUP2 MLOAD SWAP1 DUP2 MSTORE TIMESTAMP PUSH1 0x20 DUP3 ADD MSTORE LOG2 DUP1 RETURN JUMPDEST POP CALLVALUE PUSH2 0x344 JUMPI DUP2 PUSH32 0xFFFFFFFFFFFFFFFFFFFFFFFFFFFFFFFFFFFFFFFFFFFFFFFFFFFFFFFFFFFFFFFC CALLDATASIZE ADD SLT PUSH2 0x344 JUMPI DUP1 MLOAD PUSH2 0x85A SWAP2 PUSH2 0xBAE DUP3 PUSH2 0xFA5 JUMP JUMPDEST PUSH1 0x6 DUP3 MSTORE PUSH32 0x506F696E74730000000000000000000000000000000000000000000000000000 PUSH1 0x20 DUP4 ADD MSTORE MLOAD SWAP2 DUP3 SWAP2 DUP3 PUSH2 0xD93 JUMP JUMPDEST DUP5 SWAP3 SWAP2 POP CALLVALUE PUSH2 0x653 JUMPI PUSH1 0x20 PUSH32 0xFFFFFFFFFFFFFFFFFFFFFFFFFFFFFFFFFFFFFFFFFFFFFFFFFFFFFFFFFFFFFFFC CALLDATASIZE ADD SLT PUSH2 0x653 JUMPI PUSH2 0xC1D PUSH2 0xD70 JUMP JUMPDEST SWAP1 PUSH20 0xFFFFFFFFFFFFFFFFFFFFFFFFFFFFFFFFFFFFFFFF PUSH32 0x0 AND SWAP1 DUP2 ISZERO PUSH2 0xD49 JUMPI POP SWAP1 DUP5 SWAP2 PUSH2 0xC69 CALLER PUSH2 0x119E JUMP JUMPDEST SWAP2 DUP3 PUSH2 0xC73 JUMPI DUP4 DUP1 RETURN JUMPDEST CALLER DUP5 MSTORE PUSH1 0x2 PUSH1 0x20 MSTORE DUP5 DUP5 KECCAK256 DUP1 SLOAD PUSH32 0xFFFFFFFFFFFFFFFFFFFFFFFFFF00000000000000000000000000000000000000 AND PUSH19 0xFFFFFFFFFF0000000000000000000000000000 TIMESTAMP PUSH1 0x70 SHL AND OR SWAP1 SSTORE DUP2 EXTCODESIZE ISZERO PUSH2 0x653 JUMPI DUP4 PUSH2 0xD20 SWAP7 DUP7 MLOAD SWAP8 DUP9 SWAP6 DUP7 SWAP5 DUP6 SWAP4 PUSH32 0x21670F2200000000000000000000000000000000000000000000000000000000 DUP6 MSTORE DUP5 ADD PUSH1 0x20 SWAP1 SWAP4 SWAP3 SWAP2 SWAP4 PUSH20 0xFFFFFFFFFFFFFFFFFFFFFFFFFFFFFFFFFFFFFFFF PUSH1 0x40 DUP3 ADD SWAP6 AND DUP2 MSTORE ADD MSTORE JUMP JUMPDEST SUB SWAP3 GAS CALL SWAP1 DUP2 ISZERO PUSH2 0x30F JUMPI POP PUSH2 0xD3A JUMPI JUMPDEST DUP1 DUP3 DUP2 DUP1 DUP1 DUP4 DUP1 RETURN JUMPDEST PUSH2 0xD43 SWAP1 PUSH2 0xF62 JUMP JUMPDEST DUP2 PUSH2 0xD31 JUMP JUMPDEST DUP1 PUSH32 0xEA8E4EB500000000000000000000000000000000000000000000000000000000 DUP7 SWAP3 MSTORE REVERT JUMPDEST PUSH1 0x4 CALLDATALOAD SWAP1 PUSH20 0xFFFFFFFFFFFFFFFFFFFFFFFFFFFFFFFFFFFFFFFF DUP3 AND DUP3 SUB PUSH2 0x42D JUMPI JUMP JUMPDEST PUSH1 0x20 DUP1 DUP3 MSTORE DUP3 MLOAD DUP2 DUP4 ADD DUP2 SWAP1 MSTORE SWAP4 SWAP3 PUSH1 0x0 JUMPDEST DUP6 DUP2 LT PUSH2 0xDE5 JUMPI POP POP POP PUSH32 0xFFFFFFFFFFFFFFFFFFFFFFFFFFFFFFFFFFFFFFFFFFFFFFFFFFFFFFFFFFFFFFE0 PUSH1 0x1F DUP5 PUSH1 0x0 PUSH1 0x40 DUP1 SWAP7 SWAP8 DUP7 ADD ADD MSTORE ADD AND ADD ADD SWAP1 JUMP JUMPDEST DUP2 DUP2 ADD DUP4 ADD MLOAD DUP5 DUP3 ADD PUSH1 0x40 ADD MSTORE DUP3 ADD PUSH2 0xDA5 JUMP JUMPDEST CALLVALUE PUSH2 0x42D JUMPI PUSH1 0x40 PUSH32 0xFFFFFFFFFFFFFFFFFFFFFFFFFFFFFFFFFFFFFFFFFFFFFFFFFFFFFFFFFFFFFFFC CALLDATASIZE ADD SLT PUSH2 0x42D JUMPI PUSH2 0xE30 PUSH2 0xD70 JUMP JUMPDEST POP PUSH1 0x4 PUSH1 0x40 MLOAD PUSH32 0x9CBE235700000000000000000000000000000000000000000000000000000000 DUP2 MSTORE REVERT JUMPDEST PUSH32 0xFFFFFFFFFFFFFFFFFFFFFFFFFFFFFFFFFFFFFFFFFFFFFFFFFFFFFFFFFFFFFFFC PUSH1 0x60 SWAP2 ADD SLT PUSH2 0x42D JUMPI PUSH20 0xFFFFFFFFFFFFFFFFFFFFFFFFFFFFFFFFFFFFFFFF SWAP1 PUSH1 0x4 CALLDATALOAD DUP3 DUP2 AND DUP2 SUB PUSH2 0x42D JUMPI SWAP2 PUSH1 0x24 CALLDATALOAD SWAP1 DUP2 AND DUP2 SUB PUSH2 0x42D JUMPI SWAP1 PUSH1 0x44 CALLDATALOAD SWAP1 JUMP JUMPDEST SWAP1 PUSH1 0x20 PUSH32 0xFFFFFFFFFFFFFFFFFFFFFFFFFFFFFFFFFFFFFFFFFFFFFFFFFFFFFFFFFFFFFFFC DUP4 ADD SLT PUSH2 0x42D JUMPI PUSH1 0x4 CALLDATALOAD PUSH8 0xFFFFFFFFFFFFFFFF SWAP3 DUP4 DUP3 GT PUSH2 0x42D JUMPI DUP1 PUSH1 0x23 DUP4 ADD SLT ISZERO PUSH2 0x42D JUMPI DUP2 PUSH1 0x4 ADD CALLDATALOAD SWAP4 DUP5 GT PUSH2 0x42D JUMPI PUSH1 0x24 DUP5 PUSH1 0x5 SHL DUP4 ADD ADD GT PUSH2 0x42D JUMPI PUSH1 0x24 ADD SWAP2 SWAP1 JUMP JUMPDEST PUSH1 0x20 SWAP1 PUSH1 0x20 PUSH1 0x40 DUP2 DUP4 ADD SWAP3 DUP3 DUP2 MSTORE DUP6 MLOAD DUP1 SWAP5 MSTORE ADD SWAP4 ADD SWAP2 PUSH1 0x0 JUMPDEST DUP3 DUP2 LT PUSH2 0xF4E JUMPI POP POP POP POP SWAP1 JUMP JUMPDEST DUP4 MLOAD DUP6 MSTORE SWAP4 DUP2 ADD SWAP4 SWAP3 DUP2 ADD SWAP3 PUSH1 0x1 ADD PUSH2 0xF40 JUMP JUMPDEST PUSH8 0xFFFFFFFFFFFFFFFF DUP2 GT PUSH2 0xF76 JUMPI PUSH1 0x40 MSTORE JUMP JUMPDEST PUSH32 0x4E487B7100000000000000000000000000000000000000000000000000000000 PUSH1 0x0 MSTORE PUSH1 0x41 PUSH1 0x4 MSTORE PUSH1 0x24 PUSH1 0x0 REVERT JUMPDEST PUSH1 0x40 DUP2 ADD SWAP1 DUP2 LT PUSH8 0xFFFFFFFFFFFFFFFF DUP3 GT OR PUSH2 0xF76 JUMPI PUSH1 0x40 MSTORE JUMP JUMPDEST SWAP1 PUSH1 0x1F PUSH32 0xFFFFFFFFFFFFFFFFFFFFFFFFFFFFFFFFFFFFFFFFFFFFFFFFFFFFFFFFFFFFFFE0 SWAP2 ADD AND DUP2 ADD SWAP1 DUP2 LT PUSH8 0xFFFFFFFFFFFFFFFF DUP3 GT OR PUSH2 0xF76 JUMPI PUSH1 0x40 MSTORE JUMP JUMPDEST PUSH8 0xFFFFFFFFFFFFFFFF DUP2 GT PUSH2 0xF76 JUMPI PUSH1 0x5 SHL PUSH1 0x20 ADD SWAP1 JUMP JUMPDEST ISZERO PUSH2 0x1021 JUMPI JUMP JUMPDEST PUSH1 0x64 PUSH1 0x40 MLOAD PUSH32 0x8C379A000000000000000000000000000000000000000000000000000000000 DUP2 MSTORE PUSH1 0x20 PUSH1 0x4 DUP3 ADD MSTORE PUSH1 0xE PUSH1 0x24 DUP3 ADD MSTORE PUSH32 0x4E4F545F415554484F52495A4544000000000000000000000000000000000000 PUSH1 0x44 DUP3 ADD MSTORE REVERT JUMPDEST SWAP2 SWAP1 DUP3 ADD DUP1 SWAP3 GT PUSH2 0x108C JUMPI JUMP JUMPDEST PUSH32 0x4E487B7100000000000000000000000000000000000000000000000000000000 PUSH1 0x0 MSTORE PUSH1 0x11 PUSH1 0x4 MSTORE PUSH1 0x24 PUSH1 0x0 REVERT JUMPDEST SWAP1 PUSH2 0x10C5 DUP3 PUSH2 0x1002 JUMP JUMPDEST PUSH2 0x10D2 PUSH1 0x40 MLOAD SWAP2 DUP3 PUSH2 0xFC1 JUMP JUMPDEST DUP3 DUP2 MSTORE PUSH32 0xFFFFFFFFFFFFFFFFFFFFFFFFFFFFFFFFFFFFFFFFFFFFFFFFFFFFFFFFFFFFFFE0 PUSH2 0x1100 DUP3 SWAP5 PUSH2 0x1002 JUMP JUMPDEST ADD SWAP1 PUSH1 0x20 CALLDATASIZE SWAP2 ADD CALLDATACOPY JUMP JUMPDEST SWAP2 SWAP1 DUP2 LT ISZERO PUSH2 0x111A JUMPI PUSH1 0x5 SHL ADD SWAP1 JUMP JUMPDEST PUSH32 0x4E487B7100000000000000000000000000000000000000000000000000000000 PUSH1 0x0 MSTORE PUSH1 0x32 PUSH1 0x4 MSTORE PUSH1 0x24 PUSH1 0x0 REVERT JUMPDEST CALLDATALOAD PUSH20 0xFFFFFFFFFFFFFFFFFFFFFFFFFFFFFFFFFFFFFFFF DUP2 AND DUP2 SUB PUSH2 0x42D JUMPI SWAP1 JUMP JUMPDEST DUP1 MLOAD DUP3 LT ISZERO PUSH2 0x111A JUMPI PUSH1 0x20 SWAP2 PUSH1 0x5 SHL ADD ADD SWAP1 JUMP JUMPDEST SWAP2 SWAP1 DUP3 SUB SWAP2 DUP3 GT PUSH2 0x108C JUMPI JUMP JUMPDEST DUP2 DUP2 MUL SWAP3 SWAP2 DUP2 ISZERO SWAP2 DUP5 DIV EQ OR ISZERO PUSH2 0x108C JUMPI JUMP JUMPDEST PUSH20 0xFFFFFFFFFFFFFFFFFFFFFFFFFFFFFFFFFFFFFFFF PUSH2 0x1244 SWAP2 AND PUSH1 0x0 DUP2 DUP2 MSTORE PUSH1 0x2 PUSH1 0x20 MSTORE PUSH1 0x40 PUSH2 0x11DB PUSH5 0xFFFFFFFFFF DUP3 DUP5 KECCAK256 SLOAD PUSH1 0x70 SHR AND TIMESTAMP PUSH2 0x117E JUMP JUMPDEST SWAP2 DUP4 DUP2 MSTORE PUSH1 0x1 PUSH1 0x20 MSTORE PUSH4 0x3B9ACA00 PUSH2 0x1232 PUSH2 0x120B PUSH14 0xFFFFFFFFFFFFFFFFFFFFFFFFFFFF SWAP6 DUP7 DUP7 DUP7 KECCAK256 SLOAD AND SWAP1 PUSH2 0x118B JUMP JUMPDEST PUSH32 0x0 SWAP1 PUSH2 0x118B JUMP JUMPDEST DIV SWAP4 DUP2 MSTORE PUSH1 0x2 PUSH1 0x20 MSTORE KECCAK256 SLOAD AND SWAP1 PUSH2 0x107F JUMP JUMPDEST SWAP1 JUMP JUMPDEST PUSH20 0xFFFFFFFFFFFFFFFFFFFFFFFFFFFFFFFFFFFFFFFF PUSH2 0x1244 SWAP2 AND DUP1 PUSH1 0x0 MSTORE PUSH1 0x1 PUSH1 0x20 MSTORE PUSH1 0x40 PUSH1 0x0 KECCAK256 SLOAD SWAP1 PUSH13 0xFFFFFFFFFFFFFFFFFFFFFFFFFF SWAP2 PUSH14 0xFFFFFFFFFFFFFFFFFFFFFFFFFFFF SWAP3 PUSH2 0x12CC PUSH1 0x0 SLOAD DUP3 PUSH2 0x9F5 PUSH5 0xFFFFFFFFFF DUP4 AND PUSH32 0x0 DUP5 PUSH1 0x90 SHR PUSH2 0x12ED JUMP JUMPDEST SWAP3 PUSH1 0x0 MSTORE PUSH1 0x1 PUSH1 0x20 MSTORE DUP4 PUSH1 0x1 PUSH1 0x40 PUSH1 0x0 KECCAK256 ADD SLOAD AND SWAP4 DUP3 AND SWAP2 PUSH1 0x70 SHR AND PUSH2 0x1411 JUMP JUMPDEST SWAP2 SWAP1 DUP3 ISZERO PUSH2 0x1327 JUMPI PUSH2 0x1302 PUSH2 0x1307 SWAP3 TIMESTAMP PUSH2 0x117E JUMP JUMPDEST PUSH2 0x118B JUMP JUMPDEST PUSH10 0xD3C21BCECCEDA1000000 SWAP1 DUP2 DUP2 MUL SWAP2 DUP2 DUP4 DIV EQ SWAP1 ISZERO OR ISZERO PUSH2 0x108C JUMPI DIV SWAP1 JUMP JUMPDEST POP POP POP PUSH1 0x0 SWAP1 JUMP JUMPDEST DUP2 ISZERO PUSH2 0x140D JUMPI PUSH32 0xDDF252AD1BE2C89B69C2B068FC378DAA952BA7F163C4A11628F55A4DF523B3EF PUSH1 0x20 PUSH1 0x0 SWAP4 PUSH20 0xFFFFFFFFFFFFFFFFFFFFFFFFFFFFFFFFFFFFFFFF PUSH2 0x1379 DUP6 PUSH2 0x15CE JUMP JUMPDEST SWAP6 SWAP1 PUSH18 0xFFFFFFFFFFFFFFFFFFFFFFFFFFFFFFFFFFFF PUSH32 0xFFFFFFFFFFFFFFFFFFFFFFFFFFFF000000000000000000000000000000000000 DUP6 DUP11 SLOAD SWAP4 SUB PUSH1 0x90 SHL AND SWAP2 AND OR DUP8 SSTORE AND SWAP4 DUP5 DUP7 MSTORE PUSH1 0x1 DUP4 MSTORE PUSH14 0xFFFFFFFFFFFFFFFFFFFFFFFFFFFF DUP3 PUSH1 0x40 DUP9 KECCAK256 SWAP3 SUB AND PUSH32 0xFFFFFFFFFFFFFFFFFFFFFFFFFFFFFFFFFFFF0000000000000000000000000000 DUP3 SLOAD AND OR SWAP1 SSTORE PUSH1 0x40 MLOAD SWAP1 DUP2 MSTORE LOG3 JUMP JUMPDEST POP POP JUMP JUMPDEST PUSH2 0x141E SWAP1 PUSH2 0x1424 SWAP4 PUSH2 0x117E JUMP JUMPDEST SWAP1 PUSH2 0x118B JUMP JUMPDEST SWAP1 PUSH5 0xE8D4A51000 SWAP2 DUP3 DUP2 MUL SWAP3 DUP2 DUP5 DIV EQ SWAP1 ISZERO OR ISZERO PUSH2 0x108C JUMPI PUSH10 0xD3C21BCECCEDA1000000 PUSH2 0x1244 SWAP3 DIV SWAP1 PUSH2 0x107F JUMP JUMPDEST SWAP1 DUP1 ISZERO PUSH2 0x140D JUMPI PUSH32 0xDDF252AD1BE2C89B69C2B068FC378DAA952BA7F163C4A11628F55A4DF523B3EF PUSH1 0x20 PUSH1 0x0 SWAP3 PUSH20 0xFFFFFFFFFFFFFFFFFFFFFFFFFFFFFFFFFFFFFFFF PUSH2 0x149D DUP7 PUSH2 0x15CE JUMP JUMPDEST SWAP7 SWAP1 PUSH18 0xFFFFFFFFFFFFFFFFFFFFFFFFFFFFFFFFFFFF PUSH32 0xFFFFFFFFFFFFFFFFFFFFFFFFFFFF000000000000000000000000000000000000 DUP6 DUP10 SLOAD SWAP4 ADD PUSH1 0x90 SHL AND SWAP2 AND OR DUP7 SSTORE AND SWAP5 DUP6 DUP6 MSTORE PUSH1 0x1 DUP4 MSTORE PUSH14 0xFFFFFFFFFFFFFFFFFFFFFFFFFFFF DUP3 PUSH1 0x40 DUP8 KECCAK256 SWAP3 ADD AND PUSH32 0xFFFFFFFFFFFFFFFFFFFFFFFFFFFFFFFFFFFF0000000000000000000000000000 DUP3 SLOAD AND OR SWAP1 SSTORE PUSH1 0x40 MLOAD SWAP1 DUP2 MSTORE LOG3 JUMP JUMPDEST PUSH1 0x0 SLOAD DUP1 PUSH1 0x90 SHR SWAP2 PUSH5 0xFFFFFFFFFF SWAP2 PUSH2 0x1588 PUSH2 0x1570 DUP5 DUP4 AND PUSH32 0x0 DUP8 PUSH2 0x12ED JUMP JUMPDEST PUSH13 0xFFFFFFFFFFFFFFFFFFFFFFFFFF DUP4 PUSH1 0x28 SHR AND PUSH2 0x107F JUMP JUMPDEST SWAP3 TIMESTAMP AND SWAP1 PUSH32 0xFFFFFFFFFFFFFFFFFFFFFFFFFFFF000000000000000000000000000000000000 PUSH18 0xFFFFFFFFFFFFFFFFFFFFFFFFFF0000000000 DUP6 PUSH1 0x28 SHL AND SWAP2 AND OR OR PUSH1 0x0 SSTORE JUMP JUMPDEST SWAP1 PUSH20 0xFFFFFFFFFFFFFFFFFFFFFFFFFFFFFFFFFFFFFFFF SWAP2 PUSH2 0x15ED PUSH2 0x1531 JUMP JUMPDEST SWAP4 SWAP1 SWAP2 AND PUSH1 0x0 SWAP1 DUP1 DUP3 MSTORE PUSH1 0x1 PUSH1 0x20 MSTORE PUSH1 0x1 PUSH2 0x1642 PUSH2 0x16CA PUSH1 0x40 DUP6 KECCAK256 SWAP8 DUP9 SLOAD PUSH14 0xFFFFFFFFFFFFFFFFFFFFFFFFFFFF SWAP4 DUP2 DUP4 DUP7 DUP1 SWAP5 AND DUP1 SWAP14 DUP6 PUSH13 0xFFFFFFFFFFFFFFFFFFFFFFFFFF SWAP11 DUP12 SWAP3 ADD SLOAD AND SWAP4 PUSH1 0x70 SHR AND PUSH2 0x1411 JUMP JUMPDEST AND SWAP4 DUP6 DUP8 MSTORE PUSH1 0x1 PUSH1 0x20 MSTORE PUSH1 0x40 DUP8 KECCAK256 SWAP2 PUSH1 0x1 DUP4 ADD PUSH32 0xFFFFFFFFFFFFFFFFFFFFFFFFFFFFFFFFFFFF0000000000000000000000000000 SWAP7 DUP8 DUP3 SLOAD AND OR SWAP1 SSTORE AND PUSH32 0xFFFFFFFFFF00000000000000000000000000FFFFFFFFFFFFFFFFFFFFFFFFFFFF PUSH27 0xFFFFFFFFFFFFFFFFFFFFFFFFFF0000000000000000000000000000 DUP4 SLOAD SWAP3 PUSH1 0x70 SHL AND SWAP2 AND OR SWAP1 SSTORE JUMP JUMPDEST PUSH1 0x2 PUSH1 0x20 MSTORE PUSH5 0xFFFFFFFFFF SWAP4 PUSH4 0x3B9ACA00 PUSH2 0x16F5 PUSH2 0x120B DUP11 PUSH2 0x1302 DUP10 PUSH1 0x40 DUP8 KECCAK256 SLOAD PUSH1 0x70 SHR AND TIMESTAMP PUSH2 0x117E JUMP JUMPDEST DIV SWAP4 DUP2 MSTORE PUSH1 0x2 PUSH1 0x20 MSTORE PUSH2 0x174D PUSH1 0x40 DUP3 KECCAK256 SWAP6 TIMESTAMP AND DUP7 SWAP1 PUSH32 0xFFFFFFFFFFFFFFFFFFFFFFFFFF0000000000FFFFFFFFFFFFFFFFFFFFFFFFFFFF PUSH19 0xFFFFFFFFFF0000000000000000000000000000 DUP4 SLOAD SWAP3 PUSH1 0x70 SHL AND SWAP2 AND OR SWAP1 SSTORE JUMP JUMPDEST DUP2 DUP6 SLOAD SWAP5 AND DUP3 DUP6 AND ADD SWAP1 DUP3 DUP3 GT PUSH2 0x1769 JUMPI POP AND SWAP2 AND OR SWAP1 SSTORE SWAP2 SWAP1 JUMP JUMPDEST DUP1 PUSH32 0x4E487B7100000000000000000000000000000000000000000000000000000000 PUSH1 0x24 SWAP3 MSTORE PUSH1 0x11 PUSH1 0x4 MSTORE REVERT INVALID LOG2 PUSH5 0x6970667358 0x22 SLT KECCAK256 RETURN DUP7 0xF7 0xFC NOT DUP2 GAS 0xE6 MUL 0xF7 BLOBBASEFEE PUSH25 0xB28D4EA05C0FA1A9FA2D07C7A3ABB4F18D1B23BB64736F6C63 NUMBER STOP ADDMOD XOR STOP CALLER "
    },
    "gasEstimates": {
      "creation": {
        "codeDepositCost": "1218400",
        "executionCost": "infinite",
        "totalCost": "infinite"
      },
      "external": {
        "REWARD()": "infinite",
        "add(address,uint256)": "infinite",
        "allowance(address,address)": "687",
        "approve(address,uint256)": "289",
        "balanceOf(address)": "2606",
        "claimFixedRewards(address)": "infinite",
        "claimSharedPoolRewards(address)": "infinite",
        "decimals()": "304",
        "earnedFromFixedRate(address)": "infinite",
        "earnedFromFixedRateMultipleAccounts(address[])": "infinite",
        "earnedFromPoolRate(address)": "infinite",
        "earnedFromPoolRateMultipleAccounts(address[])": "infinite",
        "enableGame(address,uint256)": "26303",
        "getTotalRewardPerPointWithPrecision24()": "infinite",
        "move(address,address,uint256)": "infinite",
        "name()": "infinite",
        "postUpgrade(address,(uint256,uint256),address[])": "infinite",
        "remove(address,uint256)": "infinite",
        "symbol()": "infinite",
        "totalSupply()": "2369",
        "transfer(address,uint256)": "531",
        "transferFrom(address,address,uint256)": "403"
      },
      "internal": {
        "_add(address,uint256)": "infinite",
        "_computeExtraTotalRewardPerPointSinceLastTime(uint256,uint256,uint256)": "259",
        "_computeRewardsEarned(uint256,uint256,uint256,uint256)": "304",
        "_enableGame(address,uint256)": "infinite",
        "_postUpgrade(contract IReward,struct RewardsGenerator.Config memory,address[] memory)": "infinite",
        "_remove(address,uint256)": "infinite",
        "_update(address)": "infinite",
        "_updateAccount(address,uint256)": "infinite",
        "_updateGlobal()": "infinite"
      }
    },
    "methodIdentifiers": {
      "REWARD()": "cab34c08",
      "add(address,uint256)": "f5d82b6b",
      "allowance(address,address)": "dd62ed3e",
      "approve(address,uint256)": "095ea7b3",
      "balanceOf(address)": "70a08231",
      "claimFixedRewards(address)": "066112f9",
      "claimSharedPoolRewards(address)": "ff1e03e9",
      "decimals()": "313ce567",
      "earnedFromFixedRate(address)": "a8671f6a",
      "earnedFromFixedRateMultipleAccounts(address[])": "7997f96d",
      "earnedFromPoolRate(address)": "b061963c",
      "earnedFromPoolRateMultipleAccounts(address[])": "59d431b3",
      "enableGame(address,uint256)": "16cf09f8",
      "getTotalRewardPerPointWithPrecision24()": "48483382",
      "move(address,address,uint256)": "bb35783b",
      "name()": "06fdde03",
      "postUpgrade(address,(uint256,uint256),address[])": "cee2960b",
      "remove(address,uint256)": "abe7f1ab",
      "symbol()": "95d89b41",
      "totalSupply()": "18160ddd",
      "transfer(address,uint256)": "a9059cbb",
      "transferFrom(address,address,uint256)": "23b872dd"
    }
  },
  "storageLayout": {
    "storage": [
      {
        "astId": 203,
        "contract": "src/token/RewardsGenerator.sol:RewardsGenerator",
        "label": "_global",
        "offset": 0,
        "slot": "0",
        "type": "t_struct(GlobalState)200_storage"
      },
      {
        "astId": 215,
        "contract": "src/token/RewardsGenerator.sol:RewardsGenerator",
        "label": "_sharedRateRewardPerAccount",
        "offset": 0,
        "slot": "1",
        "type": "t_mapping(t_address,t_struct(SharedRatePerAccount)210_storage)"
      },
      {
        "astId": 225,
        "contract": "src/token/RewardsGenerator.sol:RewardsGenerator",
        "label": "_fixedRateRewardPerAccount",
        "offset": 0,
        "slot": "2",
        "type": "t_mapping(t_address,t_struct(FixedRate)220_storage)"
      },
      {
        "astId": 229,
        "contract": "src/token/RewardsGenerator.sol:RewardsGenerator",
        "label": "_games",
        "offset": 0,
        "slot": "3",
        "type": "t_mapping(t_address,t_uint256)"
      },
      {
        "astId": 239,
        "contract": "src/token/RewardsGenerator.sol:RewardsGenerator",
        "label": "_init",
        "offset": 0,
        "slot": "4",
        "type": "t_bool"
      }
    ],
    "types": {
      "t_address": {
        "encoding": "inplace",
        "label": "address",
        "numberOfBytes": "20"
      },
      "t_bool": {
        "encoding": "inplace",
        "label": "bool",
        "numberOfBytes": "1"
      },
      "t_mapping(t_address,t_struct(FixedRate)220_storage)": {
        "encoding": "mapping",
        "key": "t_address",
        "label": "mapping(address => struct RewardsGenerator.FixedRate)",
        "numberOfBytes": "32",
        "value": "t_struct(FixedRate)220_storage"
      },
      "t_mapping(t_address,t_struct(SharedRatePerAccount)210_storage)": {
        "encoding": "mapping",
        "key": "t_address",
        "label": "mapping(address => struct RewardsGenerator.SharedRatePerAccount)",
        "numberOfBytes": "32",
        "value": "t_struct(SharedRatePerAccount)210_storage"
      },
      "t_mapping(t_address,t_uint256)": {
        "encoding": "mapping",
        "key": "t_address",
        "label": "mapping(address => uint256)",
        "numberOfBytes": "32",
        "value": "t_uint256"
      },
      "t_struct(FixedRate)220_storage": {
        "encoding": "inplace",
        "label": "struct RewardsGenerator.FixedRate",
        "members": [
          {
            "astId": 217,
            "contract": "src/token/RewardsGenerator.sol:RewardsGenerator",
            "label": "toWithdraw",
            "offset": 0,
            "slot": "0",
            "type": "t_uint112"
          },
          {
            "astId": 219,
            "contract": "src/token/RewardsGenerator.sol:RewardsGenerator",
            "label": "lastTime",
            "offset": 14,
            "slot": "0",
            "type": "t_uint40"
          }
        ],
        "numberOfBytes": "32"
      },
      "t_struct(GlobalState)200_storage": {
        "encoding": "inplace",
        "label": "struct RewardsGenerator.GlobalState",
        "members": [
          {
            "astId": 195,
            "contract": "src/token/RewardsGenerator.sol:RewardsGenerator",
            "label": "lastUpdateTime",
            "offset": 0,
            "slot": "0",
            "type": "t_uint40"
          },
          {
            "astId": 197,
            "contract": "src/token/RewardsGenerator.sol:RewardsGenerator",
            "label": "totalRewardPerPointAtLastUpdate",
            "offset": 5,
            "slot": "0",
            "type": "t_uint104"
          },
          {
            "astId": 199,
            "contract": "src/token/RewardsGenerator.sol:RewardsGenerator",
            "label": "totalPoints",
            "offset": 18,
            "slot": "0",
            "type": "t_uint112"
          }
        ],
        "numberOfBytes": "32"
      },
      "t_struct(SharedRatePerAccount)210_storage": {
        "encoding": "inplace",
        "label": "struct RewardsGenerator.SharedRatePerAccount",
        "members": [
          {
            "astId": 205,
            "contract": "src/token/RewardsGenerator.sol:RewardsGenerator",
            "label": "points",
            "offset": 0,
            "slot": "0",
            "type": "t_uint112"
          },
          {
            "astId": 207,
            "contract": "src/token/RewardsGenerator.sol:RewardsGenerator",
            "label": "totalRewardPerPointAccounted",
            "offset": 14,
            "slot": "0",
            "type": "t_uint104"
          },
          {
            "astId": 209,
            "contract": "src/token/RewardsGenerator.sol:RewardsGenerator",
            "label": "rewardsToWithdraw",
            "offset": 0,
            "slot": "1",
            "type": "t_uint112"
          }
        ],
        "numberOfBytes": "64"
      },
      "t_uint104": {
        "encoding": "inplace",
        "label": "uint104",
        "numberOfBytes": "13"
      },
      "t_uint112": {
        "encoding": "inplace",
        "label": "uint112",
        "numberOfBytes": "14"
      },
      "t_uint256": {
        "encoding": "inplace",
        "label": "uint256",
        "numberOfBytes": "32"
      },
      "t_uint40": {
        "encoding": "inplace",
        "label": "uint40",
        "numberOfBytes": "5"
      }
    }
  },
  "userdoc": {
    "errors": {
      "NonTransferable()": [
        {
          "notice": "Token cannot be transfered"
        }
      ],
      "NotAuthorized()": [
        {
          "notice": "Not authorized to perform this operation"
        }
      ]
    },
    "events": {
      "Approval(address,address,uint256)": {
        "notice": "trigger on approval amount being set.   Note that Transfer events need to be considered to compute the current allowance."
      },
      "Transfer(address,address,uint256)": {
        "notice": "trigger when tokens are transferred, including zero value transfers."
      }
    },
    "kind": "user",
    "methods": {
      "allowance(address,address)": {
        "notice": "Returns the amount which `spender` is still allowed to withdraw from `owner`."
      },
      "approve(address,uint256)": {
        "notice": "Allows `spender` to withdraw from your account multiple times, up to `amount`."
      },
      "balanceOf(address)": {
        "notice": "Returns the account balance of another account with address `owner`."
      },
      "claimFixedRewards(address)": {
        "notice": "claim the rewards earned so far using a fixed rate per point"
      },
      "claimSharedPoolRewards(address)": {
        "notice": "claim the rewards earned so far in the shared pool"
      },
      "decimals()": {
        "notice": "Returns the number of decimals the token uses."
      },
      "earnedFromFixedRate(address)": {
        "notice": "The amount of reward an account has accrued so far. Does not include already withdrawn rewards."
      },
      "earnedFromFixedRateMultipleAccounts(address[])": {
        "notice": "The amount of reward an account has accrued so far. Does not include already withdrawn rewards."
      },
      "earnedFromPoolRate(address)": {
        "notice": "The amount of reward an account has accrued so far. Does not include already withdrawn rewards."
      },
      "earnedFromPoolRateMultipleAccounts(address[])": {
        "notice": "The amount of reward an account has accrued so far. Does not include already withdrawn rewards."
      },
      "getTotalRewardPerPointWithPrecision24()": {
        "notice": "The amount of reward each point has earned so far"
      },
      "name()": {
        "notice": "Returns the name of the token."
      },
      "symbol()": {
        "notice": "Returns the symbol of the token."
      },
      "totalSupply()": {
        "notice": "Returns the total token supply."
      },
      "transfer(address,uint256)": {
        "notice": "Transfers `amount` of tokens to address `to`."
      },
      "transferFrom(address,address,uint256)": {
        "notice": "Transfers `amount` tokens from address `from` to address `to`."
      }
    },
    "version": 1
  },
  "argsData": "0x0000000000000000000000009370d088b7022593f550dfe8e7490207d8709a0800000000000000000000000061c461ecc993aadeb7e4b47e96d1b8cc37314b2000000000000000000000000000000000000000000000000000000000000000600000000000000000000000000000000000000000000000000000000000000000",
  "transaction": {
    "hash": "0xe20594762ba6e49ed6874f21ee256e247382a6379d5aa59b5c5d3e50c1b8c6a3",
    "nonce": "0x7",
    "origin": "0x61c461ecc993aadeb7e4b47e96d1b8cc37314b20"
  },
  "_format": "hh-sol-artifact-1"
}