{
  "address": "0x0db93e3529ec578e55e0013d2518ef5ab33d5739",
  "abi": [
    {
      "inputs": [
        {
          "internalType": "contract IReward",
          "name": "rewardAddress",
          "type": "address"
        },
        {
          "components": [
            {
              "internalType": "uint256",
              "name": "rewardRateMillionth",
              "type": "uint256"
            },
            {
              "internalType": "uint256",
              "name": "fixedRewardRateThousandsMillionth",
              "type": "uint256"
            }
          ],
          "internalType": "struct RewardsGenerator.Config",
          "name": "config",
          "type": "tuple"
        },
        {
          "internalType": "address[]",
          "name": "initialGames",
          "type": "address[]"
        }
      ],
      "stateMutability": "nonpayable",
      "type": "constructor"
    },
    {
      "inputs": [],
      "name": "NonTransferable",
      "type": "error"
    },
    {
      "inputs": [],
      "name": "NotAuthorized",
      "type": "error"
    },
    {
      "anonymous": false,
      "inputs": [
        {
          "indexed": true,
          "internalType": "address",
          "name": "account",
          "type": "address"
        },
        {
          "components": [
            {
              "internalType": "uint112",
              "name": "toWithdraw",
              "type": "uint112"
            },
            {
              "internalType": "uint40",
              "name": "lastTime",
              "type": "uint40"
            }
          ],
          "indexed": false,
          "internalType": "struct RewardsGenerator.FixedRatePerAccount",
          "name": "fixedRateStatus",
          "type": "tuple"
        }
      ],
      "name": "AccounFixedRewardUpdated",
      "type": "event"
    },
    {
      "anonymous": false,
      "inputs": [
        {
          "indexed": true,
          "internalType": "address",
          "name": "account",
          "type": "address"
        },
        {
          "components": [
            {
              "internalType": "uint112",
              "name": "points",
              "type": "uint112"
            },
            {
              "internalType": "uint104",
              "name": "totalRewardPerPointAccounted",
              "type": "uint104"
            },
            {
              "internalType": "uint112",
              "name": "rewardsToWithdraw",
              "type": "uint112"
            }
          ],
          "indexed": false,
          "internalType": "struct RewardsGenerator.SharedRatePerAccount",
          "name": "sharedRateStatus",
          "type": "tuple"
        },
        {
          "indexed": false,
          "internalType": "uint256",
          "name": "timestamp",
          "type": "uint256"
        }
      ],
      "name": "AccountSharedRewardUpdated",
      "type": "event"
    },
    {
      "anonymous": false,
      "inputs": [
        {
          "indexed": true,
          "internalType": "address",
          "name": "owner",
          "type": "address"
        },
        {
          "indexed": true,
          "internalType": "address",
          "name": "spender",
          "type": "address"
        },
        {
          "indexed": false,
          "internalType": "uint256",
          "name": "value",
          "type": "uint256"
        }
      ],
      "name": "Approval",
      "type": "event"
    },
    {
      "anonymous": false,
      "inputs": [
        {
          "indexed": true,
          "internalType": "address",
          "name": "game",
          "type": "address"
        },
        {
          "indexed": false,
          "internalType": "uint256",
          "name": "weight",
          "type": "uint256"
        },
        {
          "indexed": false,
          "internalType": "uint256",
          "name": "timestamp",
          "type": "uint256"
        }
      ],
      "name": "GameEnabled",
      "type": "event"
    },
    {
      "anonymous": false,
      "inputs": [
        {
          "components": [
            {
              "internalType": "uint40",
              "name": "lastUpdateTime",
              "type": "uint40"
            },
            {
              "internalType": "uint104",
              "name": "totalRewardPerPointAtLastUpdate",
              "type": "uint104"
            },
            {
              "internalType": "uint112",
              "name": "totalPoints",
              "type": "uint112"
            }
          ],
          "indexed": false,
          "internalType": "struct RewardsGenerator.GlobalState",
          "name": "globalStatus",
          "type": "tuple"
        }
      ],
      "name": "GlobalRewardUpdated",
      "type": "event"
    },
    {
      "anonymous": false,
      "inputs": [
        {
          "indexed": true,
          "internalType": "address",
          "name": "from",
          "type": "address"
        },
        {
          "indexed": true,
          "internalType": "address",
          "name": "to",
          "type": "address"
        },
        {
          "indexed": false,
          "internalType": "uint256",
          "name": "value",
          "type": "uint256"
        }
      ],
      "name": "Transfer",
      "type": "event"
    },
    {
      "inputs": [
        {
          "internalType": "address",
          "name": "account",
          "type": "address"
        },
        {
          "internalType": "uint256",
          "name": "amount",
          "type": "uint256"
        }
      ],
      "name": "add",
      "outputs": [],
      "stateMutability": "nonpayable",
      "type": "function"
    },
    {
      "inputs": [
        {
          "internalType": "address",
          "name": "",
          "type": "address"
        },
        {
          "internalType": "address",
          "name": "",
          "type": "address"
        }
      ],
      "name": "allowance",
      "outputs": [
        {
          "internalType": "uint256",
          "name": "",
          "type": "uint256"
        }
      ],
      "stateMutability": "pure",
      "type": "function"
    },
    {
      "inputs": [
        {
          "internalType": "address",
          "name": "",
          "type": "address"
        },
        {
          "internalType": "uint256",
          "name": "",
          "type": "uint256"
        }
      ],
      "name": "approve",
      "outputs": [
        {
          "internalType": "bool",
          "name": "",
          "type": "bool"
        }
      ],
      "stateMutability": "pure",
      "type": "function"
    },
    {
      "inputs": [
        {
          "internalType": "address",
          "name": "owner",
          "type": "address"
        }
      ],
      "name": "balanceOf",
      "outputs": [
        {
          "internalType": "uint256",
          "name": "",
          "type": "uint256"
        }
      ],
      "stateMutability": "view",
      "type": "function"
    },
    {
      "inputs": [
        {
          "internalType": "address",
          "name": "to",
          "type": "address"
        }
      ],
      "name": "claimFixedRewards",
      "outputs": [],
      "stateMutability": "nonpayable",
      "type": "function"
    },
    {
      "inputs": [
        {
          "internalType": "address",
          "name": "to",
          "type": "address"
        }
      ],
      "name": "claimSharedPoolRewards",
      "outputs": [],
      "stateMutability": "nonpayable",
      "type": "function"
    },
    {
      "inputs": [],
      "name": "decimals",
      "outputs": [
        {
          "internalType": "uint8",
          "name": "",
          "type": "uint8"
        }
      ],
      "stateMutability": "pure",
      "type": "function"
    },
    {
      "inputs": [
        {
          "internalType": "address",
          "name": "account",
          "type": "address"
        }
      ],
      "name": "earnedFromFixedRate",
      "outputs": [
        {
          "internalType": "uint256",
          "name": "",
          "type": "uint256"
        }
      ],
      "stateMutability": "view",
      "type": "function"
    },
    {
      "inputs": [
        {
          "internalType": "address[]",
          "name": "accounts",
          "type": "address[]"
        }
      ],
      "name": "earnedFromFixedRateMultipleAccounts",
      "outputs": [
        {
          "internalType": "uint256[]",
          "name": "result",
          "type": "uint256[]"
        }
      ],
      "stateMutability": "view",
      "type": "function"
    },
    {
      "inputs": [
        {
          "internalType": "address",
          "name": "account",
          "type": "address"
        }
      ],
      "name": "earnedFromPoolRate",
      "outputs": [
        {
          "internalType": "uint256",
          "name": "",
          "type": "uint256"
        }
      ],
      "stateMutability": "view",
      "type": "function"
    },
    {
      "inputs": [
        {
          "internalType": "address[]",
          "name": "accounts",
          "type": "address[]"
        }
      ],
      "name": "earnedFromPoolRateMultipleAccounts",
      "outputs": [
        {
          "internalType": "uint256[]",
          "name": "result",
          "type": "uint256[]"
        }
      ],
      "stateMutability": "view",
      "type": "function"
    },
    {
      "inputs": [
        {
          "internalType": "address",
          "name": "game",
          "type": "address"
        },
        {
          "internalType": "uint256",
          "name": "weight",
          "type": "uint256"
        }
      ],
      "name": "enableGame",
      "outputs": [],
      "stateMutability": "nonpayable",
      "type": "function"
    },
    {
      "inputs": [
        {
          "internalType": "address",
          "name": "game",
          "type": "address"
        }
      ],
      "name": "games",
      "outputs": [
        {
          "internalType": "uint256",
          "name": "weight",
          "type": "uint256"
        }
      ],
      "stateMutability": "view",
      "type": "function"
    },
    {
      "inputs": [],
      "name": "getTotalRewardPerPointWithPrecision24",
      "outputs": [
        {
          "internalType": "uint256",
          "name": "",
          "type": "uint256"
        }
      ],
      "stateMutability": "view",
      "type": "function"
    },
    {
      "inputs": [],
      "name": "global",
      "outputs": [
        {
          "components": [
            {
              "internalType": "uint40",
              "name": "lastUpdateTime",
              "type": "uint40"
            },
            {
              "internalType": "uint104",
              "name": "totalRewardPerPointAtLastUpdate",
              "type": "uint104"
            },
            {
              "internalType": "uint112",
              "name": "totalPoints",
              "type": "uint112"
            }
          ],
          "internalType": "struct RewardsGenerator.GlobalState",
          "name": "",
          "type": "tuple"
        }
      ],
      "stateMutability": "view",
      "type": "function"
    },
    {
      "inputs": [
        {
          "internalType": "address",
          "name": "from",
          "type": "address"
        },
        {
          "internalType": "address",
          "name": "to",
          "type": "address"
        },
        {
          "internalType": "uint256",
          "name": "amount",
          "type": "uint256"
        }
      ],
      "name": "move",
      "outputs": [],
      "stateMutability": "nonpayable",
      "type": "function"
    },
    {
      "inputs": [],
      "name": "name",
      "outputs": [
        {
          "internalType": "string",
          "name": "",
          "type": "string"
        }
      ],
      "stateMutability": "pure",
      "type": "function"
    },
    {
      "inputs": [
        {
          "internalType": "contract IReward",
          "name": "rewardAddress",
          "type": "address"
        },
        {
          "components": [
            {
              "internalType": "uint256",
              "name": "rewardRateMillionth",
              "type": "uint256"
            },
            {
              "internalType": "uint256",
              "name": "fixedRewardRateThousandsMillionth",
              "type": "uint256"
            }
          ],
          "internalType": "struct RewardsGenerator.Config",
          "name": "config",
          "type": "tuple"
        },
        {
          "internalType": "address[]",
          "name": "initialGames",
          "type": "address[]"
        }
      ],
      "name": "postUpgrade",
      "outputs": [],
      "stateMutability": "nonpayable",
      "type": "function"
    },
    {
      "inputs": [
        {
          "internalType": "address",
          "name": "account",
          "type": "address"
        },
        {
          "internalType": "uint256",
          "name": "amount",
          "type": "uint256"
        }
      ],
      "name": "remove",
      "outputs": [],
      "stateMutability": "nonpayable",
      "type": "function"
    },
    {
      "inputs": [],
      "name": "symbol",
      "outputs": [
        {
          "internalType": "string",
          "name": "",
          "type": "string"
        }
      ],
      "stateMutability": "pure",
      "type": "function"
    },
    {
      "inputs": [],
      "name": "totalSupply",
      "outputs": [
        {
          "internalType": "uint256",
          "name": "",
          "type": "uint256"
        }
      ],
      "stateMutability": "view",
      "type": "function"
    },
    {
      "inputs": [
        {
          "internalType": "address",
          "name": "",
          "type": "address"
        },
        {
          "internalType": "uint256",
          "name": "",
          "type": "uint256"
        }
      ],
      "name": "transfer",
      "outputs": [
        {
          "internalType": "bool",
          "name": "",
          "type": "bool"
        }
      ],
      "stateMutability": "pure",
      "type": "function"
    },
    {
      "inputs": [
        {
          "internalType": "address",
          "name": "",
          "type": "address"
        },
        {
          "internalType": "address",
          "name": "",
          "type": "address"
        },
        {
          "internalType": "uint256",
          "name": "",
          "type": "uint256"
        }
      ],
      "name": "transferFrom",
      "outputs": [
        {
          "internalType": "bool",
          "name": "",
          "type": "bool"
        }
      ],
      "stateMutability": "pure",
      "type": "function"
    },
    {
      "inputs": [],
      "name": "update",
      "outputs": [],
      "stateMutability": "nonpayable",
      "type": "function"
    }
  ],
  "contractName": "RewardsGenerator",
  "sourceName": "src/token/RewardsGenerator.sol",
  "linkReferences": {},
  "deployedLinkReferences": {},
  "devdoc": {
    "events": {
      "Approval(address,address,uint256)": {
        "params": {
          "owner": "the account approving the `spender`",
          "spender": "the account allowed to spend",
          "value": "the amount granted"
        }
      },
      "Transfer(address,address,uint256)": {
        "params": {
          "from": "the account the tokens are sent from",
          "to": "the account the tokens are sent to",
          "value": "number of tokens sent"
        }
      }
    },
    "kind": "dev",
    "methods": {
      "claimFixedRewards(address)": {
        "params": {
          "to": "address to send the reward to"
        }
      },
      "claimSharedPoolRewards(address)": {
        "params": {
          "to": "address to send the reward to"
        }
      },
      "earnedFromFixedRate(address)": {
        "params": {
          "account": "address to query about"
        }
      },
      "earnedFromFixedRateMultipleAccounts(address[])": {
        "params": {
          "accounts": "list of address to query about"
        }
      },
      "earnedFromPoolRate(address)": {
        "params": {
          "account": "address to query about"
        }
      },
      "earnedFromPoolRateMultipleAccounts(address[])": {
        "params": {
          "accounts": "list of address to query about"
        }
      },
      "enableGame(address,uint256)": {
        "params": {
          "game": "the contract that is allowed to call in",
          "weight": "(not implemented, act as boolean for now) (0 disable the game)"
        }
      },
      "games(address)": {
        "params": {
          "game": "the contract to query about"
        },
        "returns": {
          "weight": "the weight of the game (not implemented, act as boolean for now)"
        }
      }
    },
    "version": 1
  },
  "evm": {
    "bytecode": {
      "linkReferences": {},
      "object": "604060e0815234620001cf5762001dac803803806200001e81620001ea565b92833981019080820360808112620001cf578151916001600160a01b03908184168403620001cf5785602093601f190112620001cf5785516001600160401b039481880186811183821017620001d45788528483015182528783015192858301938452606081015190878211620001cf57019680601f89011215620001cf578751968711620001d4576005978760051b908780620000be818501620001ea565b809b81520192820101928311620001cf578701905b828210620001b55750505060c052516080525160a05260009260ff8454161562000137575b8551611b9b9081620002118239608051818181610b3e01528181611497015261155c015260a05181611400015260c05181818161017a0152610da90152f35b835b81518110156200019957808385600193891b8501015116808752600486527f50b08f8489c009db3c1b3f160cc0dae1c0c6706774750c001e4c083f9483d5f389670de0b6b3a764000080828b205581519081524289820152a20162000139565b505050509050600160ff198254161790553880808080620000f8565b81518781168103620001cf578152908701908701620000d3565b600080fd5b634e487b7160e01b600052604160045260246000fd5b6040519190601f01601f191682016001600160401b03811183821017620001d45760405256fe6080604081815260048036101561001557600080fd5b600092833560e01c908163066112f914610d575750806306fdde0314610ce4578063095ea7b3146107c357806316cf09f814610c2457806318160ddd14610be457806323b872dd14610baa578063313ce56714610b705780634848338214610aea57806359d431b314610a9657806370a0823114610a2457806379131a19146109c45780637997f96d1461096b57806395d89b41146108f4578063a05f990614610848578063a2e620451461080c578063a8671f6a146107c8578063a9059cbb146107c3578063abe7f1ab1461076e578063b061963c14610723578063bb35783b146106e9578063cee2960b146104cc578063dd62ed3e14610463578063f5d82b6b146103e55763ff1e03e91461012b57600080fd5b346103e15760207ffffffffffffffffffffffffffffffffffffffffffffffffffffffffffffffffc3601126103e157610162610f47565b9073ffffffffffffffffffffffffffffffffffffffff7f00000000000000000000000000000000000000000000000000000000000000001680156103b9579084929133845260026020526dffffffffffffffffffffffffffff9081868620541661025d6102026101d0611522565b9390503389526002602052838a8a20916cffffffffffffffffffffffffff97600189855460701c1694015416926117d2565b933388526002602052888820921682907fffffffffff00000000000000000000000000ffffffffffffffffffffffffffff7affffffffffffffffffffffffff000000000000000000000000000083549260701b169116179055565b826102eb575b858733825260026020527f5c0f9500e53293dfb7fc76f0336cfb82b44723af4b6cc4f9d36eeaf0a1054d4e8183209151806102e5339442908360609093929193608081019460018154916cffffffffffffffffffffffffff6dffffffffffffffffffffffffffff93848116865260701c16602085015201541660408201520152565b0390a280f35b6001017fffffffffffffffffffffffffffffffffffff00000000000000000000000000008154169055803b156103b557610378938580948851968795869485937f21670f2200000000000000000000000000000000000000000000000000000000855284016020909392919373ffffffffffffffffffffffffffffffffffffffff60408201951681520152565b03925af180156103a857610390575b80808080610263565b61039990611139565b6103a4578138610387565b5080fd5b50505051903d90823e3d90fd5b8480fd5b5082517fea8e4eb5000000000000000000000000000000000000000000000000000000008152fd5b8280fd5b50346103e157817ffffffffffffffffffffffffffffffffffffffffffffffffffffffffffffffffc3601126103e15761041c610f47565b9133845281602052808420541561043d578361043a60243585611813565b80f35b517fea8e4eb5000000000000000000000000000000000000000000000000000000008152fd5b8284346104c957817ffffffffffffffffffffffffffffffffffffffffffffffffffffffffffffffffc3601126104c95761049b610f47565b5060243573ffffffffffffffffffffffffffffffffffffffff8116036104c45760209151908152f35b600080fd5b80fd5b508290346103a45760807ffffffffffffffffffffffffffffffffffffffffffffffffffffffffffffffffc3601126103a45773ffffffffffffffffffffffffffffffffffffffff8135818116036103e157837fffffffffffffffffffffffffffffffffffffffffffffffffffffffffffffffdc3601126103e15783519067ffffffffffffffff828601818111848210176106bb57865260243583526044356020938401526064359081116103b557366023820112156103b5578084013590610593826111f5565b916105a0885193846111b4565b80835260248584019160051b830101913683116106b757602401905b82821061069f575050506105f4827fb53127684a568b3173ae13b9f8a6016e243e63b6e8ee1178d6a717850b5d61035416331461120d565b60ff85541615610602578480f35b845b815181101561066657808361061b6001938561135d565b5116806000528686527f50b08f8489c009db3c1b3f160cc0dae1c0c6706774750c001e4c083f9483d5f389670de0b6b3a764000080826000205581519081524289820152a201610604565b5050505050905060017fffffffffffffffffffffffffffffffffffffffffffffffffffffffffffffff0082541617815580828080808480f35b813585811681036104c45781529085019085016105bc565b8780fd5b6041857f4e487b71000000000000000000000000000000000000000000000000000000006000525260246000fd5b508290346103a4576106fa36611032565b9290919433855281602052808520541561043d57505061071e8261043a9495611600565b611813565b5050346103a45760207ffffffffffffffffffffffffffffffffffffffffffffffffffffffffffffffffc3601126103a457602090610767610762610f47565b61143a565b9051908152f35b50346103e157817ffffffffffffffffffffffffffffffffffffffffffffffffffffffffffffffffc3601126103e1576107a5610f47565b9133845281602052808420541561043d578361043a60243585611600565b610fd0565b5050346103a45760207ffffffffffffffffffffffffffffffffffffffffffffffffffffffffffffffffc3601126103a457602090610767610807610f47565b611391565b83346104c957807ffffffffffffffffffffffffffffffffffffffffffffffffffffffffffffffffc3601126104c957610843611522565b505080f35b5050346103a457817ffffffffffffffffffffffffffffffffffffffffffffffffffffffffffffffffc3601126103a4576060918180516108878161117c565b828152826020820152015280519061089e8261117c565b6dffffffffffffffffffffffffffff60015464ffffffffff8116938481526cffffffffffffffffffffffffff90846020820191838560281c168352019260901c8352845195865251166020850152511690820152f35b5050346103a457817ffffffffffffffffffffffffffffffffffffffffffffffffffffffffffffffffc3601126103a45780516109679161093382611198565b600582527f504f494e5400000000000000000000000000000000000000000000000000000060208301525191829182610f6a565b0390f35b8284346104c95761097b36611092565b610984816112ae565b925b81811061099a5784518061096786826110fd565b806109b36108076109ae60019486886112fd565b61133c565b6109bd828761135d565b5201610986565b50346103e15760207ffffffffffffffffffffffffffffffffffffffffffffffffffffffffffffffffc3601126103e157602092829173ffffffffffffffffffffffffffffffffffffffff610a16610f47565b168252845220549051908152f35b5050346103a45760207ffffffffffffffffffffffffffffffffffffffffffffffffffffffffffffffffc3601126103a4576dffffffffffffffffffffffffffff8160209373ffffffffffffffffffffffffffffffffffffffff610a85610f47565b168152600285522054169051908152f35b8284346104c957610aa636611092565b610aaf816112ae565b925b818110610ac55784518061096786826110fd565b80610ad96107626109ae60019486886112fd565b610ae3828761135d565b5201610ab1565b5050346103a457817ffffffffffffffffffffffffffffffffffffffffffffffffffffffffffffffffc3601126103a4576020906107676001546cffffffffffffffffffffffffff610b6664ffffffffff83167f00000000000000000000000000000000000000000000000000000000000000008460901c6114e0565b9160281c16611272565b5050346103a457817ffffffffffffffffffffffffffffffffffffffffffffffffffffffffffffffffc3601126103a4576020905160128152f35b5091346104c95750610bbb36611032565b505050517f9cbe2357000000000000000000000000000000000000000000000000000000008152fd5b5050346103a457817ffffffffffffffffffffffffffffffffffffffffffffffffffffffffffffffffc3601126103a45760209060015460901c9051908152f35b5090346103e157807ffffffffffffffffffffffffffffffffffffffffffffffffffffffffffffffffc3601126103e1577f50b08f8489c009db3c1b3f160cc0dae1c0c6706774750c001e4c083f9483d5f390610c7e610f47565b6024359073ffffffffffffffffffffffffffffffffffffffff90610cc6827fb53127684a568b3173ae13b9f8a6016e243e63b6e8ee1178d6a717850b5d61035416331461120d565b1693846000526020528082600020558151908152426020820152a280f35b5050346103a457817ffffffffffffffffffffffffffffffffffffffffffffffffffffffffffffffffc3601126103a457805161096791610d2382611198565b600682527f506f696e7473000000000000000000000000000000000000000000000000000060208301525191829182610f6a565b84929150346103e15760207ffffffffffffffffffffffffffffffffffffffffffffffffffffffffffffffffc3601126103e157610d92610f47565b73ffffffffffffffffffffffffffffffffffffffff7f000000000000000000000000000000000000000000000000000000000000000016918215610f205750610dda33611391565b9283610e45575b848633825260036020527f990d7fa8d559abc572e9491e8330c9707b02acdb2e054411b3e9a0498f7c70e88183209151806102e5339482919091602064ffffffffff6040830194546dffffffffffffffffffffffffffff8116845260701c16910152565b338552600360205285852080547fffffffffffffffffffffffffff000000000000000000000000000000000000001672ffffffffff00000000000000000000000000004260701b16179055823b156103b55785517f21670f2200000000000000000000000000000000000000000000000000000000815273ffffffffffffffffffffffffffffffffffffffff9092169082019081526020810193909352918391839182908490829060400103925af18015610f1657610f07575b808080610de1565b610f1090611139565b82610eff565b83513d84823e3d90fd5b807fea8e4eb500000000000000000000000000000000000000000000000000000000859252fd5b6004359073ffffffffffffffffffffffffffffffffffffffff821682036104c457565b60208082528251818301819052939260005b858110610fbc575050507fffffffffffffffffffffffffffffffffffffffffffffffffffffffffffffffe0601f8460006040809697860101520116010190565b818101830151848201604001528201610f7c565b346104c45760407ffffffffffffffffffffffffffffffffffffffffffffffffffffffffffffffffc3601126104c457611007610f47565b5060046040517f9cbe2357000000000000000000000000000000000000000000000000000000008152fd5b7ffffffffffffffffffffffffffffffffffffffffffffffffffffffffffffffffc60609101126104c45773ffffffffffffffffffffffffffffffffffffffff9060043582811681036104c4579160243590811681036104c4579060443590565b9060207ffffffffffffffffffffffffffffffffffffffffffffffffffffffffffffffffc8301126104c45760043567ffffffffffffffff928382116104c457806023830112156104c45781600401359384116104c45760248460051b830101116104c4576024019190565b602090602060408183019282815285518094520193019160005b828110611125575050505090565b835185529381019392810192600101611117565b67ffffffffffffffff811161114d57604052565b7f4e487b7100000000000000000000000000000000000000000000000000000000600052604160045260246000fd5b6060810190811067ffffffffffffffff82111761114d57604052565b6040810190811067ffffffffffffffff82111761114d57604052565b90601f7fffffffffffffffffffffffffffffffffffffffffffffffffffffffffffffffe0910116810190811067ffffffffffffffff82111761114d57604052565b67ffffffffffffffff811161114d5760051b60200190565b1561121457565b60646040517f08c379a000000000000000000000000000000000000000000000000000000000815260206004820152600e60248201527f4e4f545f415554484f52495a45440000000000000000000000000000000000006044820152fd5b9190820180921161127f57565b7f4e487b7100000000000000000000000000000000000000000000000000000000600052601160045260246000fd5b906112b8826111f5565b6112c560405191826111b4565b8281527fffffffffffffffffffffffffffffffffffffffffffffffffffffffffffffffe06112f382946111f5565b0190602036910137565b919081101561130d5760051b0190565b7f4e487b7100000000000000000000000000000000000000000000000000000000600052603260045260246000fd5b3573ffffffffffffffffffffffffffffffffffffffff811681036104c45790565b805182101561130d5760209160051b010190565b9190820391821161127f57565b8181029291811591840414171561127f57565b73ffffffffffffffffffffffffffffffffffffffff61143791166000818152600360205260406113ce64ffffffffff8284205460701c1642611371565b918381526002602052633b9aca006114256113fe6dffffffffffffffffffffffffffff958686862054169061137e565b7f00000000000000000000000000000000000000000000000000000000000000009061137e565b04938152600360205220541690611272565b90565b73ffffffffffffffffffffffffffffffffffffffff6114379116806000526002602052604060002054906cffffffffffffffffffffffffff916dffffffffffffffffffffffffffff926114bf60015482610b6664ffffffffff83167f00000000000000000000000000000000000000000000000000000000000000008460901c6114e0565b92600052600260205283600160406000200154169382169160701c166117d2565b9190821561151a576114f56114fa9242611371565b61137e565b69d3c21bcecceda10000009081810291818304149015171561127f570490565b505050600090565b6001548060901c917fbfc9024f8ea3d8400f13d1abeffc5754eddee8b8ee97b2d8ea4ec1f2fe52156a606064ffffffffff936115818582167f0000000000000000000000000000000000000000000000000000000000000000886114e0565b61159e6cffffffffffffffffffffffffff91828460281c16611272565b95421680927fffffffffffffffffffffffffffff00000000000000000000000000000000000071ffffffffffffffffffffffffff00000000008960281b169116171790816001556040519283528160281c16602083015260901c6040820152a1565b9080156117ce576117c97f990d7fa8d559abc572e9491e8330c9707b02acdb2e054411b3e9a0498f7c70e89173ffffffffffffffffffffffffffffffffffffffff61164a8561199d565b959071ffffffffffffffffffffffffffffffffffff7fffffffffffffffffffffffffffff00000000000000000000000000000000000085600154930360901b1691161760015516936000858152600260205280867fddf252ad1be2c89b69c2b068fc378daa952ba7f163c4a11628f55a4df523b3ef602060409687966dffffffffffffffffffffffffffff828988209203167fffffffffffffffffffffffffffffffffffff00000000000000000000000000008254161790558651908152a38581526002602052857f5c0f9500e53293dfb7fc76f0336cfb82b44723af4b6cc4f9d36eeaf0a1054d4e61178a848420855191829142908360609093929193608081019460018154916cffffffffffffffffffffffffff6dffffffffffffffffffffffffffff93848116865260701c16602085015201541660408201520152565b0390a2858152600360205220905191829182919091602064ffffffffff6040830194546dffffffffffffffffffffffffffff8116845260701c16910152565b0390a2565b5050565b6117df906117e593611371565b9061137e565b9064e8d4a510009182810292818404149015171561127f5769d3c21bcecceda1000000611437920490611272565b9080156117ce576117c97f990d7fa8d559abc572e9491e8330c9707b02acdb2e054411b3e9a0498f7c70e89173ffffffffffffffffffffffffffffffffffffffff61185d8561199d565b959071ffffffffffffffffffffffffffffffffffff7fffffffffffffffffffffffffffff00000000000000000000000000000000000085600154930160901b1691161760015516936000858152600260205285817fddf252ad1be2c89b69c2b068fc378daa952ba7f163c4a11628f55a4df523b3ef602060409687966dffffffffffffffffffffffffffff828987209201167fffffffffffffffffffffffffffffffffffff00000000000000000000000000008254161790558651908152a38581526002602052857f5c0f9500e53293dfb7fc76f0336cfb82b44723af4b6cc4f9d36eeaf0a1054d4e61178a848420855191829142908360609093929193608081019460018154916cffffffffffffffffffffffffff6dffffffffffffffffffffffffffff93848116865260701c16602085015201541660408201520152565b9073ffffffffffffffffffffffffffffffffffffffff916119bc611522565b9390911660009080825260026020526001611a11611a99604085209788546dffffffffffffffffffffffffffff93818386809416809d856cffffffffffffffffffffffffff9a8b920154169360701c166117d2565b169385875260026020526040872091600183017fffffffffffffffffffffffffffffffffffff00000000000000000000000000009687825416179055167fffffffffff00000000000000000000000000ffffffffffffffffffffffffffff7affffffffffffffffffffffffff000000000000000000000000000083549260701b169116179055565b600360205264ffffffffff93633b9aca00611ac46113fe8a6114f589604087205460701c1642611371565b049381526003602052611b1c6040822095421686907fffffffffffffffffffffffffff0000000000ffffffffffffffffffffffffffff72ffffffffff000000000000000000000000000083549260701b169116179055565b81855494168285160190828211611b3857501691161790559190565b807f4e487b7100000000000000000000000000000000000000000000000000000000602492526011600452fdfea2646970667358221220979da83db8f12f5c656ede9ff67f63e93140298b1be1d4904b3b9f2469658db864736f6c63430008180033",
      "opcodes": "PUSH1 0x40 PUSH1 0xE0 DUP2 MSTORE CALLVALUE PUSH3 0x1CF JUMPI PUSH3 0x1DAC DUP1 CODESIZE SUB DUP1 PUSH3 0x1E DUP2 PUSH3 0x1EA JUMP JUMPDEST SWAP3 DUP4 CODECOPY DUP2 ADD SWAP1 DUP1 DUP3 SUB PUSH1 0x80 DUP2 SLT PUSH3 0x1CF JUMPI DUP2 MLOAD SWAP2 PUSH1 0x1 PUSH1 0x1 PUSH1 0xA0 SHL SUB SWAP1 DUP2 DUP5 AND DUP5 SUB PUSH3 0x1CF JUMPI DUP6 PUSH1 0x20 SWAP4 PUSH1 0x1F NOT ADD SLT PUSH3 0x1CF JUMPI DUP6 MLOAD PUSH1 0x1 PUSH1 0x1 PUSH1 0x40 SHL SUB SWAP5 DUP2 DUP9 ADD DUP7 DUP2 GT DUP4 DUP3 LT OR PUSH3 0x1D4 JUMPI DUP9 MSTORE DUP5 DUP4 ADD MLOAD DUP3 MSTORE DUP8 DUP4 ADD MLOAD SWAP3 DUP6 DUP4 ADD SWAP4 DUP5 MSTORE PUSH1 0x60 DUP2 ADD MLOAD SWAP1 DUP8 DUP3 GT PUSH3 0x1CF JUMPI ADD SWAP7 DUP1 PUSH1 0x1F DUP10 ADD SLT ISZERO PUSH3 0x1CF JUMPI DUP8 MLOAD SWAP7 DUP8 GT PUSH3 0x1D4 JUMPI PUSH1 0x5 SWAP8 DUP8 PUSH1 0x5 SHL SWAP1 DUP8 DUP1 PUSH3 0xBE DUP2 DUP6 ADD PUSH3 0x1EA JUMP JUMPDEST DUP1 SWAP12 DUP2 MSTORE ADD SWAP3 DUP3 ADD ADD SWAP3 DUP4 GT PUSH3 0x1CF JUMPI DUP8 ADD SWAP1 JUMPDEST DUP3 DUP3 LT PUSH3 0x1B5 JUMPI POP POP POP PUSH1 0xC0 MSTORE MLOAD PUSH1 0x80 MSTORE MLOAD PUSH1 0xA0 MSTORE PUSH1 0x0 SWAP3 PUSH1 0xFF DUP5 SLOAD AND ISZERO PUSH3 0x137 JUMPI JUMPDEST DUP6 MLOAD PUSH2 0x1B9B SWAP1 DUP2 PUSH3 0x211 DUP3 CODECOPY PUSH1 0x80 MLOAD DUP2 DUP2 DUP2 PUSH2 0xB3E ADD MSTORE DUP2 DUP2 PUSH2 0x1497 ADD MSTORE PUSH2 0x155C ADD MSTORE PUSH1 0xA0 MLOAD DUP2 PUSH2 0x1400 ADD MSTORE PUSH1 0xC0 MLOAD DUP2 DUP2 DUP2 PUSH2 0x17A ADD MSTORE PUSH2 0xDA9 ADD MSTORE RETURN JUMPDEST DUP4 JUMPDEST DUP2 MLOAD DUP2 LT ISZERO PUSH3 0x199 JUMPI DUP1 DUP4 DUP6 PUSH1 0x1 SWAP4 DUP10 SHL DUP6 ADD ADD MLOAD AND DUP1 DUP8 MSTORE PUSH1 0x4 DUP7 MSTORE PUSH32 0x50B08F8489C009DB3C1B3F160CC0DAE1C0C6706774750C001E4C083F9483D5F3 DUP10 PUSH8 0xDE0B6B3A7640000 DUP1 DUP3 DUP12 KECCAK256 SSTORE DUP2 MLOAD SWAP1 DUP2 MSTORE TIMESTAMP DUP10 DUP3 ADD MSTORE LOG2 ADD PUSH3 0x139 JUMP JUMPDEST POP POP POP POP SWAP1 POP PUSH1 0x1 PUSH1 0xFF NOT DUP3 SLOAD AND OR SWAP1 SSTORE CODESIZE DUP1 DUP1 DUP1 DUP1 PUSH3 0xF8 JUMP JUMPDEST DUP2 MLOAD DUP8 DUP2 AND DUP2 SUB PUSH3 0x1CF JUMPI DUP2 MSTORE SWAP1 DUP8 ADD SWAP1 DUP8 ADD PUSH3 0xD3 JUMP JUMPDEST PUSH1 0x0 DUP1 REVERT JUMPDEST PUSH4 0x4E487B71 PUSH1 0xE0 SHL PUSH1 0x0 MSTORE PUSH1 0x41 PUSH1 0x4 MSTORE PUSH1 0x24 PUSH1 0x0 REVERT JUMPDEST PUSH1 0x40 MLOAD SWAP2 SWAP1 PUSH1 0x1F ADD PUSH1 0x1F NOT AND DUP3 ADD PUSH1 0x1 PUSH1 0x1 PUSH1 0x40 SHL SUB DUP2 GT DUP4 DUP3 LT OR PUSH3 0x1D4 JUMPI PUSH1 0x40 MSTORE JUMP INVALID PUSH1 0x80 PUSH1 0x40 DUP2 DUP2 MSTORE PUSH1 0x4 DUP1 CALLDATASIZE LT ISZERO PUSH2 0x15 JUMPI PUSH1 0x0 DUP1 REVERT JUMPDEST PUSH1 0x0 SWAP3 DUP4 CALLDATALOAD PUSH1 0xE0 SHR SWAP1 DUP2 PUSH4 0x66112F9 EQ PUSH2 0xD57 JUMPI POP DUP1 PUSH4 0x6FDDE03 EQ PUSH2 0xCE4 JUMPI DUP1 PUSH4 0x95EA7B3 EQ PUSH2 0x7C3 JUMPI DUP1 PUSH4 0x16CF09F8 EQ PUSH2 0xC24 JUMPI DUP1 PUSH4 0x18160DDD EQ PUSH2 0xBE4 JUMPI DUP1 PUSH4 0x23B872DD EQ PUSH2 0xBAA JUMPI DUP1 PUSH4 0x313CE567 EQ PUSH2 0xB70 JUMPI DUP1 PUSH4 0x48483382 EQ PUSH2 0xAEA JUMPI DUP1 PUSH4 0x59D431B3 EQ PUSH2 0xA96 JUMPI DUP1 PUSH4 0x70A08231 EQ PUSH2 0xA24 JUMPI DUP1 PUSH4 0x79131A19 EQ PUSH2 0x9C4 JUMPI DUP1 PUSH4 0x7997F96D EQ PUSH2 0x96B JUMPI DUP1 PUSH4 0x95D89B41 EQ PUSH2 0x8F4 JUMPI DUP1 PUSH4 0xA05F9906 EQ PUSH2 0x848 JUMPI DUP1 PUSH4 0xA2E62045 EQ PUSH2 0x80C JUMPI DUP1 PUSH4 0xA8671F6A EQ PUSH2 0x7C8 JUMPI DUP1 PUSH4 0xA9059CBB EQ PUSH2 0x7C3 JUMPI DUP1 PUSH4 0xABE7F1AB EQ PUSH2 0x76E JUMPI DUP1 PUSH4 0xB061963C EQ PUSH2 0x723 JUMPI DUP1 PUSH4 0xBB35783B EQ PUSH2 0x6E9 JUMPI DUP1 PUSH4 0xCEE2960B EQ PUSH2 0x4CC JUMPI DUP1 PUSH4 0xDD62ED3E EQ PUSH2 0x463 JUMPI DUP1 PUSH4 0xF5D82B6B EQ PUSH2 0x3E5 JUMPI PUSH4 0xFF1E03E9 EQ PUSH2 0x12B JUMPI PUSH1 0x0 DUP1 REVERT JUMPDEST CALLVALUE PUSH2 0x3E1 JUMPI PUSH1 0x20 PUSH32 0xFFFFFFFFFFFFFFFFFFFFFFFFFFFFFFFFFFFFFFFFFFFFFFFFFFFFFFFFFFFFFFFC CALLDATASIZE ADD SLT PUSH2 0x3E1 JUMPI PUSH2 0x162 PUSH2 0xF47 JUMP JUMPDEST SWAP1 PUSH20 0xFFFFFFFFFFFFFFFFFFFFFFFFFFFFFFFFFFFFFFFF PUSH32 0x0 AND DUP1 ISZERO PUSH2 0x3B9 JUMPI SWAP1 DUP5 SWAP3 SWAP2 CALLER DUP5 MSTORE PUSH1 0x2 PUSH1 0x20 MSTORE PUSH14 0xFFFFFFFFFFFFFFFFFFFFFFFFFFFF SWAP1 DUP2 DUP7 DUP7 KECCAK256 SLOAD AND PUSH2 0x25D PUSH2 0x202 PUSH2 0x1D0 PUSH2 0x1522 JUMP JUMPDEST SWAP4 SWAP1 POP CALLER DUP10 MSTORE PUSH1 0x2 PUSH1 0x20 MSTORE DUP4 DUP11 DUP11 KECCAK256 SWAP2 PUSH13 0xFFFFFFFFFFFFFFFFFFFFFFFFFF SWAP8 PUSH1 0x1 DUP10 DUP6 SLOAD PUSH1 0x70 SHR AND SWAP5 ADD SLOAD AND SWAP3 PUSH2 0x17D2 JUMP JUMPDEST SWAP4 CALLER DUP9 MSTORE PUSH1 0x2 PUSH1 0x20 MSTORE DUP9 DUP9 KECCAK256 SWAP3 AND DUP3 SWAP1 PUSH32 0xFFFFFFFFFF00000000000000000000000000FFFFFFFFFFFFFFFFFFFFFFFFFFFF PUSH27 0xFFFFFFFFFFFFFFFFFFFFFFFFFF0000000000000000000000000000 DUP4 SLOAD SWAP3 PUSH1 0x70 SHL AND SWAP2 AND OR SWAP1 SSTORE JUMP JUMPDEST DUP3 PUSH2 0x2EB JUMPI JUMPDEST DUP6 DUP8 CALLER DUP3 MSTORE PUSH1 0x2 PUSH1 0x20 MSTORE PUSH32 0x5C0F9500E53293DFB7FC76F0336CFB82B44723AF4B6CC4F9D36EEAF0A1054D4E DUP2 DUP4 KECCAK256 SWAP2 MLOAD DUP1 PUSH2 0x2E5 CALLER SWAP5 TIMESTAMP SWAP1 DUP4 PUSH1 0x60 SWAP1 SWAP4 SWAP3 SWAP2 SWAP4 PUSH1 0x80 DUP2 ADD SWAP5 PUSH1 0x1 DUP2 SLOAD SWAP2 PUSH13 0xFFFFFFFFFFFFFFFFFFFFFFFFFF PUSH14 0xFFFFFFFFFFFFFFFFFFFFFFFFFFFF SWAP4 DUP5 DUP2 AND DUP7 MSTORE PUSH1 0x70 SHR AND PUSH1 0x20 DUP6 ADD MSTORE ADD SLOAD AND PUSH1 0x40 DUP3 ADD MSTORE ADD MSTORE JUMP JUMPDEST SUB SWAP1 LOG2 DUP1 RETURN JUMPDEST PUSH1 0x1 ADD PUSH32 0xFFFFFFFFFFFFFFFFFFFFFFFFFFFFFFFFFFFF0000000000000000000000000000 DUP2 SLOAD AND SWAP1 SSTORE DUP1 EXTCODESIZE ISZERO PUSH2 0x3B5 JUMPI PUSH2 0x378 SWAP4 DUP6 DUP1 SWAP5 DUP9 MLOAD SWAP7 DUP8 SWAP6 DUP7 SWAP5 DUP6 SWAP4 PUSH32 0x21670F2200000000000000000000000000000000000000000000000000000000 DUP6 MSTORE DUP5 ADD PUSH1 0x20 SWAP1 SWAP4 SWAP3 SWAP2 SWAP4 PUSH20 0xFFFFFFFFFFFFFFFFFFFFFFFFFFFFFFFFFFFFFFFF PUSH1 0x40 DUP3 ADD SWAP6 AND DUP2 MSTORE ADD MSTORE JUMP JUMPDEST SUB SWAP3 GAS CALL DUP1 ISZERO PUSH2 0x3A8 JUMPI PUSH2 0x390 JUMPI JUMPDEST DUP1 DUP1 DUP1 DUP1 PUSH2 0x263 JUMP JUMPDEST PUSH2 0x399 SWAP1 PUSH2 0x1139 JUMP JUMPDEST PUSH2 0x3A4 JUMPI DUP2 CODESIZE PUSH2 0x387 JUMP JUMPDEST POP DUP1 REVERT JUMPDEST POP POP POP MLOAD SWAP1 RETURNDATASIZE SWAP1 DUP3 RETURNDATACOPY RETURNDATASIZE SWAP1 REVERT JUMPDEST DUP5 DUP1 REVERT JUMPDEST POP DUP3 MLOAD PUSH32 0xEA8E4EB500000000000000000000000000000000000000000000000000000000 DUP2 MSTORE REVERT JUMPDEST DUP3 DUP1 REVERT JUMPDEST POP CALLVALUE PUSH2 0x3E1 JUMPI DUP2 PUSH32 0xFFFFFFFFFFFFFFFFFFFFFFFFFFFFFFFFFFFFFFFFFFFFFFFFFFFFFFFFFFFFFFFC CALLDATASIZE ADD SLT PUSH2 0x3E1 JUMPI PUSH2 0x41C PUSH2 0xF47 JUMP JUMPDEST SWAP2 CALLER DUP5 MSTORE DUP2 PUSH1 0x20 MSTORE DUP1 DUP5 KECCAK256 SLOAD ISZERO PUSH2 0x43D JUMPI DUP4 PUSH2 0x43A PUSH1 0x24 CALLDATALOAD DUP6 PUSH2 0x1813 JUMP JUMPDEST DUP1 RETURN JUMPDEST MLOAD PUSH32 0xEA8E4EB500000000000000000000000000000000000000000000000000000000 DUP2 MSTORE REVERT JUMPDEST DUP3 DUP5 CALLVALUE PUSH2 0x4C9 JUMPI DUP2 PUSH32 0xFFFFFFFFFFFFFFFFFFFFFFFFFFFFFFFFFFFFFFFFFFFFFFFFFFFFFFFFFFFFFFFC CALLDATASIZE ADD SLT PUSH2 0x4C9 JUMPI PUSH2 0x49B PUSH2 0xF47 JUMP JUMPDEST POP PUSH1 0x24 CALLDATALOAD PUSH20 0xFFFFFFFFFFFFFFFFFFFFFFFFFFFFFFFFFFFFFFFF DUP2 AND SUB PUSH2 0x4C4 JUMPI PUSH1 0x20 SWAP2 MLOAD SWAP1 DUP2 MSTORE RETURN JUMPDEST PUSH1 0x0 DUP1 REVERT JUMPDEST DUP1 REVERT JUMPDEST POP DUP3 SWAP1 CALLVALUE PUSH2 0x3A4 JUMPI PUSH1 0x80 PUSH32 0xFFFFFFFFFFFFFFFFFFFFFFFFFFFFFFFFFFFFFFFFFFFFFFFFFFFFFFFFFFFFFFFC CALLDATASIZE ADD SLT PUSH2 0x3A4 JUMPI PUSH20 0xFFFFFFFFFFFFFFFFFFFFFFFFFFFFFFFFFFFFFFFF DUP2 CALLDATALOAD DUP2 DUP2 AND SUB PUSH2 0x3E1 JUMPI DUP4 PUSH32 0xFFFFFFFFFFFFFFFFFFFFFFFFFFFFFFFFFFFFFFFFFFFFFFFFFFFFFFFFFFFFFFDC CALLDATASIZE ADD SLT PUSH2 0x3E1 JUMPI DUP4 MLOAD SWAP1 PUSH8 0xFFFFFFFFFFFFFFFF DUP3 DUP7 ADD DUP2 DUP2 GT DUP5 DUP3 LT OR PUSH2 0x6BB JUMPI DUP7 MSTORE PUSH1 0x24 CALLDATALOAD DUP4 MSTORE PUSH1 0x44 CALLDATALOAD PUSH1 0x20 SWAP4 DUP5 ADD MSTORE PUSH1 0x64 CALLDATALOAD SWAP1 DUP2 GT PUSH2 0x3B5 JUMPI CALLDATASIZE PUSH1 0x23 DUP3 ADD SLT ISZERO PUSH2 0x3B5 JUMPI DUP1 DUP5 ADD CALLDATALOAD SWAP1 PUSH2 0x593 DUP3 PUSH2 0x11F5 JUMP JUMPDEST SWAP2 PUSH2 0x5A0 DUP9 MLOAD SWAP4 DUP5 PUSH2 0x11B4 JUMP JUMPDEST DUP1 DUP4 MSTORE PUSH1 0x24 DUP6 DUP5 ADD SWAP2 PUSH1 0x5 SHL DUP4 ADD ADD SWAP2 CALLDATASIZE DUP4 GT PUSH2 0x6B7 JUMPI PUSH1 0x24 ADD SWAP1 JUMPDEST DUP3 DUP3 LT PUSH2 0x69F JUMPI POP POP POP PUSH2 0x5F4 DUP3 PUSH32 0xB53127684A568B3173AE13B9F8A6016E243E63B6E8EE1178D6A717850B5D6103 SLOAD AND CALLER EQ PUSH2 0x120D JUMP JUMPDEST PUSH1 0xFF DUP6 SLOAD AND ISZERO PUSH2 0x602 JUMPI DUP5 DUP1 RETURN JUMPDEST DUP5 JUMPDEST DUP2 MLOAD DUP2 LT ISZERO PUSH2 0x666 JUMPI DUP1 DUP4 PUSH2 0x61B PUSH1 0x1 SWAP4 DUP6 PUSH2 0x135D JUMP JUMPDEST MLOAD AND DUP1 PUSH1 0x0 MSTORE DUP7 DUP7 MSTORE PUSH32 0x50B08F8489C009DB3C1B3F160CC0DAE1C0C6706774750C001E4C083F9483D5F3 DUP10 PUSH8 0xDE0B6B3A7640000 DUP1 DUP3 PUSH1 0x0 KECCAK256 SSTORE DUP2 MLOAD SWAP1 DUP2 MSTORE TIMESTAMP DUP10 DUP3 ADD MSTORE LOG2 ADD PUSH2 0x604 JUMP JUMPDEST POP POP POP POP POP SWAP1 POP PUSH1 0x1 PUSH32 0xFFFFFFFFFFFFFFFFFFFFFFFFFFFFFFFFFFFFFFFFFFFFFFFFFFFFFFFFFFFFFF00 DUP3 SLOAD AND OR DUP2 SSTORE DUP1 DUP3 DUP1 DUP1 DUP1 DUP5 DUP1 RETURN JUMPDEST DUP2 CALLDATALOAD DUP6 DUP2 AND DUP2 SUB PUSH2 0x4C4 JUMPI DUP2 MSTORE SWAP1 DUP6 ADD SWAP1 DUP6 ADD PUSH2 0x5BC JUMP JUMPDEST DUP8 DUP1 REVERT JUMPDEST PUSH1 0x41 DUP6 PUSH32 0x4E487B7100000000000000000000000000000000000000000000000000000000 PUSH1 0x0 MSTORE MSTORE PUSH1 0x24 PUSH1 0x0 REVERT JUMPDEST POP DUP3 SWAP1 CALLVALUE PUSH2 0x3A4 JUMPI PUSH2 0x6FA CALLDATASIZE PUSH2 0x1032 JUMP JUMPDEST SWAP3 SWAP1 SWAP2 SWAP5 CALLER DUP6 MSTORE DUP2 PUSH1 0x20 MSTORE DUP1 DUP6 KECCAK256 SLOAD ISZERO PUSH2 0x43D JUMPI POP POP PUSH2 0x71E DUP3 PUSH2 0x43A SWAP5 SWAP6 PUSH2 0x1600 JUMP JUMPDEST PUSH2 0x1813 JUMP JUMPDEST POP POP CALLVALUE PUSH2 0x3A4 JUMPI PUSH1 0x20 PUSH32 0xFFFFFFFFFFFFFFFFFFFFFFFFFFFFFFFFFFFFFFFFFFFFFFFFFFFFFFFFFFFFFFFC CALLDATASIZE ADD SLT PUSH2 0x3A4 JUMPI PUSH1 0x20 SWAP1 PUSH2 0x767 PUSH2 0x762 PUSH2 0xF47 JUMP JUMPDEST PUSH2 0x143A JUMP JUMPDEST SWAP1 MLOAD SWAP1 DUP2 MSTORE RETURN JUMPDEST POP CALLVALUE PUSH2 0x3E1 JUMPI DUP2 PUSH32 0xFFFFFFFFFFFFFFFFFFFFFFFFFFFFFFFFFFFFFFFFFFFFFFFFFFFFFFFFFFFFFFFC CALLDATASIZE ADD SLT PUSH2 0x3E1 JUMPI PUSH2 0x7A5 PUSH2 0xF47 JUMP JUMPDEST SWAP2 CALLER DUP5 MSTORE DUP2 PUSH1 0x20 MSTORE DUP1 DUP5 KECCAK256 SLOAD ISZERO PUSH2 0x43D JUMPI DUP4 PUSH2 0x43A PUSH1 0x24 CALLDATALOAD DUP6 PUSH2 0x1600 JUMP JUMPDEST PUSH2 0xFD0 JUMP JUMPDEST POP POP CALLVALUE PUSH2 0x3A4 JUMPI PUSH1 0x20 PUSH32 0xFFFFFFFFFFFFFFFFFFFFFFFFFFFFFFFFFFFFFFFFFFFFFFFFFFFFFFFFFFFFFFFC CALLDATASIZE ADD SLT PUSH2 0x3A4 JUMPI PUSH1 0x20 SWAP1 PUSH2 0x767 PUSH2 0x807 PUSH2 0xF47 JUMP JUMPDEST PUSH2 0x1391 JUMP JUMPDEST DUP4 CALLVALUE PUSH2 0x4C9 JUMPI DUP1 PUSH32 0xFFFFFFFFFFFFFFFFFFFFFFFFFFFFFFFFFFFFFFFFFFFFFFFFFFFFFFFFFFFFFFFC CALLDATASIZE ADD SLT PUSH2 0x4C9 JUMPI PUSH2 0x843 PUSH2 0x1522 JUMP JUMPDEST POP POP DUP1 RETURN JUMPDEST POP POP CALLVALUE PUSH2 0x3A4 JUMPI DUP2 PUSH32 0xFFFFFFFFFFFFFFFFFFFFFFFFFFFFFFFFFFFFFFFFFFFFFFFFFFFFFFFFFFFFFFFC CALLDATASIZE ADD SLT PUSH2 0x3A4 JUMPI PUSH1 0x60 SWAP2 DUP2 DUP1 MLOAD PUSH2 0x887 DUP2 PUSH2 0x117C JUMP JUMPDEST DUP3 DUP2 MSTORE DUP3 PUSH1 0x20 DUP3 ADD MSTORE ADD MSTORE DUP1 MLOAD SWAP1 PUSH2 0x89E DUP3 PUSH2 0x117C JUMP JUMPDEST PUSH14 0xFFFFFFFFFFFFFFFFFFFFFFFFFFFF PUSH1 0x1 SLOAD PUSH5 0xFFFFFFFFFF DUP2 AND SWAP4 DUP5 DUP2 MSTORE PUSH13 0xFFFFFFFFFFFFFFFFFFFFFFFFFF SWAP1 DUP5 PUSH1 0x20 DUP3 ADD SWAP2 DUP4 DUP6 PUSH1 0x28 SHR AND DUP4 MSTORE ADD SWAP3 PUSH1 0x90 SHR DUP4 MSTORE DUP5 MLOAD SWAP6 DUP7 MSTORE MLOAD AND PUSH1 0x20 DUP6 ADD MSTORE MLOAD AND SWAP1 DUP3 ADD MSTORE RETURN JUMPDEST POP POP CALLVALUE PUSH2 0x3A4 JUMPI DUP2 PUSH32 0xFFFFFFFFFFFFFFFFFFFFFFFFFFFFFFFFFFFFFFFFFFFFFFFFFFFFFFFFFFFFFFFC CALLDATASIZE ADD SLT PUSH2 0x3A4 JUMPI DUP1 MLOAD PUSH2 0x967 SWAP2 PUSH2 0x933 DUP3 PUSH2 0x1198 JUMP JUMPDEST PUSH1 0x5 DUP3 MSTORE PUSH32 0x504F494E54000000000000000000000000000000000000000000000000000000 PUSH1 0x20 DUP4 ADD MSTORE MLOAD SWAP2 DUP3 SWAP2 DUP3 PUSH2 0xF6A JUMP JUMPDEST SUB SWAP1 RETURN JUMPDEST DUP3 DUP5 CALLVALUE PUSH2 0x4C9 JUMPI PUSH2 0x97B CALLDATASIZE PUSH2 0x1092 JUMP JUMPDEST PUSH2 0x984 DUP2 PUSH2 0x12AE JUMP JUMPDEST SWAP3 JUMPDEST DUP2 DUP2 LT PUSH2 0x99A JUMPI DUP5 MLOAD DUP1 PUSH2 0x967 DUP7 DUP3 PUSH2 0x10FD JUMP JUMPDEST DUP1 PUSH2 0x9B3 PUSH2 0x807 PUSH2 0x9AE PUSH1 0x1 SWAP5 DUP7 DUP9 PUSH2 0x12FD JUMP JUMPDEST PUSH2 0x133C JUMP JUMPDEST PUSH2 0x9BD DUP3 DUP8 PUSH2 0x135D JUMP JUMPDEST MSTORE ADD PUSH2 0x986 JUMP JUMPDEST POP CALLVALUE PUSH2 0x3E1 JUMPI PUSH1 0x20 PUSH32 0xFFFFFFFFFFFFFFFFFFFFFFFFFFFFFFFFFFFFFFFFFFFFFFFFFFFFFFFFFFFFFFFC CALLDATASIZE ADD SLT PUSH2 0x3E1 JUMPI PUSH1 0x20 SWAP3 DUP3 SWAP2 PUSH20 0xFFFFFFFFFFFFFFFFFFFFFFFFFFFFFFFFFFFFFFFF PUSH2 0xA16 PUSH2 0xF47 JUMP JUMPDEST AND DUP3 MSTORE DUP5 MSTORE KECCAK256 SLOAD SWAP1 MLOAD SWAP1 DUP2 MSTORE RETURN JUMPDEST POP POP CALLVALUE PUSH2 0x3A4 JUMPI PUSH1 0x20 PUSH32 0xFFFFFFFFFFFFFFFFFFFFFFFFFFFFFFFFFFFFFFFFFFFFFFFFFFFFFFFFFFFFFFFC CALLDATASIZE ADD SLT PUSH2 0x3A4 JUMPI PUSH14 0xFFFFFFFFFFFFFFFFFFFFFFFFFFFF DUP2 PUSH1 0x20 SWAP4 PUSH20 0xFFFFFFFFFFFFFFFFFFFFFFFFFFFFFFFFFFFFFFFF PUSH2 0xA85 PUSH2 0xF47 JUMP JUMPDEST AND DUP2 MSTORE PUSH1 0x2 DUP6 MSTORE KECCAK256 SLOAD AND SWAP1 MLOAD SWAP1 DUP2 MSTORE RETURN JUMPDEST DUP3 DUP5 CALLVALUE PUSH2 0x4C9 JUMPI PUSH2 0xAA6 CALLDATASIZE PUSH2 0x1092 JUMP JUMPDEST PUSH2 0xAAF DUP2 PUSH2 0x12AE JUMP JUMPDEST SWAP3 JUMPDEST DUP2 DUP2 LT PUSH2 0xAC5 JUMPI DUP5 MLOAD DUP1 PUSH2 0x967 DUP7 DUP3 PUSH2 0x10FD JUMP JUMPDEST DUP1 PUSH2 0xAD9 PUSH2 0x762 PUSH2 0x9AE PUSH1 0x1 SWAP5 DUP7 DUP9 PUSH2 0x12FD JUMP JUMPDEST PUSH2 0xAE3 DUP3 DUP8 PUSH2 0x135D JUMP JUMPDEST MSTORE ADD PUSH2 0xAB1 JUMP JUMPDEST POP POP CALLVALUE PUSH2 0x3A4 JUMPI DUP2 PUSH32 0xFFFFFFFFFFFFFFFFFFFFFFFFFFFFFFFFFFFFFFFFFFFFFFFFFFFFFFFFFFFFFFFC CALLDATASIZE ADD SLT PUSH2 0x3A4 JUMPI PUSH1 0x20 SWAP1 PUSH2 0x767 PUSH1 0x1 SLOAD PUSH13 0xFFFFFFFFFFFFFFFFFFFFFFFFFF PUSH2 0xB66 PUSH5 0xFFFFFFFFFF DUP4 AND PUSH32 0x0 DUP5 PUSH1 0x90 SHR PUSH2 0x14E0 JUMP JUMPDEST SWAP2 PUSH1 0x28 SHR AND PUSH2 0x1272 JUMP JUMPDEST POP POP CALLVALUE PUSH2 0x3A4 JUMPI DUP2 PUSH32 0xFFFFFFFFFFFFFFFFFFFFFFFFFFFFFFFFFFFFFFFFFFFFFFFFFFFFFFFFFFFFFFFC CALLDATASIZE ADD SLT PUSH2 0x3A4 JUMPI PUSH1 0x20 SWAP1 MLOAD PUSH1 0x12 DUP2 MSTORE RETURN JUMPDEST POP SWAP2 CALLVALUE PUSH2 0x4C9 JUMPI POP PUSH2 0xBBB CALLDATASIZE PUSH2 0x1032 JUMP JUMPDEST POP POP POP MLOAD PUSH32 0x9CBE235700000000000000000000000000000000000000000000000000000000 DUP2 MSTORE REVERT JUMPDEST POP POP CALLVALUE PUSH2 0x3A4 JUMPI DUP2 PUSH32 0xFFFFFFFFFFFFFFFFFFFFFFFFFFFFFFFFFFFFFFFFFFFFFFFFFFFFFFFFFFFFFFFC CALLDATASIZE ADD SLT PUSH2 0x3A4 JUMPI PUSH1 0x20 SWAP1 PUSH1 0x1 SLOAD PUSH1 0x90 SHR SWAP1 MLOAD SWAP1 DUP2 MSTORE RETURN JUMPDEST POP SWAP1 CALLVALUE PUSH2 0x3E1 JUMPI DUP1 PUSH32 0xFFFFFFFFFFFFFFFFFFFFFFFFFFFFFFFFFFFFFFFFFFFFFFFFFFFFFFFFFFFFFFFC CALLDATASIZE ADD SLT PUSH2 0x3E1 JUMPI PUSH32 0x50B08F8489C009DB3C1B3F160CC0DAE1C0C6706774750C001E4C083F9483D5F3 SWAP1 PUSH2 0xC7E PUSH2 0xF47 JUMP JUMPDEST PUSH1 0x24 CALLDATALOAD SWAP1 PUSH20 0xFFFFFFFFFFFFFFFFFFFFFFFFFFFFFFFFFFFFFFFF SWAP1 PUSH2 0xCC6 DUP3 PUSH32 0xB53127684A568B3173AE13B9F8A6016E243E63B6E8EE1178D6A717850B5D6103 SLOAD AND CALLER EQ PUSH2 0x120D JUMP JUMPDEST AND SWAP4 DUP5 PUSH1 0x0 MSTORE PUSH1 0x20 MSTORE DUP1 DUP3 PUSH1 0x0 KECCAK256 SSTORE DUP2 MLOAD SWAP1 DUP2 MSTORE TIMESTAMP PUSH1 0x20 DUP3 ADD MSTORE LOG2 DUP1 RETURN JUMPDEST POP POP CALLVALUE PUSH2 0x3A4 JUMPI DUP2 PUSH32 0xFFFFFFFFFFFFFFFFFFFFFFFFFFFFFFFFFFFFFFFFFFFFFFFFFFFFFFFFFFFFFFFC CALLDATASIZE ADD SLT PUSH2 0x3A4 JUMPI DUP1 MLOAD PUSH2 0x967 SWAP2 PUSH2 0xD23 DUP3 PUSH2 0x1198 JUMP JUMPDEST PUSH1 0x6 DUP3 MSTORE PUSH32 0x506F696E74730000000000000000000000000000000000000000000000000000 PUSH1 0x20 DUP4 ADD MSTORE MLOAD SWAP2 DUP3 SWAP2 DUP3 PUSH2 0xF6A JUMP JUMPDEST DUP5 SWAP3 SWAP2 POP CALLVALUE PUSH2 0x3E1 JUMPI PUSH1 0x20 PUSH32 0xFFFFFFFFFFFFFFFFFFFFFFFFFFFFFFFFFFFFFFFFFFFFFFFFFFFFFFFFFFFFFFFC CALLDATASIZE ADD SLT PUSH2 0x3E1 JUMPI PUSH2 0xD92 PUSH2 0xF47 JUMP JUMPDEST PUSH20 0xFFFFFFFFFFFFFFFFFFFFFFFFFFFFFFFFFFFFFFFF PUSH32 0x0 AND SWAP2 DUP3 ISZERO PUSH2 0xF20 JUMPI POP PUSH2 0xDDA CALLER PUSH2 0x1391 JUMP JUMPDEST SWAP3 DUP4 PUSH2 0xE45 JUMPI JUMPDEST DUP5 DUP7 CALLER DUP3 MSTORE PUSH1 0x3 PUSH1 0x20 MSTORE PUSH32 0x990D7FA8D559ABC572E9491E8330C9707B02ACDB2E054411B3E9A0498F7C70E8 DUP2 DUP4 KECCAK256 SWAP2 MLOAD DUP1 PUSH2 0x2E5 CALLER SWAP5 DUP3 SWAP2 SWAP1 SWAP2 PUSH1 0x20 PUSH5 0xFFFFFFFFFF PUSH1 0x40 DUP4 ADD SWAP5 SLOAD PUSH14 0xFFFFFFFFFFFFFFFFFFFFFFFFFFFF DUP2 AND DUP5 MSTORE PUSH1 0x70 SHR AND SWAP2 ADD MSTORE JUMP JUMPDEST CALLER DUP6 MSTORE PUSH1 0x3 PUSH1 0x20 MSTORE DUP6 DUP6 KECCAK256 DUP1 SLOAD PUSH32 0xFFFFFFFFFFFFFFFFFFFFFFFFFF00000000000000000000000000000000000000 AND PUSH19 0xFFFFFFFFFF0000000000000000000000000000 TIMESTAMP PUSH1 0x70 SHL AND OR SWAP1 SSTORE DUP3 EXTCODESIZE ISZERO PUSH2 0x3B5 JUMPI DUP6 MLOAD PUSH32 0x21670F2200000000000000000000000000000000000000000000000000000000 DUP2 MSTORE PUSH20 0xFFFFFFFFFFFFFFFFFFFFFFFFFFFFFFFFFFFFFFFF SWAP1 SWAP3 AND SWAP1 DUP3 ADD SWAP1 DUP2 MSTORE PUSH1 0x20 DUP2 ADD SWAP4 SWAP1 SWAP4 MSTORE SWAP2 DUP4 SWAP2 DUP4 SWAP2 DUP3 SWAP1 DUP5 SWAP1 DUP3 SWAP1 PUSH1 0x40 ADD SUB SWAP3 GAS CALL DUP1 ISZERO PUSH2 0xF16 JUMPI PUSH2 0xF07 JUMPI JUMPDEST DUP1 DUP1 DUP1 PUSH2 0xDE1 JUMP JUMPDEST PUSH2 0xF10 SWAP1 PUSH2 0x1139 JUMP JUMPDEST DUP3 PUSH2 0xEFF JUMP JUMPDEST DUP4 MLOAD RETURNDATASIZE DUP5 DUP3 RETURNDATACOPY RETURNDATASIZE SWAP1 REVERT JUMPDEST DUP1 PUSH32 0xEA8E4EB500000000000000000000000000000000000000000000000000000000 DUP6 SWAP3 MSTORE REVERT JUMPDEST PUSH1 0x4 CALLDATALOAD SWAP1 PUSH20 0xFFFFFFFFFFFFFFFFFFFFFFFFFFFFFFFFFFFFFFFF DUP3 AND DUP3 SUB PUSH2 0x4C4 JUMPI JUMP JUMPDEST PUSH1 0x20 DUP1 DUP3 MSTORE DUP3 MLOAD DUP2 DUP4 ADD DUP2 SWAP1 MSTORE SWAP4 SWAP3 PUSH1 0x0 JUMPDEST DUP6 DUP2 LT PUSH2 0xFBC JUMPI POP POP POP PUSH32 0xFFFFFFFFFFFFFFFFFFFFFFFFFFFFFFFFFFFFFFFFFFFFFFFFFFFFFFFFFFFFFFE0 PUSH1 0x1F DUP5 PUSH1 0x0 PUSH1 0x40 DUP1 SWAP7 SWAP8 DUP7 ADD ADD MSTORE ADD AND ADD ADD SWAP1 JUMP JUMPDEST DUP2 DUP2 ADD DUP4 ADD MLOAD DUP5 DUP3 ADD PUSH1 0x40 ADD MSTORE DUP3 ADD PUSH2 0xF7C JUMP JUMPDEST CALLVALUE PUSH2 0x4C4 JUMPI PUSH1 0x40 PUSH32 0xFFFFFFFFFFFFFFFFFFFFFFFFFFFFFFFFFFFFFFFFFFFFFFFFFFFFFFFFFFFFFFFC CALLDATASIZE ADD SLT PUSH2 0x4C4 JUMPI PUSH2 0x1007 PUSH2 0xF47 JUMP JUMPDEST POP PUSH1 0x4 PUSH1 0x40 MLOAD PUSH32 0x9CBE235700000000000000000000000000000000000000000000000000000000 DUP2 MSTORE REVERT JUMPDEST PUSH32 0xFFFFFFFFFFFFFFFFFFFFFFFFFFFFFFFFFFFFFFFFFFFFFFFFFFFFFFFFFFFFFFFC PUSH1 0x60 SWAP2 ADD SLT PUSH2 0x4C4 JUMPI PUSH20 0xFFFFFFFFFFFFFFFFFFFFFFFFFFFFFFFFFFFFFFFF SWAP1 PUSH1 0x4 CALLDATALOAD DUP3 DUP2 AND DUP2 SUB PUSH2 0x4C4 JUMPI SWAP2 PUSH1 0x24 CALLDATALOAD SWAP1 DUP2 AND DUP2 SUB PUSH2 0x4C4 JUMPI SWAP1 PUSH1 0x44 CALLDATALOAD SWAP1 JUMP JUMPDEST SWAP1 PUSH1 0x20 PUSH32 0xFFFFFFFFFFFFFFFFFFFFFFFFFFFFFFFFFFFFFFFFFFFFFFFFFFFFFFFFFFFFFFFC DUP4 ADD SLT PUSH2 0x4C4 JUMPI PUSH1 0x4 CALLDATALOAD PUSH8 0xFFFFFFFFFFFFFFFF SWAP3 DUP4 DUP3 GT PUSH2 0x4C4 JUMPI DUP1 PUSH1 0x23 DUP4 ADD SLT ISZERO PUSH2 0x4C4 JUMPI DUP2 PUSH1 0x4 ADD CALLDATALOAD SWAP4 DUP5 GT PUSH2 0x4C4 JUMPI PUSH1 0x24 DUP5 PUSH1 0x5 SHL DUP4 ADD ADD GT PUSH2 0x4C4 JUMPI PUSH1 0x24 ADD SWAP2 SWAP1 JUMP JUMPDEST PUSH1 0x20 SWAP1 PUSH1 0x20 PUSH1 0x40 DUP2 DUP4 ADD SWAP3 DUP3 DUP2 MSTORE DUP6 MLOAD DUP1 SWAP5 MSTORE ADD SWAP4 ADD SWAP2 PUSH1 0x0 JUMPDEST DUP3 DUP2 LT PUSH2 0x1125 JUMPI POP POP POP POP SWAP1 JUMP JUMPDEST DUP4 MLOAD DUP6 MSTORE SWAP4 DUP2 ADD SWAP4 SWAP3 DUP2 ADD SWAP3 PUSH1 0x1 ADD PUSH2 0x1117 JUMP JUMPDEST PUSH8 0xFFFFFFFFFFFFFFFF DUP2 GT PUSH2 0x114D JUMPI PUSH1 0x40 MSTORE JUMP JUMPDEST PUSH32 0x4E487B7100000000000000000000000000000000000000000000000000000000 PUSH1 0x0 MSTORE PUSH1 0x41 PUSH1 0x4 MSTORE PUSH1 0x24 PUSH1 0x0 REVERT JUMPDEST PUSH1 0x60 DUP2 ADD SWAP1 DUP2 LT PUSH8 0xFFFFFFFFFFFFFFFF DUP3 GT OR PUSH2 0x114D JUMPI PUSH1 0x40 MSTORE JUMP JUMPDEST PUSH1 0x40 DUP2 ADD SWAP1 DUP2 LT PUSH8 0xFFFFFFFFFFFFFFFF DUP3 GT OR PUSH2 0x114D JUMPI PUSH1 0x40 MSTORE JUMP JUMPDEST SWAP1 PUSH1 0x1F PUSH32 0xFFFFFFFFFFFFFFFFFFFFFFFFFFFFFFFFFFFFFFFFFFFFFFFFFFFFFFFFFFFFFFE0 SWAP2 ADD AND DUP2 ADD SWAP1 DUP2 LT PUSH8 0xFFFFFFFFFFFFFFFF DUP3 GT OR PUSH2 0x114D JUMPI PUSH1 0x40 MSTORE JUMP JUMPDEST PUSH8 0xFFFFFFFFFFFFFFFF DUP2 GT PUSH2 0x114D JUMPI PUSH1 0x5 SHL PUSH1 0x20 ADD SWAP1 JUMP JUMPDEST ISZERO PUSH2 0x1214 JUMPI JUMP JUMPDEST PUSH1 0x64 PUSH1 0x40 MLOAD PUSH32 0x8C379A000000000000000000000000000000000000000000000000000000000 DUP2 MSTORE PUSH1 0x20 PUSH1 0x4 DUP3 ADD MSTORE PUSH1 0xE PUSH1 0x24 DUP3 ADD MSTORE PUSH32 0x4E4F545F415554484F52495A4544000000000000000000000000000000000000 PUSH1 0x44 DUP3 ADD MSTORE REVERT JUMPDEST SWAP2 SWAP1 DUP3 ADD DUP1 SWAP3 GT PUSH2 0x127F JUMPI JUMP JUMPDEST PUSH32 0x4E487B7100000000000000000000000000000000000000000000000000000000 PUSH1 0x0 MSTORE PUSH1 0x11 PUSH1 0x4 MSTORE PUSH1 0x24 PUSH1 0x0 REVERT JUMPDEST SWAP1 PUSH2 0x12B8 DUP3 PUSH2 0x11F5 JUMP JUMPDEST PUSH2 0x12C5 PUSH1 0x40 MLOAD SWAP2 DUP3 PUSH2 0x11B4 JUMP JUMPDEST DUP3 DUP2 MSTORE PUSH32 0xFFFFFFFFFFFFFFFFFFFFFFFFFFFFFFFFFFFFFFFFFFFFFFFFFFFFFFFFFFFFFFE0 PUSH2 0x12F3 DUP3 SWAP5 PUSH2 0x11F5 JUMP JUMPDEST ADD SWAP1 PUSH1 0x20 CALLDATASIZE SWAP2 ADD CALLDATACOPY JUMP JUMPDEST SWAP2 SWAP1 DUP2 LT ISZERO PUSH2 0x130D JUMPI PUSH1 0x5 SHL ADD SWAP1 JUMP JUMPDEST PUSH32 0x4E487B7100000000000000000000000000000000000000000000000000000000 PUSH1 0x0 MSTORE PUSH1 0x32 PUSH1 0x4 MSTORE PUSH1 0x24 PUSH1 0x0 REVERT JUMPDEST CALLDATALOAD PUSH20 0xFFFFFFFFFFFFFFFFFFFFFFFFFFFFFFFFFFFFFFFF DUP2 AND DUP2 SUB PUSH2 0x4C4 JUMPI SWAP1 JUMP JUMPDEST DUP1 MLOAD DUP3 LT ISZERO PUSH2 0x130D JUMPI PUSH1 0x20 SWAP2 PUSH1 0x5 SHL ADD ADD SWAP1 JUMP JUMPDEST SWAP2 SWAP1 DUP3 SUB SWAP2 DUP3 GT PUSH2 0x127F JUMPI JUMP JUMPDEST DUP2 DUP2 MUL SWAP3 SWAP2 DUP2 ISZERO SWAP2 DUP5 DIV EQ OR ISZERO PUSH2 0x127F JUMPI JUMP JUMPDEST PUSH20 0xFFFFFFFFFFFFFFFFFFFFFFFFFFFFFFFFFFFFFFFF PUSH2 0x1437 SWAP2 AND PUSH1 0x0 DUP2 DUP2 MSTORE PUSH1 0x3 PUSH1 0x20 MSTORE PUSH1 0x40 PUSH2 0x13CE PUSH5 0xFFFFFFFFFF DUP3 DUP5 KECCAK256 SLOAD PUSH1 0x70 SHR AND TIMESTAMP PUSH2 0x1371 JUMP JUMPDEST SWAP2 DUP4 DUP2 MSTORE PUSH1 0x2 PUSH1 0x20 MSTORE PUSH4 0x3B9ACA00 PUSH2 0x1425 PUSH2 0x13FE PUSH14 0xFFFFFFFFFFFFFFFFFFFFFFFFFFFF SWAP6 DUP7 DUP7 DUP7 KECCAK256 SLOAD AND SWAP1 PUSH2 0x137E JUMP JUMPDEST PUSH32 0x0 SWAP1 PUSH2 0x137E JUMP JUMPDEST DIV SWAP4 DUP2 MSTORE PUSH1 0x3 PUSH1 0x20 MSTORE KECCAK256 SLOAD AND SWAP1 PUSH2 0x1272 JUMP JUMPDEST SWAP1 JUMP JUMPDEST PUSH20 0xFFFFFFFFFFFFFFFFFFFFFFFFFFFFFFFFFFFFFFFF PUSH2 0x1437 SWAP2 AND DUP1 PUSH1 0x0 MSTORE PUSH1 0x2 PUSH1 0x20 MSTORE PUSH1 0x40 PUSH1 0x0 KECCAK256 SLOAD SWAP1 PUSH13 0xFFFFFFFFFFFFFFFFFFFFFFFFFF SWAP2 PUSH14 0xFFFFFFFFFFFFFFFFFFFFFFFFFFFF SWAP3 PUSH2 0x14BF PUSH1 0x1 SLOAD DUP3 PUSH2 0xB66 PUSH5 0xFFFFFFFFFF DUP4 AND PUSH32 0x0 DUP5 PUSH1 0x90 SHR PUSH2 0x14E0 JUMP JUMPDEST SWAP3 PUSH1 0x0 MSTORE PUSH1 0x2 PUSH1 0x20 MSTORE DUP4 PUSH1 0x1 PUSH1 0x40 PUSH1 0x0 KECCAK256 ADD SLOAD AND SWAP4 DUP3 AND SWAP2 PUSH1 0x70 SHR AND PUSH2 0x17D2 JUMP JUMPDEST SWAP2 SWAP1 DUP3 ISZERO PUSH2 0x151A JUMPI PUSH2 0x14F5 PUSH2 0x14FA SWAP3 TIMESTAMP PUSH2 0x1371 JUMP JUMPDEST PUSH2 0x137E JUMP JUMPDEST PUSH10 0xD3C21BCECCEDA1000000 SWAP1 DUP2 DUP2 MUL SWAP2 DUP2 DUP4 DIV EQ SWAP1 ISZERO OR ISZERO PUSH2 0x127F JUMPI DIV SWAP1 JUMP JUMPDEST POP POP POP PUSH1 0x0 SWAP1 JUMP JUMPDEST PUSH1 0x1 SLOAD DUP1 PUSH1 0x90 SHR SWAP2 PUSH32 0xBFC9024F8EA3D8400F13D1ABEFFC5754EDDEE8B8EE97B2D8EA4EC1F2FE52156A PUSH1 0x60 PUSH5 0xFFFFFFFFFF SWAP4 PUSH2 0x1581 DUP6 DUP3 AND PUSH32 0x0 DUP9 PUSH2 0x14E0 JUMP JUMPDEST PUSH2 0x159E PUSH13 0xFFFFFFFFFFFFFFFFFFFFFFFFFF SWAP2 DUP3 DUP5 PUSH1 0x28 SHR AND PUSH2 0x1272 JUMP JUMPDEST SWAP6 TIMESTAMP AND DUP1 SWAP3 PUSH32 0xFFFFFFFFFFFFFFFFFFFFFFFFFFFF000000000000000000000000000000000000 PUSH18 0xFFFFFFFFFFFFFFFFFFFFFFFFFF0000000000 DUP10 PUSH1 0x28 SHL AND SWAP2 AND OR OR SWAP1 DUP2 PUSH1 0x1 SSTORE PUSH1 0x40 MLOAD SWAP3 DUP4 MSTORE DUP2 PUSH1 0x28 SHR AND PUSH1 0x20 DUP4 ADD MSTORE PUSH1 0x90 SHR PUSH1 0x40 DUP3 ADD MSTORE LOG1 JUMP JUMPDEST SWAP1 DUP1 ISZERO PUSH2 0x17CE JUMPI PUSH2 0x17C9 PUSH32 0x990D7FA8D559ABC572E9491E8330C9707B02ACDB2E054411B3E9A0498F7C70E8 SWAP2 PUSH20 0xFFFFFFFFFFFFFFFFFFFFFFFFFFFFFFFFFFFFFFFF PUSH2 0x164A DUP6 PUSH2 0x199D JUMP JUMPDEST SWAP6 SWAP1 PUSH18 0xFFFFFFFFFFFFFFFFFFFFFFFFFFFFFFFFFFFF PUSH32 0xFFFFFFFFFFFFFFFFFFFFFFFFFFFF000000000000000000000000000000000000 DUP6 PUSH1 0x1 SLOAD SWAP4 SUB PUSH1 0x90 SHL AND SWAP2 AND OR PUSH1 0x1 SSTORE AND SWAP4 PUSH1 0x0 DUP6 DUP2 MSTORE PUSH1 0x2 PUSH1 0x20 MSTORE DUP1 DUP7 PUSH32 0xDDF252AD1BE2C89B69C2B068FC378DAA952BA7F163C4A11628F55A4DF523B3EF PUSH1 0x20 PUSH1 0x40 SWAP7 DUP8 SWAP7 PUSH14 0xFFFFFFFFFFFFFFFFFFFFFFFFFFFF DUP3 DUP10 DUP9 KECCAK256 SWAP3 SUB AND PUSH32 0xFFFFFFFFFFFFFFFFFFFFFFFFFFFFFFFFFFFF0000000000000000000000000000 DUP3 SLOAD AND OR SWAP1 SSTORE DUP7 MLOAD SWAP1 DUP2 MSTORE LOG3 DUP6 DUP2 MSTORE PUSH1 0x2 PUSH1 0x20 MSTORE DUP6 PUSH32 0x5C0F9500E53293DFB7FC76F0336CFB82B44723AF4B6CC4F9D36EEAF0A1054D4E PUSH2 0x178A DUP5 DUP5 KECCAK256 DUP6 MLOAD SWAP2 DUP3 SWAP2 TIMESTAMP SWAP1 DUP4 PUSH1 0x60 SWAP1 SWAP4 SWAP3 SWAP2 SWAP4 PUSH1 0x80 DUP2 ADD SWAP5 PUSH1 0x1 DUP2 SLOAD SWAP2 PUSH13 0xFFFFFFFFFFFFFFFFFFFFFFFFFF PUSH14 0xFFFFFFFFFFFFFFFFFFFFFFFFFFFF SWAP4 DUP5 DUP2 AND DUP7 MSTORE PUSH1 0x70 SHR AND PUSH1 0x20 DUP6 ADD MSTORE ADD SLOAD AND PUSH1 0x40 DUP3 ADD MSTORE ADD MSTORE JUMP JUMPDEST SUB SWAP1 LOG2 DUP6 DUP2 MSTORE PUSH1 0x3 PUSH1 0x20 MSTORE KECCAK256 SWAP1 MLOAD SWAP2 DUP3 SWAP2 DUP3 SWAP2 SWAP1 SWAP2 PUSH1 0x20 PUSH5 0xFFFFFFFFFF PUSH1 0x40 DUP4 ADD SWAP5 SLOAD PUSH14 0xFFFFFFFFFFFFFFFFFFFFFFFFFFFF DUP2 AND DUP5 MSTORE PUSH1 0x70 SHR AND SWAP2 ADD MSTORE JUMP JUMPDEST SUB SWAP1 LOG2 JUMP JUMPDEST POP POP JUMP JUMPDEST PUSH2 0x17DF SWAP1 PUSH2 0x17E5 SWAP4 PUSH2 0x1371 JUMP JUMPDEST SWAP1 PUSH2 0x137E JUMP JUMPDEST SWAP1 PUSH5 0xE8D4A51000 SWAP2 DUP3 DUP2 MUL SWAP3 DUP2 DUP5 DIV EQ SWAP1 ISZERO OR ISZERO PUSH2 0x127F JUMPI PUSH10 0xD3C21BCECCEDA1000000 PUSH2 0x1437 SWAP3 DIV SWAP1 PUSH2 0x1272 JUMP JUMPDEST SWAP1 DUP1 ISZERO PUSH2 0x17CE JUMPI PUSH2 0x17C9 PUSH32 0x990D7FA8D559ABC572E9491E8330C9707B02ACDB2E054411B3E9A0498F7C70E8 SWAP2 PUSH20 0xFFFFFFFFFFFFFFFFFFFFFFFFFFFFFFFFFFFFFFFF PUSH2 0x185D DUP6 PUSH2 0x199D JUMP JUMPDEST SWAP6 SWAP1 PUSH18 0xFFFFFFFFFFFFFFFFFFFFFFFFFFFFFFFFFFFF PUSH32 0xFFFFFFFFFFFFFFFFFFFFFFFFFFFF000000000000000000000000000000000000 DUP6 PUSH1 0x1 SLOAD SWAP4 ADD PUSH1 0x90 SHL AND SWAP2 AND OR PUSH1 0x1 SSTORE AND SWAP4 PUSH1 0x0 DUP6 DUP2 MSTORE PUSH1 0x2 PUSH1 0x20 MSTORE DUP6 DUP2 PUSH32 0xDDF252AD1BE2C89B69C2B068FC378DAA952BA7F163C4A11628F55A4DF523B3EF PUSH1 0x20 PUSH1 0x40 SWAP7 DUP8 SWAP7 PUSH14 0xFFFFFFFFFFFFFFFFFFFFFFFFFFFF DUP3 DUP10 DUP8 KECCAK256 SWAP3 ADD AND PUSH32 0xFFFFFFFFFFFFFFFFFFFFFFFFFFFFFFFFFFFF0000000000000000000000000000 DUP3 SLOAD AND OR SWAP1 SSTORE DUP7 MLOAD SWAP1 DUP2 MSTORE LOG3 DUP6 DUP2 MSTORE PUSH1 0x2 PUSH1 0x20 MSTORE DUP6 PUSH32 0x5C0F9500E53293DFB7FC76F0336CFB82B44723AF4B6CC4F9D36EEAF0A1054D4E PUSH2 0x178A DUP5 DUP5 KECCAK256 DUP6 MLOAD SWAP2 DUP3 SWAP2 TIMESTAMP SWAP1 DUP4 PUSH1 0x60 SWAP1 SWAP4 SWAP3 SWAP2 SWAP4 PUSH1 0x80 DUP2 ADD SWAP5 PUSH1 0x1 DUP2 SLOAD SWAP2 PUSH13 0xFFFFFFFFFFFFFFFFFFFFFFFFFF PUSH14 0xFFFFFFFFFFFFFFFFFFFFFFFFFFFF SWAP4 DUP5 DUP2 AND DUP7 MSTORE PUSH1 0x70 SHR AND PUSH1 0x20 DUP6 ADD MSTORE ADD SLOAD AND PUSH1 0x40 DUP3 ADD MSTORE ADD MSTORE JUMP JUMPDEST SWAP1 PUSH20 0xFFFFFFFFFFFFFFFFFFFFFFFFFFFFFFFFFFFFFFFF SWAP2 PUSH2 0x19BC PUSH2 0x1522 JUMP JUMPDEST SWAP4 SWAP1 SWAP2 AND PUSH1 0x0 SWAP1 DUP1 DUP3 MSTORE PUSH1 0x2 PUSH1 0x20 MSTORE PUSH1 0x1 PUSH2 0x1A11 PUSH2 0x1A99 PUSH1 0x40 DUP6 KECCAK256 SWAP8 DUP9 SLOAD PUSH14 0xFFFFFFFFFFFFFFFFFFFFFFFFFFFF SWAP4 DUP2 DUP4 DUP7 DUP1 SWAP5 AND DUP1 SWAP14 DUP6 PUSH13 0xFFFFFFFFFFFFFFFFFFFFFFFFFF SWAP11 DUP12 SWAP3 ADD SLOAD AND SWAP4 PUSH1 0x70 SHR AND PUSH2 0x17D2 JUMP JUMPDEST AND SWAP4 DUP6 DUP8 MSTORE PUSH1 0x2 PUSH1 0x20 MSTORE PUSH1 0x40 DUP8 KECCAK256 SWAP2 PUSH1 0x1 DUP4 ADD PUSH32 0xFFFFFFFFFFFFFFFFFFFFFFFFFFFFFFFFFFFF0000000000000000000000000000 SWAP7 DUP8 DUP3 SLOAD AND OR SWAP1 SSTORE AND PUSH32 0xFFFFFFFFFF00000000000000000000000000FFFFFFFFFFFFFFFFFFFFFFFFFFFF PUSH27 0xFFFFFFFFFFFFFFFFFFFFFFFFFF0000000000000000000000000000 DUP4 SLOAD SWAP3 PUSH1 0x70 SHL AND SWAP2 AND OR SWAP1 SSTORE JUMP JUMPDEST PUSH1 0x3 PUSH1 0x20 MSTORE PUSH5 0xFFFFFFFFFF SWAP4 PUSH4 0x3B9ACA00 PUSH2 0x1AC4 PUSH2 0x13FE DUP11 PUSH2 0x14F5 DUP10 PUSH1 0x40 DUP8 KECCAK256 SLOAD PUSH1 0x70 SHR AND TIMESTAMP PUSH2 0x1371 JUMP JUMPDEST DIV SWAP4 DUP2 MSTORE PUSH1 0x3 PUSH1 0x20 MSTORE PUSH2 0x1B1C PUSH1 0x40 DUP3 KECCAK256 SWAP6 TIMESTAMP AND DUP7 SWAP1 PUSH32 0xFFFFFFFFFFFFFFFFFFFFFFFFFF0000000000FFFFFFFFFFFFFFFFFFFFFFFFFFFF PUSH19 0xFFFFFFFFFF0000000000000000000000000000 DUP4 SLOAD SWAP3 PUSH1 0x70 SHL AND SWAP2 AND OR SWAP1 SSTORE JUMP JUMPDEST DUP2 DUP6 SLOAD SWAP5 AND DUP3 DUP6 AND ADD SWAP1 DUP3 DUP3 GT PUSH2 0x1B38 JUMPI POP AND SWAP2 AND OR SWAP1 SSTORE SWAP2 SWAP1 JUMP JUMPDEST DUP1 PUSH32 0x4E487B7100000000000000000000000000000000000000000000000000000000 PUSH1 0x24 SWAP3 MSTORE PUSH1 0x11 PUSH1 0x4 MSTORE REVERT INVALID LOG2 PUSH5 0x6970667358 0x22 SLT KECCAK256 SWAP8 SWAP14 0xA8 RETURNDATASIZE 0xB8 CALL 0x2F TLOAD PUSH6 0x6EDE9FF67F63 0xE9 BALANCE BLOCKHASH 0x29 DUP12 SHL 0xE1 0xD4 SWAP1 0x4B EXTCODESIZE SWAP16 0x24 PUSH10 0x658DB864736F6C634300 ADDMOD XOR STOP CALLER "
    },
    "gasEstimates": {
      "creation": {
        "codeDepositCost": "1413400",
        "executionCost": "infinite",
        "totalCost": "infinite"
      },
      "external": {
        "add(address,uint256)": "infinite",
        "allowance(address,address)": "726",
        "approve(address,uint256)": "283",
        "balanceOf(address)": "2602",
        "claimFixedRewards(address)": "infinite",
        "claimSharedPoolRewards(address)": "infinite",
        "decimals()": "300",
        "earnedFromFixedRate(address)": "infinite",
        "earnedFromFixedRateMultipleAccounts(address[])": "infinite",
        "earnedFromPoolRate(address)": "infinite",
        "earnedFromPoolRateMultipleAccounts(address[])": "infinite",
        "enableGame(address,uint256)": "26297",
        "games(address)": "2616",
        "getTotalRewardPerPointWithPrecision24()": "infinite",
        "global()": "infinite",
        "move(address,address,uint256)": "infinite",
        "name()": "infinite",
        "postUpgrade(address,(uint256,uint256),address[])": "infinite",
        "remove(address,uint256)": "infinite",
        "symbol()": "infinite",
        "totalSupply()": "2368",
        "transfer(address,uint256)": "591",
        "transferFrom(address,address,uint256)": "397",
        "update()": "infinite"
      },
      "internal": {
        "_add(address,uint256)": "infinite",
        "_computeExtraTotalRewardPerPointSinceLastTime(uint256,uint256,uint256)": "259",
        "_computeRewardsEarned(uint256,uint256,uint256,uint256)": "304",
        "_enableGame(address,uint256)": "infinite",
        "_postUpgrade(contract IReward,struct RewardsGenerator.Config memory,address[] memory)": "infinite",
        "_remove(address,uint256)": "infinite",
        "_update(address)": "infinite",
        "_updateAccount(address,uint256)": "infinite",
        "_updateGlobal()": "infinite"
      }
    },
    "methodIdentifiers": {
      "add(address,uint256)": "f5d82b6b",
      "allowance(address,address)": "dd62ed3e",
      "approve(address,uint256)": "095ea7b3",
      "balanceOf(address)": "70a08231",
      "claimFixedRewards(address)": "066112f9",
      "claimSharedPoolRewards(address)": "ff1e03e9",
      "decimals()": "313ce567",
      "earnedFromFixedRate(address)": "a8671f6a",
      "earnedFromFixedRateMultipleAccounts(address[])": "7997f96d",
      "earnedFromPoolRate(address)": "b061963c",
      "earnedFromPoolRateMultipleAccounts(address[])": "59d431b3",
      "enableGame(address,uint256)": "16cf09f8",
      "games(address)": "79131a19",
      "getTotalRewardPerPointWithPrecision24()": "48483382",
      "global()": "a05f9906",
      "move(address,address,uint256)": "bb35783b",
      "name()": "06fdde03",
      "postUpgrade(address,(uint256,uint256),address[])": "cee2960b",
      "remove(address,uint256)": "abe7f1ab",
      "symbol()": "95d89b41",
      "totalSupply()": "18160ddd",
      "transfer(address,uint256)": "a9059cbb",
      "transferFrom(address,address,uint256)": "23b872dd",
      "update()": "a2e62045"
    }
  },
  "storageLayout": {
    "storage": [
      {
        "astId": 225,
        "contract": "src/token/RewardsGenerator.sol:RewardsGenerator",
        "label": "_init",
        "offset": 0,
        "slot": "0",
        "type": "t_bool"
      },
      {
        "astId": 235,
        "contract": "src/token/RewardsGenerator.sol:RewardsGenerator",
        "label": "_global",
        "offset": 0,
        "slot": "1",
        "type": "t_struct(GlobalState)232_storage"
      },
      {
        "astId": 247,
        "contract": "src/token/RewardsGenerator.sol:RewardsGenerator",
        "label": "_sharedRateRewardPerAccount",
        "offset": 0,
        "slot": "2",
        "type": "t_mapping(t_address,t_struct(SharedRatePerAccount)242_storage)"
      },
      {
        "astId": 257,
        "contract": "src/token/RewardsGenerator.sol:RewardsGenerator",
        "label": "_fixedRateRewardPerAccount",
        "offset": 0,
        "slot": "3",
        "type": "t_mapping(t_address,t_struct(FixedRatePerAccount)252_storage)"
      },
      {
        "astId": 261,
        "contract": "src/token/RewardsGenerator.sol:RewardsGenerator",
        "label": "_games",
        "offset": 0,
        "slot": "4",
        "type": "t_mapping(t_address,t_uint256)"
      }
    ],
    "types": {
      "t_address": {
        "encoding": "inplace",
        "label": "address",
        "numberOfBytes": "20"
      },
      "t_bool": {
        "encoding": "inplace",
        "label": "bool",
        "numberOfBytes": "1"
      },
      "t_mapping(t_address,t_struct(FixedRatePerAccount)252_storage)": {
        "encoding": "mapping",
        "key": "t_address",
        "label": "mapping(address => struct RewardsGenerator.FixedRatePerAccount)",
        "numberOfBytes": "32",
        "value": "t_struct(FixedRatePerAccount)252_storage"
      },
      "t_mapping(t_address,t_struct(SharedRatePerAccount)242_storage)": {
        "encoding": "mapping",
        "key": "t_address",
        "label": "mapping(address => struct RewardsGenerator.SharedRatePerAccount)",
        "numberOfBytes": "32",
        "value": "t_struct(SharedRatePerAccount)242_storage"
      },
      "t_mapping(t_address,t_uint256)": {
        "encoding": "mapping",
        "key": "t_address",
        "label": "mapping(address => uint256)",
        "numberOfBytes": "32",
        "value": "t_uint256"
      },
      "t_struct(FixedRatePerAccount)252_storage": {
        "encoding": "inplace",
        "label": "struct RewardsGenerator.FixedRatePerAccount",
        "members": [
          {
            "astId": 249,
            "contract": "src/token/RewardsGenerator.sol:RewardsGenerator",
            "label": "toWithdraw",
            "offset": 0,
            "slot": "0",
            "type": "t_uint112"
          },
          {
            "astId": 251,
            "contract": "src/token/RewardsGenerator.sol:RewardsGenerator",
            "label": "lastTime",
            "offset": 14,
            "slot": "0",
            "type": "t_uint40"
          }
        ],
        "numberOfBytes": "32"
      },
      "t_struct(GlobalState)232_storage": {
        "encoding": "inplace",
        "label": "struct RewardsGenerator.GlobalState",
        "members": [
          {
            "astId": 227,
            "contract": "src/token/RewardsGenerator.sol:RewardsGenerator",
            "label": "lastUpdateTime",
            "offset": 0,
            "slot": "0",
            "type": "t_uint40"
          },
          {
            "astId": 229,
            "contract": "src/token/RewardsGenerator.sol:RewardsGenerator",
            "label": "totalRewardPerPointAtLastUpdate",
            "offset": 5,
            "slot": "0",
            "type": "t_uint104"
          },
          {
            "astId": 231,
            "contract": "src/token/RewardsGenerator.sol:RewardsGenerator",
            "label": "totalPoints",
            "offset": 18,
            "slot": "0",
            "type": "t_uint112"
          }
        ],
        "numberOfBytes": "32"
      },
      "t_struct(SharedRatePerAccount)242_storage": {
        "encoding": "inplace",
        "label": "struct RewardsGenerator.SharedRatePerAccount",
        "members": [
          {
            "astId": 237,
            "contract": "src/token/RewardsGenerator.sol:RewardsGenerator",
            "label": "points",
            "offset": 0,
            "slot": "0",
            "type": "t_uint112"
          },
          {
            "astId": 239,
            "contract": "src/token/RewardsGenerator.sol:RewardsGenerator",
            "label": "totalRewardPerPointAccounted",
            "offset": 14,
            "slot": "0",
            "type": "t_uint104"
          },
          {
            "astId": 241,
            "contract": "src/token/RewardsGenerator.sol:RewardsGenerator",
            "label": "rewardsToWithdraw",
            "offset": 0,
            "slot": "1",
            "type": "t_uint112"
          }
        ],
        "numberOfBytes": "64"
      },
      "t_uint104": {
        "encoding": "inplace",
        "label": "uint104",
        "numberOfBytes": "13"
      },
      "t_uint112": {
        "encoding": "inplace",
        "label": "uint112",
        "numberOfBytes": "14"
      },
      "t_uint256": {
        "encoding": "inplace",
        "label": "uint256",
        "numberOfBytes": "32"
      },
      "t_uint40": {
        "encoding": "inplace",
        "label": "uint40",
        "numberOfBytes": "5"
      }
    }
  },
  "userdoc": {
    "errors": {
      "NonTransferable()": [
        {
          "notice": "Token cannot be transfered"
        }
      ],
      "NotAuthorized()": [
        {
          "notice": "Not authorized to perform this operation"
        }
      ]
    },
    "events": {
      "Approval(address,address,uint256)": {
        "notice": "trigger on approval amount being set.   Note that Transfer events need to be considered to compute the current allowance."
      },
      "Transfer(address,address,uint256)": {
        "notice": "trigger when tokens are transferred, including zero value transfers."
      }
    },
    "kind": "user",
    "methods": {
      "allowance(address,address)": {
        "notice": "Returns the amount which `spender` is still allowed to withdraw from `owner`."
      },
      "approve(address,uint256)": {
        "notice": "Allows `spender` to withdraw from your account multiple times, up to `amount`."
      },
      "balanceOf(address)": {
        "notice": "Returns the account balance of another account with address `owner`."
      },
      "claimFixedRewards(address)": {
        "notice": "claim the rewards earned so far using a fixed rate per point"
      },
      "claimSharedPoolRewards(address)": {
        "notice": "claim the rewards earned so far in the shared pool"
      },
      "decimals()": {
        "notice": "Returns the number of decimals the token uses."
      },
      "earnedFromFixedRate(address)": {
        "notice": "The amount of reward an account has accrued so far. Does not include already withdrawn rewards."
      },
      "earnedFromFixedRateMultipleAccounts(address[])": {
        "notice": "The amount of reward an account has accrued so far. Does not include already withdrawn rewards."
      },
      "earnedFromPoolRate(address)": {
        "notice": "The amount of reward an account has accrued so far. Does not include already withdrawn rewards."
      },
      "earnedFromPoolRateMultipleAccounts(address[])": {
        "notice": "The amount of reward an account has accrued so far. Does not include already withdrawn rewards."
      },
      "enableGame(address,uint256)": {
        "notice": "Allow a contract (a game) to add points to the rewards system"
      },
      "games(address)": {
        "notice": "return the weight of the game"
      },
      "getTotalRewardPerPointWithPrecision24()": {
        "notice": "The amount of reward each point has earned so far"
      },
      "global()": {
        "notice": "return the current global state"
      },
      "name()": {
        "notice": "Returns the name of the token."
      },
      "symbol()": {
        "notice": "Returns the symbol of the token."
      },
      "totalSupply()": {
        "notice": "Returns the total token supply."
      },
      "transfer(address,uint256)": {
        "notice": "Transfers `amount` of tokens to address `to`."
      },
      "transferFrom(address,address,uint256)": {
        "notice": "Transfers `amount` tokens from address `from` to address `to`."
      },
      "update()": {
        "notice": "update the global pool rate"
      }
    },
    "version": 1
  },
  "argsData": "0x000000000000000000000000900ddb8e6ee4e4d55711c8ebb332a24876404bd800000000000000000000000061c461ecc993aadeb7e4b47e96d1b8cc37314b20000000000000000000000000000000000000000000000000000000000000006000000000000000000000000000000000000000000000000000000000000000a4cee2960b00000000000000000000000000000000000000000000000000000000000000000000000000000000000000000000000000000000000000000000000000000000000000000000000000000000000000000000000000000000000000000000000a0000000000000000000000000000000000000000000000000000000000000080000000000000000000000000000000000000000000000000000000000000000000000000000000000000000000000000000000000000000000000000",
  "transaction": {
    "hash": "0x14980c42cc2768ad876ecbae70bfb58ae09a1f00ab8281a4d2aa6ce5c8b85dc9",
    "origin": "0x61c461ecc993aadeb7e4b47e96d1b8cc37314b20"
  },
  "updated": true,
  "_format": "hh-sol-artifact-1"
}