{
  "address": "0x67b69d44568b3d8f9222c77a388ae09ce8fb3251",
  "abi": [
    {
      "inputs": [
        {
          "components": [
            {
              "internalType": "contract IERC20WithIERC2612",
              "name": "tokens",
              "type": "address"
            },
            {
              "internalType": "address payable",
              "name": "burnAddress",
              "type": "address"
            },
            {
              "internalType": "uint256",
              "name": "startTime",
              "type": "uint256"
            },
            {
              "internalType": "uint256",
              "name": "commitPhaseDuration",
              "type": "uint256"
            },
            {
              "internalType": "uint256",
              "name": "revealPhaseDuration",
              "type": "uint256"
            },
            {
              "internalType": "uint8",
              "name": "maxLife",
              "type": "uint8"
            },
            {
              "internalType": "uint256",
              "name": "numTokensPerGems",
              "type": "uint256"
            },
            {
              "internalType": "contract ITime",
              "name": "time",
              "type": "address"
            },
            {
              "internalType": "contract IOnStakeChange",
              "name": "generator",
              "type": "address"
            }
          ],
          "internalType": "struct UsingStratagemsTypes.Config",
          "name": "config",
          "type": "tuple"
        }
      ],
      "stateMutability": "nonpayable",
      "type": "constructor"
    },
    {
      "inputs": [],
      "name": "CanStillReveal",
      "type": "error"
    },
    {
      "inputs": [],
      "name": "CommitmentHashNotMatching",
      "type": "error"
    },
    {
      "inputs": [],
      "name": "GameNotStarted",
      "type": "error"
    },
    {
      "inputs": [],
      "name": "ImpossibleConfiguration",
      "type": "error"
    },
    {
      "inputs": [],
      "name": "InCommitmentPhase",
      "type": "error"
    },
    {
      "inputs": [],
      "name": "InRevealPhase",
      "type": "error"
    },
    {
      "inputs": [],
      "name": "InvalidEpoch",
      "type": "error"
    },
    {
      "inputs": [],
      "name": "InvalidFurtherMoves",
      "type": "error"
    },
    {
      "inputs": [],
      "name": "NothingToReveal",
      "type": "error"
    },
    {
      "inputs": [],
      "name": "PreviousCommitmentNotRevealed",
      "type": "error"
    },
    {
      "inputs": [
        {
          "internalType": "uint256",
          "name": "inReserve",
          "type": "uint256"
        },
        {
          "internalType": "uint256",
          "name": "expected",
          "type": "uint256"
        }
      ],
      "name": "ReserveTooLow",
      "type": "error"
    },
    {
      "anonymous": false,
      "inputs": [
        {
          "indexed": true,
          "internalType": "address",
          "name": "owner",
          "type": "address"
        },
        {
          "indexed": true,
          "internalType": "address",
          "name": "approved",
          "type": "address"
        },
        {
          "indexed": true,
          "internalType": "uint256",
          "name": "tokenID",
          "type": "uint256"
        }
      ],
      "name": "Approval",
      "type": "event"
    },
    {
      "anonymous": false,
      "inputs": [
        {
          "indexed": true,
          "internalType": "address",
          "name": "owner",
          "type": "address"
        },
        {
          "indexed": true,
          "internalType": "address",
          "name": "operator",
          "type": "address"
        },
        {
          "indexed": false,
          "internalType": "bool",
          "name": "approved",
          "type": "bool"
        }
      ],
      "name": "ApprovalForAll",
      "type": "event"
    },
    {
      "anonymous": false,
      "inputs": [
        {
          "indexed": true,
          "internalType": "address",
          "name": "player",
          "type": "address"
        },
        {
          "indexed": true,
          "internalType": "uint24",
          "name": "epoch",
          "type": "uint24"
        }
      ],
      "name": "CommitmentCancelled",
      "type": "event"
    },
    {
      "anonymous": false,
      "inputs": [
        {
          "indexed": true,
          "internalType": "address",
          "name": "player",
          "type": "address"
        },
        {
          "indexed": true,
          "internalType": "uint24",
          "name": "epoch",
          "type": "uint24"
        },
        {
          "indexed": false,
          "internalType": "bytes24",
          "name": "commitmentHash",
          "type": "bytes24"
        }
      ],
      "name": "CommitmentMade",
      "type": "event"
    },
    {
      "anonymous": false,
      "inputs": [
        {
          "indexed": true,
          "internalType": "address",
          "name": "player",
          "type": "address"
        },
        {
          "indexed": true,
          "internalType": "uint24",
          "name": "epoch",
          "type": "uint24"
        },
        {
          "indexed": true,
          "internalType": "bytes24",
          "name": "commitmentHash",
          "type": "bytes24"
        },
        {
          "components": [
            {
              "internalType": "uint64",
              "name": "position",
              "type": "uint64"
            },
            {
              "internalType": "enum UsingStratagemsTypes.Color",
              "name": "color",
              "type": "uint8"
            }
          ],
          "indexed": false,
          "internalType": "struct UsingStratagemsTypes.Move[]",
          "name": "moves",
          "type": "tuple[]"
        },
        {
          "indexed": false,
          "internalType": "bytes24",
          "name": "furtherMoves",
          "type": "bytes24"
        },
        {
          "indexed": false,
          "internalType": "uint256",
          "name": "newReserveAmount",
          "type": "uint256"
        }
      ],
      "name": "CommitmentRevealed",
      "type": "event"
    },
    {
      "anonymous": false,
      "inputs": [
        {
          "indexed": true,
          "internalType": "address",
          "name": "player",
          "type": "address"
        },
        {
          "indexed": true,
          "internalType": "uint24",
          "name": "epoch",
          "type": "uint24"
        },
        {
          "indexed": false,
          "internalType": "uint256",
          "name": "amountBurnt",
          "type": "uint256"
        },
        {
          "indexed": false,
          "internalType": "bytes24",
          "name": "furtherMoves",
          "type": "bytes24"
        }
      ],
      "name": "CommitmentVoid",
      "type": "event"
    },
    {
      "anonymous": false,
      "inputs": [
        {
          "indexed": true,
          "internalType": "uint64",
          "name": "position",
          "type": "uint64"
        },
        {
          "indexed": true,
          "internalType": "address",
          "name": "player",
          "type": "address"
        },
        {
          "indexed": false,
          "internalType": "enum UsingStratagemsTypes.Color",
          "name": "oldColor",
          "type": "uint8"
        },
        {
          "indexed": false,
          "internalType": "enum UsingStratagemsTypes.Color",
          "name": "newColor",
          "type": "uint8"
        }
      ],
      "name": "MoveProcessed",
      "type": "event"
    },
    {
      "anonymous": false,
      "inputs": [
        {
          "indexed": true,
          "internalType": "uint24",
          "name": "epoch",
          "type": "uint24"
        },
        {
          "indexed": false,
          "internalType": "uint64[]",
          "name": "positions",
          "type": "uint64[]"
        }
      ],
      "name": "MultiPoke",
      "type": "event"
    },
    {
      "anonymous": false,
      "inputs": [
        {
          "indexed": true,
          "internalType": "address",
          "name": "player",
          "type": "address"
        },
        {
          "indexed": false,
          "internalType": "uint256",
          "name": "amountDeposited",
          "type": "uint256"
        },
        {
          "indexed": false,
          "internalType": "uint256",
          "name": "newAmount",
          "type": "uint256"
        }
      ],
      "name": "ReserveDeposited",
      "type": "event"
    },
    {
      "anonymous": false,
      "inputs": [
        {
          "indexed": true,
          "internalType": "address",
          "name": "player",
          "type": "address"
        },
        {
          "indexed": false,
          "internalType": "uint256",
          "name": "amountWithdrawn",
          "type": "uint256"
        },
        {
          "indexed": false,
          "internalType": "uint256",
          "name": "newAmount",
          "type": "uint256"
        }
      ],
      "name": "ReserveWithdrawn",
      "type": "event"
    },
    {
      "anonymous": false,
      "inputs": [
        {
          "indexed": true,
          "internalType": "uint24",
          "name": "epoch",
          "type": "uint24"
        },
        {
          "indexed": false,
          "internalType": "uint64",
          "name": "position",
          "type": "uint64"
        }
      ],
      "name": "SinglePoke",
      "type": "event"
    },
    {
      "anonymous": false,
      "inputs": [
        {
          "indexed": true,
          "internalType": "address",
          "name": "from",
          "type": "address"
        },
        {
          "indexed": true,
          "internalType": "address",
          "name": "to",
          "type": "address"
        },
        {
          "indexed": true,
          "internalType": "uint256",
          "name": "tokenID",
          "type": "uint256"
        }
      ],
      "name": "Transfer",
      "type": "event"
    },
    {
      "inputs": [
        {
          "internalType": "uint256",
          "name": "tokensAmountToAdd",
          "type": "uint256"
        },
        {
          "components": [
            {
              "internalType": "uint256",
              "name": "value",
              "type": "uint256"
            },
            {
              "internalType": "uint256",
              "name": "deadline",
              "type": "uint256"
            },
            {
              "internalType": "uint8",
              "name": "v",
              "type": "uint8"
            },
            {
              "internalType": "bytes32",
              "name": "r",
              "type": "bytes32"
            },
            {
              "internalType": "bytes32",
              "name": "s",
              "type": "bytes32"
            }
          ],
          "internalType": "struct UsingStratagemsTypes.Permit",
          "name": "permit",
          "type": "tuple"
        }
      ],
      "name": "addToReserve",
      "outputs": [],
      "stateMutability": "nonpayable",
      "type": "function"
    },
    {
      "inputs": [],
      "name": "cancelCommitment",
      "outputs": [],
      "stateMutability": "nonpayable",
      "type": "function"
    },
    {
      "inputs": [
        {
          "internalType": "bytes24",
          "name": "commitmentHash",
          "type": "bytes24"
        },
        {
          "internalType": "address payable",
          "name": "payee",
          "type": "address"
        }
      ],
      "name": "makeCommitment",
      "outputs": [],
      "stateMutability": "payable",
      "type": "function"
    },
    {
      "inputs": [
        {
          "internalType": "bytes24",
          "name": "commitmentHash",
          "type": "bytes24"
        },
        {
          "internalType": "uint256",
          "name": "tokensAmountToAdd",
          "type": "uint256"
        },
        {
          "components": [
            {
              "internalType": "uint256",
              "name": "value",
              "type": "uint256"
            },
            {
              "internalType": "uint256",
              "name": "deadline",
              "type": "uint256"
            },
            {
              "internalType": "uint8",
              "name": "v",
              "type": "uint8"
            },
            {
              "internalType": "bytes32",
              "name": "r",
              "type": "bytes32"
            },
            {
              "internalType": "bytes32",
              "name": "s",
              "type": "bytes32"
            }
          ],
          "internalType": "struct UsingStratagemsTypes.Permit",
          "name": "permit",
          "type": "tuple"
        },
        {
          "internalType": "address payable",
          "name": "payee",
          "type": "address"
        }
      ],
      "name": "makeCommitmentWithExtraReserve",
      "outputs": [],
      "stateMutability": "payable",
      "type": "function"
    },
    {
      "inputs": [
        {
          "internalType": "uint256",
          "name": "amount",
          "type": "uint256"
        }
      ],
      "name": "withdrawFromReserve",
      "outputs": [],
      "stateMutability": "nonpayable",
      "type": "function"
    }
  ],
  "contractName": "StratagemsCommit",
  "sourceName": "src/game/routes/StratagemsCommit.sol",
  "bytecode": "0x6101a03461019957610fc6601f38829003908101601f19168301906001600160401b03908183118584101761019e578085946040948552853961012093849181010312610199578151908382019081118282101761019e57825283516001600160a01b039081811681036101995782526020850151908082168203610199576020830191825283860151928481019384526060870151906060810191825260808801516080820190815260a08901519060ff821682036101995760a0830191825260c08a01519360c0840194855260e08b015193868516948581036101995760e0820152610100809c015197878916890361019957878260ff978f8395019b8c52608052511660a0525116976101609889525160c0525160e0525189525116865251916101409283525116926101809384525193610e1195866101b5873960805186610d32015260a051868181610146015281816101f8015281816105a30152818161063201526107f9015260c05186610a7c015260e05186610a2701525185610a4c0152518450505183610c0f01525182505051815050f35b600080fd5b634e487b7160e01b600052604160045260246000fdfe60406080815260048036101561001457600080fd5b600091823560e01c80630a8bcdb91461070357806310837a391461047f578063ae37a62d146103d9578063afa1e2d1146102de5763d67101121461005757600080fd5b346102da5760c07ffffffffffffffffffffffffffffffffffffffffffffffffffffffffffffffffc3601126102da5781359060a07fffffffffffffffffffffffffffffffffffffffffffffffffffffffffffffffdc3601126102d157816100bc578380f35b3384526020600381526100d28383872054610a18565b90338652600381528183872055602435806101e1575b5082517f23b872dd00000000000000000000000000000000000000000000000000000000815233958101958652306020870152604086018590529481908690819060600103818973ffffffffffffffffffffffffffffffffffffffff7f0000000000000000000000000000000000000000000000000000000000000000165af19485156101d7577f9705a8ff16374359785d31b0f1862c27f983645496f40760d180a9830eeaf2e894956101aa575b5082519485528401523392a23880808380f35b6101c990823d84116101d0575b6101c181836109bf565b810190610a00565b5038610197565b503d6101b7565b83513d88823e3d90fd5b73ffffffffffffffffffffffffffffffffffffffff7f0000000000000000000000000000000000000000000000000000000000000000166064359160ff831683036102d5578892823b156102d15786517fd505accf00000000000000000000000000000000000000000000000000000000815233818b019081523060208201526040810193909352604435606084015260ff909116608083015260843560a083015260a43560c083015291839183919082908490829060e00103925af180156102c7576102af575b506100e8565b6102b89061097c565b6102c35785386102a9565b8580fd5b85513d84823e3d90fd5b8380fd5b600080fd5b8280fd5b50346102da57827ffffffffffffffffffffffffffffffffffffffffffffffffffffffffffffffffc3601126102da573383528160205280832090610320610a25565b939093156103b25782549162ffffff80951680958460c01c160361038c5750507fffffffffff000000ffffffffffffffffffffffffffffffffffffffffffffffff169055337f619ef9650648da30c9647d0b77a0de24a51da0630c3533d54cc1eb3d798e1eaa8380a380f35b517f0aafb74c000000000000000000000000000000000000000000000000000000008152fd5b90517fdc12c973000000000000000000000000000000000000000000000000000000008152fd5b8382807ffffffffffffffffffffffffffffffffffffffffffffffffffffffffffffffffc36011261047b5761040c610911565b60243573ffffffffffffffffffffffffffffffffffffffff81168091036102d55761044584923384526003602052848420549033610b69565b8061044e575080f35b8180809281903415610471575b3491f115610467578180f35b51903d90823e3d90fd5b6108fc915061045b565b5080fd5b5082906101007ffffffffffffffffffffffffffffffffffffffffffffffffffffffffffffffffc36011261047b576104b5610911565b60243560a07fffffffffffffffffffffffffffffffffffffffffffffffffffffffffffffffbc3601126102d15760e4359173ffffffffffffffffffffffffffffffffffffffff958684168094036102c3573386526020906003825261053461052085888a2054610a18565b8094338a526003855281898b205533610b69565b604435978861062f575b87985084979697610558575b50505050508061044e575080f35b87517f23b872dd0000000000000000000000000000000000000000000000000000000081523392810192835230602084015260408301869052918391839182908a90829060600103927f0000000000000000000000000000000000000000000000000000000000000000165af1801561062557610608575b5085519283528201527f9705a8ff16374359785d31b0f1862c27f983645496f40760d180a9830eeaf2e8843392a2848080808061054a565b61061e90823d84116101d0576101c181836109bf565b50876105d0565b87513d88823e3d90fd5b807f0000000000000000000000000000000000000000000000000000000000000000166084359960ff8b168b036106ff57813b156106ff5788517fd505accf000000000000000000000000000000000000000000000000000000008152338582019081523060208201526040810192909252606435606083015260ff909b16608082015260a43560a082015260c43560c082015289918b9182908490829060e00103925af180156106f5571561053e57959690976106ec9061097c565b9594879061053e565b87513d8a823e3d90fd5b8980fd5b50346102da57602090817ffffffffffffffffffffffffffffffffffffffffffffffffffffffffffffffffc3601126102d1578235338552838352818520610748610a25565b9162ffffff80915460c01c169081151593846108ec575b505050506108c4573385526003835281852054907fffffffffffffffffffffffffffffffffffffffffffffffffffffffffffffffff810361087657509184905b3386526003815281838720558251947fa9059cbb000000000000000000000000000000000000000000000000000000008652339086015283602486015280856044818973ffffffffffffffffffffffffffffffffffffffff7f0000000000000000000000000000000000000000000000000000000000000000165af19485156101d7577ff7aeb382a1e87f84aa69637a22868c2e12be1261273f04cdf40a262a8b8900319495610859575b5082519485528401523392a280f35b61086f90823d84116101d0576101c181836109bf565b503861084a565b929083811061088f578361088991610940565b9061079f565b84846044928551927f78fe52a60000000000000000000000000000000000000000000000000000000084528301526024820152fd5b8382517f0aafb74c000000000000000000000000000000000000000000000000000000008152fd5b15935090918315610904575b5050503880808061075f565b16141590503880806108f8565b600435907fffffffffffffffffffffffffffffffffffffffffffffffff0000000000000000821682036102d557565b9190820391821161094d57565b7f4e487b7100000000000000000000000000000000000000000000000000000000600052601160045260246000fd5b67ffffffffffffffff811161099057604052565b7f4e487b7100000000000000000000000000000000000000000000000000000000600052604160045260246000fd5b90601f7fffffffffffffffffffffffffffffffffffffffffffffffffffffffffffffffe0910116810190811067ffffffffffffffff82111761099057604052565b908160209103126102d5575180151581036102d55790565b9190820180921161094d57565b7f000000000000000000000000000000000000000000000000000000000000000090610a717f000000000000000000000000000000000000000000000000000000000000000083610a18565b91610a7a610d1b565b7f0000000000000000000000000000000000000000000000000000000000000000808210610b3f57610aab91610940565b8315610b1057838104936002850180951161094d5762ffffff809516947ffffffffffffffffffffffffffffffffffffffffffffffffffffffffffffffffe860181811161094d571681810291818304149015171561094d57610b0c91610940565b1090565b7f4e487b7100000000000000000000000000000000000000000000000000000000600052601260045260246000fd5b60046040517f3a5f7b57000000000000000000000000000000000000000000000000000000008152fd5b73ffffffffffffffffffffffffffffffffffffffff9092919216908160005260046020526040908160002091610b9d610a25565b92909215610cf25783549362ffffff94858160c01c168015159081610ce5575b50610cbc577fffffffffff0000000000000000000000000000000000000000000000000000001687841c1760c085901b7affffff000000000000000000000000000000000000000000000000161790557f0000000000000000000000000000000000000000000000000000000000000000808210610c88575050916020917fffffffffffffffffffffffffffffffffffffffffffffffff00000000000000007fe3c45ded79e3db74b160b9a697d75f465f68d287a678532ed0a9fb691553b93d9451961686521693a3565b60449251917f78fe52a600000000000000000000000000000000000000000000000000000000835260048301526024820152fd5b600484517f0aafb74c000000000000000000000000000000000000000000000000000000008152fd5b9050868616141538610bbd565b600482517fdc12c973000000000000000000000000000000000000000000000000000000008152fd5b73ffffffffffffffffffffffffffffffffffffffff7f0000000000000000000000000000000000000000000000000000000000000000168015610dd6576020600491604051928380927fb80777ea0000000000000000000000000000000000000000000000000000000082525afa908115610dca57600091610d9b575090565b90506020813d602011610dc2575b81610db6602093836109bf565b810103126102d5575190565b3d9150610da9565b6040513d6000823e3d90fd5b50429056fea264697066735822122029a1b64b77e65ddfacfad6e756e6804d3db6cc949d316a3622534da45883417e64736f6c63430008180033",
  "linkReferences": {},
  "deployedLinkReferences": {},
  "devdoc": {
    "errors": {
      "ReserveTooLow(uint256,uint256)": [
        {
          "params": {
            "expected": "amount required to proceed",
            "inReserve": "amount in reserver as the time of the call"
          }
        }
      ]
    },
    "events": {
      "Approval(address,address,uint256)": {
        "params": {
          "approved": "account who can know transfer on the owner's behalf",
          "owner": "current owner of the token",
          "tokenID": "id of the token being approved"
        }
      },
      "ApprovalForAll(address,address,bool)": {
        "params": {
          "approved": "whether it is approved or not",
          "operator": "account who can know transfer on the owner's behalf",
          "owner": "the account granting rights over all of its token"
        }
      },
      "CommitmentCancelled(address,uint24)": {
        "params": {
          "epoch": "epoch number on which this commit belongs to",
          "player": "account taking the staking risk (can be a different account than the one controlling the gems)"
        }
      },
      "CommitmentMade(address,uint24,bytes24)": {
        "params": {
          "commitmentHash": "the hash of moves",
          "epoch": "epoch number on which this commit belongs to",
          "player": "account taking the staking risk (can be a different account than the one controlling the gems)"
        }
      },
      "CommitmentRevealed(address,uint24,bytes24,(uint64,uint8)[],bytes24,uint256)": {
        "params": {
          "commitmentHash": "the hash of the moves",
          "epoch": "epoch number on which this commit belongs to",
          "furtherMoves": "hash of further moves, unless bytes32(0) which indicate end.",
          "moves": "the moves",
          "player": "account who commited"
        }
      },
      "CommitmentVoid(address,uint24,uint256,bytes24)": {
        "params": {
          "amountBurnt": "amount of token to burn",
          "epoch": "epoch number on which this commit belongs to",
          "furtherMoves": "hash of further moves, unless bytes32(0) which indicate end.",
          "player": "the account that made the commitment"
        }
      },
      "MoveProcessed(uint64,address,uint8,uint8)": {
        "params": {
          "newColor": "color that takes over",
          "oldColor": "previous color of the cell",
          "player": "account making the move",
          "position": "cell at which the move take place"
        }
      },
      "MultiPoke(uint24,uint64[])": {
        "params": {
          "epoch": "epoch number at which the poke take place",
          "positions": "cells to poke"
        }
      },
      "ReserveDeposited(address,uint256,uint256)": {
        "params": {
          "amountDeposited": "the number of tokens deposited",
          "newAmount": "the number of tokens in reserver as a result",
          "player": "account receiving the token in the reserve"
        }
      },
      "ReserveWithdrawn(address,uint256,uint256)": {
        "params": {
          "amountWithdrawn": "the number of tokens withdrawnn",
          "newAmount": "the number of tokens in reserver as a result",
          "player": "account withdrawing the tokens"
        }
      },
      "SinglePoke(uint24,uint64)": {
        "params": {
          "epoch": "epoch number at which the poke take place",
          "position": "cell to poke"
        }
      },
      "Transfer(address,address,uint256)": {
        "params": {
          "from": "the account the token is sent from",
          "to": "the account the token is sent to",
          "tokenID": "id of the token being sent"
        }
      }
    },
    "kind": "dev",
    "methods": {
      "addToReserve(uint256,(uint256,uint256,uint8,bytes32,bytes32))": {
        "params": {
          "permit": "permit EIP2612, .value = zero if not needed",
          "tokensAmountToAdd": "amount of tokens to add"
        }
      },
      "makeCommitment(bytes24,address)": {
        "params": {
          "commitmentHash": "the hash of the moves",
          "payee": "address to send ETH to along the commitment. Can be used to pay for reveal"
        }
      },
      "makeCommitmentWithExtraReserve(bytes24,uint256,(uint256,uint256,uint8,bytes32,bytes32),address)": {
        "params": {
          "commitmentHash": "the has of the moves",
          "payee": "address to send ETH to along the commitment. Can be used to pay for reveal",
          "permit": "permit EIP2612, value = zero if not needed",
          "tokensAmountToAdd": "amount of tokens to add to the reserve. the resulting total must be enough to cover the moves"
        }
      },
      "withdrawFromReserve(uint256)": {
        "params": {
          "amount": "number of tokens to withdraw"
        }
      }
    },
    "version": 1
  },
  "evm": {
    "gasEstimates": {
      "creation": {
        "codeDepositCost": "720200",
        "executionCost": "infinite",
        "totalCost": "infinite"
      },
      "external": {
        "addToReserve(uint256,(uint256,uint256,uint8,bytes32,bytes32))": "infinite",
        "cancelCommitment()": "infinite",
        "makeCommitment(bytes24,address)": "infinite",
        "makeCommitmentWithExtraReserve(bytes24,uint256,(uint256,uint256,uint8,bytes32,bytes32),address)": "infinite",
        "withdrawFromReserve(uint256)": "infinite"
      }
    }
  },
  "storageLayout": {
    "storage": [
      {
        "astId": 14390,
        "contract": "src/game/routes/StratagemsCommit.sol:StratagemsCommit",
        "label": "_cells",
        "offset": 0,
        "slot": "0",
        "type": "t_mapping(t_uint256,t_struct(Cell)11527_storage)"
      },
      {
        "astId": 14394,
        "contract": "src/game/routes/StratagemsCommit.sol:StratagemsCommit",
        "label": "_owners",
        "offset": 0,
        "slot": "1",
        "type": "t_mapping(t_uint256,t_uint256)"
      },
      {
        "astId": 14397,
        "contract": "src/game/routes/StratagemsCommit.sol:StratagemsCommit",
        "label": "_discovered",
        "offset": 0,
        "slot": "2",
        "type": "t_struct(Discovered)11507_storage"
      },
      {
        "astId": 14401,
        "contract": "src/game/routes/StratagemsCommit.sol:StratagemsCommit",
        "label": "_tokensInReserve",
        "offset": 0,
        "slot": "3",
        "type": "t_mapping(t_address,t_uint256)"
      },
      {
        "astId": 14406,
        "contract": "src/game/routes/StratagemsCommit.sol:StratagemsCommit",
        "label": "_commitments",
        "offset": 0,
        "slot": "4",
        "type": "t_mapping(t_address,t_struct(Commitment)11532_storage)"
      },
      {
        "astId": 14412,
        "contract": "src/game/routes/StratagemsCommit.sol:StratagemsCommit",
        "label": "_operatorsForAll",
        "offset": 0,
        "slot": "5",
        "type": "t_mapping(t_address,t_mapping(t_address,t_bool))"
      },
      {
        "astId": 14416,
        "contract": "src/game/routes/StratagemsCommit.sol:StratagemsCommit",
        "label": "_operators",
        "offset": 0,
        "slot": "6",
        "type": "t_mapping(t_uint256,t_address)"
      }
    ],
    "types": {
      "t_address": {
        "encoding": "inplace",
        "label": "address",
        "numberOfBytes": "20"
      },
      "t_bool": {
        "encoding": "inplace",
        "label": "bool",
        "numberOfBytes": "1"
      },
      "t_bytes24": {
        "encoding": "inplace",
        "label": "bytes24",
        "numberOfBytes": "24"
      },
      "t_enum(Color)11433": {
        "encoding": "inplace",
        "label": "enum UsingStratagemsTypes.Color",
        "numberOfBytes": "1"
      },
      "t_int8": {
        "encoding": "inplace",
        "label": "int8",
        "numberOfBytes": "1"
      },
      "t_mapping(t_address,t_bool)": {
        "encoding": "mapping",
        "key": "t_address",
        "label": "mapping(address => bool)",
        "numberOfBytes": "32",
        "value": "t_bool"
      },
      "t_mapping(t_address,t_mapping(t_address,t_bool))": {
        "encoding": "mapping",
        "key": "t_address",
        "label": "mapping(address => mapping(address => bool))",
        "numberOfBytes": "32",
        "value": "t_mapping(t_address,t_bool)"
      },
      "t_mapping(t_address,t_struct(Commitment)11532_storage)": {
        "encoding": "mapping",
        "key": "t_address",
        "label": "mapping(address => struct UsingStratagemsTypes.Commitment)",
        "numberOfBytes": "32",
        "value": "t_struct(Commitment)11532_storage"
      },
      "t_mapping(t_address,t_uint256)": {
        "encoding": "mapping",
        "key": "t_address",
        "label": "mapping(address => uint256)",
        "numberOfBytes": "32",
        "value": "t_uint256"
      },
      "t_mapping(t_uint256,t_address)": {
        "encoding": "mapping",
        "key": "t_uint256",
        "label": "mapping(uint256 => address)",
        "numberOfBytes": "32",
        "value": "t_address"
      },
      "t_mapping(t_uint256,t_struct(Cell)11527_storage)": {
        "encoding": "mapping",
        "key": "t_uint256",
        "label": "mapping(uint256 => struct UsingStratagemsTypes.Cell)",
        "numberOfBytes": "32",
        "value": "t_struct(Cell)11527_storage"
      },
      "t_mapping(t_uint256,t_uint256)": {
        "encoding": "mapping",
        "key": "t_uint256",
        "label": "mapping(uint256 => uint256)",
        "numberOfBytes": "32",
        "value": "t_uint256"
      },
      "t_struct(Cell)11527_storage": {
        "encoding": "inplace",
        "label": "struct UsingStratagemsTypes.Cell",
        "members": [
          {
            "astId": 11509,
            "contract": "src/game/routes/StratagemsCommit.sol:StratagemsCommit",
            "label": "lastEpochUpdate",
            "offset": 0,
            "slot": "0",
            "type": "t_uint24"
          },
          {
            "astId": 11511,
            "contract": "src/game/routes/StratagemsCommit.sol:StratagemsCommit",
            "label": "epochWhenTokenIsAdded",
            "offset": 3,
            "slot": "0",
            "type": "t_uint24"
          },
          {
            "astId": 11513,
            "contract": "src/game/routes/StratagemsCommit.sol:StratagemsCommit",
            "label": "producingEpochs",
            "offset": 6,
            "slot": "0",
            "type": "t_uint24"
          },
          {
            "astId": 11516,
            "contract": "src/game/routes/StratagemsCommit.sol:StratagemsCommit",
            "label": "color",
            "offset": 9,
            "slot": "0",
            "type": "t_enum(Color)11433"
          },
          {
            "astId": 11518,
            "contract": "src/game/routes/StratagemsCommit.sol:StratagemsCommit",
            "label": "life",
            "offset": 10,
            "slot": "0",
            "type": "t_uint8"
          },
          {
            "astId": 11520,
            "contract": "src/game/routes/StratagemsCommit.sol:StratagemsCommit",
            "label": "delta",
            "offset": 11,
            "slot": "0",
            "type": "t_int8"
          },
          {
            "astId": 11522,
            "contract": "src/game/routes/StratagemsCommit.sol:StratagemsCommit",
            "label": "enemyMap",
            "offset": 12,
            "slot": "0",
            "type": "t_uint8"
          },
          {
            "astId": 11524,
            "contract": "src/game/routes/StratagemsCommit.sol:StratagemsCommit",
            "label": "distribution",
            "offset": 13,
            "slot": "0",
            "type": "t_uint8"
          },
          {
            "astId": 11526,
            "contract": "src/game/routes/StratagemsCommit.sol:StratagemsCommit",
            "label": "stake",
            "offset": 14,
            "slot": "0",
            "type": "t_uint8"
          }
        ],
        "numberOfBytes": "32"
      },
      "t_struct(Commitment)11532_storage": {
        "encoding": "inplace",
        "label": "struct UsingStratagemsTypes.Commitment",
        "members": [
          {
            "astId": 11529,
            "contract": "src/game/routes/StratagemsCommit.sol:StratagemsCommit",
            "label": "hash",
            "offset": 0,
            "slot": "0",
            "type": "t_bytes24"
          },
          {
            "astId": 11531,
            "contract": "src/game/routes/StratagemsCommit.sol:StratagemsCommit",
            "label": "epoch",
            "offset": 24,
            "slot": "0",
            "type": "t_uint24"
          }
        ],
        "numberOfBytes": "32"
      },
      "t_struct(Discovered)11507_storage": {
        "encoding": "inplace",
        "label": "struct UsingStratagemsTypes.Discovered",
        "members": [
          {
            "astId": 11500,
            "contract": "src/game/routes/StratagemsCommit.sol:StratagemsCommit",
            "label": "minX",
            "offset": 0,
            "slot": "0",
            "type": "t_uint32"
          },
          {
            "astId": 11502,
            "contract": "src/game/routes/StratagemsCommit.sol:StratagemsCommit",
            "label": "maxX",
            "offset": 4,
            "slot": "0",
            "type": "t_uint32"
          },
          {
            "astId": 11504,
            "contract": "src/game/routes/StratagemsCommit.sol:StratagemsCommit",
            "label": "minY",
            "offset": 8,
            "slot": "0",
            "type": "t_uint32"
          },
          {
            "astId": 11506,
            "contract": "src/game/routes/StratagemsCommit.sol:StratagemsCommit",
            "label": "maxY",
            "offset": 12,
            "slot": "0",
            "type": "t_uint32"
          }
        ],
        "numberOfBytes": "32"
      },
      "t_uint24": {
        "encoding": "inplace",
        "label": "uint24",
        "numberOfBytes": "3"
      },
      "t_uint256": {
        "encoding": "inplace",
        "label": "uint256",
        "numberOfBytes": "32"
      },
      "t_uint32": {
        "encoding": "inplace",
        "label": "uint32",
        "numberOfBytes": "4"
      },
      "t_uint8": {
        "encoding": "inplace",
        "label": "uint8",
        "numberOfBytes": "1"
      }
    }
  },
  "userdoc": {
    "errors": {
      "CanStillReveal()": [
        {
          "notice": "Player have to reveal if they can Stratagems will prevent them from acknowledging missed reveal if there is still time to reveal."
        }
      ],
      "CommitmentHashNotMatching()": [
        {
          "notice": "Player have to reveal their commitment using the exact same move values  If they provide different value, the commitment hash will differ and Stratagems will reject their reveal."
        }
      ],
      "GameNotStarted()": [
        {
          "notice": "Game has not started yet, can't perform any action"
        }
      ],
      "ImpossibleConfiguration()": [
        {
          "notice": "The cell configuration is invalid This can happen win debug mode where admin can setup cell bypassing moves rules For example when setting up neighborood configuration that would require a cell to have negative life"
        }
      ],
      "InCommitmentPhase()": [
        {
          "notice": "When in Commit phase, player can make new commitment but they cannot reveal their move yet."
        }
      ],
      "InRevealPhase()": [
        {
          "notice": "When in Reveal phase, it is not possible to commit new moves or cancel previous commitment  During Reveal phase, players have to reveal their commitment, if not already done."
        }
      ],
      "InvalidEpoch()": [
        {
          "notice": "Player can only reveal their move in the same epoch they commited.abi  If a player reveal later it can only do to minimize the reserve burn cost by calling : `acknowledgeMissedReveal`"
        }
      ],
      "InvalidFurtherMoves()": [
        {
          "notice": "Player can make arbitrary number of moves per epoch. To do so they group moves into (MAX_NUM_MOVES_PER_HASH = 32) moves  This result in a recursive series of hash that they can then submit in turn while revealing.  The limit  (MAX_NUM_MOVES_PER_HASH = 32) ensure a reveal batch fits in a block."
        }
      ],
      "NothingToReveal()": [
        {
          "notice": "Player can only reveal moves they commited."
        }
      ],
      "PreviousCommitmentNotRevealed()": [
        {
          "notice": "Previous commitment need to be revealed before making a new one. Even if the corresponding reveal phase has passed.\\  It is also not possible to withdraw any amount from reserve until the commitment is revealed.\\If player lost the information to reveal, it can acknowledge failure which will burn all its reserve.\\"
        }
      ],
      "ReserveTooLow(uint256,uint256)": [
        {
          "notice": "to make a commitment you always need at least one `config.numTokensPerGems` amount in reserve  Player also need one `config.numTokensPerGems`  per moves during the Reveal phase."
        }
      ]
    },
    "events": {
      "Approval(address,address,uint256)": {
        "notice": "Triggered when a token is approved to be sent by another account  Note tat the approval get reset when a Transfer event for that same token is emitted."
      },
      "ApprovalForAll(address,address,bool)": {
        "notice": "Triggered when an account approve or disaprove another to transfer on its behalf"
      },
      "CommitmentCancelled(address,uint24)": {
        "notice": "A player has cancelled its current commitment (before it reached the reveal phase)"
      },
      "CommitmentMade(address,uint24,bytes24)": {
        "notice": "A player has commited to make a move and reveal it on the reveal phase"
      },
      "CommitmentRevealed(address,uint24,bytes24,(uint64,uint8)[],bytes24,uint256)": {
        "notice": "Player has revealed its previous commitment"
      },
      "CommitmentVoid(address,uint24,uint256,bytes24)": {
        "notice": "A player has canceled a previous commitment by burning some tokens"
      },
      "MoveProcessed(uint64,address,uint8,uint8)": {
        "notice": "A move has been revealed."
      },
      "MultiPoke(uint24,uint64[])": {
        "notice": "poke multiple cells and update them if needed"
      },
      "ReserveDeposited(address,uint256,uint256)": {
        "notice": "Player has deposited token in the reserve, allowing it to use that much in game"
      },
      "ReserveWithdrawn(address,uint256,uint256)": {
        "notice": "Player have withdrawn token from the reserve"
      },
      "SinglePoke(uint24,uint64)": {
        "notice": "poke cell and update it if needed"
      },
      "Transfer(address,address,uint256)": {
        "notice": "Triggered when a token is transferred"
      }
    },
    "kind": "user",
    "methods": {
      "addToReserve(uint256,(uint256,uint256,uint8,bytes32,bytes32))": {
        "notice": "called by players to add tokens to their reserve"
      },
      "cancelCommitment()": {
        "notice": "called by players to cancel their current commitment  Can only be called during the commit phase in which the commitment was made  It cannot be called afterward"
      },
      "makeCommitment(bytes24,address)": {
        "notice": "called by players to commit their moves  this can be called multiple time in the same epoch, the last call overriding the previous.  When a commitment is made, it needs to be revealed in the reveal phase of the same epoch.abi  If missed, player can still reveal its moves but none of them will be resolved.   The player would lose its associated reserved amount."
      },
      "makeCommitmentWithExtraReserve(bytes24,uint256,(uint256,uint256,uint8,bytes32,bytes32),address)": {
        "notice": "called to make a commitment along with tokens to add to the reserve"
      },
      "withdrawFromReserve(uint256)": {
        "notice": "called by players to withdraw tokens from the reserve  can only be called if no commitments are pending  Note that while you can withdraw after commiting, note that if you do not have enough tokens  you'll have your commitment failing."
      }
    },
    "version": 1
  },
  "argsData": "0x000000000000000000000000bee0c6c405847203de86492f7753b4d0a379c20f000000000000000000000000deaddeaddeaddeaddeaddeaddeaddeaddeaddead000000000000000000000000000000000000000000000000000000000000000000000000000000000000000000000000000000000000000000000000000143700000000000000000000000000000000000000000000000000000000000000e1000000000000000000000000000000000000000000000000000000000000000070000000000000000000000000000000000000000000000000de0b6b3a76400000000000000000000000000006de75a33cf63fea42ea8e5bafadaa1c80c246c6d00000000000000000000000000466d78b4b5f9e85337f0d71bedbb5ffe33fa62",
  "transaction": {
    "hash": "0xd03bb255a84ba67b99209337d90cd7a08c3329cf027ed2f34492c1be403dd8ac",
    "nonce": "0x59",
    "origin": "0x61c461ecc993aadeb7e4b47e96d1b8cc37314b20"
  }
}