{
  "address": "0x3037e0b21e7b8e0babaf3611d6d0d5cac51e67c0",
  "abi": [
    {
      "inputs": [
        {
          "components": [
            {
              "internalType": "contract IERC20WithIERC2612",
              "name": "tokens",
              "type": "address"
            },
            {
              "internalType": "address payable",
              "name": "burnAddress",
              "type": "address"
            },
            {
              "internalType": "uint256",
              "name": "startTime",
              "type": "uint256"
            },
            {
              "internalType": "uint256",
              "name": "commitPhaseDuration",
              "type": "uint256"
            },
            {
              "internalType": "uint256",
              "name": "revealPhaseDuration",
              "type": "uint256"
            },
            {
              "internalType": "uint8",
              "name": "maxLife",
              "type": "uint8"
            },
            {
              "internalType": "uint256",
              "name": "numTokensPerGems",
              "type": "uint256"
            },
            {
              "internalType": "contract ITime",
              "name": "time",
              "type": "address"
            },
            {
              "internalType": "contract IOnStakeChange",
              "name": "generator",
              "type": "address"
            }
          ],
          "internalType": "struct UsingStratagemsTypes.Config",
          "name": "config",
          "type": "tuple"
        }
      ],
      "stateMutability": "nonpayable",
      "type": "constructor"
    },
    {
      "inputs": [],
      "name": "CanStillReveal",
      "type": "error"
    },
    {
      "inputs": [],
      "name": "CommitmentHashNotMatching",
      "type": "error"
    },
    {
      "inputs": [],
      "name": "GameNotStarted",
      "type": "error"
    },
    {
      "inputs": [],
      "name": "ImpossibleConfiguration",
      "type": "error"
    },
    {
      "inputs": [],
      "name": "InCommitmentPhase",
      "type": "error"
    },
    {
      "inputs": [],
      "name": "InRevealPhase",
      "type": "error"
    },
    {
      "inputs": [],
      "name": "InvalidEpoch",
      "type": "error"
    },
    {
      "inputs": [],
      "name": "InvalidFurtherMoves",
      "type": "error"
    },
    {
      "inputs": [],
      "name": "NothingToReveal",
      "type": "error"
    },
    {
      "inputs": [],
      "name": "PreviousCommitmentNotRevealed",
      "type": "error"
    },
    {
      "inputs": [
        {
          "internalType": "uint256",
          "name": "inReserve",
          "type": "uint256"
        },
        {
          "internalType": "uint256",
          "name": "expected",
          "type": "uint256"
        }
      ],
      "name": "ReserveTooLow",
      "type": "error"
    },
    {
      "anonymous": false,
      "inputs": [
        {
          "indexed": true,
          "internalType": "address",
          "name": "owner",
          "type": "address"
        },
        {
          "indexed": true,
          "internalType": "address",
          "name": "approved",
          "type": "address"
        },
        {
          "indexed": true,
          "internalType": "uint256",
          "name": "tokenID",
          "type": "uint256"
        }
      ],
      "name": "Approval",
      "type": "event"
    },
    {
      "anonymous": false,
      "inputs": [
        {
          "indexed": true,
          "internalType": "address",
          "name": "owner",
          "type": "address"
        },
        {
          "indexed": true,
          "internalType": "address",
          "name": "operator",
          "type": "address"
        },
        {
          "indexed": false,
          "internalType": "bool",
          "name": "approved",
          "type": "bool"
        }
      ],
      "name": "ApprovalForAll",
      "type": "event"
    },
    {
      "anonymous": false,
      "inputs": [
        {
          "indexed": true,
          "internalType": "address",
          "name": "player",
          "type": "address"
        },
        {
          "indexed": true,
          "internalType": "uint24",
          "name": "epoch",
          "type": "uint24"
        }
      ],
      "name": "CommitmentCancelled",
      "type": "event"
    },
    {
      "anonymous": false,
      "inputs": [
        {
          "indexed": true,
          "internalType": "address",
          "name": "player",
          "type": "address"
        },
        {
          "indexed": true,
          "internalType": "uint24",
          "name": "epoch",
          "type": "uint24"
        },
        {
          "indexed": false,
          "internalType": "bytes24",
          "name": "commitmentHash",
          "type": "bytes24"
        }
      ],
      "name": "CommitmentMade",
      "type": "event"
    },
    {
      "anonymous": false,
      "inputs": [
        {
          "indexed": true,
          "internalType": "address",
          "name": "player",
          "type": "address"
        },
        {
          "indexed": true,
          "internalType": "uint24",
          "name": "epoch",
          "type": "uint24"
        },
        {
          "indexed": true,
          "internalType": "bytes24",
          "name": "commitmentHash",
          "type": "bytes24"
        },
        {
          "components": [
            {
              "internalType": "uint64",
              "name": "position",
              "type": "uint64"
            },
            {
              "internalType": "enum UsingStratagemsTypes.Color",
              "name": "color",
              "type": "uint8"
            }
          ],
          "indexed": false,
          "internalType": "struct UsingStratagemsTypes.Move[]",
          "name": "moves",
          "type": "tuple[]"
        },
        {
          "indexed": false,
          "internalType": "bytes24",
          "name": "furtherMoves",
          "type": "bytes24"
        },
        {
          "indexed": false,
          "internalType": "uint256",
          "name": "newReserveAmount",
          "type": "uint256"
        }
      ],
      "name": "CommitmentRevealed",
      "type": "event"
    },
    {
      "anonymous": false,
      "inputs": [
        {
          "indexed": true,
          "internalType": "address",
          "name": "player",
          "type": "address"
        },
        {
          "indexed": true,
          "internalType": "uint24",
          "name": "epoch",
          "type": "uint24"
        },
        {
          "indexed": false,
          "internalType": "uint256",
          "name": "amountBurnt",
          "type": "uint256"
        },
        {
          "indexed": false,
          "internalType": "bytes24",
          "name": "furtherMoves",
          "type": "bytes24"
        }
      ],
      "name": "CommitmentVoid",
      "type": "event"
    },
    {
      "anonymous": false,
      "inputs": [
        {
          "indexed": true,
          "internalType": "uint64",
          "name": "position",
          "type": "uint64"
        },
        {
          "indexed": true,
          "internalType": "address",
          "name": "player",
          "type": "address"
        },
        {
          "indexed": false,
          "internalType": "enum UsingStratagemsTypes.Color",
          "name": "oldColor",
          "type": "uint8"
        },
        {
          "indexed": false,
          "internalType": "enum UsingStratagemsTypes.Color",
          "name": "newColor",
          "type": "uint8"
        }
      ],
      "name": "MoveProcessed",
      "type": "event"
    },
    {
      "anonymous": false,
      "inputs": [
        {
          "indexed": true,
          "internalType": "uint24",
          "name": "epoch",
          "type": "uint24"
        },
        {
          "indexed": false,
          "internalType": "uint64[]",
          "name": "positions",
          "type": "uint64[]"
        }
      ],
      "name": "MultiPoke",
      "type": "event"
    },
    {
      "anonymous": false,
      "inputs": [
        {
          "indexed": true,
          "internalType": "address",
          "name": "player",
          "type": "address"
        },
        {
          "indexed": false,
          "internalType": "uint256",
          "name": "amountDeposited",
          "type": "uint256"
        },
        {
          "indexed": false,
          "internalType": "uint256",
          "name": "newAmount",
          "type": "uint256"
        }
      ],
      "name": "ReserveDeposited",
      "type": "event"
    },
    {
      "anonymous": false,
      "inputs": [
        {
          "indexed": true,
          "internalType": "address",
          "name": "player",
          "type": "address"
        },
        {
          "indexed": false,
          "internalType": "uint256",
          "name": "amountWithdrawn",
          "type": "uint256"
        },
        {
          "indexed": false,
          "internalType": "uint256",
          "name": "newAmount",
          "type": "uint256"
        }
      ],
      "name": "ReserveWithdrawn",
      "type": "event"
    },
    {
      "anonymous": false,
      "inputs": [
        {
          "indexed": true,
          "internalType": "uint24",
          "name": "epoch",
          "type": "uint24"
        },
        {
          "indexed": false,
          "internalType": "uint64",
          "name": "position",
          "type": "uint64"
        }
      ],
      "name": "SinglePoke",
      "type": "event"
    },
    {
      "anonymous": false,
      "inputs": [
        {
          "indexed": true,
          "internalType": "address",
          "name": "from",
          "type": "address"
        },
        {
          "indexed": true,
          "internalType": "address",
          "name": "to",
          "type": "address"
        },
        {
          "indexed": true,
          "internalType": "uint256",
          "name": "tokenID",
          "type": "uint256"
        }
      ],
      "name": "Transfer",
      "type": "event"
    },
    {
      "inputs": [
        {
          "internalType": "uint64",
          "name": "position",
          "type": "uint64"
        }
      ],
      "name": "poke",
      "outputs": [],
      "stateMutability": "nonpayable",
      "type": "function"
    },
    {
      "inputs": [
        {
          "internalType": "uint64[]",
          "name": "positions",
          "type": "uint64[]"
        }
      ],
      "name": "pokeMultiple",
      "outputs": [],
      "stateMutability": "nonpayable",
      "type": "function"
    }
  ],
  "contractName": "StratagemsPoke",
  "sourceName": "src/game/routes/StratagemsPoke.sol",
  "bytecode": "0x6101a034620001b857620022e5601f38829003908101601f19168301906001600160401b039081831185841017620001bd578085946040948552853961012093849181010312620001b85781519083820190811182821017620001bd57825283516001600160a01b03908181168103620001b85782526020850151908082168203620001b8576020830191825283860151928481019384526060870151906060810191825260808801516080820190815260a08901519060ff82168203620001b85760a0830191825260c08a01519360c0840194855260e08b01519386851694858103620001b85760e0820152610100809c0151978789168903620001b857878260ff978f8395019b8c52608052511660a0525116976101609889525160c0525160e05251895251168652519161014092835251169261018093845251936121119586620001d4873960805186611144015260a05186818161013b0152610334015260c051866105a1015260e0518661054c0152518561057101525184611461015251838181610c3001528181610e0601528181611a550152611d5201525182505051818181611a7d01528181611afc0152611d150152f35b600080fd5b634e487b7160e01b600052604160045260246000fdfe60406080815260048036101561001457600080fd5b600091823560e01c80634dd3ab231461026e57638b8fc3a11461003657600080fd5b3461026a57602091827ffffffffffffffffffffffffffffffffffffffffffffffffffffffffffffffffc3601126102665780359267ffffffffffffffff90818511610262573660238601121561026257848301359180831161025e5760249360053660248660051b8a01011161025a576100ae61054a565b509560058602928684046005148715171561022e57507fffffffffffffffffffffffffffffffffffffffffffffffffffffffffffffffe061010a6100f58598979698610488565b946101028b519687610447565b808652610488565b018a5b818110610206575050875192610122846103af565b83528984840152895b8581106101d55750505061015f907f0000000000000000000000000000000000000000000000000000000000000000611047565b60248551958383880184895252860196019287905b8382106101ab578862ffffff87167ff4b03f4527c0ed32b6739e04de71d601db894eb6c1bcd17bb34a184bb9536c66898b038aa280f35b90919293968735908282168092036101d157908152830196830193929160010190610174565b8980fd5b818184989697981b8b010135908582168203610202576101f889600193876106af565b019594939561012b565b8b80fd5b94809697958a51610216816103af565b8d81528d83820152828288010152019695949661010d565b8a60116024927f4e487b7100000000000000000000000000000000000000000000000000000000835252fd5b8880fd5b8680fd5b8580fd5b8380fd5b8280fd5b50903461026a57602090817ffffffffffffffffffffffffffffffffffffffffffffffffffffffffffffffffc3601126102665780359267ffffffffffffffff918285169485810361025e576102c161054a565b509383519260c0840191848310908311176103835750835260058252865b60a0811061036257509161035884926103327f9987a1be5559dc397dbe41aa886352a4124ac12037da7d0f28631c1c67e0ae55979662ffffff96855193610325856103af565b84528b89850152836106af565b7f0000000000000000000000000000000000000000000000000000000000000000611047565b519485521692a280f35b8590845161036f816103af565b8981528983820152828286010152016102df565b8860416024927f4e487b7100000000000000000000000000000000000000000000000000000000835252fd5b6040810190811067ffffffffffffffff8211176103cb57604052565b7f4e487b7100000000000000000000000000000000000000000000000000000000600052604160045260246000fd5b610120810190811067ffffffffffffffff8211176103cb57604052565b60a0810190811067ffffffffffffffff8211176103cb57604052565b67ffffffffffffffff81116103cb57604052565b90601f7fffffffffffffffffffffffffffffffffffffffffffffffffffffffffffffffe0910116810190811067ffffffffffffffff8211176103cb57604052565b67ffffffffffffffff81116103cb5760051b60200190565b818102929181159184041417156104b357565b7f4e487b7100000000000000000000000000000000000000000000000000000000600052601160045260246000fd5b919082018092116104b357565b919082039182116104b357565b8115610506570490565b7f4e487b7100000000000000000000000000000000000000000000000000000000600052601260045260246000fd5b62ffffff91821690821603919082116104b357565b7f0000000000000000000000000000000000000000000000000000000000000000906105967f0000000000000000000000000000000000000000000000000000000000000000836104e2565b9161059f61112d565b7f0000000000000000000000000000000000000000000000000000000000000000808210610631576105d0916104ef565b6105da84826104fc565b90600282018092116104b35762ffffff809216947ffffffffffffffffffffffffffffffffffffffffffffffffffffffffffffffffe8601908382116104b35761062d9361062792166104a0565b906104ef565b1090565b60046040517f3a5f7b57000000000000000000000000000000000000000000000000000000008152fd5b9060ff8091169116019060ff82116104b357565b9060048110156106805760051b0190565b7f4e487b7100000000000000000000000000000000000000000000000000000000600052603260045260246000fd5b9290926000806101006040516106c4816103fa565b8281528260208201528260408201528260608201528260808201528260a08201528260c08201528260e082015201529267ffffffffffffffff851660005260006020526040600020926040519361071a856103fa565b5462ffffff8116855262ffffff8160181c16602086015262ffffff8160301c16604086015261075260ff8260481c16606087016111ed565b60ff8160501c1660808601528060581c60000b60a086015260ff8160601c1660c086015260ff8160681c1660e086015260ff8160701c1661010086015262ffffff85511690600182101580611024575b610fe8575b5060006107c260a0870151820b60ff60c089015116906115b2565b810b13610fbf575b5060ff60e08501511694610f93575b6060840151916007831015610d9c576060850151926007841015610d9c576040519384608081011067ffffffffffffffff6080870111176103cb576080850160405260803686376040519081606081011067ffffffffffffffff6060840111176103cb57606082016040526000825260006020830152600060408301528963ffffffff67ffffffff000000006108848261087781861660030b61165f565b9460201c1660030b611694565b60201b1691160167ffffffffffffffff81116104b35761091a61090a61ffff6108f06040516108b281610417565b67ffffffffffffffff8616815262ffffff8a166020820152600260408201526108de89606083016111ed565b6108eb87608083016111ed565b611723565b600082819593950b12610f80575b82604089015116611611565b166040860152845160000b611627565b60000b83526001808b60041c1614610f4a575b5061094063ffffffff8b1660030b611694565b67ffffffff0000000061095e63ffffffff8d60201c1660030b61165f565b60201b1667ffffffffffffffff63ffffffff83168201116104b3576109fc6109ec61ffff6109d260405161099181610417565b67ffffffffffffffff63ffffffff8816870116815262ffffff8b166020820152600360408201526109c58a606083016111ed565b6108eb88608083016111ed565b600082819593950b12610f37575b8260408a015116611611565b166040870152855160000b611627565b60000b84526002808c60041c1614610ef5575b5050610a2363ffffffff8b1660030b61165f565b67ffffffff00000000610a4163ffffffff8d60201c1660030b6116eb565b60201b1667ffffffffffffffff63ffffffff83168201116104b357610ac16109ec61ffff610aa8604051610a7481610417565b67ffffffffffffffff63ffffffff8816870116815262ffffff8b166020820152600060408201526109c58a606083016111ed565b600082819593950b12610ee2578260408a015116611611565b60000b84526004808c811c1614610ea0575b5050610ae763ffffffff8b1660030b6116eb565b9067ffffffff00000000610b0663ffffffff8d60201c1660030b61165f565b60201b169067ffffffffffffffff63ffffffff84168301116104b357610b9761ffff610b7e856108eb610ba695610b7560409b62ffffff879e67ffffffffffffffff8f63ffffffff905198610b5a8a610417565b168d0116875216602086015260018d860152606085016111ed565b608083016111ed565b600082819593950b12610e8d575b828989015116611611565b1686860152845160000b611627565b60000b83526008808b60041c1614610e4c575b505001511680610dcb575b5060005b600460ff82161015610c7a57600160ff9173ffffffffffffffffffffffffffffffffffffffff80610bfb8584168861066f565b5116610c0a575b500116610bc8565b610c7490610c1a8584168861066f565b5116610c5a856101008b015116610c54600f8d167f00000000000000000000000000000000000000000000000000000000000000006104fc565b906104a0565b60405191610c67836103af565b82526020820152876112b9565b38610c02565b509491505067ffffffffffffffff919250600060e084015216600052600060205260406000209062ffffff8151169082549165ffffff000000602083015160181b169068ffffff000000000000604084015160301b166060840151926007841015610d9c57849369ff0000000000000000006bff00000000000000000000009386959386947fffffffffffffffffffffffffffffffffff0000000000000000000000000000006eff00000000000000000000000000006101006dff0000000000000000000000000060e06cff00000000000000000000000060c060a06aff0000000000000000000060808f015160501b169d015160581b9e015160601b169d015160681b169c015160701b169b161717179160481b1617179116171717179055565b7f4e487b7100000000000000000000000000000000000000000000000000000000600052602160045260246000fd5b610e469067ffffffffffffffff88166000526001602052600c610e2b73ffffffffffffffffffffffffffffffffffffffff60406000205416927f0000000000000000000000000000000000000000000000000000000000000000906104a0565b0460405191610e39836103af565b82526020820152846112b9565b38610bc4565b63ffffffff67ffffffffffffffff92160116600052600160205273ffffffffffffffffffffffffffffffffffffffff82600020541660608601523880610bb9565b60208801805160ff166008179052610b8c565b63ffffffff67ffffffffffffffff92160116600052600160205273ffffffffffffffffffffffffffffffffffffffff6040600020541660408701523880610ad3565b60208901805160ff1660041790526109e0565b63ffffffff67ffffffffffffffff92160116600052600160205273ffffffffffffffffffffffffffffffffffffffff6040600020541660208701523880610a0f565b60208901805160ff1660021790526109e0565b67ffffffffffffffff16600052600160205273ffffffffffffffffffffffffffffffffffffffff6040600020541686523861092d565b60208801805160ff1660011790526108fe565b9350610fb560c084015160f0610fab60ff8316611255565b9160041b1661065b565b93600084526107d9565b610fdc610fd062ffffff9285610535565b826040880151166111f9565b166040850152386107ca565b60ff91965083818361100c9360501c1690848160581c60000b9160601c168a6113ee565b501680608086015262ffffff831685521594386107a7565b5060ff8160501c1615156107a2565b80518210156106805760209160051b010190565b909160005b6020808501518210156111265773ffffffffffffffffffffffffffffffffffffffff908161107b848851611033565b515116818061108b868a51611033565b51015160446040936000855197889485937fa9059cbb000000000000000000000000000000000000000000000000000000008552600485015260248401528b165af190811561111c57506110e4575b505060010161104c565b81813d8311611115575b6110f88183610447565b810103126111105751801515036111105738806110da565b600080fd5b503d6110ee565b513d6000823e3d90fd5b5050915050565b73ffffffffffffffffffffffffffffffffffffffff7f00000000000000000000000000000000000000000000000000000000000000001680156111e8576020600491604051928380927fb80777ea0000000000000000000000000000000000000000000000000000000082525afa9081156111dc576000916111ad575090565b90506020813d6020116111d4575b816111c860209383610447565b81010312611110575190565b3d91506111bb565b6040513d6000823e3d90fd5b504290565b6007821015610d9c5752565b91909162ffffff808094169116019182116104b357565b60ff7fffffffffffffffffffffffffffffffffffffffffffffffffffffffffffffffff9116019060ff82116104b357565b9060ff8091169116039060ff82116104b357565b6000906000905b60ff90818116156112b257806112728392611210565b169216908114611285576001019061125c565b6024837f4e487b710000000000000000000000000000000000000000000000000000000081526011600452fd5b5050919050565b60005b6020808301518210156113215773ffffffffffffffffffffffffffffffffffffffff806112ea848651611033565b51511690855116146112ff57506001016112bc565b90611313908261131d949501519451611033565b51019182516104e2565b9052565b505060206113628173ffffffffffffffffffffffffffffffffffffffff8551169484519561135483870197885190611033565b515201519251845190611033565b51015280517fffffffffffffffffffffffffffffffffffffffffffffffffffffffffffffffff81146104b3576001019052565b60000b7fffffffffffffffffffffffffffffffffffffffffffffffffffffffffffffff8081146104b35760000390565b9060ff169081156105065760ff160490565b9060ff8091169116029060ff82169182036104b357565b939194926000958562ffffff9360018583161015806115a6575b611415575b505050505050565b919395965091939650846114298389610535565b16928315611598579061143b916115b2565b938460000b600081136000146114e857505050906114b461149a60ff6114ba94816114a47f00000000000000000000000000000000000000000000000000000000000000009861149f61148e898c611241565b9184169687809361065b565b611210565b6113c5565b168082116114e0575b50166113d7565b9061065b565b9060ff811660ff8316116114d8575b5091905b38808080808061140d565b9050386114c9565b9050386114ad565b6000909791939695979492941260001461158b575061149a61150987611395565b61152d61151c60ff93849384168661065b565b6115258a611395565b8316906113c5565b16808711611581575b5061155261154861156c969798611395565b82168289166113d7565b9082811690821611156115725750506000945b16906111f9565b906114cd565b61157b91611241565b94611565565b9550611552611536565b90955093506114cd915050565b5050945050905091906114cd565b5060ff84161515611408565b909190600090810b13156115ea576001915b600083810b1290816115de575b506115d857565b60019150565b60ff91501615386115d1565b7fffffffffffffffffffffffffffffffffffffffffffffffffffffffffffffffff916115c4565b91909161ffff808094169116019182116104b357565b9060000b9060000b01907fffffffffffffffffffffffffffffffffffffffffffffffffffffffffffffff808212607f8313176104b357565b60030b907fffffffffffffffffffffffffffffffffffffffffffffffffffffffff800000008212637fffffff8313176104b357565b60030b7fffffffffffffffffffffffffffffffffffffffffffffffffffffffffffffffff0190637fffffff82137fffffffffffffffffffffffffffffffffffffffffffffffffffffffff800000008312176104b357565b60030b60010190637fffffff82137fffffffffffffffffffffffffffffffffffffffffffffffffffffffff800000008312176104b357565b6000916000809267ffffffffffffffff815116825281602052604082206040519061174d826103fa565b549262ffffff908185168352818560181c166020840152818560301c16604084015260ff946060840195611786818360481c16886111ed565b6080850192818360501c16845260a08601928060581c820b84528260c0880191818160601c168352818160681c1660e08a015260701c16610100880152858751169851600781101561188b57829080151590816118b8575b5060018b1015918261187d575b50506117fd575b505050505050505050565b909184819495969798999a9b5051168015158061186e575b1561185657509161183f959391816118469a969451169251900b92511692602088015116936113ee565b5091611940565b905b3880808080808080806117f2565b97955050505050506118689350611940565b90611848565b508660208a0151168a10611815565b90915061188b5738806117eb565b6024837f4e487b710000000000000000000000000000000000000000000000000000000081526021600452fd5b91509c5060808901516007811015611901578391036118db5760015b9c386117de565b7fffffffffffffffffffffffffffffffffffffffffffffffffffffffffffffffff6118d4565b6024847f4e487b710000000000000000000000000000000000000000000000000000000081526021600452fd5b60ff1660ff81116104b3576001901b90565b92919260009360009160009160ff60808601511615158061207c575b61205a575b60e085015193600f604084019561197b60ff88511661192e565b9060041c161661198e60ff87511661192e565b14611fea575b60ff6119ae60a088015160000b8260c08a015116906115b2565b95511660608401516007811015610d9c5760808501516007811015610d9c57808203611e28575b50505067ffffffffffffffff8351169062ffffff6020850151169181611a0960a08a0151820b60ff60c08c015116906115b2565b97810b13918280611e1c575b15611cd457509091929394955073ffffffffffffffffffffffffffffffffffffffff90865260016020528060408720541690611a7960ff6101008a0151167f00000000000000000000000000000000000000000000000000000000000000006104a0565b91817f0000000000000000000000000000000000000000000000000000000000000000163b15611cd0576040517fabe7f1ab00000000000000000000000000000000000000000000000000000000815273ffffffffffffffffffffffffffffffffffffffff919091166004820152602481019290925286908290604490829084907f0000000000000000000000000000000000000000000000000000000000000000165af18015611cc557908691611cad575b50509160ff9167ffffffffffffffff94935b611c80575b86521660808501525116815280602052604081209162ffffff8151169183549265ffffff000000602084015160181b1668ffffff000000000000604085015160301b16916060850151936007851015611c535750849369ff00000000000000000085946bff00000000000000000000009486947fffffffffffffffffffffffffffffffffff0000000000000000000000000000006eff00000000000000000000000000006101006dff0000000000000000000000000060e06cff00000000000000000000000060c060a06aff0000000000000000000060808f015160501b169d015160581b9e015160601b169d015160681b169c015160701b169b161717179160481b1617179116171717179055565b807f4e487b7100000000000000000000000000000000000000000000000000000000602492526021600452fd5b611c9062ffffff88511682610535565b62ffffff611ca560408a0192828451166111f9565b169052611b43565b611cb690610433565b611cc1578438611b2c565b8480fd5b6040513d88823e3d90fd5b8780fd5b91968288159182611e10575b5050611cfd575b50509060ff9167ffffffffffffffff9495611b3e565b73ffffffffffffffffffffffffffffffffffffffff807f000000000000000000000000000000000000000000000000000000000000000016918352600160205260408320541690611d7660ff6101008b0151167f00000000000000000000000000000000000000000000000000000000000000006104a0565b91813b15610266576040517ff5d82b6b00000000000000000000000000000000000000000000000000000000815273ffffffffffffffffffffffffffffffffffffffff919091166004820152602481019290925282908290604490829084905af18015611e055715611ce75767ffffffffffffffff955090611dfb60ff949392610433565b9481929350611ce7565b6040513d84823e3d90fd5b810b1390508238611ce0565b508088810b1315611a15565b80611ebc5750606088015160078110156119015703611e615750611e5160a0870151820b612087565b810b60a08701525b3880806119d5565b600160a0880151830b60000b01907fffffffffffffffffffffffffffffffffffffffffffffffffffffffffffffff808212607f8313176104b35760ff91830b60a089015281600160c08a0151921b18161660c0870152611e59565b60608901516007811015610d9c578203611f4a57505060ff60018160c08a015116921b161760c08701527ffffffffffffffffffffffffffffffffffffffffffffffffffffffffffffffffe60a0870151820b60000b01607f81137fffffffffffffffffffffffffffffffffffffffffffffffffffffffffffffff808212176104b357810b60a0870152611e59565b60608994929401516007811015610d9c5703611fab575060ff9060009215600014611fa157611f8260015b60a08a015160000b611627565b60000b60a089015281600160c08a0151921b18161660c0870152611e59565b611f826002611f75565b9115611fb8575b50611e59565b611fc860a088015160000b612087565b60000b60a088015260ff60018160c08a015116921b161760c087015238611fb2565b9650600c60ff610100870151160260ff81169081036104b35761201760ff91600f60e089015116906113c5565b169660e086015160041c60ff8651169060ff82116104b35760ff9160f061204f926001600f60e08d015116931b191660041b1661065b565b1660e0870152611994565b60ff61207160c087015160f0610fab848316611255565b1660e0860152611961565b5060ff81161561195c565b60000b7fffffffffffffffffffffffffffffffffffffffffffffffffffffffffffffffff01907fffffffffffffffffffffffffffffffffffffffffffffffffffffffffffffff808212607f8313176104b35756fea2646970667358221220a8d72c4e93a44b1ba7139ac38a0df06c66b31f4de80f8f6986218728ee40b88364736f6c63430008180033",
  "linkReferences": {},
  "deployedLinkReferences": {},
  "devdoc": {
    "errors": {
      "ReserveTooLow(uint256,uint256)": [
        {
          "params": {
            "expected": "amount required to proceed",
            "inReserve": "amount in reserver as the time of the call"
          }
        }
      ]
    },
    "events": {
      "Approval(address,address,uint256)": {
        "params": {
          "approved": "account who can know transfer on the owner's behalf",
          "owner": "current owner of the token",
          "tokenID": "id of the token being approved"
        }
      },
      "ApprovalForAll(address,address,bool)": {
        "params": {
          "approved": "whether it is approved or not",
          "operator": "account who can know transfer on the owner's behalf",
          "owner": "the account granting rights over all of its token"
        }
      },
      "CommitmentCancelled(address,uint24)": {
        "params": {
          "epoch": "epoch number on which this commit belongs to",
          "player": "account taking the staking risk (can be a different account than the one controlling the gems)"
        }
      },
      "CommitmentMade(address,uint24,bytes24)": {
        "params": {
          "commitmentHash": "the hash of moves",
          "epoch": "epoch number on which this commit belongs to",
          "player": "account taking the staking risk (can be a different account than the one controlling the gems)"
        }
      },
      "CommitmentRevealed(address,uint24,bytes24,(uint64,uint8)[],bytes24,uint256)": {
        "params": {
          "commitmentHash": "the hash of the moves",
          "epoch": "epoch number on which this commit belongs to",
          "furtherMoves": "hash of further moves, unless bytes32(0) which indicate end.",
          "moves": "the moves",
          "player": "account who commited"
        }
      },
      "CommitmentVoid(address,uint24,uint256,bytes24)": {
        "params": {
          "amountBurnt": "amount of token to burn",
          "epoch": "epoch number on which this commit belongs to",
          "furtherMoves": "hash of further moves, unless bytes32(0) which indicate end.",
          "player": "the account that made the commitment"
        }
      },
      "MoveProcessed(uint64,address,uint8,uint8)": {
        "params": {
          "newColor": "color that takes over",
          "oldColor": "previous color of the cell",
          "player": "account making the move",
          "position": "cell at which the move take place"
        }
      },
      "MultiPoke(uint24,uint64[])": {
        "params": {
          "epoch": "epoch number at which the poke take place",
          "positions": "cells to poke"
        }
      },
      "ReserveDeposited(address,uint256,uint256)": {
        "params": {
          "amountDeposited": "the number of tokens deposited",
          "newAmount": "the number of tokens in reserver as a result",
          "player": "account receiving the token in the reserve"
        }
      },
      "ReserveWithdrawn(address,uint256,uint256)": {
        "params": {
          "amountWithdrawn": "the number of tokens withdrawnn",
          "newAmount": "the number of tokens in reserver as a result",
          "player": "account withdrawing the tokens"
        }
      },
      "SinglePoke(uint24,uint64)": {
        "params": {
          "epoch": "epoch number at which the poke take place",
          "position": "cell to poke"
        }
      },
      "Transfer(address,address,uint256)": {
        "params": {
          "from": "the account the token is sent from",
          "to": "the account the token is sent to",
          "tokenID": "id of the token being sent"
        }
      }
    },
    "kind": "dev",
    "methods": {
      "poke(uint64)": {
        "params": {
          "position": "the cell position"
        }
      },
      "pokeMultiple(uint64[])": {
        "params": {
          "positions": "cell positions to collect from"
        }
      }
    },
    "version": 1
  },
  "evm": {
    "gasEstimates": {
      "creation": {
        "codeDepositCost": "1693000",
        "executionCost": "infinite",
        "totalCost": "infinite"
      },
      "external": {
        "poke(uint64)": "infinite",
        "pokeMultiple(uint64[])": "infinite"
      }
    }
  },
  "storageLayout": {
    "storage": [
      {
        "astId": 14440,
        "contract": "src/game/routes/StratagemsPoke.sol:StratagemsPoke",
        "label": "_cells",
        "offset": 0,
        "slot": "0",
        "type": "t_mapping(t_uint256,t_struct(Cell)11527_storage)"
      },
      {
        "astId": 14444,
        "contract": "src/game/routes/StratagemsPoke.sol:StratagemsPoke",
        "label": "_owners",
        "offset": 0,
        "slot": "1",
        "type": "t_mapping(t_uint256,t_uint256)"
      },
      {
        "astId": 14447,
        "contract": "src/game/routes/StratagemsPoke.sol:StratagemsPoke",
        "label": "_discovered",
        "offset": 0,
        "slot": "2",
        "type": "t_struct(Discovered)11507_storage"
      },
      {
        "astId": 14451,
        "contract": "src/game/routes/StratagemsPoke.sol:StratagemsPoke",
        "label": "_tokensInReserve",
        "offset": 0,
        "slot": "3",
        "type": "t_mapping(t_address,t_uint256)"
      },
      {
        "astId": 14456,
        "contract": "src/game/routes/StratagemsPoke.sol:StratagemsPoke",
        "label": "_commitments",
        "offset": 0,
        "slot": "4",
        "type": "t_mapping(t_address,t_struct(Commitment)11532_storage)"
      },
      {
        "astId": 14462,
        "contract": "src/game/routes/StratagemsPoke.sol:StratagemsPoke",
        "label": "_operatorsForAll",
        "offset": 0,
        "slot": "5",
        "type": "t_mapping(t_address,t_mapping(t_address,t_bool))"
      },
      {
        "astId": 14466,
        "contract": "src/game/routes/StratagemsPoke.sol:StratagemsPoke",
        "label": "_operators",
        "offset": 0,
        "slot": "6",
        "type": "t_mapping(t_uint256,t_address)"
      }
    ],
    "types": {
      "t_address": {
        "encoding": "inplace",
        "label": "address",
        "numberOfBytes": "20"
      },
      "t_bool": {
        "encoding": "inplace",
        "label": "bool",
        "numberOfBytes": "1"
      },
      "t_bytes24": {
        "encoding": "inplace",
        "label": "bytes24",
        "numberOfBytes": "24"
      },
      "t_enum(Color)11433": {
        "encoding": "inplace",
        "label": "enum UsingStratagemsTypes.Color",
        "numberOfBytes": "1"
      },
      "t_int8": {
        "encoding": "inplace",
        "label": "int8",
        "numberOfBytes": "1"
      },
      "t_mapping(t_address,t_bool)": {
        "encoding": "mapping",
        "key": "t_address",
        "label": "mapping(address => bool)",
        "numberOfBytes": "32",
        "value": "t_bool"
      },
      "t_mapping(t_address,t_mapping(t_address,t_bool))": {
        "encoding": "mapping",
        "key": "t_address",
        "label": "mapping(address => mapping(address => bool))",
        "numberOfBytes": "32",
        "value": "t_mapping(t_address,t_bool)"
      },
      "t_mapping(t_address,t_struct(Commitment)11532_storage)": {
        "encoding": "mapping",
        "key": "t_address",
        "label": "mapping(address => struct UsingStratagemsTypes.Commitment)",
        "numberOfBytes": "32",
        "value": "t_struct(Commitment)11532_storage"
      },
      "t_mapping(t_address,t_uint256)": {
        "encoding": "mapping",
        "key": "t_address",
        "label": "mapping(address => uint256)",
        "numberOfBytes": "32",
        "value": "t_uint256"
      },
      "t_mapping(t_uint256,t_address)": {
        "encoding": "mapping",
        "key": "t_uint256",
        "label": "mapping(uint256 => address)",
        "numberOfBytes": "32",
        "value": "t_address"
      },
      "t_mapping(t_uint256,t_struct(Cell)11527_storage)": {
        "encoding": "mapping",
        "key": "t_uint256",
        "label": "mapping(uint256 => struct UsingStratagemsTypes.Cell)",
        "numberOfBytes": "32",
        "value": "t_struct(Cell)11527_storage"
      },
      "t_mapping(t_uint256,t_uint256)": {
        "encoding": "mapping",
        "key": "t_uint256",
        "label": "mapping(uint256 => uint256)",
        "numberOfBytes": "32",
        "value": "t_uint256"
      },
      "t_struct(Cell)11527_storage": {
        "encoding": "inplace",
        "label": "struct UsingStratagemsTypes.Cell",
        "members": [
          {
            "astId": 11509,
            "contract": "src/game/routes/StratagemsPoke.sol:StratagemsPoke",
            "label": "lastEpochUpdate",
            "offset": 0,
            "slot": "0",
            "type": "t_uint24"
          },
          {
            "astId": 11511,
            "contract": "src/game/routes/StratagemsPoke.sol:StratagemsPoke",
            "label": "epochWhenTokenIsAdded",
            "offset": 3,
            "slot": "0",
            "type": "t_uint24"
          },
          {
            "astId": 11513,
            "contract": "src/game/routes/StratagemsPoke.sol:StratagemsPoke",
            "label": "producingEpochs",
            "offset": 6,
            "slot": "0",
            "type": "t_uint24"
          },
          {
            "astId": 11516,
            "contract": "src/game/routes/StratagemsPoke.sol:StratagemsPoke",
            "label": "color",
            "offset": 9,
            "slot": "0",
            "type": "t_enum(Color)11433"
          },
          {
            "astId": 11518,
            "contract": "src/game/routes/StratagemsPoke.sol:StratagemsPoke",
            "label": "life",
            "offset": 10,
            "slot": "0",
            "type": "t_uint8"
          },
          {
            "astId": 11520,
            "contract": "src/game/routes/StratagemsPoke.sol:StratagemsPoke",
            "label": "delta",
            "offset": 11,
            "slot": "0",
            "type": "t_int8"
          },
          {
            "astId": 11522,
            "contract": "src/game/routes/StratagemsPoke.sol:StratagemsPoke",
            "label": "enemyMap",
            "offset": 12,
            "slot": "0",
            "type": "t_uint8"
          },
          {
            "astId": 11524,
            "contract": "src/game/routes/StratagemsPoke.sol:StratagemsPoke",
            "label": "distribution",
            "offset": 13,
            "slot": "0",
            "type": "t_uint8"
          },
          {
            "astId": 11526,
            "contract": "src/game/routes/StratagemsPoke.sol:StratagemsPoke",
            "label": "stake",
            "offset": 14,
            "slot": "0",
            "type": "t_uint8"
          }
        ],
        "numberOfBytes": "32"
      },
      "t_struct(Commitment)11532_storage": {
        "encoding": "inplace",
        "label": "struct UsingStratagemsTypes.Commitment",
        "members": [
          {
            "astId": 11529,
            "contract": "src/game/routes/StratagemsPoke.sol:StratagemsPoke",
            "label": "hash",
            "offset": 0,
            "slot": "0",
            "type": "t_bytes24"
          },
          {
            "astId": 11531,
            "contract": "src/game/routes/StratagemsPoke.sol:StratagemsPoke",
            "label": "epoch",
            "offset": 24,
            "slot": "0",
            "type": "t_uint24"
          }
        ],
        "numberOfBytes": "32"
      },
      "t_struct(Discovered)11507_storage": {
        "encoding": "inplace",
        "label": "struct UsingStratagemsTypes.Discovered",
        "members": [
          {
            "astId": 11500,
            "contract": "src/game/routes/StratagemsPoke.sol:StratagemsPoke",
            "label": "minX",
            "offset": 0,
            "slot": "0",
            "type": "t_uint32"
          },
          {
            "astId": 11502,
            "contract": "src/game/routes/StratagemsPoke.sol:StratagemsPoke",
            "label": "maxX",
            "offset": 4,
            "slot": "0",
            "type": "t_uint32"
          },
          {
            "astId": 11504,
            "contract": "src/game/routes/StratagemsPoke.sol:StratagemsPoke",
            "label": "minY",
            "offset": 8,
            "slot": "0",
            "type": "t_uint32"
          },
          {
            "astId": 11506,
            "contract": "src/game/routes/StratagemsPoke.sol:StratagemsPoke",
            "label": "maxY",
            "offset": 12,
            "slot": "0",
            "type": "t_uint32"
          }
        ],
        "numberOfBytes": "32"
      },
      "t_uint24": {
        "encoding": "inplace",
        "label": "uint24",
        "numberOfBytes": "3"
      },
      "t_uint256": {
        "encoding": "inplace",
        "label": "uint256",
        "numberOfBytes": "32"
      },
      "t_uint32": {
        "encoding": "inplace",
        "label": "uint32",
        "numberOfBytes": "4"
      },
      "t_uint8": {
        "encoding": "inplace",
        "label": "uint8",
        "numberOfBytes": "1"
      }
    }
  },
  "userdoc": {
    "errors": {
      "CanStillReveal()": [
        {
          "notice": "Player have to reveal if they can Stratagems will prevent them from acknowledging missed reveal if there is still time to reveal."
        }
      ],
      "CommitmentHashNotMatching()": [
        {
          "notice": "Player have to reveal their commitment using the exact same move values  If they provide different value, the commitment hash will differ and Stratagems will reject their reveal."
        }
      ],
      "GameNotStarted()": [
        {
          "notice": "Game has not started yet, can't perform any action"
        }
      ],
      "ImpossibleConfiguration()": [
        {
          "notice": "The cell configuration is invalid This can happen win debug mode where admin can setup cell bypassing moves rules For example when setting up neighborood configuration that would require a cell to have negative life"
        }
      ],
      "InCommitmentPhase()": [
        {
          "notice": "When in Commit phase, player can make new commitment but they cannot reveal their move yet."
        }
      ],
      "InRevealPhase()": [
        {
          "notice": "When in Reveal phase, it is not possible to commit new moves or cancel previous commitment  During Reveal phase, players have to reveal their commitment, if not already done."
        }
      ],
      "InvalidEpoch()": [
        {
          "notice": "Player can only reveal their move in the same epoch they commited.abi  If a player reveal later it can only do to minimize the reserve burn cost by calling : `acknowledgeMissedReveal`"
        }
      ],
      "InvalidFurtherMoves()": [
        {
          "notice": "Player can make arbitrary number of moves per epoch. To do so they group moves into (MAX_NUM_MOVES_PER_HASH = 32) moves  This result in a recursive series of hash that they can then submit in turn while revealing.  The limit  (MAX_NUM_MOVES_PER_HASH = 32) ensure a reveal batch fits in a block."
        }
      ],
      "NothingToReveal()": [
        {
          "notice": "Player can only reveal moves they commited."
        }
      ],
      "PreviousCommitmentNotRevealed()": [
        {
          "notice": "Previous commitment need to be revealed before making a new one. Even if the corresponding reveal phase has passed.\\  It is also not possible to withdraw any amount from reserve until the commitment is revealed.\\If player lost the information to reveal, it can acknowledge failure which will burn all its reserve.\\"
        }
      ],
      "ReserveTooLow(uint256,uint256)": [
        {
          "notice": "to make a commitment you always need at least one `config.numTokensPerGems` amount in reserve  Player also need one `config.numTokensPerGems`  per moves during the Reveal phase."
        }
      ]
    },
    "events": {
      "Approval(address,address,uint256)": {
        "notice": "Triggered when a token is approved to be sent by another account  Note tat the approval get reset when a Transfer event for that same token is emitted."
      },
      "ApprovalForAll(address,address,bool)": {
        "notice": "Triggered when an account approve or disaprove another to transfer on its behalf"
      },
      "CommitmentCancelled(address,uint24)": {
        "notice": "A player has cancelled its current commitment (before it reached the reveal phase)"
      },
      "CommitmentMade(address,uint24,bytes24)": {
        "notice": "A player has commited to make a move and reveal it on the reveal phase"
      },
      "CommitmentRevealed(address,uint24,bytes24,(uint64,uint8)[],bytes24,uint256)": {
        "notice": "Player has revealed its previous commitment"
      },
      "CommitmentVoid(address,uint24,uint256,bytes24)": {
        "notice": "A player has canceled a previous commitment by burning some tokens"
      },
      "MoveProcessed(uint64,address,uint8,uint8)": {
        "notice": "A move has been revealed."
      },
      "MultiPoke(uint24,uint64[])": {
        "notice": "poke multiple cells and update them if needed"
      },
      "ReserveDeposited(address,uint256,uint256)": {
        "notice": "Player has deposited token in the reserve, allowing it to use that much in game"
      },
      "ReserveWithdrawn(address,uint256,uint256)": {
        "notice": "Player have withdrawn token from the reserve"
      },
      "SinglePoke(uint24,uint64)": {
        "notice": "poke cell and update it if needed"
      },
      "Transfer(address,address,uint256)": {
        "notice": "Triggered when a token is transferred"
      }
    },
    "kind": "user",
    "methods": {
      "pokeMultiple(uint64[])": {
        "notice": "poke and collect the tokens won across multiple cells"
      }
    },
    "version": 1
  },
  "argsData": "0x0000000000000000000000003ab3844d5d6614febbe19d59244a815cff691a17000000000000000000000000deaddeaddeaddeaddeaddeaddeaddeaddeaddead000000000000000000000000000000000000000000000000000000000000000000000000000000000000000000000000000000000000000000000000000143700000000000000000000000000000000000000000000000000000000000000e1000000000000000000000000000000000000000000000000000000000000000070000000000000000000000000000000000000000000000000de0b6b3a76400000000000000000000000000006de75a33cf63fea42ea8e5bafadaa1c80c246c6d00000000000000000000000033a0d701f0619afb407963d6b7f9781dc40f9fcf",
  "transaction": {
    "hash": "0x4262a8b9e045f3ee11e2dd53f6d209cc65bff4aed42a41b46686ae639341a4af",
    "origin": "0x61c461ecc993aadeb7e4b47e96d1b8cc37314b20"
  }
}