{
  "address": "0x8e7fe26181e585a228b0c4392c98c5c6c09b8d98",
  "abi": [
    {
      "inputs": [
        {
          "components": [
            {
              "internalType": "contract IERC20WithIERC2612",
              "name": "tokens",
              "type": "address"
            },
            {
              "internalType": "address payable",
              "name": "burnAddress",
              "type": "address"
            },
            {
              "internalType": "uint256",
              "name": "startTime",
              "type": "uint256"
            },
            {
              "internalType": "uint256",
              "name": "commitPhaseDuration",
              "type": "uint256"
            },
            {
              "internalType": "uint256",
              "name": "revealPhaseDuration",
              "type": "uint256"
            },
            {
              "internalType": "uint8",
              "name": "maxLife",
              "type": "uint8"
            },
            {
              "internalType": "uint256",
              "name": "numTokensPerGems",
              "type": "uint256"
            },
            {
              "internalType": "contract ITime",
              "name": "time",
              "type": "address"
            },
            {
              "internalType": "contract IOnStakeChange",
              "name": "generator",
              "type": "address"
            }
          ],
          "internalType": "struct UsingStratagemsTypes.Config",
          "name": "config",
          "type": "tuple"
        }
      ],
      "stateMutability": "nonpayable",
      "type": "constructor"
    },
    {
      "inputs": [],
      "name": "CanStillReveal",
      "type": "error"
    },
    {
      "inputs": [],
      "name": "CommitmentHashNotMatching",
      "type": "error"
    },
    {
      "inputs": [],
      "name": "GameNotStarted",
      "type": "error"
    },
    {
      "inputs": [],
      "name": "ImpossibleConfiguration",
      "type": "error"
    },
    {
      "inputs": [],
      "name": "InCommitmentPhase",
      "type": "error"
    },
    {
      "inputs": [],
      "name": "InRevealPhase",
      "type": "error"
    },
    {
      "inputs": [],
      "name": "InvalidEpoch",
      "type": "error"
    },
    {
      "inputs": [],
      "name": "InvalidFurtherMoves",
      "type": "error"
    },
    {
      "inputs": [],
      "name": "NothingToReveal",
      "type": "error"
    },
    {
      "inputs": [],
      "name": "PreviousCommitmentNotRevealed",
      "type": "error"
    },
    {
      "inputs": [
        {
          "internalType": "uint256",
          "name": "inReserve",
          "type": "uint256"
        },
        {
          "internalType": "uint256",
          "name": "expected",
          "type": "uint256"
        }
      ],
      "name": "ReserveTooLow",
      "type": "error"
    },
    {
      "anonymous": false,
      "inputs": [
        {
          "indexed": true,
          "internalType": "address",
          "name": "owner",
          "type": "address"
        },
        {
          "indexed": true,
          "internalType": "address",
          "name": "approved",
          "type": "address"
        },
        {
          "indexed": true,
          "internalType": "uint256",
          "name": "tokenID",
          "type": "uint256"
        }
      ],
      "name": "Approval",
      "type": "event"
    },
    {
      "anonymous": false,
      "inputs": [
        {
          "indexed": true,
          "internalType": "address",
          "name": "owner",
          "type": "address"
        },
        {
          "indexed": true,
          "internalType": "address",
          "name": "operator",
          "type": "address"
        },
        {
          "indexed": false,
          "internalType": "bool",
          "name": "approved",
          "type": "bool"
        }
      ],
      "name": "ApprovalForAll",
      "type": "event"
    },
    {
      "anonymous": false,
      "inputs": [
        {
          "indexed": true,
          "internalType": "address",
          "name": "player",
          "type": "address"
        },
        {
          "indexed": true,
          "internalType": "uint24",
          "name": "epoch",
          "type": "uint24"
        }
      ],
      "name": "CommitmentCancelled",
      "type": "event"
    },
    {
      "anonymous": false,
      "inputs": [
        {
          "indexed": true,
          "internalType": "address",
          "name": "player",
          "type": "address"
        },
        {
          "indexed": true,
          "internalType": "uint24",
          "name": "epoch",
          "type": "uint24"
        },
        {
          "indexed": false,
          "internalType": "bytes24",
          "name": "commitmentHash",
          "type": "bytes24"
        }
      ],
      "name": "CommitmentMade",
      "type": "event"
    },
    {
      "anonymous": false,
      "inputs": [
        {
          "indexed": true,
          "internalType": "address",
          "name": "player",
          "type": "address"
        },
        {
          "indexed": true,
          "internalType": "uint24",
          "name": "epoch",
          "type": "uint24"
        },
        {
          "indexed": true,
          "internalType": "bytes24",
          "name": "commitmentHash",
          "type": "bytes24"
        },
        {
          "components": [
            {
              "internalType": "uint64",
              "name": "position",
              "type": "uint64"
            },
            {
              "internalType": "enum UsingStratagemsTypes.Color",
              "name": "color",
              "type": "uint8"
            }
          ],
          "indexed": false,
          "internalType": "struct UsingStratagemsTypes.Move[]",
          "name": "moves",
          "type": "tuple[]"
        },
        {
          "indexed": false,
          "internalType": "bytes24",
          "name": "furtherMoves",
          "type": "bytes24"
        },
        {
          "indexed": false,
          "internalType": "uint256",
          "name": "newReserveAmount",
          "type": "uint256"
        }
      ],
      "name": "CommitmentRevealed",
      "type": "event"
    },
    {
      "anonymous": false,
      "inputs": [
        {
          "indexed": true,
          "internalType": "address",
          "name": "player",
          "type": "address"
        },
        {
          "indexed": true,
          "internalType": "uint24",
          "name": "epoch",
          "type": "uint24"
        },
        {
          "indexed": false,
          "internalType": "uint256",
          "name": "amountBurnt",
          "type": "uint256"
        },
        {
          "indexed": false,
          "internalType": "bytes24",
          "name": "furtherMoves",
          "type": "bytes24"
        }
      ],
      "name": "CommitmentVoid",
      "type": "event"
    },
    {
      "anonymous": false,
      "inputs": [
        {
          "indexed": true,
          "internalType": "uint64",
          "name": "position",
          "type": "uint64"
        },
        {
          "indexed": true,
          "internalType": "address",
          "name": "player",
          "type": "address"
        },
        {
          "indexed": false,
          "internalType": "enum UsingStratagemsTypes.Color",
          "name": "oldColor",
          "type": "uint8"
        },
        {
          "indexed": false,
          "internalType": "enum UsingStratagemsTypes.Color",
          "name": "newColor",
          "type": "uint8"
        }
      ],
      "name": "MoveProcessed",
      "type": "event"
    },
    {
      "anonymous": false,
      "inputs": [
        {
          "indexed": true,
          "internalType": "uint24",
          "name": "epoch",
          "type": "uint24"
        },
        {
          "indexed": false,
          "internalType": "uint64[]",
          "name": "positions",
          "type": "uint64[]"
        }
      ],
      "name": "MultiPoke",
      "type": "event"
    },
    {
      "anonymous": false,
      "inputs": [
        {
          "indexed": true,
          "internalType": "address",
          "name": "player",
          "type": "address"
        },
        {
          "indexed": false,
          "internalType": "uint256",
          "name": "amountDeposited",
          "type": "uint256"
        },
        {
          "indexed": false,
          "internalType": "uint256",
          "name": "newAmount",
          "type": "uint256"
        }
      ],
      "name": "ReserveDeposited",
      "type": "event"
    },
    {
      "anonymous": false,
      "inputs": [
        {
          "indexed": true,
          "internalType": "address",
          "name": "player",
          "type": "address"
        },
        {
          "indexed": false,
          "internalType": "uint256",
          "name": "amountWithdrawn",
          "type": "uint256"
        },
        {
          "indexed": false,
          "internalType": "uint256",
          "name": "newAmount",
          "type": "uint256"
        }
      ],
      "name": "ReserveWithdrawn",
      "type": "event"
    },
    {
      "anonymous": false,
      "inputs": [
        {
          "indexed": true,
          "internalType": "uint24",
          "name": "epoch",
          "type": "uint24"
        },
        {
          "indexed": false,
          "internalType": "uint64",
          "name": "position",
          "type": "uint64"
        }
      ],
      "name": "SinglePoke",
      "type": "event"
    },
    {
      "anonymous": false,
      "inputs": [
        {
          "indexed": true,
          "internalType": "address",
          "name": "from",
          "type": "address"
        },
        {
          "indexed": true,
          "internalType": "address",
          "name": "to",
          "type": "address"
        },
        {
          "indexed": true,
          "internalType": "uint256",
          "name": "tokenID",
          "type": "uint256"
        }
      ],
      "name": "Transfer",
      "type": "event"
    },
    {
      "inputs": [
        {
          "internalType": "address",
          "name": "player",
          "type": "address"
        },
        {
          "internalType": "bytes32",
          "name": "secret",
          "type": "bytes32"
        },
        {
          "components": [
            {
              "internalType": "uint64",
              "name": "position",
              "type": "uint64"
            },
            {
              "internalType": "enum UsingStratagemsTypes.Color",
              "name": "color",
              "type": "uint8"
            }
          ],
          "internalType": "struct UsingStratagemsTypes.Move[]",
          "name": "moves",
          "type": "tuple[]"
        },
        {
          "internalType": "bytes24",
          "name": "furtherMoves",
          "type": "bytes24"
        }
      ],
      "name": "acknowledgeMissedReveal",
      "outputs": [],
      "stateMutability": "nonpayable",
      "type": "function"
    },
    {
      "inputs": [],
      "name": "acknowledgeMissedRevealByBurningAllReserve",
      "outputs": [],
      "stateMutability": "nonpayable",
      "type": "function"
    },
    {
      "inputs": [
        {
          "internalType": "address",
          "name": "player",
          "type": "address"
        },
        {
          "internalType": "bytes32",
          "name": "secret",
          "type": "bytes32"
        },
        {
          "components": [
            {
              "internalType": "uint64",
              "name": "position",
              "type": "uint64"
            },
            {
              "internalType": "enum UsingStratagemsTypes.Color",
              "name": "color",
              "type": "uint8"
            }
          ],
          "internalType": "struct UsingStratagemsTypes.Move[]",
          "name": "moves",
          "type": "tuple[]"
        },
        {
          "internalType": "bytes24",
          "name": "furtherMoves",
          "type": "bytes24"
        },
        {
          "internalType": "bool",
          "name": "useReserve",
          "type": "bool"
        },
        {
          "internalType": "address payable",
          "name": "payee",
          "type": "address"
        }
      ],
      "name": "reveal",
      "outputs": [],
      "stateMutability": "payable",
      "type": "function"
    }
  ],
  "contractName": "StratagemsReveal",
  "sourceName": "src/game/routes/StratagemsReveal.sol",
  "bytecode": "0x6101a034620002405762003ae2601f38829003908101601f19168301906001600160401b039081831185841017620002455780859460409485528539610120938491810103126200024057815190838201908111828210176200024557825283516001600160a01b0390818116810362000240578252602085015190808216820362000240576020830191825283860151928481019384526060870151906060810191825260808801516080820190815260a08901519060ff82168203620002405760a0830191825260c08a01519360c0840194855260e08b01519386851694858103620002405760e0820152610100809c01519787891689036200024057878260ff978f8395019b8c52608052511660a0525116976101609889525160c0525160e052518952511686525191610140928352511692610180938452519361388695866200025c87396080518661131e015260a05186818161039d015281816106dc0152818161079901528181610ac20152610cc8015260c0518661107d015260e051866110280152518561104d015251848181611529015281816128480152612c2e01525183818161158001528181611a8e01528181611c5901528181611e8a015281816125050152818161279401528181612880015281816131d901526134d201525182818161069301528181610a720152610c78015251818181611c9001528181612014015281816120a6015281816120fd0152818161218a015281816122320152818161235f015281816132010152818161328001526134950152f35b600080fd5b634e487b7160e01b600052604160045260246000fdfe610100604052600436101561001357600080fd5b60003560e01c80631fdd8a6914610ba1578063599a71c6146109065763d40197831461003e57600080fd5b60c07ffffffffffffffffffffffffffffffffffffffffffffffffffffffffffffffffc36011261058657610070610d48565b60443567ffffffffffffffff811161058657610090903690600401610d6b565b90610099610d9c565b906084359384151585036105865760a4359473ffffffffffffffffffffffffffffffffffffffff861686036105865773ffffffffffffffffffffffffffffffffffffffff821660005260046020526040600020956100f5611026565b9490946108dc5787549262ffffff93848160c01c1680156108b25785881603610888578761013591610128368c87610ee9565b906024359060401b611186565b15610881576000965b610149368284610ee9565b938451998a60058102046005148b1517156108525761016a60058c02610ebc565b9a6040519b610179908d610e63565b600502808c5261018890610ebc565b7fffffffffffffffffffffffffffffffffffffffffffffffffffffffffffffffe00160005b81811061082c5750506040519a6101c38c610dcb565b8b52600060208c01526101d4611294565b9860005b8c8851821015610238579061022d61021560408e6102218f8f978f916001996102048a61020b956112c4565b51926113db565b9590918451610fb8565b83526020830151610fb8565b60208201520151610fb8565b60408d0152016101d8565b9a999750508a97959773ffffffffffffffffffffffffffffffffffffffff87166000526003602052604060002054906102778b5160208d015190610fb8565b82106107e55773ffffffffffffffffffffffffffffffffffffffff811661061a57506102b66040916102b08c6020815191015190610fb8565b90610f6f565b9973ffffffffffffffffffffffffffffffffffffffff881660005260036020528a82600020555b0151806105e0575b5060005b60208b0151811015610410578060208c8161032b8473ffffffffffffffffffffffffffffffffffffffff6103216103829886516112c4565b51511693516112c4565b5101516040517fa9059cbb00000000000000000000000000000000000000000000000000000000815273ffffffffffffffffffffffffffffffffffffffff9092166004830152602482015292839081906044820190565b0381600073ffffffffffffffffffffffffffffffffffffffff7f0000000000000000000000000000000000000000000000000000000000000000165af1918215610404576001926103d5575b50016102e9565b6103f69060203d6020116103fd575b6103ee8183610e63565b810190610ea4565b508c6103ce565b503d6103e4565b6040513d6000823e3d90fd5b5081547fffffffffffffffffffffffffffffffffffffffffffffffff00000000000000009290918a918482169182156105b5576020880361058b5760401c7fffffffffffffffff0000000000000000000000000000000000000000000000008254161790555b60405195806060880160608952526080870197906000905b808210610540575050509273ffffffffffffffffffffffffffffffffffffffff92869592869560207ffab312c5020dc7093e590463878dbfd0567314a7c155b164a60430ebcc7b3803990152604086015260401b1697169516930390a473ffffffffffffffffffffffffffffffffffffffff811661050857005b600080808093813415610537575b73ffffffffffffffffffffffffffffffffffffffff34921690f11561040457005b506108fc610516565b90919867ffffffffffffffff6105558b610ed4565b16815260208a01359060078210156105865760408161057b600194602084950190610f7c565b019a0192019061048e565b600080fd5b60046040517fcc586b45000000000000000000000000000000000000000000000000000000008152fd5b507fffffffffff000000ffffffffffffffffffffffffffffffffffffffffffffffff84169055610476565b604051610614916105f082610dcb565b73ffffffffffffffffffffffffffffffffffffffff8916825260208201528b6129c6565b8a6102e5565b909980518061072c575b5060208101518061063a575b50604091506102dd565b73ffffffffffffffffffffffffffffffffffffffff604051937f23b872dd00000000000000000000000000000000000000000000000000000000855216600484015273ffffffffffffffffffffffffffffffffffffffff7f00000000000000000000000000000000000000000000000000000000000000001660248401526044830152602082606481600073ffffffffffffffffffffffffffffffffffffffff7f0000000000000000000000000000000000000000000000000000000000000000165af19182156104045760409215610630576107259060203d6020116103fd576103ee8183610e63565b508c610630565b604051907f23b872dd00000000000000000000000000000000000000000000000000000000825273ffffffffffffffffffffffffffffffffffffffff841660048301523060248301526044820152602081606481600073ffffffffffffffffffffffffffffffffffffffff7f0000000000000000000000000000000000000000000000000000000000000000165af180156104045715610624576107de9060203d6020116103fd576103ee8183610e63565b508c610624565b6044826107f98d6020815191015190610fb8565b604051917f78fe52a600000000000000000000000000000000000000000000000000000000835260048301526024820152fd5b808d602080936040519261083f84610dcb565b60008452600083850152010152016101ad565b7f4e487b7100000000000000000000000000000000000000000000000000000000600052601160045260246000fd5b839661013e565b60046040517fd5b25b63000000000000000000000000000000000000000000000000000000008152fd5b60046040517f6599c9aa000000000000000000000000000000000000000000000000000000008152fd5b60046040517f24f7f40f000000000000000000000000000000000000000000000000000000008152fd5b346105865760807ffffffffffffffffffffffffffffffffffffffffffffffffffffffffffffffffc3601126105865761093d610d48565b60443567ffffffffffffffff81116105865761095d903690600401610d6b565b91610966610d9c565b73ffffffffffffffffffffffffffffffffffffffff809216928360005260209160048352604060002090610998611026565b509180549162ffffff94858460c01c168015908115610b95575b50610b6b57816109c76109d3928c3691610ee9565b6024358660401b611186565b7fffffffffffffffffffffffffffffffffffffffffffffffff00000000000000008116928315610b40575085890361058b5760401c7fffffffffffffffff0000000000000000000000000000000000000000000000008254161790555b33600052600384526040600020610a48888254610f6f565b90556040517fa9059cbb0000000000000000000000000000000000000000000000000000000081527f000000000000000000000000000000000000000000000000000000000000000073ffffffffffffffffffffffffffffffffffffffff16600482015260248101889052948490869060449082906000907f0000000000000000000000000000000000000000000000000000000000000000165af1938415610404577f6337d70daadadd11f8be7f6e7b38e6c04d28710b1f2a2894bb14d8e3eaa8cdb695604095610b23575b5084519788528701521693a3005b610b3990823d84116103fd576103ee8183610e63565b5088610b15565b7fffffffffff000000ffffffffffffffffffffffffffffffffffffffffffffffff9150169055610a30565b60046040517f175868d7000000000000000000000000000000000000000000000000000000008152fd5b9050868616148b6109b2565b346105865760007ffffffffffffffffffffffffffffffffffffffffffffffffffffffffffffffffc3601126105865733600052602060048152604060002090610be8611026565b5091805462ffffff808260c01c169485156108b25716809414610b6b577fffffffffff000000ffffffffffffffffffffffffffffffffffffffffffffffff1690553360009081526003825260408082208054929055517fa9059cbb00000000000000000000000000000000000000000000000000000000815273ffffffffffffffffffffffffffffffffffffffff7f0000000000000000000000000000000000000000000000000000000000000000166004820152602481018290529091808280604481010381600073ffffffffffffffffffffffffffffffffffffffff7f0000000000000000000000000000000000000000000000000000000000000000165af191821561040457600092610d2b575b506040519283528201527f6337d70daadadd11f8be7f6e7b38e6c04d28710b1f2a2894bb14d8e3eaa8cdb660403392a3005b610d4190823d84116103fd576103ee8183610e63565b5084610cf9565b6004359073ffffffffffffffffffffffffffffffffffffffff8216820361058657565b9181601f840112156105865782359167ffffffffffffffff8311610586576020808501948460061b01011161058657565b606435907fffffffffffffffffffffffffffffffffffffffffffffffff00000000000000008216820361058657565b6040810190811067ffffffffffffffff821117610de757604052565b7f4e487b7100000000000000000000000000000000000000000000000000000000600052604160045260246000fd5b610120810190811067ffffffffffffffff821117610de757604052565b60a0810190811067ffffffffffffffff821117610de757604052565b67ffffffffffffffff8111610de757604052565b90601f7fffffffffffffffffffffffffffffffffffffffffffffffffffffffffffffffe0910116810190811067ffffffffffffffff821117610de757604052565b90816020910312610586575180151581036105865790565b67ffffffffffffffff8111610de75760051b60200190565b359067ffffffffffffffff8216820361058657565b929192610ef582610ebc565b604092610f056040519283610e63565b819581835260208093019160061b84019381851161058657915b848310610f2e57505050505050565b858383031261058657855190610f4382610dcb565b610f4c84610ed4565b82528484013590600782101561058657828692838a950152815201920191610f1f565b9190820391821161085257565b906007821015610f895752565b7f4e487b7100000000000000000000000000000000000000000000000000000000600052602160045260246000fd5b9190820180921161085257565b8115610fcf570490565b7f4e487b7100000000000000000000000000000000000000000000000000000000600052601260045260246000fd5b62ffffff918216908216039190821161085257565b8181029291811591840414171561085257565b7f0000000000000000000000000000000000000000000000000000000000000000906110727f000000000000000000000000000000000000000000000000000000000000000083610fb8565b9161107b611307565b7f0000000000000000000000000000000000000000000000000000000000000000808210611107576110ac91610f6f565b6110b68482610fc5565b90600282018092116108525762ffffff809216947ffffffffffffffffffffffffffffffffffffffffffffffffffffffffffffffffe86019083821161085257611103936102b09216611013565b1090565b60046040517f3a5f7b57000000000000000000000000000000000000000000000000000000008152fd5b90815180825260208080930193019160005b828110611151575050505090565b9091929382604060019261117a83895167ffffffffffffffff8151168452015184830190610f7c565b01950193929101611143565b927fffffffffffffffffffffffffffffffffffffffffffffffff00000000000000009283929183168015611243576111da9161120c9160405193849260208401968752606060408501526080840190611131565b906060830152037fffffffffffffffffffffffffffffffffffffffffffffffffffffffffffffffe08101835282610e63565b5190201691160361121957565b60046040517fd13415b5000000000000000000000000000000000000000000000000000000008152fd5b5061120c61126891604051928391602083019586526040808401526060830190611131565b037fffffffffffffffffffffffffffffffffffffffffffffffffffffffffffffffe08101835282610e63565b604051906060820182811067ffffffffffffffff821117610de75760405260006040838281528260208201520152565b80518210156112d85760209160051b010190565b7f4e487b7100000000000000000000000000000000000000000000000000000000600052603260045260246000fd5b73ffffffffffffffffffffffffffffffffffffffff7f00000000000000000000000000000000000000000000000000000000000000001680156113b6576020600491604051928380927fb80777ea0000000000000000000000000000000000000000000000000000000082525afa90811561040457600091611387575090565b90506020813d6020116113ae575b816113a260209383610e63565b81010312610586575190565b3d9150611395565b504290565b9060ff8091169116019060ff821161085257565b6007821015610f895752565b929192608052815190600090816101006040516113f781610e16565b8281528260208201528260408201528260608201528260808201528260a08201528260c08201528260e0820152015267ffffffffffffffff82931682528160205260408220926040519361144a85610e16565b5462ffffff8116855262ffffff8160181c16602086015262ffffff8160301c16604086015261148260ff8260481c16606087016113cf565b60ff8160501c1660808601528060581c840b60a086015260ff8160601c1660c086015260ff8160681c1660e086015260ff8160701c166101008601528662ffffff865116916001831015806129b7575b61297b575b5050836114f260a0870151820b60ff60c08901511690612d7f565b810b13612952575b5060ff60e08501511660a052612927575b602084015160078110156128fa5761280e5760ff60808401511660ff7f000000000000000000000000000000000000000000000000000000000000000016148015906127b6575b61278a576115ac60405161156581610dcb565b73ffffffffffffffffffffffffffffffffffffffff831681527f000000000000000000000000000000000000000000000000000000000000000060208201526080516129c6565b67ffffffffffffffff845116606084015190600782101561275d5760208601516007811015612730576115f0906115e66040518095610f7c565b6020840190610f7c565b7f17b85ded3fb12432ee427abc34a3026e1fbbb8bc431e3dbe51bc81215655c25c604073ffffffffffffffffffffffffffffffffffffffff851693a38195829660608501519460078610156127305760ff61010082015116968051602082015160e052600760e0511015612703576040519788608081011067ffffffffffffffff60808b0111176126d657608089016040526080368a3761168f611294565b60c0526116a463ffffffff831660030b612e3d565b67ffffffff000000006116c263ffffffff8560201c1660030b612e72565b60201b1667ffffffffffffffff63ffffffff83168201116126025761176c8a61ffff8f6117406117599162ffffff604051916116fd83610e33565b67ffffffffffffffff63ffffffff8b168a011683521660208201526002604082015261172c89606083016113cf565b61173b60e051608083016113cf565b612f01565b909384810b126126c1575b82604060c051015116612def565b16604060c051015260c051518c0b612e05565b8a0b60c0515260018060a05160041c1614612684575b505061179663ffffffff831660030b612e72565b67ffffffff000000006117b463ffffffff8560201c1660030b612e3d565b60201b1667ffffffffffffffff63ffffffff8316820111612602576118368a61ffff8f61181e6117599162ffffff604051916117ef83610e33565b67ffffffffffffffff63ffffffff8b168a011683521660208201526003604082015261172c89606083016113cf565b909384810b1261266f5782604060c051015116612def565b8a0b60c0515260028060a05160041c161461262f575b505061186063ffffffff831660030b612e3d565b67ffffffff0000000061187e63ffffffff8560201c1660030b612ec9565b60201b1667ffffffffffffffff63ffffffff8316820111612602576118ff8a61ffff8f6118e76117599162ffffff604051916118b983610e33565b67ffffffffffffffff63ffffffff8b168a0116835216602082015284604082015261172c89606083016113cf565b909384810b126125ed5782604060c051015116612def565b8a0b60c0515260048060a051811c16146125ad575b505067ffffffff0000000061194263ffffffff61193581861660030b612ec9565b9460201c1660030b612e3d565b60201b1667ffffffffffffffff63ffffffff84168201116125805761ffff6119ac8d9461172c6119d99562ffffff67ffffffffffffffff6119c69763ffffffff6040519661198f88610e33565b1601169889855216602084015260016040840152606083016113cf565b8b82819593950b1261256b5782604060c051015116612def565b16604060c051015260c05151890b612e05565b870b60c0515260088060a05160041c161461253e575b5060c05151860b9860ff602060c0510151169a61ffff604060c051015116806124ad575b50875b60ff81166004811015611adc5760ff91818d8d73ffffffffffffffffffffffffffffffffffffffff611a4a60019683612dde565b5116611a5b575b5050500116611a16565b73ffffffffffffffffffffffffffffffffffffffff611a80611ad494611ab893612dde565b511691611ab2600f60a051167f0000000000000000000000000000000000000000000000000000000000000000610fc5565b90611013565b60405191611ac583610dcb565b825260208201526080516129c6565b388d8d611a51565b505093975093975093979890949860208501516007811015611e2c57611b0590606088016113cf565b8960e087015273ffffffffffffffffffffffffffffffffffffffff891673ffffffffffffffffffffffffffffffffffffffff611b6d67ffffffffffffffff885116600052600160205273ffffffffffffffffffffffffffffffffffffffff6040600020541690565b16148061249d575b1561248d575b60608601516007811015611e2c57611e805750505062ffffff8091818551169003168160408501511601166040830152856080830152856101008301528582528560a08301528560c083015285611bfe67ffffffffffffffff835116600052600160205273ffffffffffffffffffffffffffffffffffffffff6040600020541690565b67ffffffffffffffff835116808373ffffffffffffffffffffffffffffffffffffffff60405194167fddf252ad1be2c89b69c2b068fc378daa952ba7f163c4a11628f55a4df523b3ef8280a4825260016020528160408120557f00000000000000000000000000000000000000000000000000000000000000009673ffffffffffffffffffffffffffffffffffffffff7f00000000000000000000000000000000000000000000000000000000000000001690813b15611e7c577fabe7f1ab00000000000000000000000000000000000000000000000000000000835273ffffffffffffffffffffffffffffffffffffffff1660048301526024820188905282908290604490829084905af18015611e7157611e59575b505067ffffffffffffffff905b5116855284602052604085209062ffffff8151169082549165ffffff000000602083015160181b1668ffffff000000000000604084015160301b16906060840151926007841015611e2c57849369ff00000000000000000085946bff00000000000000000000009486947fffffffffffffffffffffffffffffffffff0000000000000000000000000000006eff00000000000000000000000000006101006dff0000000000000000000000000060e06cff00000000000000000000000060c060a06aff0000000000000000000060808f015160501b169d015160581b9e015160601b169d015160681b169c015160701b169b161717179160481b1617179116171717179055929190565b60248b7f4e487b710000000000000000000000000000000000000000000000000000000081526021600452fd5b611e6290610e4f565b611e6d578538611d15565b8580fd5b6040513d84823e3d90fd5b8380fd5b90955096929190967f00000000000000000000000000000000000000000000000000000000000000009560c0860152606085015160078110156124305790600662ffffff9392148061247d575b1561246a5760ff600181610100890151160116806101008801521561245d575b60a086015260026080860152168352611f3267ffffffffffffffff825116600052600160205273ffffffffffffffffffffffffffffffffffffffff6040600020541690565b91611f4b60a0850151890b60ff60c08701511690612d7f565b906060850151600781101561243057899291906006036122de575073ffffffffffffffffffffffffffffffffffffffff8481161461221757810b13611ffd575b73ffffffffffffffffffffffffffffffffffffffff67ffffffffffffffff928184845116928392167fddf252ad1be2c89b69c2b068fc378daa952ba7f163c4a11628f55a4df523b3ef8b80a48752600160205273ffffffffffffffffffffffffffffffffffffffff6040882055611d22565b73ffffffffffffffffffffffffffffffffffffffff7f0000000000000000000000000000000000000000000000000000000000000000163b156121d2576040517fabe7f1ab00000000000000000000000000000000000000000000000000000000815273ffffffffffffffffffffffffffffffffffffffff831660048201526024810185905287908181806044810103818373ffffffffffffffffffffffffffffffffffffffff7f0000000000000000000000000000000000000000000000000000000000000000165af18015611e7157612203575b5050838060011b04600214841517156121d65773ffffffffffffffffffffffffffffffffffffffff7f0000000000000000000000000000000000000000000000000000000000000000163b156121d257866040517ff5d82b6b00000000000000000000000000000000000000000000000000000000815273ffffffffffffffffffffffffffffffffffffffff60048201528560011b602482015281816044818373ffffffffffffffffffffffffffffffffffffffff7f0000000000000000000000000000000000000000000000000000000000000000165af18015611e71576121be575b5050611f8b565b6121c790610e4f565b6121d25786386121b7565b8680fd5b6024877f4e487b710000000000000000000000000000000000000000000000000000000081526011600452fd5b61220c90610e4f565b6121d25786386120d3565b5090915073ffffffffffffffffffffffffffffffffffffffff7f000000000000000000000000000000000000000000000000000000000000000016803b156122da578180916044604051809481937ff5d82b6b00000000000000000000000000000000000000000000000000000000835273ffffffffffffffffffffffffffffffffffffffff60048401528a60248401525af18015611e71576122c6575b505067ffffffffffffffff90611d22565b6122cf90610e4f565b611e6d5785386122b5565b5080fd5b929350810b13612348575b9073ffffffffffffffffffffffffffffffffffffffff67ffffffffffffffff9283835116808383168b7fddf252ad1be2c89b69c2b068fc378daa952ba7f163c4a11628f55a4df523b3ef8180a489526001602052166040882055611d22565b73ffffffffffffffffffffffffffffffffffffffff7f000000000000000000000000000000000000000000000000000000000000000016803b1561242c576040517ff5d82b6b00000000000000000000000000000000000000000000000000000000815273ffffffffffffffffffffffffffffffffffffffff83166004820152602481018690529088908290604490829084905af18015612421576123ee575b506122e9565b67ffffffffffffffff92919761241873ffffffffffffffffffffffffffffffffffffffff92610e4f565b979192506123e8565b6040513d8a823e3d90fd5b8780fd5b60248a7f4e487b710000000000000000000000000000000000000000000000000000000081526021600452fd5b60ff610100870152611eed565b6001610100870152896040870152611eed565b5060ff6080870151161515611ecd565b62ffffff84166020870152611b7b565b5060ff6080870151161515611b75565b61253890600c61252a73ffffffffffffffffffffffffffffffffffffffff61250167ffffffffffffffff895116600052600160205273ffffffffffffffffffffffffffffffffffffffff6040600020541690565b16927f000000000000000000000000000000000000000000000000000000000000000090611013565b0460405191611ac583610dcb565b38611a13565b8652600160205273ffffffffffffffffffffffffffffffffffffffff6040872054166060880152386119ef565b602060c05101600860ff82511617905261174b565b6024897f4e487b710000000000000000000000000000000000000000000000000000000081526011600452fd5b63ffffffff67ffffffffffffffff921601168852600160205273ffffffffffffffffffffffffffffffffffffffff60408920541660408a01523880611914565b602060c05101600460ff82511617905261174b565b60248a7f4e487b710000000000000000000000000000000000000000000000000000000081526011600452fd5b63ffffffff67ffffffffffffffff921601168852600160205273ffffffffffffffffffffffffffffffffffffffff60408920541660208a0152388061184c565b602060c05101600260ff82511617905261174b565b63ffffffff67ffffffffffffffff921601168852600160205273ffffffffffffffffffffffffffffffffffffffff60408920541689523880611782565b602060c05101600160ff82511617905261174b565b6024887f4e487b710000000000000000000000000000000000000000000000000000000081526041600452fd5b6024877f4e487b710000000000000000000000000000000000000000000000000000000081526021600452fd5b6024857f4e487b710000000000000000000000000000000000000000000000000000000081526021600452fd5b6024847f4e487b710000000000000000000000000000000000000000000000000000000081526021600452fd5b50939250505081907f000000000000000000000000000000000000000000000000000000000000000090565b506127ed67ffffffffffffffff855116600052600160205273ffffffffffffffffffffffffffffffffffffffff6040600020541690565b73ffffffffffffffffffffffffffffffffffffffff80831691161415611552565b62ffffff60208401511662ffffff861614612829575b6115ac565b608083015160ff1680156128445750600660208501526115ac565b60ff7f000000000000000000000000000000000000000000000000000000000000000016148015906128a2575b156128245750939250505081907f000000000000000000000000000000000000000000000000000000000000000090565b506128d967ffffffffffffffff855116600052600160205273ffffffffffffffffffffffffffffffffffffffff6040600020541690565b73ffffffffffffffffffffffffffffffffffffffff80831691161415612871565b6024837f4e487b710000000000000000000000000000000000000000000000000000000081526021600452fd5b61294760c084015160f061293d60ff8316612afe565b9160041b166113bb565b60a05281835261150b565b61296f61296362ffffff9289610ffe565b82604088015116612aa2565b166040850152386114fa565b60ff92935090818361299e9360501c1690848160581c890b9160601c1686612bbb565b501680608086015262ffffff87168552159086386114d7565b5060ff8160501c1615156114d2565b60005b602080830151821015612a2e5773ffffffffffffffffffffffffffffffffffffffff806129f78486516112c4565b5151169085511614612a0c57506001016129c9565b90612a209082612a2a9495015194516112c4565b5101918251610fb8565b9052565b50506020612a6f8173ffffffffffffffffffffffffffffffffffffffff85511694845195612a61838701978851906112c4565b5152015192518451906112c4565b51015280517fffffffffffffffffffffffffffffffffffffffffffffffffffffffffffffffff8114610852576001019052565b91909162ffffff8080941691160191821161085257565b60ff7fffffffffffffffffffffffffffffffffffffffffffffffffffffffffffffffff9116019060ff821161085257565b9060ff8091169116039060ff821161085257565b6000906000905b60ff9081811615612b5b5780612b1b8392612ab9565b169216908114612b2e5760010190612b05565b6024837f4e487b710000000000000000000000000000000000000000000000000000000081526011600452fd5b5050919050565b60000b7fffffffffffffffffffffffffffffffffffffffffffffffffffffffffffffff8081146108525760000390565b9060ff16908115610fcf5760ff160490565b9060ff8091169116029060ff821691820361085257565b939194926000958562ffffff936001858316101580612d73575b612be2575b505050505050565b91939596509193965084612bf68389610ffe565b16928315612d655790612c0891612d7f565b938460000b60008113600014612cb55750505090612c81612c6760ff612c879481612c717f000000000000000000000000000000000000000000000000000000000000000098612c6c612c5b898c612aea565b918416968780936113bb565b612ab9565b612b92565b16808211612cad575b5016612ba4565b906113bb565b9060ff811660ff831611612ca5575b5091905b388080808080612bda565b905038612c96565b905038612c7a565b60009097919396959794929412600014612d585750612c67612cd687612b62565b612cfa612ce960ff9384938416866113bb565b612cf28a612b62565b831690612b92565b16808711612d4e575b50612d1f612d15612d39969798612b62565b8216828916612ba4565b908281169082161115612d3f5750506000945b1690612aa2565b90612c9a565b612d4891612aea565b94612d32565b9550612d1f612d03565b9095509350612c9a915050565b505094505090509190612c9a565b5060ff84161515612bd5565b909190600090810b1315612db7576001915b600083810b129081612dab575b50612da557565b60019150565b60ff9150161538612d9e565b7fffffffffffffffffffffffffffffffffffffffffffffffffffffffffffffffff91612d91565b9060048110156112d85760051b0190565b91909161ffff8080941691160191821161085257565b9060000b9060000b01907fffffffffffffffffffffffffffffffffffffffffffffffffffffffffffffff808212607f83131761085257565b60030b907fffffffffffffffffffffffffffffffffffffffffffffffffffffffff800000008212637fffffff83131761085257565b60030b7fffffffffffffffffffffffffffffffffffffffffffffffffffffffffffffffff0190637fffffff82137fffffffffffffffffffffffffffffffffffffffffffffffffffffffff8000000083121761085257565b60030b60010190637fffffff82137fffffffffffffffffffffffffffffffffffffffffffffffffffffffff8000000083121761085257565b6000916000809267ffffffffffffffff8151168252816020526040822060405190612f2b82610e16565b549262ffffff908185168352818560181c166020840152818560301c16604084015260ff946060840195612f64818360481c16886113cf565b6080850192818360501c16845260a08601928060581c820b84528260c0880191818160601c168352818160681c1660e08a015260701c1661010088015285875116985160078110156128fa5782908015159081613069575b5060018b1015918261305b575b5050612fdb575b505050505050505050565b909184819495969798999a9b5051168015158061304c575b1561303457509161301d959391816130249a969451169251900b9251169260208801511693612bbb565b50916130c4565b905b388080808080808080612fd0565b979550505050505061304693506130c4565b90613026565b508660208a0151168a10612ff3565b9091506128fa573880612fc9565b91509c506080890151600781101561275d5783910361308c5760015b9c38612fbc565b7fffffffffffffffffffffffffffffffffffffffffffffffffffffffffffffffff613085565b60ff1660ff8111610852576001901b90565b92919260009360009160009160ff6080860151161515806137f1575b6137cf575b60e085015193600f60408401956130ff60ff8851166130b2565b9060041c161661311260ff8751166130b2565b1461375f575b60ff61313260a088015160000b8260c08a01511690612d7f565b95511660608401516007811015610f895760808501516007811015610f895780820361359d575b50505067ffffffffffffffff8351169062ffffff602085015116918161318d60a08a0151820b60ff60c08c01511690612d7f565b97810b13918280613591575b1561345457509091929394955073ffffffffffffffffffffffffffffffffffffffff908652600160205280604087205416906131fd60ff6101008a0151167f0000000000000000000000000000000000000000000000000000000000000000611013565b91817f0000000000000000000000000000000000000000000000000000000000000000163b1561242c576040517fabe7f1ab00000000000000000000000000000000000000000000000000000000815273ffffffffffffffffffffffffffffffffffffffff919091166004820152602481019290925286908290604490829084907f0000000000000000000000000000000000000000000000000000000000000000165af1801561344957908691613431575b50509160ff9167ffffffffffffffff94935b613404575b86521660808501525116815280602052604081209162ffffff8151169183549265ffffff000000602084015160181b1668ffffff000000000000604085015160301b169160608501519360078510156133d75750849369ff00000000000000000085946bff00000000000000000000009486947fffffffffffffffffffffffffffffffffff0000000000000000000000000000006eff00000000000000000000000000006101006dff0000000000000000000000000060e06cff00000000000000000000000060c060a06aff0000000000000000000060808f015160501b169d015160581b9e015160601b169d015160681b169c015160701b169b161717179160481b1617179116171717179055565b807f4e487b7100000000000000000000000000000000000000000000000000000000602492526021600452fd5b61341462ffffff88511682610ffe565b62ffffff61342960408a019282845116612aa2565b1690526132c7565b61343a90610e4f565b6134455784386132b0565b8480fd5b6040513d88823e3d90fd5b91968288159182613585575b505061347d575b50509060ff9167ffffffffffffffff94956132c2565b73ffffffffffffffffffffffffffffffffffffffff807f0000000000000000000000000000000000000000000000000000000000000000169183526001602052604083205416906134f660ff6101008b0151167f0000000000000000000000000000000000000000000000000000000000000000611013565b91813b15611e7c576040517ff5d82b6b00000000000000000000000000000000000000000000000000000000815273ffffffffffffffffffffffffffffffffffffffff919091166004820152602481019290925282908290604490829084905af18015611e7157156134675767ffffffffffffffff95509061357b60ff949392610e4f565b9481929350613467565b810b1390508238613460565b508088810b1315613199565b8061363157506060880151600781101561275d57036135d657506135c660a0870151820b6137fc565b810b60a08701525b388080613159565b600160a0880151830b60000b01907fffffffffffffffffffffffffffffffffffffffffffffffffffffffffffffff808212607f8313176108525760ff91830b60a089015281600160c08a0151921b18161660c08701526135ce565b60608901516007811015610f895782036136bf57505060ff60018160c08a015116921b161760c08701527ffffffffffffffffffffffffffffffffffffffffffffffffffffffffffffffffe60a0870151820b60000b01607f81137fffffffffffffffffffffffffffffffffffffffffffffffffffffffffffffff8082121761085257810b60a08701526135ce565b60608994929401516007811015610f895703613720575060ff9060009215600014613716576136f760015b60a08a015160000b612e05565b60000b60a089015281600160c08a0151921b18161660c08701526135ce565b6136f760026136ea565b911561372d575b506135ce565b61373d60a088015160000b6137fc565b60000b60a088015260ff60018160c08a015116921b161760c087015238613727565b9650600c60ff610100870151160260ff81169081036108525761378c60ff91600f60e08901511690612b92565b169660e086015160041c60ff8651169060ff82116108525760ff9160f06137c4926001600f60e08d015116931b191660041b166113bb565b1660e0870152613118565b60ff6137e660c087015160f061293d848316612afe565b1660e08601526130e5565b5060ff8116156130e0565b60000b7fffffffffffffffffffffffffffffffffffffffffffffffffffffffffffffffff01907fffffffffffffffffffffffffffffffffffffffffffffffffffffffffffffff808212607f8313176108525756fea2646970667358221220475ed87471eec8fdbc5f96288e4573e28fce166481c75af150666dbc605a75e564736f6c63430008180033",
  "linkReferences": {},
  "deployedLinkReferences": {},
  "devdoc": {
    "errors": {
      "ReserveTooLow(uint256,uint256)": [
        {
          "params": {
            "expected": "amount required to proceed",
            "inReserve": "amount in reserver as the time of the call"
          }
        }
      ]
    },
    "events": {
      "Approval(address,address,uint256)": {
        "params": {
          "approved": "account who can know transfer on the owner's behalf",
          "owner": "current owner of the token",
          "tokenID": "id of the token being approved"
        }
      },
      "ApprovalForAll(address,address,bool)": {
        "params": {
          "approved": "whether it is approved or not",
          "operator": "account who can know transfer on the owner's behalf",
          "owner": "the account granting rights over all of its token"
        }
      },
      "CommitmentCancelled(address,uint24)": {
        "params": {
          "epoch": "epoch number on which this commit belongs to",
          "player": "account taking the staking risk (can be a different account than the one controlling the gems)"
        }
      },
      "CommitmentMade(address,uint24,bytes24)": {
        "params": {
          "commitmentHash": "the hash of moves",
          "epoch": "epoch number on which this commit belongs to",
          "player": "account taking the staking risk (can be a different account than the one controlling the gems)"
        }
      },
      "CommitmentRevealed(address,uint24,bytes24,(uint64,uint8)[],bytes24,uint256)": {
        "params": {
          "commitmentHash": "the hash of the moves",
          "epoch": "epoch number on which this commit belongs to",
          "furtherMoves": "hash of further moves, unless bytes32(0) which indicate end.",
          "moves": "the moves",
          "player": "account who commited"
        }
      },
      "CommitmentVoid(address,uint24,uint256,bytes24)": {
        "params": {
          "amountBurnt": "amount of token to burn",
          "epoch": "epoch number on which this commit belongs to",
          "furtherMoves": "hash of further moves, unless bytes32(0) which indicate end.",
          "player": "the account that made the commitment"
        }
      },
      "MoveProcessed(uint64,address,uint8,uint8)": {
        "params": {
          "newColor": "color that takes over",
          "oldColor": "previous color of the cell",
          "player": "account making the move",
          "position": "cell at which the move take place"
        }
      },
      "MultiPoke(uint24,uint64[])": {
        "params": {
          "epoch": "epoch number at which the poke take place",
          "positions": "cells to poke"
        }
      },
      "ReserveDeposited(address,uint256,uint256)": {
        "params": {
          "amountDeposited": "the number of tokens deposited",
          "newAmount": "the number of tokens in reserver as a result",
          "player": "account receiving the token in the reserve"
        }
      },
      "ReserveWithdrawn(address,uint256,uint256)": {
        "params": {
          "amountWithdrawn": "the number of tokens withdrawnn",
          "newAmount": "the number of tokens in reserver as a result",
          "player": "account withdrawing the tokens"
        }
      },
      "SinglePoke(uint24,uint64)": {
        "params": {
          "epoch": "epoch number at which the poke take place",
          "position": "cell to poke"
        }
      },
      "Transfer(address,address,uint256)": {
        "params": {
          "from": "the account the token is sent from",
          "to": "the account the token is sent to",
          "tokenID": "id of the token being sent"
        }
      }
    },
    "kind": "dev",
    "methods": {
      "acknowledgeMissedReveal(address,bytes32,(uint64,uint8)[],bytes24)": {
        "params": {
          "furtherMoves": "if moves cannot be contained in one tx, further moves are represented by a hash to reveal too",
          "moves": "the actual moves",
          "player": "the account who committed the move",
          "secret": "the secret used to make the commit"
        }
      },
      "reveal(address,bytes32,(uint64,uint8)[],bytes24,bool,address)": {
        "params": {
          "furtherMoves": "if moves cannot be contained in one tx, further moves are represented by a hash to reveal too  Note that you have to that have enough moves (specified by MAX_NUM_MOVES_PER_HASH = 32)",
          "moves": "the actual moves",
          "payee": "address to send ETH to along the reveal",
          "player": "the account who committed the move",
          "secret": "the secret used to make the commit",
          "useReserve": "whether the tokens are taken from the reserve or from approvals.  This allow player to keep their reserve intact and use it on their next move.  Note that this require the Stratagems contract to have enough allowance."
        }
      }
    },
    "version": 1
  },
  "evm": {
    "gasEstimates": {
      "creation": {
        "codeDepositCost": "2894000",
        "executionCost": "infinite",
        "totalCost": "infinite"
      },
      "external": {
        "acknowledgeMissedReveal(address,bytes32,(uint64,uint8)[],bytes24)": "infinite",
        "acknowledgeMissedRevealByBurningAllReserve()": "infinite",
        "reveal(address,bytes32,(uint64,uint8)[],bytes24,bool,address)": "infinite"
      }
    }
  },
  "storageLayout": {
    "storage": [
      {
        "astId": 14440,
        "contract": "src/game/routes/StratagemsReveal.sol:StratagemsReveal",
        "label": "_cells",
        "offset": 0,
        "slot": "0",
        "type": "t_mapping(t_uint256,t_struct(Cell)11527_storage)"
      },
      {
        "astId": 14444,
        "contract": "src/game/routes/StratagemsReveal.sol:StratagemsReveal",
        "label": "_owners",
        "offset": 0,
        "slot": "1",
        "type": "t_mapping(t_uint256,t_uint256)"
      },
      {
        "astId": 14447,
        "contract": "src/game/routes/StratagemsReveal.sol:StratagemsReveal",
        "label": "_discovered",
        "offset": 0,
        "slot": "2",
        "type": "t_struct(Discovered)11507_storage"
      },
      {
        "astId": 14451,
        "contract": "src/game/routes/StratagemsReveal.sol:StratagemsReveal",
        "label": "_tokensInReserve",
        "offset": 0,
        "slot": "3",
        "type": "t_mapping(t_address,t_uint256)"
      },
      {
        "astId": 14456,
        "contract": "src/game/routes/StratagemsReveal.sol:StratagemsReveal",
        "label": "_commitments",
        "offset": 0,
        "slot": "4",
        "type": "t_mapping(t_address,t_struct(Commitment)11532_storage)"
      },
      {
        "astId": 14462,
        "contract": "src/game/routes/StratagemsReveal.sol:StratagemsReveal",
        "label": "_operatorsForAll",
        "offset": 0,
        "slot": "5",
        "type": "t_mapping(t_address,t_mapping(t_address,t_bool))"
      },
      {
        "astId": 14466,
        "contract": "src/game/routes/StratagemsReveal.sol:StratagemsReveal",
        "label": "_operators",
        "offset": 0,
        "slot": "6",
        "type": "t_mapping(t_uint256,t_address)"
      }
    ],
    "types": {
      "t_address": {
        "encoding": "inplace",
        "label": "address",
        "numberOfBytes": "20"
      },
      "t_bool": {
        "encoding": "inplace",
        "label": "bool",
        "numberOfBytes": "1"
      },
      "t_bytes24": {
        "encoding": "inplace",
        "label": "bytes24",
        "numberOfBytes": "24"
      },
      "t_enum(Color)11433": {
        "encoding": "inplace",
        "label": "enum UsingStratagemsTypes.Color",
        "numberOfBytes": "1"
      },
      "t_int8": {
        "encoding": "inplace",
        "label": "int8",
        "numberOfBytes": "1"
      },
      "t_mapping(t_address,t_bool)": {
        "encoding": "mapping",
        "key": "t_address",
        "label": "mapping(address => bool)",
        "numberOfBytes": "32",
        "value": "t_bool"
      },
      "t_mapping(t_address,t_mapping(t_address,t_bool))": {
        "encoding": "mapping",
        "key": "t_address",
        "label": "mapping(address => mapping(address => bool))",
        "numberOfBytes": "32",
        "value": "t_mapping(t_address,t_bool)"
      },
      "t_mapping(t_address,t_struct(Commitment)11532_storage)": {
        "encoding": "mapping",
        "key": "t_address",
        "label": "mapping(address => struct UsingStratagemsTypes.Commitment)",
        "numberOfBytes": "32",
        "value": "t_struct(Commitment)11532_storage"
      },
      "t_mapping(t_address,t_uint256)": {
        "encoding": "mapping",
        "key": "t_address",
        "label": "mapping(address => uint256)",
        "numberOfBytes": "32",
        "value": "t_uint256"
      },
      "t_mapping(t_uint256,t_address)": {
        "encoding": "mapping",
        "key": "t_uint256",
        "label": "mapping(uint256 => address)",
        "numberOfBytes": "32",
        "value": "t_address"
      },
      "t_mapping(t_uint256,t_struct(Cell)11527_storage)": {
        "encoding": "mapping",
        "key": "t_uint256",
        "label": "mapping(uint256 => struct UsingStratagemsTypes.Cell)",
        "numberOfBytes": "32",
        "value": "t_struct(Cell)11527_storage"
      },
      "t_mapping(t_uint256,t_uint256)": {
        "encoding": "mapping",
        "key": "t_uint256",
        "label": "mapping(uint256 => uint256)",
        "numberOfBytes": "32",
        "value": "t_uint256"
      },
      "t_struct(Cell)11527_storage": {
        "encoding": "inplace",
        "label": "struct UsingStratagemsTypes.Cell",
        "members": [
          {
            "astId": 11509,
            "contract": "src/game/routes/StratagemsReveal.sol:StratagemsReveal",
            "label": "lastEpochUpdate",
            "offset": 0,
            "slot": "0",
            "type": "t_uint24"
          },
          {
            "astId": 11511,
            "contract": "src/game/routes/StratagemsReveal.sol:StratagemsReveal",
            "label": "epochWhenTokenIsAdded",
            "offset": 3,
            "slot": "0",
            "type": "t_uint24"
          },
          {
            "astId": 11513,
            "contract": "src/game/routes/StratagemsReveal.sol:StratagemsReveal",
            "label": "producingEpochs",
            "offset": 6,
            "slot": "0",
            "type": "t_uint24"
          },
          {
            "astId": 11516,
            "contract": "src/game/routes/StratagemsReveal.sol:StratagemsReveal",
            "label": "color",
            "offset": 9,
            "slot": "0",
            "type": "t_enum(Color)11433"
          },
          {
            "astId": 11518,
            "contract": "src/game/routes/StratagemsReveal.sol:StratagemsReveal",
            "label": "life",
            "offset": 10,
            "slot": "0",
            "type": "t_uint8"
          },
          {
            "astId": 11520,
            "contract": "src/game/routes/StratagemsReveal.sol:StratagemsReveal",
            "label": "delta",
            "offset": 11,
            "slot": "0",
            "type": "t_int8"
          },
          {
            "astId": 11522,
            "contract": "src/game/routes/StratagemsReveal.sol:StratagemsReveal",
            "label": "enemyMap",
            "offset": 12,
            "slot": "0",
            "type": "t_uint8"
          },
          {
            "astId": 11524,
            "contract": "src/game/routes/StratagemsReveal.sol:StratagemsReveal",
            "label": "distribution",
            "offset": 13,
            "slot": "0",
            "type": "t_uint8"
          },
          {
            "astId": 11526,
            "contract": "src/game/routes/StratagemsReveal.sol:StratagemsReveal",
            "label": "stake",
            "offset": 14,
            "slot": "0",
            "type": "t_uint8"
          }
        ],
        "numberOfBytes": "32"
      },
      "t_struct(Commitment)11532_storage": {
        "encoding": "inplace",
        "label": "struct UsingStratagemsTypes.Commitment",
        "members": [
          {
            "astId": 11529,
            "contract": "src/game/routes/StratagemsReveal.sol:StratagemsReveal",
            "label": "hash",
            "offset": 0,
            "slot": "0",
            "type": "t_bytes24"
          },
          {
            "astId": 11531,
            "contract": "src/game/routes/StratagemsReveal.sol:StratagemsReveal",
            "label": "epoch",
            "offset": 24,
            "slot": "0",
            "type": "t_uint24"
          }
        ],
        "numberOfBytes": "32"
      },
      "t_struct(Discovered)11507_storage": {
        "encoding": "inplace",
        "label": "struct UsingStratagemsTypes.Discovered",
        "members": [
          {
            "astId": 11500,
            "contract": "src/game/routes/StratagemsReveal.sol:StratagemsReveal",
            "label": "minX",
            "offset": 0,
            "slot": "0",
            "type": "t_uint32"
          },
          {
            "astId": 11502,
            "contract": "src/game/routes/StratagemsReveal.sol:StratagemsReveal",
            "label": "maxX",
            "offset": 4,
            "slot": "0",
            "type": "t_uint32"
          },
          {
            "astId": 11504,
            "contract": "src/game/routes/StratagemsReveal.sol:StratagemsReveal",
            "label": "minY",
            "offset": 8,
            "slot": "0",
            "type": "t_uint32"
          },
          {
            "astId": 11506,
            "contract": "src/game/routes/StratagemsReveal.sol:StratagemsReveal",
            "label": "maxY",
            "offset": 12,
            "slot": "0",
            "type": "t_uint32"
          }
        ],
        "numberOfBytes": "32"
      },
      "t_uint24": {
        "encoding": "inplace",
        "label": "uint24",
        "numberOfBytes": "3"
      },
      "t_uint256": {
        "encoding": "inplace",
        "label": "uint256",
        "numberOfBytes": "32"
      },
      "t_uint32": {
        "encoding": "inplace",
        "label": "uint32",
        "numberOfBytes": "4"
      },
      "t_uint8": {
        "encoding": "inplace",
        "label": "uint8",
        "numberOfBytes": "1"
      }
    }
  },
  "userdoc": {
    "errors": {
      "CanStillReveal()": [
        {
          "notice": "Player have to reveal if they can Stratagems will prevent them from acknowledging missed reveal if there is still time to reveal."
        }
      ],
      "CommitmentHashNotMatching()": [
        {
          "notice": "Player have to reveal their commitment using the exact same move values  If they provide different value, the commitment hash will differ and Stratagems will reject their reveal."
        }
      ],
      "GameNotStarted()": [
        {
          "notice": "Game has not started yet, can't perform any action"
        }
      ],
      "ImpossibleConfiguration()": [
        {
          "notice": "The cell configuration is invalid This can happen win debug mode where admin can setup cell bypassing moves rules For example when setting up neighborood configuration that would require a cell to have negative life"
        }
      ],
      "InCommitmentPhase()": [
        {
          "notice": "When in Commit phase, player can make new commitment but they cannot reveal their move yet."
        }
      ],
      "InRevealPhase()": [
        {
          "notice": "When in Reveal phase, it is not possible to commit new moves or cancel previous commitment  During Reveal phase, players have to reveal their commitment, if not already done."
        }
      ],
      "InvalidEpoch()": [
        {
          "notice": "Player can only reveal their move in the same epoch they commited.abi  If a player reveal later it can only do to minimize the reserve burn cost by calling : `acknowledgeMissedReveal`"
        }
      ],
      "InvalidFurtherMoves()": [
        {
          "notice": "Player can make arbitrary number of moves per epoch. To do so they group moves into (MAX_NUM_MOVES_PER_HASH = 32) moves  This result in a recursive series of hash that they can then submit in turn while revealing.  The limit  (MAX_NUM_MOVES_PER_HASH = 32) ensure a reveal batch fits in a block."
        }
      ],
      "NothingToReveal()": [
        {
          "notice": "Player can only reveal moves they commited."
        }
      ],
      "PreviousCommitmentNotRevealed()": [
        {
          "notice": "Previous commitment need to be revealed before making a new one. Even if the corresponding reveal phase has passed.\\  It is also not possible to withdraw any amount from reserve until the commitment is revealed.\\If player lost the information to reveal, it can acknowledge failure which will burn all its reserve.\\"
        }
      ],
      "ReserveTooLow(uint256,uint256)": [
        {
          "notice": "to make a commitment you always need at least one `config.numTokensPerGems` amount in reserve  Player also need one `config.numTokensPerGems`  per moves during the Reveal phase."
        }
      ]
    },
    "events": {
      "Approval(address,address,uint256)": {
        "notice": "Triggered when a token is approved to be sent by another account  Note tat the approval get reset when a Transfer event for that same token is emitted."
      },
      "ApprovalForAll(address,address,bool)": {
        "notice": "Triggered when an account approve or disaprove another to transfer on its behalf"
      },
      "CommitmentCancelled(address,uint24)": {
        "notice": "A player has cancelled its current commitment (before it reached the reveal phase)"
      },
      "CommitmentMade(address,uint24,bytes24)": {
        "notice": "A player has commited to make a move and reveal it on the reveal phase"
      },
      "CommitmentRevealed(address,uint24,bytes24,(uint64,uint8)[],bytes24,uint256)": {
        "notice": "Player has revealed its previous commitment"
      },
      "CommitmentVoid(address,uint24,uint256,bytes24)": {
        "notice": "A player has canceled a previous commitment by burning some tokens"
      },
      "MoveProcessed(uint64,address,uint8,uint8)": {
        "notice": "A move has been revealed."
      },
      "MultiPoke(uint24,uint64[])": {
        "notice": "poke multiple cells and update them if needed"
      },
      "ReserveDeposited(address,uint256,uint256)": {
        "notice": "Player has deposited token in the reserve, allowing it to use that much in game"
      },
      "ReserveWithdrawn(address,uint256,uint256)": {
        "notice": "Player have withdrawn token from the reserve"
      },
      "SinglePoke(uint24,uint64)": {
        "notice": "poke cell and update it if needed"
      },
      "Transfer(address,address,uint256)": {
        "notice": "Triggered when a token is transferred"
      }
    },
    "kind": "user",
    "methods": {
      "acknowledgeMissedReveal(address,bytes32,(uint64,uint8)[],bytes24)": {
        "notice": "called by player if they missed the reveal phase and want to minimze the token loss.  By providing the moves, they will be slashed only the amount of token required to make the moves"
      },
      "acknowledgeMissedRevealByBurningAllReserve()": {
        "notice": "should only be called as last resort this will burn all tokens in reserve If player has access to the secret, better call `acknowledgeMissedReveal`"
      },
      "reveal(address,bytes32,(uint64,uint8)[],bytes24,bool,address)": {
        "notice": "called by player to reveal their moves  this is where the core logic of the game takes place  This is where the game board evolves  The game is designed so that reveal order does not matter"
      }
    },
    "version": 1
  },
  "argsData": "0x0000000000000000000000003ab3844d5d6614febbe19d59244a815cff691a17000000000000000000000000deaddeaddeaddeaddeaddeaddeaddeaddeaddead000000000000000000000000000000000000000000000000000000000000000000000000000000000000000000000000000000000000000000000000000143700000000000000000000000000000000000000000000000000000000000000e1000000000000000000000000000000000000000000000000000000000000000070000000000000000000000000000000000000000000000000de0b6b3a76400000000000000000000000000006de75a33cf63fea42ea8e5bafadaa1c80c246c6d00000000000000000000000033a0d701f0619afb407963d6b7f9781dc40f9fcf",
  "transaction": {
    "hash": "0xc2874e7017485f82ec797b59ba0141d50ba3d0b2fd63ff58bdcc8f2d3d4f93cf",
    "origin": "0x61c461ecc993aadeb7e4b47e96d1b8cc37314b20"
  }
}