{
  "address": "0x3ab3844d5d6614febbe19d59244a815cff691a17",
  "abi": [
    {
      "inputs": [
        {
          "internalType": "address",
          "name": "to",
          "type": "address"
        },
        {
          "internalType": "uint256",
          "name": "amount",
          "type": "uint256"
        },
        {
          "components": [
            {
              "internalType": "address",
              "name": "admin",
              "type": "address"
            }
          ],
          "internalType": "struct TestTokens.Config",
          "name": "initialConfig",
          "type": "tuple"
        }
      ],
      "stateMutability": "nonpayable",
      "type": "constructor"
    },
    {
      "inputs": [
        {
          "internalType": "uint256",
          "name": "currentTime",
          "type": "uint256"
        },
        {
          "internalType": "uint256",
          "name": "deadline",
          "type": "uint256"
        }
      ],
      "name": "DeadlineOver",
      "type": "error"
    },
    {
      "inputs": [
        {
          "internalType": "address",
          "name": "addr",
          "type": "address"
        }
      ],
      "name": "InvalidAddress",
      "type": "error"
    },
    {
      "inputs": [
        {
          "internalType": "uint256",
          "name": "provided",
          "type": "uint256"
        },
        {
          "internalType": "uint256",
          "name": "expected",
          "type": "uint256"
        }
      ],
      "name": "InvalidMsgValue",
      "type": "error"
    },
    {
      "inputs": [],
      "name": "InvalidSignature",
      "type": "error"
    },
    {
      "inputs": [
        {
          "internalType": "uint256",
          "name": "provided",
          "type": "uint256"
        },
        {
          "internalType": "uint256",
          "name": "expected",
          "type": "uint256"
        }
      ],
      "name": "InvalidTotalAmount",
      "type": "error"
    },
    {
      "inputs": [],
      "name": "NotAuthorized",
      "type": "error"
    },
    {
      "inputs": [
        {
          "internalType": "uint256",
          "name": "currentAllowance",
          "type": "uint256"
        },
        {
          "internalType": "uint256",
          "name": "expected",
          "type": "uint256"
        }
      ],
      "name": "NotAuthorizedAllowance",
      "type": "error"
    },
    {
      "inputs": [
        {
          "internalType": "uint256",
          "name": "currentBalance",
          "type": "uint256"
        },
        {
          "internalType": "uint256",
          "name": "expected",
          "type": "uint256"
        }
      ],
      "name": "NotEnoughTokens",
      "type": "error"
    },
    {
      "anonymous": false,
      "inputs": [
        {
          "indexed": true,
          "internalType": "address",
          "name": "owner",
          "type": "address"
        },
        {
          "indexed": true,
          "internalType": "address",
          "name": "spender",
          "type": "address"
        },
        {
          "indexed": false,
          "internalType": "uint256",
          "name": "value",
          "type": "uint256"
        }
      ],
      "name": "Approval",
      "type": "event"
    },
    {
      "anonymous": false,
      "inputs": [
        {
          "indexed": true,
          "internalType": "address",
          "name": "account",
          "type": "address"
        },
        {
          "indexed": false,
          "internalType": "bool",
          "name": "approved",
          "type": "bool"
        }
      ],
      "name": "GlobalApproval",
      "type": "event"
    },
    {
      "anonymous": false,
      "inputs": [
        {
          "indexed": true,
          "internalType": "address",
          "name": "account",
          "type": "address"
        },
        {
          "indexed": false,
          "internalType": "bool",
          "name": "authorized",
          "type": "bool"
        }
      ],
      "name": "MinterAuthorized",
      "type": "event"
    },
    {
      "anonymous": false,
      "inputs": [
        {
          "indexed": true,
          "internalType": "address",
          "name": "from",
          "type": "address"
        },
        {
          "indexed": true,
          "internalType": "address",
          "name": "to",
          "type": "address"
        },
        {
          "indexed": false,
          "internalType": "uint256",
          "name": "value",
          "type": "uint256"
        }
      ],
      "name": "Transfer",
      "type": "event"
    },
    {
      "inputs": [],
      "name": "DOMAIN_SEPARATOR",
      "outputs": [
        {
          "internalType": "bytes32",
          "name": "",
          "type": "bytes32"
        }
      ],
      "stateMutability": "view",
      "type": "function"
    },
    {
      "inputs": [
        {
          "internalType": "address",
          "name": "owner",
          "type": "address"
        },
        {
          "internalType": "address",
          "name": "spender",
          "type": "address"
        }
      ],
      "name": "allowance",
      "outputs": [
        {
          "internalType": "uint256",
          "name": "",
          "type": "uint256"
        }
      ],
      "stateMutability": "view",
      "type": "function"
    },
    {
      "inputs": [
        {
          "internalType": "address[]",
          "name": "accounts",
          "type": "address[]"
        }
      ],
      "name": "anyNotAuthorized",
      "outputs": [
        {
          "internalType": "bool",
          "name": "",
          "type": "bool"
        }
      ],
      "stateMutability": "view",
      "type": "function"
    },
    {
      "inputs": [
        {
          "internalType": "address",
          "name": "spender",
          "type": "address"
        },
        {
          "internalType": "uint256",
          "name": "amount",
          "type": "uint256"
        }
      ],
      "name": "approve",
      "outputs": [
        {
          "internalType": "bool",
          "name": "",
          "type": "bool"
        }
      ],
      "stateMutability": "nonpayable",
      "type": "function"
    },
    {
      "inputs": [
        {
          "internalType": "address",
          "name": "spender",
          "type": "address"
        },
        {
          "internalType": "uint256",
          "name": "amount",
          "type": "uint256"
        },
        {
          "internalType": "bytes",
          "name": "data",
          "type": "bytes"
        }
      ],
      "name": "approveAndCall",
      "outputs": [
        {
          "internalType": "bool",
          "name": "",
          "type": "bool"
        }
      ],
      "stateMutability": "nonpayable",
      "type": "function"
    },
    {
      "inputs": [
        {
          "internalType": "address[]",
          "name": "accounts",
          "type": "address[]"
        },
        {
          "internalType": "bool",
          "name": "auth",
          "type": "bool"
        }
      ],
      "name": "authorize",
      "outputs": [],
      "stateMutability": "nonpayable",
      "type": "function"
    },
    {
      "inputs": [
        {
          "internalType": "address[]",
          "name": "accounts",
          "type": "address[]"
        },
        {
          "internalType": "bool",
          "name": "approved",
          "type": "bool"
        }
      ],
      "name": "authorizeGlobalApprovals",
      "outputs": [],
      "stateMutability": "nonpayable",
      "type": "function"
    },
    {
      "inputs": [
        {
          "internalType": "address[]",
          "name": "accounts",
          "type": "address[]"
        },
        {
          "internalType": "bool",
          "name": "authorized",
          "type": "bool"
        }
      ],
      "name": "authorizeMinters",
      "outputs": [],
      "stateMutability": "nonpayable",
      "type": "function"
    },
    {
      "inputs": [
        {
          "internalType": "address",
          "name": "",
          "type": "address"
        }
      ],
      "name": "authorized",
      "outputs": [
        {
          "internalType": "bool",
          "name": "",
          "type": "bool"
        }
      ],
      "stateMutability": "view",
      "type": "function"
    },
    {
      "inputs": [
        {
          "internalType": "address",
          "name": "",
          "type": "address"
        }
      ],
      "name": "authorizedMinters",
      "outputs": [
        {
          "internalType": "bool",
          "name": "",
          "type": "bool"
        }
      ],
      "stateMutability": "view",
      "type": "function"
    },
    {
      "inputs": [
        {
          "internalType": "address",
          "name": "owner",
          "type": "address"
        }
      ],
      "name": "balanceOf",
      "outputs": [
        {
          "internalType": "uint256",
          "name": "",
          "type": "uint256"
        }
      ],
      "stateMutability": "view",
      "type": "function"
    },
    {
      "inputs": [],
      "name": "config",
      "outputs": [
        {
          "internalType": "address",
          "name": "admin",
          "type": "address"
        }
      ],
      "stateMutability": "view",
      "type": "function"
    },
    {
      "inputs": [],
      "name": "decimals",
      "outputs": [
        {
          "internalType": "uint8",
          "name": "",
          "type": "uint8"
        }
      ],
      "stateMutability": "pure",
      "type": "function"
    },
    {
      "inputs": [
        {
          "internalType": "address payable[]",
          "name": "tos",
          "type": "address[]"
        },
        {
          "internalType": "uint256",
          "name": "totalAmount",
          "type": "uint256"
        }
      ],
      "name": "distributeAlongWithETH",
      "outputs": [
        {
          "internalType": "bool",
          "name": "",
          "type": "bool"
        }
      ],
      "stateMutability": "payable",
      "type": "function"
    },
    {
      "inputs": [],
      "name": "eip712Domain",
      "outputs": [
        {
          "internalType": "bytes1",
          "name": "fields",
          "type": "bytes1"
        },
        {
          "internalType": "string",
          "name": "name",
          "type": "string"
        },
        {
          "internalType": "string",
          "name": "version",
          "type": "string"
        },
        {
          "internalType": "uint256",
          "name": "chainID",
          "type": "uint256"
        },
        {
          "internalType": "address",
          "name": "verifyingContract",
          "type": "address"
        },
        {
          "internalType": "bytes32",
          "name": "salt",
          "type": "bytes32"
        },
        {
          "internalType": "uint256[]",
          "name": "extensions",
          "type": "uint256[]"
        }
      ],
      "stateMutability": "view",
      "type": "function"
    },
    {
      "inputs": [
        {
          "internalType": "address[]",
          "name": "accounts",
          "type": "address[]"
        }
      ],
      "name": "enableRequireAuthorization",
      "outputs": [],
      "stateMutability": "nonpayable",
      "type": "function"
    },
    {
      "inputs": [
        {
          "internalType": "address",
          "name": "",
          "type": "address"
        }
      ],
      "name": "globalApprovals",
      "outputs": [
        {
          "internalType": "bool",
          "name": "",
          "type": "bool"
        }
      ],
      "stateMutability": "view",
      "type": "function"
    },
    {
      "inputs": [
        {
          "internalType": "address",
          "name": "to",
          "type": "address"
        },
        {
          "internalType": "uint256",
          "name": "amount",
          "type": "uint256"
        }
      ],
      "name": "mint",
      "outputs": [],
      "stateMutability": "nonpayable",
      "type": "function"
    },
    {
      "inputs": [],
      "name": "name",
      "outputs": [
        {
          "internalType": "string",
          "name": "",
          "type": "string"
        }
      ],
      "stateMutability": "pure",
      "type": "function"
    },
    {
      "inputs": [
        {
          "internalType": "address",
          "name": "owner",
          "type": "address"
        }
      ],
      "name": "nonces",
      "outputs": [
        {
          "internalType": "uint256",
          "name": "",
          "type": "uint256"
        }
      ],
      "stateMutability": "view",
      "type": "function"
    },
    {
      "inputs": [
        {
          "internalType": "address",
          "name": "owner",
          "type": "address"
        },
        {
          "internalType": "address",
          "name": "spender",
          "type": "address"
        },
        {
          "internalType": "uint256",
          "name": "value",
          "type": "uint256"
        },
        {
          "internalType": "uint256",
          "name": "deadline",
          "type": "uint256"
        },
        {
          "internalType": "uint8",
          "name": "v",
          "type": "uint8"
        },
        {
          "internalType": "bytes32",
          "name": "r",
          "type": "bytes32"
        },
        {
          "internalType": "bytes32",
          "name": "s",
          "type": "bytes32"
        }
      ],
      "name": "permit",
      "outputs": [],
      "stateMutability": "nonpayable",
      "type": "function"
    },
    {
      "inputs": [],
      "name": "requireAuthorization",
      "outputs": [
        {
          "internalType": "bool",
          "name": "",
          "type": "bool"
        }
      ],
      "stateMutability": "view",
      "type": "function"
    },
    {
      "inputs": [
        {
          "components": [
            {
              "internalType": "address",
              "name": "admin",
              "type": "address"
            }
          ],
          "internalType": "struct TestTokens.Config",
          "name": "newConfig",
          "type": "tuple"
        }
      ],
      "name": "setConfig",
      "outputs": [],
      "stateMutability": "nonpayable",
      "type": "function"
    },
    {
      "inputs": [
        {
          "internalType": "bool",
          "name": "req",
          "type": "bool"
        }
      ],
      "name": "setRequireAuthorization",
      "outputs": [],
      "stateMutability": "nonpayable",
      "type": "function"
    },
    {
      "inputs": [],
      "name": "symbol",
      "outputs": [
        {
          "internalType": "string",
          "name": "",
          "type": "string"
        }
      ],
      "stateMutability": "view",
      "type": "function"
    },
    {
      "inputs": [],
      "name": "totalSupply",
      "outputs": [
        {
          "internalType": "uint256",
          "name": "",
          "type": "uint256"
        }
      ],
      "stateMutability": "view",
      "type": "function"
    },
    {
      "inputs": [
        {
          "internalType": "address",
          "name": "",
          "type": "address"
        }
      ],
      "name": "touched",
      "outputs": [
        {
          "internalType": "bool",
          "name": "",
          "type": "bool"
        }
      ],
      "stateMutability": "view",
      "type": "function"
    },
    {
      "inputs": [
        {
          "internalType": "address",
          "name": "to",
          "type": "address"
        },
        {
          "internalType": "uint256",
          "name": "amount",
          "type": "uint256"
        }
      ],
      "name": "transfer",
      "outputs": [
        {
          "internalType": "bool",
          "name": "",
          "type": "bool"
        }
      ],
      "stateMutability": "nonpayable",
      "type": "function"
    },
    {
      "inputs": [
        {
          "internalType": "address payable",
          "name": "to",
          "type": "address"
        },
        {
          "internalType": "uint256",
          "name": "amount",
          "type": "uint256"
        }
      ],
      "name": "transferAlongWithETH",
      "outputs": [
        {
          "internalType": "bool",
          "name": "",
          "type": "bool"
        }
      ],
      "stateMutability": "payable",
      "type": "function"
    },
    {
      "inputs": [
        {
          "internalType": "address",
          "name": "to",
          "type": "address"
        },
        {
          "internalType": "uint256",
          "name": "amount",
          "type": "uint256"
        },
        {
          "internalType": "bytes",
          "name": "data",
          "type": "bytes"
        }
      ],
      "name": "transferAndCall",
      "outputs": [
        {
          "internalType": "bool",
          "name": "",
          "type": "bool"
        }
      ],
      "stateMutability": "nonpayable",
      "type": "function"
    },
    {
      "inputs": [
        {
          "internalType": "address",
          "name": "from",
          "type": "address"
        },
        {
          "internalType": "address",
          "name": "to",
          "type": "address"
        },
        {
          "internalType": "uint256",
          "name": "amount",
          "type": "uint256"
        }
      ],
      "name": "transferFrom",
      "outputs": [
        {
          "internalType": "bool",
          "name": "",
          "type": "bool"
        }
      ],
      "stateMutability": "nonpayable",
      "type": "function"
    },
    {
      "inputs": [
        {
          "internalType": "address",
          "name": "from",
          "type": "address"
        },
        {
          "internalType": "address",
          "name": "to",
          "type": "address"
        },
        {
          "internalType": "uint256",
          "name": "amount",
          "type": "uint256"
        },
        {
          "internalType": "bytes",
          "name": "data",
          "type": "bytes"
        }
      ],
      "name": "transferFromAndCall",
      "outputs": [
        {
          "internalType": "bool",
          "name": "",
          "type": "bool"
        }
      ],
      "stateMutability": "nonpayable",
      "type": "function"
    },
    {
      "inputs": [
        {
          "internalType": "address",
          "name": "forAddress",
          "type": "address"
        },
        {
          "internalType": "address",
          "name": "to",
          "type": "address"
        },
        {
          "internalType": "uint256",
          "name": "amount",
          "type": "uint256"
        },
        {
          "internalType": "bytes",
          "name": "data",
          "type": "bytes"
        }
      ],
      "name": "transferOnBehalfAndCall",
      "outputs": [
        {
          "internalType": "bool",
          "name": "",
          "type": "bool"
        }
      ],
      "stateMutability": "nonpayable",
      "type": "function"
    }
  ],
  "contractName": "TestTokens",
  "sourceName": "src/test/TestTokens.sol",
  "bytecode": "0x60e0346200024357601f6200250b38819003918201601f1916830192916001600160401b0391908285118486101762000225578084926040968752833981010391606083126200024357620000548162000248565b90602093848083015191603f190112620002435785519185830183811086821117620002255787526200008990870162000248565b825246608052306200023b5730925b60c084905286516001600160a01b03949080890187811182821017620002255789526006815265546f6b656e7360d01b9088015287517f8cad95687ba82c2ce50e74f7b754645e5117c3a5bec8151c0726d5857980a8668189019081527f34f8140d8f24dbdd026b281e7791dd4aa98eaddb670c5b9b8af33e39b7daddce828b0152466060830152918616608080830191909152815260a08101968711818810176200022557856000937fddf252ad1be2c89b69c2b068fc378daa952ba7f163c4a11628f55a4df523b3ef938a937f9041c22ed79d1c19c69cc22fd9e38c93da4f2dd8cd32580594e232a8a18541cb9a8d5251902060a0528187511660018060a01b03196004541617600455620001b18686546200025d565b8555169384845260018252898420620001cc8282546200025d565b90558951908152a3511691826000526005815283600020600160ff19825416179055835160018152a251612289908162000282823960805181612112015260a05181612138015260c051818181610e2301526121fd0152f35b634e487b7160e01b600052604160045260246000fd5b309262000098565b600080fd5b51906001600160a01b03821682036200024357565b919082018092116200026b57565b634e487b7160e01b600052601160045260246000fdfe608060408181526004918236101561001657600080fd5b600092833560e01c91826306fdde03146116b457508163095ea7b31461166c5781630e02df541461148157816318160ddd146114465781631af21ad71461138257816323b872dd14611332578163313ce567146112f85781633644e515146112bd578382634000aea01461124b5750816340c10f191461116a5781634742805a1461106e578163480c84e11461102c57816365520efa14610f9f57816370a0823114610f3d57816379502c5514610eeb5781637ecebe0014610e8957816384b0196e14610d33578163876530c714610c285781639043603814610b3857816395d89b4114610ab9578163a256bb9e14610a52578163a9059cbb14610a03578163a9aadaad1461094f578163aa2fe91b146108e8578163b91816111461088157838263c1d34b891461080f578263cae9ca511461074357508163d505accf14610462578163dd62ed3e1461040f578163dd9835ec146103a8578163e2c6fb4f1461028557508063e7fcb065146101fd5763f0a3b6a31461019457600080fd5b346101f95760207ffffffffffffffffffffffffffffffffffffffffffffffffffffffffffffffffc3601126101f95760ff8160209373ffffffffffffffffffffffffffffffffffffffff6101e6611789565b1681526006855220541690519015158152f35b5080fd5b50807ffffffffffffffffffffffffffffffffffffffffffffffffffffffffffffffffc3601126101f9578180808073ffffffffffffffffffffffffffffffffffffffff610248611789565b166102566024358233611e01565b8190341561027b575b3491f115610271576020905160018152f35b51903d90823e3d90fd5b6108fc915061025f565b8383346101f95760209060207ffffffffffffffffffffffffffffffffffffffffffffffffffffffffffffffffc3601126103a457833567ffffffffffffffff81116103a0576102d790369086016118b5565b91909273ffffffffffffffffffffffffffffffffffffffff8087541633036103785761033895965060019586957fffffffffffffffffffffffffffffffffffffffffffffffffffffffffffffff009560018760085416176008553691611a5e565b87955b610343578780f35b80518610156103745786868361035a839985611b4d565b51168a5260078552858a208288825416179055019561033b565b8780f35b8683517fea8e4eb5000000000000000000000000000000000000000000000000000000008152fd5b8380fd5b8280fd5b5050346101f95760207ffffffffffffffffffffffffffffffffffffffffffffffffffffffffffffffffc3601126101f95760ff8160209373ffffffffffffffffffffffffffffffffffffffff6103fc611789565b1681526009855220541690519015158152f35b5050346101f957807ffffffffffffffffffffffffffffffffffffffffffffffffffffffffffffffffc3601126101f95760209061045b61044d611789565b6104556117b1565b90611cb0565b9051908152f35b8383346101f95760e07ffffffffffffffffffffffffffffffffffffffffffffffffffffffffffffffffc3601126101f95761049b611789565b6104a36117b1565b9060443592606435906084359160ff831680930361073f5773ffffffffffffffffffffffffffffffffffffffff9081851691821561071057828952600360205283892054946104f061210f565b9085519060208201927f6e71edae12b1b97f4d1f60370fef10105fa2faae0126114a169c64845d6126c984528688840152848b1660608401528b60808401528860a08401528560c084015260c0835260e0830167ffffffffffffffff94848210868311176106e357818a52845190206101008501927f1901000000000000000000000000000000000000000000000000000000000000845261010286015261012285015260428152610160840194818610908611176106b557848952519020835261018082015260a4356101a082015260c4356101c0909101528980526020908a9060809060015afa156106ab578851168203610683578015158061067a575b6106445750600183018093116106185786610615979850526003602052862055611d53565b80f35b60248760118a7f4e487b7100000000000000000000000000000000000000000000000000000000835252fd5b886044918451917fdd6b219a00000000000000000000000000000000000000000000000000000000835242908301526024820152fd5b508042116105f0565b8883517f8baa579f000000000000000000000000000000000000000000000000000000008152fd5b83513d8a823e3d90fd5b505060248c60418f7f4e487b7100000000000000000000000000000000000000000000000000000000835252fd5b8f8f60416024927f4e487b7100000000000000000000000000000000000000000000000000000000835252fd5b60248a8a8651917f8e4c8aa6000000000000000000000000000000000000000000000000000000008352820152fd5b8680fd5b9291503461080b5760209073ffffffffffffffffffffffffffffffffffffffff61076c3661196e565b97919293909461077d848633611d53565b6107b48851998a97889687947eba451f00000000000000000000000000000000000000000000000000000000865233908601611c18565b0393165af191821561080157602093926107d2575b50519015158152f35b6107f3919250833d85116107fa575b6107eb818361185c565b810190611bc1565b90386107c9565b503d6107e1565b81513d85823e3d90fd5b5050fd5b9291503461080b576107b460209173ffffffffffffffffffffffffffffffffffffffff61083b366119e0565b61084e838587989699959a949d97611ffa565b89519a8b98899788957fa4c0ed360000000000000000000000000000000000000000000000000000000087528601611c18565b5050346101f95760207ffffffffffffffffffffffffffffffffffffffffffffffffffffffffffffffffc3601126101f95760ff8160209373ffffffffffffffffffffffffffffffffffffffff6108d5611789565b1681526007855220541690519015158152f35b5050346101f95760207ffffffffffffffffffffffffffffffffffffffffffffffffffffffffffffffffc3601126101f95760ff8160209373ffffffffffffffffffffffffffffffffffffffff61093c611789565b1681526005855220541690519015158152f35b9050346103a45760207ffffffffffffffffffffffffffffffffffffffffffffffffffffffffffffffffc3601126103a4578035918215158093036103a05773ffffffffffffffffffffffffffffffffffffffff82541633036109dd57505060ff7fffffffffffffffffffffffffffffffffffffffffffffffffffffffffffffff006008541691161760085580f35b517fea8e4eb5000000000000000000000000000000000000000000000000000000008152fd5b5050346101f957807ffffffffffffffffffffffffffffffffffffffffffffffffffffffffffffffffc3601126101f957602090610a4b610a41611789565b6024359033611e01565b5160018152f35b828434610ab65760207ffffffffffffffffffffffffffffffffffffffffffffffffffffffffffffffffc360112610ab65782359067ffffffffffffffff8211610ab65750610aa8602093610aad92369101611ab4565b611c4a565b90519015158152f35b80fd5b5050346101f957817ffffffffffffffffffffffffffffffffffffffffffffffffffffffffffffffffc3601126101f9578051610b3491610af8826117f5565b600582527f544f4b454e00000000000000000000000000000000000000000000000000000060208301525191829160208352602083019061172b565b0390f35b919050346103a457610b49366118e6565b91939073ffffffffffffffffffffffffffffffffffffffff91828154163303610c015750855b818110610b7a578680f35b8083610b91610b8c600194868b611b90565b611ba0565b168089527f9041c22ed79d1c19c69cc22fd9e38c93da4f2dd8cd32580594e232a8a18541cb602060058152610bf3888a8d209060ff7fffffffffffffffffffffffffffffffffffffffffffffffffffffffffffffff0083541691151516179055565b88518815158152a201610b6f565b84517fea8e4eb5000000000000000000000000000000000000000000000000000000008152fd5b9050346103a457817ffffffffffffffffffffffffffffffffffffffffffffffffffffffffffffffffc3601126103a457803567ffffffffffffffff81116103a057610c769036908301611ab4565b91602435918215158303610d2f5773ffffffffffffffffffffffffffffffffffffffff90818154163303610d085750845b8451811015610d04578082610cbe60019388611b4d565b511687526007602052610cfe858589209060ff7fffffffffffffffffffffffffffffffffffffffffffffffffffffffffffffff0083541691151516179055565b01610ca7565b8580f35b82517fea8e4eb5000000000000000000000000000000000000000000000000000000008152fd5b8480fd5b5050346101f957817ffffffffffffffffffffffffffffffffffffffffffffffffffffffffffffffffc3601126101f9579081610df8925191610d74836117f5565b6006835260207f546f6b656e73000000000000000000000000000000000000000000000000000081850152610e05835193610dae85611840565b838552805194610dbd86611840565b84865281519788977f0d00000000000000000000000000000000000000000000000000000000000000895260e0868a015260e089019061172b565b918783039088015261172b565b9046606086015273ffffffffffffffffffffffffffffffffffffffff7f00000000000000000000000000000000000000000000000000000000000000001660808601528260a086015284820360c08601528080855193848152019401925b828110610e7257505050500390f35b835185528695509381019392810192600101610e63565b5050346101f95760207ffffffffffffffffffffffffffffffffffffffffffffffffffffffffffffffffc3601126101f9578060209273ffffffffffffffffffffffffffffffffffffffff610edb611789565b1681526003845220549051908152f35b828434610ab657807ffffffffffffffffffffffffffffffffffffffffffffffffffffffffffffffffc360112610ab6575073ffffffffffffffffffffffffffffffffffffffff60209254169051908152f35b5050346101f95760207ffffffffffffffffffffffffffffffffffffffffffffffffffffffffffffffffc3601126101f9578060209273ffffffffffffffffffffffffffffffffffffffff610f8f611789565b1681526001845220549051908152f35b919050346103a457602083610fb3366119e0565b90949197610fc48985969533611e01565b6107b473ffffffffffffffffffffffffffffffffffffffff9687938a519b8c998a9889967f2eedcb7100000000000000000000000000000000000000000000000000000000885233908801521660248601526044850152608060648501526084840191611bd9565b5050346101f957817ffffffffffffffffffffffffffffffffffffffffffffffffffffffffffffffffc3601126101f95760209060ff6008541690519015158152f35b919050346103a45760207ffffffffffffffffffffffffffffffffffffffffffffffffffffffffffffffffc3601126103a4578051906020820182811067ffffffffffffffff82111761113e5781526110c4611789565b825282549173ffffffffffffffffffffffffffffffffffffffff9182841633036111165750907fffffffffffffffffffffffff0000000000000000000000000000000000000000915116911617905580f35b8490517fea8e4eb5000000000000000000000000000000000000000000000000000000008152fd5b6024856041867f4e487b7100000000000000000000000000000000000000000000000000000000835252fd5b9050346103a457817ffffffffffffffffffffffffffffffffffffffffffffffffffffffffffffffffc3601126103a4576111a2611789565b60243591338552600560205260ff848620541615611224575060208273ffffffffffffffffffffffffffffffffffffffff7fddf252ad1be2c89b69c2b068fc378daa952ba7f163c4a11628f55a4df523b3ef9361120188968754611ca3565b865516948585526001835280852061121a838254611ca3565b905551908152a380f35b83517fea8e4eb5000000000000000000000000000000000000000000000000000000008152fd5b9291503461080b5760209073ffffffffffffffffffffffffffffffffffffffff6112743661196e565b979192939094611285848633611e01565b6107b48851998a97889687947fa4c0ed3600000000000000000000000000000000000000000000000000000000865233908601611c18565b5050346101f957817ffffffffffffffffffffffffffffffffffffffffffffffffffffffffffffffffc3601126101f95760209061045b61210f565b5050346101f957817ffffffffffffffffffffffffffffffffffffffffffffffffffffffffffffffffc3601126101f9576020905160128152f35b5050346101f95760607ffffffffffffffffffffffffffffffffffffffffffffffffffffffffffffffffc3601126101f957602090610a4b611371611789565b6113796117b1565b60443591611ffa565b919050346103a457611393366118e6565b91939073ffffffffffffffffffffffffffffffffffffffff91828154163303610c015750855b8181106113c4578680f35b80836113d6610b8c600194868b611b90565b168089527fb85a5077fe91eeb7c6724ff88493b07b94d57f668433c04baa76e83df485e0f4602060068152611438888a8d209060ff7fffffffffffffffffffffffffffffffffffffffffffffffffffffffffffffff0083541691151516179055565b88518815158152a2016113b9565b5050346101f957817ffffffffffffffffffffffffffffffffffffffffffffffffffffffffffffffffc3601126101f957602091549051908152f35b918091507ffffffffffffffffffffffffffffffffffffffffffffffffffffffffffffffffc3601126103a45781359167ffffffffffffffff83116103a057366023840112156103a057828101356114d78161189d565b936114e48451958661185c565b8185526020916024602087019160051b8301019136831161166857602401905b82821061165157505050506024359261151e815134611ad2565b9161152a825184611b0b565b34036116105761153b825186611ad2565b94611547835187611b0b565b81036115d05750509284908215915b85518110156115c657868080808785611592888d61158a73ffffffffffffffffffffffffffffffffffffffff948592611b4d565b511633611e01565b61159c878d611b4d565b511682896115bd575bf1156115b357600101611556565b84513d88823e3d90fd5b506108fc6115a5565b6020855160018152f35b84906115e0876044955190611b0b565b9151927fe93890a20000000000000000000000000000000000000000000000000000000084528301526024820152fd5b8361161f846044945190611b0b565b9051917f1f89f67100000000000000000000000000000000000000000000000000000000835234908301526024820152fd5b83809161165d846117d4565b815201910190611504565b8780fd5b5050346101f957807ffffffffffffffffffffffffffffffffffffffffffffffffffffffffffffffffc3601126101f957602090610a4b6116aa611789565b6024359033611d53565b849084346103a457827ffffffffffffffffffffffffffffffffffffffffffffffffffffffffffffffffc3601126103a457610b3492506116f3826117f5565b600682527f546f6b656e7300000000000000000000000000000000000000000000000000006020830152519182916020835260208301905b919082519283825260005b8481106117755750507fffffffffffffffffffffffffffffffffffffffffffffffffffffffffffffffe0601f8460006020809697860101520116010190565b602081830181015184830182015201611736565b6004359073ffffffffffffffffffffffffffffffffffffffff821682036117ac57565b600080fd5b6024359073ffffffffffffffffffffffffffffffffffffffff821682036117ac57565b359073ffffffffffffffffffffffffffffffffffffffff821682036117ac57565b6040810190811067ffffffffffffffff82111761181157604052565b7f4e487b7100000000000000000000000000000000000000000000000000000000600052604160045260246000fd5b6020810190811067ffffffffffffffff82111761181157604052565b90601f7fffffffffffffffffffffffffffffffffffffffffffffffffffffffffffffffe0910116810190811067ffffffffffffffff82111761181157604052565b67ffffffffffffffff81116118115760051b60200190565b9181601f840112156117ac5782359167ffffffffffffffff83116117ac576020808501948460051b0101116117ac57565b60407ffffffffffffffffffffffffffffffffffffffffffffffffffffffffffffffffc8201126117ac576004359067ffffffffffffffff82116117ac5761192f916004016118b5565b909160243580151581036117ac5790565b9181601f840112156117ac5782359167ffffffffffffffff83116117ac57602083818601950101116117ac57565b60607ffffffffffffffffffffffffffffffffffffffffffffffffffffffffffffffffc8201126117ac5760043573ffffffffffffffffffffffffffffffffffffffff811681036117ac5791602435916044359067ffffffffffffffff82116117ac576119dc91600401611940565b9091565b9060807ffffffffffffffffffffffffffffffffffffffffffffffffffffffffffffffffc8301126117ac5773ffffffffffffffffffffffffffffffffffffffff9160043583811681036117ac579260243590811681036117ac5791604435916064359067ffffffffffffffff82116117ac576119dc91600401611940565b9291611a698261189d565b91611a77604051938461185c565b829481845260208094019160051b81019283116117ac57905b828210611a9d5750505050565b838091611aa9846117d4565b815201910190611a90565b9080601f830112156117ac57816020611acf93359101611a5e565b90565b8115611adc570490565b7f4e487b7100000000000000000000000000000000000000000000000000000000600052601260045260246000fd5b81810292918115918404141715611b1e57565b7f4e487b7100000000000000000000000000000000000000000000000000000000600052601160045260246000fd5b8051821015611b615760209160051b010190565b7f4e487b7100000000000000000000000000000000000000000000000000000000600052603260045260246000fd5b9190811015611b615760051b0190565b3573ffffffffffffffffffffffffffffffffffffffff811681036117ac5790565b908160209103126117ac575180151581036117ac5790565b601f82602094937fffffffffffffffffffffffffffffffffffffffffffffffffffffffffffffffe0938186528686013760008582860101520116010190565b611acf949273ffffffffffffffffffffffffffffffffffffffff60609316825260208201528160408201520191611bd9565b60005b8151811015611c9c5773ffffffffffffffffffffffffffffffffffffffff611c758284611b4d565b5116600052600760205260ff6040600020541615611c9557600101611c4d565b5050600190565b5050600090565b91908201809211611b1e57565b73ffffffffffffffffffffffffffffffffffffffff80921691600091838352600660205260ff604084205416600014611d0b57505050507fffffffffffffffffffffffffffffffffffffffffffffffffffffffffffffffff90565b1691308314611d2c5760409282526002602052828220908252602052205490565b5050507fffffffffffffffffffffffffffffffffffffffffffffffffffffffffffffffff90565b909173ffffffffffffffffffffffffffffffffffffffff8092169182158015611df7575b611dc6577f8c5be1e5ebec7d5bd14f71427d1e84f3dd0314c0f7b2291e5b200ac8c7c3b925916020918460005260028352604060002095169485600052825280604060002055604051908152a3565b60246040517f8e4c8aa600000000000000000000000000000000000000000000000000000000815260006004820152fd5b5080841615611d77565b9092919273ffffffffffffffffffffffffffffffffffffffff809116906000918083526020916009835260409460ff8686205416158015611fed575b8015611fd7575b8015611fc3575b15611f665782158015611f5d575b611f2d57168084526001835284842054878110611ef757907fddf252ad1be2c89b69c2b068fc378daa952ba7f163c4a11628f55a4df523b3ef8489611ea4600998999a9b8796612246565b848a52600183528a8a2055848952898920611ec0828254611ca3565b90558951908152a38352522060017fffffffffffffffffffffffffffffffffffffffffffffffffffffffffffffff00825416179055565b604490888751917f6584853f00000000000000000000000000000000000000000000000000000000835260048301526024820152fd5b6024838751907f8e4c8aa60000000000000000000000000000000000000000000000000000000082526004820152fd5b50308314611e59565b6064848751907f08c379a00000000000000000000000000000000000000000000000000000000082526004820152601760248201527f4e4f545f415554484f52495a45445f5452414e534645520000000000000000006044820152fd5b508285526007845260ff8686205416611e4b565b5081811685526007845260ff8686205416611e44565b5060ff6008541615611e3d565b9291906000933385526006602052604060ff81872054166000146120265750612024939450611e01565b565b73ffffffffffffffffffffffffffffffffffffffff8216908133141580612105575b61205a575b5050612024939450611e01565b818752600260205280872033885260205280872054967fffffffffffffffffffffffffffffffffffffffffffffffffffffffffffffffff880361209e575b5061204d565b8588106120cf576120b3866120249899612246565b9281526002602052818120338252602052205584933880612098565b604488878451917f95fcd25400000000000000000000000000000000000000000000000000000000835260048301526024820152fd5b5030821415612048565b467f00000000000000000000000000000000000000000000000000000000000000000361215a577f000000000000000000000000000000000000000000000000000000000000000090565b7f546f6b656e7300000000000000000000000000000000000000000000000000006020604051612189816117f5565b60068152015260405160208101907f8cad95687ba82c2ce50e74f7b754645e5117c3a5bec8151c0726d5857980a86682527f34f8140d8f24dbdd026b281e7791dd4aa98eaddb670c5b9b8af33e39b7daddce604082015246606082015273ffffffffffffffffffffffffffffffffffffffff7f00000000000000000000000000000000000000000000000000000000000000001660808201526080815260a0810181811067ffffffffffffffff8211176118115760405251902090565b91908203918211611b1e5756fea2646970667358221220e2be4e8ba5515f024415e330d73197537fa73083f679df7e16cb44e4b987df2d64736f6c63430008180033",
  "linkReferences": {},
  "deployedLinkReferences": {},
  "devdoc": {
    "errors": {
      "DeadlineOver(uint256,uint256)": [
        {
          "params": {
            "currentTime": "time at which the error happen",
            "deadline": "the deadline"
          }
        }
      ],
      "InvalidAddress(address)": [
        {
          "params": {
            "addr": "invalid address"
          }
        }
      ],
      "InvalidMsgValue(uint256,uint256)": [
        {
          "params": {
            "expected": "value expected",
            "provided": "msg.value amount provided"
          }
        }
      ],
      "InvalidTotalAmount(uint256,uint256)": [
        {
          "params": {
            "expected": "value expected",
            "provided": "msg.value amount provided"
          }
        }
      ],
      "NotAuthorizedAllowance(uint256,uint256)": [
        {
          "params": {
            "currentAllowance": "the current allowance",
            "expected": "amount expected"
          }
        }
      ],
      "NotEnoughTokens(uint256,uint256)": [
        {
          "params": {
            "currentBalance": "the current balance",
            "expected": "amount expected"
          }
        }
      ]
    },
    "events": {
      "Approval(address,address,uint256)": {
        "params": {
          "owner": "the account approving the `spender`",
          "spender": "the account allowed to spend",
          "value": "the amount granted"
        }
      },
      "Transfer(address,address,uint256)": {
        "params": {
          "from": "the account the tokens are sent from",
          "to": "the account the tokens are sent to",
          "value": "number of tokens sent"
        }
      }
    },
    "kind": "dev",
    "methods": {
      "approveAndCall(address,uint256,bytes)": {
        "params": {
          "amount": "number of token to transfer",
          "data": "extra data",
          "spender": "account to send the token for"
        },
        "returns": {
          "_0": "success"
        }
      },
      "eip712Domain()": {
        "returns": {
          "chainID": "EIP-712 chainID",
          "extensions": "A list of EIP numbers that specify additional fields in the domain. The method to obtain the value for each of these additional fields and any conditions for inclusion are expected to be specified in the respective EIP. The value of fields does not affect their inclusion.",
          "fields": "A bit map where bit i is set to 1 if and only if domain field i is present (0  i  4). Bits are read from least significant to most significant, and fields are indexed in the order that is specified by EIP-712, identical to the order in which they are listed in the function type.",
          "name": "EIP-712 name",
          "salt": "EIP-712 salt",
          "verifyingContract": "EIP-712 name verifyingContract",
          "version": "EIP-712 version"
        }
      },
      "nonces(address)": {
        "params": {
          "owner": "address queried"
        },
        "returns": {
          "_0": "nonce value"
        }
      },
      "permit(address,address,uint256,uint256,uint8,bytes32,bytes32)": {
        "params": {
          "deadline": "timestamp in seconds after which the permit is not valid.",
          "owner": "owner of the tokens",
          "r": "signature part r",
          "s": "signature part s",
          "spender": "address allowed to spend on behalf of the owner.",
          "v": "signature part v",
          "value": "amount of token allowed to be spent"
        }
      },
      "transferAndCall(address,uint256,bytes)": {
        "params": {
          "amount": "number of token to transfer",
          "data": "extra data",
          "to": "account to receive the tokens"
        },
        "returns": {
          "_0": "success"
        }
      },
      "transferFromAndCall(address,address,uint256,bytes)": {
        "params": {
          "amount": "number of token to transfer",
          "data": "extra data",
          "from": "account to send the token from",
          "to": "account to receive the tokens"
        },
        "returns": {
          "_0": "success"
        }
      },
      "transferOnBehalfAndCall(address,address,uint256,bytes)": {
        "params": {
          "amount": "number of token to transfer",
          "data": "extra data",
          "forAddress": "account to send the token for",
          "to": "account to receive the tokens"
        },
        "returns": {
          "_0": "success"
        }
      }
    },
    "version": 1
  },
  "evm": {
    "gasEstimates": {
      "creation": {
        "codeDepositCost": "1768200",
        "executionCost": "infinite",
        "totalCost": "infinite"
      },
      "external": {
        "DOMAIN_SEPARATOR()": "infinite",
        "allowance(address,address)": "5418",
        "anyNotAuthorized(address[])": "infinite",
        "approve(address,uint256)": "24399",
        "approveAndCall(address,uint256,bytes)": "infinite",
        "authorize(address[],bool)": "infinite",
        "authorizeGlobalApprovals(address[],bool)": "infinite",
        "authorizeMinters(address[],bool)": "infinite",
        "authorized(address)": "2946",
        "authorizedMinters(address)": "2924",
        "balanceOf(address)": "2692",
        "config()": "2597",
        "decimals()": "303",
        "distributeAlongWithETH(address[],uint256)": "infinite",
        "eip712Domain()": "infinite",
        "enableRequireAuthorization(address[])": "infinite",
        "globalApprovals(address)": "3122",
        "mint(address,uint256)": "infinite",
        "name()": "infinite",
        "nonces(address)": "2736",
        "permit(address,address,uint256,uint256,uint8,bytes32,bytes32)": "infinite",
        "requireAuthorization()": "2536",
        "setConfig((address))": "24778",
        "setRequireAuthorization(bool)": "27035",
        "symbol()": "infinite",
        "totalSupply()": "2340",
        "touched(address)": "3061",
        "transfer(address,uint256)": "84407",
        "transferAlongWithETH(address,uint256)": "infinite",
        "transferAndCall(address,uint256,bytes)": "infinite",
        "transferFrom(address,address,uint256)": "infinite",
        "transferFromAndCall(address,address,uint256,bytes)": "infinite",
        "transferOnBehalfAndCall(address,address,uint256,bytes)": "infinite"
      },
      "internal": {
        "_authorizeGlobalApproval(address,bool)": "infinite",
        "_authorizeMinter(address,bool)": "infinite",
        "_transfer(address,address,uint256)": "infinite",
        "_transferFrom(address,address,uint256)": "infinite"
      }
    }
  },
  "storageLayout": {
    "storage": [
      {
        "astId": 258,
        "contract": "src/test/TestTokens.sol:TestTokens",
        "label": "_totalSupply",
        "offset": 0,
        "slot": "0",
        "type": "t_uint256"
      },
      {
        "astId": 262,
        "contract": "src/test/TestTokens.sol:TestTokens",
        "label": "_balances",
        "offset": 0,
        "slot": "1",
        "type": "t_mapping(t_address,t_uint256)"
      },
      {
        "astId": 268,
        "contract": "src/test/TestTokens.sol:TestTokens",
        "label": "_allowances",
        "offset": 0,
        "slot": "2",
        "type": "t_mapping(t_address,t_mapping(t_address,t_uint256))"
      },
      {
        "astId": 25,
        "contract": "src/test/TestTokens.sol:TestTokens",
        "label": "_nonces",
        "offset": 0,
        "slot": "3",
        "type": "t_mapping(t_address,t_uint256)"
      },
      {
        "astId": 1490,
        "contract": "src/test/TestTokens.sol:TestTokens",
        "label": "config",
        "offset": 0,
        "slot": "4",
        "type": "t_struct(Config)1501_storage"
      },
      {
        "astId": 1494,
        "contract": "src/test/TestTokens.sol:TestTokens",
        "label": "authorizedMinters",
        "offset": 0,
        "slot": "5",
        "type": "t_mapping(t_address,t_bool)"
      },
      {
        "astId": 1498,
        "contract": "src/test/TestTokens.sol:TestTokens",
        "label": "globalApprovals",
        "offset": 0,
        "slot": "6",
        "type": "t_mapping(t_address,t_bool)"
      },
      {
        "astId": 1716,
        "contract": "src/test/TestTokens.sol:TestTokens",
        "label": "authorized",
        "offset": 0,
        "slot": "7",
        "type": "t_mapping(t_address,t_bool)"
      },
      {
        "astId": 1718,
        "contract": "src/test/TestTokens.sol:TestTokens",
        "label": "requireAuthorization",
        "offset": 0,
        "slot": "8",
        "type": "t_bool"
      },
      {
        "astId": 1722,
        "contract": "src/test/TestTokens.sol:TestTokens",
        "label": "touched",
        "offset": 0,
        "slot": "9",
        "type": "t_mapping(t_address,t_bool)"
      }
    ],
    "types": {
      "t_address": {
        "encoding": "inplace",
        "label": "address",
        "numberOfBytes": "20"
      },
      "t_bool": {
        "encoding": "inplace",
        "label": "bool",
        "numberOfBytes": "1"
      },
      "t_mapping(t_address,t_bool)": {
        "encoding": "mapping",
        "key": "t_address",
        "label": "mapping(address => bool)",
        "numberOfBytes": "32",
        "value": "t_bool"
      },
      "t_mapping(t_address,t_mapping(t_address,t_uint256))": {
        "encoding": "mapping",
        "key": "t_address",
        "label": "mapping(address => mapping(address => uint256))",
        "numberOfBytes": "32",
        "value": "t_mapping(t_address,t_uint256)"
      },
      "t_mapping(t_address,t_uint256)": {
        "encoding": "mapping",
        "key": "t_address",
        "label": "mapping(address => uint256)",
        "numberOfBytes": "32",
        "value": "t_uint256"
      },
      "t_struct(Config)1501_storage": {
        "encoding": "inplace",
        "label": "struct TestTokens.Config",
        "members": [
          {
            "astId": 1500,
            "contract": "src/test/TestTokens.sol:TestTokens",
            "label": "admin",
            "offset": 0,
            "slot": "0",
            "type": "t_address"
          }
        ],
        "numberOfBytes": "32"
      },
      "t_uint256": {
        "encoding": "inplace",
        "label": "uint256",
        "numberOfBytes": "32"
      }
    }
  },
  "userdoc": {
    "errors": {
      "DeadlineOver(uint256,uint256)": [
        {
          "notice": "The permit has expired"
        }
      ],
      "InvalidAddress(address)": [
        {
          "notice": "An invalid address is specified (for example: zero address)"
        }
      ],
      "InvalidMsgValue(uint256,uint256)": [
        {
          "notice": "The msg value do not match the expected value"
        }
      ],
      "InvalidSignature()": [
        {
          "notice": "The signature do not match the expected signer"
        }
      ],
      "InvalidTotalAmount(uint256,uint256)": [
        {
          "notice": "The total amount provided do not match the expected value"
        }
      ],
      "NotAuthorizedAllowance(uint256,uint256)": [
        {
          "notice": "the amount requested exceed the allowance"
        }
      ],
      "NotEnoughTokens(uint256,uint256)": [
        {
          "notice": "the amount requested exceed the balance"
        }
      ]
    },
    "events": {
      "Approval(address,address,uint256)": {
        "notice": "trigger on approval amount being set.   Note that Transfer events need to be considered to compute the current allowance."
      },
      "Transfer(address,address,uint256)": {
        "notice": "trigger when tokens are transferred, including zero value transfers."
      }
    },
    "kind": "user",
    "methods": {
      "DOMAIN_SEPARATOR()": {
        "notice": "EIP-712 Domain separator hash"
      },
      "allowance(address,address)": {
        "notice": "Returns the amount which `spender` is still allowed to withdraw from `owner`."
      },
      "approve(address,uint256)": {
        "notice": "Allows `spender` to withdraw from your account multiple times, up to `amount`."
      },
      "approveAndCall(address,uint256,bytes)": {
        "notice": "approve `amount` token to be spent by `spender` and callback into it via `onTokenApproval`"
      },
      "balanceOf(address)": {
        "notice": "Returns the account balance of another account with address `owner`."
      },
      "decimals()": {
        "notice": "Returns the number of decimals the token uses."
      },
      "distributeAlongWithETH(address[],uint256)": {
        "notice": "distribute"
      },
      "eip712Domain()": {
        "notice": "The return values of this function MUST describe the domain separator that is used for verification of EIP-712 signatures in the contract. They describe both the form of the EIP712Domain struct (i.e., which of the optional fields and extensions are present) and the value of each field, as follows."
      },
      "nonces(address)": {
        "notice": "return the current nonce of the owner"
      },
      "permit(address,address,uint256,uint256,uint8,bytes32,bytes32)": {
        "notice": "allow `spender` to spend `value` amount of token on behalf of `owner`"
      },
      "symbol()": {
        "notice": "Returns the symbol of the token."
      },
      "totalSupply()": {
        "notice": "Returns the total token supply."
      },
      "transfer(address,uint256)": {
        "notice": "Transfers `amount` of tokens to address `to`."
      },
      "transferAlongWithETH(address,uint256)": {
        "notice": "transfer"
      },
      "transferAndCall(address,uint256,bytes)": {
        "notice": "transfer `amount` token to `to` and callback into it via `onTokenTransfer`"
      },
      "transferFrom(address,address,uint256)": {
        "notice": "Transfers `amount` tokens from address `from` to address `to`."
      },
      "transferFromAndCall(address,address,uint256,bytes)": {
        "notice": "transfer `amount` token to `to` and callback into it via `onTokenTransfer`"
      },
      "transferOnBehalfAndCall(address,address,uint256,bytes)": {
        "notice": "transfer `amount` token to `to` and callback into it via `onTokenTransferedOnBehalf`"
      }
    },
    "version": 1
  },
  "argsData": "0x000000000000000000000000e53cd71271acadbeb0f64d9c8c62bbddc8ca9e660000000000000000000000000000000000000000033b2e3c9fd0803ce800000000000000000000000000000061c461ecc993aadeb7e4b47e96d1b8cc37314b20",
  "transaction": {
    "hash": "0xd52c83d207077cc0c84d94bbb80ac60395ee03dfbe04b5d534a5deb2a0f4ce9c",
    "origin": "0x61c461ecc993aadeb7e4b47e96d1b8cc37314b20"
  }
}