{
  "address": "0x8b3360cdefde2ac4ddf63d805e8d61d630694196",
  "abi": [
    {
      "inputs": [
        {
          "internalType": "contract IReward",
          "name": "rewardAddress",
          "type": "address"
        },
        {
          "components": [
            {
              "internalType": "uint256",
              "name": "rewardRateMillionth",
              "type": "uint256"
            },
            {
              "internalType": "uint256",
              "name": "fixedRewardRateThousandsMillionth",
              "type": "uint256"
            }
          ],
          "internalType": "struct RewardsGenerator.Config",
          "name": "config",
          "type": "tuple"
        },
        {
          "internalType": "address[]",
          "name": "initialGames",
          "type": "address[]"
        }
      ],
      "stateMutability": "nonpayable",
      "type": "constructor"
    },
    {
      "inputs": [],
      "name": "NonTransferable",
      "type": "error"
    },
    {
      "inputs": [],
      "name": "NotAuthorized",
      "type": "error"
    },
    {
      "anonymous": false,
      "inputs": [
        {
          "indexed": true,
          "internalType": "address",
          "name": "owner",
          "type": "address"
        },
        {
          "indexed": true,
          "internalType": "address",
          "name": "spender",
          "type": "address"
        },
        {
          "indexed": false,
          "internalType": "uint256",
          "name": "value",
          "type": "uint256"
        }
      ],
      "name": "Approval",
      "type": "event"
    },
    {
      "anonymous": false,
      "inputs": [
        {
          "indexed": true,
          "internalType": "address",
          "name": "game",
          "type": "address"
        },
        {
          "indexed": false,
          "internalType": "uint256",
          "name": "weight",
          "type": "uint256"
        },
        {
          "indexed": false,
          "internalType": "uint256",
          "name": "timestamp",
          "type": "uint256"
        }
      ],
      "name": "GameEnabled",
      "type": "event"
    },
    {
      "anonymous": false,
      "inputs": [
        {
          "indexed": true,
          "internalType": "address",
          "name": "from",
          "type": "address"
        },
        {
          "indexed": true,
          "internalType": "address",
          "name": "to",
          "type": "address"
        },
        {
          "indexed": false,
          "internalType": "uint256",
          "name": "value",
          "type": "uint256"
        }
      ],
      "name": "Transfer",
      "type": "event"
    },
    {
      "inputs": [],
      "name": "REWARD",
      "outputs": [
        {
          "internalType": "contract IReward",
          "name": "",
          "type": "address"
        }
      ],
      "stateMutability": "view",
      "type": "function"
    },
    {
      "inputs": [
        {
          "internalType": "address",
          "name": "account",
          "type": "address"
        },
        {
          "internalType": "uint256",
          "name": "amount",
          "type": "uint256"
        }
      ],
      "name": "add",
      "outputs": [],
      "stateMutability": "nonpayable",
      "type": "function"
    },
    {
      "inputs": [
        {
          "internalType": "address",
          "name": "",
          "type": "address"
        },
        {
          "internalType": "address",
          "name": "",
          "type": "address"
        }
      ],
      "name": "allowance",
      "outputs": [
        {
          "internalType": "uint256",
          "name": "",
          "type": "uint256"
        }
      ],
      "stateMutability": "pure",
      "type": "function"
    },
    {
      "inputs": [
        {
          "internalType": "address",
          "name": "",
          "type": "address"
        },
        {
          "internalType": "uint256",
          "name": "",
          "type": "uint256"
        }
      ],
      "name": "approve",
      "outputs": [
        {
          "internalType": "bool",
          "name": "",
          "type": "bool"
        }
      ],
      "stateMutability": "pure",
      "type": "function"
    },
    {
      "inputs": [
        {
          "internalType": "address",
          "name": "owner",
          "type": "address"
        }
      ],
      "name": "balanceOf",
      "outputs": [
        {
          "internalType": "uint256",
          "name": "",
          "type": "uint256"
        }
      ],
      "stateMutability": "view",
      "type": "function"
    },
    {
      "inputs": [
        {
          "internalType": "address",
          "name": "to",
          "type": "address"
        }
      ],
      "name": "claimFixedRewards",
      "outputs": [],
      "stateMutability": "nonpayable",
      "type": "function"
    },
    {
      "inputs": [
        {
          "internalType": "address",
          "name": "to",
          "type": "address"
        }
      ],
      "name": "claimSharedPoolRewards",
      "outputs": [],
      "stateMutability": "nonpayable",
      "type": "function"
    },
    {
      "inputs": [],
      "name": "decimals",
      "outputs": [
        {
          "internalType": "uint8",
          "name": "",
          "type": "uint8"
        }
      ],
      "stateMutability": "pure",
      "type": "function"
    },
    {
      "inputs": [
        {
          "internalType": "address",
          "name": "account",
          "type": "address"
        }
      ],
      "name": "earnedFromFixedRate",
      "outputs": [
        {
          "internalType": "uint256",
          "name": "",
          "type": "uint256"
        }
      ],
      "stateMutability": "view",
      "type": "function"
    },
    {
      "inputs": [
        {
          "internalType": "address[]",
          "name": "accounts",
          "type": "address[]"
        }
      ],
      "name": "earnedFromFixedRateMultipleAccounts",
      "outputs": [
        {
          "internalType": "uint256[]",
          "name": "result",
          "type": "uint256[]"
        }
      ],
      "stateMutability": "view",
      "type": "function"
    },
    {
      "inputs": [
        {
          "internalType": "address",
          "name": "account",
          "type": "address"
        }
      ],
      "name": "earnedFromPoolRate",
      "outputs": [
        {
          "internalType": "uint256",
          "name": "",
          "type": "uint256"
        }
      ],
      "stateMutability": "view",
      "type": "function"
    },
    {
      "inputs": [
        {
          "internalType": "address[]",
          "name": "accounts",
          "type": "address[]"
        }
      ],
      "name": "earnedFromPoolRateMultipleAccounts",
      "outputs": [
        {
          "internalType": "uint256[]",
          "name": "result",
          "type": "uint256[]"
        }
      ],
      "stateMutability": "view",
      "type": "function"
    },
    {
      "inputs": [
        {
          "internalType": "address",
          "name": "game",
          "type": "address"
        },
        {
          "internalType": "uint256",
          "name": "weight",
          "type": "uint256"
        }
      ],
      "name": "enableGame",
      "outputs": [],
      "stateMutability": "nonpayable",
      "type": "function"
    },
    {
      "inputs": [
        {
          "internalType": "address",
          "name": "",
          "type": "address"
        }
      ],
      "name": "games",
      "outputs": [
        {
          "internalType": "uint256",
          "name": "",
          "type": "uint256"
        }
      ],
      "stateMutability": "view",
      "type": "function"
    },
    {
      "inputs": [],
      "name": "getTotalRewardPerPointWithPrecision24",
      "outputs": [
        {
          "internalType": "uint256",
          "name": "",
          "type": "uint256"
        }
      ],
      "stateMutability": "view",
      "type": "function"
    },
    {
      "inputs": [
        {
          "internalType": "address",
          "name": "from",
          "type": "address"
        },
        {
          "internalType": "address",
          "name": "to",
          "type": "address"
        },
        {
          "internalType": "uint256",
          "name": "amount",
          "type": "uint256"
        }
      ],
      "name": "move",
      "outputs": [],
      "stateMutability": "nonpayable",
      "type": "function"
    },
    {
      "inputs": [],
      "name": "name",
      "outputs": [
        {
          "internalType": "string",
          "name": "",
          "type": "string"
        }
      ],
      "stateMutability": "pure",
      "type": "function"
    },
    {
      "inputs": [
        {
          "internalType": "contract IReward",
          "name": "rewardAddress",
          "type": "address"
        },
        {
          "components": [
            {
              "internalType": "uint256",
              "name": "rewardRateMillionth",
              "type": "uint256"
            },
            {
              "internalType": "uint256",
              "name": "fixedRewardRateThousandsMillionth",
              "type": "uint256"
            }
          ],
          "internalType": "struct RewardsGenerator.Config",
          "name": "config",
          "type": "tuple"
        },
        {
          "internalType": "address[]",
          "name": "initialGames",
          "type": "address[]"
        }
      ],
      "name": "postUpgrade",
      "outputs": [],
      "stateMutability": "nonpayable",
      "type": "function"
    },
    {
      "inputs": [
        {
          "internalType": "address",
          "name": "account",
          "type": "address"
        },
        {
          "internalType": "uint256",
          "name": "amount",
          "type": "uint256"
        }
      ],
      "name": "remove",
      "outputs": [],
      "stateMutability": "nonpayable",
      "type": "function"
    },
    {
      "inputs": [],
      "name": "symbol",
      "outputs": [
        {
          "internalType": "string",
          "name": "",
          "type": "string"
        }
      ],
      "stateMutability": "view",
      "type": "function"
    },
    {
      "inputs": [],
      "name": "totalSupply",
      "outputs": [
        {
          "internalType": "uint256",
          "name": "",
          "type": "uint256"
        }
      ],
      "stateMutability": "view",
      "type": "function"
    },
    {
      "inputs": [
        {
          "internalType": "address",
          "name": "",
          "type": "address"
        },
        {
          "internalType": "uint256",
          "name": "",
          "type": "uint256"
        }
      ],
      "name": "transfer",
      "outputs": [
        {
          "internalType": "bool",
          "name": "",
          "type": "bool"
        }
      ],
      "stateMutability": "pure",
      "type": "function"
    },
    {
      "inputs": [
        {
          "internalType": "address",
          "name": "",
          "type": "address"
        },
        {
          "internalType": "address",
          "name": "",
          "type": "address"
        },
        {
          "internalType": "uint256",
          "name": "",
          "type": "uint256"
        }
      ],
      "name": "transferFrom",
      "outputs": [
        {
          "internalType": "bool",
          "name": "",
          "type": "bool"
        }
      ],
      "stateMutability": "pure",
      "type": "function"
    }
  ],
  "contractName": "RewardsGenerator",
  "sourceName": "src/token/RewardsGenerator.sol",
  "linkReferences": {},
  "deployedLinkReferences": {},
  "devdoc": {
    "events": {
      "Approval(address,address,uint256)": {
        "params": {
          "owner": "the account approving the `spender`",
          "spender": "the account allowed to spend",
          "value": "the amount granted"
        }
      },
      "Transfer(address,address,uint256)": {
        "params": {
          "from": "the account the tokens are sent from",
          "to": "the account the tokens are sent to",
          "value": "number of tokens sent"
        }
      }
    },
    "kind": "dev",
    "methods": {},
    "version": 1
  },
  "evm": {
    "bytecode": {
      "linkReferences": {},
      "object": "604060e0815234620001d95762001a53803803806200001e81620001f4565b92833981019080820360808112620001d9578151916001600160a01b03908184168403620001d95785602093601f190112620001d95785516001600160401b039481880186811183821017620001de5788528483015182528783015192858301938452606081015190878211620001d957019680601f89011215620001d9578751968711620001de576005978760051b908780620000be818501620001f4565b809b81520192820101928311620001d9578701905b828210620001bf5750505060c052516080525160a05260ff60045416156200013c575b845161183890816200021b8239608051818181610a390152818161131001526115b7015260a05181611279015260c051818181610171015281816106ac0152610ca10152f35b60009260005b8151811015620001a257808385600193891b8501015116808752600386527f50b08f8489c009db3c1b3f160cc0dae1c0c6706774750c001e4c083f9483d5f389670de0b6b3a764000080828b205581519081524289820152a20162000142565b505050505050600160ff19600454161760045538808080620000f6565b81518781168103620001d9578152908701908701620000d3565b600080fd5b634e487b7160e01b600052604160045260246000fd5b6040519190601f01601f191682016001600160401b03811183821017620001de5760405256fe60806040908082526004918236101561001757600080fd5b600091823560e01c908163066112f914610c4e5750806306fdde0314610bdc578063095ea7b3146107ab57806316cf09f814610b1b57806318160ddd14610ade57806323b872dd14610aa4578063313ce56714610a6b57806348483382146109e857806359d431b31461099457806370a082311461092357806379131a19146108c25780637997f96d1461086957806395d89b41146107f3578063a8671f6a146107b0578063a9059cbb146107ab578063abe7f1ab14610754578063b061963c1461070a578063bb35783b146106d0578063cab34c0814610662578063cee2960b1461043d578063dd62ed3e146103d7578063f5d82b6b146103535763ff1e03e91461012257600080fd5b3461034f5760207ffffffffffffffffffffffffffffffffffffffffffffffffffffffffffffffffc36011261034f57610159610ddc565b9073ffffffffffffffffffffffffffffffffffffffff7f00000000000000000000000000000000000000000000000000000000000000001680156103275793839433855260016020526dffffffffffffffffffffffffffff908184872054166102536101f86101c661159d565b939050338a52600160205283888b20916cffffffffffffffffffffffffff97600189855460701c16940154169261147d565b933389526001602052868920921682907fffffffffff00000000000000000000000000ffffffffffffffffffffffffffff7affffffffffffffffffffffffff000000000000000000000000000083549260701b169116179055565b8261025c578680f35b6001017fffffffffffffffffffffffffffffffffffff00000000000000000000000000008154169055803b15610323576102e9948680948651978895869485937f21670f2200000000000000000000000000000000000000000000000000000000855284016020909392919373ffffffffffffffffffffffffffffffffffffffff60408201951681520152565b03925af190811561031a5750610303575b80808080808680f35b61030c90610fce565b6103175780386102fa565b80fd5b513d84823e3d90fd5b8580fd5b8482517fea8e4eb5000000000000000000000000000000000000000000000000000000008152fd5b5080fd5b5082346103d357817ffffffffffffffffffffffffffffffffffffffffffffffffffffffffffffffffc3601126103d35761038b610ddc565b91338452600360205280842054156103ad57836103aa602435856114be565b80f35b517fea8e4eb5000000000000000000000000000000000000000000000000000000008152fd5b8280fd5b50903461031757817ffffffffffffffffffffffffffffffffffffffffffffffffffffffffffffffffc3601126103175761040f610ddc565b5060243573ffffffffffffffffffffffffffffffffffffffff8116036104385760209151908152f35b600080fd5b5082346103d35760807ffffffffffffffffffffffffffffffffffffffffffffffffffffffffffffffffc3601126103d35773ffffffffffffffffffffffffffffffffffffffff81358181160361065e57827fffffffffffffffffffffffffffffffffffffffffffffffffffffffffffffffdc36011261065e5782519067ffffffffffffffff82850181811184821017610630578552602435835260443560209384015260643590811161032357366023820112156103235780840135906105038261106e565b916105108751938461102d565b80835260248584019160051b8301019136831161062c57602401905b82821061061457505050610564827fb53127684a568b3173ae13b9f8a6016e243e63b6e8ee1178d6a717850b5d610354163314611086565b60ff84541615610572578580f35b9091929394805b82518110156105dc578084610590600193866111d6565b511680600052600387527f50b08f8489c009db3c1b3f160cc0dae1c0c6706774750c001e4c083f9483d5f389670de0b6b3a76400008082600020558151908152428a820152a201610579565b50945050505060017fffffffffffffffffffffffffffffffffffffffffffffffffffffffffffffff0082541617905581808080808580f35b8135858116810361043857815290850190850161052c565b8880fd5b6041857f4e487b71000000000000000000000000000000000000000000000000000000006000525260246000fd5b8380fd5b503461034f57817ffffffffffffffffffffffffffffffffffffffffffffffffffffffffffffffffc36011261034f576020905173ffffffffffffffffffffffffffffffffffffffff7f0000000000000000000000000000000000000000000000000000000000000000168152f35b50913461034f576106e036610ec7565b92909194338552600360205280852054156103ad575050610705826103aa949561139b565b6114be565b503461034f5760207ffffffffffffffffffffffffffffffffffffffffffffffffffffffffffffffffc36011261034f5760209061074d610748610ddc565b6112b3565b9051908152f35b5082346103d357817ffffffffffffffffffffffffffffffffffffffffffffffffffffffffffffffffc3601126103d35761078c610ddc565b91338452600360205280842054156103ad57836103aa6024358561139b565b610e65565b503461034f5760207ffffffffffffffffffffffffffffffffffffffffffffffffffffffffffffffffc36011261034f5760209061074d6107ee610ddc565b61120a565b503461034f57817ffffffffffffffffffffffffffffffffffffffffffffffffffffffffffffffffc36011261034f5780516108659161083182611011565b600582527f504f494e5400000000000000000000000000000000000000000000000000000060208301525191829182610dff565b0390f35b5090346103175761087936610f27565b61088281611127565b925b818110610898578451806108658682610f92565b806108b16107ee6108ac6001948688611176565b6111b5565b6108bb82876111d6565b5201610884565b503461034f5760207ffffffffffffffffffffffffffffffffffffffffffffffffffffffffffffffffc36011261034f578060209273ffffffffffffffffffffffffffffffffffffffff610913610ddc565b1681526003845220549051908152f35b503461034f5760207ffffffffffffffffffffffffffffffffffffffffffffffffffffffffffffffffc36011261034f576dffffffffffffffffffffffffffff8160209373ffffffffffffffffffffffffffffffffffffffff610983610ddc565b168152600185522054169051908152f35b509034610317576109a436610f27565b6109ad81611127565b925b8181106109c3578451806108658682610f92565b806109d76107486108ac6001948688611176565b6109e182876111d6565b52016109af565b503461034f57817ffffffffffffffffffffffffffffffffffffffffffffffffffffffffffffffffc36011261034f5761074d602092546cffffffffffffffffffffffffff610a6164ffffffffff83167f00000000000000000000000000000000000000000000000000000000000000008460901c611359565b9160281c166110eb565b503461034f57817ffffffffffffffffffffffffffffffffffffffffffffffffffffffffffffffffc36011261034f576020905160128152f35b5090346103175750610ab536610ec7565b505050517f9cbe2357000000000000000000000000000000000000000000000000000000008152fd5b503461034f57817ffffffffffffffffffffffffffffffffffffffffffffffffffffffffffffffffc36011261034f576020915460901c9051908152f35b503461034f57807ffffffffffffffffffffffffffffffffffffffffffffffffffffffffffffffffc36011261034f577f50b08f8489c009db3c1b3f160cc0dae1c0c6706774750c001e4c083f9483d5f3610b73610ddc565b916024359273ffffffffffffffffffffffffffffffffffffffff90610bbc827fb53127684a568b3173ae13b9f8a6016e243e63b6e8ee1178d6a717850b5d610354163314611086565b16928360005260036020528082600020558151908152426020820152a280f35b503461034f57817ffffffffffffffffffffffffffffffffffffffffffffffffffffffffffffffffc36011261034f57805161086591610c1a82611011565b600682527f506f696e7473000000000000000000000000000000000000000000000000000060208301525191829182610dff565b849291503461065e5760207ffffffffffffffffffffffffffffffffffffffffffffffffffffffffffffffffc36011261065e57610c89610ddc565b9073ffffffffffffffffffffffffffffffffffffffff7f000000000000000000000000000000000000000000000000000000000000000016908115610db55750908491610cd53361120a565b9182610cdf578380f35b338452600260205284842080547fffffffffffffffffffffffffff000000000000000000000000000000000000001672ffffffffff00000000000000000000000000004260701b16179055813b1561065e5783610d8c968651978895869485937f21670f2200000000000000000000000000000000000000000000000000000000855284016020909392919373ffffffffffffffffffffffffffffffffffffffff60408201951681520152565b03925af190811561031a5750610da6575b80828180808380f35b610daf90610fce565b81610d9d565b807fea8e4eb500000000000000000000000000000000000000000000000000000000869252fd5b6004359073ffffffffffffffffffffffffffffffffffffffff8216820361043857565b60208082528251818301819052939260005b858110610e51575050507fffffffffffffffffffffffffffffffffffffffffffffffffffffffffffffffe0601f8460006040809697860101520116010190565b818101830151848201604001528201610e11565b346104385760407ffffffffffffffffffffffffffffffffffffffffffffffffffffffffffffffffc36011261043857610e9c610ddc565b5060046040517f9cbe2357000000000000000000000000000000000000000000000000000000008152fd5b7ffffffffffffffffffffffffffffffffffffffffffffffffffffffffffffffffc60609101126104385773ffffffffffffffffffffffffffffffffffffffff90600435828116810361043857916024359081168103610438579060443590565b9060207ffffffffffffffffffffffffffffffffffffffffffffffffffffffffffffffffc8301126104385760043567ffffffffffffffff9283821161043857806023830112156104385781600401359384116104385760248460051b83010111610438576024019190565b602090602060408183019282815285518094520193019160005b828110610fba575050505090565b835185529381019392810192600101610fac565b67ffffffffffffffff8111610fe257604052565b7f4e487b7100000000000000000000000000000000000000000000000000000000600052604160045260246000fd5b6040810190811067ffffffffffffffff821117610fe257604052565b90601f7fffffffffffffffffffffffffffffffffffffffffffffffffffffffffffffffe0910116810190811067ffffffffffffffff821117610fe257604052565b67ffffffffffffffff8111610fe25760051b60200190565b1561108d57565b60646040517f08c379a000000000000000000000000000000000000000000000000000000000815260206004820152600e60248201527f4e4f545f415554484f52495a45440000000000000000000000000000000000006044820152fd5b919082018092116110f857565b7f4e487b7100000000000000000000000000000000000000000000000000000000600052601160045260246000fd5b906111318261106e565b61113e604051918261102d565b8281527fffffffffffffffffffffffffffffffffffffffffffffffffffffffffffffffe061116c829461106e565b0190602036910137565b91908110156111865760051b0190565b7f4e487b7100000000000000000000000000000000000000000000000000000000600052603260045260246000fd5b3573ffffffffffffffffffffffffffffffffffffffff811681036104385790565b80518210156111865760209160051b010190565b919082039182116110f857565b818102929181159184041417156110f857565b73ffffffffffffffffffffffffffffffffffffffff6112b0911660008181526002602052604061124764ffffffffff8284205460701c16426111ea565b918381526001602052633b9aca0061129e6112776dffffffffffffffffffffffffffff95868686205416906111f7565b7f0000000000000000000000000000000000000000000000000000000000000000906111f7565b049381526002602052205416906110eb565b90565b73ffffffffffffffffffffffffffffffffffffffff6112b09116806000526001602052604060002054906cffffffffffffffffffffffffff916dffffffffffffffffffffffffffff9261133860005482610a6164ffffffffff83167f00000000000000000000000000000000000000000000000000000000000000008460901c611359565b92600052600160205283600160406000200154169382169160701c1661147d565b919082156113935761136e61137392426111ea565b6111f7565b69d3c21bcecceda1000000908181029181830414901517156110f8570490565b505050600090565b8115611479577fddf252ad1be2c89b69c2b068fc378daa952ba7f163c4a11628f55a4df523b3ef602060009373ffffffffffffffffffffffffffffffffffffffff6113e58561163a565b959071ffffffffffffffffffffffffffffffffffff7fffffffffffffffffffffffffffff000000000000000000000000000000000000858a54930360901b1691161787551693848652600183526dffffffffffffffffffffffffffff82604088209203167fffffffffffffffffffffffffffffffffffff0000000000000000000000000000825416179055604051908152a3565b5050565b61148a90611490936111ea565b906111f7565b9064e8d4a51000918281029281840414901517156110f85769d3c21bcecceda10000006112b09204906110eb565b908015611479577fddf252ad1be2c89b69c2b068fc378daa952ba7f163c4a11628f55a4df523b3ef602060009273ffffffffffffffffffffffffffffffffffffffff6115098661163a565b969071ffffffffffffffffffffffffffffffffffff7fffffffffffffffffffffffffffff000000000000000000000000000000000000858954930160901b1691161786551694858552600183526dffffffffffffffffffffffffffff82604087209201167fffffffffffffffffffffffffffffffffffff0000000000000000000000000000825416179055604051908152a3565b6000548060901c9164ffffffffff916115f46115dc8483167f000000000000000000000000000000000000000000000000000000000000000087611359565b6cffffffffffffffffffffffffff8360281c166110eb565b924216907fffffffffffffffffffffffffffff00000000000000000000000000000000000071ffffffffffffffffffffffffff00000000008560281b1691161717600055565b9073ffffffffffffffffffffffffffffffffffffffff9161165961159d565b93909116600090808252600160205260016116ae611736604085209788546dffffffffffffffffffffffffffff93818386809416809d856cffffffffffffffffffffffffff9a8b920154169360701c1661147d565b169385875260016020526040872091600183017fffffffffffffffffffffffffffffffffffff00000000000000000000000000009687825416179055167fffffffffff00000000000000000000000000ffffffffffffffffffffffffffff7affffffffffffffffffffffffff000000000000000000000000000083549260701b169116179055565b600260205264ffffffffff93633b9aca006117616112778a61136e89604087205460701c16426111ea565b0493815260026020526117b96040822095421686907fffffffffffffffffffffffffff0000000000ffffffffffffffffffffffffffff72ffffffffff000000000000000000000000000083549260701b169116179055565b818554941682851601908282116117d557501691161790559190565b807f4e487b7100000000000000000000000000000000000000000000000000000000602492526011600452fdfea2646970667358221220450714bbcef08410c8177a5fbfa400d0b9f5e8c907fd2022711353a2bc76b6a464736f6c63430008180033",
      "opcodes": "PUSH1 0x40 PUSH1 0xE0 DUP2 MSTORE CALLVALUE PUSH3 0x1D9 JUMPI PUSH3 0x1A53 DUP1 CODESIZE SUB DUP1 PUSH3 0x1E DUP2 PUSH3 0x1F4 JUMP JUMPDEST SWAP3 DUP4 CODECOPY DUP2 ADD SWAP1 DUP1 DUP3 SUB PUSH1 0x80 DUP2 SLT PUSH3 0x1D9 JUMPI DUP2 MLOAD SWAP2 PUSH1 0x1 PUSH1 0x1 PUSH1 0xA0 SHL SUB SWAP1 DUP2 DUP5 AND DUP5 SUB PUSH3 0x1D9 JUMPI DUP6 PUSH1 0x20 SWAP4 PUSH1 0x1F NOT ADD SLT PUSH3 0x1D9 JUMPI DUP6 MLOAD PUSH1 0x1 PUSH1 0x1 PUSH1 0x40 SHL SUB SWAP5 DUP2 DUP9 ADD DUP7 DUP2 GT DUP4 DUP3 LT OR PUSH3 0x1DE JUMPI DUP9 MSTORE DUP5 DUP4 ADD MLOAD DUP3 MSTORE DUP8 DUP4 ADD MLOAD SWAP3 DUP6 DUP4 ADD SWAP4 DUP5 MSTORE PUSH1 0x60 DUP2 ADD MLOAD SWAP1 DUP8 DUP3 GT PUSH3 0x1D9 JUMPI ADD SWAP7 DUP1 PUSH1 0x1F DUP10 ADD SLT ISZERO PUSH3 0x1D9 JUMPI DUP8 MLOAD SWAP7 DUP8 GT PUSH3 0x1DE JUMPI PUSH1 0x5 SWAP8 DUP8 PUSH1 0x5 SHL SWAP1 DUP8 DUP1 PUSH3 0xBE DUP2 DUP6 ADD PUSH3 0x1F4 JUMP JUMPDEST DUP1 SWAP12 DUP2 MSTORE ADD SWAP3 DUP3 ADD ADD SWAP3 DUP4 GT PUSH3 0x1D9 JUMPI DUP8 ADD SWAP1 JUMPDEST DUP3 DUP3 LT PUSH3 0x1BF JUMPI POP POP POP PUSH1 0xC0 MSTORE MLOAD PUSH1 0x80 MSTORE MLOAD PUSH1 0xA0 MSTORE PUSH1 0xFF PUSH1 0x4 SLOAD AND ISZERO PUSH3 0x13C JUMPI JUMPDEST DUP5 MLOAD PUSH2 0x1838 SWAP1 DUP2 PUSH3 0x21B DUP3 CODECOPY PUSH1 0x80 MLOAD DUP2 DUP2 DUP2 PUSH2 0xA39 ADD MSTORE DUP2 DUP2 PUSH2 0x1310 ADD MSTORE PUSH2 0x15B7 ADD MSTORE PUSH1 0xA0 MLOAD DUP2 PUSH2 0x1279 ADD MSTORE PUSH1 0xC0 MLOAD DUP2 DUP2 DUP2 PUSH2 0x171 ADD MSTORE DUP2 DUP2 PUSH2 0x6AC ADD MSTORE PUSH2 0xCA1 ADD MSTORE RETURN JUMPDEST PUSH1 0x0 SWAP3 PUSH1 0x0 JUMPDEST DUP2 MLOAD DUP2 LT ISZERO PUSH3 0x1A2 JUMPI DUP1 DUP4 DUP6 PUSH1 0x1 SWAP4 DUP10 SHL DUP6 ADD ADD MLOAD AND DUP1 DUP8 MSTORE PUSH1 0x3 DUP7 MSTORE PUSH32 0x50B08F8489C009DB3C1B3F160CC0DAE1C0C6706774750C001E4C083F9483D5F3 DUP10 PUSH8 0xDE0B6B3A7640000 DUP1 DUP3 DUP12 KECCAK256 SSTORE DUP2 MLOAD SWAP1 DUP2 MSTORE TIMESTAMP DUP10 DUP3 ADD MSTORE LOG2 ADD PUSH3 0x142 JUMP JUMPDEST POP POP POP POP POP POP PUSH1 0x1 PUSH1 0xFF NOT PUSH1 0x4 SLOAD AND OR PUSH1 0x4 SSTORE CODESIZE DUP1 DUP1 DUP1 PUSH3 0xF6 JUMP JUMPDEST DUP2 MLOAD DUP8 DUP2 AND DUP2 SUB PUSH3 0x1D9 JUMPI DUP2 MSTORE SWAP1 DUP8 ADD SWAP1 DUP8 ADD PUSH3 0xD3 JUMP JUMPDEST PUSH1 0x0 DUP1 REVERT JUMPDEST PUSH4 0x4E487B71 PUSH1 0xE0 SHL PUSH1 0x0 MSTORE PUSH1 0x41 PUSH1 0x4 MSTORE PUSH1 0x24 PUSH1 0x0 REVERT JUMPDEST PUSH1 0x40 MLOAD SWAP2 SWAP1 PUSH1 0x1F ADD PUSH1 0x1F NOT AND DUP3 ADD PUSH1 0x1 PUSH1 0x1 PUSH1 0x40 SHL SUB DUP2 GT DUP4 DUP3 LT OR PUSH3 0x1DE JUMPI PUSH1 0x40 MSTORE JUMP INVALID PUSH1 0x80 PUSH1 0x40 SWAP1 DUP1 DUP3 MSTORE PUSH1 0x4 SWAP2 DUP3 CALLDATASIZE LT ISZERO PUSH2 0x17 JUMPI PUSH1 0x0 DUP1 REVERT JUMPDEST PUSH1 0x0 SWAP2 DUP3 CALLDATALOAD PUSH1 0xE0 SHR SWAP1 DUP2 PUSH4 0x66112F9 EQ PUSH2 0xC4E JUMPI POP DUP1 PUSH4 0x6FDDE03 EQ PUSH2 0xBDC JUMPI DUP1 PUSH4 0x95EA7B3 EQ PUSH2 0x7AB JUMPI DUP1 PUSH4 0x16CF09F8 EQ PUSH2 0xB1B JUMPI DUP1 PUSH4 0x18160DDD EQ PUSH2 0xADE JUMPI DUP1 PUSH4 0x23B872DD EQ PUSH2 0xAA4 JUMPI DUP1 PUSH4 0x313CE567 EQ PUSH2 0xA6B JUMPI DUP1 PUSH4 0x48483382 EQ PUSH2 0x9E8 JUMPI DUP1 PUSH4 0x59D431B3 EQ PUSH2 0x994 JUMPI DUP1 PUSH4 0x70A08231 EQ PUSH2 0x923 JUMPI DUP1 PUSH4 0x79131A19 EQ PUSH2 0x8C2 JUMPI DUP1 PUSH4 0x7997F96D EQ PUSH2 0x869 JUMPI DUP1 PUSH4 0x95D89B41 EQ PUSH2 0x7F3 JUMPI DUP1 PUSH4 0xA8671F6A EQ PUSH2 0x7B0 JUMPI DUP1 PUSH4 0xA9059CBB EQ PUSH2 0x7AB JUMPI DUP1 PUSH4 0xABE7F1AB EQ PUSH2 0x754 JUMPI DUP1 PUSH4 0xB061963C EQ PUSH2 0x70A JUMPI DUP1 PUSH4 0xBB35783B EQ PUSH2 0x6D0 JUMPI DUP1 PUSH4 0xCAB34C08 EQ PUSH2 0x662 JUMPI DUP1 PUSH4 0xCEE2960B EQ PUSH2 0x43D JUMPI DUP1 PUSH4 0xDD62ED3E EQ PUSH2 0x3D7 JUMPI DUP1 PUSH4 0xF5D82B6B EQ PUSH2 0x353 JUMPI PUSH4 0xFF1E03E9 EQ PUSH2 0x122 JUMPI PUSH1 0x0 DUP1 REVERT JUMPDEST CALLVALUE PUSH2 0x34F JUMPI PUSH1 0x20 PUSH32 0xFFFFFFFFFFFFFFFFFFFFFFFFFFFFFFFFFFFFFFFFFFFFFFFFFFFFFFFFFFFFFFFC CALLDATASIZE ADD SLT PUSH2 0x34F JUMPI PUSH2 0x159 PUSH2 0xDDC JUMP JUMPDEST SWAP1 PUSH20 0xFFFFFFFFFFFFFFFFFFFFFFFFFFFFFFFFFFFFFFFF PUSH32 0x0 AND DUP1 ISZERO PUSH2 0x327 JUMPI SWAP4 DUP4 SWAP5 CALLER DUP6 MSTORE PUSH1 0x1 PUSH1 0x20 MSTORE PUSH14 0xFFFFFFFFFFFFFFFFFFFFFFFFFFFF SWAP1 DUP2 DUP5 DUP8 KECCAK256 SLOAD AND PUSH2 0x253 PUSH2 0x1F8 PUSH2 0x1C6 PUSH2 0x159D JUMP JUMPDEST SWAP4 SWAP1 POP CALLER DUP11 MSTORE PUSH1 0x1 PUSH1 0x20 MSTORE DUP4 DUP9 DUP12 KECCAK256 SWAP2 PUSH13 0xFFFFFFFFFFFFFFFFFFFFFFFFFF SWAP8 PUSH1 0x1 DUP10 DUP6 SLOAD PUSH1 0x70 SHR AND SWAP5 ADD SLOAD AND SWAP3 PUSH2 0x147D JUMP JUMPDEST SWAP4 CALLER DUP10 MSTORE PUSH1 0x1 PUSH1 0x20 MSTORE DUP7 DUP10 KECCAK256 SWAP3 AND DUP3 SWAP1 PUSH32 0xFFFFFFFFFF00000000000000000000000000FFFFFFFFFFFFFFFFFFFFFFFFFFFF PUSH27 0xFFFFFFFFFFFFFFFFFFFFFFFFFF0000000000000000000000000000 DUP4 SLOAD SWAP3 PUSH1 0x70 SHL AND SWAP2 AND OR SWAP1 SSTORE JUMP JUMPDEST DUP3 PUSH2 0x25C JUMPI DUP7 DUP1 RETURN JUMPDEST PUSH1 0x1 ADD PUSH32 0xFFFFFFFFFFFFFFFFFFFFFFFFFFFFFFFFFFFF0000000000000000000000000000 DUP2 SLOAD AND SWAP1 SSTORE DUP1 EXTCODESIZE ISZERO PUSH2 0x323 JUMPI PUSH2 0x2E9 SWAP5 DUP7 DUP1 SWAP5 DUP7 MLOAD SWAP8 DUP9 SWAP6 DUP7 SWAP5 DUP6 SWAP4 PUSH32 0x21670F2200000000000000000000000000000000000000000000000000000000 DUP6 MSTORE DUP5 ADD PUSH1 0x20 SWAP1 SWAP4 SWAP3 SWAP2 SWAP4 PUSH20 0xFFFFFFFFFFFFFFFFFFFFFFFFFFFFFFFFFFFFFFFF PUSH1 0x40 DUP3 ADD SWAP6 AND DUP2 MSTORE ADD MSTORE JUMP JUMPDEST SUB SWAP3 GAS CALL SWAP1 DUP2 ISZERO PUSH2 0x31A JUMPI POP PUSH2 0x303 JUMPI JUMPDEST DUP1 DUP1 DUP1 DUP1 DUP1 DUP7 DUP1 RETURN JUMPDEST PUSH2 0x30C SWAP1 PUSH2 0xFCE JUMP JUMPDEST PUSH2 0x317 JUMPI DUP1 CODESIZE PUSH2 0x2FA JUMP JUMPDEST DUP1 REVERT JUMPDEST MLOAD RETURNDATASIZE DUP5 DUP3 RETURNDATACOPY RETURNDATASIZE SWAP1 REVERT JUMPDEST DUP6 DUP1 REVERT JUMPDEST DUP5 DUP3 MLOAD PUSH32 0xEA8E4EB500000000000000000000000000000000000000000000000000000000 DUP2 MSTORE REVERT JUMPDEST POP DUP1 REVERT JUMPDEST POP DUP3 CALLVALUE PUSH2 0x3D3 JUMPI DUP2 PUSH32 0xFFFFFFFFFFFFFFFFFFFFFFFFFFFFFFFFFFFFFFFFFFFFFFFFFFFFFFFFFFFFFFFC CALLDATASIZE ADD SLT PUSH2 0x3D3 JUMPI PUSH2 0x38B PUSH2 0xDDC JUMP JUMPDEST SWAP2 CALLER DUP5 MSTORE PUSH1 0x3 PUSH1 0x20 MSTORE DUP1 DUP5 KECCAK256 SLOAD ISZERO PUSH2 0x3AD JUMPI DUP4 PUSH2 0x3AA PUSH1 0x24 CALLDATALOAD DUP6 PUSH2 0x14BE JUMP JUMPDEST DUP1 RETURN JUMPDEST MLOAD PUSH32 0xEA8E4EB500000000000000000000000000000000000000000000000000000000 DUP2 MSTORE REVERT JUMPDEST DUP3 DUP1 REVERT JUMPDEST POP SWAP1 CALLVALUE PUSH2 0x317 JUMPI DUP2 PUSH32 0xFFFFFFFFFFFFFFFFFFFFFFFFFFFFFFFFFFFFFFFFFFFFFFFFFFFFFFFFFFFFFFFC CALLDATASIZE ADD SLT PUSH2 0x317 JUMPI PUSH2 0x40F PUSH2 0xDDC JUMP JUMPDEST POP PUSH1 0x24 CALLDATALOAD PUSH20 0xFFFFFFFFFFFFFFFFFFFFFFFFFFFFFFFFFFFFFFFF DUP2 AND SUB PUSH2 0x438 JUMPI PUSH1 0x20 SWAP2 MLOAD SWAP1 DUP2 MSTORE RETURN JUMPDEST PUSH1 0x0 DUP1 REVERT JUMPDEST POP DUP3 CALLVALUE PUSH2 0x3D3 JUMPI PUSH1 0x80 PUSH32 0xFFFFFFFFFFFFFFFFFFFFFFFFFFFFFFFFFFFFFFFFFFFFFFFFFFFFFFFFFFFFFFFC CALLDATASIZE ADD SLT PUSH2 0x3D3 JUMPI PUSH20 0xFFFFFFFFFFFFFFFFFFFFFFFFFFFFFFFFFFFFFFFF DUP2 CALLDATALOAD DUP2 DUP2 AND SUB PUSH2 0x65E JUMPI DUP3 PUSH32 0xFFFFFFFFFFFFFFFFFFFFFFFFFFFFFFFFFFFFFFFFFFFFFFFFFFFFFFFFFFFFFFDC CALLDATASIZE ADD SLT PUSH2 0x65E JUMPI DUP3 MLOAD SWAP1 PUSH8 0xFFFFFFFFFFFFFFFF DUP3 DUP6 ADD DUP2 DUP2 GT DUP5 DUP3 LT OR PUSH2 0x630 JUMPI DUP6 MSTORE PUSH1 0x24 CALLDATALOAD DUP4 MSTORE PUSH1 0x44 CALLDATALOAD PUSH1 0x20 SWAP4 DUP5 ADD MSTORE PUSH1 0x64 CALLDATALOAD SWAP1 DUP2 GT PUSH2 0x323 JUMPI CALLDATASIZE PUSH1 0x23 DUP3 ADD SLT ISZERO PUSH2 0x323 JUMPI DUP1 DUP5 ADD CALLDATALOAD SWAP1 PUSH2 0x503 DUP3 PUSH2 0x106E JUMP JUMPDEST SWAP2 PUSH2 0x510 DUP8 MLOAD SWAP4 DUP5 PUSH2 0x102D JUMP JUMPDEST DUP1 DUP4 MSTORE PUSH1 0x24 DUP6 DUP5 ADD SWAP2 PUSH1 0x5 SHL DUP4 ADD ADD SWAP2 CALLDATASIZE DUP4 GT PUSH2 0x62C JUMPI PUSH1 0x24 ADD SWAP1 JUMPDEST DUP3 DUP3 LT PUSH2 0x614 JUMPI POP POP POP PUSH2 0x564 DUP3 PUSH32 0xB53127684A568B3173AE13B9F8A6016E243E63B6E8EE1178D6A717850B5D6103 SLOAD AND CALLER EQ PUSH2 0x1086 JUMP JUMPDEST PUSH1 0xFF DUP5 SLOAD AND ISZERO PUSH2 0x572 JUMPI DUP6 DUP1 RETURN JUMPDEST SWAP1 SWAP2 SWAP3 SWAP4 SWAP5 DUP1 JUMPDEST DUP3 MLOAD DUP2 LT ISZERO PUSH2 0x5DC JUMPI DUP1 DUP5 PUSH2 0x590 PUSH1 0x1 SWAP4 DUP7 PUSH2 0x11D6 JUMP JUMPDEST MLOAD AND DUP1 PUSH1 0x0 MSTORE PUSH1 0x3 DUP8 MSTORE PUSH32 0x50B08F8489C009DB3C1B3F160CC0DAE1C0C6706774750C001E4C083F9483D5F3 DUP10 PUSH8 0xDE0B6B3A7640000 DUP1 DUP3 PUSH1 0x0 KECCAK256 SSTORE DUP2 MLOAD SWAP1 DUP2 MSTORE TIMESTAMP DUP11 DUP3 ADD MSTORE LOG2 ADD PUSH2 0x579 JUMP JUMPDEST POP SWAP5 POP POP POP POP PUSH1 0x1 PUSH32 0xFFFFFFFFFFFFFFFFFFFFFFFFFFFFFFFFFFFFFFFFFFFFFFFFFFFFFFFFFFFFFF00 DUP3 SLOAD AND OR SWAP1 SSTORE DUP2 DUP1 DUP1 DUP1 DUP1 DUP6 DUP1 RETURN JUMPDEST DUP2 CALLDATALOAD DUP6 DUP2 AND DUP2 SUB PUSH2 0x438 JUMPI DUP2 MSTORE SWAP1 DUP6 ADD SWAP1 DUP6 ADD PUSH2 0x52C JUMP JUMPDEST DUP9 DUP1 REVERT JUMPDEST PUSH1 0x41 DUP6 PUSH32 0x4E487B7100000000000000000000000000000000000000000000000000000000 PUSH1 0x0 MSTORE MSTORE PUSH1 0x24 PUSH1 0x0 REVERT JUMPDEST DUP4 DUP1 REVERT JUMPDEST POP CALLVALUE PUSH2 0x34F JUMPI DUP2 PUSH32 0xFFFFFFFFFFFFFFFFFFFFFFFFFFFFFFFFFFFFFFFFFFFFFFFFFFFFFFFFFFFFFFFC CALLDATASIZE ADD SLT PUSH2 0x34F JUMPI PUSH1 0x20 SWAP1 MLOAD PUSH20 0xFFFFFFFFFFFFFFFFFFFFFFFFFFFFFFFFFFFFFFFF PUSH32 0x0 AND DUP2 MSTORE RETURN JUMPDEST POP SWAP2 CALLVALUE PUSH2 0x34F JUMPI PUSH2 0x6E0 CALLDATASIZE PUSH2 0xEC7 JUMP JUMPDEST SWAP3 SWAP1 SWAP2 SWAP5 CALLER DUP6 MSTORE PUSH1 0x3 PUSH1 0x20 MSTORE DUP1 DUP6 KECCAK256 SLOAD ISZERO PUSH2 0x3AD JUMPI POP POP PUSH2 0x705 DUP3 PUSH2 0x3AA SWAP5 SWAP6 PUSH2 0x139B JUMP JUMPDEST PUSH2 0x14BE JUMP JUMPDEST POP CALLVALUE PUSH2 0x34F JUMPI PUSH1 0x20 PUSH32 0xFFFFFFFFFFFFFFFFFFFFFFFFFFFFFFFFFFFFFFFFFFFFFFFFFFFFFFFFFFFFFFFC CALLDATASIZE ADD SLT PUSH2 0x34F JUMPI PUSH1 0x20 SWAP1 PUSH2 0x74D PUSH2 0x748 PUSH2 0xDDC JUMP JUMPDEST PUSH2 0x12B3 JUMP JUMPDEST SWAP1 MLOAD SWAP1 DUP2 MSTORE RETURN JUMPDEST POP DUP3 CALLVALUE PUSH2 0x3D3 JUMPI DUP2 PUSH32 0xFFFFFFFFFFFFFFFFFFFFFFFFFFFFFFFFFFFFFFFFFFFFFFFFFFFFFFFFFFFFFFFC CALLDATASIZE ADD SLT PUSH2 0x3D3 JUMPI PUSH2 0x78C PUSH2 0xDDC JUMP JUMPDEST SWAP2 CALLER DUP5 MSTORE PUSH1 0x3 PUSH1 0x20 MSTORE DUP1 DUP5 KECCAK256 SLOAD ISZERO PUSH2 0x3AD JUMPI DUP4 PUSH2 0x3AA PUSH1 0x24 CALLDATALOAD DUP6 PUSH2 0x139B JUMP JUMPDEST PUSH2 0xE65 JUMP JUMPDEST POP CALLVALUE PUSH2 0x34F JUMPI PUSH1 0x20 PUSH32 0xFFFFFFFFFFFFFFFFFFFFFFFFFFFFFFFFFFFFFFFFFFFFFFFFFFFFFFFFFFFFFFFC CALLDATASIZE ADD SLT PUSH2 0x34F JUMPI PUSH1 0x20 SWAP1 PUSH2 0x74D PUSH2 0x7EE PUSH2 0xDDC JUMP JUMPDEST PUSH2 0x120A JUMP JUMPDEST POP CALLVALUE PUSH2 0x34F JUMPI DUP2 PUSH32 0xFFFFFFFFFFFFFFFFFFFFFFFFFFFFFFFFFFFFFFFFFFFFFFFFFFFFFFFFFFFFFFFC CALLDATASIZE ADD SLT PUSH2 0x34F JUMPI DUP1 MLOAD PUSH2 0x865 SWAP2 PUSH2 0x831 DUP3 PUSH2 0x1011 JUMP JUMPDEST PUSH1 0x5 DUP3 MSTORE PUSH32 0x504F494E54000000000000000000000000000000000000000000000000000000 PUSH1 0x20 DUP4 ADD MSTORE MLOAD SWAP2 DUP3 SWAP2 DUP3 PUSH2 0xDFF JUMP JUMPDEST SUB SWAP1 RETURN JUMPDEST POP SWAP1 CALLVALUE PUSH2 0x317 JUMPI PUSH2 0x879 CALLDATASIZE PUSH2 0xF27 JUMP JUMPDEST PUSH2 0x882 DUP2 PUSH2 0x1127 JUMP JUMPDEST SWAP3 JUMPDEST DUP2 DUP2 LT PUSH2 0x898 JUMPI DUP5 MLOAD DUP1 PUSH2 0x865 DUP7 DUP3 PUSH2 0xF92 JUMP JUMPDEST DUP1 PUSH2 0x8B1 PUSH2 0x7EE PUSH2 0x8AC PUSH1 0x1 SWAP5 DUP7 DUP9 PUSH2 0x1176 JUMP JUMPDEST PUSH2 0x11B5 JUMP JUMPDEST PUSH2 0x8BB DUP3 DUP8 PUSH2 0x11D6 JUMP JUMPDEST MSTORE ADD PUSH2 0x884 JUMP JUMPDEST POP CALLVALUE PUSH2 0x34F JUMPI PUSH1 0x20 PUSH32 0xFFFFFFFFFFFFFFFFFFFFFFFFFFFFFFFFFFFFFFFFFFFFFFFFFFFFFFFFFFFFFFFC CALLDATASIZE ADD SLT PUSH2 0x34F JUMPI DUP1 PUSH1 0x20 SWAP3 PUSH20 0xFFFFFFFFFFFFFFFFFFFFFFFFFFFFFFFFFFFFFFFF PUSH2 0x913 PUSH2 0xDDC JUMP JUMPDEST AND DUP2 MSTORE PUSH1 0x3 DUP5 MSTORE KECCAK256 SLOAD SWAP1 MLOAD SWAP1 DUP2 MSTORE RETURN JUMPDEST POP CALLVALUE PUSH2 0x34F JUMPI PUSH1 0x20 PUSH32 0xFFFFFFFFFFFFFFFFFFFFFFFFFFFFFFFFFFFFFFFFFFFFFFFFFFFFFFFFFFFFFFFC CALLDATASIZE ADD SLT PUSH2 0x34F JUMPI PUSH14 0xFFFFFFFFFFFFFFFFFFFFFFFFFFFF DUP2 PUSH1 0x20 SWAP4 PUSH20 0xFFFFFFFFFFFFFFFFFFFFFFFFFFFFFFFFFFFFFFFF PUSH2 0x983 PUSH2 0xDDC JUMP JUMPDEST AND DUP2 MSTORE PUSH1 0x1 DUP6 MSTORE KECCAK256 SLOAD AND SWAP1 MLOAD SWAP1 DUP2 MSTORE RETURN JUMPDEST POP SWAP1 CALLVALUE PUSH2 0x317 JUMPI PUSH2 0x9A4 CALLDATASIZE PUSH2 0xF27 JUMP JUMPDEST PUSH2 0x9AD DUP2 PUSH2 0x1127 JUMP JUMPDEST SWAP3 JUMPDEST DUP2 DUP2 LT PUSH2 0x9C3 JUMPI DUP5 MLOAD DUP1 PUSH2 0x865 DUP7 DUP3 PUSH2 0xF92 JUMP JUMPDEST DUP1 PUSH2 0x9D7 PUSH2 0x748 PUSH2 0x8AC PUSH1 0x1 SWAP5 DUP7 DUP9 PUSH2 0x1176 JUMP JUMPDEST PUSH2 0x9E1 DUP3 DUP8 PUSH2 0x11D6 JUMP JUMPDEST MSTORE ADD PUSH2 0x9AF JUMP JUMPDEST POP CALLVALUE PUSH2 0x34F JUMPI DUP2 PUSH32 0xFFFFFFFFFFFFFFFFFFFFFFFFFFFFFFFFFFFFFFFFFFFFFFFFFFFFFFFFFFFFFFFC CALLDATASIZE ADD SLT PUSH2 0x34F JUMPI PUSH2 0x74D PUSH1 0x20 SWAP3 SLOAD PUSH13 0xFFFFFFFFFFFFFFFFFFFFFFFFFF PUSH2 0xA61 PUSH5 0xFFFFFFFFFF DUP4 AND PUSH32 0x0 DUP5 PUSH1 0x90 SHR PUSH2 0x1359 JUMP JUMPDEST SWAP2 PUSH1 0x28 SHR AND PUSH2 0x10EB JUMP JUMPDEST POP CALLVALUE PUSH2 0x34F JUMPI DUP2 PUSH32 0xFFFFFFFFFFFFFFFFFFFFFFFFFFFFFFFFFFFFFFFFFFFFFFFFFFFFFFFFFFFFFFFC CALLDATASIZE ADD SLT PUSH2 0x34F JUMPI PUSH1 0x20 SWAP1 MLOAD PUSH1 0x12 DUP2 MSTORE RETURN JUMPDEST POP SWAP1 CALLVALUE PUSH2 0x317 JUMPI POP PUSH2 0xAB5 CALLDATASIZE PUSH2 0xEC7 JUMP JUMPDEST POP POP POP MLOAD PUSH32 0x9CBE235700000000000000000000000000000000000000000000000000000000 DUP2 MSTORE REVERT JUMPDEST POP CALLVALUE PUSH2 0x34F JUMPI DUP2 PUSH32 0xFFFFFFFFFFFFFFFFFFFFFFFFFFFFFFFFFFFFFFFFFFFFFFFFFFFFFFFFFFFFFFFC CALLDATASIZE ADD SLT PUSH2 0x34F JUMPI PUSH1 0x20 SWAP2 SLOAD PUSH1 0x90 SHR SWAP1 MLOAD SWAP1 DUP2 MSTORE RETURN JUMPDEST POP CALLVALUE PUSH2 0x34F JUMPI DUP1 PUSH32 0xFFFFFFFFFFFFFFFFFFFFFFFFFFFFFFFFFFFFFFFFFFFFFFFFFFFFFFFFFFFFFFFC CALLDATASIZE ADD SLT PUSH2 0x34F JUMPI PUSH32 0x50B08F8489C009DB3C1B3F160CC0DAE1C0C6706774750C001E4C083F9483D5F3 PUSH2 0xB73 PUSH2 0xDDC JUMP JUMPDEST SWAP2 PUSH1 0x24 CALLDATALOAD SWAP3 PUSH20 0xFFFFFFFFFFFFFFFFFFFFFFFFFFFFFFFFFFFFFFFF SWAP1 PUSH2 0xBBC DUP3 PUSH32 0xB53127684A568B3173AE13B9F8A6016E243E63B6E8EE1178D6A717850B5D6103 SLOAD AND CALLER EQ PUSH2 0x1086 JUMP JUMPDEST AND SWAP3 DUP4 PUSH1 0x0 MSTORE PUSH1 0x3 PUSH1 0x20 MSTORE DUP1 DUP3 PUSH1 0x0 KECCAK256 SSTORE DUP2 MLOAD SWAP1 DUP2 MSTORE TIMESTAMP PUSH1 0x20 DUP3 ADD MSTORE LOG2 DUP1 RETURN JUMPDEST POP CALLVALUE PUSH2 0x34F JUMPI DUP2 PUSH32 0xFFFFFFFFFFFFFFFFFFFFFFFFFFFFFFFFFFFFFFFFFFFFFFFFFFFFFFFFFFFFFFFC CALLDATASIZE ADD SLT PUSH2 0x34F JUMPI DUP1 MLOAD PUSH2 0x865 SWAP2 PUSH2 0xC1A DUP3 PUSH2 0x1011 JUMP JUMPDEST PUSH1 0x6 DUP3 MSTORE PUSH32 0x506F696E74730000000000000000000000000000000000000000000000000000 PUSH1 0x20 DUP4 ADD MSTORE MLOAD SWAP2 DUP3 SWAP2 DUP3 PUSH2 0xDFF JUMP JUMPDEST DUP5 SWAP3 SWAP2 POP CALLVALUE PUSH2 0x65E JUMPI PUSH1 0x20 PUSH32 0xFFFFFFFFFFFFFFFFFFFFFFFFFFFFFFFFFFFFFFFFFFFFFFFFFFFFFFFFFFFFFFFC CALLDATASIZE ADD SLT PUSH2 0x65E JUMPI PUSH2 0xC89 PUSH2 0xDDC JUMP JUMPDEST SWAP1 PUSH20 0xFFFFFFFFFFFFFFFFFFFFFFFFFFFFFFFFFFFFFFFF PUSH32 0x0 AND SWAP1 DUP2 ISZERO PUSH2 0xDB5 JUMPI POP SWAP1 DUP5 SWAP2 PUSH2 0xCD5 CALLER PUSH2 0x120A JUMP JUMPDEST SWAP2 DUP3 PUSH2 0xCDF JUMPI DUP4 DUP1 RETURN JUMPDEST CALLER DUP5 MSTORE PUSH1 0x2 PUSH1 0x20 MSTORE DUP5 DUP5 KECCAK256 DUP1 SLOAD PUSH32 0xFFFFFFFFFFFFFFFFFFFFFFFFFF00000000000000000000000000000000000000 AND PUSH19 0xFFFFFFFFFF0000000000000000000000000000 TIMESTAMP PUSH1 0x70 SHL AND OR SWAP1 SSTORE DUP2 EXTCODESIZE ISZERO PUSH2 0x65E JUMPI DUP4 PUSH2 0xD8C SWAP7 DUP7 MLOAD SWAP8 DUP9 SWAP6 DUP7 SWAP5 DUP6 SWAP4 PUSH32 0x21670F2200000000000000000000000000000000000000000000000000000000 DUP6 MSTORE DUP5 ADD PUSH1 0x20 SWAP1 SWAP4 SWAP3 SWAP2 SWAP4 PUSH20 0xFFFFFFFFFFFFFFFFFFFFFFFFFFFFFFFFFFFFFFFF PUSH1 0x40 DUP3 ADD SWAP6 AND DUP2 MSTORE ADD MSTORE JUMP JUMPDEST SUB SWAP3 GAS CALL SWAP1 DUP2 ISZERO PUSH2 0x31A JUMPI POP PUSH2 0xDA6 JUMPI JUMPDEST DUP1 DUP3 DUP2 DUP1 DUP1 DUP4 DUP1 RETURN JUMPDEST PUSH2 0xDAF SWAP1 PUSH2 0xFCE JUMP JUMPDEST DUP2 PUSH2 0xD9D JUMP JUMPDEST DUP1 PUSH32 0xEA8E4EB500000000000000000000000000000000000000000000000000000000 DUP7 SWAP3 MSTORE REVERT JUMPDEST PUSH1 0x4 CALLDATALOAD SWAP1 PUSH20 0xFFFFFFFFFFFFFFFFFFFFFFFFFFFFFFFFFFFFFFFF DUP3 AND DUP3 SUB PUSH2 0x438 JUMPI JUMP JUMPDEST PUSH1 0x20 DUP1 DUP3 MSTORE DUP3 MLOAD DUP2 DUP4 ADD DUP2 SWAP1 MSTORE SWAP4 SWAP3 PUSH1 0x0 JUMPDEST DUP6 DUP2 LT PUSH2 0xE51 JUMPI POP POP POP PUSH32 0xFFFFFFFFFFFFFFFFFFFFFFFFFFFFFFFFFFFFFFFFFFFFFFFFFFFFFFFFFFFFFFE0 PUSH1 0x1F DUP5 PUSH1 0x0 PUSH1 0x40 DUP1 SWAP7 SWAP8 DUP7 ADD ADD MSTORE ADD AND ADD ADD SWAP1 JUMP JUMPDEST DUP2 DUP2 ADD DUP4 ADD MLOAD DUP5 DUP3 ADD PUSH1 0x40 ADD MSTORE DUP3 ADD PUSH2 0xE11 JUMP JUMPDEST CALLVALUE PUSH2 0x438 JUMPI PUSH1 0x40 PUSH32 0xFFFFFFFFFFFFFFFFFFFFFFFFFFFFFFFFFFFFFFFFFFFFFFFFFFFFFFFFFFFFFFFC CALLDATASIZE ADD SLT PUSH2 0x438 JUMPI PUSH2 0xE9C PUSH2 0xDDC JUMP JUMPDEST POP PUSH1 0x4 PUSH1 0x40 MLOAD PUSH32 0x9CBE235700000000000000000000000000000000000000000000000000000000 DUP2 MSTORE REVERT JUMPDEST PUSH32 0xFFFFFFFFFFFFFFFFFFFFFFFFFFFFFFFFFFFFFFFFFFFFFFFFFFFFFFFFFFFFFFFC PUSH1 0x60 SWAP2 ADD SLT PUSH2 0x438 JUMPI PUSH20 0xFFFFFFFFFFFFFFFFFFFFFFFFFFFFFFFFFFFFFFFF SWAP1 PUSH1 0x4 CALLDATALOAD DUP3 DUP2 AND DUP2 SUB PUSH2 0x438 JUMPI SWAP2 PUSH1 0x24 CALLDATALOAD SWAP1 DUP2 AND DUP2 SUB PUSH2 0x438 JUMPI SWAP1 PUSH1 0x44 CALLDATALOAD SWAP1 JUMP JUMPDEST SWAP1 PUSH1 0x20 PUSH32 0xFFFFFFFFFFFFFFFFFFFFFFFFFFFFFFFFFFFFFFFFFFFFFFFFFFFFFFFFFFFFFFFC DUP4 ADD SLT PUSH2 0x438 JUMPI PUSH1 0x4 CALLDATALOAD PUSH8 0xFFFFFFFFFFFFFFFF SWAP3 DUP4 DUP3 GT PUSH2 0x438 JUMPI DUP1 PUSH1 0x23 DUP4 ADD SLT ISZERO PUSH2 0x438 JUMPI DUP2 PUSH1 0x4 ADD CALLDATALOAD SWAP4 DUP5 GT PUSH2 0x438 JUMPI PUSH1 0x24 DUP5 PUSH1 0x5 SHL DUP4 ADD ADD GT PUSH2 0x438 JUMPI PUSH1 0x24 ADD SWAP2 SWAP1 JUMP JUMPDEST PUSH1 0x20 SWAP1 PUSH1 0x20 PUSH1 0x40 DUP2 DUP4 ADD SWAP3 DUP3 DUP2 MSTORE DUP6 MLOAD DUP1 SWAP5 MSTORE ADD SWAP4 ADD SWAP2 PUSH1 0x0 JUMPDEST DUP3 DUP2 LT PUSH2 0xFBA JUMPI POP POP POP POP SWAP1 JUMP JUMPDEST DUP4 MLOAD DUP6 MSTORE SWAP4 DUP2 ADD SWAP4 SWAP3 DUP2 ADD SWAP3 PUSH1 0x1 ADD PUSH2 0xFAC JUMP JUMPDEST PUSH8 0xFFFFFFFFFFFFFFFF DUP2 GT PUSH2 0xFE2 JUMPI PUSH1 0x40 MSTORE JUMP JUMPDEST PUSH32 0x4E487B7100000000000000000000000000000000000000000000000000000000 PUSH1 0x0 MSTORE PUSH1 0x41 PUSH1 0x4 MSTORE PUSH1 0x24 PUSH1 0x0 REVERT JUMPDEST PUSH1 0x40 DUP2 ADD SWAP1 DUP2 LT PUSH8 0xFFFFFFFFFFFFFFFF DUP3 GT OR PUSH2 0xFE2 JUMPI PUSH1 0x40 MSTORE JUMP JUMPDEST SWAP1 PUSH1 0x1F PUSH32 0xFFFFFFFFFFFFFFFFFFFFFFFFFFFFFFFFFFFFFFFFFFFFFFFFFFFFFFFFFFFFFFE0 SWAP2 ADD AND DUP2 ADD SWAP1 DUP2 LT PUSH8 0xFFFFFFFFFFFFFFFF DUP3 GT OR PUSH2 0xFE2 JUMPI PUSH1 0x40 MSTORE JUMP JUMPDEST PUSH8 0xFFFFFFFFFFFFFFFF DUP2 GT PUSH2 0xFE2 JUMPI PUSH1 0x5 SHL PUSH1 0x20 ADD SWAP1 JUMP JUMPDEST ISZERO PUSH2 0x108D JUMPI JUMP JUMPDEST PUSH1 0x64 PUSH1 0x40 MLOAD PUSH32 0x8C379A000000000000000000000000000000000000000000000000000000000 DUP2 MSTORE PUSH1 0x20 PUSH1 0x4 DUP3 ADD MSTORE PUSH1 0xE PUSH1 0x24 DUP3 ADD MSTORE PUSH32 0x4E4F545F415554484F52495A4544000000000000000000000000000000000000 PUSH1 0x44 DUP3 ADD MSTORE REVERT JUMPDEST SWAP2 SWAP1 DUP3 ADD DUP1 SWAP3 GT PUSH2 0x10F8 JUMPI JUMP JUMPDEST PUSH32 0x4E487B7100000000000000000000000000000000000000000000000000000000 PUSH1 0x0 MSTORE PUSH1 0x11 PUSH1 0x4 MSTORE PUSH1 0x24 PUSH1 0x0 REVERT JUMPDEST SWAP1 PUSH2 0x1131 DUP3 PUSH2 0x106E JUMP JUMPDEST PUSH2 0x113E PUSH1 0x40 MLOAD SWAP2 DUP3 PUSH2 0x102D JUMP JUMPDEST DUP3 DUP2 MSTORE PUSH32 0xFFFFFFFFFFFFFFFFFFFFFFFFFFFFFFFFFFFFFFFFFFFFFFFFFFFFFFFFFFFFFFE0 PUSH2 0x116C DUP3 SWAP5 PUSH2 0x106E JUMP JUMPDEST ADD SWAP1 PUSH1 0x20 CALLDATASIZE SWAP2 ADD CALLDATACOPY JUMP JUMPDEST SWAP2 SWAP1 DUP2 LT ISZERO PUSH2 0x1186 JUMPI PUSH1 0x5 SHL ADD SWAP1 JUMP JUMPDEST PUSH32 0x4E487B7100000000000000000000000000000000000000000000000000000000 PUSH1 0x0 MSTORE PUSH1 0x32 PUSH1 0x4 MSTORE PUSH1 0x24 PUSH1 0x0 REVERT JUMPDEST CALLDATALOAD PUSH20 0xFFFFFFFFFFFFFFFFFFFFFFFFFFFFFFFFFFFFFFFF DUP2 AND DUP2 SUB PUSH2 0x438 JUMPI SWAP1 JUMP JUMPDEST DUP1 MLOAD DUP3 LT ISZERO PUSH2 0x1186 JUMPI PUSH1 0x20 SWAP2 PUSH1 0x5 SHL ADD ADD SWAP1 JUMP JUMPDEST SWAP2 SWAP1 DUP3 SUB SWAP2 DUP3 GT PUSH2 0x10F8 JUMPI JUMP JUMPDEST DUP2 DUP2 MUL SWAP3 SWAP2 DUP2 ISZERO SWAP2 DUP5 DIV EQ OR ISZERO PUSH2 0x10F8 JUMPI JUMP JUMPDEST PUSH20 0xFFFFFFFFFFFFFFFFFFFFFFFFFFFFFFFFFFFFFFFF PUSH2 0x12B0 SWAP2 AND PUSH1 0x0 DUP2 DUP2 MSTORE PUSH1 0x2 PUSH1 0x20 MSTORE PUSH1 0x40 PUSH2 0x1247 PUSH5 0xFFFFFFFFFF DUP3 DUP5 KECCAK256 SLOAD PUSH1 0x70 SHR AND TIMESTAMP PUSH2 0x11EA JUMP JUMPDEST SWAP2 DUP4 DUP2 MSTORE PUSH1 0x1 PUSH1 0x20 MSTORE PUSH4 0x3B9ACA00 PUSH2 0x129E PUSH2 0x1277 PUSH14 0xFFFFFFFFFFFFFFFFFFFFFFFFFFFF SWAP6 DUP7 DUP7 DUP7 KECCAK256 SLOAD AND SWAP1 PUSH2 0x11F7 JUMP JUMPDEST PUSH32 0x0 SWAP1 PUSH2 0x11F7 JUMP JUMPDEST DIV SWAP4 DUP2 MSTORE PUSH1 0x2 PUSH1 0x20 MSTORE KECCAK256 SLOAD AND SWAP1 PUSH2 0x10EB JUMP JUMPDEST SWAP1 JUMP JUMPDEST PUSH20 0xFFFFFFFFFFFFFFFFFFFFFFFFFFFFFFFFFFFFFFFF PUSH2 0x12B0 SWAP2 AND DUP1 PUSH1 0x0 MSTORE PUSH1 0x1 PUSH1 0x20 MSTORE PUSH1 0x40 PUSH1 0x0 KECCAK256 SLOAD SWAP1 PUSH13 0xFFFFFFFFFFFFFFFFFFFFFFFFFF SWAP2 PUSH14 0xFFFFFFFFFFFFFFFFFFFFFFFFFFFF SWAP3 PUSH2 0x1338 PUSH1 0x0 SLOAD DUP3 PUSH2 0xA61 PUSH5 0xFFFFFFFFFF DUP4 AND PUSH32 0x0 DUP5 PUSH1 0x90 SHR PUSH2 0x1359 JUMP JUMPDEST SWAP3 PUSH1 0x0 MSTORE PUSH1 0x1 PUSH1 0x20 MSTORE DUP4 PUSH1 0x1 PUSH1 0x40 PUSH1 0x0 KECCAK256 ADD SLOAD AND SWAP4 DUP3 AND SWAP2 PUSH1 0x70 SHR AND PUSH2 0x147D JUMP JUMPDEST SWAP2 SWAP1 DUP3 ISZERO PUSH2 0x1393 JUMPI PUSH2 0x136E PUSH2 0x1373 SWAP3 TIMESTAMP PUSH2 0x11EA JUMP JUMPDEST PUSH2 0x11F7 JUMP JUMPDEST PUSH10 0xD3C21BCECCEDA1000000 SWAP1 DUP2 DUP2 MUL SWAP2 DUP2 DUP4 DIV EQ SWAP1 ISZERO OR ISZERO PUSH2 0x10F8 JUMPI DIV SWAP1 JUMP JUMPDEST POP POP POP PUSH1 0x0 SWAP1 JUMP JUMPDEST DUP2 ISZERO PUSH2 0x1479 JUMPI PUSH32 0xDDF252AD1BE2C89B69C2B068FC378DAA952BA7F163C4A11628F55A4DF523B3EF PUSH1 0x20 PUSH1 0x0 SWAP4 PUSH20 0xFFFFFFFFFFFFFFFFFFFFFFFFFFFFFFFFFFFFFFFF PUSH2 0x13E5 DUP6 PUSH2 0x163A JUMP JUMPDEST SWAP6 SWAP1 PUSH18 0xFFFFFFFFFFFFFFFFFFFFFFFFFFFFFFFFFFFF PUSH32 0xFFFFFFFFFFFFFFFFFFFFFFFFFFFF000000000000000000000000000000000000 DUP6 DUP11 SLOAD SWAP4 SUB PUSH1 0x90 SHL AND SWAP2 AND OR DUP8 SSTORE AND SWAP4 DUP5 DUP7 MSTORE PUSH1 0x1 DUP4 MSTORE PUSH14 0xFFFFFFFFFFFFFFFFFFFFFFFFFFFF DUP3 PUSH1 0x40 DUP9 KECCAK256 SWAP3 SUB AND PUSH32 0xFFFFFFFFFFFFFFFFFFFFFFFFFFFFFFFFFFFF0000000000000000000000000000 DUP3 SLOAD AND OR SWAP1 SSTORE PUSH1 0x40 MLOAD SWAP1 DUP2 MSTORE LOG3 JUMP JUMPDEST POP POP JUMP JUMPDEST PUSH2 0x148A SWAP1 PUSH2 0x1490 SWAP4 PUSH2 0x11EA JUMP JUMPDEST SWAP1 PUSH2 0x11F7 JUMP JUMPDEST SWAP1 PUSH5 0xE8D4A51000 SWAP2 DUP3 DUP2 MUL SWAP3 DUP2 DUP5 DIV EQ SWAP1 ISZERO OR ISZERO PUSH2 0x10F8 JUMPI PUSH10 0xD3C21BCECCEDA1000000 PUSH2 0x12B0 SWAP3 DIV SWAP1 PUSH2 0x10EB JUMP JUMPDEST SWAP1 DUP1 ISZERO PUSH2 0x1479 JUMPI PUSH32 0xDDF252AD1BE2C89B69C2B068FC378DAA952BA7F163C4A11628F55A4DF523B3EF PUSH1 0x20 PUSH1 0x0 SWAP3 PUSH20 0xFFFFFFFFFFFFFFFFFFFFFFFFFFFFFFFFFFFFFFFF PUSH2 0x1509 DUP7 PUSH2 0x163A JUMP JUMPDEST SWAP7 SWAP1 PUSH18 0xFFFFFFFFFFFFFFFFFFFFFFFFFFFFFFFFFFFF PUSH32 0xFFFFFFFFFFFFFFFFFFFFFFFFFFFF000000000000000000000000000000000000 DUP6 DUP10 SLOAD SWAP4 ADD PUSH1 0x90 SHL AND SWAP2 AND OR DUP7 SSTORE AND SWAP5 DUP6 DUP6 MSTORE PUSH1 0x1 DUP4 MSTORE PUSH14 0xFFFFFFFFFFFFFFFFFFFFFFFFFFFF DUP3 PUSH1 0x40 DUP8 KECCAK256 SWAP3 ADD AND PUSH32 0xFFFFFFFFFFFFFFFFFFFFFFFFFFFFFFFFFFFF0000000000000000000000000000 DUP3 SLOAD AND OR SWAP1 SSTORE PUSH1 0x40 MLOAD SWAP1 DUP2 MSTORE LOG3 JUMP JUMPDEST PUSH1 0x0 SLOAD DUP1 PUSH1 0x90 SHR SWAP2 PUSH5 0xFFFFFFFFFF SWAP2 PUSH2 0x15F4 PUSH2 0x15DC DUP5 DUP4 AND PUSH32 0x0 DUP8 PUSH2 0x1359 JUMP JUMPDEST PUSH13 0xFFFFFFFFFFFFFFFFFFFFFFFFFF DUP4 PUSH1 0x28 SHR AND PUSH2 0x10EB JUMP JUMPDEST SWAP3 TIMESTAMP AND SWAP1 PUSH32 0xFFFFFFFFFFFFFFFFFFFFFFFFFFFF000000000000000000000000000000000000 PUSH18 0xFFFFFFFFFFFFFFFFFFFFFFFFFF0000000000 DUP6 PUSH1 0x28 SHL AND SWAP2 AND OR OR PUSH1 0x0 SSTORE JUMP JUMPDEST SWAP1 PUSH20 0xFFFFFFFFFFFFFFFFFFFFFFFFFFFFFFFFFFFFFFFF SWAP2 PUSH2 0x1659 PUSH2 0x159D JUMP JUMPDEST SWAP4 SWAP1 SWAP2 AND PUSH1 0x0 SWAP1 DUP1 DUP3 MSTORE PUSH1 0x1 PUSH1 0x20 MSTORE PUSH1 0x1 PUSH2 0x16AE PUSH2 0x1736 PUSH1 0x40 DUP6 KECCAK256 SWAP8 DUP9 SLOAD PUSH14 0xFFFFFFFFFFFFFFFFFFFFFFFFFFFF SWAP4 DUP2 DUP4 DUP7 DUP1 SWAP5 AND DUP1 SWAP14 DUP6 PUSH13 0xFFFFFFFFFFFFFFFFFFFFFFFFFF SWAP11 DUP12 SWAP3 ADD SLOAD AND SWAP4 PUSH1 0x70 SHR AND PUSH2 0x147D JUMP JUMPDEST AND SWAP4 DUP6 DUP8 MSTORE PUSH1 0x1 PUSH1 0x20 MSTORE PUSH1 0x40 DUP8 KECCAK256 SWAP2 PUSH1 0x1 DUP4 ADD PUSH32 0xFFFFFFFFFFFFFFFFFFFFFFFFFFFFFFFFFFFF0000000000000000000000000000 SWAP7 DUP8 DUP3 SLOAD AND OR SWAP1 SSTORE AND PUSH32 0xFFFFFFFFFF00000000000000000000000000FFFFFFFFFFFFFFFFFFFFFFFFFFFF PUSH27 0xFFFFFFFFFFFFFFFFFFFFFFFFFF0000000000000000000000000000 DUP4 SLOAD SWAP3 PUSH1 0x70 SHL AND SWAP2 AND OR SWAP1 SSTORE JUMP JUMPDEST PUSH1 0x2 PUSH1 0x20 MSTORE PUSH5 0xFFFFFFFFFF SWAP4 PUSH4 0x3B9ACA00 PUSH2 0x1761 PUSH2 0x1277 DUP11 PUSH2 0x136E DUP10 PUSH1 0x40 DUP8 KECCAK256 SLOAD PUSH1 0x70 SHR AND TIMESTAMP PUSH2 0x11EA JUMP JUMPDEST DIV SWAP4 DUP2 MSTORE PUSH1 0x2 PUSH1 0x20 MSTORE PUSH2 0x17B9 PUSH1 0x40 DUP3 KECCAK256 SWAP6 TIMESTAMP AND DUP7 SWAP1 PUSH32 0xFFFFFFFFFFFFFFFFFFFFFFFFFF0000000000FFFFFFFFFFFFFFFFFFFFFFFFFFFF PUSH19 0xFFFFFFFFFF0000000000000000000000000000 DUP4 SLOAD SWAP3 PUSH1 0x70 SHL AND SWAP2 AND OR SWAP1 SSTORE JUMP JUMPDEST DUP2 DUP6 SLOAD SWAP5 AND DUP3 DUP6 AND ADD SWAP1 DUP3 DUP3 GT PUSH2 0x17D5 JUMPI POP AND SWAP2 AND OR SWAP1 SSTORE SWAP2 SWAP1 JUMP JUMPDEST DUP1 PUSH32 0x4E487B7100000000000000000000000000000000000000000000000000000000 PUSH1 0x24 SWAP3 MSTORE PUSH1 0x11 PUSH1 0x4 MSTORE REVERT INVALID LOG2 PUSH5 0x6970667358 0x22 SLT KECCAK256 GASLIMIT SMOD EQ 0xBB 0xCE CREATE DUP5 LT 0xC8 OR PUSH27 0x5FBFA400D0B9F5E8C907FD2022711353A2BC76B6A464736F6C6343 STOP ADDMOD XOR STOP CALLER "
    },
    "gasEstimates": {
      "creation": {
        "codeDepositCost": "1240000",
        "executionCost": "infinite",
        "totalCost": "infinite"
      },
      "external": {
        "REWARD()": "infinite",
        "add(address,uint256)": "infinite",
        "allowance(address,address)": "709",
        "approve(address,uint256)": "289",
        "balanceOf(address)": "2606",
        "claimFixedRewards(address)": "infinite",
        "claimSharedPoolRewards(address)": "infinite",
        "decimals()": "304",
        "earnedFromFixedRate(address)": "infinite",
        "earnedFromFixedRateMultipleAccounts(address[])": "infinite",
        "earnedFromPoolRate(address)": "infinite",
        "earnedFromPoolRateMultipleAccounts(address[])": "infinite",
        "enableGame(address,uint256)": "26303",
        "games(address)": "2622",
        "getTotalRewardPerPointWithPrecision24()": "infinite",
        "move(address,address,uint256)": "infinite",
        "name()": "infinite",
        "postUpgrade(address,(uint256,uint256),address[])": "infinite",
        "remove(address,uint256)": "infinite",
        "symbol()": "infinite",
        "totalSupply()": "2369",
        "transfer(address,uint256)": "553",
        "transferFrom(address,address,uint256)": "403"
      },
      "internal": {
        "_add(address,uint256)": "infinite",
        "_computeExtraTotalRewardPerPointSinceLastTime(uint256,uint256,uint256)": "259",
        "_computeRewardsEarned(uint256,uint256,uint256,uint256)": "304",
        "_enableGame(address,uint256)": "infinite",
        "_postUpgrade(contract IReward,struct RewardsGenerator.Config memory,address[] memory)": "infinite",
        "_remove(address,uint256)": "infinite",
        "_update(address)": "infinite",
        "_updateAccount(address,uint256)": "infinite",
        "_updateGlobal()": "infinite"
      }
    },
    "methodIdentifiers": {
      "REWARD()": "cab34c08",
      "add(address,uint256)": "f5d82b6b",
      "allowance(address,address)": "dd62ed3e",
      "approve(address,uint256)": "095ea7b3",
      "balanceOf(address)": "70a08231",
      "claimFixedRewards(address)": "066112f9",
      "claimSharedPoolRewards(address)": "ff1e03e9",
      "decimals()": "313ce567",
      "earnedFromFixedRate(address)": "a8671f6a",
      "earnedFromFixedRateMultipleAccounts(address[])": "7997f96d",
      "earnedFromPoolRate(address)": "b061963c",
      "earnedFromPoolRateMultipleAccounts(address[])": "59d431b3",
      "enableGame(address,uint256)": "16cf09f8",
      "games(address)": "79131a19",
      "getTotalRewardPerPointWithPrecision24()": "48483382",
      "move(address,address,uint256)": "bb35783b",
      "name()": "06fdde03",
      "postUpgrade(address,(uint256,uint256),address[])": "cee2960b",
      "remove(address,uint256)": "abe7f1ab",
      "symbol()": "95d89b41",
      "totalSupply()": "18160ddd",
      "transfer(address,uint256)": "a9059cbb",
      "transferFrom(address,address,uint256)": "23b872dd"
    }
  },
  "storageLayout": {
    "storage": [
      {
        "astId": 203,
        "contract": "src/token/RewardsGenerator.sol:RewardsGenerator",
        "label": "_global",
        "offset": 0,
        "slot": "0",
        "type": "t_struct(GlobalState)200_storage"
      },
      {
        "astId": 215,
        "contract": "src/token/RewardsGenerator.sol:RewardsGenerator",
        "label": "_sharedRateRewardPerAccount",
        "offset": 0,
        "slot": "1",
        "type": "t_mapping(t_address,t_struct(SharedRatePerAccount)210_storage)"
      },
      {
        "astId": 225,
        "contract": "src/token/RewardsGenerator.sol:RewardsGenerator",
        "label": "_fixedRateRewardPerAccount",
        "offset": 0,
        "slot": "2",
        "type": "t_mapping(t_address,t_struct(FixedRate)220_storage)"
      },
      {
        "astId": 229,
        "contract": "src/token/RewardsGenerator.sol:RewardsGenerator",
        "label": "games",
        "offset": 0,
        "slot": "3",
        "type": "t_mapping(t_address,t_uint256)"
      },
      {
        "astId": 239,
        "contract": "src/token/RewardsGenerator.sol:RewardsGenerator",
        "label": "_init",
        "offset": 0,
        "slot": "4",
        "type": "t_bool"
      }
    ],
    "types": {
      "t_address": {
        "encoding": "inplace",
        "label": "address",
        "numberOfBytes": "20"
      },
      "t_bool": {
        "encoding": "inplace",
        "label": "bool",
        "numberOfBytes": "1"
      },
      "t_mapping(t_address,t_struct(FixedRate)220_storage)": {
        "encoding": "mapping",
        "key": "t_address",
        "label": "mapping(address => struct RewardsGenerator.FixedRate)",
        "numberOfBytes": "32",
        "value": "t_struct(FixedRate)220_storage"
      },
      "t_mapping(t_address,t_struct(SharedRatePerAccount)210_storage)": {
        "encoding": "mapping",
        "key": "t_address",
        "label": "mapping(address => struct RewardsGenerator.SharedRatePerAccount)",
        "numberOfBytes": "32",
        "value": "t_struct(SharedRatePerAccount)210_storage"
      },
      "t_mapping(t_address,t_uint256)": {
        "encoding": "mapping",
        "key": "t_address",
        "label": "mapping(address => uint256)",
        "numberOfBytes": "32",
        "value": "t_uint256"
      },
      "t_struct(FixedRate)220_storage": {
        "encoding": "inplace",
        "label": "struct RewardsGenerator.FixedRate",
        "members": [
          {
            "astId": 217,
            "contract": "src/token/RewardsGenerator.sol:RewardsGenerator",
            "label": "toWithdraw",
            "offset": 0,
            "slot": "0",
            "type": "t_uint112"
          },
          {
            "astId": 219,
            "contract": "src/token/RewardsGenerator.sol:RewardsGenerator",
            "label": "lastTime",
            "offset": 14,
            "slot": "0",
            "type": "t_uint40"
          }
        ],
        "numberOfBytes": "32"
      },
      "t_struct(GlobalState)200_storage": {
        "encoding": "inplace",
        "label": "struct RewardsGenerator.GlobalState",
        "members": [
          {
            "astId": 195,
            "contract": "src/token/RewardsGenerator.sol:RewardsGenerator",
            "label": "lastUpdateTime",
            "offset": 0,
            "slot": "0",
            "type": "t_uint40"
          },
          {
            "astId": 197,
            "contract": "src/token/RewardsGenerator.sol:RewardsGenerator",
            "label": "totalRewardPerPointAtLastUpdate",
            "offset": 5,
            "slot": "0",
            "type": "t_uint104"
          },
          {
            "astId": 199,
            "contract": "src/token/RewardsGenerator.sol:RewardsGenerator",
            "label": "totalPoints",
            "offset": 18,
            "slot": "0",
            "type": "t_uint112"
          }
        ],
        "numberOfBytes": "32"
      },
      "t_struct(SharedRatePerAccount)210_storage": {
        "encoding": "inplace",
        "label": "struct RewardsGenerator.SharedRatePerAccount",
        "members": [
          {
            "astId": 205,
            "contract": "src/token/RewardsGenerator.sol:RewardsGenerator",
            "label": "points",
            "offset": 0,
            "slot": "0",
            "type": "t_uint112"
          },
          {
            "astId": 207,
            "contract": "src/token/RewardsGenerator.sol:RewardsGenerator",
            "label": "totalRewardPerPointAccounted",
            "offset": 14,
            "slot": "0",
            "type": "t_uint104"
          },
          {
            "astId": 209,
            "contract": "src/token/RewardsGenerator.sol:RewardsGenerator",
            "label": "rewardsToWithdraw",
            "offset": 0,
            "slot": "1",
            "type": "t_uint112"
          }
        ],
        "numberOfBytes": "64"
      },
      "t_uint104": {
        "encoding": "inplace",
        "label": "uint104",
        "numberOfBytes": "13"
      },
      "t_uint112": {
        "encoding": "inplace",
        "label": "uint112",
        "numberOfBytes": "14"
      },
      "t_uint256": {
        "encoding": "inplace",
        "label": "uint256",
        "numberOfBytes": "32"
      },
      "t_uint40": {
        "encoding": "inplace",
        "label": "uint40",
        "numberOfBytes": "5"
      }
    }
  },
  "userdoc": {
    "errors": {
      "NonTransferable()": [
        {
          "notice": "Token cannot be transfered"
        }
      ],
      "NotAuthorized()": [
        {
          "notice": "Not authorized to perform this operation"
        }
      ]
    },
    "events": {
      "Approval(address,address,uint256)": {
        "notice": "trigger on approval amount being set.   Note that Transfer events need to be considered to compute the current allowance."
      },
      "Transfer(address,address,uint256)": {
        "notice": "trigger when tokens are transferred, including zero value transfers."
      }
    },
    "kind": "user",
    "methods": {
      "allowance(address,address)": {
        "notice": "Returns the amount which `spender` is still allowed to withdraw from `owner`."
      },
      "approve(address,uint256)": {
        "notice": "Allows `spender` to withdraw from your account multiple times, up to `amount`."
      },
      "balanceOf(address)": {
        "notice": "Returns the account balance of another account with address `owner`."
      },
      "claimFixedRewards(address)": {
        "notice": "claim the rewards earned so far using a fixed rate per point"
      },
      "claimSharedPoolRewards(address)": {
        "notice": "claim the rewards earned so far in the shared pool"
      },
      "decimals()": {
        "notice": "Returns the number of decimals the token uses."
      },
      "earnedFromFixedRate(address)": {
        "notice": "The amount of reward an account has accrued so far. Does not include already withdrawn rewards."
      },
      "earnedFromFixedRateMultipleAccounts(address[])": {
        "notice": "The amount of reward an account has accrued so far. Does not include already withdrawn rewards."
      },
      "earnedFromPoolRate(address)": {
        "notice": "The amount of reward an account has accrued so far. Does not include already withdrawn rewards."
      },
      "earnedFromPoolRateMultipleAccounts(address[])": {
        "notice": "The amount of reward an account has accrued so far. Does not include already withdrawn rewards."
      },
      "getTotalRewardPerPointWithPrecision24()": {
        "notice": "The amount of reward each point has earned so far"
      },
      "name()": {
        "notice": "Returns the name of the token."
      },
      "symbol()": {
        "notice": "Returns the symbol of the token."
      },
      "totalSupply()": {
        "notice": "Returns the total token supply."
      },
      "transfer(address,uint256)": {
        "notice": "Transfers `amount` of tokens to address `to`."
      },
      "transferFrom(address,address,uint256)": {
        "notice": "Transfers `amount` tokens from address `from` to address `to`."
      }
    },
    "version": 1
  },
  "argsData": "0x000000000000000000000000b12bab322d4c68682e0d26ce0f24aacf6840a686000000000000000000000000be19b59e8c588d68f475a407c7ba5fe813aeb79200000000000000000000000000000000000000000000000000000000000000600000000000000000000000000000000000000000000000000000000000000000",
  "transaction": {
    "hash": "0xd367d6141e676869b96b8dff8c5a05352c52f9308c8028672b361d490c51bfed",
    "nonce": "0x3",
    "origin": "0xbe19b59e8c588d68f475a407c7ba5fe813aeb792"
  },
  "_format": "hh-sol-artifact-1"
}