{
  "address": "0x52092c12759ac66d997d402c07d5449b3f2136f8",
  "abi": [
    {
      "inputs": [
        {
          "internalType": "address",
          "name": "owner",
          "type": "address"
        }
      ],
      "stateMutability": "nonpayable",
      "type": "constructor"
    },
    {
      "inputs": [],
      "name": "NotAuthorized",
      "type": "error"
    },
    {
      "anonymous": false,
      "inputs": [
        {
          "indexed": true,
          "internalType": "address",
          "name": "previousOwner",
          "type": "address"
        },
        {
          "indexed": true,
          "internalType": "address",
          "name": "newOwner",
          "type": "address"
        }
      ],
      "name": "OwnershipTransferred",
      "type": "event"
    },
    {
      "anonymous": false,
      "inputs": [
        {
          "indexed": false,
          "internalType": "uint256",
          "name": "newTime",
          "type": "uint256"
        },
        {
          "indexed": false,
          "internalType": "uint256",
          "name": "delta",
          "type": "uint256"
        }
      ],
      "name": "TimeIncreased",
      "type": "event"
    },
    {
      "inputs": [
        {
          "internalType": "uint256",
          "name": "delta",
          "type": "uint256"
        }
      ],
      "name": "increaseTime",
      "outputs": [],
      "stateMutability": "nonpayable",
      "type": "function"
    },
    {
      "inputs": [],
      "name": "owner",
      "outputs": [
        {
          "internalType": "address",
          "name": "",
          "type": "address"
        }
      ],
      "stateMutability": "view",
      "type": "function"
    },
    {
      "inputs": [],
      "name": "timestamp",
      "outputs": [
        {
          "internalType": "uint256",
          "name": "",
          "type": "uint256"
        }
      ],
      "stateMutability": "view",
      "type": "function"
    },
    {
      "inputs": [
        {
          "internalType": "address",
          "name": "newOwner",
          "type": "address"
        }
      ],
      "name": "transferOwnership",
      "outputs": [],
      "stateMutability": "nonpayable",
      "type": "function"
    },
    {
      "inputs": [
        {
          "internalType": "contract IERC20",
          "name": "token",
          "type": "address"
        },
        {
          "internalType": "address",
          "name": "to",
          "type": "address"
        }
      ],
      "name": "withdrawERC20",
      "outputs": [],
      "stateMutability": "nonpayable",
      "type": "function"
    }
  ],
  "contractName": "Time",
  "sourceName": "solc_0.8/debug/time/implementations/Time.sol",
  "bytecode": "0x608060405234801561001057600080fd5b506040516107ae3803806107ae83398101604081905261002f916100b8565b806001600160a01b0381161561004a5761004a600082610051565b50506100e8565b807fb53127684a568b3173ae13b9f8a6016e243e63b6e8ee1178d6a717850b5d610355806001600160a01b0316826001600160a01b03167f8be0079c531659141344cd1fd0a4f28419497f9722a3daafe3b4186f6b6457e060405160405180910390a35050565b6000602082840312156100ca57600080fd5b81516001600160a01b03811681146100e157600080fd5b9392505050565b6106b7806100f76000396000f3fe608060405234801561001057600080fd5b50600436106100675760003560e01c80639456fbcc116100505780639456fbcc146100b3578063b80777ea146100c6578063f2fde38b146100dc57600080fd5b80633c9a2a1a1461006c5780638da5cb5b14610081575b600080fd5b61007f61007a36600461056b565b6100ef565b005b610089610247565b60405173ffffffffffffffffffffffffffffffffffffffff90911681526020015b60405180910390f35b61007f6100c13660046105a9565b610276565b6100ce61042d565b6040519081526020016100aa565b61007f6100ea3660046105e2565b610461565b7fb53127684a568b3173ae13b9f8a6016e243e63b6e8ee1178d6a717850b5d61035473ffffffffffffffffffffffffffffffffffffffff163373ffffffffffffffffffffffffffffffffffffffff16146101a9576040517f08c379a000000000000000000000000000000000000000000000000000000000815260206004820152600e60248201527f4e4f545f415554484f52495a4544000000000000000000000000000000000000604482015260640160405180910390fd5b6000816101d47f112c413de07a110ce0a9ace0c01e41b5b59462770325b042f0dc72c337f55f2e5490565b6101de9190610606565b9050807f112c413de07a110ce0a9ace0c01e41b5b59462770325b042f0dc72c337f55f2e557f36e7cd7cbe0c64c4f819149d7127212cc2ebb56e948ae958ef18f6d1535871c961022c61042d565b60408051918252602082018590520160405180910390a15050565b60006102717fb53127684a568b3173ae13b9f8a6016e243e63b6e8ee1178d6a717850b5d61035490565b905090565b7fb53127684a568b3173ae13b9f8a6016e243e63b6e8ee1178d6a717850b5d61035473ffffffffffffffffffffffffffffffffffffffff163373ffffffffffffffffffffffffffffffffffffffff16146102fc576040517fea8e4eb500000000000000000000000000000000000000000000000000000000815260040160405180910390fd5b6040517f70a0823100000000000000000000000000000000000000000000000000000000815230600482015273ffffffffffffffffffffffffffffffffffffffff83169063a9059cbb90839083906370a0823190602401602060405180830381865afa158015610370573d6000803e3d6000fd5b505050506040513d601f19601f820116820180604052508101906103949190610646565b6040517fffffffff0000000000000000000000000000000000000000000000000000000060e085901b16815273ffffffffffffffffffffffffffffffffffffffff909216600483015260248201526044016020604051808303816000875af1158015610404573d6000803e3d6000fd5b505050506040513d601f19601f82011682018060405250810190610428919061065f565b505050565b60006104577f112c413de07a110ce0a9ace0c01e41b5b59462770325b042f0dc72c337f55f2e5490565b6102719042610606565b600061048b7fb53127684a568b3173ae13b9f8a6016e243e63b6e8ee1178d6a717850b5d61035490565b90503373ffffffffffffffffffffffffffffffffffffffff8216146104dc576040517fea8e4eb500000000000000000000000000000000000000000000000000000000815260040160405180910390fd5b6104e681836104ea565b5050565b807fb53127684a568b3173ae13b9f8a6016e243e63b6e8ee1178d6a717850b5d6103558073ffffffffffffffffffffffffffffffffffffffff168273ffffffffffffffffffffffffffffffffffffffff167f8be0079c531659141344cd1fd0a4f28419497f9722a3daafe3b4186f6b6457e060405160405180910390a35050565b60006020828403121561057d57600080fd5b5035919050565b73ffffffffffffffffffffffffffffffffffffffff811681146105a657600080fd5b50565b600080604083850312156105bc57600080fd5b82356105c781610584565b915060208301356105d781610584565b809150509250929050565b6000602082840312156105f457600080fd5b81356105ff81610584565b9392505050565b80820180821115610640577f4e487b7100000000000000000000000000000000000000000000000000000000600052601160045260246000fd5b92915050565b60006020828403121561065857600080fd5b5051919050565b60006020828403121561067157600080fd5b815180151581146105ff57600080fdfea2646970667358221220699349f76833f0ac51075bfb7b26e9f49ac3c328a3f97fbd1032a117bc89b29164736f6c63430008140033",
  "linkReferences": {},
  "deployedLinkReferences": {},
  "devdoc": {
    "events": {
      "OwnershipTransferred(address,address)": {
        "params": {
          "newOwner": "the new owner",
          "previousOwner": "the previous owner"
        }
      }
    },
    "kind": "dev",
    "methods": {
      "owner()": {
        "returns": {
          "_0": "The address of the owner."
        }
      },
      "transferOwnership(address)": {
        "details": "Set newOwner to address(0) to renounce any ownership.",
        "params": {
          "newOwner": "The address of the new owner of the contract"
        }
      },
      "withdrawERC20(address,address)": {
        "params": {
          "to": "address that will receive the tokens",
          "token": "ERC20 contract address to withdraw"
        }
      }
    },
    "version": 1
  },
  "evm": {
    "gasEstimates": {
      "creation": {
        "codeDepositCost": "343800",
        "executionCost": "infinite",
        "totalCost": "infinite"
      },
      "external": {
        "increaseTime(uint256)": "infinite",
        "owner()": "2351",
        "timestamp()": "2426",
        "transferOwnership(address)": "26171",
        "withdrawERC20(address,address)": "infinite"
      }
    }
  },
  "storageLayout": {
    "storage": [],
    "types": null
  },
  "userdoc": {
    "errors": {
      "NotAuthorized()": [
        {
          "notice": "Not authorized to perform this operation"
        }
      ]
    },
    "events": {
      "OwnershipTransferred(address,address)": {
        "notice": "This emits when ownership of the contract changes."
      }
    },
    "kind": "user",
    "methods": {
      "owner()": {
        "notice": "Get the address of the owner"
      },
      "transferOwnership(address)": {
        "notice": "Set the address of the new owner of the contract"
      },
      "withdrawERC20(address,address)": {
        "notice": "withdraw the total balance of a particular ERC20 token owned by this contract."
      }
    },
    "version": 1
  },
  "argsData": "0x00000000000000000000000061c461ecc993aadeb7e4b47e96d1b8cc37314b20",
  "transaction": {
    "hash": "0xd617c6085680c1fc5a6e951b893231305547a8898647187bc26df456cfd4aea5",
    "origin": "0x61c461ecc993aadeb7e4b47e96d1b8cc37314b20"
  }
}