{
  "address": "0x38c00667c68d1a622d960663db64cb55bc142b64",
  "abi": [
    {
      "inputs": [
        {
          "components": [
            {
              "internalType": "contract IERC20WithIERC2612",
              "name": "tokens",
              "type": "address"
            },
            {
              "internalType": "address payable",
              "name": "burnAddress",
              "type": "address"
            },
            {
              "internalType": "uint256",
              "name": "startTime",
              "type": "uint256"
            },
            {
              "internalType": "uint256",
              "name": "commitPhaseDuration",
              "type": "uint256"
            },
            {
              "internalType": "uint256",
              "name": "revealPhaseDuration",
              "type": "uint256"
            },
            {
              "internalType": "uint8",
              "name": "maxLife",
              "type": "uint8"
            },
            {
              "internalType": "uint256",
              "name": "numTokensPerGems",
              "type": "uint256"
            },
            {
              "internalType": "contract ITime",
              "name": "time",
              "type": "address"
            }
          ],
          "internalType": "struct UsingStratagemsTypes.Config",
          "name": "config",
          "type": "tuple"
        }
      ],
      "stateMutability": "nonpayable",
      "type": "constructor"
    },
    {
      "inputs": [],
      "name": "CanStillReveal",
      "type": "error"
    },
    {
      "inputs": [],
      "name": "CommitmentHashNotMatching",
      "type": "error"
    },
    {
      "inputs": [],
      "name": "GameNotStarted",
      "type": "error"
    },
    {
      "inputs": [],
      "name": "InCommitmentPhase",
      "type": "error"
    },
    {
      "inputs": [],
      "name": "InRevealPhase",
      "type": "error"
    },
    {
      "inputs": [],
      "name": "InvalidCellOverwrite",
      "type": "error"
    },
    {
      "inputs": [],
      "name": "InvalidEpoch",
      "type": "error"
    },
    {
      "inputs": [],
      "name": "InvalidFurtherMoves",
      "type": "error"
    },
    {
      "inputs": [
        {
          "internalType": "uint256",
          "name": "life",
          "type": "uint256"
        },
        {
          "internalType": "int32",
          "name": "x",
          "type": "int32"
        },
        {
          "internalType": "int32",
          "name": "y",
          "type": "int32"
        }
      ],
      "name": "InvalidLifeConfiguration",
      "type": "error"
    },
    {
      "inputs": [],
      "name": "NotAuthorized",
      "type": "error"
    },
    {
      "inputs": [],
      "name": "NothingToReveal",
      "type": "error"
    },
    {
      "inputs": [],
      "name": "PreviousCommitmentNotRevealed",
      "type": "error"
    },
    {
      "inputs": [
        {
          "internalType": "uint256",
          "name": "inReserve",
          "type": "uint256"
        },
        {
          "internalType": "uint256",
          "name": "expected",
          "type": "uint256"
        }
      ],
      "name": "ReserveTooLow",
      "type": "error"
    },
    {
      "anonymous": false,
      "inputs": [
        {
          "indexed": true,
          "internalType": "address",
          "name": "player",
          "type": "address"
        },
        {
          "indexed": true,
          "internalType": "uint24",
          "name": "epoch",
          "type": "uint24"
        }
      ],
      "name": "CommitmentCancelled",
      "type": "event"
    },
    {
      "anonymous": false,
      "inputs": [
        {
          "indexed": true,
          "internalType": "address",
          "name": "player",
          "type": "address"
        },
        {
          "indexed": true,
          "internalType": "uint24",
          "name": "epoch",
          "type": "uint24"
        },
        {
          "indexed": false,
          "internalType": "bytes24",
          "name": "commitmentHash",
          "type": "bytes24"
        }
      ],
      "name": "CommitmentMade",
      "type": "event"
    },
    {
      "anonymous": false,
      "inputs": [
        {
          "indexed": true,
          "internalType": "address",
          "name": "player",
          "type": "address"
        },
        {
          "indexed": true,
          "internalType": "uint24",
          "name": "epoch",
          "type": "uint24"
        },
        {
          "indexed": true,
          "internalType": "bytes24",
          "name": "commitmentHash",
          "type": "bytes24"
        },
        {
          "components": [
            {
              "internalType": "uint64",
              "name": "position",
              "type": "uint64"
            },
            {
              "internalType": "enum UsingStratagemsTypes.Color",
              "name": "color",
              "type": "uint8"
            }
          ],
          "indexed": false,
          "internalType": "struct UsingStratagemsTypes.Move[]",
          "name": "moves",
          "type": "tuple[]"
        },
        {
          "indexed": false,
          "internalType": "bytes24",
          "name": "furtherMoves",
          "type": "bytes24"
        },
        {
          "indexed": false,
          "internalType": "uint256",
          "name": "newReserveAmount",
          "type": "uint256"
        }
      ],
      "name": "CommitmentRevealed",
      "type": "event"
    },
    {
      "anonymous": false,
      "inputs": [
        {
          "indexed": true,
          "internalType": "address",
          "name": "player",
          "type": "address"
        },
        {
          "indexed": true,
          "internalType": "uint24",
          "name": "epoch",
          "type": "uint24"
        },
        {
          "indexed": false,
          "internalType": "uint256",
          "name": "amountBurnt",
          "type": "uint256"
        },
        {
          "indexed": false,
          "internalType": "bytes24",
          "name": "furtherMoves",
          "type": "bytes24"
        }
      ],
      "name": "CommitmentVoid",
      "type": "event"
    },
    {
      "anonymous": false,
      "inputs": [
        {
          "components": [
            {
              "internalType": "uint64",
              "name": "position",
              "type": "uint64"
            },
            {
              "internalType": "address",
              "name": "owner",
              "type": "address"
            },
            {
              "internalType": "uint24",
              "name": "lastEpochUpdate",
              "type": "uint24"
            },
            {
              "internalType": "uint24",
              "name": "epochWhenTokenIsAdded",
              "type": "uint24"
            },
            {
              "internalType": "enum UsingStratagemsTypes.Color",
              "name": "color",
              "type": "uint8"
            },
            {
              "internalType": "uint8",
              "name": "life",
              "type": "uint8"
            },
            {
              "internalType": "int8",
              "name": "delta",
              "type": "int8"
            },
            {
              "internalType": "uint8",
              "name": "enemyMap",
              "type": "uint8"
            }
          ],
          "indexed": false,
          "internalType": "struct IStratagemsDebug.DebugCell[]",
          "name": "cells",
          "type": "tuple[]"
        }
      ],
      "name": "ForceCells",
      "type": "event"
    },
    {
      "anonymous": false,
      "inputs": [
        {
          "indexed": false,
          "internalType": "uint24",
          "name": "epoch",
          "type": "uint24"
        },
        {
          "components": [
            {
              "internalType": "uint64",
              "name": "position",
              "type": "uint64"
            },
            {
              "internalType": "address",
              "name": "owner",
              "type": "address"
            },
            {
              "internalType": "enum UsingStratagemsTypes.Color",
              "name": "color",
              "type": "uint8"
            },
            {
              "internalType": "uint8",
              "name": "life",
              "type": "uint8"
            }
          ],
          "indexed": false,
          "internalType": "struct IStratagemsDebug.SimpleCell[]",
          "name": "cells",
          "type": "tuple[]"
        }
      ],
      "name": "ForceSimpleCells",
      "type": "event"
    },
    {
      "anonymous": false,
      "inputs": [
        {
          "indexed": true,
          "internalType": "uint64",
          "name": "position",
          "type": "uint64"
        },
        {
          "indexed": true,
          "internalType": "address",
          "name": "player",
          "type": "address"
        },
        {
          "indexed": false,
          "internalType": "enum UsingStratagemsTypes.Color",
          "name": "oldColor",
          "type": "uint8"
        },
        {
          "indexed": false,
          "internalType": "enum UsingStratagemsTypes.Color",
          "name": "newColor",
          "type": "uint8"
        }
      ],
      "name": "MoveProcessed",
      "type": "event"
    },
    {
      "anonymous": false,
      "inputs": [
        {
          "indexed": true,
          "internalType": "address",
          "name": "player",
          "type": "address"
        },
        {
          "indexed": false,
          "internalType": "uint256",
          "name": "amountDeposited",
          "type": "uint256"
        },
        {
          "indexed": false,
          "internalType": "uint256",
          "name": "newAmount",
          "type": "uint256"
        }
      ],
      "name": "ReserveDeposited",
      "type": "event"
    },
    {
      "anonymous": false,
      "inputs": [
        {
          "indexed": true,
          "internalType": "address",
          "name": "player",
          "type": "address"
        },
        {
          "indexed": false,
          "internalType": "uint256",
          "name": "amountWithdrawn",
          "type": "uint256"
        },
        {
          "indexed": false,
          "internalType": "uint256",
          "name": "newAmount",
          "type": "uint256"
        }
      ],
      "name": "ReserveWithdrawn",
      "type": "event"
    },
    {
      "inputs": [
        {
          "components": [
            {
              "internalType": "uint64",
              "name": "position",
              "type": "uint64"
            },
            {
              "internalType": "address",
              "name": "owner",
              "type": "address"
            },
            {
              "internalType": "uint24",
              "name": "lastEpochUpdate",
              "type": "uint24"
            },
            {
              "internalType": "uint24",
              "name": "epochWhenTokenIsAdded",
              "type": "uint24"
            },
            {
              "internalType": "enum UsingStratagemsTypes.Color",
              "name": "color",
              "type": "uint8"
            },
            {
              "internalType": "uint8",
              "name": "life",
              "type": "uint8"
            },
            {
              "internalType": "int8",
              "name": "delta",
              "type": "int8"
            },
            {
              "internalType": "uint8",
              "name": "enemyMap",
              "type": "uint8"
            }
          ],
          "internalType": "struct IStratagemsDebug.DebugCell[]",
          "name": "cells",
          "type": "tuple[]"
        }
      ],
      "name": "forceCells",
      "outputs": [],
      "stateMutability": "nonpayable",
      "type": "function"
    },
    {
      "inputs": [
        {
          "internalType": "address",
          "name": "player",
          "type": "address"
        },
        {
          "components": [
            {
              "internalType": "uint64",
              "name": "position",
              "type": "uint64"
            },
            {
              "internalType": "enum UsingStratagemsTypes.Color",
              "name": "color",
              "type": "uint8"
            }
          ],
          "internalType": "struct UsingStratagemsTypes.Move[]",
          "name": "moves",
          "type": "tuple[]"
        }
      ],
      "name": "forceMoves",
      "outputs": [],
      "stateMutability": "nonpayable",
      "type": "function"
    },
    {
      "inputs": [
        {
          "components": [
            {
              "internalType": "uint64",
              "name": "position",
              "type": "uint64"
            },
            {
              "internalType": "address",
              "name": "owner",
              "type": "address"
            },
            {
              "internalType": "enum UsingStratagemsTypes.Color",
              "name": "color",
              "type": "uint8"
            },
            {
              "internalType": "uint8",
              "name": "life",
              "type": "uint8"
            }
          ],
          "internalType": "struct IStratagemsDebug.SimpleCell[]",
          "name": "cells",
          "type": "tuple[]"
        }
      ],
      "name": "forceSimpleCells",
      "outputs": [],
      "stateMutability": "nonpayable",
      "type": "function"
    },
    {
      "inputs": [
        {
          "internalType": "uint256",
          "name": "id",
          "type": "uint256"
        }
      ],
      "name": "getRawCell",
      "outputs": [
        {
          "components": [
            {
              "internalType": "uint24",
              "name": "lastEpochUpdate",
              "type": "uint24"
            },
            {
              "internalType": "uint24",
              "name": "epochWhenTokenIsAdded",
              "type": "uint24"
            },
            {
              "internalType": "enum UsingStratagemsTypes.Color",
              "name": "color",
              "type": "uint8"
            },
            {
              "internalType": "uint8",
              "name": "life",
              "type": "uint8"
            },
            {
              "internalType": "int8",
              "name": "delta",
              "type": "int8"
            },
            {
              "internalType": "uint8",
              "name": "enemyMap",
              "type": "uint8"
            },
            {
              "internalType": "uint8",
              "name": "distribution",
              "type": "uint8"
            }
          ],
          "internalType": "struct UsingStratagemsTypes.Cell",
          "name": "",
          "type": "tuple"
        }
      ],
      "stateMutability": "view",
      "type": "function"
    }
  ],
  "contractName": "StratagemsDebug",
  "sourceName": "src/game/debug/StratagemsDebug.sol",
  "bytecode": "0x6101806040523480156200001257600080fd5b5060405162005611380380620056118339810160408190526200003591620000be565b60e0808201516001600160a01b0390811660809081528351821660a0908152602085015190921661016052604084015160c090815260608501519093528301516101005282015160ff16610120520151610140526200017e565b80516001600160a01b0381168114620000a757600080fd5b919050565b805160ff81168114620000a757600080fd5b6000610100808385031215620000d357600080fd5b604051908101906001600160401b03821181831017156200010457634e487b7160e01b600052604160045260246000fd5b8160405262000113846200008f565b815262000123602085016200008f565b60208201526040840151604082015260608401516060820152608084015160808201526200015460a08501620000ac565b60a082015260c084015160c08201526200017160e085016200008f565b60e0820152949350505050565b60805160a05160c05160e0516101005161012051610140516101605161539a620002776000396000611525015260008181610164015281816104e701528181612371015281816123ca0152818161242901528181612568015281816125b20152818161390f01526139db015260008181610974015281816122e901528181613b7801528181613bb001528181613c1e0152613c4c01526000611021015260008181611042015261111501526000818161107601526110d50152600081816101cb0152818161050d015281816112eb015281816114600152818161155501526116220152600081816121200152612160015261539a6000f3fe608060405234801561001057600080fd5b506004361061004c5760003560e01c80632779347e14610051578063cd315b0814610066578063d703f50a1461008f578063df971134146100a2575b600080fd5b61006461005f366004614508565b6100b5565b005b6100796100743660046145e3565b61029d565b6040516100869190614666565b60405180910390f35b61006461009d3660046146e3565b61039a565b6100646100b03660046147dd565b610cd5565b7fb53127684a568b3173ae13b9f8a6016e243e63b6e8ee1178d6a717850b5d61035473ffffffffffffffffffffffffffffffffffffffff163373ffffffffffffffffffffffffffffffffffffffff161461013b576040517fea8e4eb500000000000000000000000000000000000000000000000000000000815260040160405180910390fd5b600080610146611018565b91509150801561015e578161015a81614937565b9250505b600083517f000000000000000000000000000000000000000000000000000000000000000061018d9190614974565b6040517f23b872dd000000000000000000000000000000000000000000000000000000008152336004820152306024820152604481018290529091507f000000000000000000000000000000000000000000000000000000000000000073ffffffffffffffffffffffffffffffffffffffff16906323b872dd906064016020604051808303816000875af1158015610229573d6000803e3d6000fd5b505050506040513d601f19601f8201168201806040525081019061024d919061498b565b5073ffffffffffffffffffffffffffffffffffffffff8516600090815260026020526040812080548392906102839084906149b4565b90915550610295905085848633611163565b505050505050565b6040805160e081018252600080825260208201819052918101829052606081018290526080810182905260a0810182905260c081019190915260008281526020818152604091829020825160e081018452815462ffffff8082168352630100000082041693820193909352929091908301906601000000000000900460ff16600681111561032d5761032d6145fc565b600681111561033e5761033e6145fc565b8152905460ff67010000000000000082048116602084015268010000000000000000820460000b604084015269010000000000000000008204811660608401526a01000000000000000000009091041660809091015292915050565b7fb53127684a568b3173ae13b9f8a6016e243e63b6e8ee1178d6a717850b5d61035473ffffffffffffffffffffffffffffffffffffffff163373ffffffffffffffffffffffffffffffffffffffff1614610420576040517fea8e4eb500000000000000000000000000000000000000000000000000000000815260040160405180910390fd5b600061042a611018565b50905060005b82518110156107f557600083828151811061044d5761044d6149c7565b602090810291909101810151805167ffffffffffffffff1660009081529182905260409091205490915062ffffff16156104b3576040517ff9e4d84a00000000000000000000000000000000000000000000000000000000815260040160405180910390fd5b6040517f23b872dd0000000000000000000000000000000000000000000000000000000081523360048201523060248201527f000000000000000000000000000000000000000000000000000000000000000060448201527f000000000000000000000000000000000000000000000000000000000000000073ffffffffffffffffffffffffffffffffffffffff16906323b872dd906064016020604051808303816000875af115801561056b573d6000803e3d6000fd5b505050506040513d601f19601f8201168201806040525081019061058f919061498b565b506000806105a6836000015184604001518761169d565b915091506040518060e001604052808662ffffff1681526020018662ffffff168152602001846040015160068111156105e1576105e16145fc565b815260608086015160ff908116602080850191909152600087810b604080870191909152928716938501939093526080909301829052865167ffffffffffffffff16825281835290819020835181549385015162ffffff9081166301000000027fffffffffffffffffffffffffffffffffffffffffffffffffffff00000000000090951691161792909217808355908301519082907fffffffffffffffffffffffffffffffffffffffffffffffffff00ffffffffffff1666010000000000008360068111156106b2576106b26145fc565b021790555060608201518154608084015160a085015160c0909501517fffffffffffffffffffffffffffffffffffffffffffffff0000ffffffffffffff90921667010000000000000060ff948516027fffffffffffffffffffffffffffffffffffffffffffffff00ffffffffffffffff16176801000000000000000091841691909102177fffffffffffffffffffffffffffffffffffffffffff0000ffffffffffffffffff166901000000000000000000948316949094027fffffffffffffffffffffffffffffffffffffffffff00ffffffffffffffffffff16939093176a010000000000000000000091909316029190911790555050602081810151915167ffffffffffffffff16600090815260019091526040902073ffffffffffffffffffffffffffffffffffffffff9091169055806107ed816149f6565b915050610430565b5060005b8251811015610c97576000838281518110610816576108166149c7565b6020908102919091018101515167ffffffffffffffff1660008181528083526040808220815160e081018352815462ffffff80821683526301000000820416968201969096529395509193908301906601000000000000900460ff166006811115610883576108836145fc565b6006811115610894576108946145fc565b8152905460ff670100000000000000820481166020840152680100000000000000008204600090810b604085015269010000000000000000008304821660608501526a0100000000000000000000909204166080928301529082015191925090810b8103610922577fffffffffffffffffffffffffffffffffffffffffffffffffffffffffffffffff610928565b81608001515b905060008160000b128015610942575060a082015160ff16155b1561094b575060005b60008160000b836060015160ff166109639190614a2e565b90506000811215610972575060005b7f000000000000000000000000000000000000000000000000000000000000000060ff168111156109f8576040517fa21143880000000000000000000000000000000000000000000000000000000081526004810182905263ffffffff8516600381810b6024840152602087901c9081900b604484015290916064015b60405180910390fd5b60ff811660608401526040805160e0810190915260009080610a1b60018a614a55565b62ffffff168152602001610a3060018a614a55565b62ffffff16815260200185604001516006811115610a5057610a506145fc565b815260608087015160ff9081166020808501919091526080808a0151600090810b60408088019190915260a08c01519094169486019490945290930182905288825281835290819020835181549385015162ffffff9081166301000000027fffffffffffffffffffffffffffffffffffffffffffffffffffff000000000000909516911617929092178083559083015192935083929082907fffffffffffffffffffffffffffffffffffffffffffffffffff00ffffffffffff166601000000000000836006811115610b2457610b246145fc565b021790555060608201518154608084015160a085015160c0909501517fffffffffffffffffffffffffffffffffffffffffffffff0000ffffffffffffff90921667010000000000000060ff948516027fffffffffffffffffffffffffffffffffffffffffffffff00ffffffffffffffff16176801000000000000000091841691909102177fffffffffffffffffffffffffffffffffffffffffff0000ffffffffffffffffff166901000000000000000000948316949094027fffffffffffffffffffffffffffffffffffffffffff00ffffffffffffffffffff16939093176a01000000000000000000009190931602919091179055610c7f6000610c2c62ffffff8a16611c13565b604051602001610c3c9190614a95565b604080517fffffffffffffffffffffffffffffffffffffffffffffffffffffffffffffffe081840301815291815260008981526001602052205488908590611cd1565b50505050508080610c8f906149f6565b9150506107f9565b507f8e1d006b2d362a7e606e2a6f90b3faefd938725a74cfe85918c68a8d67d625ec8183604051610cc9929190614ada565b60405180910390a15050565b7fb53127684a568b3173ae13b9f8a6016e243e63b6e8ee1178d6a717850b5d61035473ffffffffffffffffffffffffffffffffffffffff163373ffffffffffffffffffffffffffffffffffffffff1614610d5b576040517fea8e4eb500000000000000000000000000000000000000000000000000000000815260040160405180910390fd5b60005b8151811015610fdd576000828281518110610d7b57610d7b6149c7565b602002602001015190506040518060e00160405280826040015162ffffff168152602001826060015162ffffff16815260200182608001516006811115610dc457610dc46145fc565b815260a083015160ff90811660208084019190915260c0850151600090810b60408086019190915260e087015190931660608501526080909301839052845167ffffffffffffffff16835282815291819020835181549385015162ffffff9081166301000000027fffffffffffffffffffffffffffffffffffffffffffffffffffff00000000000090951691161792909217808355908301519082907fffffffffffffffffffffffffffffffffffffffffffffffffff00ffffffffffff166601000000000000836006811115610e9c57610e9c6145fc565b021790555060608201518154608084015160a085015160c0909501517fffffffffffffffffffffffffffffffffffffffffffffff0000ffffffffffffff90921667010000000000000060ff948516027fffffffffffffffffffffffffffffffffffffffffffffff00ffffffffffffffff16176801000000000000000091841691909102177fffffffffffffffffffffffffffffffffffffffffff0000ffffffffffffffffff166901000000000000000000948316949094027fffffffffffffffffffffffffffffffffffffffffff00ffffffffffffffffffff16939093176a01000000000000000000009190931602919091179055602081810151915167ffffffffffffffff16600090815260019091526040902073ffffffffffffffffffffffffffffffffffffffff909116905580610fd5816149f6565b915050610d5e565b507f3c0a1b33060cb27164a8675b8ef0947a312efd921ef674321eb29f0dcbf638768160405161100d9190614b77565b60405180910390a150565b600080806110667f00000000000000000000000000000000000000000000000000000000000000007f00000000000000000000000000000000000000000000000000000000000000006149b4565b9050600061107261211c565b90507f00000000000000000000000000000000000000000000000000000000000000008110156110ce576040517f3a5f7b5700000000000000000000000000000000000000000000000000000000815260040160405180910390fd5b60006110fa7f000000000000000000000000000000000000000000000000000000000000000083614c4e565b90506111068382614c90565b6111119060026149b4565b94507f000000000000000000000000000000000000000000000000000000000000000083611140600288614a55565b62ffffff1661114f9190614974565b6111599083614c4e565b1093505050509091565b60008060405180604001604052808551600561117f9190614974565b67ffffffffffffffff811115611197576111976143cf565b6040519080825280602002602001820160405280156111dc57816020015b60408051808201909152600080825260208201528152602001906001900390816111b55790505b5081526020016000815250905061120d60405180606001604052806000815260200160008152602001600081525090565b60005b85518110156112a4576000806000611243868c8c8c8881518110611236576112366149c7565b60200260200101516121f2565b925092509250828560000181815161125b91906149b4565b9052506020850180518391906112729083906149b4565b9052506040850180518291906112899083906149b4565b90525083925061129c91508290506149f6565b915050611210565b506112e660006040518060400160405280600c81526020017f7265736f6c76654d6f766573000000000000000000000000000000000000000081525084612875565b6113107f000000000000000000000000000000000000000000000000000000000000000083612a91565b73ffffffffffffffffffffffffffffffffffffffff871660009081526002602090815260409091205490820151825191945061134b916149b4565b83101561139f57602081015181518491611364916149b4565b6040517f78fe52a6000000000000000000000000000000000000000000000000000000008152600481019290925260248201526044016109ef565b73ffffffffffffffffffffffffffffffffffffffff841661140457602081015181516113cb91906149b4565b6113d59084614c4e565b73ffffffffffffffffffffffffffffffffffffffff8816600090815260026020526040902081905592506115c6565b8051156114d15780516040517f23b872dd00000000000000000000000000000000000000000000000000000000815273ffffffffffffffffffffffffffffffffffffffff868116600483015230602483015260448201929092527f0000000000000000000000000000000000000000000000000000000000000000909116906323b872dd906064016020604051808303816000875af11580156114ab573d6000803e3d6000fd5b505050506040513d601f19601f820116820180604052508101906114cf919061498b565b505b6020810151156115c65760208101516040517f23b872dd00000000000000000000000000000000000000000000000000000000815273ffffffffffffffffffffffffffffffffffffffff86811660048301527f00000000000000000000000000000000000000000000000000000000000000008116602483015260448201929092527f0000000000000000000000000000000000000000000000000000000000000000909116906323b872dd906064016020604051808303816000875af11580156115a0573d6000803e3d6000fd5b505050506040513d601f19601f820116820180604052508101906115c4919061498b565b505b6040810151156116935760408181015190517fa9059cbb00000000000000000000000000000000000000000000000000000000815273ffffffffffffffffffffffffffffffffffffffff898116600483015260248201929092527f00000000000000000000000000000000000000000000000000000000000000009091169063a9059cbb906044016020604051808303816000875af115801561166d573d6000803e3d6000fd5b505050506040513d601f19601f82011682018060405250810190611691919061498b565b505b5050949350505050565b600080806116d667ffffffffffffffff8716827fffffffffffffffffffffffffffffffffffffffffffffffffffffffffffffffff612b99565b67ffffffffffffffff8116600090815260208181526040808320815160e081018352815462ffffff808216835263010000008204169482019490945294955092939291908301906601000000000000900460ff16600681111561173b5761173b6145fc565b600681111561174c5761174c6145fc565b8152905460ff670100000000000000820481166020840152680100000000000000008204600090810b604085015269010000000000000000008304821660608501526a010000000000000000000090920416608090920191909152909150816040015160068111156117c0576117c06145fc565b146118075760006117d5878360400151612be9565b905060008160000b12156117ea578360011793505b80850194506118048383846060015189600260008d612c86565b50505b506000905061184167ffffffffffffffff87167fffffffffffffffffffffffffffffffffffffffffffffffffffffffffffffffff83612b99565b67ffffffffffffffff8116600090815260208181526040808320815160e081018352815462ffffff808216835263010000008204169482019490945294955092939291908301906601000000000000900460ff1660068111156118a6576118a66145fc565b60068111156118b7576118b76145fc565b8152905460ff670100000000000000820481166020840152680100000000000000008204600090810b604085015269010000000000000000008304821660608501526a0100000000000000000000909204166080909201919091529091508160400151600681111561192b5761192b6145fc565b14611972576000611940878360400151612be9565b905060008160000b1215611955578360021793505b808501945061196f8383846060015189600360008d612c86565b50505b506000905061198d67ffffffffffffffff8716826001612b99565b67ffffffffffffffff8116600090815260208181526040808320815160e081018352815462ffffff808216835263010000008204169482019490945294955092939291908301906601000000000000900460ff1660068111156119f2576119f26145fc565b6006811115611a0357611a036145fc565b8152905460ff670100000000000000820481166020840152680100000000000000008204600090810b604085015269010000000000000000008304821660608501526a01000000000000000000009092041660809092019190915290915081604001516006811115611a7757611a776145fc565b14611abd576000611a8c878360400151612be9565b905060008160000b1215611aa1578360041793505b8085019450611aba83838460600151896000808d612c86565b50505b5060009050611ad867ffffffffffffffff8716600183612b99565b67ffffffffffffffff8116600090815260208181526040808320815160e081018352815462ffffff808216835263010000008204169482019490945294955092939291908301906601000000000000900460ff166006811115611b3d57611b3d6145fc565b6006811115611b4e57611b4e6145fc565b8152905460ff670100000000000000820481166020840152680100000000000000008204600090810b604085015269010000000000000000008304821660608501526a01000000000000000000009092041660809092019190915290915081604001516006811115611bc257611bc26145fc565b14611c09576000611bd7878360400151612be9565b905060008160000b1215611bec578360081793505b8085019450611c068383846060015189600160008d612c86565b50505b5050935093915050565b60606000611c2083613153565b600101905060008167ffffffffffffffff811115611c4057611c406143cf565b6040519080825280601f01601f191660200182016040528015611c6a576020820181803683370190505b5090508181016020015b7fffffffffffffffffffffffffffffffffffffffffffffffffffffffffffffffff017f3031323334353637383961626364656600000000000000000000000000000000600a86061a8153600a8504945084611c7457509392505050565b600060ff861615611da3578560ff16600114611d68578560ff16600214611d2d576040518060400160405280600c81526020017f2020202020202020202020200000000000000000000000000000000000000000815250611db4565b6040518060400160405280600881526020017f2020202020202020000000000000000000000000000000000000000000000000815250611db4565b6040518060400160405280600481526020017f2020202000000000000000000000000000000000000000000000000000000000815250611db4565b604051806020016040528060008152505b9050611df66040518060400160405280600481526020017f25732573000000000000000000000000000000000000000000000000000000008152508287613235565b6040805160608101909152603f80825263ffffffff86811692602088811c90921692611e299261532690830139846132c8565b611e806040518060400160405280600e81526020017f257363656c6c202825732c25732900000000000000000000000000000000000081525084611e6f8560030b61335d565b611e7b8560030b61335d565b6133eb565b611ea26040518060600160405280603f8152602001615326603f9139846132c8565b611eeb6040518060400160405280601981526020017f2573202d206c61737445706f63685570646174653a202025730000000000000081525084876000015162ffffff16613480565b611f346040518060400160405280601f81526020017f2573202d2065706f63685768656e546f6b656e497341646465643a202025730081525084876020015162ffffff16613480565b611f8c6040518060400160405280600f81526020017f2573202d20636f6c6f723a2020257300000000000000000000000000000000008152508487604001516006811115611f8457611f846145fc565b60ff16613480565b611fd36040518060400160405280600e81526020017f2573202d206c6966653a2020257300000000000000000000000000000000000081525084876060015160ff16613480565b61201a6040518060400160405280601681526020017f2573202d20646973747269627574696f6e3a2020257300000000000000000000815250848760c0015160ff16613480565b61205a6040518060400160405280600f81526020017f2573202d206f776e65723a2020257300000000000000000000000000000000008152508486613513565b6120a96040518060400160405280600e81526020017f2573202d2064656c74613a202573000000000000000000000000000000000000815250846120a4886080015160000b61335d565b613235565b6120f06040518060400160405280601281526020017f2573202d20656e656d794d61703a202025730000000000000000000000000000815250848760a0015160ff16613480565b6121126040518060600160405280603f8152602001615326603f9139846132c8565b5050505050505050565b60007f000000000000000000000000000000000000000000000000000000000000000073ffffffffffffffffffffffffffffffffffffffff1661215e57504290565b7f000000000000000000000000000000000000000000000000000000000000000073ffffffffffffffffffffffffffffffffffffffff1663b80777ea6040518163ffffffff1660e01b8152600401602060405180830381865afa1580156121c9573d6000803e3d6000fd5b505050506040513d601f19601f820116820180604052508101906121ed9190614ca4565b905090565b6000806000806122068560000151876135a6565b905061227c600061221b8862ffffff16611c13565b60405160200161222b9190614cbd565b604080517fffffffffffffffffffffffffffffffffffffffffffffffffffffffffffffffe0818403018152918152885167ffffffffffffffff81166000908152600160205291909120548590611cd1565b60c0810151606082015160ff1615801561229b5750815162ffffff1615155b156122ca576122ad8260a00151613704565b60048360a0015160ff16901b6122c39190614d02565b6000835290505b6000866020015160068111156122e2576122e26145fc565b036123f6577f000000000000000000000000000000000000000000000000000000000000000060ff16826060015160ff161415806123675750855167ffffffffffffffff1660009081526001602052604090205473ffffffffffffffffffffffffffffffffffffffff89169073ffffffffffffffffffffffffffffffffffffffff1614155b1561239d576000807f0000000000000000000000000000000000000000000000000000000000000000945094509450505061286b565b6123f18960405180604001604052808b73ffffffffffffffffffffffffffffffffffffffff1681526020017f0000000000000000000000000000000000000000000000000000000000000000815250613736565b612455565b8662ffffff16826020015162ffffff160361245557606082015160ff16156124245760066020870152612455565b6000807f0000000000000000000000000000000000000000000000000000000000000000945094509450505061286b565b6000806124698b898b876040015187613888565b915091508973ffffffffffffffffffffffffffffffffffffffff16886000015167ffffffffffffffff167f17b85ded3fb12432ee427abc34a3026e1fbbb8bc431e3dbe51bc81215655c25c86604001518b602001516040516124cc929190614d1b565b60405180910390a38760200151846040019060068111156124ef576124ef6145fc565b90816006811115612502576125026145fc565b905250600060c0850181905262ffffff8a1660208601528460400151600681111561252f5761252f6145fc565b0361258e576000606085018190528085526080850181905260a08501819052885167ffffffffffffffff168152600160205260408120557f0000000000000000000000000000000000000000000000000000000000000000945061265a565b60ff811660a0850152600082900b60808501526001606085015262ffffff891684527f000000000000000000000000000000000000000000000000000000000000000096506006846040015160068111156125eb576125eb6145fc565b0361262657875167ffffffffffffffff16600090815260016020526040902073ffffffffffffffffffffffffffffffffffffffff905561265a565b875167ffffffffffffffff16600090815260016020526040902073ffffffffffffffffffffffffffffffffffffffff8b1690555b875167ffffffffffffffff1660009081526020818152604091829020865181549288015162ffffff9081166301000000027fffffffffffffffffffffffffffffffffffffffffffffffffffff0000000000009094169116179190911780825591860151869282907fffffffffffffffffffffffffffffffffffffffffffffffffff00ffffffffffff1666010000000000008360068111156126fd576126fd6145fc565b021790555060608201518154608084015160a085015160c0909501517fffffffffffffffffffffffffffffffffffffffffffffff0000ffffffffffffff90921667010000000000000060ff948516027fffffffffffffffffffffffffffffffffffffffffffffff00ffffffffffffffff16176801000000000000000091841691909102177fffffffffffffffffffffffffffffffffffffffffff0000ffffffffffffffffff166901000000000000000000948316949094027fffffffffffffffffffffffffffffffffffffffffff00ffffffffffffffffffff16939093176a01000000000000000000009190931602919091179055612866600061280562ffffff8c16611c13565b6040516020016128159190614d36565b604080517fffffffffffffffffffffffffffffffffffffffffffffffffffffffffffffffe08184030181529181528b5167ffffffffffffffff81166000908152600160205291909120548890611cd1565b505050505b9450945094915050565b600060ff841615612947578360ff1660011461290c578360ff166002146128d1576040518060400160405280600c81526020017f2020202020202020202020200000000000000000000000000000000000000000815250612958565b6040518060400160405280600881526020017f2020202020202020000000000000000000000000000000000000000000000000815250612958565b6040518060400160405280600481526020017f2020202000000000000000000000000000000000000000000000000000000000815250612958565b604051806020016040528060008152505b905061299a6040518060400160405280600481526020017f25732573000000000000000000000000000000000000000000000000000000008152508285613235565b6129bc6040518060600160405280603f8152602001615326603f9139826132c8565b60005b8260200151811015612a6857612a566040518060400160405280601281526020017f25737472616e73666572202825732c25732900000000000000000000000000008152508385600001518481518110612a1b57612a1b6149c7565b602002602001015160000151612a5187600001518681518110612a4057612a406149c7565b602002602001015160200151611c13565b613a28565b80612a60816149f6565b9150506129bf565b50612a8b6040518060600160405280603f8152602001615326603f9139826132c8565b50505050565b60005b8160200151811015612b94578273ffffffffffffffffffffffffffffffffffffffff1663a9059cbb83600001518381518110612ad257612ad26149c7565b60200260200101516000015184600001518481518110612af457612af46149c7565b6020026020010151602001516040518363ffffffff1660e01b8152600401612b3e92919073ffffffffffffffffffffffffffffffffffffffff929092168252602082015260400190565b6020604051808303816000875af1158015612b5d573d6000803e3d6000fd5b505050506040513d601f19601f82011682018060405250810190612b81919061498b565b5080612b8c816149f6565b915050612a94565b505050565b6000612bab8363ffffffff8616614d7b565b9250612bc18263ffffffff602087901c16614d7b565b9150612be163ffffffff841667ffffffff00000000602085901b16614dbd565b949350505050565b600080836006811115612bfe57612bfe6145fc565b14158015612c1e57506000826006811115612c1b57612c1b6145fc565b14155b15612c7c57816006811115612c3557612c356145fc565b836006811115612c4757612c476145fc565b14612c72577fffffffffffffffffffffffffffffffffffffffffffffffffffffffffffffffff612c75565b60015b9050612c80565b5060005b92915050565b600080876060015160ff16118015612c9f575060ff8616155b15612cd057612cb18760a00151613704565b60048860a0015160ff16901b612cc79190614d02565b60ff1660c08801525b612d3f6000612ce18660ff16611c13565b604051602001612cf19190614dde565b604080517fffffffffffffffffffffffffffffffffffffffffffffffffffffffffffffffe081840301815291815267ffffffffffffffff8c166000908152600160205220548b908b90611cd1565b612d4a846002614f43565b612d55856002614f43565b60c089015160041c16600f1603612dbd5760c0870151612d7990600f16600c614f52565b60c0880151909150600f166004612d9460ff87166002614f74565b1960048a60c0015160ff16901c60ff161660ff16901b612db49190614d02565b60ff1660c08801525b816006811115612dcf57612dcf6145fc565b836006811115612de157612de16145fc565b14612f7d576000826006811115612dfa57612dfa6145fc565b03612e8157826006811115612e1157612e116145fc565b87604001516006811115612e2757612e276145fc565b03612e4a57600187608001818151612e3f9190614f80565b60000b905250612f7d565b600187608001818151612e5d9190614fbf565b60000b90525060a087018051600160ff8781169190911b8118909116169052612f7d565b826006811115612e9357612e936145fc565b87604001516006811115612ea957612ea96145fc565b03612eda5760a087018051600160ff8781169190911b90911716905260808701805160029190612e3f908390614f80565b816006811115612eec57612eec6145fc565b87604001516006811115612f0257612f026145fc565b03612f33576000836006811115612f1b57612f1b6145fc565b14612e4a57600287608001818151612e5d9190614fbf565b6000836006811115612f4757612f476145fc565b03612f7d57600187608001818151612f5f9190614f80565b60000b90525060a087018051600160ff8781169190911b9091171690525b62ffffff8516875260ff8087166060890152612fb190600090612fa1908716611c13565b604051602001612cf19190614ffe565b67ffffffffffffffff88166000908152602081815260409182902089518154928b015162ffffff9081166301000000027fffffffffffffffffffffffffffffffffffffffffffffffffffff0000000000009094169116179190911780825591890151899282907fffffffffffffffffffffffffffffffffffffffffffffffffff00ffffffffffff166601000000000000836006811115613053576130536145fc565b021790555060608201518154608084015160a085015160c0909501517fffffffffffffffffffffffffffffffffffffffffffffff0000ffffffffffffff90921667010000000000000060ff948516027fffffffffffffffffffffffffffffffffffffffffffffff00ffffffffffffffff16176801000000000000000091841691909102177fffffffffffffffffffffffffffffffffffffffffff0000ffffffffffffffffff166901000000000000000000948316949094027fffffffffffffffffffffffffffffffffffffffffff00ffffffffffffffffffff16939093176a01000000000000000000009190931602919091179055979650505050505050565b6000807a184f03e93ff9f4daa797ed6e38ed64bf6a1f010000000000000000831061319c577a184f03e93ff9f4daa797ed6e38ed64bf6a1f010000000000000000830492506040015b6d04ee2d6d415b85acef810000000083106131c8576d04ee2d6d415b85acef8100000000830492506020015b662386f26fc1000083106131e657662386f26fc10000830492506010015b6305f5e10083106131fe576305f5e100830492506008015b612710831061321257612710830492506004015b60648310613224576064830492506002015b600a8310612c805760010192915050565b612b9483838360405160240161324d939291906150b3565b604080517fffffffffffffffffffffffffffffffffffffffffffffffffffffffffffffffe08184030181529190526020810180517bffffffffffffffffffffffffffffffffffffffffffffffffffffffff167f2ced7cef00000000000000000000000000000000000000000000000000000000179052613ab9565b61335982826040516024016132de9291906150f6565b604080517fffffffffffffffffffffffffffffffffffffffffffffffffffffffffffffffe08184030181529190526020810180517bffffffffffffffffffffffffffffffffffffffffffffffffffffffff167f4b5c427700000000000000000000000000000000000000000000000000000000179052613ab9565b5050565b60606000821261337c57604051806020016040528060008152506133b3565b6040518060400160405280600181526020017f2d000000000000000000000000000000000000000000000000000000000000008152505b6133c46133bf84613ac5565b611c13565b6040516020016133d5929190615124565b6040516020818303038152906040529050919050565b612a8b848484846040516024016134059493929190615153565b604080517fffffffffffffffffffffffffffffffffffffffffffffffffffffffffffffffe08184030181529190526020810180517bffffffffffffffffffffffffffffffffffffffffffffffffffffffff167fde68f20a00000000000000000000000000000000000000000000000000000000179052613ab9565b612b94838383604051602401613498939291906151a0565b604080517fffffffffffffffffffffffffffffffffffffffffffffffffffffffffffffffe08184030181529190526020810180517bffffffffffffffffffffffffffffffffffffffffffffffffffffffff167f5821efa100000000000000000000000000000000000000000000000000000000179052613ab9565b612b9483838360405160240161352b939291906151d6565b604080517fffffffffffffffffffffffffffffffffffffffffffffffffffffffffffffffe08184030181529190526020810180517bffffffffffffffffffffffffffffffffffffffffffffffffffffffff167f95ed019500000000000000000000000000000000000000000000000000000000179052613ab9565b6040805160e0808201835260008083526020808401829052838501829052606084018290526080840182905260a0840182905260c0840182905267ffffffffffffffff871682528181529084902084519283018552805462ffffff808216855263010000008204169284019290925292939192918301906601000000000000900460ff16600681111561363b5761363b6145fc565b600681111561364c5761364c6145fc565b8152905460ff67010000000000000082048116602084015268010000000000000000820460000b60408401526901000000000000000000820481166060808501919091526a010000000000000000000090920416608092830152825191830151908301519293509091600162ffffff8416108015906136ce575060008160ff16115b156136fb576000806136e7858760a0015186868b613adc565b60ff909116606088015262ffffff16865250505b50505092915050565b60005b60ff8216156137315761371b600183615222565b90911690806137298161523b565b915050613707565b919050565b60005b82602001518110156137e857816000015173ffffffffffffffffffffffffffffffffffffffff1683600001518281518110613776576137766149c7565b60200260200101516000015173ffffffffffffffffffffffffffffffffffffffff16036137d657602082015183518051839081106137b6576137b66149c7565b60200260200101516020018181516137ce91906149b4565b905250505050565b806137e0816149f6565b915050613739565b5080518251602084015181518110613802576138026149c7565b60200260200101516000019073ffffffffffffffffffffffffffffffffffffffff16908173ffffffffffffffffffffffffffffffffffffffff16815250508060200151826000015183602001518151811061385f5761385f6149c7565b60200260200101516020018181525050816020018051809190613881906149f6565b9052505050565b6000806000806000806138a68a600001518a8a8d602001518b613d50565b935093509350935060008260ff161115613948576139488b60405180604001604052806138ed8e6000015167ffffffffffffffff1660009081526001602052604090205490565b73ffffffffffffffffffffffffffffffffffffffff168152602001600c6139377f000000000000000000000000000000000000000000000000000000000000000060ff8916614974565b6139419190614c90565b9052613736565b60005b60048160ff161015613a165760008260ff83166004811061396e5761396e6149c7565b602002015173ffffffffffffffffffffffffffffffffffffffff1614613a0457613a048c6040518060400160405280858560ff16600481106139b2576139b26149c7565b602002015173ffffffffffffffffffffffffffffffffffffffff1681526020018b600f1660ff167f00000000000000000000000000000000000000000000000000000000000000006139419190614c90565b80613a0e8161523b565b91505061394b565b50929a91995090975050505050505050565b612a8b84848484604051602401613a42949392919061525a565b604080517fffffffffffffffffffffffffffffffffffffffffffffffffffffffffffffffe08184030181529190526020810180517bffffffffffffffffffffffffffffffffffffffffffffffffffffffff167feb1bff80000000000000000000000000000000000000000000000000000000001790525b613ac281614116565b50565b600080821215613ad85781600003612c80565b5090565b600085600162ffffff821610801590613af8575060008460ff16115b15613d46576000613b098885614a55565b62ffffff1690508015613d3d5760008660000b600003613b49577fffffffffffffffffffffffffffffffffffffffffffffffffffffffffffffffff613b4b565b865b905060008160000b128015613b61575060ff8816155b15613b6a575060005b60008160000b1315613c8e577f000000000000000000000000000000000000000000000000000000000000000060ff168660ff161015613c8357600081600181613bd48a7f0000000000000000000000000000000000000000000000000000000000000000615222565b613bde9190614d02565b613be89190615222565b613bf29190614f52565b90508060ff16831115613c06578060ff1692505b613c1082846152af565b613c1a9088614d02565b96507f000000000000000000000000000000000000000000000000000000000000000060ff168760ff161115613c6e577f000000000000000000000000000000000000000000000000000000000000000096505b869450613c7b838b6152cb565b935050613d37565b859350889250613d37565b60008160000b1215613d30576000613ca5826152e7565b6001613cb0846152e7565b613cba908a614d02565b613cc49190615222565b613cce9190614f52565b90508060ff16831115613ce2578060ff1692505b6000613ced836152e7565b613cf790856152af565b90508760ff168160ff161115613d105760009550613d1d565b613d1a8189615222565b95505b613d27848c6152cb565b94505050613d37565b8593508492505b50613d44565b8492508791505b505b9550959350505050565b6000806000613d5d61438d565b613d9c6040518060400160405280600481526020017f66726f6d000000000000000000000000000000000000000000000000000000008152508a614137565b60008080613dd567ffffffffffffffff8d16827fffffffffffffffffffffffffffffffffffffffffffffffffffffffffffffffff612b99565b9050613e166040518060400160405280600a81526020017f7570506f736974696f6e0000000000000000000000000000000000000000000081525082614137565b613e24818c60028d8d614193565b9093509150600083810b1215613e3b578560011795505b93810193600488811c81169003613e7f5767ffffffffffffffff811660009081526001602052604090205473ffffffffffffffffffffffffffffffffffffffff1684525b50948101946000613ebb67ffffffffffffffff8d167fffffffffffffffffffffffffffffffffffffffffffffffffffffffffffffffff83612b99565b9050613efc6040518060400160405280600c81526020017f6c656674506f736974696f6e000000000000000000000000000000000000000081525082614137565b613f0a818c60038d8d614193565b9093509150600083810b1215613f21578560021795505b938101936008600489901c81169003613f6a5767ffffffffffffffff811660009081526001602052604090205473ffffffffffffffffffffffffffffffffffffffff1660208501525b50948101946000613f8767ffffffffffffffff8d16826001612b99565b9050613fc86040518060400160405280600c81526020017f646f776e506f736974696f6e000000000000000000000000000000000000000081525082614137565b613fd6818c60008d8d614193565b9093509150600083810b1215613fed578560041795505b938101936001600489901c811690036140365767ffffffffffffffff811660009081526001602052604090205473ffffffffffffffffffffffffffffffffffffffff1660408501525b5094810194600061405367ffffffffffffffff8d16600183612b99565b90506140946040518060400160405280600d81526020017f7269676874506f736974696f6e0000000000000000000000000000000000000081525082614137565b6140a2818c60018d8d614193565b9093509150600083810b12156140b9578560081795505b938101936002600489901c811690036141025767ffffffffffffffff811660009081526001602052604090205473ffffffffffffffffffffffffffffffffffffffff1660608501525b828701965050505095509550955095915050565b60006a636f6e736f6c652e6c6f679050600080835160208501845afa505050565b60008063ffffffff80841690602085901c1691509150612a8b6040518060400160405280600b81526020017f25733a202825732c25732900000000000000000000000000000000000000000081525085611e6f8560030b61335d565b67ffffffffffffffff8516600090815260208181526040808320815160e081018352815462ffffff8082168352630100000082041694820194909452849384939192918301906601000000000000900460ff1660068111156141f7576141f76145fc565b6006811115614208576142086145fc565b8152905460ff670100000000000000820481166020840152680100000000000000008204600090810b60408086019190915269010000000000000000008404831660608601526a01000000000000000000009093049091166080909301929092528251908301519293509190816006811115614286576142866145fc565b146142e05785600681111561429d5761429d6145fc565b8160068111156142af576142af6145fc565b146142da577fffffffffffffffffffffffffffffffffffffffffffffffffffffffffffffffff6142dd565b60015b94505b60018262ffffff161015801561430857506000816006811115614305576143056145fc565b14155b15614380576000836060015160ff1611801561432d57508862ffffff168262ffffff16105b1561436a5760008061434e848660a00151876080015188606001518f613adc565b915091506143618c8684848e8e8e612c86565b95505050614380565b61437d8a8485606001518c8c8c8c612c86565b93505b5050509550959350505050565b60405180608001604052806004906020820280368337509192915050565b803573ffffffffffffffffffffffffffffffffffffffff8116811461373157600080fd5b7f4e487b7100000000000000000000000000000000000000000000000000000000600052604160045260246000fd5b6040805190810167ffffffffffffffff81118282101715614421576144216143cf565b60405290565b6040516080810167ffffffffffffffff81118282101715614421576144216143cf565b604051610100810167ffffffffffffffff81118282101715614421576144216143cf565b604051601f82017fffffffffffffffffffffffffffffffffffffffffffffffffffffffffffffffe016810167ffffffffffffffff811182821017156144b5576144b56143cf565b604052919050565b600067ffffffffffffffff8211156144d7576144d76143cf565b5060051b60200190565b803567ffffffffffffffff8116811461373157600080fd5b80356007811061373157600080fd5b600080604080848603121561451c57600080fd5b614525846143ab565b925060208085013567ffffffffffffffff81111561454257600080fd5b8501601f8101871361455357600080fd5b8035614566614561826144bd565b61446e565b81815260069190911b8201830190838101908983111561458557600080fd5b928401925b828410156145d35785848b0312156145a25760008081fd5b6145aa6143fe565b6145b3856144e1565b81526145c08686016144f9565b818701528252928501929084019061458a565b8096505050505050509250929050565b6000602082840312156145f557600080fd5b5035919050565b7f4e487b7100000000000000000000000000000000000000000000000000000000600052602160045260246000fd5b60078110614662577f4e487b7100000000000000000000000000000000000000000000000000000000600052602160045260246000fd5b9052565b600060e08201905062ffffff808451168352806020850151166020840152506040830151614697604084018261462b565b5060ff6060840151166060830152608083015160000b608083015260ff60a08401511660a083015260ff60c08401511660c083015292915050565b803560ff8116811461373157600080fd5b600060208083850312156146f657600080fd5b823567ffffffffffffffff81111561470d57600080fd5b8301601f8101851361471e57600080fd5b803561472c614561826144bd565b81815260079190911b8201830190838101908783111561474b57600080fd5b928401925b828410156147bf57608084890312156147695760008081fd5b614771614427565b61477a856144e1565b81526147878686016143ab565b8682015260406147988187016144f9565b9082015260606147a98682016146d2565b9082015282526080939093019290840190614750565b979650505050505050565b803562ffffff8116811461373157600080fd5b600060208083850312156147f057600080fd5b823567ffffffffffffffff81111561480757600080fd5b8301601f8101851361481857600080fd5b8035614826614561826144bd565b81815260089190911b8201830190838101908783111561484557600080fd5b928401925b828410156147bf5761010084890312156148645760008081fd5b61486c61444a565b614875856144e1565b81526148828686016143ab565b8682015260406148938187016147ca565b9082015260606148a48682016147ca565b9082015260806148b58682016144f9565b9082015260a06148c68682016146d2565b9082015260c085810135600081810b82146148df578081fd5b509082015260e06148f18682016146d2565b90820152825261010093909301929084019061484a565b7f4e487b7100000000000000000000000000000000000000000000000000000000600052601160045260246000fd5b600062ffffff82168061494c5761494c614908565b7fffffffffffffffffffffffffffffffffffffffffffffffffffffffffffffffff0192915050565b8082028115828204841417612c8057612c80614908565b60006020828403121561499d57600080fd5b815180151581146149ad57600080fd5b9392505050565b80820180821115612c8057612c80614908565b7f4e487b7100000000000000000000000000000000000000000000000000000000600052603260045260246000fd5b60007fffffffffffffffffffffffffffffffffffffffffffffffffffffffffffffffff8203614a2757614a27614908565b5060010190565b8181036000831280158383131683831282161715614a4e57614a4e614908565b5092915050565b62ffffff828116828216039080821115614a4e57614a4e614908565b60005b83811015614a8c578181015183820152602001614a74565b50506000910152565b7f666f72636553696d706c6543656c6c732061742065706f636820000000000000815260008251614acd81601a850160208701614a71565b91909101601a0192915050565b6000604080830162ffffff861684526020828186015281865180845260609350838701915082880160005b82811015614b6857815167ffffffffffffffff815116855273ffffffffffffffffffffffffffffffffffffffff86820151168686015287810151614b4b8987018261462b565b5086015160ff168487015260809093019290840190600101614b05565b50919998505050505050505050565b602080825282518282018190526000919060409081850190868401855b82811015614c4157815167ffffffffffffffff815116855273ffffffffffffffffffffffffffffffffffffffff87820151168786015262ffffff868201511686860152606080820151614bed8288018262ffffff169052565b5050608080820151614c018288018261462b565b505060a08181015160ff169086015260c080820151600081900b82880152505060e09081015160ff16908501526101009093019290850190600101614b94565b5091979650505050505050565b81810381811115612c8057612c80614908565b7f4e487b7100000000000000000000000000000000000000000000000000000000600052601260045260246000fd5b600082614c9f57614c9f614c61565b500490565b600060208284031215614cb657600080fd5b5051919050565b7f5f636f6d707574654d6f76652061742065706f63682000000000000000000000815260008251614cf5816016850160208701614a71565b9190910160160192915050565b60ff8181168382160190811115612c8057612c80614908565b60408101614d29828561462b565b6149ad602083018461462b565b7f4146544552200000000000000000000000000000000000000000000000000000815260008251614d6e816006850160208701614a71565b9190910160060192915050565b600381810b9083900b01637fffffff81137fffffffffffffffffffffffffffffffffffffffffffffffffffffffff8000000082121715612c8057612c80614908565b67ffffffffffffffff818116838216019080821115614a4e57614a4e614908565b7f5f75706461746543656c6c46726f6d4e65696768626f722020696e6465780000815260008251614e1681601e850160208701614a71565b91909101601e0192915050565b600181815b80851115614e7c57817fffffffffffffffffffffffffffffffffffffffffffffffffffffffffffffffff04821115614e6257614e62614908565b80851615614e6f57918102915b93841c9390800290614e28565b509250929050565b600082614e9357506001612c80565b81614ea057506000612c80565b8160018114614eb65760028114614ec057614edc565b6001915050612c80565b60ff841115614ed157614ed1614908565b50506001821b612c80565b5060208310610133831016604e8410600b8410161715614eff575081810a612c80565b614f098383614e23565b807fffffffffffffffffffffffffffffffffffffffffffffffffffffffffffffffff04821115614f3b57614f3b614908565b029392505050565b60006149ad60ff841683614e84565b600060ff831680614f6557614f65614c61565b8060ff84160491505092915050565b60006149ad8383614e84565b600082810b9082900b037fffffffffffffffffffffffffffffffffffffffffffffffffffffffffffffff808112607f82131715612c8057612c80614908565b600081810b9083900b01607f81137fffffffffffffffffffffffffffffffffffffffffffffffffffffffffffffff8082121715612c8057612c80614908565b7f4146544552205f75706461746543656c6c46726f6d4e65696768626f7220206981527f6e6465780000000000000000000000000000000000000000000000000000000060208201526000825161505c816024850160208701614a71565b9190910160240192915050565b60008151808452615081816020860160208601614a71565b601f017fffffffffffffffffffffffffffffffffffffffffffffffffffffffffffffffe0169290920160200192915050565b6060815260006150c66060830186615069565b82810360208401526150d88186615069565b905082810360408401526150ec8185615069565b9695505050505050565b6040815260006151096040830185615069565b828103602084015261511b8185615069565b95945050505050565b60008351615136818460208801614a71565b83519083019061514a818360208801614a71565b01949350505050565b6080815260006151666080830187615069565b82810360208401526151788187615069565b9050828103604084015261518c8186615069565b905082810360608401526147bf8185615069565b6060815260006151b36060830186615069565b82810360208401526151c58186615069565b915050826040830152949350505050565b6060815260006151e96060830186615069565b82810360208401526151fb8186615069565b91505073ffffffffffffffffffffffffffffffffffffffff83166040830152949350505050565b60ff8281168282160390811115612c8057612c80614908565b600060ff821660ff810361525157615251614908565b60010192915050565b60808152600061526d6080830187615069565b828103602084015261527f8187615069565b905073ffffffffffffffffffffffffffffffffffffffff8516604084015282810360608401526147bf8185615069565b60ff8181168382160290811690818114614a4e57614a4e614908565b62ffffff818116838216019080821115614a4e57614a4e614908565b60008160000b7fffffffffffffffffffffffffffffffffffffffffffffffffffffffffffffff80810361531c5761531c614908565b6000039291505056fe25732d2d2d2d2d2d2d2d2d2d2d2d2d2d2d2d2d2d2d2d2d2d2d2d2d2d2d2d2d2d2d2d2d2d2d2d2d2d2d2d2d2d2d2d2d2d2d2d2d2d2d2d2d2d2d2d2d2d2d2d2da26469706673582212207d9f7fa856d4bc6219c70000088e1a8d1b0db5416de7512b4f3a64b50f6be03c64736f6c63430008140033",
  "linkReferences": {},
  "deployedLinkReferences": {},
  "devdoc": {
    "errors": {
      "ReserveTooLow(uint256,uint256)": [
        {
          "params": {
            "expected": "amount required to proceed",
            "inReserve": "amount in reserver as the time of the call"
          }
        }
      ]
    },
    "events": {
      "CommitmentCancelled(address,uint24)": {
        "params": {
          "epoch": "epoch number on which this commit belongs to",
          "player": "account taking the staking risk (can be a different account than the one controlling the gems)"
        }
      },
      "CommitmentMade(address,uint24,bytes24)": {
        "params": {
          "commitmentHash": "the hash of moves",
          "epoch": "epoch number on which this commit belongs to",
          "player": "account taking the staking risk (can be a different account than the one controlling the gems)"
        }
      },
      "CommitmentRevealed(address,uint24,bytes24,(uint64,uint8)[],bytes24,uint256)": {
        "params": {
          "commitmentHash": "the hash of the moves",
          "epoch": "epoch number on which this commit belongs to",
          "furtherMoves": "hash of further moves, unless bytes32(0) which indicate end.",
          "moves": "the moves",
          "player": "account who commited"
        }
      },
      "CommitmentVoid(address,uint24,uint256,bytes24)": {
        "params": {
          "amountBurnt": "amount of token to burn",
          "epoch": "epoch number on which this commit belongs to",
          "furtherMoves": "hash of further moves, unless bytes32(0) which indicate end.",
          "player": "the account that made the commitment"
        }
      },
      "MoveProcessed(uint64,address,uint8,uint8)": {
        "params": {
          "newColor": "color that takes over",
          "oldColor": "previous color of the cell",
          "player": "account making the move",
          "position": "cell at which the move take place"
        }
      },
      "ReserveDeposited(address,uint256,uint256)": {
        "params": {
          "amountDeposited": "the number of tokens deposited",
          "newAmount": "the number of tokens in reserver as a result",
          "player": "account receiving the token in the reserve"
        }
      },
      "ReserveWithdrawn(address,uint256,uint256)": {
        "params": {
          "amountWithdrawn": "the number of tokens withdrawnn",
          "newAmount": "the number of tokens in reserver as a result",
          "player": "account withdrawing the tokens"
        }
      }
    },
    "kind": "dev",
    "methods": {},
    "version": 1
  },
  "evm": {
    "gasEstimates": {
      "creation": {
        "codeDepositCost": "4280400",
        "executionCost": "infinite",
        "totalCost": "infinite"
      },
      "external": {
        "forceCells((uint64,address,uint24,uint24,uint8,uint8,int8,uint8)[])": "infinite",
        "forceMoves(address,(uint64,uint8)[])": "infinite",
        "forceSimpleCells((uint64,address,uint8,uint8)[])": "infinite",
        "getRawCell(uint256)": "5358"
      },
      "internal": {
        "_computeDelta(uint64,enum UsingStratagemsTypes.Color)": "infinite",
        "_getOwner()": "infinite",
        "_updateNeighbosrDelta(uint64,enum UsingStratagemsTypes.Color,uint24)": "infinite",
        "isEnemyOrFriend(enum UsingStratagemsTypes.Color,enum UsingStratagemsTypes.Color)": "242"
      }
    }
  },
  "storageLayout": {
    "storage": [
      {
        "astId": 15172,
        "contract": "src/game/debug/StratagemsDebug.sol:StratagemsDebug",
        "label": "_cells",
        "offset": 0,
        "slot": "0",
        "type": "t_mapping(t_uint256,t_struct(Cell)12700_storage)"
      },
      {
        "astId": 15176,
        "contract": "src/game/debug/StratagemsDebug.sol:StratagemsDebug",
        "label": "_owners",
        "offset": 0,
        "slot": "1",
        "type": "t_mapping(t_uint256,t_uint256)"
      },
      {
        "astId": 15180,
        "contract": "src/game/debug/StratagemsDebug.sol:StratagemsDebug",
        "label": "_tokensInReserve",
        "offset": 0,
        "slot": "2",
        "type": "t_mapping(t_address,t_uint256)"
      },
      {
        "astId": 15185,
        "contract": "src/game/debug/StratagemsDebug.sol:StratagemsDebug",
        "label": "_commitments",
        "offset": 0,
        "slot": "3",
        "type": "t_mapping(t_address,t_struct(Commitment)12705_storage)"
      },
      {
        "astId": 15191,
        "contract": "src/game/debug/StratagemsDebug.sol:StratagemsDebug",
        "label": "_operatorsForAll",
        "offset": 0,
        "slot": "4",
        "type": "t_mapping(t_address,t_mapping(t_address,t_bool))"
      },
      {
        "astId": 15195,
        "contract": "src/game/debug/StratagemsDebug.sol:StratagemsDebug",
        "label": "_operators",
        "offset": 0,
        "slot": "5",
        "type": "t_mapping(t_uint256,t_address)"
      }
    ],
    "types": {
      "t_address": {
        "encoding": "inplace",
        "label": "address",
        "numberOfBytes": "20"
      },
      "t_bool": {
        "encoding": "inplace",
        "label": "bool",
        "numberOfBytes": "1"
      },
      "t_bytes24": {
        "encoding": "inplace",
        "label": "bytes24",
        "numberOfBytes": "24"
      },
      "t_enum(Color)12626": {
        "encoding": "inplace",
        "label": "enum UsingStratagemsTypes.Color",
        "numberOfBytes": "1"
      },
      "t_int8": {
        "encoding": "inplace",
        "label": "int8",
        "numberOfBytes": "1"
      },
      "t_mapping(t_address,t_bool)": {
        "encoding": "mapping",
        "key": "t_address",
        "label": "mapping(address => bool)",
        "numberOfBytes": "32",
        "value": "t_bool"
      },
      "t_mapping(t_address,t_mapping(t_address,t_bool))": {
        "encoding": "mapping",
        "key": "t_address",
        "label": "mapping(address => mapping(address => bool))",
        "numberOfBytes": "32",
        "value": "t_mapping(t_address,t_bool)"
      },
      "t_mapping(t_address,t_struct(Commitment)12705_storage)": {
        "encoding": "mapping",
        "key": "t_address",
        "label": "mapping(address => struct UsingStratagemsTypes.Commitment)",
        "numberOfBytes": "32",
        "value": "t_struct(Commitment)12705_storage"
      },
      "t_mapping(t_address,t_uint256)": {
        "encoding": "mapping",
        "key": "t_address",
        "label": "mapping(address => uint256)",
        "numberOfBytes": "32",
        "value": "t_uint256"
      },
      "t_mapping(t_uint256,t_address)": {
        "encoding": "mapping",
        "key": "t_uint256",
        "label": "mapping(uint256 => address)",
        "numberOfBytes": "32",
        "value": "t_address"
      },
      "t_mapping(t_uint256,t_struct(Cell)12700_storage)": {
        "encoding": "mapping",
        "key": "t_uint256",
        "label": "mapping(uint256 => struct UsingStratagemsTypes.Cell)",
        "numberOfBytes": "32",
        "value": "t_struct(Cell)12700_storage"
      },
      "t_mapping(t_uint256,t_uint256)": {
        "encoding": "mapping",
        "key": "t_uint256",
        "label": "mapping(uint256 => uint256)",
        "numberOfBytes": "32",
        "value": "t_uint256"
      },
      "t_struct(Cell)12700_storage": {
        "encoding": "inplace",
        "label": "struct UsingStratagemsTypes.Cell",
        "members": [
          {
            "astId": 12686,
            "contract": "src/game/debug/StratagemsDebug.sol:StratagemsDebug",
            "label": "lastEpochUpdate",
            "offset": 0,
            "slot": "0",
            "type": "t_uint24"
          },
          {
            "astId": 12688,
            "contract": "src/game/debug/StratagemsDebug.sol:StratagemsDebug",
            "label": "epochWhenTokenIsAdded",
            "offset": 3,
            "slot": "0",
            "type": "t_uint24"
          },
          {
            "astId": 12691,
            "contract": "src/game/debug/StratagemsDebug.sol:StratagemsDebug",
            "label": "color",
            "offset": 6,
            "slot": "0",
            "type": "t_enum(Color)12626"
          },
          {
            "astId": 12693,
            "contract": "src/game/debug/StratagemsDebug.sol:StratagemsDebug",
            "label": "life",
            "offset": 7,
            "slot": "0",
            "type": "t_uint8"
          },
          {
            "astId": 12695,
            "contract": "src/game/debug/StratagemsDebug.sol:StratagemsDebug",
            "label": "delta",
            "offset": 8,
            "slot": "0",
            "type": "t_int8"
          },
          {
            "astId": 12697,
            "contract": "src/game/debug/StratagemsDebug.sol:StratagemsDebug",
            "label": "enemyMap",
            "offset": 9,
            "slot": "0",
            "type": "t_uint8"
          },
          {
            "astId": 12699,
            "contract": "src/game/debug/StratagemsDebug.sol:StratagemsDebug",
            "label": "distribution",
            "offset": 10,
            "slot": "0",
            "type": "t_uint8"
          }
        ],
        "numberOfBytes": "32"
      },
      "t_struct(Commitment)12705_storage": {
        "encoding": "inplace",
        "label": "struct UsingStratagemsTypes.Commitment",
        "members": [
          {
            "astId": 12702,
            "contract": "src/game/debug/StratagemsDebug.sol:StratagemsDebug",
            "label": "hash",
            "offset": 0,
            "slot": "0",
            "type": "t_bytes24"
          },
          {
            "astId": 12704,
            "contract": "src/game/debug/StratagemsDebug.sol:StratagemsDebug",
            "label": "epoch",
            "offset": 24,
            "slot": "0",
            "type": "t_uint24"
          }
        ],
        "numberOfBytes": "32"
      },
      "t_uint24": {
        "encoding": "inplace",
        "label": "uint24",
        "numberOfBytes": "3"
      },
      "t_uint256": {
        "encoding": "inplace",
        "label": "uint256",
        "numberOfBytes": "32"
      },
      "t_uint8": {
        "encoding": "inplace",
        "label": "uint8",
        "numberOfBytes": "1"
      }
    }
  },
  "userdoc": {
    "errors": {
      "CanStillReveal()": [
        {
          "notice": "Player have to reveal if they can Stratagems will prevent them from acknowledging missed reveal if there is still time to reveal."
        }
      ],
      "CommitmentHashNotMatching()": [
        {
          "notice": "Player have to reveal their commitment using the exact same move values  If they provide different value, the commitment hash will differ and Stratagems will reject their reveal."
        }
      ],
      "GameNotStarted()": [
        {
          "notice": "Game has not started yet, can't perform any action"
        }
      ],
      "InCommitmentPhase()": [
        {
          "notice": "When in Commit phase, player can make new commitment but they cannot reveal their move yet."
        }
      ],
      "InRevealPhase()": [
        {
          "notice": "When in Reveal phase, it is not possible to commit new moves or cancel previous commitment  During Reveal phase, players have to reveal their commitment, if not already done."
        }
      ],
      "InvalidEpoch()": [
        {
          "notice": "Player can only reveal their move in the same epoch they commited.abi  If a player reveal later it can only do to minimize the reserve burn cost by calling : `acknowledgeMissedReveal`"
        }
      ],
      "InvalidFurtherMoves()": [
        {
          "notice": "Player can make arbitrary number of moves per epoch. To do so they group moves into (MAX_NUM_MOVES_PER_HASH = 32) moves  This result in a recursive series of hash that they can then submit in turn while revealing.  The limit  (MAX_NUM_MOVES_PER_HASH = 32) ensure a reveal batch fits in a block."
        }
      ],
      "NotAuthorized()": [
        {
          "notice": "Not authorized to perform this operation"
        }
      ],
      "NothingToReveal()": [
        {
          "notice": "Player can only reveal moves they commited."
        }
      ],
      "PreviousCommitmentNotRevealed()": [
        {
          "notice": "Previous commitment need to be revealed before making a new one. Even if the corresponding reveal phase has passed.\\  It is also not possible to withdraw any amount from reserve until the commitment is revealed.\\If player lost the information to reveal, it can acknowledge failure which will burn all its reserve.\\"
        }
      ],
      "ReserveTooLow(uint256,uint256)": [
        {
          "notice": "to make a commitment you always need at least one `config.numTokensPerGems` amount in reserve  Player also need one `config.numTokensPerGems`  per moves during the Reveal phase."
        }
      ]
    },
    "events": {
      "CommitmentCancelled(address,uint24)": {
        "notice": "A player has cancelled its current commitment (before it reached the reveal phase)"
      },
      "CommitmentMade(address,uint24,bytes24)": {
        "notice": "A player has commited to make a move and reveal it on the reveal phase"
      },
      "CommitmentRevealed(address,uint24,bytes24,(uint64,uint8)[],bytes24,uint256)": {
        "notice": "Player has revealed its previous commitment"
      },
      "CommitmentVoid(address,uint24,uint256,bytes24)": {
        "notice": "A player has canceled a previous commitment by burning some tokens"
      },
      "MoveProcessed(uint64,address,uint8,uint8)": {
        "notice": "A move has been revealed."
      },
      "ReserveDeposited(address,uint256,uint256)": {
        "notice": "Player has deposited token in the reserve, allowing it to use that much in game"
      },
      "ReserveWithdrawn(address,uint256,uint256)": {
        "notice": "Player have withdrawn token from the reserve"
      }
    },
    "kind": "user",
    "methods": {},
    "version": 1
  },
  "argsData": "0x0000000000000000000000002d1ecf0a44b19d23cfac37f1ce2399571ed4f7ba000000000000000000000000deaddeaddeaddeaddeaddeaddeaddeaddeaddead000000000000000000000000000000000000000000000000000000000000000000000000000000000000000000000000000000000000000000000000000143700000000000000000000000000000000000000000000000000000000000000e1000000000000000000000000000000000000000000000000000000000000000070000000000000000000000000000000000000000000000000de0b6b3a76400000000000000000000000000007aa235ff8d217dc9d3f4778c89912bc712d1811b",
  "transaction": {
    "hash": "0x98c1ed19564875d37fc0b20b8065d40ff8e8be0fd34f9d2c09b4c47d946c6040",
    "nonce": "0xf0",
    "origin": "0x61c461ecc993aadeb7e4b47e96d1b8cc37314b20"
  }
}