{
  "address": "0x8dcdc0bd18cf4c7da4f719a6038f5c4b03ce1e7b",
  "abi": [
    {
      "inputs": [
        {
          "internalType": "contract TestTokens",
          "name": "tokensToMint",
          "type": "address"
        }
      ],
      "stateMutability": "nonpayable",
      "type": "constructor"
    },
    {
      "inputs": [],
      "name": "tokens",
      "outputs": [
        {
          "internalType": "contract TestTokens",
          "name": "",
          "type": "address"
        }
      ],
      "stateMutability": "view",
      "type": "function"
    },
    {
      "inputs": [],
      "name": "topup",
      "outputs": [],
      "stateMutability": "nonpayable",
      "type": "function"
    }
  ],
  "contractName": "TestTokensInfiniteDistributor",
  "sourceName": "src/test/TestTokensInfiniteDistributor.sol",
  "bytecode": "0x60a060405234801561001057600080fd5b5060405161020a38038061020a83398101604081905261002f91610040565b6001600160a01b0316608052610070565b60006020828403121561005257600080fd5b81516001600160a01b038116811461006957600080fd5b9392505050565b60805161017a61009060003960008181604a015260d1015261017a6000f3fe608060405234801561001057600080fd5b50600436106100365760003560e01c806369774c2d1461003b5780639d63848a14610045575b600080fd5b610043610095565b005b61006c7f000000000000000000000000000000000000000000000000000000000000000081565b60405173ffffffffffffffffffffffffffffffffffffffff909116815260200160405180910390f35b6040517f40c10f1900000000000000000000000000000000000000000000000000000000815233600482015267d02ab486cedc000060248201527f000000000000000000000000000000000000000000000000000000000000000073ffffffffffffffffffffffffffffffffffffffff16906340c10f1990604401600060405180830381600087803b15801561012a57600080fd5b505af115801561013e573d6000803e3d6000fd5b5050505056fea2646970667358221220217b750f6d0c4a1482cd3bb45b9b6de9056731eef213aeb521356b30e489eccd64736f6c63430008140033",
  "linkReferences": {},
  "deployedLinkReferences": {},
  "devdoc": {
    "kind": "dev",
    "methods": {},
    "version": 1
  },
  "evm": {
    "gasEstimates": {
      "creation": {
        "codeDepositCost": "75600",
        "executionCost": "infinite",
        "totalCost": "infinite"
      },
      "external": {
        "tokens()": "infinite",
        "topup()": "infinite"
      }
    }
  },
  "storageLayout": {
    "storage": [],
    "types": null
  },
  "userdoc": {
    "kind": "user",
    "methods": {},
    "version": 1
  },
  "argsData": "0x0000000000000000000000002d1ecf0a44b19d23cfac37f1ce2399571ed4f7ba",
  "transaction": {
    "hash": "0xb0ab713a77874520643c2224709d2e166a20a55caa4f6c794b42dbd974a4a849",
    "nonce": "0xe1",
    "origin": "0x61c461ecc993aadeb7e4b47e96d1b8cc37314b20"
  }
}