{
  "address": "0xfb4d29be83e36ab46003948e9f785292ba825941",
  "abi": [
    {
      "inputs": [
        {
          "components": [
            {
              "internalType": "contract IERC20WithIERC2612",
              "name": "tokens",
              "type": "address"
            },
            {
              "internalType": "address payable",
              "name": "burnAddress",
              "type": "address"
            },
            {
              "internalType": "uint256",
              "name": "startTime",
              "type": "uint256"
            },
            {
              "internalType": "uint256",
              "name": "commitPhaseDuration",
              "type": "uint256"
            },
            {
              "internalType": "uint256",
              "name": "revealPhaseDuration",
              "type": "uint256"
            },
            {
              "internalType": "uint8",
              "name": "maxLife",
              "type": "uint8"
            },
            {
              "internalType": "uint256",
              "name": "numTokensPerGems",
              "type": "uint256"
            },
            {
              "internalType": "contract ITime",
              "name": "time",
              "type": "address"
            }
          ],
          "internalType": "struct UsingStratagemsTypes.Config",
          "name": "config",
          "type": "tuple"
        }
      ],
      "stateMutability": "nonpayable",
      "type": "constructor"
    },
    {
      "inputs": [],
      "name": "CanStillReveal",
      "type": "error"
    },
    {
      "inputs": [],
      "name": "CommitmentHashNotMatching",
      "type": "error"
    },
    {
      "inputs": [],
      "name": "GameNotStarted",
      "type": "error"
    },
    {
      "inputs": [],
      "name": "InCommitmentPhase",
      "type": "error"
    },
    {
      "inputs": [],
      "name": "InRevealPhase",
      "type": "error"
    },
    {
      "inputs": [],
      "name": "InvalidCellOverwrite",
      "type": "error"
    },
    {
      "inputs": [],
      "name": "InvalidEpoch",
      "type": "error"
    },
    {
      "inputs": [],
      "name": "InvalidFurtherMoves",
      "type": "error"
    },
    {
      "inputs": [
        {
          "internalType": "uint256",
          "name": "life",
          "type": "uint256"
        },
        {
          "internalType": "int32",
          "name": "x",
          "type": "int32"
        },
        {
          "internalType": "int32",
          "name": "y",
          "type": "int32"
        }
      ],
      "name": "InvalidLifeConfiguration",
      "type": "error"
    },
    {
      "inputs": [],
      "name": "NotAuthorized",
      "type": "error"
    },
    {
      "inputs": [],
      "name": "NothingToReveal",
      "type": "error"
    },
    {
      "inputs": [],
      "name": "PreviousCommitmentNotRevealed",
      "type": "error"
    },
    {
      "inputs": [
        {
          "internalType": "uint256",
          "name": "inReserve",
          "type": "uint256"
        },
        {
          "internalType": "uint256",
          "name": "expected",
          "type": "uint256"
        }
      ],
      "name": "ReserveTooLow",
      "type": "error"
    },
    {
      "anonymous": false,
      "inputs": [
        {
          "indexed": true,
          "internalType": "address",
          "name": "player",
          "type": "address"
        },
        {
          "indexed": true,
          "internalType": "uint24",
          "name": "epoch",
          "type": "uint24"
        }
      ],
      "name": "CommitmentCancelled",
      "type": "event"
    },
    {
      "anonymous": false,
      "inputs": [
        {
          "indexed": true,
          "internalType": "address",
          "name": "player",
          "type": "address"
        },
        {
          "indexed": true,
          "internalType": "uint24",
          "name": "epoch",
          "type": "uint24"
        },
        {
          "indexed": false,
          "internalType": "bytes24",
          "name": "commitmentHash",
          "type": "bytes24"
        }
      ],
      "name": "CommitmentMade",
      "type": "event"
    },
    {
      "anonymous": false,
      "inputs": [
        {
          "indexed": true,
          "internalType": "address",
          "name": "player",
          "type": "address"
        },
        {
          "indexed": true,
          "internalType": "uint24",
          "name": "epoch",
          "type": "uint24"
        },
        {
          "indexed": true,
          "internalType": "bytes24",
          "name": "commitmentHash",
          "type": "bytes24"
        },
        {
          "components": [
            {
              "internalType": "uint64",
              "name": "position",
              "type": "uint64"
            },
            {
              "internalType": "enum UsingStratagemsTypes.Color",
              "name": "color",
              "type": "uint8"
            }
          ],
          "indexed": false,
          "internalType": "struct UsingStratagemsTypes.Move[]",
          "name": "moves",
          "type": "tuple[]"
        },
        {
          "indexed": false,
          "internalType": "bytes24",
          "name": "furtherMoves",
          "type": "bytes24"
        },
        {
          "indexed": false,
          "internalType": "uint256",
          "name": "newReserveAmount",
          "type": "uint256"
        }
      ],
      "name": "CommitmentRevealed",
      "type": "event"
    },
    {
      "anonymous": false,
      "inputs": [
        {
          "indexed": true,
          "internalType": "address",
          "name": "player",
          "type": "address"
        },
        {
          "indexed": true,
          "internalType": "uint24",
          "name": "epoch",
          "type": "uint24"
        },
        {
          "indexed": false,
          "internalType": "uint256",
          "name": "amountBurnt",
          "type": "uint256"
        },
        {
          "indexed": false,
          "internalType": "bytes24",
          "name": "furtherMoves",
          "type": "bytes24"
        }
      ],
      "name": "CommitmentVoid",
      "type": "event"
    },
    {
      "anonymous": false,
      "inputs": [
        {
          "components": [
            {
              "internalType": "uint64",
              "name": "position",
              "type": "uint64"
            },
            {
              "internalType": "address",
              "name": "owner",
              "type": "address"
            },
            {
              "internalType": "uint24",
              "name": "lastEpochUpdate",
              "type": "uint24"
            },
            {
              "internalType": "uint24",
              "name": "epochWhenTokenIsAdded",
              "type": "uint24"
            },
            {
              "internalType": "enum UsingStratagemsTypes.Color",
              "name": "color",
              "type": "uint8"
            },
            {
              "internalType": "uint8",
              "name": "life",
              "type": "uint8"
            },
            {
              "internalType": "int8",
              "name": "delta",
              "type": "int8"
            },
            {
              "internalType": "uint8",
              "name": "enemyMap",
              "type": "uint8"
            }
          ],
          "indexed": false,
          "internalType": "struct IStratagemsDebug.DebugCell[]",
          "name": "cells",
          "type": "tuple[]"
        }
      ],
      "name": "ForceCells",
      "type": "event"
    },
    {
      "anonymous": false,
      "inputs": [
        {
          "indexed": false,
          "internalType": "uint24",
          "name": "epoch",
          "type": "uint24"
        },
        {
          "components": [
            {
              "internalType": "uint64",
              "name": "position",
              "type": "uint64"
            },
            {
              "internalType": "address",
              "name": "owner",
              "type": "address"
            },
            {
              "internalType": "enum UsingStratagemsTypes.Color",
              "name": "color",
              "type": "uint8"
            },
            {
              "internalType": "uint8",
              "name": "life",
              "type": "uint8"
            }
          ],
          "indexed": false,
          "internalType": "struct IStratagemsDebug.SimpleCell[]",
          "name": "cells",
          "type": "tuple[]"
        }
      ],
      "name": "ForceSimpleCells",
      "type": "event"
    },
    {
      "anonymous": false,
      "inputs": [
        {
          "indexed": true,
          "internalType": "uint64",
          "name": "position",
          "type": "uint64"
        },
        {
          "indexed": true,
          "internalType": "address",
          "name": "player",
          "type": "address"
        },
        {
          "indexed": false,
          "internalType": "enum UsingStratagemsTypes.Color",
          "name": "oldColor",
          "type": "uint8"
        },
        {
          "indexed": false,
          "internalType": "enum UsingStratagemsTypes.Color",
          "name": "newColor",
          "type": "uint8"
        }
      ],
      "name": "MoveProcessed",
      "type": "event"
    },
    {
      "anonymous": false,
      "inputs": [
        {
          "indexed": true,
          "internalType": "uint24",
          "name": "epoch",
          "type": "uint24"
        },
        {
          "indexed": false,
          "internalType": "uint64[]",
          "name": "positions",
          "type": "uint64[]"
        }
      ],
      "name": "MultiPoke",
      "type": "event"
    },
    {
      "anonymous": false,
      "inputs": [
        {
          "indexed": true,
          "internalType": "address",
          "name": "player",
          "type": "address"
        },
        {
          "indexed": false,
          "internalType": "uint256",
          "name": "amountDeposited",
          "type": "uint256"
        },
        {
          "indexed": false,
          "internalType": "uint256",
          "name": "newAmount",
          "type": "uint256"
        }
      ],
      "name": "ReserveDeposited",
      "type": "event"
    },
    {
      "anonymous": false,
      "inputs": [
        {
          "indexed": true,
          "internalType": "address",
          "name": "player",
          "type": "address"
        },
        {
          "indexed": false,
          "internalType": "uint256",
          "name": "amountWithdrawn",
          "type": "uint256"
        },
        {
          "indexed": false,
          "internalType": "uint256",
          "name": "newAmount",
          "type": "uint256"
        }
      ],
      "name": "ReserveWithdrawn",
      "type": "event"
    },
    {
      "anonymous": false,
      "inputs": [
        {
          "indexed": true,
          "internalType": "uint24",
          "name": "epoch",
          "type": "uint24"
        },
        {
          "indexed": false,
          "internalType": "uint64",
          "name": "position",
          "type": "uint64"
        }
      ],
      "name": "SinglePoke",
      "type": "event"
    },
    {
      "inputs": [
        {
          "components": [
            {
              "internalType": "uint64",
              "name": "position",
              "type": "uint64"
            },
            {
              "internalType": "address",
              "name": "owner",
              "type": "address"
            },
            {
              "internalType": "uint24",
              "name": "lastEpochUpdate",
              "type": "uint24"
            },
            {
              "internalType": "uint24",
              "name": "epochWhenTokenIsAdded",
              "type": "uint24"
            },
            {
              "internalType": "enum UsingStratagemsTypes.Color",
              "name": "color",
              "type": "uint8"
            },
            {
              "internalType": "uint8",
              "name": "life",
              "type": "uint8"
            },
            {
              "internalType": "int8",
              "name": "delta",
              "type": "int8"
            },
            {
              "internalType": "uint8",
              "name": "enemyMap",
              "type": "uint8"
            }
          ],
          "internalType": "struct IStratagemsDebug.DebugCell[]",
          "name": "cells",
          "type": "tuple[]"
        }
      ],
      "name": "forceCells",
      "outputs": [],
      "stateMutability": "nonpayable",
      "type": "function"
    },
    {
      "inputs": [
        {
          "internalType": "address",
          "name": "player",
          "type": "address"
        },
        {
          "components": [
            {
              "internalType": "uint64",
              "name": "position",
              "type": "uint64"
            },
            {
              "internalType": "enum UsingStratagemsTypes.Color",
              "name": "color",
              "type": "uint8"
            }
          ],
          "internalType": "struct UsingStratagemsTypes.Move[]",
          "name": "moves",
          "type": "tuple[]"
        }
      ],
      "name": "forceMoves",
      "outputs": [],
      "stateMutability": "nonpayable",
      "type": "function"
    },
    {
      "inputs": [
        {
          "components": [
            {
              "internalType": "uint64",
              "name": "position",
              "type": "uint64"
            },
            {
              "internalType": "address",
              "name": "owner",
              "type": "address"
            },
            {
              "internalType": "enum UsingStratagemsTypes.Color",
              "name": "color",
              "type": "uint8"
            },
            {
              "internalType": "uint8",
              "name": "life",
              "type": "uint8"
            }
          ],
          "internalType": "struct IStratagemsDebug.SimpleCell[]",
          "name": "cells",
          "type": "tuple[]"
        }
      ],
      "name": "forceSimpleCells",
      "outputs": [],
      "stateMutability": "nonpayable",
      "type": "function"
    },
    {
      "inputs": [
        {
          "internalType": "uint256",
          "name": "id",
          "type": "uint256"
        }
      ],
      "name": "getRawCell",
      "outputs": [
        {
          "components": [
            {
              "internalType": "uint24",
              "name": "lastEpochUpdate",
              "type": "uint24"
            },
            {
              "internalType": "uint24",
              "name": "epochWhenTokenIsAdded",
              "type": "uint24"
            },
            {
              "internalType": "enum UsingStratagemsTypes.Color",
              "name": "color",
              "type": "uint8"
            },
            {
              "internalType": "uint8",
              "name": "life",
              "type": "uint8"
            },
            {
              "internalType": "int8",
              "name": "delta",
              "type": "int8"
            },
            {
              "internalType": "uint8",
              "name": "enemyMap",
              "type": "uint8"
            },
            {
              "internalType": "uint8",
              "name": "distribution",
              "type": "uint8"
            },
            {
              "internalType": "uint8",
              "name": "stake",
              "type": "uint8"
            }
          ],
          "internalType": "struct UsingStratagemsTypes.Cell",
          "name": "",
          "type": "tuple"
        }
      ],
      "stateMutability": "view",
      "type": "function"
    }
  ],
  "contractName": "StratagemsDebug",
  "sourceName": "src/game/debug/StratagemsDebug.sol",
  "bytecode": "0x6101806040523480156200001257600080fd5b50604051620044fe380380620044fe8339810160408190526200003591620000be565b60e0808201516001600160a01b0390811660809081528351821660a0908152602085015190921661016052604084015160c090815260608501519093528301516101005282015160ff16610120520151610140526200017e565b80516001600160a01b0381168114620000a757600080fd5b919050565b805160ff81168114620000a757600080fd5b6000610100808385031215620000d357600080fd5b604051908101906001600160401b03821181831017156200010457634e487b7160e01b600052604160045260246000fd5b8160405262000113846200008f565b815262000123602085016200008f565b60208201526040840151604082015260608401516060820152608084015160808201526200015460a08501620000ac565b60a082015260c084015160c08201526200017160e085016200008f565b60e0820152949350505050565b60805160a05160c05160e0516101005161012051610140516101605161428e6200027060003960006115fd0152600081816101640152818161050601528181611f1401528181611f6e01528181611fcd015281816121190152818161214a01528181612e670152612f34015260008181610a5f01528181611e8c01528181613035015281816130a301526130d10152600061113a01526000818161115b015261122e01526000818161118f01526111ee0152600081816101cb0152818161052c015281816113c3015281816115380152818161162d01526116fa015260008181611d4b0152611d8b015261428e6000f3fe608060405234801561001057600080fd5b506004361061004c5760003560e01c80632779347e14610051578063cd315b0814610066578063d703f50a1461008f578063df971134146100a2575b600080fd5b61006461005f3660046137d5565b6100b5565b005b6100796100743660046138b0565b61029d565b6040516100869190613933565b60405180910390f35b61006461009d3660046139ce565b6103b9565b6100646100b0366004613ac8565b610da3565b7fb53127684a568b3173ae13b9f8a6016e243e63b6e8ee1178d6a717850b5d61035473ffffffffffffffffffffffffffffffffffffffff163373ffffffffffffffffffffffffffffffffffffffff161461013b576040517fea8e4eb500000000000000000000000000000000000000000000000000000000815260040160405180910390fd5b600080610146611131565b91509150801561015e578161015a81613c22565b9250505b600083517f000000000000000000000000000000000000000000000000000000000000000061018d9190613c5f565b6040517f23b872dd000000000000000000000000000000000000000000000000000000008152336004820152306024820152604481018290529091507f000000000000000000000000000000000000000000000000000000000000000073ffffffffffffffffffffffffffffffffffffffff16906323b872dd906064016020604051808303816000875af1158015610229573d6000803e3d6000fd5b505050506040513d601f19601f8201168201806040525081019061024d9190613c76565b5073ffffffffffffffffffffffffffffffffffffffff851660009081526002602052604081208054839290610283908490613c9f565b9091555061029590508584863361127c565b505050505050565b6040805161010081018252600080825260208201819052918101829052606081018290526080810182905260a0810182905260c0810182905260e081019190915260008281526020818152604091829020825161010081018452815462ffffff8082168352630100000082041693820193909352929091908301906601000000000000900460ff166006811115610336576103366138c9565b6006811115610347576103476138c9565b8152905460ff67010000000000000082048116602084015268010000000000000000820460000b604084015269010000000000000000008204811660608401526a01000000000000000000008204811660808401526b0100000000000000000000009091041660a09091015292915050565b7fb53127684a568b3173ae13b9f8a6016e243e63b6e8ee1178d6a717850b5d61035473ffffffffffffffffffffffffffffffffffffffff163373ffffffffffffffffffffffffffffffffffffffff161461043f576040517fea8e4eb500000000000000000000000000000000000000000000000000000000815260040160405180910390fd5b6000610449611131565b50905060005b825181101561085e57600083828151811061046c5761046c613cb2565b602090810291909101810151805167ffffffffffffffff1660009081529182905260409091205490915062ffffff16156104d2576040517ff9e4d84a00000000000000000000000000000000000000000000000000000000815260040160405180910390fd5b6040517f23b872dd0000000000000000000000000000000000000000000000000000000081523360048201523060248201527f000000000000000000000000000000000000000000000000000000000000000060448201527f000000000000000000000000000000000000000000000000000000000000000073ffffffffffffffffffffffffffffffffffffffff16906323b872dd906064016020604051808303816000875af115801561058a573d6000803e3d6000fd5b505050506040513d601f19601f820116820180604052508101906105ae9190613c76565b506000806105c58360000151846040015187611775565b915091506040518061010001604052808662ffffff1681526020018662ffffff16815260200184604001516006811115610601576106016138c9565b815260608086015160ff908116602080850191909152600087810b6040808701919091529287169385019390935260808401839052600160a090940193909352865167ffffffffffffffff16825281835290819020835181549385015162ffffff9081166301000000027fffffffffffffffffffffffffffffffffffffffffffffffffffff00000000000090951691161792909217808355908301519082907fffffffffffffffffffffffffffffffffffffffffffffffffff00ffffffffffff1666010000000000008360068111156106dc576106dc6138c9565b021790555060608201518154608084015160a085015160c086015160e0909601517fffffffffffffffffffffffffffffffffffffffffffffff0000ffffffffffffff90931667010000000000000060ff958616027fffffffffffffffffffffffffffffffffffffffffffffff00ffffffffffffffff16176801000000000000000092851692909202919091177fffffffffffffffffffffffffffffffffffffffffff0000ffffffffffffffffff166901000000000000000000918416919091027fffffffffffffffffffffffffffffffffffffffffff00ffffffffffffffffffff16176a010000000000000000000094831694909402939093177fffffffffffffffffffffffffffffffffffffffff00ffffffffffffffffffffff166b01000000000000000000000091909316029190911790555050602081810151915167ffffffffffffffff16600090815260019091526040902073ffffffffffffffffffffffffffffffffffffffff90911690558061085681613ce1565b91505061044f565b5060005b8251811015610d6557600083828151811061087f5761087f613cb2565b6020908102919091018101515167ffffffffffffffff1660008181528083526040808220815161010081018352815462ffffff80821683526301000000820416968201969096529395509193908301906601000000000000900460ff1660068111156108ed576108ed6138c9565b60068111156108fe576108fe6138c9565b8152905460ff670100000000000000820481166020840152680100000000000000008204600090810b604085015269010000000000000000008304821660608501526a0100000000000000000000830482166080808601919091526b01000000000000000000000090930490911660a09093019290925282015191925090810b81036109aa577fffffffffffffffffffffffffffffffffffffffffffffffffffffffffffffffff6109b0565b81608001515b905060008160000b1280156109ca575060a082015160ff16155b156109d3575060005b60008160000b836060015160ff166109eb9190613d19565b90506000811215610a5d576040517f08c379a000000000000000000000000000000000000000000000000000000000815260206004820152601860248201527f696d706f737369626c6520636f6e66696775726174696f6e000000000000000060448201526064015b60405180910390fd5b7f000000000000000000000000000000000000000000000000000000000000000060ff16811115610ade576040517fa21143880000000000000000000000000000000000000000000000000000000081526004810182905263ffffffff8516600381810b6024840152602087901c9081900b60448401529091606401610a54565b60ff8116606084015260408051610100810190915260009080610b0260018a613d39565b62ffffff168152602001610b1760018a613d39565b62ffffff16815260200185604001516006811115610b3757610b376138c9565b815260608087015160ff9081166020808501919091526080808a0151600090810b60408088019190915260a0808d0151909516958701959095529085018190526001929094019190915288835282815291819020835181549385015162ffffff9081166301000000027fffffffffffffffffffffffffffffffffffffffffffffffffffff000000000000909516911617929092178083559083015192935083929082907fffffffffffffffffffffffffffffffffffffffffffffffffff00ffffffffffff166601000000000000836006811115610c1657610c166138c9565b021790555060608201518154608084015160a085015160c086015160e0909601517fffffffffffffffffffffffffffffffffffffffffffffff0000ffffffffffffff90931667010000000000000060ff958616027fffffffffffffffffffffffffffffffffffffffffffffff00ffffffffffffffff16176801000000000000000092851692909202919091177fffffffffffffffffffffffffffffffffffffffffff0000ffffffffffffffffff166901000000000000000000918416919091027fffffffffffffffffffffffffffffffffffffffffff00ffffffffffffffffffff16176a010000000000000000000094831694909402939093177fffffffffffffffffffffffffffffffffffffffff00ffffffffffffffffffffff166b010000000000000000000000919093160291909117905550849350610d5d9250839150613ce19050565b915050610862565b507f8e1d006b2d362a7e606e2a6f90b3faefd938725a74cfe85918c68a8d67d625ec8183604051610d97929190613d55565b60405180910390a15050565b7fb53127684a568b3173ae13b9f8a6016e243e63b6e8ee1178d6a717850b5d61035473ffffffffffffffffffffffffffffffffffffffff163373ffffffffffffffffffffffffffffffffffffffff1614610e29576040517fea8e4eb500000000000000000000000000000000000000000000000000000000815260040160405180910390fd5b60005b81518110156110f6576000828281518110610e4957610e49613cb2565b60200260200101519050604051806101000160405280826040015162ffffff168152602001826060015162ffffff16815260200182608001516006811115610e9357610e936138c9565b815260a08084015160ff90811660208085019190915260c0860151600090810b60408087019190915260e088015190931660608601526080850181905260019390940192909252845167ffffffffffffffff16835282825291829020835181549285015162ffffff9081166301000000027fffffffffffffffffffffffffffffffffffffffffffffffffffff0000000000009094169116179190911780825591830151909182907fffffffffffffffffffffffffffffffffffffffffffffffffff00ffffffffffff166601000000000000836006811115610f7657610f766138c9565b021790555060608201518154608084015160a085015160c086015160e0909601517fffffffffffffffffffffffffffffffffffffffffffffff0000ffffffffffffff90931667010000000000000060ff958616027fffffffffffffffffffffffffffffffffffffffffffffff00ffffffffffffffff16176801000000000000000092851692909202919091177fffffffffffffffffffffffffffffffffffffffffff0000ffffffffffffffffff166901000000000000000000918416919091027fffffffffffffffffffffffffffffffffffffffffff00ffffffffffffffffffff16176a010000000000000000000094831694909402939093177fffffffffffffffffffffffffffffffffffffffff00ffffffffffffffffffffff166b0100000000000000000000009190931602919091179055602081810151915167ffffffffffffffff16600090815260019091526040902073ffffffffffffffffffffffffffffffffffffffff9091169055806110ee81613ce1565b915050610e2c565b507f3c0a1b33060cb27164a8675b8ef0947a312efd921ef674321eb29f0dcbf63876816040516111269190613df2565b60405180910390a150565b6000808061117f7f00000000000000000000000000000000000000000000000000000000000000007f0000000000000000000000000000000000000000000000000000000000000000613c9f565b9050600061118b611d47565b90507f00000000000000000000000000000000000000000000000000000000000000008110156111e7576040517f3a5f7b5700000000000000000000000000000000000000000000000000000000815260040160405180910390fd5b60006112137f000000000000000000000000000000000000000000000000000000000000000083613ec9565b905061121f8382613f0b565b61122a906002613c9f565b94507f000000000000000000000000000000000000000000000000000000000000000083611259600288613d39565b62ffffff166112689190613c5f565b6112729083613ec9565b1093505050509091565b6000806040518060400160405280855160056112989190613c5f565b67ffffffffffffffff8111156112b0576112b061369c565b6040519080825280602002602001820160405280156112f557816020015b60408051808201909152600080825260208201528152602001906001900390816112ce5790505b5081526020016000815250905061132660405180606001604052806000815260200160008152602001600081525090565b60005b85518110156113bd57600080600061135c868c8c8c888151811061134f5761134f613cb2565b6020026020010151611e1d565b92509250925082856000018181516113749190613c9f565b90525060208501805183919061138b908390613c9f565b9052506040850180518291906113a2908390613c9f565b9052508392506113b59150829050613ce1565b915050611329565b506113e87f00000000000000000000000000000000000000000000000000000000000000008361244e565b73ffffffffffffffffffffffffffffffffffffffff871660009081526002602090815260409091205490820151825191945061142391613c9f565b8310156114775760208101518151849161143c91613c9f565b6040517f78fe52a600000000000000000000000000000000000000000000000000000000815260048101929092526024820152604401610a54565b73ffffffffffffffffffffffffffffffffffffffff84166114dc57602081015181516114a39190613c9f565b6114ad9084613ec9565b73ffffffffffffffffffffffffffffffffffffffff88166000908152600260205260409020819055925061169e565b8051156115a95780516040517f23b872dd00000000000000000000000000000000000000000000000000000000815273ffffffffffffffffffffffffffffffffffffffff868116600483015230602483015260448201929092527f0000000000000000000000000000000000000000000000000000000000000000909116906323b872dd906064016020604051808303816000875af1158015611583573d6000803e3d6000fd5b505050506040513d601f19601f820116820180604052508101906115a79190613c76565b505b60208101511561169e5760208101516040517f23b872dd00000000000000000000000000000000000000000000000000000000815273ffffffffffffffffffffffffffffffffffffffff86811660048301527f00000000000000000000000000000000000000000000000000000000000000008116602483015260448201929092527f0000000000000000000000000000000000000000000000000000000000000000909116906323b872dd906064016020604051808303816000875af1158015611678573d6000803e3d6000fd5b505050506040513d601f19601f8201168201806040525081019061169c9190613c76565b505b60408101511561176b5760408181015190517fa9059cbb00000000000000000000000000000000000000000000000000000000815273ffffffffffffffffffffffffffffffffffffffff898116600483015260248201929092527f00000000000000000000000000000000000000000000000000000000000000009091169063a9059cbb906044016020604051808303816000875af1158015611745573d6000803e3d6000fd5b505050506040513d601f19601f820116820180604052508101906117699190613c76565b505b5050949350505050565b600080806117ae67ffffffffffffffff8716827fffffffffffffffffffffffffffffffffffffffffffffffffffffffffffffffff612556565b67ffffffffffffffff8116600090815260208181526040808320815161010081018352815462ffffff808216835263010000008204169482019490945294955092939291908301906601000000000000900460ff166006811115611814576118146138c9565b6006811115611825576118256138c9565b8152905460ff670100000000000000820481166020840152680100000000000000008204600090810b604085015269010000000000000000008304821660608501526a01000000000000000000008304821660808501526b0100000000000000000000009092041660a090920191909152909150816040015160068111156118af576118af6138c9565b146118f65760006118c48783604001516125a6565b905060008160000b12156118d9578360011793505b80850194506118f38383846060015189600260008d612643565b50505b506000905061193067ffffffffffffffff87167fffffffffffffffffffffffffffffffffffffffffffffffffffffffffffffffff83612556565b67ffffffffffffffff8116600090815260208181526040808320815161010081018352815462ffffff808216835263010000008204169482019490945294955092939291908301906601000000000000900460ff166006811115611996576119966138c9565b60068111156119a7576119a76138c9565b8152905460ff670100000000000000820481166020840152680100000000000000008204600090810b604085015269010000000000000000008304821660608501526a01000000000000000000008304821660808501526b0100000000000000000000009092041660a09092019190915290915081604001516006811115611a3157611a316138c9565b14611a78576000611a468783604001516125a6565b905060008160000b1215611a5b578360021793505b8085019450611a758383846060015189600360008d612643565b50505b5060009050611a9367ffffffffffffffff8716826001612556565b67ffffffffffffffff8116600090815260208181526040808320815161010081018352815462ffffff808216835263010000008204169482019490945294955092939291908301906601000000000000900460ff166006811115611af957611af96138c9565b6006811115611b0a57611b0a6138c9565b8152905460ff670100000000000000820481166020840152680100000000000000008204600090810b604085015269010000000000000000008304821660608501526a01000000000000000000008304821660808501526b0100000000000000000000009092041660a09092019190915290915081604001516006811115611b9457611b946138c9565b14611bda576000611ba98783604001516125a6565b905060008160000b1215611bbe578360041793505b8085019450611bd783838460600151896000808d612643565b50505b5060009050611bf567ffffffffffffffff8716600183612556565b67ffffffffffffffff8116600090815260208181526040808320815161010081018352815462ffffff808216835263010000008204169482019490945294955092939291908301906601000000000000900460ff166006811115611c5b57611c5b6138c9565b6006811115611c6c57611c6c6138c9565b8152905460ff670100000000000000820481166020840152680100000000000000008204600090810b604085015269010000000000000000008304821660608501526a01000000000000000000008304821660808501526b0100000000000000000000009092041660a09092019190915290915081604001516006811115611cf657611cf66138c9565b14611d3d576000611d0b8783604001516125a6565b905060008160000b1215611d20578360081793505b8085019450611d3a8383846060015189600160008d612643565b50505b5050935093915050565b60007f000000000000000000000000000000000000000000000000000000000000000073ffffffffffffffffffffffffffffffffffffffff16611d8957504290565b7f000000000000000000000000000000000000000000000000000000000000000073ffffffffffffffffffffffffffffffffffffffff1663b80777ea6040518163ffffffff1660e01b8152600401602060405180830381865afa158015611df4573d6000803e3d6000fd5b505050506040513d601f19601f82011682018060405250810190611e189190613f1f565b905090565b6000806000806000611e33866000015188612ace565b60c082015191935091508115611e6d57611e508360a00151612c5b565b60048460a0015160ff16901b611e669190613f38565b6000845290505b600087602001516006811115611e8557611e856138c9565b03611f9a577f000000000000000000000000000000000000000000000000000000000000000060ff16836060015160ff16141580611f0a5750865167ffffffffffffffff1660009081526001602052604090205473ffffffffffffffffffffffffffffffffffffffff8a169073ffffffffffffffffffffffffffffffffffffffff1614155b15611f41576000807f0000000000000000000000000000000000000000000000000000000000000000955095509550505050612444565b611f958a60405180604001604052808c73ffffffffffffffffffffffffffffffffffffffff1681526020017f0000000000000000000000000000000000000000000000000000000000000000815250612c8d565b611ffa565b8762ffffff16836020015162ffffff1603611ffa57606083015160ff1615611fc85760066020880152611ffa565b6000807f0000000000000000000000000000000000000000000000000000000000000000955095509550505050612444565b6000806120138c8a8c8860400151878a60e00151612ddf565b915091508a73ffffffffffffffffffffffffffffffffffffffff16896000015167ffffffffffffffff167f17b85ded3fb12432ee427abc34a3026e1fbbb8bc431e3dbe51bc81215655c25c87604001518c60200151604051612076929190613f51565b60405180910390a3886020015185604001906006811115612099576120996138c9565b908160068111156120ac576120ac6138c9565b905250600060c0860181905262ffffff8b166020870152856040015160068111156120d9576120d96138c9565b0361213f5760006060860181905260e086018190528086526080860181905260a08601819052895167ffffffffffffffff168152600160205260408120557f00000000000000000000000000000000000000000000000000000000000000009550612267565b60ff811660a08601527f00000000000000000000000000000000000000000000000000000000000000009750600685604001516006811115612183576121836138c9565b1480156121965750606085015160ff1615155b156121bf5760e08501805160010160ff16908190526000036121ba5760ff60e08601525b6121c7565b600160e08601525b600082900b60808601526001606086015262ffffff8a1685526006856040015160068111156121f8576121f86138c9565b0361223357885167ffffffffffffffff16600090815260016020526040902073ffffffffffffffffffffffffffffffffffffffff9055612267565b885167ffffffffffffffff16600090815260016020526040902073ffffffffffffffffffffffffffffffffffffffff8c1690555b885167ffffffffffffffff1660009081526020818152604091829020875181549289015162ffffff9081166301000000027fffffffffffffffffffffffffffffffffffffffffffffffffffff0000000000009094169116179190911780825591870151879282907fffffffffffffffffffffffffffffffffffffffffffffffffff00ffffffffffff16660100000000000083600681111561230a5761230a6138c9565b021790555060608201518154608084015160a085015160c086015160e0909601517fffffffffffffffffffffffffffffffffffffffffffffff0000ffffffffffffff90931667010000000000000060ff958616027fffffffffffffffffffffffffffffffffffffffffffffff00ffffffffffffffff16176801000000000000000092851692909202919091177fffffffffffffffffffffffffffffffffffffffffff0000ffffffffffffffffff166901000000000000000000918416919091027fffffffffffffffffffffffffffffffffffffffffff00ffffffffffffffffffff16176a010000000000000000000094831694909402939093177fffffffffffffffffffffffffffffffffffffffff00ffffffffffffffffffffff166b010000000000000000000000919093160291909117905550505050505b9450945094915050565b60005b8160200151811015612551578273ffffffffffffffffffffffffffffffffffffffff1663a9059cbb8360000151838151811061248f5761248f613cb2565b602002602001015160000151846000015184815181106124b1576124b1613cb2565b6020026020010151602001516040518363ffffffff1660e01b81526004016124fb92919073ffffffffffffffffffffffffffffffffffffffff929092168252602082015260400190565b6020604051808303816000875af115801561251a573d6000803e3d6000fd5b505050506040513d601f19601f8201168201806040525081019061253e9190613c76565b508061254981613ce1565b915050612451565b505050565b60006125688363ffffffff8616613f6c565b925061257e8263ffffffff602087901c16613f6c565b915061259e63ffffffff841667ffffffff00000000602085901b16613fae565b949350505050565b6000808360068111156125bb576125bb6138c9565b141580156125db575060008260068111156125d8576125d86138c9565b14155b15612639578160068111156125f2576125f26138c9565b836006811115612604576126046138c9565b1461262f577fffffffffffffffffffffffffffffffffffffffffffffffffffffffffffffffff612632565b60015b905061263d565b5060005b92915050565b600080876060015160ff1611801561265c575060ff8616155b1561268d5761266e8760a00151612c5b565b60048860a0015160ff16901b6126849190613f38565b60ff1660c08801525b6126988460026140ef565b6126a38560026140ef565b60c089015160041c16600f160361271f578660c00151600f168760e00151600c6126cd91906140fe565b6126d7919061411a565b60ff1690508660c00151600f1660048560ff1660026126f6919061413c565b1960048a60c0015160ff16901c60ff161660ff16901b6127169190613f38565b60ff1660c08801525b816006811115612731576127316138c9565b836006811115612743576127436138c9565b146128df57600082600681111561275c5761275c6138c9565b036127e357826006811115612773576127736138c9565b87604001516006811115612789576127896138c9565b036127ac576001876080018181516127a19190614148565b60000b9052506128df565b6001876080018181516127bf9190614187565b60000b90525060a087018051600160ff8781169190911b81189091161690526128df565b8260068111156127f5576127f56138c9565b8760400151600681111561280b5761280b6138c9565b0361283c5760a087018051600160ff8781169190911b909117169052608087018051600291906127a1908390614148565b81600681111561284e5761284e6138c9565b87604001516006811115612864576128646138c9565b0361289557600083600681111561287d5761287d6138c9565b146127ac576002876080018181516127bf9190614187565b60008360068111156128a9576128a96138c9565b036128df576001876080018181516128c19190614148565b60000b90525060a087018051600160ff8781169190911b9091171690525b62ffffff808616885260ff8716606089015267ffffffffffffffff8916600090815260208181526040918290208a518154928c015185166301000000027fffffffffffffffffffffffffffffffffffffffffffffffffffff000000000000909316941693909317178083559089015189929182907fffffffffffffffffffffffffffffffffffffffffffffffffff00ffffffffffff16660100000000000083600681111561298f5761298f6138c9565b021790555060608201518154608084015160a085015160c086015160e0909601517fffffffffffffffffffffffffffffffffffffffffffffff0000ffffffffffffff90931667010000000000000060ff958616027fffffffffffffffffffffffffffffffffffffffffffffff00ffffffffffffffff16176801000000000000000092851692909202919091177fffffffffffffffffffffffffffffffffffffffffff0000ffffffffffffffffff166901000000000000000000918416919091027fffffffffffffffffffffffffffffffffffffffffff00ffffffffffffffffffff16176a010000000000000000000094831694909402939093177fffffffffffffffffffffffffffffffffffffffff00ffffffffffffffffffffff166b0100000000000000000000009190931602919091179055979650505050505050565b6040805161010081018252600080825260208201819052918101829052606081018290526080810182905260a0810182905260c0810182905260e081019190915267ffffffffffffffff8316600090815260208181526040808320815161010081018352815462ffffff80821683526301000000820416948201949094529290918301906601000000000000900460ff166006811115612b7057612b706138c9565b6006811115612b8157612b816138c9565b8152905460ff67010000000000000082048116602084015268010000000000000000820460000b60408401526901000000000000000000820481166060808501919091526a0100000000000000000000830482166080808601919091526b01000000000000000000000090930490911660a0909301929092528251908301519183015192945091600162ffffff841610801590612c21575060008160ff16115b15612c51576000612c39848760a0015185858b612f8f565b5060ff166060870181905262ffffff88168752159450505b5050509250929050565b60005b60ff821615612c8857612c726001836141c6565b9091169080612c80816141df565b915050612c5e565b919050565b60005b8260200151811015612d3f57816000015173ffffffffffffffffffffffffffffffffffffffff1683600001518281518110612ccd57612ccd613cb2565b60200260200101516000015173ffffffffffffffffffffffffffffffffffffffff1603612d2d5760208201518351805183908110612d0d57612d0d613cb2565b6020026020010151602001818151612d259190613c9f565b905250505050565b80612d3781613ce1565b915050612c90565b5080518251602084015181518110612d5957612d59613cb2565b60200260200101516000019073ffffffffffffffffffffffffffffffffffffffff16908173ffffffffffffffffffffffffffffffffffffffff168152505080602001518260000151836020015181518110612db657612db6613cb2565b60200260200101516020018181525050816020018051809190612dd890613ce1565b9052505050565b600080600080600080612dfd8b600001518b8b8e602001518c6131c1565b935093509350935060008261ffff161115612ea157612ea18c6040518060400160405280612e458f6000015167ffffffffffffffff1660009081526001602052604090205490565b73ffffffffffffffffffffffffffffffffffffffff168152602001600c612e907f000000000000000000000000000000000000000000000000000000000000000061ffff8916613c5f565b612e9a9190613f0b565b9052612c8d565b60005b60048160ff161015612f7c5760008260ff831660048110612ec757612ec7613cb2565b602002015173ffffffffffffffffffffffffffffffffffffffff1614612f6a57612f6a8d6040518060400160405280858560ff1660048110612f0b57612f0b613cb2565b602002015173ffffffffffffffffffffffffffffffffffffffff1681526020018c600f1660ff167f0000000000000000000000000000000000000000000000000000000000000000612f5d9190613f0b565b612e9a9060ff8e16613c5f565b80612f74816141df565b915050612ea4565b50929b919a509098505050505050505050565b600085600162ffffff821610801590612fab575060008460ff16115b156131b7576000612fbc8885613d39565b62ffffff16905080156131ae5760008660000b600003612ffc577fffffffffffffffffffffffffffffffffffffffffffffffffffffffffffffffff612ffe565b865b905060008160000b128015613014575060ff8816155b1561301d575060005b60008160000b13156130ff576000816001816130598a7f00000000000000000000000000000000000000000000000000000000000000006141c6565b6130639190613f38565b61306d91906141c6565b613077919061411a565b90508060ff1683111561308b578060ff1692505b61309582846140fe565b61309f9088613f38565b96507f000000000000000000000000000000000000000000000000000000000000000060ff168760ff1611156130f3577f000000000000000000000000000000000000000000000000000000000000000096505b869450859350506131a8565b60008160000b12156131a1576000613116826141fe565b6001613121846141fe565b61312b908a613f38565b61313591906141c6565b61313f919061411a565b90508060ff16831115613153578060ff1692505b600061315e836141fe565b61316890856140fe565b90508760ff168160ff161115613181576000955061318e565b61318b81896141c6565b95505b613198848c61423c565b945050506131a8565b8593508492505b506131b5565b8492508791505b505b9550959350505050565b60008060006131ce61365a565b6000808061320767ffffffffffffffff8d16827fffffffffffffffffffffffffffffffffffffffffffffffffffffffffffffffff612556565b9050613217818c60028d8d61344c565b9093509150600083810b121561322e578560011795505b938101936001600489901c811690036132745767ffffffffffffffff811660009081526001602052604090205473ffffffffffffffffffffffffffffffffffffffff1684525b509481019460006132b067ffffffffffffffff8d167fffffffffffffffffffffffffffffffffffffffffffffffffffffffffffffffff83612556565b90506132c0818c60038d8d61344c565b9093509150600083810b12156132d7578560021795505b938101936002600489901c811690036133205767ffffffffffffffff811660009081526001602052604090205473ffffffffffffffffffffffffffffffffffffffff1660208501525b5094810194600061333d67ffffffffffffffff8d16826001612556565b905061334d818c60008d8d61344c565b9093509150600083810b1215613364578560041795505b93810193600488811c811690036133ab5767ffffffffffffffff811660009081526001602052604090205473ffffffffffffffffffffffffffffffffffffffff1660408501525b509481019460006133c867ffffffffffffffff8d16600183612556565b90506133d8818c60018d8d61344c565b9093509150600083810b12156133ef578560081795505b938101936008600489901c811690036134385767ffffffffffffffff811660009081526001602052604090205473ffffffffffffffffffffffffffffffffffffffff1660608501525b828701965050505095509550955095915050565b67ffffffffffffffff8516600090815260208181526040808320815161010081018352815462ffffff8082168352630100000082041694820194909452849384939192918301906601000000000000900460ff1660068111156134b1576134b16138c9565b60068111156134c2576134c26138c9565b8152905460ff670100000000000000820481166020840152680100000000000000008204600090810b60408086019190915269010000000000000000008404831660608601526a01000000000000000000008404831660808601526b01000000000000000000000090930490911660a0909301929092528251908301519293509190816006811115613556576135566138c9565b146135b05785600681111561356d5761356d6138c9565b81600681111561357f5761357f6138c9565b146135aa577fffffffffffffffffffffffffffffffffffffffffffffffffffffffffffffffff6135ad565b60015b94505b60018262ffffff16101580156135d8575060008160068111156135d5576135d56138c9565b14155b1561364d576000836060015160ff161180156135fd57508862ffffff168262ffffff16105b1561363757600061361d838560a00151866080015187606001518e612f8f565b50905061362f8b85838d8d8d8d612643565b94505061364d565b61364a8a8485606001518c8c8c8c612643565b93505b5050509550959350505050565b60405180608001604052806004906020820280368337509192915050565b803573ffffffffffffffffffffffffffffffffffffffff81168114612c8857600080fd5b7f4e487b7100000000000000000000000000000000000000000000000000000000600052604160045260246000fd5b6040805190810167ffffffffffffffff811182821017156136ee576136ee61369c565b60405290565b6040516080810167ffffffffffffffff811182821017156136ee576136ee61369c565b604051610100810167ffffffffffffffff811182821017156136ee576136ee61369c565b604051601f82017fffffffffffffffffffffffffffffffffffffffffffffffffffffffffffffffe016810167ffffffffffffffff811182821017156137825761378261369c565b604052919050565b600067ffffffffffffffff8211156137a4576137a461369c565b5060051b60200190565b803567ffffffffffffffff81168114612c8857600080fd5b803560078110612c8857600080fd5b60008060408084860312156137e957600080fd5b6137f284613678565b925060208085013567ffffffffffffffff81111561380f57600080fd5b8501601f8101871361382057600080fd5b803561383361382e8261378a565b61373b565b81815260069190911b8201830190838101908983111561385257600080fd5b928401925b828410156138a05785848b03121561386f5760008081fd5b6138776136cb565b613880856137ae565b815261388d8686016137c6565b8187015282529285019290840190613857565b8096505050505050509250929050565b6000602082840312156138c257600080fd5b5035919050565b7f4e487b7100000000000000000000000000000000000000000000000000000000600052602160045260246000fd5b6007811061392f577f4e487b7100000000000000000000000000000000000000000000000000000000600052602160045260246000fd5b9052565b60006101008201905062ffffff80845116835280602085015116602084015250604083015161396560408401826138f8565b5060ff6060840151166060830152608083015160000b608083015260ff60a08401511660a083015260c08301516139a160c084018260ff169052565b5060e08301516139b660e084018260ff169052565b5092915050565b803560ff81168114612c8857600080fd5b600060208083850312156139e157600080fd5b823567ffffffffffffffff8111156139f857600080fd5b8301601f81018513613a0957600080fd5b8035613a1761382e8261378a565b81815260079190911b82018301908381019087831115613a3657600080fd5b928401925b82841015613aaa5760808489031215613a545760008081fd5b613a5c6136f4565b613a65856137ae565b8152613a72868601613678565b868201526040613a838187016137c6565b908201526060613a948682016139bd565b9082015282526080939093019290840190613a3b565b979650505050505050565b803562ffffff81168114612c8857600080fd5b60006020808385031215613adb57600080fd5b823567ffffffffffffffff811115613af257600080fd5b8301601f81018513613b0357600080fd5b8035613b1161382e8261378a565b81815260089190911b82018301908381019087831115613b3057600080fd5b928401925b82841015613aaa576101008489031215613b4f5760008081fd5b613b57613717565b613b60856137ae565b8152613b6d868601613678565b868201526040613b7e818701613ab5565b908201526060613b8f868201613ab5565b908201526080613ba08682016137c6565b9082015260a0613bb18682016139bd565b9082015260c085810135600081810b8214613bca578081fd5b509082015260e0613bdc8682016139bd565b908201528252610100939093019290840190613b35565b7f4e487b7100000000000000000000000000000000000000000000000000000000600052601160045260246000fd5b600062ffffff821680613c3757613c37613bf3565b7fffffffffffffffffffffffffffffffffffffffffffffffffffffffffffffffff0192915050565b808202811582820484141761263d5761263d613bf3565b600060208284031215613c8857600080fd5b81518015158114613c9857600080fd5b9392505050565b8082018082111561263d5761263d613bf3565b7f4e487b7100000000000000000000000000000000000000000000000000000000600052603260045260246000fd5b60007fffffffffffffffffffffffffffffffffffffffffffffffffffffffffffffffff8203613d1257613d12613bf3565b5060010190565b81810360008312801583831316838312821617156139b6576139b6613bf3565b62ffffff8281168282160390808211156139b6576139b6613bf3565b6000604080830162ffffff861684526020828186015281865180845260609350838701915082880160005b82811015613de357815167ffffffffffffffff815116855273ffffffffffffffffffffffffffffffffffffffff86820151168686015287810151613dc6898701826138f8565b5086015160ff168487015260809093019290840190600101613d80565b50919998505050505050505050565b602080825282518282018190526000919060409081850190868401855b82811015613ebc57815167ffffffffffffffff815116855273ffffffffffffffffffffffffffffffffffffffff87820151168786015262ffffff868201511686860152606080820151613e688288018262ffffff169052565b5050608080820151613e7c828801826138f8565b505060a08181015160ff169086015260c080820151600081900b82880152505060e09081015160ff16908501526101009093019290850190600101613e0f565b5091979650505050505050565b8181038181111561263d5761263d613bf3565b7f4e487b7100000000000000000000000000000000000000000000000000000000600052601260045260246000fd5b600082613f1a57613f1a613edc565b500490565b600060208284031215613f3157600080fd5b5051919050565b60ff818116838216019081111561263d5761263d613bf3565b60408101613f5f82856138f8565b613c9860208301846138f8565b600381810b9083900b01637fffffff81137fffffffffffffffffffffffffffffffffffffffffffffffffffffffff800000008212171561263d5761263d613bf3565b67ffffffffffffffff8181168382160190808211156139b6576139b6613bf3565b600181815b8085111561402857817fffffffffffffffffffffffffffffffffffffffffffffffffffffffffffffffff0482111561400e5761400e613bf3565b8085161561401b57918102915b93841c9390800290613fd4565b509250929050565b60008261403f5750600161263d565b8161404c5750600061263d565b8160018114614062576002811461406c57614088565b600191505061263d565b60ff84111561407d5761407d613bf3565b50506001821b61263d565b5060208310610133831016604e8410600b84101617156140ab575081810a61263d565b6140b58383613fcf565b807fffffffffffffffffffffffffffffffffffffffffffffffffffffffffffffffff048211156140e7576140e7613bf3565b029392505050565b6000613c9860ff841683614030565b60ff81811683821602908116908181146139b6576139b6613bf3565b600060ff83168061412d5761412d613edc565b8060ff84160491505092915050565b6000613c988383614030565b600082810b9082900b037fffffffffffffffffffffffffffffffffffffffffffffffffffffffffffffff808112607f8213171561263d5761263d613bf3565b600081810b9083900b01607f81137fffffffffffffffffffffffffffffffffffffffffffffffffffffffffffffff808212171561263d5761263d613bf3565b60ff828116828216039081111561263d5761263d613bf3565b600060ff821660ff81036141f5576141f5613bf3565b60010192915050565b60008160000b7fffffffffffffffffffffffffffffffffffffffffffffffffffffffffffffff80810361423357614233613bf3565b60000392915050565b62ffffff8181168382160190808211156139b6576139b6613bf356fea2646970667358221220e33cfbc48ecc3f0ff58adc9dfa493bfb0c75240e8a03b37245863e8f7d80b08664736f6c63430008140033",
  "linkReferences": {},
  "deployedLinkReferences": {},
  "devdoc": {
    "errors": {
      "ReserveTooLow(uint256,uint256)": [
        {
          "params": {
            "expected": "amount required to proceed",
            "inReserve": "amount in reserver as the time of the call"
          }
        }
      ]
    },
    "events": {
      "CommitmentCancelled(address,uint24)": {
        "params": {
          "epoch": "epoch number on which this commit belongs to",
          "player": "account taking the staking risk (can be a different account than the one controlling the gems)"
        }
      },
      "CommitmentMade(address,uint24,bytes24)": {
        "params": {
          "commitmentHash": "the hash of moves",
          "epoch": "epoch number on which this commit belongs to",
          "player": "account taking the staking risk (can be a different account than the one controlling the gems)"
        }
      },
      "CommitmentRevealed(address,uint24,bytes24,(uint64,uint8)[],bytes24,uint256)": {
        "params": {
          "commitmentHash": "the hash of the moves",
          "epoch": "epoch number on which this commit belongs to",
          "furtherMoves": "hash of further moves, unless bytes32(0) which indicate end.",
          "moves": "the moves",
          "player": "account who commited"
        }
      },
      "CommitmentVoid(address,uint24,uint256,bytes24)": {
        "params": {
          "amountBurnt": "amount of token to burn",
          "epoch": "epoch number on which this commit belongs to",
          "furtherMoves": "hash of further moves, unless bytes32(0) which indicate end.",
          "player": "the account that made the commitment"
        }
      },
      "MoveProcessed(uint64,address,uint8,uint8)": {
        "params": {
          "newColor": "color that takes over",
          "oldColor": "previous color of the cell",
          "player": "account making the move",
          "position": "cell at which the move take place"
        }
      },
      "MultiPoke(uint24,uint64[])": {
        "params": {
          "epoch": "epoch number at which the poke take place",
          "positions": "cells to poke"
        }
      },
      "ReserveDeposited(address,uint256,uint256)": {
        "params": {
          "amountDeposited": "the number of tokens deposited",
          "newAmount": "the number of tokens in reserver as a result",
          "player": "account receiving the token in the reserve"
        }
      },
      "ReserveWithdrawn(address,uint256,uint256)": {
        "params": {
          "amountWithdrawn": "the number of tokens withdrawnn",
          "newAmount": "the number of tokens in reserver as a result",
          "player": "account withdrawing the tokens"
        }
      },
      "SinglePoke(uint24,uint64)": {
        "params": {
          "epoch": "epoch number at which the poke take place",
          "position": "cell to poke"
        }
      }
    },
    "kind": "dev",
    "methods": {},
    "version": 1
  },
  "evm": {
    "gasEstimates": {
      "creation": {
        "codeDepositCost": "3407600",
        "executionCost": "infinite",
        "totalCost": "infinite"
      },
      "external": {
        "forceCells((uint64,address,uint24,uint24,uint8,uint8,int8,uint8)[])": "infinite",
        "forceMoves(address,(uint64,uint8)[])": "infinite",
        "forceSimpleCells((uint64,address,uint8,uint8)[])": "infinite",
        "getRawCell(uint256)": "5484"
      },
      "internal": {
        "_getOwner()": "infinite",
        "_updateNeighbosrDelta(uint64,enum UsingStratagemsTypes.Color,uint24)": "infinite",
        "isEnemyOrFriend(enum UsingStratagemsTypes.Color,enum UsingStratagemsTypes.Color)": "242"
      }
    }
  },
  "storageLayout": {
    "storage": [
      {
        "astId": 13637,
        "contract": "src/game/debug/StratagemsDebug.sol:StratagemsDebug",
        "label": "_cells",
        "offset": 0,
        "slot": "0",
        "type": "t_mapping(t_uint256,t_struct(Cell)11286_storage)"
      },
      {
        "astId": 13641,
        "contract": "src/game/debug/StratagemsDebug.sol:StratagemsDebug",
        "label": "_owners",
        "offset": 0,
        "slot": "1",
        "type": "t_mapping(t_uint256,t_uint256)"
      },
      {
        "astId": 13645,
        "contract": "src/game/debug/StratagemsDebug.sol:StratagemsDebug",
        "label": "_tokensInReserve",
        "offset": 0,
        "slot": "2",
        "type": "t_mapping(t_address,t_uint256)"
      },
      {
        "astId": 13650,
        "contract": "src/game/debug/StratagemsDebug.sol:StratagemsDebug",
        "label": "_commitments",
        "offset": 0,
        "slot": "3",
        "type": "t_mapping(t_address,t_struct(Commitment)11291_storage)"
      },
      {
        "astId": 13656,
        "contract": "src/game/debug/StratagemsDebug.sol:StratagemsDebug",
        "label": "_operatorsForAll",
        "offset": 0,
        "slot": "4",
        "type": "t_mapping(t_address,t_mapping(t_address,t_bool))"
      },
      {
        "astId": 13660,
        "contract": "src/game/debug/StratagemsDebug.sol:StratagemsDebug",
        "label": "_operators",
        "offset": 0,
        "slot": "5",
        "type": "t_mapping(t_uint256,t_address)"
      }
    ],
    "types": {
      "t_address": {
        "encoding": "inplace",
        "label": "address",
        "numberOfBytes": "20"
      },
      "t_bool": {
        "encoding": "inplace",
        "label": "bool",
        "numberOfBytes": "1"
      },
      "t_bytes24": {
        "encoding": "inplace",
        "label": "bytes24",
        "numberOfBytes": "24"
      },
      "t_enum(Color)11208": {
        "encoding": "inplace",
        "label": "enum UsingStratagemsTypes.Color",
        "numberOfBytes": "1"
      },
      "t_int8": {
        "encoding": "inplace",
        "label": "int8",
        "numberOfBytes": "1"
      },
      "t_mapping(t_address,t_bool)": {
        "encoding": "mapping",
        "key": "t_address",
        "label": "mapping(address => bool)",
        "numberOfBytes": "32",
        "value": "t_bool"
      },
      "t_mapping(t_address,t_mapping(t_address,t_bool))": {
        "encoding": "mapping",
        "key": "t_address",
        "label": "mapping(address => mapping(address => bool))",
        "numberOfBytes": "32",
        "value": "t_mapping(t_address,t_bool)"
      },
      "t_mapping(t_address,t_struct(Commitment)11291_storage)": {
        "encoding": "mapping",
        "key": "t_address",
        "label": "mapping(address => struct UsingStratagemsTypes.Commitment)",
        "numberOfBytes": "32",
        "value": "t_struct(Commitment)11291_storage"
      },
      "t_mapping(t_address,t_uint256)": {
        "encoding": "mapping",
        "key": "t_address",
        "label": "mapping(address => uint256)",
        "numberOfBytes": "32",
        "value": "t_uint256"
      },
      "t_mapping(t_uint256,t_address)": {
        "encoding": "mapping",
        "key": "t_uint256",
        "label": "mapping(uint256 => address)",
        "numberOfBytes": "32",
        "value": "t_address"
      },
      "t_mapping(t_uint256,t_struct(Cell)11286_storage)": {
        "encoding": "mapping",
        "key": "t_uint256",
        "label": "mapping(uint256 => struct UsingStratagemsTypes.Cell)",
        "numberOfBytes": "32",
        "value": "t_struct(Cell)11286_storage"
      },
      "t_mapping(t_uint256,t_uint256)": {
        "encoding": "mapping",
        "key": "t_uint256",
        "label": "mapping(uint256 => uint256)",
        "numberOfBytes": "32",
        "value": "t_uint256"
      },
      "t_struct(Cell)11286_storage": {
        "encoding": "inplace",
        "label": "struct UsingStratagemsTypes.Cell",
        "members": [
          {
            "astId": 11270,
            "contract": "src/game/debug/StratagemsDebug.sol:StratagemsDebug",
            "label": "lastEpochUpdate",
            "offset": 0,
            "slot": "0",
            "type": "t_uint24"
          },
          {
            "astId": 11272,
            "contract": "src/game/debug/StratagemsDebug.sol:StratagemsDebug",
            "label": "epochWhenTokenIsAdded",
            "offset": 3,
            "slot": "0",
            "type": "t_uint24"
          },
          {
            "astId": 11275,
            "contract": "src/game/debug/StratagemsDebug.sol:StratagemsDebug",
            "label": "color",
            "offset": 6,
            "slot": "0",
            "type": "t_enum(Color)11208"
          },
          {
            "astId": 11277,
            "contract": "src/game/debug/StratagemsDebug.sol:StratagemsDebug",
            "label": "life",
            "offset": 7,
            "slot": "0",
            "type": "t_uint8"
          },
          {
            "astId": 11279,
            "contract": "src/game/debug/StratagemsDebug.sol:StratagemsDebug",
            "label": "delta",
            "offset": 8,
            "slot": "0",
            "type": "t_int8"
          },
          {
            "astId": 11281,
            "contract": "src/game/debug/StratagemsDebug.sol:StratagemsDebug",
            "label": "enemyMap",
            "offset": 9,
            "slot": "0",
            "type": "t_uint8"
          },
          {
            "astId": 11283,
            "contract": "src/game/debug/StratagemsDebug.sol:StratagemsDebug",
            "label": "distribution",
            "offset": 10,
            "slot": "0",
            "type": "t_uint8"
          },
          {
            "astId": 11285,
            "contract": "src/game/debug/StratagemsDebug.sol:StratagemsDebug",
            "label": "stake",
            "offset": 11,
            "slot": "0",
            "type": "t_uint8"
          }
        ],
        "numberOfBytes": "32"
      },
      "t_struct(Commitment)11291_storage": {
        "encoding": "inplace",
        "label": "struct UsingStratagemsTypes.Commitment",
        "members": [
          {
            "astId": 11288,
            "contract": "src/game/debug/StratagemsDebug.sol:StratagemsDebug",
            "label": "hash",
            "offset": 0,
            "slot": "0",
            "type": "t_bytes24"
          },
          {
            "astId": 11290,
            "contract": "src/game/debug/StratagemsDebug.sol:StratagemsDebug",
            "label": "epoch",
            "offset": 24,
            "slot": "0",
            "type": "t_uint24"
          }
        ],
        "numberOfBytes": "32"
      },
      "t_uint24": {
        "encoding": "inplace",
        "label": "uint24",
        "numberOfBytes": "3"
      },
      "t_uint256": {
        "encoding": "inplace",
        "label": "uint256",
        "numberOfBytes": "32"
      },
      "t_uint8": {
        "encoding": "inplace",
        "label": "uint8",
        "numberOfBytes": "1"
      }
    }
  },
  "userdoc": {
    "errors": {
      "CanStillReveal()": [
        {
          "notice": "Player have to reveal if they can Stratagems will prevent them from acknowledging missed reveal if there is still time to reveal."
        }
      ],
      "CommitmentHashNotMatching()": [
        {
          "notice": "Player have to reveal their commitment using the exact same move values  If they provide different value, the commitment hash will differ and Stratagems will reject their reveal."
        }
      ],
      "GameNotStarted()": [
        {
          "notice": "Game has not started yet, can't perform any action"
        }
      ],
      "InCommitmentPhase()": [
        {
          "notice": "When in Commit phase, player can make new commitment but they cannot reveal their move yet."
        }
      ],
      "InRevealPhase()": [
        {
          "notice": "When in Reveal phase, it is not possible to commit new moves or cancel previous commitment  During Reveal phase, players have to reveal their commitment, if not already done."
        }
      ],
      "InvalidEpoch()": [
        {
          "notice": "Player can only reveal their move in the same epoch they commited.abi  If a player reveal later it can only do to minimize the reserve burn cost by calling : `acknowledgeMissedReveal`"
        }
      ],
      "InvalidFurtherMoves()": [
        {
          "notice": "Player can make arbitrary number of moves per epoch. To do so they group moves into (MAX_NUM_MOVES_PER_HASH = 32) moves  This result in a recursive series of hash that they can then submit in turn while revealing.  The limit  (MAX_NUM_MOVES_PER_HASH = 32) ensure a reveal batch fits in a block."
        }
      ],
      "NotAuthorized()": [
        {
          "notice": "Not authorized to perform this operation"
        }
      ],
      "NothingToReveal()": [
        {
          "notice": "Player can only reveal moves they commited."
        }
      ],
      "PreviousCommitmentNotRevealed()": [
        {
          "notice": "Previous commitment need to be revealed before making a new one. Even if the corresponding reveal phase has passed.\\  It is also not possible to withdraw any amount from reserve until the commitment is revealed.\\If player lost the information to reveal, it can acknowledge failure which will burn all its reserve.\\"
        }
      ],
      "ReserveTooLow(uint256,uint256)": [
        {
          "notice": "to make a commitment you always need at least one `config.numTokensPerGems` amount in reserve  Player also need one `config.numTokensPerGems`  per moves during the Reveal phase."
        }
      ]
    },
    "events": {
      "CommitmentCancelled(address,uint24)": {
        "notice": "A player has cancelled its current commitment (before it reached the reveal phase)"
      },
      "CommitmentMade(address,uint24,bytes24)": {
        "notice": "A player has commited to make a move and reveal it on the reveal phase"
      },
      "CommitmentRevealed(address,uint24,bytes24,(uint64,uint8)[],bytes24,uint256)": {
        "notice": "Player has revealed its previous commitment"
      },
      "CommitmentVoid(address,uint24,uint256,bytes24)": {
        "notice": "A player has canceled a previous commitment by burning some tokens"
      },
      "MoveProcessed(uint64,address,uint8,uint8)": {
        "notice": "A move has been revealed."
      },
      "MultiPoke(uint24,uint64[])": {
        "notice": "poke multiple cells and update them if needed"
      },
      "ReserveDeposited(address,uint256,uint256)": {
        "notice": "Player has deposited token in the reserve, allowing it to use that much in game"
      },
      "ReserveWithdrawn(address,uint256,uint256)": {
        "notice": "Player have withdrawn token from the reserve"
      },
      "SinglePoke(uint24,uint64)": {
        "notice": "poke cell and update it if needed"
      }
    },
    "kind": "user",
    "methods": {},
    "version": 1
  },
  "argsData": "0x000000000000000000000000460f3da794060fee095d551f3d788a4d38b7ac09000000000000000000000000deaddeaddeaddeaddeaddeaddeaddeaddeaddead0000000000000000000000000000000000000000000000000000000000000000000000000000000000000000000000000000000000000000000000000000012c00000000000000000000000000000000000000000000000000000000000000b400000000000000000000000000000000000000000000000000000000000000070000000000000000000000000000000000000000000000000de0b6b3a76400000000000000000000000000000000000000000000000000000000000000000000",
  "transaction": {
    "hash": "0xeae83a2f820932ab4c31e783a166484da8dc2c62aa6b68ff93090c7e300c9811",
    "origin": "0x61c461ecc993aadeb7e4b47e96d1b8cc37314b20"
  }
}