{
  "address": "0x460f3da794060fee095d551f3d788a4d38b7ac09",
  "abi": [
    {
      "inputs": [
        {
          "internalType": "address",
          "name": "to",
          "type": "address"
        },
        {
          "internalType": "uint256",
          "name": "amount",
          "type": "uint256"
        },
        {
          "components": [
            {
              "internalType": "address",
              "name": "admin",
              "type": "address"
            }
          ],
          "internalType": "struct TestTokens.Config",
          "name": "initialConfig",
          "type": "tuple"
        }
      ],
      "stateMutability": "nonpayable",
      "type": "constructor"
    },
    {
      "inputs": [
        {
          "internalType": "uint256",
          "name": "currentTime",
          "type": "uint256"
        },
        {
          "internalType": "uint256",
          "name": "deadline",
          "type": "uint256"
        }
      ],
      "name": "DeadlineOver",
      "type": "error"
    },
    {
      "inputs": [
        {
          "internalType": "address",
          "name": "addr",
          "type": "address"
        }
      ],
      "name": "InvalidAddress",
      "type": "error"
    },
    {
      "inputs": [
        {
          "internalType": "uint256",
          "name": "provided",
          "type": "uint256"
        },
        {
          "internalType": "uint256",
          "name": "expected",
          "type": "uint256"
        }
      ],
      "name": "InvalidMsgValue",
      "type": "error"
    },
    {
      "inputs": [],
      "name": "InvalidSignature",
      "type": "error"
    },
    {
      "inputs": [
        {
          "internalType": "uint256",
          "name": "provided",
          "type": "uint256"
        },
        {
          "internalType": "uint256",
          "name": "expected",
          "type": "uint256"
        }
      ],
      "name": "InvalidTotalAmount",
      "type": "error"
    },
    {
      "inputs": [],
      "name": "NotAuthorized",
      "type": "error"
    },
    {
      "inputs": [
        {
          "internalType": "uint256",
          "name": "currentAllowance",
          "type": "uint256"
        },
        {
          "internalType": "uint256",
          "name": "expected",
          "type": "uint256"
        }
      ],
      "name": "NotAuthorizedAllowance",
      "type": "error"
    },
    {
      "inputs": [
        {
          "internalType": "uint256",
          "name": "currentBalance",
          "type": "uint256"
        },
        {
          "internalType": "uint256",
          "name": "expected",
          "type": "uint256"
        }
      ],
      "name": "NotEnoughTokens",
      "type": "error"
    },
    {
      "anonymous": false,
      "inputs": [
        {
          "indexed": true,
          "internalType": "address",
          "name": "owner",
          "type": "address"
        },
        {
          "indexed": true,
          "internalType": "address",
          "name": "spender",
          "type": "address"
        },
        {
          "indexed": false,
          "internalType": "uint256",
          "name": "value",
          "type": "uint256"
        }
      ],
      "name": "Approval",
      "type": "event"
    },
    {
      "anonymous": false,
      "inputs": [
        {
          "indexed": true,
          "internalType": "address",
          "name": "account",
          "type": "address"
        },
        {
          "indexed": false,
          "internalType": "bool",
          "name": "authorized",
          "type": "bool"
        }
      ],
      "name": "MinterAuthorized",
      "type": "event"
    },
    {
      "anonymous": false,
      "inputs": [
        {
          "indexed": true,
          "internalType": "address",
          "name": "from",
          "type": "address"
        },
        {
          "indexed": true,
          "internalType": "address",
          "name": "to",
          "type": "address"
        },
        {
          "indexed": false,
          "internalType": "uint256",
          "name": "value",
          "type": "uint256"
        }
      ],
      "name": "Transfer",
      "type": "event"
    },
    {
      "inputs": [],
      "name": "DOMAIN_SEPARATOR",
      "outputs": [
        {
          "internalType": "bytes32",
          "name": "",
          "type": "bytes32"
        }
      ],
      "stateMutability": "view",
      "type": "function"
    },
    {
      "inputs": [
        {
          "internalType": "address",
          "name": "owner",
          "type": "address"
        },
        {
          "internalType": "address",
          "name": "spender",
          "type": "address"
        }
      ],
      "name": "allowance",
      "outputs": [
        {
          "internalType": "uint256",
          "name": "",
          "type": "uint256"
        }
      ],
      "stateMutability": "view",
      "type": "function"
    },
    {
      "inputs": [
        {
          "internalType": "address",
          "name": "spender",
          "type": "address"
        },
        {
          "internalType": "uint256",
          "name": "amount",
          "type": "uint256"
        }
      ],
      "name": "approve",
      "outputs": [
        {
          "internalType": "bool",
          "name": "",
          "type": "bool"
        }
      ],
      "stateMutability": "nonpayable",
      "type": "function"
    },
    {
      "inputs": [
        {
          "internalType": "address",
          "name": "spender",
          "type": "address"
        },
        {
          "internalType": "uint256",
          "name": "amount",
          "type": "uint256"
        },
        {
          "internalType": "bytes",
          "name": "data",
          "type": "bytes"
        }
      ],
      "name": "approveAndCall",
      "outputs": [
        {
          "internalType": "bool",
          "name": "",
          "type": "bool"
        }
      ],
      "stateMutability": "nonpayable",
      "type": "function"
    },
    {
      "inputs": [
        {
          "internalType": "address[]",
          "name": "accounts",
          "type": "address[]"
        },
        {
          "internalType": "bool",
          "name": "authorized",
          "type": "bool"
        }
      ],
      "name": "authorizeMinters",
      "outputs": [],
      "stateMutability": "nonpayable",
      "type": "function"
    },
    {
      "inputs": [
        {
          "internalType": "address",
          "name": "",
          "type": "address"
        }
      ],
      "name": "authorizedMinters",
      "outputs": [
        {
          "internalType": "bool",
          "name": "",
          "type": "bool"
        }
      ],
      "stateMutability": "view",
      "type": "function"
    },
    {
      "inputs": [
        {
          "internalType": "address",
          "name": "owner",
          "type": "address"
        }
      ],
      "name": "balanceOf",
      "outputs": [
        {
          "internalType": "uint256",
          "name": "",
          "type": "uint256"
        }
      ],
      "stateMutability": "view",
      "type": "function"
    },
    {
      "inputs": [],
      "name": "config",
      "outputs": [
        {
          "internalType": "address",
          "name": "admin",
          "type": "address"
        }
      ],
      "stateMutability": "view",
      "type": "function"
    },
    {
      "inputs": [],
      "name": "decimals",
      "outputs": [
        {
          "internalType": "uint8",
          "name": "",
          "type": "uint8"
        }
      ],
      "stateMutability": "pure",
      "type": "function"
    },
    {
      "inputs": [
        {
          "internalType": "address payable[]",
          "name": "tos",
          "type": "address[]"
        },
        {
          "internalType": "uint256",
          "name": "totalAmount",
          "type": "uint256"
        }
      ],
      "name": "distributeAlongWithETH",
      "outputs": [
        {
          "internalType": "bool",
          "name": "",
          "type": "bool"
        }
      ],
      "stateMutability": "payable",
      "type": "function"
    },
    {
      "inputs": [],
      "name": "eip712Domain",
      "outputs": [
        {
          "internalType": "bytes1",
          "name": "fields",
          "type": "bytes1"
        },
        {
          "internalType": "string",
          "name": "name",
          "type": "string"
        },
        {
          "internalType": "string",
          "name": "version",
          "type": "string"
        },
        {
          "internalType": "uint256",
          "name": "chainID",
          "type": "uint256"
        },
        {
          "internalType": "address",
          "name": "verifyingContract",
          "type": "address"
        },
        {
          "internalType": "bytes32",
          "name": "salt",
          "type": "bytes32"
        },
        {
          "internalType": "uint256[]",
          "name": "extensions",
          "type": "uint256[]"
        }
      ],
      "stateMutability": "view",
      "type": "function"
    },
    {
      "inputs": [
        {
          "internalType": "address",
          "name": "to",
          "type": "address"
        },
        {
          "internalType": "uint256",
          "name": "amount",
          "type": "uint256"
        }
      ],
      "name": "mint",
      "outputs": [],
      "stateMutability": "nonpayable",
      "type": "function"
    },
    {
      "inputs": [],
      "name": "name",
      "outputs": [
        {
          "internalType": "string",
          "name": "",
          "type": "string"
        }
      ],
      "stateMutability": "pure",
      "type": "function"
    },
    {
      "inputs": [
        {
          "internalType": "address",
          "name": "owner",
          "type": "address"
        }
      ],
      "name": "nonces",
      "outputs": [
        {
          "internalType": "uint256",
          "name": "",
          "type": "uint256"
        }
      ],
      "stateMutability": "view",
      "type": "function"
    },
    {
      "inputs": [
        {
          "internalType": "address",
          "name": "owner",
          "type": "address"
        },
        {
          "internalType": "address",
          "name": "spender",
          "type": "address"
        },
        {
          "internalType": "uint256",
          "name": "value",
          "type": "uint256"
        },
        {
          "internalType": "uint256",
          "name": "deadline",
          "type": "uint256"
        },
        {
          "internalType": "uint8",
          "name": "v",
          "type": "uint8"
        },
        {
          "internalType": "bytes32",
          "name": "r",
          "type": "bytes32"
        },
        {
          "internalType": "bytes32",
          "name": "s",
          "type": "bytes32"
        }
      ],
      "name": "permit",
      "outputs": [],
      "stateMutability": "nonpayable",
      "type": "function"
    },
    {
      "inputs": [
        {
          "components": [
            {
              "internalType": "address",
              "name": "admin",
              "type": "address"
            }
          ],
          "internalType": "struct TestTokens.Config",
          "name": "newConfig",
          "type": "tuple"
        }
      ],
      "name": "setConfig",
      "outputs": [],
      "stateMutability": "nonpayable",
      "type": "function"
    },
    {
      "inputs": [],
      "name": "symbol",
      "outputs": [
        {
          "internalType": "string",
          "name": "",
          "type": "string"
        }
      ],
      "stateMutability": "view",
      "type": "function"
    },
    {
      "inputs": [],
      "name": "totalSupply",
      "outputs": [
        {
          "internalType": "uint256",
          "name": "",
          "type": "uint256"
        }
      ],
      "stateMutability": "view",
      "type": "function"
    },
    {
      "inputs": [
        {
          "internalType": "address",
          "name": "to",
          "type": "address"
        },
        {
          "internalType": "uint256",
          "name": "amount",
          "type": "uint256"
        }
      ],
      "name": "transfer",
      "outputs": [
        {
          "internalType": "bool",
          "name": "",
          "type": "bool"
        }
      ],
      "stateMutability": "nonpayable",
      "type": "function"
    },
    {
      "inputs": [
        {
          "internalType": "address payable",
          "name": "to",
          "type": "address"
        },
        {
          "internalType": "uint256",
          "name": "amount",
          "type": "uint256"
        }
      ],
      "name": "transferAlongWithETH",
      "outputs": [
        {
          "internalType": "bool",
          "name": "",
          "type": "bool"
        }
      ],
      "stateMutability": "payable",
      "type": "function"
    },
    {
      "inputs": [
        {
          "internalType": "address",
          "name": "to",
          "type": "address"
        },
        {
          "internalType": "uint256",
          "name": "amount",
          "type": "uint256"
        },
        {
          "internalType": "bytes",
          "name": "data",
          "type": "bytes"
        }
      ],
      "name": "transferAndCall",
      "outputs": [
        {
          "internalType": "bool",
          "name": "",
          "type": "bool"
        }
      ],
      "stateMutability": "nonpayable",
      "type": "function"
    },
    {
      "inputs": [
        {
          "internalType": "address",
          "name": "from",
          "type": "address"
        },
        {
          "internalType": "address",
          "name": "to",
          "type": "address"
        },
        {
          "internalType": "uint256",
          "name": "amount",
          "type": "uint256"
        }
      ],
      "name": "transferFrom",
      "outputs": [
        {
          "internalType": "bool",
          "name": "",
          "type": "bool"
        }
      ],
      "stateMutability": "nonpayable",
      "type": "function"
    },
    {
      "inputs": [
        {
          "internalType": "address",
          "name": "from",
          "type": "address"
        },
        {
          "internalType": "address",
          "name": "to",
          "type": "address"
        },
        {
          "internalType": "uint256",
          "name": "amount",
          "type": "uint256"
        },
        {
          "internalType": "bytes",
          "name": "data",
          "type": "bytes"
        }
      ],
      "name": "transferFromAndCall",
      "outputs": [
        {
          "internalType": "bool",
          "name": "",
          "type": "bool"
        }
      ],
      "stateMutability": "nonpayable",
      "type": "function"
    },
    {
      "inputs": [
        {
          "internalType": "address",
          "name": "forAddress",
          "type": "address"
        },
        {
          "internalType": "address",
          "name": "to",
          "type": "address"
        },
        {
          "internalType": "uint256",
          "name": "amount",
          "type": "uint256"
        },
        {
          "internalType": "bytes",
          "name": "data",
          "type": "bytes"
        }
      ],
      "name": "transferOnBehalfAndCall",
      "outputs": [
        {
          "internalType": "bool",
          "name": "",
          "type": "bool"
        }
      ],
      "stateMutability": "nonpayable",
      "type": "function"
    }
  ],
  "contractName": "TestTokens",
  "sourceName": "src/test/TestTokens.sol",
  "bytecode": "0x60e06040523480156200001157600080fd5b50604051620020ba380380620020ba83398101604081905262000034916200025c565b4660808190523090819081156200004c57816200004e565b305b6001600160a01b031660c081905262000069908290620000b4565b60a05250508151600480546001600160a01b0319166001600160a01b03909216919091179055506200009c838362000154565b8051620000ab906001620001e0565b5050506200030e565b60007f8cad95687ba82c2ce50e74f7b754645e5117c3a5bec8151c0726d5857980a866620000fb604080518082019091526006815265546f6b656e7360d01b602082015290565b80516020918201206040516200013593928791879101938452602084019290925260408301526001600160a01b0316606082015260800190565b6040516020818303038152906040528051906020012090505b92915050565b80600080828254620001679190620002ec565b90915550506001600160a01b0382166000908152600160205260408120805483929062000196908490620002ec565b90915550506040518181526001600160a01b038316906000907fddf252ad1be2c89b69c2b068fc378daa952ba7f163c4a11628f55a4df523b3ef9060200160405180910390a35050565b6001600160a01b038216600081815260056020908152604091829020805460ff191685151590811790915591519182527f9041c22ed79d1c19c69cc22fd9e38c93da4f2dd8cd32580594e232a8a18541cb910160405180910390a25050565b80516001600160a01b03811681146200025757600080fd5b919050565b600080600083850360608112156200027357600080fd5b6200027e856200023f565b9350602085015192506020603f19820112156200029a57600080fd5b50604051602081016001600160401b0381118282101715620002cc57634e487b7160e01b600052604160045260246000fd5b8060405250620002df604086016200023f565b8152809150509250925092565b808201808211156200014e57634e487b7160e01b600052601160045260246000fd5b60805160a05160c051611d7562000345600039600081816109e0015261130601526000611331015260006112db0152611d756000f3fe60806040526004361061018b5760003560e01c806379502c55116100d6578063aa2fe91b1161007f578063d505accf11610059578063d505accf14610516578063dd62ed3e14610536578063e7fcb0651461055657600080fd5b8063aa2fe91b146104a6578063c1d34b89146104d6578063cae9ca51146104f657600080fd5b806390436038116100b0578063904360381461041d57806395d89b411461043d578063a9059cbb1461048657600080fd5b806379502c55146103605780637ecebe00146103b257806384b0196e146103f557600080fd5b80633644e515116101385780634742805a116101125780634742805a146102dd57806365520efa146102fd57806370a082311461031d57600080fd5b80633644e515146102865780634000aea01461029b57806340c10f19146102bb57600080fd5b806318160ddd1161016957806318160ddd1461022b57806323b872dd1461024a578063313ce5671461026a57600080fd5b806306fdde0314610190578063095ea7b3146101e85780630e02df5414610218575b600080fd5b34801561019c57600080fd5b5060408051808201909152600681527f546f6b656e73000000000000000000000000000000000000000000000000000060208201525b6040516101df91906115e4565b60405180910390f35b3480156101f457600080fd5b50610208610203366004611623565b610569565b60405190151581526020016101df565b6102086102263660046116cd565b610580565b34801561023757600080fd5b506000545b6040519081526020016101df565b34801561025657600080fd5b50610208610265366004611785565b610713565b34801561027657600080fd5b50604051601281526020016101df565b34801561029257600080fd5b5061023c61072a565b3480156102a757600080fd5b506102086102b636600461180f565b610734565b3480156102c757600080fd5b506102db6102d6366004611623565b6107e5565b005b3480156102e957600080fd5b506102db6102f836600461186b565b61083c565b34801561030957600080fd5b506102086103183660046118b7565b6108d4565b34801561032957600080fd5b5061023c61033836600461192a565b73ffffffffffffffffffffffffffffffffffffffff1660009081526001602052604090205490565b34801561036c57600080fd5b5060045461038d9073ffffffffffffffffffffffffffffffffffffffff1681565b60405173ffffffffffffffffffffffffffffffffffffffff90911681526020016101df565b3480156103be57600080fd5b5061023c6103cd36600461192a565b73ffffffffffffffffffffffffffffffffffffffff1660009081526003602052604090205490565b34801561040157600080fd5b5061040a610988565b6040516101df9796959493929190611947565b34801561042957600080fd5b506102db610438366004611a14565b610a0a565b34801561044957600080fd5b506101d26040518060400160405280600581526020017f544f4b454e00000000000000000000000000000000000000000000000000000081525081565b34801561049257600080fd5b506102086104a1366004611623565b610aae565b3480156104b257600080fd5b506102086104c136600461192a565b60056020526000908152604090205460ff1681565b3480156104e257600080fd5b506102086104f13660046118b7565b610abb565b34801561050257600080fd5b5061020861051136600461180f565b610b20565b34801561052257600080fd5b506102db610531366004611a9a565b610b83565b34801561054257600080fd5b5061023c610551366004611b11565b610e4c565b610208610564366004611623565b610ecb565b6000610576338484610f1a565b5060015b92915050565b6000808351346105909190611b79565b905083518161059f9190611bb4565b34146105f357348451826105b39190611bb4565b6040517f1f89f671000000000000000000000000000000000000000000000000000000008152600481019290925260248201526044015b60405180910390fd5b60008451846106029190611b79565b90508451816106119190611bb4565b841461066057838551826106259190611bb4565b6040517fe93890a2000000000000000000000000000000000000000000000000000000008152600481019290925260248201526044016105ea565b60005b8551811015610702576106903387838151811061068257610682611bcb565b602002602001015184610ff9565b8581815181106106a2576106a2611bcb565b602002602001015173ffffffffffffffffffffffffffffffffffffffff166108fc849081150290604051600060405180830381858888f193505050501580156106ef573d6000803e3d6000fd5b50806106fa81611bfa565b915050610663565b50600195945050505050565b905090565b60006107208484846111ab565b5060019392505050565b600061070e6112d6565b6000610741338686610ff9565b6040517fa4c0ed3600000000000000000000000000000000000000000000000000000000815273ffffffffffffffffffffffffffffffffffffffff86169063a4c0ed3690610799903390889088908890600401611c7b565b6020604051808303816000875af11580156107b8573d6000803e3d6000fd5b505050506040513d601f19601f820116820180604052508101906107dc9190611cb1565b95945050505050565b3360009081526005602052604090205460ff1661082e576040517fea8e4eb500000000000000000000000000000000000000000000000000000000815260040160405180910390fd5b6108388282611357565b5050565b60045473ffffffffffffffffffffffffffffffffffffffff16331461088d576040517fea8e4eb500000000000000000000000000000000000000000000000000000000815260040160405180910390fd5b51600480547fffffffffffffffffffffffff00000000000000000000000000000000000000001673ffffffffffffffffffffffffffffffffffffffff909216919091179055565b60006108e1338686610ff9565b6040517f2eedcb7100000000000000000000000000000000000000000000000000000000815273ffffffffffffffffffffffffffffffffffffffff861690632eedcb719061093b9033908a90899089908990600401611cce565b6020604051808303816000875af115801561095a573d6000803e3d6000fd5b505050506040513d601f19601f8201168201806040525081019061097e9190611cb1565b9695505050505050565b7f0d0000000000000000000000000000000000000000000000000000000000000060608060008080836109b96113f9565b604080516020808201835260008083528351818152918201909352999a92999098504697507f0000000000000000000000000000000000000000000000000000000000000000965090945092509050565b60045473ffffffffffffffffffffffffffffffffffffffff163314610a5b576040517fea8e4eb500000000000000000000000000000000000000000000000000000000815260040160405180910390fd5b60005b82811015610aa857610a96848483818110610a7b57610a7b611bcb565b9050602002016020810190610a90919061192a565b83611435565b80610aa081611bfa565b915050610a5e565b50505050565b6000610576338484610ff9565b6000610ac88686866111ab565b6040517fa4c0ed3600000000000000000000000000000000000000000000000000000000815273ffffffffffffffffffffffffffffffffffffffff86169063a4c0ed369061093b908990889088908890600401611c7b565b6000610b2d338686610f1a565b6040517eba451f00000000000000000000000000000000000000000000000000000000815273ffffffffffffffffffffffffffffffffffffffff86169062ba451f90610799903390889088908890600401611c7b565b73ffffffffffffffffffffffffffffffffffffffff8716610bd3576040517f8e4c8aa6000000000000000000000000000000000000000000000000000000008152600060048201526024016105ea565b73ffffffffffffffffffffffffffffffffffffffff871660009081526003602052604081205490610c0261072a565b604080517f6e71edae12b1b97f4d1f60370fef10105fa2faae0126114a169c64845d6126c9602082015273ffffffffffffffffffffffffffffffffffffffff808d1692820192909252908a1660608201526080810189905260a0810184905260c0810188905260e00160405160208183030381529060405280519060200120604051602001610cc39291907f190100000000000000000000000000000000000000000000000000000000000081526002810192909252602282015260420190565b604080517fffffffffffffffffffffffffffffffffffffffffffffffffffffffffffffffe081840301815282825280516020918201206000845290830180835281905260ff8816918301919091526060820186905260808201859052915060019060a0016020604051602081039080840390855afa158015610d49573d6000803e3d6000fd5b5050506020604051035173ffffffffffffffffffffffffffffffffffffffff168973ffffffffffffffffffffffffffffffffffffffff1614610db7576040517f8baa579f00000000000000000000000000000000000000000000000000000000815260040160405180910390fd5b8515801590610dc557508542115b15610e05576040517fdd6b219a000000000000000000000000000000000000000000000000000000008152426004820152602481018790526044016105ea565b610e10826001611d19565b73ffffffffffffffffffffffffffffffffffffffff8a16600090815260036020526040902055610e41898989610f1a565b505050505050505050565b60003073ffffffffffffffffffffffffffffffffffffffff841603610e9257507fffffffffffffffffffffffffffffffffffffffffffffffffffffffffffffffff61057a565b5073ffffffffffffffffffffffffffffffffffffffff918216600090815260026020908152604080832093909416825291909152205490565b6000610ed8338484610ff9565b60405173ffffffffffffffffffffffffffffffffffffffff8416903480156108fc02916000818181858888f19350505050158015610720573d6000803e3d6000fd5b73ffffffffffffffffffffffffffffffffffffffff83161580610f51575073ffffffffffffffffffffffffffffffffffffffff8216155b15610f8b576040517f8e4c8aa6000000000000000000000000000000000000000000000000000000008152600060048201526024016105ea565b73ffffffffffffffffffffffffffffffffffffffff83811660008181526002602090815260408083209487168084529482529182902085905590518481527f8c5be1e5ebec7d5bd14f71427d1e84f3dd0314c0f7b2291e5b200ac8c7c3b925910160405180910390a3505050565b73ffffffffffffffffffffffffffffffffffffffff82161580611031575073ffffffffffffffffffffffffffffffffffffffff821630145b15611080576040517f8e4c8aa600000000000000000000000000000000000000000000000000000000815273ffffffffffffffffffffffffffffffffffffffff831660048201526024016105ea565b73ffffffffffffffffffffffffffffffffffffffff8316600090815260016020526040902054818110156110ea576040517f6584853f00000000000000000000000000000000000000000000000000000000815260048101829052602481018390526044016105ea565b6110f48282611d2c565b73ffffffffffffffffffffffffffffffffffffffff8086166000908152600160205260408082209390935590851681529081208054849290611137908490611d19565b925050819055508273ffffffffffffffffffffffffffffffffffffffff168473ffffffffffffffffffffffffffffffffffffffff167fddf252ad1be2c89b69c2b068fc378daa952ba7f163c4a11628f55a4df523b3ef8460405161119d91815260200190565b60405180910390a350505050565b3373ffffffffffffffffffffffffffffffffffffffff8416148015906111e7575073ffffffffffffffffffffffffffffffffffffffff83163014155b156112c65773ffffffffffffffffffffffffffffffffffffffff831660009081526002602090815260408083203384529091529020547fffffffffffffffffffffffffffffffffffffffffffffffffffffffffffffffff81146112c45781811015611288576040517f95fcd25400000000000000000000000000000000000000000000000000000000815260048101829052602481018390526044016105ea565b6112928282611d2c565b73ffffffffffffffffffffffffffffffffffffffff851660009081526002602090815260408083203384529091529020555b505b6112d1838383610ff9565b505050565b6000467f0000000000000000000000000000000000000000000000000000000000000000811461132f5761132a817f00000000000000000000000000000000000000000000000000000000000000006114bf565b611351565b7f00000000000000000000000000000000000000000000000000000000000000005b91505090565b806000808282546113689190611d19565b909155505073ffffffffffffffffffffffffffffffffffffffff8216600090815260016020526040812080548392906113a2908490611d19565b909155505060405181815273ffffffffffffffffffffffffffffffffffffffff8316906000907fddf252ad1be2c89b69c2b068fc378daa952ba7f163c4a11628f55a4df523b3ef9060200160405180910390a35050565b606061070e60408051808201909152600681527f546f6b656e730000000000000000000000000000000000000000000000000000602082015290565b73ffffffffffffffffffffffffffffffffffffffff821660008181526005602090815260409182902080547fffffffffffffffffffffffffffffffffffffffffffffffffffffffffffffff001685151590811790915591519182527f9041c22ed79d1c19c69cc22fd9e38c93da4f2dd8cd32580594e232a8a18541cb910160405180910390a25050565b60007f8cad95687ba82c2ce50e74f7b754645e5117c3a5bec8151c0726d5857980a86661151c60408051808201909152600681527f546f6b656e730000000000000000000000000000000000000000000000000000602082015290565b8051602091820120604051611562939287918791019384526020840192909252604083015273ffffffffffffffffffffffffffffffffffffffff16606082015260800190565b60405160208183030381529060405280519060200120905092915050565b6000815180845260005b818110156115a65760208185018101518683018201520161158a565b5060006020828601015260207fffffffffffffffffffffffffffffffffffffffffffffffffffffffffffffffe0601f83011685010191505092915050565b6020815260006115f76020830184611580565b9392505050565b73ffffffffffffffffffffffffffffffffffffffff8116811461162057600080fd5b50565b6000806040838503121561163657600080fd5b8235611641816115fe565b946020939093013593505050565b7f4e487b7100000000000000000000000000000000000000000000000000000000600052604160045260246000fd5b604051601f82017fffffffffffffffffffffffffffffffffffffffffffffffffffffffffffffffe016810167ffffffffffffffff811182821017156116c5576116c561164f565b604052919050565b600080604083850312156116e057600080fd5b823567ffffffffffffffff808211156116f857600080fd5b818501915085601f83011261170c57600080fd5b81356020828211156117205761172061164f565b8160051b925061173181840161167e565b828152928401810192818101908985111561174b57600080fd5b948201945b848610156117755785359350611765846115fe565b8382529482019490820190611750565b9997909101359750505050505050565b60008060006060848603121561179a57600080fd5b83356117a5816115fe565b925060208401356117b5816115fe565b929592945050506040919091013590565b60008083601f8401126117d857600080fd5b50813567ffffffffffffffff8111156117f057600080fd5b60208301915083602082850101111561180857600080fd5b9250929050565b6000806000806060858703121561182557600080fd5b8435611830816115fe565b935060208501359250604085013567ffffffffffffffff81111561185357600080fd5b61185f878288016117c6565b95989497509550505050565b60006020828403121561187d57600080fd5b6040516020810181811067ffffffffffffffff821117156118a0576118a061164f565b60405282356118ae816115fe565b81529392505050565b6000806000806000608086880312156118cf57600080fd5b85356118da816115fe565b945060208601356118ea816115fe565b935060408601359250606086013567ffffffffffffffff81111561190d57600080fd5b611919888289016117c6565b969995985093965092949392505050565b60006020828403121561193c57600080fd5b81356115f7816115fe565b7fff00000000000000000000000000000000000000000000000000000000000000881681526000602060e08184015261198360e084018a611580565b8381036040850152611995818a611580565b6060850189905273ffffffffffffffffffffffffffffffffffffffff8816608086015260a0850187905284810360c0860152855180825283870192509083019060005b818110156119f4578351835292840192918401916001016119d8565b50909c9b505050505050505050505050565b801515811461162057600080fd5b600080600060408486031215611a2957600080fd5b833567ffffffffffffffff80821115611a4157600080fd5b818601915086601f830112611a5557600080fd5b813581811115611a6457600080fd5b8760208260051b8501011115611a7957600080fd5b60209283019550935050840135611a8f81611a06565b809150509250925092565b600080600080600080600060e0888a031215611ab557600080fd5b8735611ac0816115fe565b96506020880135611ad0816115fe565b95506040880135945060608801359350608088013560ff81168114611af457600080fd5b9699959850939692959460a0840135945060c09093013592915050565b60008060408385031215611b2457600080fd5b8235611b2f816115fe565b91506020830135611b3f816115fe565b809150509250929050565b7f4e487b7100000000000000000000000000000000000000000000000000000000600052601160045260246000fd5b600082611baf577f4e487b7100000000000000000000000000000000000000000000000000000000600052601260045260246000fd5b500490565b808202811582820484141761057a5761057a611b4a565b7f4e487b7100000000000000000000000000000000000000000000000000000000600052603260045260246000fd5b60007fffffffffffffffffffffffffffffffffffffffffffffffffffffffffffffffff8203611c2b57611c2b611b4a565b5060010190565b8183528181602085013750600060208284010152600060207fffffffffffffffffffffffffffffffffffffffffffffffffffffffffffffffe0601f840116840101905092915050565b73ffffffffffffffffffffffffffffffffffffffff8516815283602082015260606040820152600061097e606083018486611c32565b600060208284031215611cc357600080fd5b81516115f781611a06565b600073ffffffffffffffffffffffffffffffffffffffff808816835280871660208401525084604083015260806060830152611d0e608083018486611c32565b979650505050505050565b8082018082111561057a5761057a611b4a565b8181038181111561057a5761057a611b4a56fea2646970667358221220a081d75e234fd8d4ff7dd0b6aefbc0854846a21a80b318960cd114fceaccf55964736f6c63430008140033",
  "linkReferences": {},
  "deployedLinkReferences": {},
  "devdoc": {
    "errors": {
      "DeadlineOver(uint256,uint256)": [
        {
          "params": {
            "currentTime": "time at which the error happen",
            "deadline": "the deadline"
          }
        }
      ],
      "InvalidAddress(address)": [
        {
          "params": {
            "addr": "invalid address"
          }
        }
      ],
      "InvalidMsgValue(uint256,uint256)": [
        {
          "params": {
            "expected": "value expected",
            "provided": "msg.value amount provided"
          }
        }
      ],
      "InvalidTotalAmount(uint256,uint256)": [
        {
          "params": {
            "expected": "value expected",
            "provided": "msg.value amount provided"
          }
        }
      ],
      "NotAuthorizedAllowance(uint256,uint256)": [
        {
          "params": {
            "currentAllowance": "the current allowance",
            "expected": "amount expected"
          }
        }
      ],
      "NotEnoughTokens(uint256,uint256)": [
        {
          "params": {
            "currentBalance": "the current balance",
            "expected": "amount expected"
          }
        }
      ]
    },
    "events": {
      "Approval(address,address,uint256)": {
        "params": {
          "owner": "the account approving the `spender`",
          "spender": "the account allowed to spend",
          "value": "the amount granted"
        }
      },
      "Transfer(address,address,uint256)": {
        "params": {
          "from": "the account the tokens are sent from",
          "to": "the account the tokens are sent to",
          "value": "number of tokens sent"
        }
      }
    },
    "kind": "dev",
    "methods": {
      "approveAndCall(address,uint256,bytes)": {
        "params": {
          "amount": "number of token to transfer",
          "data": "extra data",
          "spender": "account to send the token for"
        },
        "returns": {
          "_0": "success"
        }
      },
      "eip712Domain()": {
        "returns": {
          "chainID": "EIP-712 chainID",
          "extensions": "A list of EIP numbers that specify additional fields in the domain. The method to obtain the value for each of these additional fields and any conditions for inclusion are expected to be specified in the respective EIP. The value of fields does not affect their inclusion.",
          "fields": "A bit map where bit i is set to 1 if and only if domain field i is present (0  i  4). Bits are read from least significant to most significant, and fields are indexed in the order that is specified by EIP-712, identical to the order in which they are listed in the function type.",
          "name": "EIP-712 name",
          "salt": "EIP-712 salt",
          "verifyingContract": "EIP-712 name verifyingContract",
          "version": "EIP-712 version"
        }
      },
      "nonces(address)": {
        "params": {
          "owner": "address queried"
        },
        "returns": {
          "_0": "nonce value"
        }
      },
      "permit(address,address,uint256,uint256,uint8,bytes32,bytes32)": {
        "params": {
          "deadline": "timestamp in seconds after which the permit is not valid.",
          "owner": "owner of the tokens",
          "r": "signature part r",
          "s": "signature part s",
          "spender": "address allowed to spend on behalf of the owner.",
          "v": "signature part v",
          "value": "amount of token allowed to be spent"
        }
      },
      "transferAndCall(address,uint256,bytes)": {
        "params": {
          "amount": "number of token to transfer",
          "data": "extra data",
          "to": "account to receive the tokens"
        },
        "returns": {
          "_0": "success"
        }
      },
      "transferFromAndCall(address,address,uint256,bytes)": {
        "params": {
          "amount": "number of token to transfer",
          "data": "extra data",
          "from": "account to send the token from",
          "to": "account to receive the tokens"
        },
        "returns": {
          "_0": "success"
        }
      },
      "transferOnBehalfAndCall(address,address,uint256,bytes)": {
        "params": {
          "amount": "number of token to transfer",
          "data": "extra data",
          "forAddress": "account to send the token for",
          "to": "account to receive the tokens"
        },
        "returns": {
          "_0": "success"
        }
      }
    },
    "version": 1
  },
  "evm": {
    "gasEstimates": {
      "creation": {
        "codeDepositCost": "1508200",
        "executionCost": "infinite",
        "totalCost": "infinite"
      },
      "external": {
        "DOMAIN_SEPARATOR()": "infinite",
        "allowance(address,address)": "infinite",
        "approve(address,uint256)": "24626",
        "approveAndCall(address,uint256,bytes)": "infinite",
        "authorizeMinters(address[],bool)": "infinite",
        "authorizedMinters(address)": "2558",
        "balanceOf(address)": "2596",
        "config()": "2359",
        "decimals()": "267",
        "distributeAlongWithETH(address[],uint256)": "infinite",
        "eip712Domain()": "infinite",
        "mint(address,uint256)": "infinite",
        "name()": "infinite",
        "nonces(address)": "2575",
        "permit(address,address,uint256,uint256,uint8,bytes32,bytes32)": "infinite",
        "setConfig((address))": "26770",
        "symbol()": "infinite",
        "totalSupply()": "2327",
        "transfer(address,uint256)": "infinite",
        "transferAlongWithETH(address,uint256)": "infinite",
        "transferAndCall(address,uint256,bytes)": "infinite",
        "transferFrom(address,address,uint256)": "infinite",
        "transferFromAndCall(address,address,uint256,bytes)": "infinite",
        "transferOnBehalfAndCall(address,address,uint256,bytes)": "infinite"
      },
      "internal": {
        "_authorizeMinter(address,bool)": "infinite"
      }
    }
  },
  "storageLayout": {
    "storage": [
      {
        "astId": 9548,
        "contract": "src/test/TestTokens.sol:TestTokens",
        "label": "_totalSupply",
        "offset": 0,
        "slot": "0",
        "type": "t_uint256"
      },
      {
        "astId": 9552,
        "contract": "src/test/TestTokens.sol:TestTokens",
        "label": "_balances",
        "offset": 0,
        "slot": "1",
        "type": "t_mapping(t_address,t_uint256)"
      },
      {
        "astId": 9558,
        "contract": "src/test/TestTokens.sol:TestTokens",
        "label": "_allowances",
        "offset": 0,
        "slot": "2",
        "type": "t_mapping(t_address,t_mapping(t_address,t_uint256))"
      },
      {
        "astId": 9318,
        "contract": "src/test/TestTokens.sol:TestTokens",
        "label": "_nonces",
        "offset": 0,
        "slot": "3",
        "type": "t_mapping(t_address,t_uint256)"
      },
      {
        "astId": 17160,
        "contract": "src/test/TestTokens.sol:TestTokens",
        "label": "config",
        "offset": 0,
        "slot": "4",
        "type": "t_struct(Config)17167_storage"
      },
      {
        "astId": 17164,
        "contract": "src/test/TestTokens.sol:TestTokens",
        "label": "authorizedMinters",
        "offset": 0,
        "slot": "5",
        "type": "t_mapping(t_address,t_bool)"
      }
    ],
    "types": {
      "t_address": {
        "encoding": "inplace",
        "label": "address",
        "numberOfBytes": "20"
      },
      "t_bool": {
        "encoding": "inplace",
        "label": "bool",
        "numberOfBytes": "1"
      },
      "t_mapping(t_address,t_bool)": {
        "encoding": "mapping",
        "key": "t_address",
        "label": "mapping(address => bool)",
        "numberOfBytes": "32",
        "value": "t_bool"
      },
      "t_mapping(t_address,t_mapping(t_address,t_uint256))": {
        "encoding": "mapping",
        "key": "t_address",
        "label": "mapping(address => mapping(address => uint256))",
        "numberOfBytes": "32",
        "value": "t_mapping(t_address,t_uint256)"
      },
      "t_mapping(t_address,t_uint256)": {
        "encoding": "mapping",
        "key": "t_address",
        "label": "mapping(address => uint256)",
        "numberOfBytes": "32",
        "value": "t_uint256"
      },
      "t_struct(Config)17167_storage": {
        "encoding": "inplace",
        "label": "struct TestTokens.Config",
        "members": [
          {
            "astId": 17166,
            "contract": "src/test/TestTokens.sol:TestTokens",
            "label": "admin",
            "offset": 0,
            "slot": "0",
            "type": "t_address"
          }
        ],
        "numberOfBytes": "32"
      },
      "t_uint256": {
        "encoding": "inplace",
        "label": "uint256",
        "numberOfBytes": "32"
      }
    }
  },
  "userdoc": {
    "errors": {
      "DeadlineOver(uint256,uint256)": [
        {
          "notice": "The permit has expired"
        }
      ],
      "InvalidAddress(address)": [
        {
          "notice": "An invalid address is specified (for example: zero address)"
        }
      ],
      "InvalidMsgValue(uint256,uint256)": [
        {
          "notice": "The msg value do not match the expected value"
        }
      ],
      "InvalidSignature()": [
        {
          "notice": "The signature do not match the expected signer"
        }
      ],
      "InvalidTotalAmount(uint256,uint256)": [
        {
          "notice": "The total amount provided do not match the expected value"
        }
      ],
      "NotAuthorizedAllowance(uint256,uint256)": [
        {
          "notice": "the amount requested exceed the allowance"
        }
      ],
      "NotEnoughTokens(uint256,uint256)": [
        {
          "notice": "the amount requested exceed the balance"
        }
      ]
    },
    "events": {
      "Approval(address,address,uint256)": {
        "notice": "trigger on approval amount being set.   Note that Transfer events need to be considered to compute the current allowance."
      },
      "Transfer(address,address,uint256)": {
        "notice": "trigger when tokens are transferred, including zero value transfers."
      }
    },
    "kind": "user",
    "methods": {
      "DOMAIN_SEPARATOR()": {
        "notice": "EIP-712 Domain separator hash"
      },
      "allowance(address,address)": {
        "notice": "Returns the amount which `spender` is still allowed to withdraw from `owner`."
      },
      "approve(address,uint256)": {
        "notice": "Allows `spender` to withdraw from your account multiple times, up to `amount`."
      },
      "approveAndCall(address,uint256,bytes)": {
        "notice": "approve `amount` token to be spent by `spender` and callback into it via `onTokenApproval`"
      },
      "balanceOf(address)": {
        "notice": "Returns the account balance of another account with address `owner`."
      },
      "decimals()": {
        "notice": "Returns the number of decimals the token uses."
      },
      "distributeAlongWithETH(address[],uint256)": {
        "notice": "distribute"
      },
      "eip712Domain()": {
        "notice": "The return values of this function MUST describe the domain separator that is used for verification of EIP-712 signatures in the contract. They describe both the form of the EIP712Domain struct (i.e., which of the optional fields and extensions are present) and the value of each field, as follows."
      },
      "nonces(address)": {
        "notice": "return the current nonce of the owner"
      },
      "permit(address,address,uint256,uint256,uint8,bytes32,bytes32)": {
        "notice": "allow `spender` to spend `value` amount of token on behalf of `owner`"
      },
      "symbol()": {
        "notice": "Returns the symbol of the token."
      },
      "totalSupply()": {
        "notice": "Returns the total token supply."
      },
      "transfer(address,uint256)": {
        "notice": "Transfers `amount` of tokens to address `to`."
      },
      "transferAlongWithETH(address,uint256)": {
        "notice": "transfer"
      },
      "transferAndCall(address,uint256,bytes)": {
        "notice": "transfer `amount` token to `to` and callback into it via `onTokenTransfer`"
      },
      "transferFrom(address,address,uint256)": {
        "notice": "Transfers `amount` tokens from address `from` to address `to`."
      },
      "transferFromAndCall(address,address,uint256,bytes)": {
        "notice": "transfer `amount` token to `to` and callback into it via `onTokenTransfer`"
      },
      "transferOnBehalfAndCall(address,address,uint256,bytes)": {
        "notice": "transfer `amount` token to `to` and callback into it via `onTokenTransferedOnBehalf`"
      }
    },
    "version": 1
  },
  "argsData": "0x000000000000000000000000e53cd71271acadbeb0f64d9c8c62bbddc8ca9e660000000000000000000000000000000000000000033b2e3c9fd0803ce800000000000000000000000000000061c461ecc993aadeb7e4b47e96d1b8cc37314b20",
  "transaction": {
    "hash": "0x3270b2961662c8f1f6a22db2ca22df9d2cfdf9d68ee7a7ec509f3f144d6e62d7",
    "origin": "0x61c461ecc993aadeb7e4b47e96d1b8cc37314b20"
  }
}