{
  "address": "0xf59eeb97921b441f0c205c34ce521c2be12425b9",
  "abi": [
    {
      "inputs": [
        {
          "internalType": "contract IReward",
          "name": "rewardAddress",
          "type": "address"
        },
        {
          "components": [
            {
              "internalType": "uint256",
              "name": "rewardRateMillionth",
              "type": "uint256"
            },
            {
              "internalType": "uint256",
              "name": "fixedRewardRateThousandsMillionth",
              "type": "uint256"
            }
          ],
          "internalType": "struct RewardsGenerator.Config",
          "name": "config",
          "type": "tuple"
        },
        {
          "internalType": "address[]",
          "name": "initialGames",
          "type": "address[]"
        }
      ],
      "stateMutability": "nonpayable",
      "type": "constructor"
    },
    {
      "inputs": [],
      "name": "NonTransferable",
      "type": "error"
    },
    {
      "inputs": [],
      "name": "NotAuthorized",
      "type": "error"
    },
    {
      "anonymous": false,
      "inputs": [
        {
          "indexed": true,
          "internalType": "address",
          "name": "owner",
          "type": "address"
        },
        {
          "indexed": true,
          "internalType": "address",
          "name": "spender",
          "type": "address"
        },
        {
          "indexed": false,
          "internalType": "uint256",
          "name": "value",
          "type": "uint256"
        }
      ],
      "name": "Approval",
      "type": "event"
    },
    {
      "anonymous": false,
      "inputs": [
        {
          "indexed": true,
          "internalType": "address",
          "name": "game",
          "type": "address"
        },
        {
          "indexed": false,
          "internalType": "uint256",
          "name": "weight",
          "type": "uint256"
        },
        {
          "indexed": false,
          "internalType": "uint256",
          "name": "timestamp",
          "type": "uint256"
        }
      ],
      "name": "GameEnabled",
      "type": "event"
    },
    {
      "anonymous": false,
      "inputs": [
        {
          "indexed": true,
          "internalType": "address",
          "name": "from",
          "type": "address"
        },
        {
          "indexed": true,
          "internalType": "address",
          "name": "to",
          "type": "address"
        },
        {
          "indexed": false,
          "internalType": "uint256",
          "name": "value",
          "type": "uint256"
        }
      ],
      "name": "Transfer",
      "type": "event"
    },
    {
      "inputs": [],
      "name": "REWARD",
      "outputs": [
        {
          "internalType": "contract IReward",
          "name": "",
          "type": "address"
        }
      ],
      "stateMutability": "view",
      "type": "function"
    },
    {
      "inputs": [
        {
          "internalType": "address",
          "name": "account",
          "type": "address"
        },
        {
          "internalType": "uint256",
          "name": "amount",
          "type": "uint256"
        }
      ],
      "name": "add",
      "outputs": [],
      "stateMutability": "nonpayable",
      "type": "function"
    },
    {
      "inputs": [
        {
          "internalType": "address",
          "name": "",
          "type": "address"
        },
        {
          "internalType": "address",
          "name": "",
          "type": "address"
        }
      ],
      "name": "allowance",
      "outputs": [
        {
          "internalType": "uint256",
          "name": "",
          "type": "uint256"
        }
      ],
      "stateMutability": "pure",
      "type": "function"
    },
    {
      "inputs": [
        {
          "internalType": "address",
          "name": "",
          "type": "address"
        },
        {
          "internalType": "uint256",
          "name": "",
          "type": "uint256"
        }
      ],
      "name": "approve",
      "outputs": [
        {
          "internalType": "bool",
          "name": "",
          "type": "bool"
        }
      ],
      "stateMutability": "pure",
      "type": "function"
    },
    {
      "inputs": [
        {
          "internalType": "address",
          "name": "owner",
          "type": "address"
        }
      ],
      "name": "balanceOf",
      "outputs": [
        {
          "internalType": "uint256",
          "name": "",
          "type": "uint256"
        }
      ],
      "stateMutability": "view",
      "type": "function"
    },
    {
      "inputs": [
        {
          "internalType": "address",
          "name": "to",
          "type": "address"
        }
      ],
      "name": "claimFixedRewards",
      "outputs": [],
      "stateMutability": "nonpayable",
      "type": "function"
    },
    {
      "inputs": [
        {
          "internalType": "address",
          "name": "to",
          "type": "address"
        }
      ],
      "name": "claimSharedPoolRewards",
      "outputs": [],
      "stateMutability": "nonpayable",
      "type": "function"
    },
    {
      "inputs": [],
      "name": "decimals",
      "outputs": [
        {
          "internalType": "uint8",
          "name": "",
          "type": "uint8"
        }
      ],
      "stateMutability": "pure",
      "type": "function"
    },
    {
      "inputs": [
        {
          "internalType": "address",
          "name": "account",
          "type": "address"
        }
      ],
      "name": "earnedFromFixedRate",
      "outputs": [
        {
          "internalType": "uint256",
          "name": "",
          "type": "uint256"
        }
      ],
      "stateMutability": "view",
      "type": "function"
    },
    {
      "inputs": [
        {
          "internalType": "address[]",
          "name": "accounts",
          "type": "address[]"
        }
      ],
      "name": "earnedFromFixedRateMultipleAccounts",
      "outputs": [
        {
          "internalType": "uint256[]",
          "name": "result",
          "type": "uint256[]"
        }
      ],
      "stateMutability": "view",
      "type": "function"
    },
    {
      "inputs": [
        {
          "internalType": "address",
          "name": "account",
          "type": "address"
        }
      ],
      "name": "earnedFromPoolRate",
      "outputs": [
        {
          "internalType": "uint256",
          "name": "",
          "type": "uint256"
        }
      ],
      "stateMutability": "view",
      "type": "function"
    },
    {
      "inputs": [
        {
          "internalType": "address[]",
          "name": "accounts",
          "type": "address[]"
        }
      ],
      "name": "earnedFromPoolRateMultipleAccounts",
      "outputs": [
        {
          "internalType": "uint256[]",
          "name": "result",
          "type": "uint256[]"
        }
      ],
      "stateMutability": "view",
      "type": "function"
    },
    {
      "inputs": [
        {
          "internalType": "address",
          "name": "game",
          "type": "address"
        },
        {
          "internalType": "uint256",
          "name": "weight",
          "type": "uint256"
        }
      ],
      "name": "enableGame",
      "outputs": [],
      "stateMutability": "nonpayable",
      "type": "function"
    },
    {
      "inputs": [
        {
          "internalType": "address",
          "name": "",
          "type": "address"
        }
      ],
      "name": "games",
      "outputs": [
        {
          "internalType": "uint256",
          "name": "",
          "type": "uint256"
        }
      ],
      "stateMutability": "view",
      "type": "function"
    },
    {
      "inputs": [],
      "name": "getTotalRewardPerPointWithPrecision24",
      "outputs": [
        {
          "internalType": "uint256",
          "name": "",
          "type": "uint256"
        }
      ],
      "stateMutability": "view",
      "type": "function"
    },
    {
      "inputs": [
        {
          "internalType": "address",
          "name": "from",
          "type": "address"
        },
        {
          "internalType": "address",
          "name": "to",
          "type": "address"
        },
        {
          "internalType": "uint256",
          "name": "amount",
          "type": "uint256"
        }
      ],
      "name": "move",
      "outputs": [],
      "stateMutability": "nonpayable",
      "type": "function"
    },
    {
      "inputs": [],
      "name": "name",
      "outputs": [
        {
          "internalType": "string",
          "name": "",
          "type": "string"
        }
      ],
      "stateMutability": "pure",
      "type": "function"
    },
    {
      "inputs": [
        {
          "internalType": "contract IReward",
          "name": "rewardAddress",
          "type": "address"
        },
        {
          "components": [
            {
              "internalType": "uint256",
              "name": "rewardRateMillionth",
              "type": "uint256"
            },
            {
              "internalType": "uint256",
              "name": "fixedRewardRateThousandsMillionth",
              "type": "uint256"
            }
          ],
          "internalType": "struct RewardsGenerator.Config",
          "name": "config",
          "type": "tuple"
        },
        {
          "internalType": "address[]",
          "name": "initialGames",
          "type": "address[]"
        }
      ],
      "name": "postUpgrade",
      "outputs": [],
      "stateMutability": "nonpayable",
      "type": "function"
    },
    {
      "inputs": [
        {
          "internalType": "address",
          "name": "account",
          "type": "address"
        },
        {
          "internalType": "uint256",
          "name": "amount",
          "type": "uint256"
        }
      ],
      "name": "remove",
      "outputs": [],
      "stateMutability": "nonpayable",
      "type": "function"
    },
    {
      "inputs": [],
      "name": "symbol",
      "outputs": [
        {
          "internalType": "string",
          "name": "",
          "type": "string"
        }
      ],
      "stateMutability": "view",
      "type": "function"
    },
    {
      "inputs": [],
      "name": "totalSupply",
      "outputs": [
        {
          "internalType": "uint256",
          "name": "",
          "type": "uint256"
        }
      ],
      "stateMutability": "view",
      "type": "function"
    },
    {
      "inputs": [
        {
          "internalType": "address",
          "name": "",
          "type": "address"
        },
        {
          "internalType": "uint256",
          "name": "",
          "type": "uint256"
        }
      ],
      "name": "transfer",
      "outputs": [
        {
          "internalType": "bool",
          "name": "",
          "type": "bool"
        }
      ],
      "stateMutability": "pure",
      "type": "function"
    },
    {
      "inputs": [
        {
          "internalType": "address",
          "name": "",
          "type": "address"
        },
        {
          "internalType": "address",
          "name": "",
          "type": "address"
        },
        {
          "internalType": "uint256",
          "name": "",
          "type": "uint256"
        }
      ],
      "name": "transferFrom",
      "outputs": [
        {
          "internalType": "bool",
          "name": "",
          "type": "bool"
        }
      ],
      "stateMutability": "pure",
      "type": "function"
    },
    {
      "inputs": [],
      "name": "update",
      "outputs": [],
      "stateMutability": "nonpayable",
      "type": "function"
    }
  ],
  "contractName": "RewardsGenerator",
  "sourceName": "src/token/RewardsGenerator.sol",
  "bytecode": "0x604060e0815234620001465762001a07803803806200001e8162000161565b928339810181810360808112620001465782516001600160a01b03929091908383168303620001465785602092601f19011262000146578551936001600160401b03858801818111878210176200014b578852838701518652878701519684870197885260608101519082821162000146570183601f82011215620001465780519182116200014b5784808360051b93620000bb82860162000161565b908152019282010193841162000146578401905b8382106200012c57505050505060c052516080525160a0525161187f9081620001888239608051818181610a800152818161135701526113fc015260a051816112c0015260c05181818161017c015281816106b70152610ce80152f35b8151838116810362000146578152908401908401620000cf565b600080fd5b634e487b7160e01b600052604160045260246000fd5b6040519190601f01601f191682016001600160401b038111838210176200014b5760405256fe60806040908082526004918236101561001757600080fd5b600091823560e01c908163066112f914610c955750806306fdde0314610c23578063095ea7b3146107b657806316cf09f814610b6257806318160ddd14610b2557806323b872dd14610aeb578063313ce56714610ab25780634848338214610a2f57806359d431b3146109db57806370a082311461096a57806379131a19146109095780637997f96d146108b057806395d89b411461083a578063a2e62045146107fe578063a8671f6a146107bb578063a9059cbb146107b6578063abe7f1ab1461075f578063b061963c14610715578063bb35783b146106db578063cab34c081461066d578063cee2960b14610448578063dd62ed3e146103e2578063f5d82b6b1461035e5763ff1e03e91461012d57600080fd5b3461035a5760207ffffffffffffffffffffffffffffffffffffffffffffffffffffffffffffffffc36011261035a57610164610e23565b9073ffffffffffffffffffffffffffffffffffffffff7f00000000000000000000000000000000000000000000000000000000000000001680156103325793839433855260016020526dffffffffffffffffffffffffffff9081848720541661025e6102036101d16113e2565b939050338a52600160205283888b20916cffffffffffffffffffffffffff97600189855460701c169401541692611561565b933389526001602052868920921682907fffffffffff00000000000000000000000000ffffffffffffffffffffffffffff7affffffffffffffffffffffffff000000000000000000000000000083549260701b169116179055565b82610267578680f35b6001017fffffffffffffffffffffffffffffffffffff00000000000000000000000000008154169055803b1561032e576102f4948680948651978895869485937f21670f2200000000000000000000000000000000000000000000000000000000855284016020909392919373ffffffffffffffffffffffffffffffffffffffff60408201951681520152565b03925af1908115610325575061030e575b80808080808680f35b61031790611015565b610322578038610305565b80fd5b513d84823e3d90fd5b8580fd5b8482517fea8e4eb5000000000000000000000000000000000000000000000000000000008152fd5b5080fd5b5082346103de57817ffffffffffffffffffffffffffffffffffffffffffffffffffffffffffffffffc3601126103de57610396610e23565b91338452600360205280842054156103b857836103b5602435856115a2565b80f35b517fea8e4eb5000000000000000000000000000000000000000000000000000000008152fd5b8280fd5b50903461032257817ffffffffffffffffffffffffffffffffffffffffffffffffffffffffffffffffc3601126103225761041a610e23565b5060243573ffffffffffffffffffffffffffffffffffffffff8116036104435760209151908152f35b600080fd5b5082346103de5760807ffffffffffffffffffffffffffffffffffffffffffffffffffffffffffffffffc3601126103de5773ffffffffffffffffffffffffffffffffffffffff81358181160361066957827fffffffffffffffffffffffffffffffffffffffffffffffffffffffffffffffdc3601126106695782519067ffffffffffffffff8285018181118482101761063b578552602435835260443560209384015260643590811161032e573660238201121561032e57808401359061050e826110b5565b9161051b87519384611074565b80835260248584019160051b8301019136831161063757602401905b82821061061f5750505061056f827fb53127684a568b3173ae13b9f8a6016e243e63b6e8ee1178d6a717850b5d6103541633146110cd565b60ff8454161561057d578580f35b9091929394805b82518110156105e757808461059b6001938661121d565b511680600052600387527f50b08f8489c009db3c1b3f160cc0dae1c0c6706774750c001e4c083f9483d5f389670de0b6b3a76400008082600020558151908152428a820152a201610584565b50945050505060017fffffffffffffffffffffffffffffffffffffffffffffffffffffffffffffff0082541617905581808080808580f35b81358581168103610443578152908501908501610537565b8880fd5b6041857f4e487b71000000000000000000000000000000000000000000000000000000006000525260246000fd5b8380fd5b503461035a57817ffffffffffffffffffffffffffffffffffffffffffffffffffffffffffffffffc36011261035a576020905173ffffffffffffffffffffffffffffffffffffffff7f0000000000000000000000000000000000000000000000000000000000000000168152f35b50913461035a576106eb36610f0e565b92909194338552600360205280852054156103b8575050610710826103b5949561147f565b6115a2565b503461035a5760207ffffffffffffffffffffffffffffffffffffffffffffffffffffffffffffffffc36011261035a57602090610758610753610e23565b6112fa565b9051908152f35b5082346103de57817ffffffffffffffffffffffffffffffffffffffffffffffffffffffffffffffffc3601126103de57610797610e23565b91338452600360205280842054156103b857836103b56024358561147f565b610eac565b503461035a5760207ffffffffffffffffffffffffffffffffffffffffffffffffffffffffffffffffc36011261035a576020906107586107f9610e23565b611251565b823461032257807ffffffffffffffffffffffffffffffffffffffffffffffffffffffffffffffffc360112610322576108356113e2565b505080f35b503461035a57817ffffffffffffffffffffffffffffffffffffffffffffffffffffffffffffffffc36011261035a5780516108ac9161087882611058565b600582527f504f494e5400000000000000000000000000000000000000000000000000000060208301525191829182610e46565b0390f35b509034610322576108c036610f6e565b6108c98161116e565b925b8181106108df578451806108ac8682610fd9565b806108f86107f96108f360019486886111bd565b6111fc565b610902828761121d565b52016108cb565b503461035a5760207ffffffffffffffffffffffffffffffffffffffffffffffffffffffffffffffffc36011261035a578060209273ffffffffffffffffffffffffffffffffffffffff61095a610e23565b1681526003845220549051908152f35b503461035a5760207ffffffffffffffffffffffffffffffffffffffffffffffffffffffffffffffffc36011261035a576dffffffffffffffffffffffffffff8160209373ffffffffffffffffffffffffffffffffffffffff6109ca610e23565b168152600185522054169051908152f35b509034610322576109eb36610f6e565b6109f48161116e565b925b818110610a0a578451806108ac8682610fd9565b80610a1e6107536108f360019486886111bd565b610a28828761121d565b52016109f6565b503461035a57817ffffffffffffffffffffffffffffffffffffffffffffffffffffffffffffffffc36011261035a57610758602092546cffffffffffffffffffffffffff610aa864ffffffffff83167f00000000000000000000000000000000000000000000000000000000000000008460901c6113a0565b9160281c16611132565b503461035a57817ffffffffffffffffffffffffffffffffffffffffffffffffffffffffffffffffc36011261035a576020905160128152f35b5090346103225750610afc36610f0e565b505050517f9cbe2357000000000000000000000000000000000000000000000000000000008152fd5b503461035a57817ffffffffffffffffffffffffffffffffffffffffffffffffffffffffffffffffc36011261035a576020915460901c9051908152f35b503461035a57807ffffffffffffffffffffffffffffffffffffffffffffffffffffffffffffffffc36011261035a577f50b08f8489c009db3c1b3f160cc0dae1c0c6706774750c001e4c083f9483d5f3610bba610e23565b916024359273ffffffffffffffffffffffffffffffffffffffff90610c03827fb53127684a568b3173ae13b9f8a6016e243e63b6e8ee1178d6a717850b5d6103541633146110cd565b16928360005260036020528082600020558151908152426020820152a280f35b503461035a57817ffffffffffffffffffffffffffffffffffffffffffffffffffffffffffffffffc36011261035a5780516108ac91610c6182611058565b600682527f506f696e7473000000000000000000000000000000000000000000000000000060208301525191829182610e46565b84929150346106695760207ffffffffffffffffffffffffffffffffffffffffffffffffffffffffffffffffc36011261066957610cd0610e23565b9073ffffffffffffffffffffffffffffffffffffffff7f000000000000000000000000000000000000000000000000000000000000000016908115610dfc5750908491610d1c33611251565b9182610d26578380f35b338452600260205284842080547fffffffffffffffffffffffffff000000000000000000000000000000000000001672ffffffffff00000000000000000000000000004260701b16179055813b156106695783610dd3968651978895869485937f21670f2200000000000000000000000000000000000000000000000000000000855284016020909392919373ffffffffffffffffffffffffffffffffffffffff60408201951681520152565b03925af19081156103255750610ded575b80828180808380f35b610df690611015565b81610de4565b807fea8e4eb500000000000000000000000000000000000000000000000000000000869252fd5b6004359073ffffffffffffffffffffffffffffffffffffffff8216820361044357565b60208082528251818301819052939260005b858110610e98575050507fffffffffffffffffffffffffffffffffffffffffffffffffffffffffffffffe0601f8460006040809697860101520116010190565b818101830151848201604001528201610e58565b346104435760407ffffffffffffffffffffffffffffffffffffffffffffffffffffffffffffffffc36011261044357610ee3610e23565b5060046040517f9cbe2357000000000000000000000000000000000000000000000000000000008152fd5b7ffffffffffffffffffffffffffffffffffffffffffffffffffffffffffffffffc60609101126104435773ffffffffffffffffffffffffffffffffffffffff90600435828116810361044357916024359081168103610443579060443590565b9060207ffffffffffffffffffffffffffffffffffffffffffffffffffffffffffffffffc8301126104435760043567ffffffffffffffff9283821161044357806023830112156104435781600401359384116104435760248460051b83010111610443576024019190565b602090602060408183019282815285518094520193019160005b828110611001575050505090565b835185529381019392810192600101610ff3565b67ffffffffffffffff811161102957604052565b7f4e487b7100000000000000000000000000000000000000000000000000000000600052604160045260246000fd5b6040810190811067ffffffffffffffff82111761102957604052565b90601f7fffffffffffffffffffffffffffffffffffffffffffffffffffffffffffffffe0910116810190811067ffffffffffffffff82111761102957604052565b67ffffffffffffffff81116110295760051b60200190565b156110d457565b60646040517f08c379a000000000000000000000000000000000000000000000000000000000815260206004820152600e60248201527f4e4f545f415554484f52495a45440000000000000000000000000000000000006044820152fd5b9190820180921161113f57565b7f4e487b7100000000000000000000000000000000000000000000000000000000600052601160045260246000fd5b90611178826110b5565b6111856040519182611074565b8281527fffffffffffffffffffffffffffffffffffffffffffffffffffffffffffffffe06111b382946110b5565b0190602036910137565b91908110156111cd5760051b0190565b7f4e487b7100000000000000000000000000000000000000000000000000000000600052603260045260246000fd5b3573ffffffffffffffffffffffffffffffffffffffff811681036104435790565b80518210156111cd5760209160051b010190565b9190820391821161113f57565b8181029291811591840414171561113f57565b73ffffffffffffffffffffffffffffffffffffffff6112f7911660008181526002602052604061128e64ffffffffff8284205460701c1642611231565b918381526001602052633b9aca006112e56112be6dffffffffffffffffffffffffffff958686862054169061123e565b7f00000000000000000000000000000000000000000000000000000000000000009061123e565b04938152600260205220541690611132565b90565b73ffffffffffffffffffffffffffffffffffffffff6112f79116806000526001602052604060002054906cffffffffffffffffffffffffff916dffffffffffffffffffffffffffff9261137f60005482610aa864ffffffffff83167f00000000000000000000000000000000000000000000000000000000000000008460901c6113a0565b92600052600160205283600160406000200154169382169160701c16611561565b919082156113da576113b56113ba9242611231565b61123e565b69d3c21bcecceda10000009081810291818304149015171561113f570490565b505050600090565b6000548060901c9164ffffffffff916114396114218483167f0000000000000000000000000000000000000000000000000000000000000000876113a0565b6cffffffffffffffffffffffffff8360281c16611132565b924216907fffffffffffffffffffffffffffff00000000000000000000000000000000000071ffffffffffffffffffffffffff00000000008560281b1691161717600055565b811561155d577fddf252ad1be2c89b69c2b068fc378daa952ba7f163c4a11628f55a4df523b3ef602060009373ffffffffffffffffffffffffffffffffffffffff6114c985611681565b959071ffffffffffffffffffffffffffffffffffff7fffffffffffffffffffffffffffff000000000000000000000000000000000000858a54930360901b1691161787551693848652600183526dffffffffffffffffffffffffffff82604088209203167fffffffffffffffffffffffffffffffffffff0000000000000000000000000000825416179055604051908152a3565b5050565b61156e9061157493611231565b9061123e565b9064e8d4a510009182810292818404149015171561113f5769d3c21bcecceda10000006112f7920490611132565b90801561155d577fddf252ad1be2c89b69c2b068fc378daa952ba7f163c4a11628f55a4df523b3ef602060009273ffffffffffffffffffffffffffffffffffffffff6115ed86611681565b969071ffffffffffffffffffffffffffffffffffff7fffffffffffffffffffffffffffff000000000000000000000000000000000000858954930160901b1691161786551694858552600183526dffffffffffffffffffffffffffff82604087209201167fffffffffffffffffffffffffffffffffffff0000000000000000000000000000825416179055604051908152a3565b9073ffffffffffffffffffffffffffffffffffffffff916116a06113e2565b93909116600090808252600160205260016116f561177d604085209788546dffffffffffffffffffffffffffff93818386809416809d856cffffffffffffffffffffffffff9a8b920154169360701c16611561565b169385875260016020526040872091600183017fffffffffffffffffffffffffffffffffffff00000000000000000000000000009687825416179055167fffffffffff00000000000000000000000000ffffffffffffffffffffffffffff7affffffffffffffffffffffffff000000000000000000000000000083549260701b169116179055565b600260205264ffffffffff93633b9aca006117a86112be8a6113b589604087205460701c1642611231565b0493815260026020526118006040822095421686907fffffffffffffffffffffffffff0000000000ffffffffffffffffffffffffffff72ffffffffff000000000000000000000000000083549260701b169116179055565b8185549416828516019082821161181c57501691161790559190565b807f4e487b7100000000000000000000000000000000000000000000000000000000602492526011600452fdfea26469706673582212200f1b4bb332a3e26da31a88d1fa45fff0a97c946952ffd70f0917076d91927ea564736f6c63430008180033",
  "linkReferences": {},
  "deployedLinkReferences": {},
  "devdoc": {
    "events": {
      "Approval(address,address,uint256)": {
        "params": {
          "owner": "the account approving the `spender`",
          "spender": "the account allowed to spend",
          "value": "the amount granted"
        }
      },
      "Transfer(address,address,uint256)": {
        "params": {
          "from": "the account the tokens are sent from",
          "to": "the account the tokens are sent to",
          "value": "number of tokens sent"
        }
      }
    },
    "kind": "dev",
    "methods": {},
    "version": 1
  },
  "evm": {
    "gasEstimates": {
      "creation": {
        "codeDepositCost": "1254200",
        "executionCost": "infinite",
        "totalCost": "infinite"
      },
      "external": {
        "REWARD()": "infinite",
        "add(address,uint256)": "infinite",
        "allowance(address,address)": "731",
        "approve(address,uint256)": "289",
        "balanceOf(address)": "2606",
        "claimFixedRewards(address)": "infinite",
        "claimSharedPoolRewards(address)": "infinite",
        "decimals()": "304",
        "earnedFromFixedRate(address)": "infinite",
        "earnedFromFixedRateMultipleAccounts(address[])": "infinite",
        "earnedFromPoolRate(address)": "infinite",
        "earnedFromPoolRateMultipleAccounts(address[])": "infinite",
        "enableGame(address,uint256)": "26303",
        "games(address)": "2622",
        "getTotalRewardPerPointWithPrecision24()": "infinite",
        "move(address,address,uint256)": "infinite",
        "name()": "infinite",
        "postUpgrade(address,(uint256,uint256),address[])": "infinite",
        "remove(address,uint256)": "infinite",
        "symbol()": "infinite",
        "totalSupply()": "2369",
        "transfer(address,uint256)": "575",
        "transferFrom(address,address,uint256)": "403",
        "update()": "infinite"
      },
      "internal": {
        "_add(address,uint256)": "infinite",
        "_computeExtraTotalRewardPerPointSinceLastTime(uint256,uint256,uint256)": "259",
        "_computeRewardsEarned(uint256,uint256,uint256,uint256)": "304",
        "_enableGame(address,uint256)": "infinite",
        "_postUpgrade(contract IReward,struct RewardsGenerator.Config memory,address[] memory)": "infinite",
        "_remove(address,uint256)": "infinite",
        "_update(address)": "infinite",
        "_updateAccount(address,uint256)": "infinite",
        "_updateGlobal()": "infinite"
      }
    }
  },
  "storageLayout": {
    "storage": [
      {
        "astId": 16862,
        "contract": "src/token/RewardsGenerator.sol:RewardsGenerator",
        "label": "_global",
        "offset": 0,
        "slot": "0",
        "type": "t_struct(GlobalState)16859_storage"
      },
      {
        "astId": 16874,
        "contract": "src/token/RewardsGenerator.sol:RewardsGenerator",
        "label": "_sharedRateRewardPerAccount",
        "offset": 0,
        "slot": "1",
        "type": "t_mapping(t_address,t_struct(SharedRatePerAccount)16869_storage)"
      },
      {
        "astId": 16884,
        "contract": "src/token/RewardsGenerator.sol:RewardsGenerator",
        "label": "_fixedRateRewardPerAccount",
        "offset": 0,
        "slot": "2",
        "type": "t_mapping(t_address,t_struct(FixedRate)16879_storage)"
      },
      {
        "astId": 16888,
        "contract": "src/token/RewardsGenerator.sol:RewardsGenerator",
        "label": "games",
        "offset": 0,
        "slot": "3",
        "type": "t_mapping(t_address,t_uint256)"
      },
      {
        "astId": 16898,
        "contract": "src/token/RewardsGenerator.sol:RewardsGenerator",
        "label": "_init",
        "offset": 0,
        "slot": "4",
        "type": "t_bool"
      }
    ],
    "types": {
      "t_address": {
        "encoding": "inplace",
        "label": "address",
        "numberOfBytes": "20"
      },
      "t_bool": {
        "encoding": "inplace",
        "label": "bool",
        "numberOfBytes": "1"
      },
      "t_mapping(t_address,t_struct(FixedRate)16879_storage)": {
        "encoding": "mapping",
        "key": "t_address",
        "label": "mapping(address => struct RewardsGenerator.FixedRate)",
        "numberOfBytes": "32",
        "value": "t_struct(FixedRate)16879_storage"
      },
      "t_mapping(t_address,t_struct(SharedRatePerAccount)16869_storage)": {
        "encoding": "mapping",
        "key": "t_address",
        "label": "mapping(address => struct RewardsGenerator.SharedRatePerAccount)",
        "numberOfBytes": "32",
        "value": "t_struct(SharedRatePerAccount)16869_storage"
      },
      "t_mapping(t_address,t_uint256)": {
        "encoding": "mapping",
        "key": "t_address",
        "label": "mapping(address => uint256)",
        "numberOfBytes": "32",
        "value": "t_uint256"
      },
      "t_struct(FixedRate)16879_storage": {
        "encoding": "inplace",
        "label": "struct RewardsGenerator.FixedRate",
        "members": [
          {
            "astId": 16876,
            "contract": "src/token/RewardsGenerator.sol:RewardsGenerator",
            "label": "toWithdraw",
            "offset": 0,
            "slot": "0",
            "type": "t_uint112"
          },
          {
            "astId": 16878,
            "contract": "src/token/RewardsGenerator.sol:RewardsGenerator",
            "label": "lastTime",
            "offset": 14,
            "slot": "0",
            "type": "t_uint40"
          }
        ],
        "numberOfBytes": "32"
      },
      "t_struct(GlobalState)16859_storage": {
        "encoding": "inplace",
        "label": "struct RewardsGenerator.GlobalState",
        "members": [
          {
            "astId": 16854,
            "contract": "src/token/RewardsGenerator.sol:RewardsGenerator",
            "label": "lastUpdateTime",
            "offset": 0,
            "slot": "0",
            "type": "t_uint40"
          },
          {
            "astId": 16856,
            "contract": "src/token/RewardsGenerator.sol:RewardsGenerator",
            "label": "totalRewardPerPointAtLastUpdate",
            "offset": 5,
            "slot": "0",
            "type": "t_uint104"
          },
          {
            "astId": 16858,
            "contract": "src/token/RewardsGenerator.sol:RewardsGenerator",
            "label": "totalPoints",
            "offset": 18,
            "slot": "0",
            "type": "t_uint112"
          }
        ],
        "numberOfBytes": "32"
      },
      "t_struct(SharedRatePerAccount)16869_storage": {
        "encoding": "inplace",
        "label": "struct RewardsGenerator.SharedRatePerAccount",
        "members": [
          {
            "astId": 16864,
            "contract": "src/token/RewardsGenerator.sol:RewardsGenerator",
            "label": "points",
            "offset": 0,
            "slot": "0",
            "type": "t_uint112"
          },
          {
            "astId": 16866,
            "contract": "src/token/RewardsGenerator.sol:RewardsGenerator",
            "label": "totalRewardPerPointAccounted",
            "offset": 14,
            "slot": "0",
            "type": "t_uint104"
          },
          {
            "astId": 16868,
            "contract": "src/token/RewardsGenerator.sol:RewardsGenerator",
            "label": "rewardsToWithdraw",
            "offset": 0,
            "slot": "1",
            "type": "t_uint112"
          }
        ],
        "numberOfBytes": "64"
      },
      "t_uint104": {
        "encoding": "inplace",
        "label": "uint104",
        "numberOfBytes": "13"
      },
      "t_uint112": {
        "encoding": "inplace",
        "label": "uint112",
        "numberOfBytes": "14"
      },
      "t_uint256": {
        "encoding": "inplace",
        "label": "uint256",
        "numberOfBytes": "32"
      },
      "t_uint40": {
        "encoding": "inplace",
        "label": "uint40",
        "numberOfBytes": "5"
      }
    }
  },
  "userdoc": {
    "errors": {
      "NonTransferable()": [
        {
          "notice": "Token cannot be transfered"
        }
      ],
      "NotAuthorized()": [
        {
          "notice": "Not authorized to perform this operation"
        }
      ]
    },
    "events": {
      "Approval(address,address,uint256)": {
        "notice": "trigger on approval amount being set.   Note that Transfer events need to be considered to compute the current allowance."
      },
      "Transfer(address,address,uint256)": {
        "notice": "trigger when tokens are transferred, including zero value transfers."
      }
    },
    "kind": "user",
    "methods": {
      "allowance(address,address)": {
        "notice": "Returns the amount which `spender` is still allowed to withdraw from `owner`."
      },
      "approve(address,uint256)": {
        "notice": "Allows `spender` to withdraw from your account multiple times, up to `amount`."
      },
      "balanceOf(address)": {
        "notice": "Returns the account balance of another account with address `owner`."
      },
      "claimFixedRewards(address)": {
        "notice": "claim the rewards earned so far using a fixed rate per point"
      },
      "claimSharedPoolRewards(address)": {
        "notice": "claim the rewards earned so far in the shared pool"
      },
      "decimals()": {
        "notice": "Returns the number of decimals the token uses."
      },
      "earnedFromFixedRate(address)": {
        "notice": "The amount of reward an account has accrued so far. Does not include already withdrawn rewards."
      },
      "earnedFromFixedRateMultipleAccounts(address[])": {
        "notice": "The amount of reward an account has accrued so far. Does not include already withdrawn rewards."
      },
      "earnedFromPoolRate(address)": {
        "notice": "The amount of reward an account has accrued so far. Does not include already withdrawn rewards."
      },
      "earnedFromPoolRateMultipleAccounts(address[])": {
        "notice": "The amount of reward an account has accrued so far. Does not include already withdrawn rewards."
      },
      "getTotalRewardPerPointWithPrecision24()": {
        "notice": "The amount of reward each point has earned so far"
      },
      "name()": {
        "notice": "Returns the name of the token."
      },
      "symbol()": {
        "notice": "Returns the symbol of the token."
      },
      "totalSupply()": {
        "notice": "Returns the total token supply."
      },
      "transfer(address,uint256)": {
        "notice": "Transfers `amount` of tokens to address `to`."
      },
      "transferFrom(address,address,uint256)": {
        "notice": "Transfers `amount` tokens from address `from` to address `to`."
      },
      "update()": {
        "notice": "update the global pool rate"
      }
    },
    "version": 1
  },
  "argsData": "0x00000000000000000000000000000000000000000000000000000000000000000000000000000000000000000000000000000000000000000000000000000000000000000000000000000000000000000000000000000000000000000000000a00000000000000000000000000000000000000000000000000000000000000800000000000000000000000000000000000000000000000000000000000000000",
  "transaction": {
    "hash": "0xfb27d23ca57f04e774a897ec7122cd8a2b98a7a8110ee4df314ec8a3d707da57",
    "origin": "0xbe19b59e8c588d68f475a407c7ba5fe813aeb792"
  }
}