{
  "address": "0x6149e95d4f0888aa714108620fdb4896aad5b3f1",
  "abi": [
    {
      "inputs": [
        {
          "internalType": "address",
          "name": "to",
          "type": "address"
        },
        {
          "internalType": "uint256",
          "name": "amount",
          "type": "uint256"
        }
      ],
      "stateMutability": "nonpayable",
      "type": "constructor"
    },
    {
      "inputs": [
        {
          "internalType": "uint256",
          "name": "currentTime",
          "type": "uint256"
        },
        {
          "internalType": "uint256",
          "name": "deadline",
          "type": "uint256"
        }
      ],
      "name": "DeadlineOver",
      "type": "error"
    },
    {
      "inputs": [
        {
          "internalType": "address",
          "name": "addr",
          "type": "address"
        }
      ],
      "name": "InvalidAddress",
      "type": "error"
    },
    {
      "inputs": [
        {
          "internalType": "uint256",
          "name": "provided",
          "type": "uint256"
        },
        {
          "internalType": "uint256",
          "name": "expected",
          "type": "uint256"
        }
      ],
      "name": "InvalidMsgValue",
      "type": "error"
    },
    {
      "inputs": [],
      "name": "InvalidSignature",
      "type": "error"
    },
    {
      "inputs": [
        {
          "internalType": "uint256",
          "name": "provided",
          "type": "uint256"
        },
        {
          "internalType": "uint256",
          "name": "expected",
          "type": "uint256"
        }
      ],
      "name": "InvalidTotalAmount",
      "type": "error"
    },
    {
      "inputs": [
        {
          "internalType": "uint256",
          "name": "currentAllowance",
          "type": "uint256"
        },
        {
          "internalType": "uint256",
          "name": "expected",
          "type": "uint256"
        }
      ],
      "name": "NotAuthorizedAllowance",
      "type": "error"
    },
    {
      "inputs": [
        {
          "internalType": "uint256",
          "name": "currentBalance",
          "type": "uint256"
        },
        {
          "internalType": "uint256",
          "name": "expected",
          "type": "uint256"
        }
      ],
      "name": "NotEnoughTokens",
      "type": "error"
    },
    {
      "anonymous": false,
      "inputs": [
        {
          "indexed": true,
          "internalType": "address",
          "name": "owner",
          "type": "address"
        },
        {
          "indexed": true,
          "internalType": "address",
          "name": "spender",
          "type": "address"
        },
        {
          "indexed": false,
          "internalType": "uint256",
          "name": "value",
          "type": "uint256"
        }
      ],
      "name": "Approval",
      "type": "event"
    },
    {
      "anonymous": false,
      "inputs": [
        {
          "indexed": true,
          "internalType": "address",
          "name": "from",
          "type": "address"
        },
        {
          "indexed": true,
          "internalType": "address",
          "name": "to",
          "type": "address"
        },
        {
          "indexed": false,
          "internalType": "uint256",
          "name": "value",
          "type": "uint256"
        }
      ],
      "name": "Transfer",
      "type": "event"
    },
    {
      "inputs": [],
      "name": "DOMAIN_SEPARATOR",
      "outputs": [
        {
          "internalType": "bytes32",
          "name": "",
          "type": "bytes32"
        }
      ],
      "stateMutability": "view",
      "type": "function"
    },
    {
      "inputs": [
        {
          "internalType": "address",
          "name": "owner",
          "type": "address"
        },
        {
          "internalType": "address",
          "name": "spender",
          "type": "address"
        }
      ],
      "name": "allowance",
      "outputs": [
        {
          "internalType": "uint256",
          "name": "",
          "type": "uint256"
        }
      ],
      "stateMutability": "view",
      "type": "function"
    },
    {
      "inputs": [
        {
          "internalType": "address",
          "name": "spender",
          "type": "address"
        },
        {
          "internalType": "uint256",
          "name": "amount",
          "type": "uint256"
        }
      ],
      "name": "approve",
      "outputs": [
        {
          "internalType": "bool",
          "name": "",
          "type": "bool"
        }
      ],
      "stateMutability": "nonpayable",
      "type": "function"
    },
    {
      "inputs": [
        {
          "internalType": "address",
          "name": "spender",
          "type": "address"
        },
        {
          "internalType": "uint256",
          "name": "amount",
          "type": "uint256"
        },
        {
          "internalType": "bytes",
          "name": "data",
          "type": "bytes"
        }
      ],
      "name": "approveAndCall",
      "outputs": [
        {
          "internalType": "bool",
          "name": "",
          "type": "bool"
        }
      ],
      "stateMutability": "nonpayable",
      "type": "function"
    },
    {
      "inputs": [
        {
          "internalType": "address",
          "name": "owner",
          "type": "address"
        }
      ],
      "name": "balanceOf",
      "outputs": [
        {
          "internalType": "uint256",
          "name": "",
          "type": "uint256"
        }
      ],
      "stateMutability": "view",
      "type": "function"
    },
    {
      "inputs": [],
      "name": "decimals",
      "outputs": [
        {
          "internalType": "uint8",
          "name": "",
          "type": "uint8"
        }
      ],
      "stateMutability": "pure",
      "type": "function"
    },
    {
      "inputs": [
        {
          "internalType": "address payable[]",
          "name": "tos",
          "type": "address[]"
        },
        {
          "internalType": "uint256",
          "name": "totalAmount",
          "type": "uint256"
        }
      ],
      "name": "distributeAlongWithETH",
      "outputs": [
        {
          "internalType": "bool",
          "name": "",
          "type": "bool"
        }
      ],
      "stateMutability": "payable",
      "type": "function"
    },
    {
      "inputs": [],
      "name": "eip712Domain",
      "outputs": [
        {
          "internalType": "bytes1",
          "name": "fields",
          "type": "bytes1"
        },
        {
          "internalType": "string",
          "name": "name",
          "type": "string"
        },
        {
          "internalType": "string",
          "name": "version",
          "type": "string"
        },
        {
          "internalType": "uint256",
          "name": "chainID",
          "type": "uint256"
        },
        {
          "internalType": "address",
          "name": "verifyingContract",
          "type": "address"
        },
        {
          "internalType": "bytes32",
          "name": "salt",
          "type": "bytes32"
        },
        {
          "internalType": "uint256[]",
          "name": "extensions",
          "type": "uint256[]"
        }
      ],
      "stateMutability": "view",
      "type": "function"
    },
    {
      "inputs": [],
      "name": "name",
      "outputs": [
        {
          "internalType": "string",
          "name": "",
          "type": "string"
        }
      ],
      "stateMutability": "pure",
      "type": "function"
    },
    {
      "inputs": [
        {
          "internalType": "address",
          "name": "owner",
          "type": "address"
        }
      ],
      "name": "nonces",
      "outputs": [
        {
          "internalType": "uint256",
          "name": "",
          "type": "uint256"
        }
      ],
      "stateMutability": "view",
      "type": "function"
    },
    {
      "inputs": [
        {
          "internalType": "address",
          "name": "owner",
          "type": "address"
        },
        {
          "internalType": "address",
          "name": "spender",
          "type": "address"
        },
        {
          "internalType": "uint256",
          "name": "value",
          "type": "uint256"
        },
        {
          "internalType": "uint256",
          "name": "deadline",
          "type": "uint256"
        },
        {
          "internalType": "uint8",
          "name": "v",
          "type": "uint8"
        },
        {
          "internalType": "bytes32",
          "name": "r",
          "type": "bytes32"
        },
        {
          "internalType": "bytes32",
          "name": "s",
          "type": "bytes32"
        }
      ],
      "name": "permit",
      "outputs": [],
      "stateMutability": "nonpayable",
      "type": "function"
    },
    {
      "inputs": [],
      "name": "symbol",
      "outputs": [
        {
          "internalType": "string",
          "name": "",
          "type": "string"
        }
      ],
      "stateMutability": "view",
      "type": "function"
    },
    {
      "inputs": [],
      "name": "totalSupply",
      "outputs": [
        {
          "internalType": "uint256",
          "name": "",
          "type": "uint256"
        }
      ],
      "stateMutability": "view",
      "type": "function"
    },
    {
      "inputs": [
        {
          "internalType": "address",
          "name": "to",
          "type": "address"
        },
        {
          "internalType": "uint256",
          "name": "amount",
          "type": "uint256"
        }
      ],
      "name": "transfer",
      "outputs": [
        {
          "internalType": "bool",
          "name": "",
          "type": "bool"
        }
      ],
      "stateMutability": "nonpayable",
      "type": "function"
    },
    {
      "inputs": [
        {
          "internalType": "address payable",
          "name": "to",
          "type": "address"
        },
        {
          "internalType": "uint256",
          "name": "amount",
          "type": "uint256"
        }
      ],
      "name": "transferAlongWithETH",
      "outputs": [
        {
          "internalType": "bool",
          "name": "",
          "type": "bool"
        }
      ],
      "stateMutability": "payable",
      "type": "function"
    },
    {
      "inputs": [
        {
          "internalType": "address",
          "name": "to",
          "type": "address"
        },
        {
          "internalType": "uint256",
          "name": "amount",
          "type": "uint256"
        },
        {
          "internalType": "bytes",
          "name": "data",
          "type": "bytes"
        }
      ],
      "name": "transferAndCall",
      "outputs": [
        {
          "internalType": "bool",
          "name": "",
          "type": "bool"
        }
      ],
      "stateMutability": "nonpayable",
      "type": "function"
    },
    {
      "inputs": [
        {
          "internalType": "address",
          "name": "from",
          "type": "address"
        },
        {
          "internalType": "address",
          "name": "to",
          "type": "address"
        },
        {
          "internalType": "uint256",
          "name": "amount",
          "type": "uint256"
        }
      ],
      "name": "transferFrom",
      "outputs": [
        {
          "internalType": "bool",
          "name": "",
          "type": "bool"
        }
      ],
      "stateMutability": "nonpayable",
      "type": "function"
    },
    {
      "inputs": [
        {
          "internalType": "address",
          "name": "from",
          "type": "address"
        },
        {
          "internalType": "address",
          "name": "to",
          "type": "address"
        },
        {
          "internalType": "uint256",
          "name": "amount",
          "type": "uint256"
        },
        {
          "internalType": "bytes",
          "name": "data",
          "type": "bytes"
        }
      ],
      "name": "transferFromAndCall",
      "outputs": [
        {
          "internalType": "bool",
          "name": "",
          "type": "bool"
        }
      ],
      "stateMutability": "nonpayable",
      "type": "function"
    },
    {
      "inputs": [
        {
          "internalType": "address",
          "name": "forAddress",
          "type": "address"
        },
        {
          "internalType": "address",
          "name": "to",
          "type": "address"
        },
        {
          "internalType": "uint256",
          "name": "amount",
          "type": "uint256"
        },
        {
          "internalType": "bytes",
          "name": "data",
          "type": "bytes"
        }
      ],
      "name": "transferOnBehalfAndCall",
      "outputs": [
        {
          "internalType": "bool",
          "name": "",
          "type": "bool"
        }
      ],
      "stateMutability": "nonpayable",
      "type": "function"
    }
  ],
  "contractName": "Gems",
  "sourceName": "src/token/Gems.sol",
  "bytecode": "0x60e06040523480156200001157600080fd5b5060405162001ae838038062001ae88339810160408190526200003491620001af565b4660808190523090819081156200004c57816200004e565b305b6001600160a01b031660c08190526200006990829062000085565b60a052506200007d91508390508262000123565b50506200020d565b60007f8cad95687ba82c2ce50e74f7b754645e5117c3a5bec8151c0726d5857980a866620000ca60408051808201909152600481526347656d7360e01b602082015290565b80516020918201206040516200010493928791879101938452602084019290925260408301526001600160a01b0316606082015260800190565b6040516020818303038152906040528051906020012090505b92915050565b80600080828254620001369190620001eb565b90915550506001600160a01b0382166000908152600160205260408120805483929062000165908490620001eb565b90915550506040518181526001600160a01b038316906000907fddf252ad1be2c89b69c2b068fc378daa952ba7f163c4a11628f55a4df523b3ef9060200160405180910390a35050565b60008060408385031215620001c357600080fd5b82516001600160a01b0381168114620001db57600080fd5b6020939093015192949293505050565b808201808211156200011d57634e487b7160e01b600052601160045260246000fd5b60805160a05160c0516118a462000244600039600081816107c8015261104a015260006110750152600061101f01526118a46000f3fe6080604052600436106101445760003560e01c806370a08231116100c0578063c1d34b8911610074578063d505accf11610059578063d505accf146103eb578063dd62ed3e1461040d578063e7fcb0651461042d57600080fd5b8063c1d34b89146103ab578063cae9ca51146103cb57600080fd5b806384b0196e116100a557806384b0196e1461031a57806395d89b4114610342578063a9059cbb1461038b57600080fd5b806370a08231146102945780637ecebe00146102d757600080fd5b806323b872dd116101175780633644e515116100fc5780633644e5151461023f5780634000aea01461025457806365520efa1461027457600080fd5b806323b872dd14610203578063313ce5671461022357600080fd5b806306fdde0314610149578063095ea7b3146101a15780630e02df54146101d157806318160ddd146101e4575b600080fd5b34801561015557600080fd5b5060408051808201909152600481527f47656d730000000000000000000000000000000000000000000000000000000060208201525b60405161019891906111fc565b60405180910390f35b3480156101ad57600080fd5b506101c16101bc36600461123b565b610440565b6040519015158152602001610198565b6101c16101df3660046112a6565b610457565b3480156101f057600080fd5b506000545b604051908152602001610198565b34801561020f57600080fd5b506101c161021e36600461138f565b6105ea565b34801561022f57600080fd5b5060405160128152602001610198565b34801561024b57600080fd5b506101f5610601565b34801561026057600080fd5b506101c161026f366004611419565b61060b565b34801561028057600080fd5b506101c161028f366004611475565b6106bc565b3480156102a057600080fd5b506101f56102af3660046114e8565b73ffffffffffffffffffffffffffffffffffffffff1660009081526001602052604090205490565b3480156102e357600080fd5b506101f56102f23660046114e8565b73ffffffffffffffffffffffffffffffffffffffff1660009081526003602052604090205490565b34801561032657600080fd5b5061032f610770565b6040516101989796959493929190611505565b34801561034e57600080fd5b5061018b6040518060400160405280600381526020017f47454d000000000000000000000000000000000000000000000000000000000081525081565b34801561039757600080fd5b506101c16103a636600461123b565b6107f2565b3480156103b757600080fd5b506101c16103c6366004611475565b6107ff565b3480156103d757600080fd5b506101c16103e6366004611419565b610864565b3480156103f757600080fd5b5061040b6104063660046115c4565b6108c7565b005b34801561041957600080fd5b506101f561042836600461163b565b610b90565b6101c161043b36600461123b565b610c0f565b600061044d338484610c5e565b5060015b92915050565b60008083513461046791906116a3565b905083518161047691906116de565b34146104ca573484518261048a91906116de565b6040517f1f89f671000000000000000000000000000000000000000000000000000000008152600481019290925260248201526044015b60405180910390fd5b60008451846104d991906116a3565b90508451816104e891906116de565b841461053757838551826104fc91906116de565b6040517fe93890a2000000000000000000000000000000000000000000000000000000008152600481019290925260248201526044016104c1565b60005b85518110156105d95761056733878381518110610559576105596116f5565b602002602001015184610d3d565b858181518110610579576105796116f5565b602002602001015173ffffffffffffffffffffffffffffffffffffffff166108fc849081150290604051600060405180830381858888f193505050501580156105c6573d6000803e3d6000fd5b50806105d181611724565b91505061053a565b50600195945050505050565b905090565b60006105f7848484610eef565b5060019392505050565b60006105e561101a565b6000610618338686610d3d565b6040517fa4c0ed3600000000000000000000000000000000000000000000000000000000815273ffffffffffffffffffffffffffffffffffffffff86169063a4c0ed36906106709033908890889088906004016117a5565b6020604051808303816000875af115801561068f573d6000803e3d6000fd5b505050506040513d601f19601f820116820180604052508101906106b391906117db565b95945050505050565b60006106c9338686610d3d565b6040517f2eedcb7100000000000000000000000000000000000000000000000000000000815273ffffffffffffffffffffffffffffffffffffffff861690632eedcb71906107239033908a908990899089906004016117fd565b6020604051808303816000875af1158015610742573d6000803e3d6000fd5b505050506040513d601f19601f8201168201806040525081019061076691906117db565b9695505050505050565b7f0d0000000000000000000000000000000000000000000000000000000000000060608060008080836107a161109b565b604080516020808201835260008083528351818152918201909352999a92999098504697507f0000000000000000000000000000000000000000000000000000000000000000965090945092509050565b600061044d338484610d3d565b600061080c868686610eef565b6040517fa4c0ed3600000000000000000000000000000000000000000000000000000000815273ffffffffffffffffffffffffffffffffffffffff86169063a4c0ed36906107239089908890889088906004016117a5565b6000610871338686610c5e565b6040517eba451f00000000000000000000000000000000000000000000000000000000815273ffffffffffffffffffffffffffffffffffffffff86169062ba451f906106709033908890889088906004016117a5565b73ffffffffffffffffffffffffffffffffffffffff8716610917576040517f8e4c8aa6000000000000000000000000000000000000000000000000000000008152600060048201526024016104c1565b73ffffffffffffffffffffffffffffffffffffffff871660009081526003602052604081205490610946610601565b604080517f6e71edae12b1b97f4d1f60370fef10105fa2faae0126114a169c64845d6126c9602082015273ffffffffffffffffffffffffffffffffffffffff808d1692820192909252908a1660608201526080810189905260a0810184905260c0810188905260e00160405160208183030381529060405280519060200120604051602001610a079291907f190100000000000000000000000000000000000000000000000000000000000081526002810192909252602282015260420190565b604080517fffffffffffffffffffffffffffffffffffffffffffffffffffffffffffffffe081840301815282825280516020918201206000845290830180835281905260ff8816918301919091526060820186905260808201859052915060019060a0016020604051602081039080840390855afa158015610a8d573d6000803e3d6000fd5b5050506020604051035173ffffffffffffffffffffffffffffffffffffffff168973ffffffffffffffffffffffffffffffffffffffff1614610afb576040517f8baa579f00000000000000000000000000000000000000000000000000000000815260040160405180910390fd5b8515801590610b0957508542115b15610b49576040517fdd6b219a000000000000000000000000000000000000000000000000000000008152426004820152602481018790526044016104c1565b610b54826001611848565b73ffffffffffffffffffffffffffffffffffffffff8a16600090815260036020526040902055610b85898989610c5e565b505050505050505050565b60003073ffffffffffffffffffffffffffffffffffffffff841603610bd657507fffffffffffffffffffffffffffffffffffffffffffffffffffffffffffffffff610451565b5073ffffffffffffffffffffffffffffffffffffffff918216600090815260026020908152604080832093909416825291909152205490565b6000610c1c338484610d3d565b60405173ffffffffffffffffffffffffffffffffffffffff8416903480156108fc02916000818181858888f193505050501580156105f7573d6000803e3d6000fd5b73ffffffffffffffffffffffffffffffffffffffff83161580610c95575073ffffffffffffffffffffffffffffffffffffffff8216155b15610ccf576040517f8e4c8aa6000000000000000000000000000000000000000000000000000000008152600060048201526024016104c1565b73ffffffffffffffffffffffffffffffffffffffff83811660008181526002602090815260408083209487168084529482529182902085905590518481527f8c5be1e5ebec7d5bd14f71427d1e84f3dd0314c0f7b2291e5b200ac8c7c3b925910160405180910390a3505050565b73ffffffffffffffffffffffffffffffffffffffff82161580610d75575073ffffffffffffffffffffffffffffffffffffffff821630145b15610dc4576040517f8e4c8aa600000000000000000000000000000000000000000000000000000000815273ffffffffffffffffffffffffffffffffffffffff831660048201526024016104c1565b73ffffffffffffffffffffffffffffffffffffffff831660009081526001602052604090205481811015610e2e576040517f6584853f00000000000000000000000000000000000000000000000000000000815260048101829052602481018390526044016104c1565b610e38828261185b565b73ffffffffffffffffffffffffffffffffffffffff8086166000908152600160205260408082209390935590851681529081208054849290610e7b908490611848565b925050819055508273ffffffffffffffffffffffffffffffffffffffff168473ffffffffffffffffffffffffffffffffffffffff167fddf252ad1be2c89b69c2b068fc378daa952ba7f163c4a11628f55a4df523b3ef84604051610ee191815260200190565b60405180910390a350505050565b3373ffffffffffffffffffffffffffffffffffffffff841614801590610f2b575073ffffffffffffffffffffffffffffffffffffffff83163014155b1561100a5773ffffffffffffffffffffffffffffffffffffffff831660009081526002602090815260408083203384529091529020547fffffffffffffffffffffffffffffffffffffffffffffffffffffffffffffffff81146110085781811015610fcc576040517f95fcd25400000000000000000000000000000000000000000000000000000000815260048101829052602481018390526044016104c1565b610fd6828261185b565b73ffffffffffffffffffffffffffffffffffffffff851660009081526002602090815260408083203384529091529020555b505b611015838383610d3d565b505050565b6000467f000000000000000000000000000000000000000000000000000000000000000081146110735761106e817f00000000000000000000000000000000000000000000000000000000000000006110d7565b611095565b7f00000000000000000000000000000000000000000000000000000000000000005b91505090565b60606105e560408051808201909152600481527f47656d7300000000000000000000000000000000000000000000000000000000602082015290565b60007f8cad95687ba82c2ce50e74f7b754645e5117c3a5bec8151c0726d5857980a86661113460408051808201909152600481527f47656d7300000000000000000000000000000000000000000000000000000000602082015290565b805160209182012060405161117a939287918791019384526020840192909252604083015273ffffffffffffffffffffffffffffffffffffffff16606082015260800190565b60405160208183030381529060405280519060200120905092915050565b6000815180845260005b818110156111be576020818501810151868301820152016111a2565b5060006020828601015260207fffffffffffffffffffffffffffffffffffffffffffffffffffffffffffffffe0601f83011685010191505092915050565b60208152600061120f6020830184611198565b9392505050565b73ffffffffffffffffffffffffffffffffffffffff8116811461123857600080fd5b50565b6000806040838503121561124e57600080fd5b823561125981611216565b946020939093013593505050565b7f4e487b7100000000000000000000000000000000000000000000000000000000600052604160045260246000fd5b80356112a181611216565b919050565b600080604083850312156112b957600080fd5b823567ffffffffffffffff808211156112d157600080fd5b818501915085601f8301126112e557600080fd5b81356020828211156112f9576112f9611267565b8160051b6040517fffffffffffffffffffffffffffffffffffffffffffffffffffffffffffffffe0603f8301168101818110868211171561133c5761133c611267565b60405292835281830193508481018201928984111561135a57600080fd5b948201945b8386101561137f5761137086611296565b8552948201949382019361135f565b9997909101359750505050505050565b6000806000606084860312156113a457600080fd5b83356113af81611216565b925060208401356113bf81611216565b929592945050506040919091013590565b60008083601f8401126113e257600080fd5b50813567ffffffffffffffff8111156113fa57600080fd5b60208301915083602082850101111561141257600080fd5b9250929050565b6000806000806060858703121561142f57600080fd5b843561143a81611216565b935060208501359250604085013567ffffffffffffffff81111561145d57600080fd5b611469878288016113d0565b95989497509550505050565b60008060008060006080868803121561148d57600080fd5b853561149881611216565b945060208601356114a881611216565b935060408601359250606086013567ffffffffffffffff8111156114cb57600080fd5b6114d7888289016113d0565b969995985093965092949392505050565b6000602082840312156114fa57600080fd5b813561120f81611216565b7fff00000000000000000000000000000000000000000000000000000000000000881681526000602060e08184015261154160e084018a611198565b8381036040850152611553818a611198565b6060850189905273ffffffffffffffffffffffffffffffffffffffff8816608086015260a0850187905284810360c0860152855180825283870192509083019060005b818110156115b257835183529284019291840191600101611596565b50909c9b505050505050505050505050565b600080600080600080600060e0888a0312156115df57600080fd5b87356115ea81611216565b965060208801356115fa81611216565b95506040880135945060608801359350608088013560ff8116811461161e57600080fd5b9699959850939692959460a0840135945060c09093013592915050565b6000806040838503121561164e57600080fd5b823561165981611216565b9150602083013561166981611216565b809150509250929050565b7f4e487b7100000000000000000000000000000000000000000000000000000000600052601160045260246000fd5b6000826116d9577f4e487b7100000000000000000000000000000000000000000000000000000000600052601260045260246000fd5b500490565b808202811582820484141761045157610451611674565b7f4e487b7100000000000000000000000000000000000000000000000000000000600052603260045260246000fd5b60007fffffffffffffffffffffffffffffffffffffffffffffffffffffffffffffffff820361175557611755611674565b5060010190565b8183528181602085013750600060208284010152600060207fffffffffffffffffffffffffffffffffffffffffffffffffffffffffffffffe0601f840116840101905092915050565b73ffffffffffffffffffffffffffffffffffffffff8516815283602082015260606040820152600061076660608301848661175c565b6000602082840312156117ed57600080fd5b8151801515811461120f57600080fd5b600073ffffffffffffffffffffffffffffffffffffffff80881683528087166020840152508460408301526080606083015261183d60808301848661175c565b979650505050505050565b8082018082111561045157610451611674565b818103818111156104515761045161167456fea26469706673582212207b3c3b072055d99ef572d0b2057fe7e0da723f2d1528d06e6393260d63e0984964736f6c63430008140033",
  "linkReferences": {},
  "deployedLinkReferences": {},
  "devdoc": {
    "author": "Ronan Sandford",
    "errors": {
      "DeadlineOver(uint256,uint256)": [
        {
          "params": {
            "currentTime": "time at which the error happen",
            "deadline": "the deadline"
          }
        }
      ],
      "InvalidAddress(address)": [
        {
          "params": {
            "addr": "invalid address"
          }
        }
      ],
      "InvalidMsgValue(uint256,uint256)": [
        {
          "params": {
            "expected": "value expected",
            "provided": "msg.value amount provided"
          }
        }
      ],
      "InvalidTotalAmount(uint256,uint256)": [
        {
          "params": {
            "expected": "value expected",
            "provided": "msg.value amount provided"
          }
        }
      ],
      "NotAuthorizedAllowance(uint256,uint256)": [
        {
          "params": {
            "currentAllowance": "the current allowance",
            "expected": "amount expected"
          }
        }
      ],
      "NotEnoughTokens(uint256,uint256)": [
        {
          "params": {
            "currentBalance": "the current balance",
            "expected": "amount expected"
          }
        }
      ]
    },
    "events": {
      "Approval(address,address,uint256)": {
        "params": {
          "owner": "the account approving the `spender`",
          "spender": "the account allowed to spend",
          "value": "the amount granted"
        }
      },
      "Transfer(address,address,uint256)": {
        "params": {
          "from": "the account the tokens are sent from",
          "to": "the account the tokens are sent to",
          "value": "number of tokens sent"
        }
      }
    },
    "kind": "dev",
    "methods": {
      "approveAndCall(address,uint256,bytes)": {
        "params": {
          "amount": "number of token to transfer",
          "data": "extra data",
          "spender": "account to send the token for"
        },
        "returns": {
          "_0": "success"
        }
      },
      "eip712Domain()": {
        "returns": {
          "chainID": "EIP-712 chainID",
          "extensions": "A list of EIP numbers that specify additional fields in the domain. The method to obtain the value for each of these additional fields and any conditions for inclusion are expected to be specified in the respective EIP. The value of fields does not affect their inclusion.",
          "fields": "A bit map where bit i is set to 1 if and only if domain field i is present (0 ≤ i ≤ 4). Bits are read from least significant to most significant, and fields are indexed in the order that is specified by EIP-712, identical to the order in which they are listed in the function type.",
          "name": "EIP-712 name",
          "salt": "EIP-712 salt",
          "verifyingContract": "EIP-712 name verifyingContract",
          "version": "EIP-712 version"
        }
      },
      "nonces(address)": {
        "params": {
          "owner": "address queried"
        },
        "returns": {
          "_0": "nonce value"
        }
      },
      "permit(address,address,uint256,uint256,uint8,bytes32,bytes32)": {
        "params": {
          "deadline": "timestamp in seconds after which the permit is not valid.",
          "owner": "owner of the tokens",
          "r": "signature part r",
          "s": "signature part s",
          "spender": "address allowed to spend on behalf of the owner.",
          "v": "signature part v",
          "value": "amount of token allowed to be spent"
        }
      },
      "transferAndCall(address,uint256,bytes)": {
        "params": {
          "amount": "number of token to transfer",
          "data": "extra data",
          "to": "account to receive the tokens"
        },
        "returns": {
          "_0": "success"
        }
      },
      "transferFromAndCall(address,address,uint256,bytes)": {
        "params": {
          "amount": "number of token to transfer",
          "data": "extra data",
          "from": "account to send the token from",
          "to": "account to receive the tokens"
        },
        "returns": {
          "_0": "success"
        }
      },
      "transferOnBehalfAndCall(address,address,uint256,bytes)": {
        "params": {
          "amount": "number of token to transfer",
          "data": "extra data",
          "forAddress": "account to send the token for",
          "to": "account to receive the tokens"
        },
        "returns": {
          "_0": "success"
        }
      }
    },
    "title": "Gems Tokens",
    "version": 1
  },
  "evm": {
    "gasEstimates": {
      "creation": {
        "codeDepositCost": "1261600",
        "executionCost": "infinite",
        "totalCost": "infinite"
      },
      "external": {
        "DOMAIN_SEPARATOR()": "infinite",
        "allowance(address,address)": "infinite",
        "approve(address,uint256)": "24603",
        "approveAndCall(address,uint256,bytes)": "infinite",
        "balanceOf(address)": "2553",
        "decimals()": "245",
        "distributeAlongWithETH(address[],uint256)": "infinite",
        "eip712Domain()": "infinite",
        "name()": "infinite",
        "nonces(address)": "2575",
        "permit(address,address,uint256,uint256,uint8,bytes32,bytes32)": "infinite",
        "symbol()": "infinite",
        "totalSupply()": "2371",
        "transfer(address,uint256)": "infinite",
        "transferAlongWithETH(address,uint256)": "infinite",
        "transferAndCall(address,uint256,bytes)": "infinite",
        "transferFrom(address,address,uint256)": "infinite",
        "transferFromAndCall(address,address,uint256,bytes)": "infinite",
        "transferOnBehalfAndCall(address,address,uint256,bytes)": "infinite"
      }
    }
  },
  "storageLayout": {
    "storage": [
      {
        "astId": 9548,
        "contract": "src/token/Gems.sol:Gems",
        "label": "_totalSupply",
        "offset": 0,
        "slot": "0",
        "type": "t_uint256"
      },
      {
        "astId": 9552,
        "contract": "src/token/Gems.sol:Gems",
        "label": "_balances",
        "offset": 0,
        "slot": "1",
        "type": "t_mapping(t_address,t_uint256)"
      },
      {
        "astId": 9558,
        "contract": "src/token/Gems.sol:Gems",
        "label": "_allowances",
        "offset": 0,
        "slot": "2",
        "type": "t_mapping(t_address,t_mapping(t_address,t_uint256))"
      },
      {
        "astId": 9318,
        "contract": "src/token/Gems.sol:Gems",
        "label": "_nonces",
        "offset": 0,
        "slot": "3",
        "type": "t_mapping(t_address,t_uint256)"
      }
    ],
    "types": {
      "t_address": {
        "encoding": "inplace",
        "label": "address",
        "numberOfBytes": "20"
      },
      "t_mapping(t_address,t_mapping(t_address,t_uint256))": {
        "encoding": "mapping",
        "key": "t_address",
        "label": "mapping(address => mapping(address => uint256))",
        "numberOfBytes": "32",
        "value": "t_mapping(t_address,t_uint256)"
      },
      "t_mapping(t_address,t_uint256)": {
        "encoding": "mapping",
        "key": "t_address",
        "label": "mapping(address => uint256)",
        "numberOfBytes": "32",
        "value": "t_uint256"
      },
      "t_uint256": {
        "encoding": "inplace",
        "label": "uint256",
        "numberOfBytes": "32"
      }
    }
  },
  "userdoc": {
    "errors": {
      "DeadlineOver(uint256,uint256)": [
        {
          "notice": "The permit has expired"
        }
      ],
      "InvalidAddress(address)": [
        {
          "notice": "An invalid address is specified (for example: zero address)"
        }
      ],
      "InvalidMsgValue(uint256,uint256)": [
        {
          "notice": "The msg value do not match the expected value"
        }
      ],
      "InvalidSignature()": [
        {
          "notice": "The signature do not match the expected signer"
        }
      ],
      "InvalidTotalAmount(uint256,uint256)": [
        {
          "notice": "The total amount provided do not match the expected value"
        }
      ],
      "NotAuthorizedAllowance(uint256,uint256)": [
        {
          "notice": "the amount requested exceed the allowance"
        }
      ],
      "NotEnoughTokens(uint256,uint256)": [
        {
          "notice": "the amount requested exceed the balance"
        }
      ]
    },
    "events": {
      "Approval(address,address,uint256)": {
        "notice": "trigger on approval amount being set.   Note that Transfer events need to be considered to compute the current allowance."
      },
      "Transfer(address,address,uint256)": {
        "notice": "trigger when tokens are transferred, including zero value transfers."
      }
    },
    "kind": "user",
    "methods": {
      "DOMAIN_SEPARATOR()": {
        "notice": "EIP-712 Domain separator hash"
      },
      "allowance(address,address)": {
        "notice": "Returns the amount which `spender` is still allowed to withdraw from `owner`."
      },
      "approve(address,uint256)": {
        "notice": "Allows `spender` to withdraw from your account multiple times, up to `amount`."
      },
      "approveAndCall(address,uint256,bytes)": {
        "notice": "approve `amount` token to be spent by `spender` and callback into it via `onTokenApproval`"
      },
      "balanceOf(address)": {
        "notice": "Returns the account balance of another account with address `owner`."
      },
      "decimals()": {
        "notice": "Returns the number of decimals the token uses."
      },
      "distributeAlongWithETH(address[],uint256)": {
        "notice": "distribute"
      },
      "eip712Domain()": {
        "notice": "The return values of this function MUST describe the domain separator that is used for verification of EIP-712 signatures in the contract. They describe both the form of the EIP712Domain struct (i.e., which of the optional fields and extensions are present) and the value of each field, as follows."
      },
      "nonces(address)": {
        "notice": "return the current nonce of the owner"
      },
      "permit(address,address,uint256,uint256,uint8,bytes32,bytes32)": {
        "notice": "allow `spender` to spend `value` amount of token on behalf of `owner`"
      },
      "symbol()": {
        "notice": "Returns the symbol of the token."
      },
      "totalSupply()": {
        "notice": "Returns the total token supply."
      },
      "transfer(address,uint256)": {
        "notice": "Transfers `amount` of tokens to address `to`."
      },
      "transferAlongWithETH(address,uint256)": {
        "notice": "transfer"
      },
      "transferAndCall(address,uint256,bytes)": {
        "notice": "transfer `amount` token to `to` and callback into it via `onTokenTransfer`"
      },
      "transferFrom(address,address,uint256)": {
        "notice": "Transfers `amount` tokens from address `from` to address `to`."
      },
      "transferFromAndCall(address,address,uint256,bytes)": {
        "notice": "transfer `amount` token to `to` and callback into it via `onTokenTransfer`"
      },
      "transferOnBehalfAndCall(address,address,uint256,bytes)": {
        "notice": "transfer `amount` token to `to` and callback into it via `onTokenTransferedOnBehalf`"
      }
    },
    "notice": "Gems Tokens initialy generated by playing instances of Stratagems",
    "version": 1
  },
  "argsData": "0x000000000000000000000000ab1346cf31b343ddfbe03effee19bab88c4105140000000000000000000000000000000000000000033b2e3c9fd0803ce8000000",
  "transaction": {
    "hash": "0x88bbec6cf5823a8c774954d74cac8af586418acb068eda20c9ff270101ae3780",
    "origin": "0xbe19b59e8c588d68f475a407c7ba5fe813aeb792"
  }
}