{
  "address": "0x0f3bc58c8a5b8cf45500c3503ec18c09e4a5b166",
  "abi": [
    {
      "inputs": [
        {
          "internalType": "address",
          "name": "to",
          "type": "address"
        },
        {
          "internalType": "uint256",
          "name": "amount",
          "type": "uint256"
        },
        {
          "components": [
            {
              "internalType": "uint256",
              "name": "fee",
              "type": "uint256"
            },
            {
              "internalType": "address payable",
              "name": "feeReceiver",
              "type": "address"
            }
          ],
          "internalType": "struct TestTokens.Config",
          "name": "config",
          "type": "tuple"
        }
      ],
      "stateMutability": "nonpayable",
      "type": "constructor"
    },
    {
      "inputs": [
        {
          "internalType": "uint256",
          "name": "currentTime",
          "type": "uint256"
        },
        {
          "internalType": "uint256",
          "name": "deadline",
          "type": "uint256"
        }
      ],
      "name": "DeadlineOver",
      "type": "error"
    },
    {
      "inputs": [
        {
          "internalType": "address",
          "name": "addr",
          "type": "address"
        }
      ],
      "name": "InvalidAddress",
      "type": "error"
    },
    {
      "inputs": [
        {
          "internalType": "uint256",
          "name": "provided",
          "type": "uint256"
        },
        {
          "internalType": "uint256",
          "name": "expected",
          "type": "uint256"
        }
      ],
      "name": "InvalidMsgValue",
      "type": "error"
    },
    {
      "inputs": [],
      "name": "InvalidSignature",
      "type": "error"
    },
    {
      "inputs": [
        {
          "internalType": "uint256",
          "name": "provided",
          "type": "uint256"
        },
        {
          "internalType": "uint256",
          "name": "expected",
          "type": "uint256"
        }
      ],
      "name": "InvalidTotalAmount",
      "type": "error"
    },
    {
      "inputs": [
        {
          "internalType": "uint256",
          "name": "currentAllowance",
          "type": "uint256"
        },
        {
          "internalType": "uint256",
          "name": "expected",
          "type": "uint256"
        }
      ],
      "name": "NotAuthorizedAllowance",
      "type": "error"
    },
    {
      "inputs": [
        {
          "internalType": "uint256",
          "name": "currentBalance",
          "type": "uint256"
        },
        {
          "internalType": "uint256",
          "name": "expected",
          "type": "uint256"
        }
      ],
      "name": "NotEnoughTokens",
      "type": "error"
    },
    {
      "inputs": [],
      "name": "WrongFee",
      "type": "error"
    },
    {
      "anonymous": false,
      "inputs": [
        {
          "indexed": true,
          "internalType": "address",
          "name": "owner",
          "type": "address"
        },
        {
          "indexed": true,
          "internalType": "address",
          "name": "spender",
          "type": "address"
        },
        {
          "indexed": false,
          "internalType": "uint256",
          "name": "value",
          "type": "uint256"
        }
      ],
      "name": "Approval",
      "type": "event"
    },
    {
      "anonymous": false,
      "inputs": [
        {
          "indexed": true,
          "internalType": "address",
          "name": "from",
          "type": "address"
        },
        {
          "indexed": true,
          "internalType": "address",
          "name": "to",
          "type": "address"
        },
        {
          "indexed": false,
          "internalType": "uint256",
          "name": "value",
          "type": "uint256"
        }
      ],
      "name": "Transfer",
      "type": "event"
    },
    {
      "inputs": [],
      "name": "DOMAIN_SEPARATOR",
      "outputs": [
        {
          "internalType": "bytes32",
          "name": "",
          "type": "bytes32"
        }
      ],
      "stateMutability": "view",
      "type": "function"
    },
    {
      "inputs": [
        {
          "internalType": "address",
          "name": "owner",
          "type": "address"
        },
        {
          "internalType": "address",
          "name": "spender",
          "type": "address"
        }
      ],
      "name": "allowance",
      "outputs": [
        {
          "internalType": "uint256",
          "name": "",
          "type": "uint256"
        }
      ],
      "stateMutability": "view",
      "type": "function"
    },
    {
      "inputs": [
        {
          "internalType": "address",
          "name": "spender",
          "type": "address"
        },
        {
          "internalType": "uint256",
          "name": "amount",
          "type": "uint256"
        }
      ],
      "name": "approve",
      "outputs": [
        {
          "internalType": "bool",
          "name": "",
          "type": "bool"
        }
      ],
      "stateMutability": "nonpayable",
      "type": "function"
    },
    {
      "inputs": [
        {
          "internalType": "address",
          "name": "spender",
          "type": "address"
        },
        {
          "internalType": "uint256",
          "name": "amount",
          "type": "uint256"
        },
        {
          "internalType": "bytes",
          "name": "data",
          "type": "bytes"
        }
      ],
      "name": "approveAndCall",
      "outputs": [
        {
          "internalType": "bool",
          "name": "",
          "type": "bool"
        }
      ],
      "stateMutability": "nonpayable",
      "type": "function"
    },
    {
      "inputs": [
        {
          "internalType": "address",
          "name": "owner",
          "type": "address"
        }
      ],
      "name": "balanceOf",
      "outputs": [
        {
          "internalType": "uint256",
          "name": "",
          "type": "uint256"
        }
      ],
      "stateMutability": "view",
      "type": "function"
    },
    {
      "inputs": [],
      "name": "decimals",
      "outputs": [
        {
          "internalType": "uint8",
          "name": "",
          "type": "uint8"
        }
      ],
      "stateMutability": "pure",
      "type": "function"
    },
    {
      "inputs": [
        {
          "internalType": "address payable[]",
          "name": "tos",
          "type": "address[]"
        },
        {
          "internalType": "uint256",
          "name": "totalAmount",
          "type": "uint256"
        }
      ],
      "name": "distributeAlongWithETH",
      "outputs": [
        {
          "internalType": "bool",
          "name": "",
          "type": "bool"
        }
      ],
      "stateMutability": "payable",
      "type": "function"
    },
    {
      "inputs": [],
      "name": "eip712Domain",
      "outputs": [
        {
          "internalType": "bytes1",
          "name": "fields",
          "type": "bytes1"
        },
        {
          "internalType": "string",
          "name": "name",
          "type": "string"
        },
        {
          "internalType": "string",
          "name": "version",
          "type": "string"
        },
        {
          "internalType": "uint256",
          "name": "chainID",
          "type": "uint256"
        },
        {
          "internalType": "address",
          "name": "verifyingContract",
          "type": "address"
        },
        {
          "internalType": "bytes32",
          "name": "salt",
          "type": "bytes32"
        },
        {
          "internalType": "uint256[]",
          "name": "extensions",
          "type": "uint256[]"
        }
      ],
      "stateMutability": "view",
      "type": "function"
    },
    {
      "inputs": [],
      "name": "fee",
      "outputs": [
        {
          "internalType": "uint256",
          "name": "",
          "type": "uint256"
        }
      ],
      "stateMutability": "view",
      "type": "function"
    },
    {
      "inputs": [],
      "name": "feeReceiver",
      "outputs": [
        {
          "internalType": "address payable",
          "name": "",
          "type": "address"
        }
      ],
      "stateMutability": "view",
      "type": "function"
    },
    {
      "inputs": [],
      "name": "name",
      "outputs": [
        {
          "internalType": "string",
          "name": "",
          "type": "string"
        }
      ],
      "stateMutability": "pure",
      "type": "function"
    },
    {
      "inputs": [
        {
          "internalType": "address",
          "name": "owner",
          "type": "address"
        }
      ],
      "name": "nonces",
      "outputs": [
        {
          "internalType": "uint256",
          "name": "",
          "type": "uint256"
        }
      ],
      "stateMutability": "view",
      "type": "function"
    },
    {
      "inputs": [
        {
          "internalType": "address",
          "name": "owner",
          "type": "address"
        },
        {
          "internalType": "address",
          "name": "spender",
          "type": "address"
        },
        {
          "internalType": "uint256",
          "name": "value",
          "type": "uint256"
        },
        {
          "internalType": "uint256",
          "name": "deadline",
          "type": "uint256"
        },
        {
          "internalType": "uint8",
          "name": "v",
          "type": "uint8"
        },
        {
          "internalType": "bytes32",
          "name": "r",
          "type": "bytes32"
        },
        {
          "internalType": "bytes32",
          "name": "s",
          "type": "bytes32"
        }
      ],
      "name": "permit",
      "outputs": [],
      "stateMutability": "nonpayable",
      "type": "function"
    },
    {
      "inputs": [],
      "name": "symbol",
      "outputs": [
        {
          "internalType": "string",
          "name": "",
          "type": "string"
        }
      ],
      "stateMutability": "view",
      "type": "function"
    },
    {
      "inputs": [],
      "name": "topup",
      "outputs": [],
      "stateMutability": "payable",
      "type": "function"
    },
    {
      "inputs": [],
      "name": "totalSupply",
      "outputs": [
        {
          "internalType": "uint256",
          "name": "",
          "type": "uint256"
        }
      ],
      "stateMutability": "view",
      "type": "function"
    },
    {
      "inputs": [
        {
          "internalType": "address",
          "name": "to",
          "type": "address"
        },
        {
          "internalType": "uint256",
          "name": "amount",
          "type": "uint256"
        }
      ],
      "name": "transfer",
      "outputs": [
        {
          "internalType": "bool",
          "name": "",
          "type": "bool"
        }
      ],
      "stateMutability": "nonpayable",
      "type": "function"
    },
    {
      "inputs": [
        {
          "internalType": "address payable",
          "name": "to",
          "type": "address"
        },
        {
          "internalType": "uint256",
          "name": "amount",
          "type": "uint256"
        }
      ],
      "name": "transferAlongWithETH",
      "outputs": [
        {
          "internalType": "bool",
          "name": "",
          "type": "bool"
        }
      ],
      "stateMutability": "payable",
      "type": "function"
    },
    {
      "inputs": [
        {
          "internalType": "address",
          "name": "to",
          "type": "address"
        },
        {
          "internalType": "uint256",
          "name": "amount",
          "type": "uint256"
        },
        {
          "internalType": "bytes",
          "name": "data",
          "type": "bytes"
        }
      ],
      "name": "transferAndCall",
      "outputs": [
        {
          "internalType": "bool",
          "name": "",
          "type": "bool"
        }
      ],
      "stateMutability": "nonpayable",
      "type": "function"
    },
    {
      "inputs": [
        {
          "internalType": "address",
          "name": "from",
          "type": "address"
        },
        {
          "internalType": "address",
          "name": "to",
          "type": "address"
        },
        {
          "internalType": "uint256",
          "name": "amount",
          "type": "uint256"
        }
      ],
      "name": "transferFrom",
      "outputs": [
        {
          "internalType": "bool",
          "name": "",
          "type": "bool"
        }
      ],
      "stateMutability": "nonpayable",
      "type": "function"
    },
    {
      "inputs": [
        {
          "internalType": "address",
          "name": "from",
          "type": "address"
        },
        {
          "internalType": "address",
          "name": "to",
          "type": "address"
        },
        {
          "internalType": "uint256",
          "name": "amount",
          "type": "uint256"
        },
        {
          "internalType": "bytes",
          "name": "data",
          "type": "bytes"
        }
      ],
      "name": "transferFromAndCall",
      "outputs": [
        {
          "internalType": "bool",
          "name": "",
          "type": "bool"
        }
      ],
      "stateMutability": "nonpayable",
      "type": "function"
    },
    {
      "inputs": [
        {
          "internalType": "address",
          "name": "forAddress",
          "type": "address"
        },
        {
          "internalType": "address",
          "name": "to",
          "type": "address"
        },
        {
          "internalType": "uint256",
          "name": "amount",
          "type": "uint256"
        },
        {
          "internalType": "bytes",
          "name": "data",
          "type": "bytes"
        }
      ],
      "name": "transferOnBehalfAndCall",
      "outputs": [
        {
          "internalType": "bool",
          "name": "",
          "type": "bool"
        }
      ],
      "stateMutability": "nonpayable",
      "type": "function"
    }
  ],
  "contractName": "TestTokens",
  "sourceName": "src/test/TestTokens.sol",
  "bytecode": "0x6101006040523480156200001257600080fd5b5060405162001de238038062001de28339810160408190526200003591620001f3565b4660808190523090819081156200004d57816200004f565b305b6001600160a01b031660c08190526200006a908290620000ae565b60a0525050815160e052506020810151600480546001600160a01b0319166001600160a01b03909216919091179055620000a583836200014e565b505050620002b3565b60007f8cad95687ba82c2ce50e74f7b754645e5117c3a5bec8151c0726d5857980a866620000f5604080518082019091526006815265546f6b656e7360d01b602082015290565b80516020918201206040516200012f93928791879101938452602084019290925260408301526001600160a01b0316606082015260800190565b6040516020818303038152906040528051906020012090505b92915050565b8060008082825462000161919062000291565b90915550506001600160a01b038216600090815260016020526040812080548392906200019090849062000291565b90915550506040518181526001600160a01b038316906000907fddf252ad1be2c89b69c2b068fc378daa952ba7f163c4a11628f55a4df523b3ef9060200160405180910390a35050565b6001600160a01b0381168114620001f057600080fd5b50565b600080600083850360808112156200020a57600080fd5b84516200021781620001da565b602086015190945092506040603f19820112156200023457600080fd5b50604080519081016001600160401b03811182821017156200026657634e487b7160e01b600052604160045260246000fd5b6040908152850151815260608501516200028081620001da565b602082015292959194509192509050565b808201808211156200014857634e487b7160e01b600052601160045260246000fd5b60805160a05160c05160e051611ae062000302600039600081816104ca01528181610831015261088a01526000818161096201526111e40152600061120f015260006111b90152611ae06000f3fe6080604052600436106101755760003560e01c80637ecebe00116100cb578063c1d34b891161007f578063dd62ed3e11610059578063dd62ed3e14610498578063ddca3f43146104b8578063e7fcb065146104ec57600080fd5b8063c1d34b8914610438578063cae9ca5114610458578063d505accf1461047857600080fd5b806395d89b41116100b057806395d89b411461037d578063a9059cbb146103c6578063b3f00674146103e657600080fd5b80637ecebe001461031257806384b0196e1461035557600080fd5b8063313ce5671161012d57806365520efa1161010757806365520efa146102a557806369774c2d146102c557806370a08231146102cf57600080fd5b8063313ce567146102545780633644e515146102705780634000aea01461028557600080fd5b80630e02df541161015e5780630e02df541461020257806318160ddd1461021557806323b872dd1461023457600080fd5b806306fdde031461017a578063095ea7b3146101d2575b600080fd5b34801561018657600080fd5b5060408051808201909152600681527f546f6b656e73000000000000000000000000000000000000000000000000000060208201525b6040516101c99190611438565b60405180910390f35b3480156101de57600080fd5b506101f26101ed366004611477565b6104ff565b60405190151581526020016101c9565b6101f26102103660046114e2565b610516565b34801561022157600080fd5b506000545b6040519081526020016101c9565b34801561024057600080fd5b506101f261024f3660046115cb565b6106a9565b34801561026057600080fd5b50604051601281526020016101c9565b34801561027c57600080fd5b506102266106c0565b34801561029157600080fd5b506101f26102a0366004611655565b6106ca565b3480156102b157600080fd5b506101f26102c03660046116b1565b61077b565b6102cd61082f565b005b3480156102db57600080fd5b506102266102ea366004611724565b73ffffffffffffffffffffffffffffffffffffffff1660009081526001602052604090205490565b34801561031e57600080fd5b5061022661032d366004611724565b73ffffffffffffffffffffffffffffffffffffffff1660009081526003602052604090205490565b34801561036157600080fd5b5061036a61090a565b6040516101c99796959493929190611741565b34801561038957600080fd5b506101bc6040518060400160405280600581526020017f544f4b454e00000000000000000000000000000000000000000000000000000081525081565b3480156103d257600080fd5b506101f26103e1366004611477565b61098c565b3480156103f257600080fd5b506004546104139073ffffffffffffffffffffffffffffffffffffffff1681565b60405173ffffffffffffffffffffffffffffffffffffffff90911681526020016101c9565b34801561044457600080fd5b506101f26104533660046116b1565b610999565b34801561046457600080fd5b506101f2610473366004611655565b6109fe565b34801561048457600080fd5b506102cd610493366004611800565b610a61565b3480156104a457600080fd5b506102266104b3366004611877565b610d2a565b3480156104c457600080fd5b506102267f000000000000000000000000000000000000000000000000000000000000000081565b6101f26104fa366004611477565b610da9565b600061050c338484610df8565b5060015b92915050565b60008083513461052691906118df565b9050835181610535919061191a565b34146105895734845182610549919061191a565b6040517f1f89f671000000000000000000000000000000000000000000000000000000008152600481019290925260248201526044015b60405180910390fd5b600084518461059891906118df565b90508451816105a7919061191a565b84146105f657838551826105bb919061191a565b6040517fe93890a200000000000000000000000000000000000000000000000000000000815260048101929092526024820152604401610580565b60005b8551811015610698576106263387838151811061061857610618611931565b602002602001015184610ed7565b85818151811061063857610638611931565b602002602001015173ffffffffffffffffffffffffffffffffffffffff166108fc849081150290604051600060405180830381858888f19350505050158015610685573d6000803e3d6000fd5b508061069081611960565b9150506105f9565b50600195945050505050565b905090565b60006106b6848484611089565b5060019392505050565b60006106a46111b4565b60006106d7338686610ed7565b6040517fa4c0ed3600000000000000000000000000000000000000000000000000000000815273ffffffffffffffffffffffffffffffffffffffff86169063a4c0ed369061072f9033908890889088906004016119e1565b6020604051808303816000875af115801561074e573d6000803e3d6000fd5b505050506040513d601f19601f820116820180604052508101906107729190611a17565b95945050505050565b6000610788338686610ed7565b6040517f2eedcb7100000000000000000000000000000000000000000000000000000000815273ffffffffffffffffffffffffffffffffffffffff861690632eedcb71906107e29033908a90899089908990600401611a39565b6020604051808303816000875af1158015610801573d6000803e3d6000fd5b505050506040513d601f19601f820116820180604052508101906108259190611a17565b9695505050505050565b7f00000000000000000000000000000000000000000000000000000000000000003414610888576040517f9a0833b600000000000000000000000000000000000000000000000000000000815260040160405180910390fd5b7f0000000000000000000000000000000000000000000000000000000000000000156108f65760045460405173ffffffffffffffffffffffffffffffffffffffff909116903480156108fc02916000818181858888f193505050501580156108f4573d6000803e3d6000fd5b505b6109083367d02ab486cedc0000611235565b565b7f0d00000000000000000000000000000000000000000000000000000000000000606080600080808361093b6112d7565b604080516020808201835260008083528351818152918201909352999a92999098504697507f0000000000000000000000000000000000000000000000000000000000000000965090945092509050565b600061050c338484610ed7565b60006109a6868686611089565b6040517fa4c0ed3600000000000000000000000000000000000000000000000000000000815273ffffffffffffffffffffffffffffffffffffffff86169063a4c0ed36906107e29089908890889088906004016119e1565b6000610a0b338686610df8565b6040517eba451f00000000000000000000000000000000000000000000000000000000815273ffffffffffffffffffffffffffffffffffffffff86169062ba451f9061072f9033908890889088906004016119e1565b73ffffffffffffffffffffffffffffffffffffffff8716610ab1576040517f8e4c8aa600000000000000000000000000000000000000000000000000000000815260006004820152602401610580565b73ffffffffffffffffffffffffffffffffffffffff871660009081526003602052604081205490610ae06106c0565b604080517f6e71edae12b1b97f4d1f60370fef10105fa2faae0126114a169c64845d6126c9602082015273ffffffffffffffffffffffffffffffffffffffff808d1692820192909252908a1660608201526080810189905260a0810184905260c0810188905260e00160405160208183030381529060405280519060200120604051602001610ba19291907f190100000000000000000000000000000000000000000000000000000000000081526002810192909252602282015260420190565b604080517fffffffffffffffffffffffffffffffffffffffffffffffffffffffffffffffe081840301815282825280516020918201206000845290830180835281905260ff8816918301919091526060820186905260808201859052915060019060a0016020604051602081039080840390855afa158015610c27573d6000803e3d6000fd5b5050506020604051035173ffffffffffffffffffffffffffffffffffffffff168973ffffffffffffffffffffffffffffffffffffffff1614610c95576040517f8baa579f00000000000000000000000000000000000000000000000000000000815260040160405180910390fd5b8515801590610ca357508542115b15610ce3576040517fdd6b219a00000000000000000000000000000000000000000000000000000000815242600482015260248101879052604401610580565b610cee826001611a84565b73ffffffffffffffffffffffffffffffffffffffff8a16600090815260036020526040902055610d1f898989610df8565b505050505050505050565b60003073ffffffffffffffffffffffffffffffffffffffff841603610d7057507fffffffffffffffffffffffffffffffffffffffffffffffffffffffffffffffff610510565b5073ffffffffffffffffffffffffffffffffffffffff918216600090815260026020908152604080832093909416825291909152205490565b6000610db6338484610ed7565b60405173ffffffffffffffffffffffffffffffffffffffff8416903480156108fc02916000818181858888f193505050501580156106b6573d6000803e3d6000fd5b73ffffffffffffffffffffffffffffffffffffffff83161580610e2f575073ffffffffffffffffffffffffffffffffffffffff8216155b15610e69576040517f8e4c8aa600000000000000000000000000000000000000000000000000000000815260006004820152602401610580565b73ffffffffffffffffffffffffffffffffffffffff83811660008181526002602090815260408083209487168084529482529182902085905590518481527f8c5be1e5ebec7d5bd14f71427d1e84f3dd0314c0f7b2291e5b200ac8c7c3b925910160405180910390a3505050565b73ffffffffffffffffffffffffffffffffffffffff82161580610f0f575073ffffffffffffffffffffffffffffffffffffffff821630145b15610f5e576040517f8e4c8aa600000000000000000000000000000000000000000000000000000000815273ffffffffffffffffffffffffffffffffffffffff83166004820152602401610580565b73ffffffffffffffffffffffffffffffffffffffff831660009081526001602052604090205481811015610fc8576040517f6584853f0000000000000000000000000000000000000000000000000000000081526004810182905260248101839052604401610580565b610fd28282611a97565b73ffffffffffffffffffffffffffffffffffffffff8086166000908152600160205260408082209390935590851681529081208054849290611015908490611a84565b925050819055508273ffffffffffffffffffffffffffffffffffffffff168473ffffffffffffffffffffffffffffffffffffffff167fddf252ad1be2c89b69c2b068fc378daa952ba7f163c4a11628f55a4df523b3ef8460405161107b91815260200190565b60405180910390a350505050565b3373ffffffffffffffffffffffffffffffffffffffff8416148015906110c5575073ffffffffffffffffffffffffffffffffffffffff83163014155b156111a45773ffffffffffffffffffffffffffffffffffffffff831660009081526002602090815260408083203384529091529020547fffffffffffffffffffffffffffffffffffffffffffffffffffffffffffffffff81146111a25781811015611166576040517f95fcd2540000000000000000000000000000000000000000000000000000000081526004810182905260248101839052604401610580565b6111708282611a97565b73ffffffffffffffffffffffffffffffffffffffff851660009081526002602090815260408083203384529091529020555b505b6111af838383610ed7565b505050565b6000467f0000000000000000000000000000000000000000000000000000000000000000811461120d57611208817f0000000000000000000000000000000000000000000000000000000000000000611313565b61122f565b7f00000000000000000000000000000000000000000000000000000000000000005b91505090565b806000808282546112469190611a84565b909155505073ffffffffffffffffffffffffffffffffffffffff821660009081526001602052604081208054839290611280908490611a84565b909155505060405181815273ffffffffffffffffffffffffffffffffffffffff8316906000907fddf252ad1be2c89b69c2b068fc378daa952ba7f163c4a11628f55a4df523b3ef9060200160405180910390a35050565b60606106a460408051808201909152600681527f546f6b656e730000000000000000000000000000000000000000000000000000602082015290565b60007f8cad95687ba82c2ce50e74f7b754645e5117c3a5bec8151c0726d5857980a86661137060408051808201909152600681527f546f6b656e730000000000000000000000000000000000000000000000000000602082015290565b80516020918201206040516113b6939287918791019384526020840192909252604083015273ffffffffffffffffffffffffffffffffffffffff16606082015260800190565b60405160208183030381529060405280519060200120905092915050565b6000815180845260005b818110156113fa576020818501810151868301820152016113de565b5060006020828601015260207fffffffffffffffffffffffffffffffffffffffffffffffffffffffffffffffe0601f83011685010191505092915050565b60208152600061144b60208301846113d4565b9392505050565b73ffffffffffffffffffffffffffffffffffffffff8116811461147457600080fd5b50565b6000806040838503121561148a57600080fd5b823561149581611452565b946020939093013593505050565b7f4e487b7100000000000000000000000000000000000000000000000000000000600052604160045260246000fd5b80356114dd81611452565b919050565b600080604083850312156114f557600080fd5b823567ffffffffffffffff8082111561150d57600080fd5b818501915085601f83011261152157600080fd5b8135602082821115611535576115356114a3565b8160051b6040517fffffffffffffffffffffffffffffffffffffffffffffffffffffffffffffffe0603f83011681018181108682111715611578576115786114a3565b60405292835281830193508481018201928984111561159657600080fd5b948201945b838610156115bb576115ac866114d2565b8552948201949382019361159b565b9997909101359750505050505050565b6000806000606084860312156115e057600080fd5b83356115eb81611452565b925060208401356115fb81611452565b929592945050506040919091013590565b60008083601f84011261161e57600080fd5b50813567ffffffffffffffff81111561163657600080fd5b60208301915083602082850101111561164e57600080fd5b9250929050565b6000806000806060858703121561166b57600080fd5b843561167681611452565b935060208501359250604085013567ffffffffffffffff81111561169957600080fd5b6116a58782880161160c565b95989497509550505050565b6000806000806000608086880312156116c957600080fd5b85356116d481611452565b945060208601356116e481611452565b935060408601359250606086013567ffffffffffffffff81111561170757600080fd5b6117138882890161160c565b969995985093965092949392505050565b60006020828403121561173657600080fd5b813561144b81611452565b7fff00000000000000000000000000000000000000000000000000000000000000881681526000602060e08184015261177d60e084018a6113d4565b838103604085015261178f818a6113d4565b6060850189905273ffffffffffffffffffffffffffffffffffffffff8816608086015260a0850187905284810360c0860152855180825283870192509083019060005b818110156117ee578351835292840192918401916001016117d2565b50909c9b505050505050505050505050565b600080600080600080600060e0888a03121561181b57600080fd5b873561182681611452565b9650602088013561183681611452565b95506040880135945060608801359350608088013560ff8116811461185a57600080fd5b9699959850939692959460a0840135945060c09093013592915050565b6000806040838503121561188a57600080fd5b823561189581611452565b915060208301356118a581611452565b809150509250929050565b7f4e487b7100000000000000000000000000000000000000000000000000000000600052601160045260246000fd5b600082611915577f4e487b7100000000000000000000000000000000000000000000000000000000600052601260045260246000fd5b500490565b8082028115828204841417610510576105106118b0565b7f4e487b7100000000000000000000000000000000000000000000000000000000600052603260045260246000fd5b60007fffffffffffffffffffffffffffffffffffffffffffffffffffffffffffffffff8203611991576119916118b0565b5060010190565b8183528181602085013750600060208284010152600060207fffffffffffffffffffffffffffffffffffffffffffffffffffffffffffffffe0601f840116840101905092915050565b73ffffffffffffffffffffffffffffffffffffffff85168152836020820152606060408201526000610825606083018486611998565b600060208284031215611a2957600080fd5b8151801515811461144b57600080fd5b600073ffffffffffffffffffffffffffffffffffffffff808816835280871660208401525084604083015260806060830152611a79608083018486611998565b979650505050505050565b80820180821115610510576105106118b0565b81810381811115610510576105106118b056fea2646970667358221220520c2402f86da4384a0e1df47aa10a54a8d0d74df530a8ab1d88a8379dd66d6c64736f6c63430008140033",
  "linkReferences": {},
  "deployedLinkReferences": {},
  "devdoc": {
    "errors": {
      "DeadlineOver(uint256,uint256)": [
        {
          "params": {
            "currentTime": "time at which the error happen",
            "deadline": "the deadline"
          }
        }
      ],
      "InvalidAddress(address)": [
        {
          "params": {
            "addr": "invalid address"
          }
        }
      ],
      "InvalidMsgValue(uint256,uint256)": [
        {
          "params": {
            "expected": "value expected",
            "provided": "msg.value amount provided"
          }
        }
      ],
      "InvalidTotalAmount(uint256,uint256)": [
        {
          "params": {
            "expected": "value expected",
            "provided": "msg.value amount provided"
          }
        }
      ],
      "NotAuthorizedAllowance(uint256,uint256)": [
        {
          "params": {
            "currentAllowance": "the current allowance",
            "expected": "amount expected"
          }
        }
      ],
      "NotEnoughTokens(uint256,uint256)": [
        {
          "params": {
            "currentBalance": "the current balance",
            "expected": "amount expected"
          }
        }
      ]
    },
    "events": {
      "Approval(address,address,uint256)": {
        "params": {
          "owner": "the account approving the `spender`",
          "spender": "the account allowed to spend",
          "value": "the amount granted"
        }
      },
      "Transfer(address,address,uint256)": {
        "params": {
          "from": "the account the tokens are sent from",
          "to": "the account the tokens are sent to",
          "value": "number of tokens sent"
        }
      }
    },
    "kind": "dev",
    "methods": {
      "approveAndCall(address,uint256,bytes)": {
        "params": {
          "amount": "number of token to transfer",
          "data": "extra data",
          "spender": "account to send the token for"
        },
        "returns": {
          "_0": "success"
        }
      },
      "eip712Domain()": {
        "returns": {
          "chainID": "EIP-712 chainID",
          "extensions": "A list of EIP numbers that specify additional fields in the domain. The method to obtain the value for each of these additional fields and any conditions for inclusion are expected to be specified in the respective EIP. The value of fields does not affect their inclusion.",
          "fields": "A bit map where bit i is set to 1 if and only if domain field i is present (0 ≤ i ≤ 4). Bits are read from least significant to most significant, and fields are indexed in the order that is specified by EIP-712, identical to the order in which they are listed in the function type.",
          "name": "EIP-712 name",
          "salt": "EIP-712 salt",
          "verifyingContract": "EIP-712 name verifyingContract",
          "version": "EIP-712 version"
        }
      },
      "nonces(address)": {
        "params": {
          "owner": "address queried"
        },
        "returns": {
          "_0": "nonce value"
        }
      },
      "permit(address,address,uint256,uint256,uint8,bytes32,bytes32)": {
        "params": {
          "deadline": "timestamp in seconds after which the permit is not valid.",
          "owner": "owner of the tokens",
          "r": "signature part r",
          "s": "signature part s",
          "spender": "address allowed to spend on behalf of the owner.",
          "v": "signature part v",
          "value": "amount of token allowed to be spent"
        }
      },
      "transferAndCall(address,uint256,bytes)": {
        "params": {
          "amount": "number of token to transfer",
          "data": "extra data",
          "to": "account to receive the tokens"
        },
        "returns": {
          "_0": "success"
        }
      },
      "transferFromAndCall(address,address,uint256,bytes)": {
        "params": {
          "amount": "number of token to transfer",
          "data": "extra data",
          "from": "account to send the token from",
          "to": "account to receive the tokens"
        },
        "returns": {
          "_0": "success"
        }
      },
      "transferOnBehalfAndCall(address,address,uint256,bytes)": {
        "params": {
          "amount": "number of token to transfer",
          "data": "extra data",
          "forAddress": "account to send the token for",
          "to": "account to receive the tokens"
        },
        "returns": {
          "_0": "success"
        }
      }
    },
    "version": 1
  },
  "evm": {
    "gasEstimates": {
      "creation": {
        "codeDepositCost": "1376000",
        "executionCost": "infinite",
        "totalCost": "infinite"
      },
      "external": {
        "DOMAIN_SEPARATOR()": "infinite",
        "allowance(address,address)": "infinite",
        "approve(address,uint256)": "24626",
        "approveAndCall(address,uint256,bytes)": "infinite",
        "balanceOf(address)": "2596",
        "decimals()": "223",
        "distributeAlongWithETH(address[],uint256)": "infinite",
        "eip712Domain()": "infinite",
        "fee()": "infinite",
        "feeReceiver()": "2402",
        "name()": "infinite",
        "nonces(address)": "2553",
        "permit(address,address,uint256,uint256,uint8,bytes32,bytes32)": "infinite",
        "symbol()": "infinite",
        "topup()": "infinite",
        "totalSupply()": "2349",
        "transfer(address,uint256)": "infinite",
        "transferAlongWithETH(address,uint256)": "infinite",
        "transferAndCall(address,uint256,bytes)": "infinite",
        "transferFrom(address,address,uint256)": "infinite",
        "transferFromAndCall(address,address,uint256,bytes)": "infinite",
        "transferOnBehalfAndCall(address,address,uint256,bytes)": "infinite"
      }
    }
  },
  "storageLayout": {
    "storage": [
      {
        "astId": 243,
        "contract": "src/test/TestTokens.sol:TestTokens",
        "label": "_totalSupply",
        "offset": 0,
        "slot": "0",
        "type": "t_uint256"
      },
      {
        "astId": 247,
        "contract": "src/test/TestTokens.sol:TestTokens",
        "label": "_balances",
        "offset": 0,
        "slot": "1",
        "type": "t_mapping(t_address,t_uint256)"
      },
      {
        "astId": 253,
        "contract": "src/test/TestTokens.sol:TestTokens",
        "label": "_allowances",
        "offset": 0,
        "slot": "2",
        "type": "t_mapping(t_address,t_mapping(t_address,t_uint256))"
      },
      {
        "astId": 22,
        "contract": "src/test/TestTokens.sol:TestTokens",
        "label": "_nonces",
        "offset": 0,
        "slot": "3",
        "type": "t_mapping(t_address,t_uint256)"
      },
      {
        "astId": 1445,
        "contract": "src/test/TestTokens.sol:TestTokens",
        "label": "feeReceiver",
        "offset": 0,
        "slot": "4",
        "type": "t_address_payable"
      }
    ],
    "types": {
      "t_address": {
        "encoding": "inplace",
        "label": "address",
        "numberOfBytes": "20"
      },
      "t_address_payable": {
        "encoding": "inplace",
        "label": "address payable",
        "numberOfBytes": "20"
      },
      "t_mapping(t_address,t_mapping(t_address,t_uint256))": {
        "encoding": "mapping",
        "key": "t_address",
        "label": "mapping(address => mapping(address => uint256))",
        "numberOfBytes": "32",
        "value": "t_mapping(t_address,t_uint256)"
      },
      "t_mapping(t_address,t_uint256)": {
        "encoding": "mapping",
        "key": "t_address",
        "label": "mapping(address => uint256)",
        "numberOfBytes": "32",
        "value": "t_uint256"
      },
      "t_uint256": {
        "encoding": "inplace",
        "label": "uint256",
        "numberOfBytes": "32"
      }
    }
  },
  "userdoc": {
    "errors": {
      "DeadlineOver(uint256,uint256)": [
        {
          "notice": "The permit has expired"
        }
      ],
      "InvalidAddress(address)": [
        {
          "notice": "An invalid address is specified (for example: zero address)"
        }
      ],
      "InvalidMsgValue(uint256,uint256)": [
        {
          "notice": "The msg value do not match the expected value"
        }
      ],
      "InvalidSignature()": [
        {
          "notice": "The signature do not match the expected signer"
        }
      ],
      "InvalidTotalAmount(uint256,uint256)": [
        {
          "notice": "The total amount provided do not match the expected value"
        }
      ],
      "NotAuthorizedAllowance(uint256,uint256)": [
        {
          "notice": "the amount requested exceed the allowance"
        }
      ],
      "NotEnoughTokens(uint256,uint256)": [
        {
          "notice": "the amount requested exceed the balance"
        }
      ]
    },
    "events": {
      "Approval(address,address,uint256)": {
        "notice": "trigger on approval amount being set.   Note that Transfer events need to be considered to compute the current allowance."
      },
      "Transfer(address,address,uint256)": {
        "notice": "trigger when tokens are transferred, including zero value transfers."
      }
    },
    "kind": "user",
    "methods": {
      "DOMAIN_SEPARATOR()": {
        "notice": "EIP-712 Domain separator hash"
      },
      "allowance(address,address)": {
        "notice": "Returns the amount which `spender` is still allowed to withdraw from `owner`."
      },
      "approve(address,uint256)": {
        "notice": "Allows `spender` to withdraw from your account multiple times, up to `amount`."
      },
      "approveAndCall(address,uint256,bytes)": {
        "notice": "approve `amount` token to be spent by `spender` and callback into it via `onTokenApproval`"
      },
      "balanceOf(address)": {
        "notice": "Returns the account balance of another account with address `owner`."
      },
      "decimals()": {
        "notice": "Returns the number of decimals the token uses."
      },
      "distributeAlongWithETH(address[],uint256)": {
        "notice": "distribute"
      },
      "eip712Domain()": {
        "notice": "The return values of this function MUST describe the domain separator that is used for verification of EIP-712 signatures in the contract. They describe both the form of the EIP712Domain struct (i.e., which of the optional fields and extensions are present) and the value of each field, as follows."
      },
      "nonces(address)": {
        "notice": "return the current nonce of the owner"
      },
      "permit(address,address,uint256,uint256,uint8,bytes32,bytes32)": {
        "notice": "allow `spender` to spend `value` amount of token on behalf of `owner`"
      },
      "symbol()": {
        "notice": "Returns the symbol of the token."
      },
      "totalSupply()": {
        "notice": "Returns the total token supply."
      },
      "transfer(address,uint256)": {
        "notice": "Transfers `amount` of tokens to address `to`."
      },
      "transferAlongWithETH(address,uint256)": {
        "notice": "transfer"
      },
      "transferAndCall(address,uint256,bytes)": {
        "notice": "transfer `amount` token to `to` and callback into it via `onTokenTransfer`"
      },
      "transferFrom(address,address,uint256)": {
        "notice": "Transfers `amount` tokens from address `from` to address `to`."
      },
      "transferFromAndCall(address,address,uint256,bytes)": {
        "notice": "transfer `amount` token to `to` and callback into it via `onTokenTransfer`"
      },
      "transferOnBehalfAndCall(address,address,uint256,bytes)": {
        "notice": "transfer `amount` token to `to` and callback into it via `onTokenTransferedOnBehalf`"
      }
    },
    "version": 1
  },
  "argsData": "0x000000000000000000000000ab1346cf31b343ddfbe03effee19bab88c4105140000000000000000000000000000000000000000033b2e3c9fd0803ce80000000000000000000000000000000000000000000000000000000000000000000000000000000000000000000000be19b59e8c588d68f475a407c7ba5fe813aeb792",
  "transaction": {
    "hash": "0xbf3da5df6d9a4461570ff7232120048fd19921c5e9d4e4e2b18a7df383b655c1",
    "origin": "0xbe19b59e8c588d68f475a407c7ba5fe813aeb792"
  }
}